:081FE30041022900410228001F
:102EBF00F0900194E0FF04F074422FF582E43401A6
:032ECF00F5832266
:10168D0012000E12307D122E5612307A122E3E128C
:10169D0020F99001E9E06060E4F0900229E004F0A7
:1016AD009000A5E0FFC394324027EF24CEFFE43431
:1016BD00FFFE7C007D031201C9EF240AFFE43EFE0C
:1016CD00900229E0D39FEE6480F8748098402980C1
:1016DD00229000A5E0FFC374329FFFE49400FE7CCE
:1016ED00007D061201C9C3740A9FFF900229E0D341
:1016FD009F4005E4F0120F679001EBE0600BE4F002
:10170D00122E091205A712262D9001EDE06002E4BC
:10171D00F09001EFE06002E4F09001F2E06005E48A
:10172D00F0122271122DB6900193EFF07003021694
:01173D009F0C
:10173E00E024FD70030217EF147003021816240242
:10174E00600302169F900228E060030217E79002E2
:08175E0024E020E3030217E779
:10176600E4900194F0A3F0122D0B122EC074F8121F
:101776002EBF7409122EBF7403F0900194E0244228
:10178600F9E43401FA7B017D08122A33900194E0D2
:101796002408F0E4A3F0900143E02401FFE433FEC3
:1017A600900195E0FDC39FEE6480F8748098502008
:1017B60074432DF582E43401F583E0FF900194E053
:1017C6002442122ECAE02FF0900195E004F080C664
:1017D600900194E004F07B017A017942E0FD122346
:0117E600B250
:1017E700E4900228F002169F9002287401F09002FC
:1017F70024E0FF30E30954F7F0122DEE02169F9014
:101807000224E04408F054FBF0122F1D02169F1229
:05181700307702169F6E
:041FEB00410222008D
:102ED200F0900196E0FF04F074422FF582E4340191
:032EE200F5832253
:01307A002233
:10227100E4900196F0900222E004F0E0C394024061
:102281005AE4F0900196F0122ED674F8122ED27400
:1022910001122ED274F1F0E4FF900143E02401FD1C
:1022A100E433FCEFC39DEC6480F8748098501B7498
:1022B100432FF582E43401F583E0FE900196E0249A
:1022C10042122EDDE02EF00F80CF900196E004F057
:0B22D1007B017A017942E0FD1223B28C
:0122DC0022DF
:01307B002232
:01307C002231
:102F0B00E49001DFF0A3F09001D822E475F0010208
:022F1B0002545E
:06303D009001E30204F61D
:063043009001E60204F614
:0E2F60009001E31204D6E94A600312054522EF
:0E2F6E009001E61204D6E94A600312054522DE
:102A0400EF4E602A9001D9EEF0A3EFF0AF05A3ECEE
:102A1400F0A3EFF0AF03A3EAF0A3EFF0E4A3F0A375
:0F2A2400F0A3122F0FF09001D704F0122F6022B1
:102E8300E49001D7F0122F6E7B007A0079001230A4
:042E93003D02304389
:101F4A009001D7E07003021FE29001DBE0FEA3E0FC
:101F5A00FF4E7003021FE29001D8E07027D3EF947E
:101F6A0000EE940040729001DF122F16FED390010A
:101F7A00DAE095F09001D9E09E505D122F6E122F93
:101F8A000B04F0229001D8E06401704C9001DF123A
:101F9A002F17FED39001DCE095F09001DBE09E5014
:101FAA00379001DDE0FEA3E0FF9400EE94004021AB
:101FBA009001E1122F16FCD3EF95F0EE9C5005E448
:101FCA009001D7F09001D7E070079001DBF0A3F001
:091FDA0022122F0BF0122F6022DD
:101FEF0041015200500153000000000000000000AA
:101FFF00000000000000005001420000000000003F
:10200F000000000000000000000048016300000015
:05201F000000000000BC
:101D540090019BE0FF04F074422FF582E43401F516
:101D64008374F8F090019BE0FF04F074422FF58235
:101D7400E43401F58322900143E02401FFE433FEBF
:101D840090019AE0FDC39FEE6480F87480982274F9
:101D9400432DF582E43401F583E0FF90019BE024B8
:101DA40042227B007A007900E49001A1F022E02F26
:101DB400F090019AE004F0227E007D007A017942DD
:101DC4007F107B0102054BF09001960204D6E58258
:101DD4002FF582E43583F5832290019BE02408F0FB
:101DE400E490019AF022FF90019BE0FE04F074421B
:0E1DF4002E22900001020135900003020135FD
:102E5600E4900152F0FEFD7A017953121DC4121D51
:072E6600BC121C87022C6A5C
:0B23B20090019D1204F69001A0EDF0D8
:1023BD00E4FFFE0000000FBF00010EEF64144E702D
:1023CD00F2122F8A9001527401F0E4FEFF0000001A
:1023DD00000FBF00010EEF64C84E70F190019D1209
:1023ED0004D674019001426B7008E965827003EAAE
:1023FD0065836019121DBC9001A0E0FF7E0078423C
:0D240D007C017D0190019D1204D61200F6A5
:01241A00229F
:060B15009001961204F6A7
:100B1B00E4900199F0A3F0A3F0A3F012011C64F28E
:100B2B006003020F17121DCC121DF6D39410400355
:100B3B00020F17E490019AF0121DCC121DF6121D34
:100B4B007E501AED2401FFE433FE121DCC8F828EF2
:100B5B0083120135FF90019C121DB280DB121DCC5C
:100B6B00121DF6F582758300A3A3120135FF9001C8
:100B7B009CE06F6003020F17121DBCE490019B12E7
:100B8B001DCB90000212013512051F0BEE010C5EFE
:100B9B00020C99030D6C040D6E050D70060D72079A
:100BAB000D79080BF1090D80500D8E510D9C520DD6
:100BBB00A3530DB5540E45550E4E560E6D570E7C68
:100BCB00580E8F590E955A0E9E5B0EB65C0EBC5D81
:100BDB000ED45E0D87700D95710D6C730CD4B9002E
:100BEB00000F0E020D87121DCC121DFCB401051255
:100BFB003071801A121DCC121DFCB4020512307418
:100C0B00800C121DCC121DFCB40303123077121D85
:100C1B00547402121DCB900002120135121DEA1200
:100C2B001D72EFF012305BEF90019B6008121D6B91
:100C3B007401F08006121D6B7402F0E490019AF0BF
:100C4B00121D7A4003020F0E121D93121D72121DFC
:100C5B00B280ED900224E0FF20E003020D8E120F14
:100C6B005C20E303020F0E122C47121D5474091261
:100C7B001D677402F0121D9F120F18121D7A500B74
:100C8B00121D93121D72121DB280F0020E3B9002C8
:100C9B0024E0FF20E003020DA3120F5C20E303020C
:100CAB000F0E122D0B121D547409121D677403F0D5
:100CBB00121D9F120F18121D7A500B121D93121D2D
:100CCB0072121DB280F0020E3B900224E030E00560
:100CDB0054FEF0800F900224E04401F04408F0E44D
:100CEB00FF1222DD121D54740B121D6774B9F090A4
:100CFB000224E05401121DEA121D72EFF09002243F
:100D0B00E090019B30E307121D6BE4F08006121D8F
:100D1B006B7401F0121D9F120F3190019AE0FFC30B
:100D2B0094085027A3E0FE2442121D72121DD2E03C
:100D3B006003B4FF1190019AE0FF74422E121D72F2
:100D4B00121DD27420F0121DB580CF121DDD121DA5
:100D5B007A500B121D93121D72121DB280F0020EEF
:100D6B003B803C8025802A121DA67F078036121DF2
:100D7B00A67F08802F121DA67F088028121DA67F34
:100D8B00018021121DA67F02801A121DA67F0580ED
:100D9B0013121DA67F06800C121DA67F0380051261
:100DAB001DA67F041221F7020F0E900224E0FF20F4
:100DBB00E3084408F0122F1D800A900224E054F738
:100DCB00F0122DEE121D54740A121D677401F0906F
:100DDB000224E090019B30E307121D6BE4F08006C8
:100DEB00121D6B7401F0121D9F120F3190019AE0CE
:100DFB00FFC394085027A3E0FE2442121D72121D5C
:100E0B00D2E06003B4FF1190019AE0FF74422E12FE
:100E1B001D72121DD27420F0121DB580CF121DDD74
:100E2B00121D7A500B121D93121D72121DB280F0FF
:100E3B0090019BE0120F4E020F0E120F43122D0B5F
:100E4B00020F0E9000A5E0D394644003020F0EE056
:100E5B00240AF0E0C394645003020F0E7464F00292
:100E6B000F0E900224E04404F0E4FF1222DD020F87
:100E7B000E9000A5E0C3940A5003020F0EE024F677
:100E8B00F0020F0E122E97020F0E120F43122C4769
:100E9B00020F0E9000A4E0D394645022E0240AF0D9
:100EAB00E0C3946440187464F08013122EE5020FB3
:100EBB000E9000A4E0C3940A4004E024F6F09000E6
:100ECB00A4E0FF122C23020F0E123077121D547464
:100EDB0002121D677409F012305BEF90019B6008E2
:100EEB00121D6B7401F08006121D6B7402F0E490FE
:100EFB00019AF0121D7A500B121D93121D72121DC6
:0C0F0B00B280F090019BE06003120F4EDA
:100F170022F9E43401FA7B017D08122A3390019B00
:100F2700E02408F0E490019AF022F9E43401FA7B16
:100F3700017D08122A33E490019AF022900224E0FE
:100F470054FBF0122F1D2204F07B017A017942E055
:100F5700FD1223B22254FBF0122F1D900224E0222F
:10262D00900152E06031122FE3EF24F0601824D0B6
:10263D00601224207016122FC0123028E49001521F
:10264D00F0022C6A8000122FC00230287B017A0123
:10265D0079427D100228247B017A0179537D101275
:0F266D002B90EF60097B017A017953120B152234
:102024004101AD004101AE004101B2004101B300E4
:102034004201AF00004101B1005001B400000000B2
:0C20440000000000000000000000000090
:101A82009001ADE0FF04F074422FF582E43401F5D9
:101A92008374F8F09001AEE0FF9001ADE0FE04F037
:101AA20074422EF582E43401F583EFF09001ADE04B
:101AB200FF04F074422FF582E43401F58322900092
:101AC200A1E02404FDE433FCEE7E002DFFEE3CFE9B
:101AD2007C007DA012021E74002DF58274003CF57C
:101AE20083E022900143E02401FFE433FE9001B23F
:101AF200E0FDC39FEE6480F87480982274432DF554
:101B020082E43401F583E0FF9001ADE0244222E05B
:101B12002FF09001B2E004F0229001AEE014FF90A9
:101B220001B2E0FEC39F22FF9001ADE0FE04F0741B
:101B3200422E22F09001ADE0FE04F074B42EF58244
:101B4200E43401F58322EFF0E49001B2F022900038
:101B5200A1E02404FFE43322FE9001ADE0FD04F095
:101B620074B42D22F09000A0E024A0FFE433229070
:101B720001B1E0FFA3E0FEC39F22E5822FF582E4DC
:051B82003583F583220C
:102E3E00E49001ADF0A3F09001B2F0FE7FA2FD7B15
:082E4E00017A00790002054B36
:1021F70090019E1204F6E49001ADF0121B3974555C
:10220700121B3574AAF09001A1E004121B5A121B8D
:1022170040EE121B35121B489001A1E0121B205003
:102227001A90019E1204D68E827583001201351210
:102237001B5A121B40EE121B1380DD7B017A0179BA
:10224700B4EF2404FD12279C121B36121B48900181
:10225700A1E02405121AEB501074B42D121B40E0B4
:0A226700FF123010121B1480E52254
:1005A7009000A2E07003020B1414121B66FEA3E076
:1005B700FBFDC3EF9DFFEE9400FE7C007DA01201C2
:1005C700C9EDC3940440D974002BF582E43400F5D7
:1005D70083E064556003020B009000A1E07A0024D9
:1005E70001FFEA33121AD164AA6003020B00EB245D
:1005F70002FFEA33121AD19001AE121B66CFC39BDA
:10060700CF9AFE7C007DA012021E9001AE121B53F2
:10061700FEC3ED9FEE6480F8EC6480985003020BF4
:10062700069000A1E0FF2400F9E43400FA7B019072
:1006370001AEE02403FD90019EEFF0A374A0F01239
:100647002348AB079001AEE0FF9000A1E02FFFE445
:1006570033CF2403CF3400121AD16B6003020B008F
:10066700E49001ADF0FE7F10FD7B017A0179421223
:10067700054B9000A1E0FB7A002403FFEA33121A2E
:10068700D112051F06BF12080D31084133096D3419
:10069700087F3508BD3608FB3707D93809394109BE
:1006A700AB540A60570A6B620AA0630AB0640ABCBB
:0806B700650AD26600000AEAA0
:1006BF00E4900196F0A3F0EB240CFFE43A121AD168
:1006CF00FF7E00900196EEF0A3EFF09001B1741150
:1006DF00F0E024FFFDE434FFFCC3EF9DEE9C4003EC
:1006EF00020AEA9001B17410F0900196E07002A333
:1006FF00E070199001B2F0121B715010EE75F0807E
:10070F00A4FFAEF0123049121B1480EB9000A1E051
:10071F00240DFFE433121AD1540FFF9001AFE4F010
:10072F00A3121B489001AFE0FEA3E0FF7C007D0DFC
:10073F001201B7EF240AFFE43EFE9001B2E0FBC3C3
:05074F009FEC9E5035F7
:10075400900196E0FEA3E0FF7D721201B7EBFD2F3E
:10076400FFEC3EFEA3F0A3EFF0C006C007121B503F
:10077400CF2DCF3CFE121AD4FDD007D00612304F35
:10078400121B1480AA9001B17411F0E49000A3F03C
:100794009001B2F0121B71501FEE75F072A4240088
:1007A400FFE5F03440FE12306DEFF4600B9000A3CF
:1007B400E004F0121B1480DC900196A3E09001B1D8
:1007C400F07B017A0179B19001A17401F07F1212DA
:0207D40021F70B
:1007D600020AEA121A827438121B49121B1B500FA6
:1007E600121AC0121B29121AB8EF121B1380ECE45E
:1007F6009001B2F0121AE5500B121AFE121AB81234
:100806001B1180F0020A4C121A827431121B491213
:100816001B1B500F121AC0121B29121AB8EF121BFB
:100826001380ECE49001B2F0121AE5500B121AFE96
:10083600121AB8121B1180F0020A4C900224E03002
:10084600E003020AEA121A827433121B49121B1BB6
:10085600500F121AC0121B29121AB8EF121B13805E
:10086600ECE49001B2F0121AE5500B121AFE121ABD
:10087600B8121B1180F0020A4C900224E030E0030B
:10088600020AEA121A827435121B49121B1B500FF8
:10089600121AC0121B29121AB8EF121B1380ECE4AD
:1008A6009001B2F0121AE5500B121AFE121AB81283
:1008B6001B1180F0020A4C900224E030E003020A89
:1008C600EA121A827436121B49121B1B500F121A97
:1008D600C0121B29121AB8EF121B1380ECE4900108
:1008E600B2F0121AE5500B121AFE121AB8121B11A8
:1008F60080F0020A4C900224E030E003020AEA1279
:100906001A827437121B49121B1B500F121AC0127F
:100916001B29121AB8EF121B1380ECE49001B2F0F7
:10092600121AE5500B121AFE121AB8121B1180F099
:10093600020A4C121A827441121B49121B1B500FD9
:10094600121AC0121B29121AB8EF121B1380ECE4FC
:100956009001B2F0121AE5500B121AFE121AB812D2
:100966001B1180F0020A4C900224E030E003020AD8
:10097600EA121A827434121B49121B1B500F121AE8
:10098600C0121B29121AB8EF121B1380ECE4900157
:10099600B2F0121AE5500B121AFE121AB8121B11F7
:1009A60080F0020A4C900224E0FF20E3084408F09D
:1009B600122F1D800A900224E054F7F0122DEE1239
:1009C6001AAE74F8121AAD740A121AAD7401F090C8
:1009D6000224E09001AD30E307121AB1E4F080067C
:1009E600121AB17401F0121B0AF9E43401FA7B0100
:1009F6007D08122A33E49001B2F09001B2E0FFC301
:100A0600940850299001ADE0FE2442121AB8121B38
:100A16007CE06003B4FF119001B2E0FF74422E1235
:100A26001AB8121B7C7420F0121B1480CD9001ADF5
:100A3600E02408121B49121AE5500B121AFE121A6C
:100A4600B8121B1180F09001ADE004F07B017A0131
:100A56007942E0FD1223B2020AEA900224E044043D
:100A6600F0E4020ACC9000A1E0FB7A002404FFEA3D
:100A760033121AD1FFC007EB2405FFEA33121AD14D
:100A8600FDC0059000A1E02406FFE433121AD1FB55
:100A9600D005D007122909020AEA121B50121AD1F0
:100AA600FF9000A4F0122C23803A121B50121AD188
:100AB6009000A5F0802E900224E054FBF04408F04C
:0C0AC600121B50121AD1FF1222DD801802
:100AD200121B50121AD1900196F0E0FFC4540F700D
:080AE20007EF540FFF122FED86
:100AEA009001AEE02404FF9000A1E02FF0E075F041
:100AFA00A084E5F0F0229000A1E004F09000A1E0CB
:0B0B0A0075F0A084E5F0F00205A722C2
:102D6200FFE475F0011204DF12011C6F90022AF0D9
:0C2D7200221204F6AE05E490022AF022C2
:10279C009001A2122D73AF061EEF603390022AE057
:1027AC009001A2122D62E4A3F090022BE0C39408D6
:1027BC0050E490022AE030E007C313648CF08007E9
:1027CC0090022AE0C313F090022BE004F080DA9020
:0527DC00022AE0FF22CB
:1023480090019A122D73AF061EEF605890022AE092
:1023580090019A122D6290019EE004F0A3E0FF9094
:10236800019EE0C39F4012E4F0EFFDE49DFDE4947C
:102378000090019B8DF0120254E490022BF0900221
:102388002BE0C3940850BF90022AE030E007C31343
:10239800648CF0800790022AE0C313F090022BE0CF
:0A23A80004F080DA90022AE0FF2220
:102CED00FFFFFF00FF000000FFFF000000FFFFFFE0
:0E2CFD0000FFFFFF0000FF800080FFFF80004F
:102050004100A3004100AC004101250044012600DD
:032060000000007D
:10181C00E0FFE4FCFDFE900196120484120337A84D
:10182C0004A905AA06AB07900134E0FFE4FCFDFE19
:10183C00120337E47B64FAF9F81203C29001260212
:10184C0004909001261204789000AAEEF0FAA3EF0F
:10185C00F0FB9000A6E0FEA3E0FFA3E0FCA3E0FDFC
:10186C0022E4FF7E01FDFC90012012048402033768
:10187C00900132E0FEA3E0FBAA06E4F9F822120381
:10188C00C290012BA804A905AA06AB07E07F00FEB5
:10189C00E4FCFD22900134E0FFE4FCFDFE90012607
:1018AC000204849000ACE0FE75F003A424EDF582F4
:1018BC00E4342CF583E493FFEE75F003A424EEF5E9
:1018CC0082E4342CF583E493FD9000ACE075F003D6
:1018DC00A424EFF582E4342CF583E493FB22120369
:1018EC00C2A804A905AA06AB072290012612047807
:1018FC009000A6EEF0A3EFF022900126120478904F
:10190C0000A8EEF0A3EFF022900120120478EF244F
:10191C0001FFE43EFEE43DFDE43C2290012612046E
:10192C0078900120120484C30204547E007D007B55
:10193C000102054B78387C017D017B017A0079AD81
:10194C0022900132E0FEA3E0FFE4FCFD22E0FFE484
:10195C00FCFDFE020337FC9001200204909000ACC9
:04196C007409F022E8
:1020F900E4900196F0A3F07411F0E49000A3F0903D
:102109000196F0900197E0FF900196E0FEC39F5081
:1021190022EE75F072A42400FFE5F03440FE12307F
:102129006DEFF4600E9000A3E004F0900196E004D6
:10213900F080D01219697F067A01791F1219377F49
:10214900017A0179371219377E007F727D001219E1
:102159004612054B7E007F087D007B017A0079A439
:1021690012054B9000A47464F0A37432F0022DEEB2
:102EE5009000ACE0600414F080031219691218AF69
:032EF500022909A6
:102E97009000ACE004F0E0C3940A4002E4F012189A
:042EA700AF02290944
:102C4700900137E0600414F080119000A3E0600465
:102C570014FF80027F00900137EFF0900137E0FF0B
:032C67000222DD69
:102D0B00900137E004F09000A3E0FF900137E0C39F
:0D2D1B009F4002E4F0900137E0FF0222DD4E
:102A330090019D1204F6EDD39408400C7B007A00BC
:102A4300790090019D0204F6AF057E0090019D126E
:0F2A530004D6A801AC02AD031219461200F622F8
:102F1D00121969900224E04408F0900137E0FF0295
:022F2D0022DDA3
:102DEE00900224E054F7F0E4900131F0900135F0B8
:0B2DFE00A3F0FBFAFDFCFFFE02270F14
:10258C0090019BEFF02401FFE433FE9000B6E05481
:10259C000FB50714E4B5061090019BF0E075F00D33
:1025AC00A424B7F97400800D90019BE075F00DA484
:1025BC0024C4F9740035F0FA7B01782A7C017D0182
:1025CC007E007F0D1200F61219407E007F0A020079
:0125DC00F608
:1022DD0090019DEFF0E490011FF0A312049C00000B
:1022ED000000E4900124F09000A3E07009FBFAFDDA
:1022FD00FCFFFE02270F9000A3E014FF90019DE06C
:10230D00FED39F9001374008EFF090019DF08002C1
:10231D00EEF012194690019DE0FD122532782A7CCF
:10232D00017D017B017A0079B77E007F0D1200F6E9
:0B233D001219407E007F0A1200F622F9
:1027E10090019AEFF0E490011FF0A312049C000005
:1027F10000009001247432F0900224E030E216903F
:102801000125E004F0E0D394045002800DE490012E
:1028110025F0022D0BE4900125F090019AE0FF12C2
:03282100258C22E1
:1029090090019DEFF0A3EDF0A3EBF0122DEE9001F5
:102919009DE09000A6F0A3E4F090019EE09000A84D
:10292900F0A3E4F090019FE07F009000AA121858EC
:0329390002270F63
:100F6700900224E020E3030212D8900124E06003FA
:100F770014F022900131E0700D900135E07002A36A
:100F8700E070030212D890012AE0540F24FC70038A
:100F970002115614700302122D240260030212D8A4
:100FA70012191412196290012EE0FF90012BE0FE36
:100FB700C39F502C1212D9C004C005C006C0071227
:100FC700186DD003D002D001D000120337C006C07D
:100FD7000712187CD007D00612188A12031C80311A
:100FE70090012BE090012E121306C004C005C00625
:100FF700C00712186DD003D002D001D000120337FA
:10100700C006C00712187CD007D00612188A120330
:10101700291218481218A012183C1218F690012F1E
:10102700E0FF90012CE0FEC39F50321212D9C0049A
:10103700C005C006C00712186DD003D002D001D07A
:1010470000120337C006C00712187CD007D006125B
:1010570003C290012C12189012031C803790012CA8
:10106700E090012F121306C004C005C006C0071286
:10107700186DD003D002D001D000120337C006C0CC
:101087000712187CD007D0061218EA90012C121804
:10109700981203291218481218A012183C121905A1
:1010A700900130E0FF90012DE0FEC39F5037EEFD29
:1010B700C3EF9D121319C004C005C006C00712185C
:1010C7006DD003D002D001D000120337C006C0078D
:1010D70012187CD007D0061218EA90012D12189822
:1010E70012031C803B90012DE0FF900130E0C39F6D
:1010F700121319C004C005C006C00712186DD0032B
:10110700D002D001D000120337C006C00712187CE6
:10111700D007D0061218EA90012D12189812032949
:101127001218481218A012183C12184E1212ED404D
:101137001290012012049C00000000900131E06031
:101147000214F0900131E060030212D80212CD9030
:10115700011FE07006A312191780219001201204C5
:1011670078EC4D4E4F6018900120120478EF24FF61
:10117700FFEE34FFFEED34FFFDEC34FF121962E49D
:101187007FFFFE1218711218ED90012B121959C02A
:1011970006C00712187CD007D0061218451218A0EF
:1011A70012183C1218F6E47FFFFE1218711218EDA0
:1011B70090012C121959C006C00712187CD007D00D
:1011C700061218451218A012183C121905E47FFFE1
:1011D700FE1218711218ED90012D121959C006C090
:1011E7000712187CD007D0061218451218A012183B
:1011F7003C12184E1212ED500AE4FFFEFDFC1219C4
:101207002D701790011FE0700404F0800DE4900129
:101217001FF0900131E0600214F0900131E06003AB
:061227000212D80212CDF4
:10122D0090019612049C000000FFE4FFFEFDFC12ED
:10123D00192D701E90012B12181C1218F690012CEE
:10124D0012181C12190590012D12181C12184E128D
:10125D00270F12194D121848121927701E90012EC2
:10126D0012181C1218F690012F12181C1219059045
:10127D00013012181C12184E12270F1219141219C0
:10128D006290012612049C0000000012194D1218E4
:10129D00A912031C1218ED90013512195012031CDE
:1012AD00121848121927401290012012049C0000B8
:1012BD000000900131E0600214F0900131E0700BFC
:0B12CD0090012AE0C4540FFF1227E13B
:1012D80022EEFDC3EF9DFFE49400FE122FCCEE3307
:1012E80095E0FDFC2212270F900132E0FEA3E0FFFB
:1012F800E4FCFD900120120484C312045422FFE090
:10130800C39FFFE49400FE122FCCEE3395E0FDFC62
:1013180022FFE49400FE122FCCEE3395E0FDFC2270
:08000300E42FFFEE3440FE2261
:01307D002230
:0B25320090019E1204F69001A1EDF054
:10253D00E4A3F0AF05EFC39411E49001A2F0900174
:10254D00A2E0FDC3947250369001A1E075F072A423
:10255D002400FFE5F03440FE7C00EF2DFFEC3EFE45
:10256D0012300090019E1204D69001A2E0F5827502
:0E257D008300EF1201959001A2E004F080C0EF
:01258B00222D
:06304900120003022D9AA3
:06304F00120003022BB584
:0E2F7C001200039001FAE0900200F002247AA5
:04306D0012300022FB
:01307E00222F
:01307F00222E
:10000E00122F40122FF7123061122756122CAD12FA
:05001E002D28D2AF22E5
:042063004100A20096
:102D2800E49000A2F0FE7FA2FD7B017A00790012F8
:0D2D3800054B7F007E4B7D007C00022BDAF6
:030023000226C8EA
:1026C800C0E0C083C082C0D075D000C00730982752
:1026D800C2989000A0E0FF04F074002FF582E43463
:1026E80000F583E599F09000A0E0C394A04002E4CF
:1026F800F09000A2E004F0309902C299D007D0D03F
:07270800D082D083D0E03243
:082067004101F3004101F40006
:102CAD00122D7E5389F0438901538EF79001F374F1
:102CBD00FAF0A374C4F0758CFAF58AD2A9D28C22DD
:102D7E00E49001EAF09001ECF09001F0F0A3F090F5
:0C2D8E0001EBF09001EDF09001F2F0225A
:03000B0002207858
:10207800C0E0C0F0C083C082C0D075D000C000C02E
:10208800069001F3E0F58CA3E0F58A9001E974016C
:10209800F0A3E004F0C3940A4005E4F0A304F09030
:1020A80001ECE004F0C394644005E4F0A304F0906C
:1020B80001EEE004F0C394F4748094814005E4F0E8
:1020C800A304F09001F0E475F001120254FEC3E598
:1020D800F094E8EE9403400A9001F0E4F0A3F0A332
:1020E80004F0D006D000D0D0D082D083D0F0D0E099
:0120F80032B5
:102BFF000A6D679C46F6375D4521EFAC5A50010BC5
:102C0F00DF020A6D679C46F6375D4521EFAC5A50DF
:042C1F00E10BDF02E4
:08206F00450201CCCCCCCCCC25
:102179007D017BFF7E007F030200F67A0279017BF5
:10218900019001AC7405F0227D017BFF7E00020005
:10219900F67B019001AC7403F0227D017BFF7E0088
:1021A9007F010200F67D5A7F53122EFC7DA57F53D5
:1021B900122EFC7D207F3D022EFC7B019001AC7428
:1021C90006F022E4FD7FFD022EFCFD122EFC7D3F70
:1021D9007F26022EFC7B019001AC7401F07F39222D
:0E21E90053B1FE43B20122EF25E0FFD2902257
:102F400053B3FE43B40153B3FD43B4021221E9224B
:01308000222D
:102E2400E4FEC290EF30E704D2808002C280122117
:092E3400F0000EEEB408EBC290B0
:012E3D002272
:042EF800E4FD7FFC7A
:0F2EFC00C29100122E24AF05122E2400D2912273
:062A62009001A91204F628
:102A6800C291E4FD122E249001ACE0FFEDC39F500B
:102A7800159001A91204D68D82758300120135FFC5
:082A8800122E240D80E1D29111
:012A90002223
:102CCD00E4FEC290EF30E704D2808002C280122170
:0F2CDD00F0000EEEB408EB43B10153B2FEC2900B
:012CEC0022C5
:102E6D00E4FFFEC2901221F03080034401FF0EEE0C
:052E7D00B408F0C29052
:012E8200222D
:0F2F5000C29100122CCD122E6D1221E900D291E8
:012F5F00224F
:0629A2009001971204F6FB
:1029A800C291122CCDE4FD90019AE0FFEDC39F5037
:1029B80015122E6D9001971204D68D82758300EF43
:0B29C8001201950D80E11221E9D2916F
:0129D30022E1
:0E2F8A00122EF87D8E7F20122EFC00000022F9
:102C6A00E4FEFD7FFC122EFC7D8F7F20122EFC12CB
:102C7A0021CCE4FEFF000FBF00010EBE13F7BF8890
:012C8A00F455
:012C8B002226
:0A2FE3007F07122F50EF5470FF22F9
:063055007F09122F50223A
:073028007D707F27022EFCE2
:0C2FC000E4FD7FE1122EFC7FE2022EFCFB
:0E2F9800AC07122EF8AF04AD077F25022EFC09
:06282400122FE3EF7034F7
:10282A00900196F0A3F09001ACEDF07FA0122A621D
:10283A001221CCE4900196F0A3F000900196E47581
:10284A00F001120254900196E07004A3E064C8708B
:04285A00E9122EF859
:01285E002257
:102B9000AC05122FE3EF30E619122EF890019AECF3
:102BA000F07F611229A2122FC01230281221CC7F8F
:052BB00001227F00225C
:101C870078967C017A2B79FF7F05122191789B7CCE
:101C9700017A2C7904122179789E7C017A2C7907B4
:101CA7007F0612219178A47C017A2C790D1221A349
:101CB70078A57C017A2C790E1221791230801221B5
:101CC700AE122EF87FE1122EFC7FE2122EFC7D7001
:101CD7007F27122EFC7D017F22122EFC7D037F239E
:101CE700122EFC7D4E7F25122EFC7D107F31122E89
:101CF700FC1221847F30122A621221847F2A122A41
:101D0700627A0179961221887F3F122A627A0179D5
:101D17009E1221C37F3A122A627A0179A41221DE28
:101D2700122A627A01799B12219A7F3E122A627ADD
:101D37000179A512219A7F3B122A62E47F3C122186
:0D1D4700D3E4FD7F24122EFC7F21022EFC30
:051E02009001C4EFF0A7
:101E0700E478C57C017D017BFF7A2C7911FE7F0583
:101E17001200F678CA7C017D017BFF7A2C791612B5
:101E2700217D78CD7C017D017BFF7A2C79197E009D
:101E37007F061200F678D37C017A2C791F1221A332
:101E470078D47C017D017BFF7A2C792012217D12C9
:101E570021AE122EF8E4FF000000000FEFB4DCF70C
:101E67009001C4E07F251221D37B017A0179C51245
:101E7700218A7F3F122A627A0179CD1221C37F3AE4
:101E8700122A627A0179D31221DE122A627B017A41
:101E97000179CA12219C7F3E122A627B017A01795D
:091EA700D412219C7F3B022A6247
:10267C00E0FEA3E0FFE49001A6FCFD1204909001A3
:10268C00A61204849000A4E0FFE4FCFDFE120337C4
:10269C009001A61204909001A6120478E47B64FACF
:1026AC00F9F81203C29001A61204909001A622A27E
:0C26BC00AF9209C2AF75C7AA75C75522BE
:1027560053B1F743B20853B1EF43B21053B3FB433F
:10276600B40443DE011226BB43910143C608122678
:10277600C15391FEA20992AF43DE2053DF3F43DFF0
:102786000153DFF975D1FF75D9FFD2DFE4FBFAFDFE
:06279600FCFFFE02270F0C
:102C8C00AD07AC061226BB439101A20992AFECF53D
:102C9C00C5EDF5CD1226BB5391FEA20992AFD2DE43
:012CAC002205
:0D2FA600AD07AC06ECF5D5EDF5DDD2DE2271
:0D2FB300AD07AC06ECF5D2EDF5DAD2DE226A
:10270F009001A0EEF0A3EFF0A3ECF0A3EDF0A3EA9D
:04271F00F0A3EBF048
:10272300A312049C000000009001A012267C120456
:1027330078122C8C9001A212267C120478122FA6F8
:102743009001A4E0FEA3E0FFE4A31226851204781F
:03275300022FB39F
:102C23009000A4EFF0C3940A5003740AF09000A636
:102C3300E0FEA3E0FFA3E0FCA3E0FDA3E0FAA3E032
:042C4300FB02270F5A
:092FF70053B3EF43B4100230742F
:03307100D29422D4
:03307400C29422E1
:03307700B29422EE
:06305B00A294E433FF2201
:0A2FED00EF6003023071123074220D
:102AC000F5A6EEF5A7A2AF9209C2AF75C7AA75C762
:102AD00055439F01A20992AFA2AF9209C2AF75C739
:0D2AE000AA75C7552243A501A20992AF2295
:01308100222C
:102BB500EF122AC0122AE575AF21AF058FAE122A92
:102BC500D843A401122AD453A5FE122AD4539FFE3A
:052BD500A20992AF22ED
:102D9A008FA6EEF5A775AEFF122AC5122AE575AF02
:0C2DAA0022122AD843A401A20992AF22F1
:0C247A009001FBEEF0A3EFF0A31204F6BB
:102486009001FBE0FEA3E0122AC0122AE575AF21F7
:10249600E4FEFF900200E0FDC3EF9DEE94005020A5
:1024A6009001FD1204D68F828E83120135F5AE128D
:1024B6002AD843A401A20992AF0FBF00010E80D310
:1024C600122AD853A5FE122AD4539FFEA20992AF10
:0124D60022E3
:043000008F828E83AA
:03300400E493FF53
:0130070022A6
:102B4100900008120195900197E075F003A422907E
:102B510002251204D6900003120135FF22EF75F011
:082B61000BA4242CF8E4F62279
:07302F00A2B0B3E433FF225D
:07303600A297B3E433FF226F
:063061001225DD022F2FF5
:102EAB007843E62438F8A607784306E6C3940A402D
:042EBB0002E4F62215
:102DB6007842E6FE08667002FF2274382EF8E6FFB7
:0B2DC600784206E6C3940A4002E4F6DF
:012DD10022DF
:102DD2007844E6FE18667002FF2274382EF8E6FF89
:0B2DE200784406E6C3940A4002E4F6C1
:012DED0022C3
:0B2FD800EF75F00BA4242AF8E6FF229E
:102D4500EF75F00BA42428F8A60408A605AE03EF3A
:0D2D550075F00BA4242BF8A606122B5E22AD
:063067007843E618F62292
:102F2F0053ACFE53ADFE53B37F53B37FD2B0D297A2
:012F3F00226F
:1025DD00E47842F608F608F6FFEF75F00BA4242810
:1025ED00F87600087664EF75F00BA42425F87602D2
:1025FD00EF75F00BA4242AF8E4F6EF75F00BA42484
:10260D002BF8E4F6122B5E0FEFB402CD7BFF7A3080
:10261D00792F78221204CD7A307936782D0204CDB7
:101B8700900197EFF0E075F00BA42422F9E4FAFB3B
:101B97009002251204F61204FF120545EF700302A6
:101BA7001C3E122B50C39405500890000374050285
:101BB7001C83EFC3940A500890000374010201626A
:101BC700900008120135700904122B4104FF122EF0
:101BD700AB9002251204D690000612026AFFAEF0FF
:101BE700D39400EE94005003021C86900004120266
:101BF7006AC39FE5F09E501B900004E475F0011244
:101C070002A2FCE5F06F7002EC6E7073122B472492
:101C1700038020900009120135FFD39400406090A3
:101C2700000A7401120162C39F405490000AE41233
:101C37002B4404FF022EAB122B50D39405400A907D
:101C4700000374051201958020EF600A9000037469
:101C5700FF1201628013900008120135B4010AE4F3
:101C6700122B412402FF122EAB9002251204D690AC
:101C77000004E4F5F01202EF90000AE41201952245
:102E0900E4900196F0900196E0FFC39402500B12F2
:0A2E19001B87900196E004F080EBA7
:012E2300228C
:102899009001961204847F407E427D0F7C001203D2
:1028A900C2C374FF9FFF2274FF9EFEE49DFDE49C5A
:1028B900FC78081204658FC62253B1BF53B2BF53C7
:0928C900B17F53B27F75985022D3
:102A91001228C2438920438780438E1053C4DFAB81
:102AA10007AA06A905A8047F407E427D0F7C00127B
:0F2AB10003C2EF04F404F58DD28ED299D2AC2279
:102BDA009001961204901228C243878053C4F84386
:102BEA00C4201228991228B01228998FC543C40804
:052BFA00D299D2AC22CB
:073008003098FDAF99C2985A
:01300F00229E
:08301000C2998F993099FD224D
:1029D40090020612049053B1FB53B2FB53B3BF539E
:1029E400B4BF75F85075C40853C4DF9002061228AA
:1029F4009C1228B090020612289C8FC543C408225A
:0730180030F8FDAF9AC2F889
:01301F00228E
:08302000C2F98F9A30F9FD227C
:1024D700EF24FFFFEE34FFFEED34FFFDEC34FFFC8D
:1024E700020490EF24FFFFEE34FFFEED34FFFDEC16
:1024F70034FFFC020490E4FFFEFDFC120484C302D7
:102507000454EF24FFFFEE34FFFEED34FFFDEC34FF
:10251700FFFC020490120490538EF7438901D28C7A
:0B2527002212049075C40743C4082270
:102AED0090020A12251C90020A1224FD6019758AA3
:102AFD007E758CFF308DFDC28D90020A1204789088
:0A2B0D00020A1224D780DFC28C22D6
:102B170090020E12251C90020E1224FD6019758A70
:102B2700CA758CFA308DFDC28D90020E1204789012
:0A2B3700020E1224D780DFC28C22A8
:1028D200900212120490538EEF438910D28EE4FFBD
:1028E200FEFDFC9002121225026019758BEA758DAD
:1028F200CB308FFDC28F9002121204789002121216
:0729020024EA80DAC28E22F4
:10285F0090021612049053C9BF53C9DF43C910D257
:10286F00CAE4FFFEFDFC900216122502601975CC1A
:10287F003075CDF830CFFDC2CF900216120478908C
:0A288F0002161224EA80DAC2CA22FF
:10293C0090021A122528E4FFFEFDFC90021A1225C3
:10294C0002601C75C52C75C6CFE5C430E4FB53C4BE
:10295C00EF90021A12047890021A12250980D753AC
:03296C00C4F7228B
:10296F0090021E122528E4FFFEFDFC90021E122588
:10297F0002601C75C5D875C6FFE5C430E4FB53C4AF
:10298F00EF90021E12047890021E12250980D75371
:03299F00C4F72258
:101970000A3D3D3D3D3D3D3D3D3D3D3D3D3D3D3DCA
:101980003D3D3D3D3D3D3D3D3D3D3D3D3D3D3D3D87
:101990003D3D3D3D3D3D3D3D3D3D3D3D3D3D3D3D77
:1019A0003D3D3D3D3D3D3D3D3D3D3D3D3D3D3D3D67
:1019B0003D3D3D3D3D000A2A2020436F707972690C
:1019C0006768742863292032303135204E75766F70
:1019D000746F6E20546563686E6F6C6F6779204317
:1019E0006F72702E20416C6C20726967687473206E
:1019F00072657365727665642E2020000A2A2020A5
:101A0000436F6E7461637420452D4D61696C3A209B
:101A10004D6963726F432D38626974406E75766FDD
:101A2000746F6E2E636F6D202020202020202020D8
:101A300020202020202020202020202020202020A6
:101A400020000A2A202044656D6F20566572736954
:101A50006F6E20203A202532642E2532642E2532E6
:101A600064000A2A202046696E6973686564204410
:101A7000617465203A202532642E2532642E253289
:021A8000640000
:10241B007BFF7A1979701213937BFF7A1979B612B5
:10242B0013937BFF7A1979FC1213937BFF7A1A793A
:10243B004290016EE4F0A304F0E4A3F0A3F0A3F048
:10244B00A3F01213937BFF7A1A796290016E7407D3
:10245B00F0A374DFF0A3E4F0A37405F0A3E4F0A3FE
:0F246B00741FF01213937BFF7A19797002139389
:03000000021EB02D
:101EB000787FE4F6D8FD9000007FFF7E03E4F0A376
:0A1EC000DFFCDEFA758144021F0505
:101ECA0002168DE493A3F8E493A34003F68001F28B
:101EDA0008DFF48029E493A3F85407240CC8C33319
:101EEA00C4540F4420C8834004F456800146F6DFE8
:101EFA00E4800B0102040810204080901FE3E47E76
:101F0A00019360BCA3FF543F30E509541FFEE493DC
:101F1A00A360010ECF54C025E060A840B8E493A3A3
:101F2A00FAE493A3F8E493A3C8C582C8CAC583CACE
:101F3A00F0A3C8C582C8CAC583CADFE9DEE780BE86
:012077000068
:10002600E709F608DFFA8046E709F208DFFA803EBC
:1000360088828C83E709F0A3DFFA8032E309F608A9
:10004600DFFA8078E309F208DFFA807088828C8311
:10005600E309F0A3DFFA806489828A83E0A3F608C5
:10006600DFFA805889828A83E0A3F208DFFA804C9F
:1000760080D280FA80C680D4806980F28033801076
:1000860080A680EA809A80A880DA80E280CA8033DF
:1000960089828A83ECFAE493A3C8C582C8CCC58357
:1000A600CCF0A3C8C582C8CCC583CCDFE9DEE78027
:1000B6000D89828A83E493A3F608DFF9ECFAA9F0A6
:1000C600EDFB2289828A83ECFAE0A3C8C582C8CCFC
:1000D600C583CCF0A3C8C582C8CCC583CCDFEADE15
:1000E600E880DB89828A83E493A3F208DFF980CC77
:1000F60088F0EF60010E4E60C388F0ED2402B40470
:100106000050B9F582EB2402B4040050AF23234516
:06011600822390007673C5
:10011C00BB010689828A83E0225002E722BBFE02E1
:09012C00E32289828A83E4932214
:10013500BB010CE58229F582E5833AF583E022507F
:1001450006E92582F8E622BBFE06E92582F8E222C9
:0D015500E58229F582E5833AF583E49322E3
:10016200BB010FF8E58229F582E5833AF583E028A1
:10017200F0225009C58229F8E58226F622BBFE0943
:10018200C58229F8E22582F222F8EA2583F583E97D
:030192009328228D
:10019500F8BB010DE58229F582E5833AF583E8F0A0
:1001A500225006E92582C8F622BBFE05E92582C84C
:0201B500F22234
:1001B700EF8DF0A4A8F0CF8CF0A428CE8DF0A42E5C
:0201C700FE2216
:1001C900BC000BBE0029EF8DF084FFADF022E4CC1A
:1001D900F875F008EF2FFFEE33FEEC33FCEE9DECE3
:1001E900984005FCEE9DFE0FD5F0E9E4CEFD22ED29
:1001F900F8F5F0EE8420D21CFEADF075F008EF2F73
:10020900FFED33FD4007985006D5F0F222C398FD63
:050219000FD5F0EA2200
:10021E00C2D5EC30E709B2D5E4C39DFDE49CFCEEFB
:10022E0030E715B2D5E4C39FFFE49EFE1201C9C3A9
:10023E00E49DFDE49CFC80031201C930D507C3E4A4
:06024E009FFFE49EFE226A
:10025400C5F0F8A3E028F0C5F0F8E5821582700235
:060264001583E038F022D2
:10026A00BB0110E58229F582E5833AF583E0F5F0D2
:10027A00A3E0225009E92582F886F008E622BBFEAF
:10028A000AE92582F8E2F5F008E222E5832AF583F5
:08029A00E993F5F0A3E99322BA
:1002A200BB010DC58229C582C5833AC583020254AA
:1002B2005011C58229F808E5F026F618F5F0E58216
:1002C20036F622BBFE11C58229F808E225F0F5F0C8
:1002D200F218E23582F222F8E58229F582E5832AD4
:0D02E200F58374019325F0F5F0E4933822C4
:1002EF00F8BB0111E58229F582E5833AF583E8F041
:1002FF00E5F0A3F0225009E92582C8F608A6F022FE
:0D030F00BBFE09E92582C8F2E5F008F222E4
:0D031C00EF2BFFEE3AFEED39FDEC38FC2230
:0E032900C3EF9BFFEE9AFEED99FDEC98FC22CF
:10033700E88FF0A4CC8BF0A42CFCE98EF0A42CFC65
:100347008AF0EDA42CFCEA8EF0A4CDA8F08BF0A4E3
:100357002DCC3825F0FDE98FF0A42CCD35F0FCEB42
:100367008EF0A4FEA9F0EB8FF0A4CFC5F02ECD3907
:0F037700FEE43CFCEAA42DCE35F0FDE43CFC2274
:1003860075F008758200EF2FFFEE33FECD33CDCC2E
:1003960033CCC58233C5829BED9AEC99E5829840B1
:1003A6000CF582EE9BFEED9AFDEC99FC0FD5F0D68E
:1003B600E4CEFBE4CDFAE4CCF9A88222B800C1B9B8
:1003C6000059BA002DEC8BF084CFCECDFCE5F0CBF6
:1003D600F97818EF2FFFEE33FEED33FDEC33FCEB2F
:1003E60033FB10D703994004EB99FB0FD8E5E4F9EA
:1003F600FA227818EF2FFFEE33FEED33FDEC33FCD7
:10040600C933C910D7059BE99A4007EC9BFCE99ACA
:10041600F90FD8E0E4C9FAE4CCFB2275F010EF2F0F
:10042600FFEE33FEED33FDCC33CCC833C810D7070F
:100436009BEC9AE899400AED9BFDEC9AFCE899F84A
:0E0446000FD5F0DAE4CDFBE4CCFAE4C8F922DD
:10045400EB9FF5F0EA9E42F0E99D42F0E89C45F0FE
:010464002275
:10046500E8600FECC313FCED13FDEE13FEEF13FF75
:03047500D8F12299
:0C047800E0FCA3E0FDA3E0FEA3E0FF22F7
:0C048400E0F8A3E0F9A3E0FAA3E0FB22FB
:0C049000ECF0A3EDF0A3EEF0A3EFF022DF
:10049C00A8828583F0D083D0821204B31204B312E5
:1004AC0004B31204B3E473E493A3C583C5F0C5830A
:1004BC00C8C582C8F0A3C583C5F0C583C8C582C8AA
:0104CC00220D
:0904CD00EBF608EAF608E9F62254
:0904D600E0FBA3E0FAA3E0F92227
:1004DF00F8E0FBA3A3E0F925F0F0E58215827002A6
:0704EF001583E0FA38F0224A
:0904F600EBF0A3EAF0A3E9F02207
:1004FF00BB010789828A830204D65005E9F80205F9
:10050F0089BBFE05E9F802059289828A8302059B61
:10051F00D083D082F8E4937012740193700DA3A36B
:10052F0093F8740193F5828883E47374029368607F
:06053F00EFA3A3A380DF7F
:060545008A838982E47341
:10132800E508246EF582E43401F583E0050822908F
:10133800016B30070390016EE475F0011204DF02BF
:10134800011C2000E97F2ED2008018EF540F249052
:10135800D43440D4FF30040BEF24BFB41A00500338
:101368002461FFE50960021509050CE50C7002050A
:101378000B30070E90016BE475F0011204DFEF02E9
:101388000577022B697403D2078003E4C207F508C6
:1013980090016B1204F6E4F509F50BF50CE509600C
:1013A800077F2012136B80F5750AFFC201C200C2C5
:1013B80002C203C205C206C208121337FF700D30FD
:1013C80007057F0012137CAF0CAE0B22B4255FC259
:1013D800D5C204121337FF24D0B40A00501A75F08E
:1013E8000A780930D50508B6FF0106C6A426F620F6
:1013F800D5047002D20380D924CFB41A00EF500468
:10140800C2E5D20402157DD20180C6D20080C0D2C6
:101418000280BCD2D580BAD20580B47F2012136B6B
:101428002002077401B5090040F1121328FF1213B6
:101438006B0213A5D208D2068095121328FB12134B
:1014480028FA121328F94A4B7006794E7A167BFF50
:1014580020022EE509602A7E008E82758300120123
:101468003560060EEE650A70F0C2D5EBC0E0EAC042
:10147800E0E9C0E0EE1215C4D0E0F9D0E0FAD0E01F
:10148800FB12011CFF60AAEBC0E0EAC0E0E9C0E083
:1014980012136BD0E02401F9D0E03400FAD0E0FB5D
:1014A800E50A0460DCD50AD980877BFF7A1579C004
:1014B800D202809C791080027908C206C20880088E
:1014C800D2D5790A8004790AC2D5E50A047002F5F2
:1014D8000AE4FAFDFEFF121328FC7B082001131210
:1014E8001328FD7B1030000A121328FE121328FF60
:1014F8007B20EC3382D592D55013C3E43000069F8D
:10150800FFE49EFEE42001039DFDE49CFCE4CBF88F
:10151800C201EC700CCFCECDCCE824F8F870F38083
:1015280017C3EF33FFEE33FEED33FDEC33FCEB3343
:10153800FB994002FB0FD8E9EB300105F8D0E0C475
:1015480048B201C0E00AEC4D4E4F78207B0070C2D3
:10155800EAB50A0040BCC0E01215C6D0F0D0E020C1
:101568000104C4C0E0C4B201C0F0121354D0F0D5D5
:10157800F0EB0213A512051F14425314BC581413A0
:101588004C140F4214C04F14C84414C849142843BB
:0815980014CE5514B24614B242
:1015A0004514B247166E5014172D141B2E143E2BE3
:1015B000141F23143C2016572A13D7480000143652
:1015C0003F3F3F00790AA2D5200314300509B91026
:1015D000020404B9080104A2D52006025001042027
:1015E00002689202B509005034C0E07F2030031930
:1015F0007F30A20272067205500F12161DC202C27F
:1016000006C205C2087F30800F300503E9C0E01232
:10161000136B300503D0E0F9D0E0B509CC300517E5
:101620007F30B9100C12136B7F583004077F78801D
:1016300003B9080312136B3002057F2D02136B7F71
:10164000202008F87F2B2006F322920280CF286EFC
:10165000756C6C2900D2011213283001F8C2017890
:101660000930D50108F60213D72D504349581213FB
:10167000282403B405004001E49016699312135C1A
:0D168000743A12135CD2037509040214BC05
:0C2FCC00EE30E707C3E49FFFE49EFE2206
:10054B00EF4E6012EF60010EEDBB010B89828A83C7
:10055B00F0A3DFFCDEFA2289F05007F709DFFCA9D4
:0C056B00F022BBFEFCF309DFFCA9F0222B
:10057700BB010689828A83F0225002F722BBFE0163
:02058700F3225D
:09058900E6FB08E6FA08E6F92297
:09059200E2FB08E2FA08E2F9229A
:0C059B00E493FB740193FA740293F922BC
:102B6900EFB40A07740D122B74740A309811A899DE
:102B7900B8130CC2983098FDA899C298B811F630CC
:072B890099FDC299F59922A4
:00000001FF
