:042BF8004100F300A5
:1032420012356D12369012337712368C12362112E5
:10325200340F1216CF9000B6E06005E4F01200269B
:103262009000B8E06005E4F012312E9000BAE06000
:0D32720002E4F09000BDE060D9E4F080D5EA
:01368C00221B
:01368D00221A
:01368E002219
:01368F002218
:0C35F1009000AFEBF0A3EAF0A3E9F02299
:0C35FD009000B2EBF0A3EAF0A3E9F0228A
:10357F009000AFA3E0FAA3E0F94A6003121E9B226A
:10358F009000B2A3E0FAA3E0F94A6003121E9B2257
:1032ED00EF4E602D9000A5EEF0A3EFF0AF05A3EC2F
:1032FD00F0A3EFF0AF03A3EAF0A3EFF0E4A3F0A384
:10330D00F0A3F0A3F09000A4F09000A304F0123508
:02331D007F220D
:10350E00E49000A3F012358F7B007A00790012351B
:04351E00F10235FD84
:10289D009000A3E070030229519000A7E0FEA3E091
:1028AD00FF4E70030229519000A4E07035D3EF94D0
:1028BD0000EE940050030229519000ABE475F00135
:1028CD00121CF1FED39000A6E095F09000A5E09EBD
:1028DD00507212358FE49000ABF0A3F09000A40479
:1028ED00F0229000A4E06401705A9000AB75F001E5
:1028FD00121CF1FED39000A8E095F09000A7E09E89
:10290D0050429000A9E0FEA3E0FF9400EE94004039
:10291D00259000ADE475F001121CF1FCD3EF95F09C
:10292D00EE9C5005E49000A3F09000A3E07007909A
:10293D0000A7F0A3F022E49000ABF0A3F09000A468
:05294D00F012357F22AD
:102BFC004100100050001100000000000000000017
:102C0C000000000000000050000000000000000068
:102C1C00000000000000000000004800210000003F
:052C2C000000000000A3
:10337700E4900010F0FE7F10FD7B017A00791112B6
:103387001EA17E007F107D007B017A007900121E4E
:07339700A11224800233C5DE
:0A2AFC0004F07B017A007900E0FD90
:0E2B0600900058EBF0A3EAF0A3E9F0A3EDF085
:102B1400E4FF000000000FEFB478F71235AE900028
:102B2400107401F0E4FF000000000FEFB478F79098
:102B34000058E0FBA3E0FAA3E0F974019000006BF5
:102B44007008E965827003EA6583602A7E007F105D
:102B54007D007B017A007900121EA190005BE0FFEA
:102B64007E0078007C007D01900058E0FBA3E0FA31
:062B7400A3E0F9121C2D84
:012B7A002238
:0B096300900051EBF0A3EAF0A3E9F0D4
:10096E00E4A3F0A3F0A3F0A3F0121C5364F260030F
:10097E0002102F900051E0FBA3E0FAA3E0F99000E3
:10098E0001121C6CD39410400302102FE4900055FA
:10099E00F0900051E0FBA3E0FAA3E0F99000011201
:1009AE001C6C2401FFE433FE900055E0FDC39FEE66
:1009BE006480F8748098501DED2401FFE433FE8F9F
:1009CE00828E83121C6CFF900057E02FF090005522
:1009DE00E004F080BC900051E0FBA3E0FAA3E0F944
:1009EE00900001121C6CF582758300A3A3121C6C7F
:1009FE00FF900057E06F600302102F7E007F107D86
:100A0E00007B017A007900121EA1E4900056F0904E
:100A1E000051E0FBA3E0FAA3E0F9900002121C6C77
:100A2E00244FB40A004003021026900A4675F003C4
:100A3E00A4C58325F0C58373020A64020F13020C4A
:100A4E0066020D39020EF3020B5D020F0302101641
:100A5E00020E0C020B469000F0E0FF20E0030210A5
:100A6E002654FEF0900056E0FF04F074002FF5823D
:100A7E00E43400F58374F8F0900056E0FF04F0744F
:100A8E00002FF582E43400F583740BF0900056E0ED
:100A9E00FF04F074002FF582E43400F58374B9F08E
:100AAE009000EFE0FEA3E0FF5401FD900056E0FC45
:100ABE0004F074002CF582E43400F583EDF0EEC3FF
:100ACE0013EF135401FF900056E0FE04F074002E55
:100ADE00F582E43400F583EFF0900056E02400F93F
:100AEE00E43400FA7B017D08123088900056E02431
:100AFE0008F0E4900055F0900001E02401FFE4338B
:100B0E00FE900055E0FDC39FEE6480F8748098500F
:100B1E002474012DF582E43400F583E0FF90005635
:100B2E00E02400F582E43400F583E02FF0900055C8
:100B3E00E004F080C2020FFE9000547403F07B01BB
:100B4E007A00795490005C7401F07F31021023908A
:100B5E000051E0FBA3E0FAA3E0F9900003121C6C35
:100B6E00B401051236838030900051E0FBA3E0FA09
:100B7E00A3E0F9900003121C6CB4020512368680B5
:100B8E0017900051E0FBA3E0FAA3E0F990000312E6
:100B9E001C6CB40303123689900056E0FF04F07407
:100BAE00002FF582E43400F58374F8F0900056E0DF
:100BBE00FF04F074002FF582E43400F5837402F024
:100BCE00900051E0FBA3E0FAA3E0F9900002121CA2
:100BDE006CFF900056E0FE04F074002EF582E434B3
:100BEE0000F583EFF012367DEF9000566013E0FFB4
:100BFE0004F074002FF582E43400F5837401F08064
:100C0E0011E0FF04F074002FF582E43400F58374D4
:100C1E0002F0E4900055F0900001E02401FFE4336F
:100C2E00FE900055E0FDC39FEE6480F874809840FE
:100C3E000302102674012DF582E43400F583E0FFE3
:100C4E00900056E02400F582E43400F583E02FF0A6
:100C5E00900055E004F080BF9000F0E0FF20E0032C
:100C6E00020D2930E1030210261234E0900056E006
:100C7E00FF04F074002FF582E43400F58374F8F06D
:100C8E00900056E0FF04F074002FF582E43400F576
:100C9E0083740AF0900056E0FF04F074002FF58282
:100CAE00E43400F58374B3F0900056E0FF04F07462
:100CBE00002FF582E43400F5837405F0900056E0C1
:100CCE002400F9E43400FA7B017D0812308890008C
:100CDE0056E02408F0E4900055F0900001E0240165
:100CEE00FFE433FE900055E0FDC39FEE6480F87480
:100CFE008098502474012DF582E43400F583E0FFD2
:100D0E00900056E02400F582E43400F583E02FF0E5
:100D1E00900055E004F080C2020FFE7B007A00794D
:100D2E0000E490005CF07F340210239000F0E0FFAE
:100D3E0020E003020DFC30E1030210261234F8907D
:100D4E000056E0FF04F074002FF582E43400F583C2
:100D5E0074F8F0900056E0FF04F074002FF582E472
:100D6E003400F583740AF0900056E0FF04F074002E
:100D7E002FF582E43400F58374B3F0900056E0FF53
:100D8E0004F074002FF582E43400F5837405F090BE
:100D9E000056E02400F9E43400FA7B017D0812309D
:100DAE0088900056E02408F0E4900055F090000181
:100DBE00E02401FFE433FE900055E0FDC39FEE6496
:100DCE0080F8748098502474012DF582E43400F577
:100DDE0083E0FF900056E02400F582E43400F583B2
:100DEE00E02FF0900055E004F080C2020FFE7B0071
:100DFE007A007900E490005CF07F350210239000B9
:100E0E00F0E030E00554FEF080079000F0E0440181
:100E1E00F0900056E0FF04F074002FF582E43400E9
:100E2E00F58374F8F0900056E0FF04F074002FF58F
:100E3E0082E43400F583740BF0900056E0FF04F06A
:100E4E0074002FF582E43400F58374B9F09000EF4E
:100E5E00E0FEA3E0FF5401FD900056E0FC04F074A8
:100E6E00002CF582E43400F583EDF0EEC313EF139E
:100E7E005401FF900056E0FE04F074002EF582E45B
:100E8E003400F583EFF0900056E02400F9E43400CE
:100E9E00FA7B017D08123088900056E02408F0E4B9
:100EAE00900055F0900001E02401FFE433FE900025
:100EBE0055E0FDC39FEE6480F87480985024740151
:100ECE002DF582E43400F583E0FF900056E0240017
:100EDE00F582E43400F583E02FF0900055E004F045
:100EEE0080C2020FFE7B007A007900E490005CF075
:100EFE007F360210237B007A007900E490005CF0CC
:100F0E007F370210239000F0E0FF20E0030210076D
:100F1E0030E10854FDF0120003800A9000F0E04426
:100F2E0002F012355B900056E0FF04F074002FF5CE
:100F3E0082E43400F58374F8F0900056E0FF04F07C
:100F4E0074002FF582E43400F583740BF090005694
:100F5E00E0FF04F074002FF582E43400F58374B2E0
:100F6E00F0900056E0FF04F074002FF582E4340098
:100F7E00F5837405F09000EFE0C313A3E013540162
:100F8E00FF900056E0FE04F074002EF582E434006B
:100F9E00F583EFF0900056E02400F9E43400FA7B7C
:100FAE00017D08123088900056E02408F0E490008D
:100FBE0055F0900001E02401FFE433FE900055E06F
:100FCE00FDC39FEE6480F8748098502474012DF553
:100FDE0082E43400F583E0FF900056E02400F582B1
:100FEE00E43400F583E02FF0900055E004F080C269
:100FFE00900056E0122AFC801F7B007A007900E4F4
:10100E0090005CF07F38800D7B007A007900E490D0
:10101E00005CF07F391226C0900056E06003122A61
:01102E00FCC5
:01102F00229E
:10312E00900010E0603112362BEF24F0601824D09E
:10313E00601224207016123609123670E4900010B8
:10314E00F00233C580001236090236707B017A0018
:10315E0079007D100231C07B017A0079117D101249
:0F316E00334EEF60097B017A0079111209632259
:102C310041007D0041007E0041007F005000800086
:0F2C410000000000000000000000000000000084
:0A362100E490007DF0A3F0A3F02276
:1026C000900059EBF0A3EAF0A3E9F0E490007DF06C
:1026D000E0FE04F074802EF582E43400F583745536
:1026E000F090007DE0FE04F074802EF582E434006A
:1026F000F58374AAF090005CE004FE90007DE0FD9C
:1027000004F074802DF582E43400F583EEF090003F
:102710007DE0FE04F074802EF582E43400F583EF52
:10272000F0E490007FF090005CE0FF90007FE0FE1E
:10273000C39F502F900059E0FBA3E0FAA3E0F98E6D
:1027400082758300121C6CFE90007DE0FD04F07425
:10275000802DF582E43400F583EEF090007FE004F4
:10276000F080C37B017A007980EF2404FD122D53A1
:1027700090007DE0FE04F074802EF582E43400F5D4
:1027800083EFF0E490007FF090005CE02405FFE42C
:1027900033FE90007FE0FDC39FEE6480F874809864
:1027A000501774802DF582E43400F583E0FF123673
:0A27B0005890007FE004F080CF2273
:1016CF00200A03021B5CC20A78A2E62480FF08E608
:1016DF00FEC3EF9E547FD394045003021B5C74220D
:1016EF002EF8E664556003021B53EE04547F242248
:1016FF00F8E664AA6003021B5378A3E6FF240254A2
:10170F007F2422F8E690007EF0FB78A2E62480FD8D
:10171F00E433FCC3ED9FFFEC9400FE7C007D801250
:10172F001CBBEB2404FFE433FEC3ED9FEE6480F893
:10173F00EC6480985003021B5678A3E6FF2422F92D
:10174F00E4FAFBE02403FD900055EFF0A37480F062
:10175F001229EC90007EE078A3262403547F2422E4
:10176F00F8E66F6003021B53E490007DF0FE7F10DC
:10177F00FD7B017A007900121EA178A3E6FF2403F6
:10178F00547F2422F8E624C9700302185214700300
:10179F000219F41470030218F724036003021B47A5
:1017AF0090007DE0FE04F074002EF582E43400F525
:1017BF008374F8F090007EE0FE90007DE0FD04F071
:1017CF0074002DF582E43400F583EEF090007DE097
:1017DF00FE04F074002EF582E43400F58374B5F046
:1017EF00EF2404547F2422F8E6FF90007DE0FE04EE
:1017FF00F074002EF582E43400F583EFF0E49000EE
:10180F007FF0900001E02401FFE433FE90007FE0C1
:10181F00FDC39FEE6480F8748098502474012DF5F9
:10182F0082E43400F583E0FF90007DE02400F58230
:10183F00E43400F583E02FF090007FE004F080C2E5
:10184F00021B3690007DE0FF04F074002FF582E458
:10185F003400F58374F8F090007EE0FF90007DE097
:10186F00FE04F074002EF582E43400F583EFF0905F
:10187F00007DE0FF04F074002FF582E43400F5835F
:10188F0074B7F078A3E62404547F2422F8E6FF907F
:10189F00007DE0FE04F074002EF582E43400F58341
:1018AF00EFF0E490007FF0900001E02401FFE433BB
:1018BF00FE90007FE0FDC39FEE6480F87480985027
:1018CF002474012DF582E43400F583E0FF90007D50
:1018DF00E02400F582E43400F583E02FF090007FE0
:1018EF00E004F080C2021B3690007DE0FF04F0742C
:1018FF00002FF582E43400F58374F8F090007EE059
:10190F00FF90007DE0FE04F074002EF582E43400B9
:10191F00F583EFF090007DE0FF04F074002FF58267
:10192F00E43400F58374B8F078A3E6FF2404547F01
:10193F002422F8E6FE90007DE0FD04F074002DF502
:10194F0082E43400F583EEF024FE600D14600C1475
:10195F00601024037049EF8005800778A3E6240503
:10196F00802378A3E6FF2405547F2422F8E6FE9017
:10197F00007DE0FD04F074002DF582E43400F58362
:10198F00EEF0EF2406547F2422F8E6FF90007DE06E
:10199F00FE04F074002EF582E43400F583EFF0E4DA
:1019AF0090007FF0900001E02401FFE433FE9000EF
:1019BF007FE0FDC39FEE6480F8748098502474011B
:1019CF002DF582E43400F583E0FF90007DE02400E4
:1019DF00F582E43400F583E02FF090007FE004F00F
:1019EF0080C2021B3690007DE0FF04F074002FF5DB
:1019FF0082E43400F58374F8F090007EE0FF9000ED
:101A0F007DE0FE04F074002EF582E43400F583EFE0
:101A1F00F090007DE0FF04F074002FF582E43400B5
:101A2F00F58374B2F078A3E6FF2404547F2422F8E0
:101A3F00E6FE90007DE0FD04F074002DF582E434A5
:101A4F0000F583EEF024FE60101460331460372429
:101A5F00036003021AF3EF802978A3E6FF240554ED
:101A6F007F2422F8E6FE90007DE0FD04F074002D47
:101A7F00F582E43400F583EEF064017067802B7813
:101A8F00A3E62405804478A3E6FF2405547F24228F
:101A9F00F8E6FE90007DE0FD04F074002DF582E481
:101AAF003400F583EEF06401703AEF2406547F247E
:101ABF0022F8E6FE90007DE0FD04F074002DF58223
:101ACF00E43400F583EEF0EF2407547F2422F8E688
:101ADF00FF90007DE0FE04F074002EF582E43400E8
:101AEF00F583EFF0E490007FF0900001E02401FF18
:101AFF00E433FE90007FE0FDC39FEE6480F87480B6
:101B0F0098502474012DF582E43400F583E0FF90A2
:101B1F00007DE02400F582E43400F583E02FF0909F
:101B2F00007FE004F080C290007DE004F07B017A3A
:101B3F00007900E0FD122B0690007EE0240478A3CC
:0E1B4F0026F6800378A30678A3E6547FF622DC
:102D530090005DEBF0A3EAF0A3E9F0AE05E4900088
:102D6300F1F0AF061EEF60469000F1E0FF90005DCA
:102D7300E0FBA3E475F001121D07A9F0FA121C533E
:102D83006F9000F1F0E4A3F09000F2E0C3940850D8
:102D9300D19000F1E030E007C313648CF08007901A
:102DA30000F1E0C313F09000F2E004F080DA900049
:042DB300F1E0FF222A
:1029EC00900051EBF0A3EAF0A3E9F0AE05E49000FF
:1029FC00F1F0AF061EEF606B9000F1E0FF9000511C
:102A0C00E0FBA3E475F001121D07A9F0FA121C53A8
:102A1C006F9000F1F0900055E004F0A3E0FF9000FF
:102A2C0055E0C39F4012E4F0EFFDE49DFDE49400FB
:102A3C009000528DF0121CF1E49000F2F09000F234
:102A4C00E0C3940850AC9000F1E030E007C313648D
:102A5C008CF080079000F1E0C313F09000F2E004DA
:092A6C00F080DA9000F1E0FF2295
:1010300020202020444F4D450105FFFFFF00000008
:101040000100C864000014FF00000000000100C897
:101050006400002400FF000000000100C8640000DC
:101060003400FF000000000100C86400004400FFDD
:10107000000000000100C86400005400FF000000F0
:10108000000100C86400006400FF000000000100CF
:10109000C86400007400FF000000000100C8640084
:1010A0000020202020204C53550203A020F0FFA553
:1010B000000100C864000013FFA500A020F001009B
:1010C000C8640000040000FF0000000100C86400C4
:1010D00000040000FF0000000100C86400000400DC
:1010E00000FF0000000100C8640000040000FF00D1
:1010F00000000100C8640000040000FF00000001BF
:1011000000C8640000040000FF0000000100C86483
:10111000000020202020584D41530303FF00000011
:10112000FF000100C86400001300FF00FFFFFF0183
:1011300000C864000023FFFFFFFF00000100C86437
:101140000000040000FF0000000400C86400000468
:101150000000FF0000000400C8640000040000FF5D
:101160000000000400C8640000040000FF0000004C
:101170000400C8640000040000FF0000000400C870
:101180006400002020204D415244490403FF000028
:1011900000FF000100646400001300FF00A020F0C5
:1011A00001006464000023A020F0FFFF0001006440
:1011B00064000033FFFF00FF0000010064640000D2
:1011C000440000FF0000000400C864000054000058
:1011D000FF0000000400C8640000640000FF00007D
:1011E000000400C8640000740000FF000000040058
:1011F000C864000020202046414445310104FF001E
:10120000000000000100C86400001300FF00A020DF
:10121000F001006464000023A020F0FFFF00010043
:101220006464000033FFFF00FF00000100646400FD
:1012300000440000FF0000000400C86400005400E7
:1012400000FF0000000400C8640000640000FF000C
:1012500000000400C8640000740000FF00000004E7
:1012600000C86400002020204641444532010400AB
:10127000FF000000000100C86400001300FF00A090
:1012800020F001006464000023A020F0FFFF0001B3
:10129000006464000033FFFF00FF0000010064648D
:1012A0000000440000FF0000000400C86400005477
:1012B0000000FF0000000400C8640000640000FF9C
:1012C0000000000400C8640000740000FF0000007B
:1012D0000400C86400002020204641444533010436
:1012E0000000FF0000000100C86400001300FF00C0
:1012F000A020F001006464000023A020F0FFFF00A4
:1013000001006464000033FFFF00FF00000100647F
:10131000640000440000FF0000000400C8640000F6
:10132000540000FF0000000400C8640000640000D6
:10133000FF0000000400C8640000740000FF00000B
:10134000000400C8640000202020464144453401C8
:1013500004A020F00000000100C86400001300FF9A
:1013600000A020F001006464000023A020F0FFFF33
:101370000001006464000033FFFF00FF0000010073
:1013800064640000440000FF0000000400C8640022
:1013900000540000FF0000000400C8640000640066
:1013A00000FF0000000400C8640000740000FF009B
:1013B00000000400C8640000202020464144453558
:1013C0000104FFA5000000000100C8640000130034
:1013D000FF00A020F001006464000023A020F0FFC3
:1013E000FF0001006464000033FFFF00FF00000104
:1013F0000064640000440000FF0000000400C864B2
:101400000000540000FF0000000400C864000064F5
:101410000000FF0000000400C8640000740000FF2A
:101420000000000400C864000020205348415250CE
:10143000310105FF00000000000100646400641336
:1014400000FF00A020F001006464000023A020F051
:10145000FFFF0001006464000033FFFF00FF000095
:10146000010064640000440000FF0000000400C8A4
:10147000640000540000FF0000000400C864000085
:10148000640000FF0000000400C864000074000055
:10149000FF0000000400C8640000202053484152AF
:1014A0005032010500FF0000000001006464006488
:1014B0001300FF00A020F001006464000023A020BE
:1014C000F0FFFF0001006464000033FFFF00FF0035
:1014D00000010064640000440000FF0000000400FC
:1014E000C8640000540000FF0000000400C864004D
:1014F00000640000FF0000000400C86400007400E5
:1015000000FF0000000400C8640000202053484190
:1015100052503301050000FF000000010064640028
:10152000641300FF00A020F001006464000023A009
:1015300020F0FFFF0001006464000033FFFF00FFA4
:101540000000010064640000440000FF000000048B
:1015500000C8640000540000FF0000000400C864DC
:101560000000640000FF0000000400C86400007474
:101570000000FF0000000400C86400002020534861
:10158000415250340105A020F000000001006464C5
:1015900000641300FF00A020F00100646400002339
:1015A000A020F0FFFF0001006464000033FFFF0093
:1015B000FF0000010064640000440000FF00000020
:1015C0000400C8640000540000FF0000000400C8CC
:1015D000640000640000FF0000000400C864000014
:1015E000740000FF0000000400C8640000202053C5
:1015F00048415250350105FFA5000000000100647C
:101600006400641300FF00A020F001006464006423
:1016100023A020F0FFFF0001006464006433FFFF9B
:1016200000FF0000010064640000440000FF0000AF
:10163000000400C8640000540000FF000000040023
:10164000C8640000640000FF0000000400C86400DB
:1016500000740000FF0000000400C8640000204780
:1016600052414449454E0703FF0000FF7F0001003F
:101670006464000013FF7F00FFFF0001006464004A
:101680000023FFFF0000FF0001006464000033003E
:10169000FF0000FFFF0100646400004300FFFF0043
:1016A00000FF010064640000530000FF8B00FF0195
:1016B0000064640000638B00FFFF000001006464AD
:0F16C0000000730000FF0000000400C864000079
:0B2C500044006E000000004100720014
:10340F007E007F067D007B017A007968121EA17E07
:10341F00007F017D007B017A007973121EA1E4FF0A
:03342F0002303335
:1034E000900073E0600414F08006900073740EF096
:0834F000900073E0FF0230338D
:1034F800900073E004F0E0C3940F4002E4F0900001
:0635080073E0FF02303306
:10308800900058EBF0A3EAF0A3E9F0EDD3940840E0
:103098000A900058E4F0A3F0A3F022AF057E00C028
:1030A80006C007900073E075F071A42430F974101D
:1030B80035F0FA7BFFC003C002900058E0FBA3E0A4
:1030C800FAA3E0F8AC02AD03D002D003D007D006D3
:0430D800121C2D2277
:08000300900073E0FF023033AE
:10355B00E47814F67818F608F6FBFAFDFCFFFE0289
:02356B00000E50
:102A7500900055EFF02401FFE433FE900073E0FD74
:102A850075F071A42438F582E5F03410F583E493EC
:102A95006F7001EE7015900055F0ED75F071A4247E
:102AA50039F9741035F0FA7BFF8015900073E075E5
:102AB500F071A42446F9741035F0FA7BFF900055A7
:102AC500E075F00DA429F9EA35F0FA780D7C007D62
:102AD500007E007F0D121C2D900073E075F071A42F
:102AE5002430F9741035F0FA7BFF78747C007D0191
:072AF5007E007F09021C2D89
:10303300AB07E4900068F0A3121E6A000000009042
:10304300006D7432F0900073EBF0E075F071A4241E
:1030530039F9741035F0FA7BFF780D7C007D007E22
:10306300007F0D121C2D900073E075F071A42430C5
:10307300F9741035F0FA7BFF78747C007D017E00D3
:053083007F09021C2D75
:1034AE00AB07E4900068F0A3121E6A00000000E46F
:0934BE0090006DF0AF03022A75C5
:1000260090006DE0600314F0227814E6700A7819E7
:10003600E618467003020962780DE6540F24FC7038
:100046000302048A1470030206CB24026003020929
:1000560062900069E0FCA3E0FDA3E0FEA3E02401BA
:10006600FFE43EFEE43DFDE43CFC900069121E5EAA
:100076007811E6FF780EE6FEC39F4003020135EED7
:10008600FDC3EF9DFFE49400FE123615EE3395E0B6
:10009600FDFCC004C005C006C007E4FF7E01FDFCF0
:1000A600900069E0F8A3E0F9A3E0FAA3E0FB121DD3
:1000B6001DD003D002D001D000121D1DC006C007FE
:1000C6007815E6FE08E6FBAA06E4F9F8D007D0069E
:1000D600121DA8C004A905AA06AB07780EE6FEE421
:1000E600FCFDD0002BFFEA3EFEED39FDEC38FC901E
:1000F600006E121E5E7817E6FFE4FCFDFE90006EB1
:10010600E0F8A3E0F9A3E0FAA3E0FB121D1DE47BEF
:1001160064FAF9F8121DA890006E121E5E90006E29
:10012600E0FCA3E0FDA3E0FEA3E0FFE40201E0782B
:100136000EE6FF7811E6C39FFFE49400FE12361523
:10014600EE3395E0FDFCC004C005C006C007E4FF21
:100156007E01FDFC900069E0F8A3E0F9A3E0FAA3B4
:10016600E0FB121D1DD003D002D001D000121D1DD0
:10017600C006C0077815E6FE08E6FBAA06E4F9F80D
:10018600D007D006121DA8C004A905AA06AB077899
:100196000EE6FEE4D000C39BFFEE9AFEE499FDE472
:1001A60098FC90006E121E5E7817E6FFE4FCFDFEDA
:1001B60090006EE0F8A3E0F9A3E0FAA3E0FB121DBD
:1001C6001DE47B64FAF9F8121DA890006E121E5EFB
:1001D60090006EA3A3E0FEA3E0FF1232BA7812E607
:1001E600FF780FE6FEC39F5071EEFDC3EF9DFFE45F
:1001F6009400FE123615EE3395E0FDFCC004C005F2
:10020600C006C007E4FF7E01FDFC900069E0F8A38C
:10021600E0F9A3E0FAA3E0FB121D1DD003D002D043
:1002260001D000121D1DC006C0077815E6FE08E6BF
:10023600FBAA06E4F9F8D007D006121DA8C004A947
:1002460005AA06AB07780FE6FEE4FCFDD0002BFFFF
:10025600EA3EFEED39FDEC388072780FE6FF781243
:10026600E6C39FFFE49400FE123615EE3395E0FDDB
:10027600FCC004C005C006C007E4FF7E01FDFC907B
:100286000069E0F8A3E0F9A3E0FAA3E0FB121D1D64
:10029600D003D002D001D000121D1DC006C00778C1
:1002A60015E6FE08E6FBAA06E4F9F8D007D0061222
:1002B6001DA8C004A905AA06AB07780FE6FEE4D080
:1002C60000C39BFFEE9AFEE499FDE498FC90006E55
:1002D600121E5E7817E6FFE4FCFDFE90006EE0F865
:1002E600A3E0F9A3E0FAA3E0FB121D1DE47B64FA88
:1002F600F9F8121DA890006E121E5E90006EA3A360
:10030600E0FEA3E0FF1235D77813E6FF7810E6FE8D
:10031600C39F5071EEFDC3EF9DFFE49400FE1236BD
:1003260015EE3395E0FDFCC004C005C006C007E429
:10033600FF7E01FDFC900069E0F8A3E0F9A3E0FA76
:10034600A3E0FB121D1DD003D002D001D000121D68
:100356001DC006C0077815E6FE08E6FBAA06E4F906
:10036600F8D007D006121DA8C004A905AA06AB0737
:100376007810E6FEE4FCFDD0002BFFEA3EFEED39E8
:10038600FDEC3880727810E6FF7813E6C39FFFE431
:100396009400FE123615EE3395E0FDFCC004C00550
:1003A600C006C007E4FF7E01FDFC900069E0F8A3EB
:1003B600E0F9A3E0FAA3E0FB121D1DD003D002D0A2
:1003C60001D000121D1DC006C0077815E6FE08E61E
:1003D600FBAA06E4F9F8D007D006121DA8C004A9A6
:1003E60005AA06AB077810E6FEE4D000C39BFFEE35
:1003F6009AFEE499FDE498FC90006E121E5E781752
:10040600E6FFE4FCFDFE90006EE0F8A3E0F9A3E051
:10041600FAA3E0FB121D1DE47B64FAF9F8121DA88D
:1004260090006E121E5E90006EA3A3E0FEA3E0FF96
:100436001235E47815E6FE08E6FFE4FCFD90006957
:10044600E0F8A3E0F9A3E0FAA3E0FBC3121E3A40EA
:1004560010900069121E6A000000007814E6600120
:10046600167814E660030209627819E618466007F2
:1004760008E616187001167819E618466003020990
:1004860062020958900068E07018A3E0FCA3E0FD42
:10049600A3E0FEA3E02401FFE43EFEE43DFDE43CD0
:1004A6008029900069E0FCA3E0FDA3E0FEA3E0FF45
:1004B600EC4D4E4F601C900069A3A3A3E024FFFF00
:1004C600EE34FFFEED34FFFDEC34FFFC90006912C4
:1004D6001E5EE47FFFFEFDFC900069E0F8A3E0F9F4
:1004E600A3E0FAA3E0FB121D1DC004A905AA06ABF2
:1004F60007780EE6FFE4FCFDFED000121D1DC006C7
:10050600C0077815E6FE08E6FBAA06E4F9F8D00768
:10051600D006121DA890006E121E5E7817E6FFE444
:10052600FCFDFE90006EE0F8A3E0F9A3E0FAA3E07C
:10053600FB121D1DE47B64FAF9F8121DA890006EEB
:10054600121E5E90006EE0FCA3E0FDA3E0FEA3E0B9
:10055600FFE41232BAE47FFFFEFDFC900069E0F88A
:10056600A3E0F9A3E0FAA3E0FB121D1DC004A90550
:10057600AA06AB07780FE6FFE4FCFDFED000121DCD
:100586001DC006C0077815E6FE08E6FBAA06E4F9D4
:10059600F8D007D006121DA890006E121E5E7817BE
:1005A600E6FFE4FCFDFE90006EE0F8A3E0F9A3E0B0
:1005B600FAA3E0FB121D1DE47B64FAF9F8121DA8EC
:1005C60090006E121E5E90006EE0FCA3E0FDA3E0BC
:1005D600FEA3E0FFE41235D7E47FFFFEFDFC9000AA
:1005E60069E0F8A3E0F9A3E0FAA3E0FB121D1DC041
:1005F60004A905AA06AB077810E6FFE4FCFDFED0C9
:1006060000121D1DC006C0077815E6FE08E6FBAA07
:1006160006E4F9F8D007D006121DA890006E121E47
:100626005E7817E6FFE4FCFDFE90006EE0F8A3E0BE
:10063600F9A3E0FAA3E0FB121D1DE47B64FAF9F8C6
:10064600121DA890006E121E5E90006EE0FCA3E0E4
:10065600FDA3E0FEA3E0FFE41235E47815E6FE080C
:10066600E6FFE4FCFD900069E0F8A3E0F9A3E0FAF8
:10067600A3E0FBC3121E3A5014E4FFFEFDFC9000FB
:1006860069E0F8A3A3A3E0C3121E3A7015900068B0
:10069600E0700404F0800BE4900068F07814E660E3
:1006A60001167814E660030209627819E6184660B6
:1006B6000708E616187001167819E6184660030250
:0506C600096202095861
:1006CB00900051121E6A000000FFE4FFFEFDFC903B
:1006DB000069E0F8A3E0F9A3E0FAA3E0FBC3121E64
:1006EB003A60030207DE780EE6FFE4FCFDFE9000A5
:1006FB0051E0F8A3E0F9A3E0FAA3E0FB121D1DC043
:10070B0004A905AA06AB077817E6FFE4FCFDFED0AB
:10071B0000121D1DE47B64FAF9F8121DA890006EFF
:10072B00121E5E90006EE0FCA3E0FDA3E0FEA3E0D2
:10073B00FFE41232BA780FE6FFE4FCFDFE900051A5
:10074B00E0F8A3E0F9A3E0FAA3E0FB121D1DC0043F
:10075B00A905AA06AB077817E6FFE4FCFDFED0005F
:10076B00121D1DE47B64FAF9F8121DA890006E129D
:10077B001E5E90006EE0FCA3E0FDA3E0FEA3E0FF95
:10078B00E41235D77810E6FFE4FCFDFE900051E053
:10079B00F8A3E0F9A3E0FAA3E0FB121D1DC004A926
:1007AB0005AA06AB077817E6FFE4FCFDFED00012A6
:1007BB001D1DE47B64FAF9F8121DA890006E121E41
:1007CB005E90006EE0FCA3E0FDA3E0FEA3E0FFE47F
:1007DB001235E47815E6FE08E6FFE4FCFD900069AF
:1007EB00E0F8A3E0F9A3E0FAA3E0FBC3121E3A6022
:1007FB00030208EC7811E6FFE4FCFDFE900051E0EB
:10080B00F8A3E0F9A3E0FAA3E0FB121D1DC004A9B5
:10081B0005AA06AB077817E6FFE4FCFDFED0001235
:10082B001D1DE47B64FAF9F8121DA890006E121ED0
:10083B005E90006EE0FCA3E0FDA3E0FEA3E0FFE40E
:10084B001232BA7812E6FFE4FCFDFE900051E0F89C
:10085B00A3E0F9A3E0FAA3E0FB121D1DC004A90558
:10086B00AA06AB077817E6FFE4FCFDFED000121DCD
:10087B001DE47B64FAF9F8121DA890006E121E5E3F
:10088B0090006EE0FCA3E0FDA3E0FEA3E0FFE4120A
:10089B0035D77813E6FFE4FCFDFE900051E0F8A39A
:1008AB00E0F9A3E0FAA3E0FB121D1DC004A905AA01
:1008BB0006AB077817E6FFE4FCFDFED000121D1D0A
:1008CB00E47B64FAF9F8121DA890006E121E5E907C
:1008DB00006EE0FCA3E0FDA3E0FEA3E0FFE4123515
:1008EB00E4900069E0FCA3E0FDA3E0FEA3E024019B
:1008FB00FFE43EFEE43DFDE43CFC900069121E5E0D
:10090B007916E7781926FF19E71836FEE4FCFD90F7
:10091B000069E0F8A3E0F9A3E0FAA3E0FBC3121E21
:10092B003A4010900069121E6A000000007814E62D
:10093B006001167814E6701F7819E61846600708F0
:10094B00E616187001167819E61846700A780DE647
:07095B00C4540FFF1234AE7B
:010962002272
:013690002217
:0F359F009000CBEBF0A3EAF0A3E9F0A3EDF0224C
:013691002216
:013692002215
:10356D0012352212363F1230DC1234551235CAD2C2
:02357D00AF227B
:022C5B00C10AAC
:0D35CA00C20A7F007EC27D017C0002327FBC
:0300230002331F86
:10331F00C0E0C0D075D000C000309817C29878A216
:10332F00E6062422F8A69978A2E6C3948040027696
:0F333F0000D20A309902C299D000D0D0D0E0322B
:082C5D004100BE004100BF0070
:103455001234925389F0438901538EF79000BE745C
:10346500FAF0A374C4F0758CFAF58AD2A9D28C222D
:10349200E49000B5F09000B7F09000BBF0A3F0907C
:0C34A20000B6F09000B8F09000BDF022E1
:03000B00022B7B4A
:102B7B00C0E0C0F0C083C082C0D075D000C000C020
:102B8B00069000BEE0F58CA3E0F58A9000B5E0045A
:102B9B00F0C3940A4005E4F0A304F09000B7E004FE
:102BAB00F0C394644005E4F0A304F09000B9E00492
:102BBB00F0C394F4748094814005E4F0A304F09086
:102BCB0000BBE475F001121CF1FEC3E5F094E8EED6
:102BDB009403400A9000BBE4F0A3F0A304F0D006EA
:0D2BEB00D000D0D0D082D083D0F0D0E03226
:1033EB000A6D679C46F6375D4521EFAC5A50010BD1
:1033FB00DF020A6D679C46F6375D4521EFAC5A50EC
:04340B00E10BDF02F0
:082C65004500C6CCCCCCCCCC60
:1035220053B3FE43B40153B3FD43B40253B1FE435C
:03353200B20122C1
:013693002214
:10347500E4FEC290EF30E704D2808002C280EF25DF
:0C348500E0FFD290000EEEB408E8C29008
:013491002218
:04353500E4FD7FFC36
:0F353900C29100123475AF0512347500D2912281
:0A317D007B019000677405F07F3FAE
:0B318700900064EBF0A3EAF0A3E9F075
:10319200C291E4FD123475900067E0FFEDC39F50C9
:1031A2001A900064E0FBA3E0FAA3E0F98D82758334
:0D31B20000121C6CFF1234750D80DCD291F0
:0131BF0022ED
:10343200E4FEC290EF30E704D2808002C280EF2522
:10344200E0FFD290000EEEB408E843B10153B2FEA1
:02345200C29026
:013454002255
:1034C700E4FFFEC290EF25E0FFD290308003440175
:0834D700FF0EEEB408EDC290F7
:0134DF0022CA
:10354800C291001234321234C753B1FE43B20100A3
:02355800D2910E
:01355A00224E
:0B320300900052EBF0A3EAF0A3E9F00A
:10320E00C291123432E4FD900055E0FFEDC39F50A1
:10321E001A1234C7900052E0FBA3E0FAA3E0F98D36
:10322E0082758300EF121C990D80DC53B1FE43B200
:03323E0001D29129
:01324100226A
:0E35AE001235357D8E7F201235390000002247
:1033C500E4FEFD7FFC1235397D8F7F20123539E40F
:1033D500FD7FFD123539E4FEFF000FBF00010EBE73
:0533E50013F7BF88F49E
:0133EA0022C0
:0A362B007F07123548EF5470FF22AC
:063677007F091235482214
:073670007D707F2702353950
:0C360900E4FD7FE11235397FE202353923
:0E35BC00AC07123535AF04AD077F2502353957
:0631C00012362BEF703CFB
:1031C600900051F0A3F0900067EDF07FA0123187D8
:1031D600E4FD7FFD123539E4900051F0A3F0009034
:1031E6000052E004F07006900051E004F0900051A7
:0C31F600E07004A3E064C870E5123535F9
:0132020022A9
:10334E00AC0512362BEF30E61D123535900055ECDC
:10335E00F07F61123203123609123670E4FD7FFDE2
:09336E001235397F01227F002293
:1024800078517C007D017BFF7A3379EB7E007F05FC
:10249000121C2D78567C007D017BFF7A3379F07E0B
:1024A000007F03121C2D78597C007D017BFF7A335D
:1024B00079F37E007F06121C2D785F7C007D017B06
:1024C000FF7A3379F97E007F01121C2D78607C0041
:1024D0007D017BFF7A3379FA7E007F03121C2D1277
:1024E00036937D5A7F531235397DA57F5312353986
:1024F0007D207F3D1235391235357FE11235397F28
:10250000E21235397D707F271235397D017F221225
:1025100035397D037F231235397D4E7F25123539BC
:102520007D107F311235397B017A0079C6900067C2
:102530007405F07F301231877B017A0079C69000F4
:10254000677405F07F2A1231877A00795112317D44
:102550007B017A0079599000677406F07F3A123156
:10256000877B017A00795F9000677401F07F3912F0
:1025700031877B017A0079569000677403F07F3EC3
:102580001231877B017A0079609000677403F07FD5
:102590003B123187E4FD7F3C1235397D3F7F2612A7
:0E25A0003539E4FD7F241235397F21023539AB
:0527BA00900090EFF01B
:1027BF00E478917C007D017BFF7A3379FDFE7F0504
:1027CF00121C2D78967C007D017BFF7A3479027E76
:1027DF00007F03121C2D78997C007D017BFF7A34DA
:1027EF0079057E007F06121C2D789F7C007D017B72
:1027FF00FF7A34790B7E007F01121C2D78A07C00AC
:10280F007D017BFF7A34790C7E007F03121C2D7DB6
:10281F005A7F531235397DA57F531235397D207F6D
:10282F003D123539123535E4FF000000000FEFB4CB
:10283F00DCF7900090E0FD7F251235397D3F7F2634
:10284F001235397A00799112317D7B017A007999AD
:10285F009000677406F07F3A1231877B017A007916
:10286F009F9000677401F07F391231877B017A00E6
:10287F0079969000677403F07F3E1231877B017A5F
:0E288F000079A09000677403F07F3B02318750
:1030DC0053B1F743B20853B1EF43B21053B3FB43B0
:1030EC00B40443DE01A2AF9209C2AF75C7AA75C77B
:1030FC005543910143C60875C7AA75C7555391FE30
:10310C00A20992AF43DE2053DF3F43DF0153DFF9C7
:10311C0075D1FF75D9FFD2DFE4FBFAFDFCFFFE028F
:02312C00000E93
:1032BA00AD07AC06A2AF9209C2AF75C7AA75C755CA
:1032CA00439101A20992AFECF5C5EDF5CDA2AF92FB
:1032DA0009C2AF75C7AA75C7555391FEA20992AF25
:0332EA00D2DE220F
:0D35D700AD07AC06ECF5D5EDF5DDD2DE223A
:0D35E400AD07AC06ECF5D2EDF5DAD2DE2233
:10000E008D828C831232BAAE83AF821235D7AE0296
:05001E00AF030235E410
:09363F0053B3EF43B410023686C8
:03368300D29422BC
:03368600C29422C9
:03368900B29422D6
:06367D00A294E433FF22D9
:0A363500EF6003023683123686228E
:042C6D004100C20060
:013694002213
:1022DF00AB07AA06A9059000C3EFF0C39480500482
:1022EF00E4F080069000C37480F09000C0E4F0A387
:1022FF007480F09000C3E07C002400FEEC3AA3F061
:10230F00A3CEF09000C0E0FEA3E0FF7003EE6401E7
:10231F0060369000C4E0FCA3E0F5828C83E4938FD9
:10232F00828E83F09000C2E004F09000C1E004F0D0
:10233F0070069000C0E004F09000C5E004F070C398
:10234F009000C4E004F080BBAF039000C3EFF0C374
:10235F009480500FE02480FEE4339000C0F0A3CEB1
:10236F00F0800D9000C3E0FF9000C0E4F0A3EFF009
:10237F009000C0E0FCA3E0F5828C83E9F0AD038D03
:10238F00A6EAFFF5A775AEFFA2AF9209C2AF75C758
:10239F00AA75C755439F01A20992AFA2AF9209C276
:1023AF00AF75C7AA75C75543A501A20992AF75AFFF
:1023BF0022A2AF9209C2AF75C7AA75C75543A40130
:1023CF00A20992AF9000C3EDF0C394805004E4F0E3
:1023DF0080069000C37480F09000C0E4F0A3748076
:1023EF00F09000C3E0F5A68FA7A2AF9209C2AF7518
:1023FF00C7AA75C755439F01A20992AFA2AF920911
:10240F00C2AF75C7AA75C75543A501A20992AF758B
:10241F00AF219000C0E0FEA3E0FFF44E602C8F824E
:10242F008E83E0F5AEA2AF9209C2AF75C7AA75C78A
:10243F005543A401A20992AF05A69000C1E004F094
:10244F0070D09000C0E004F080C8A2AF9209C2AF74
:10245F0075C7AA75C75553A5FEA20992AFA2AF9231
:10246F0009C2AF75C7AA75C755539FFEA20992AF90
:01247F00223A
:043648008F828E835C
:03364C00E493FF05
:01364F002258
:10327F0053B1BF53B2BF53B17F53B27F7598504311
:10328F008920438780438E1053C4DFAB07AA06A95A
:10329F0005A8047F407E427D0F7C00121DA8EF041D
:0B32AF00F404F58DD28ED299D2AC222F
:102C72009000CF121E5E53B1BF53B2BF53B17F5308
:102C8200B27F75985043878053C4F843C4209000A4
:102C9200CFE0F8A3E0F9A3E0FAA3E0FB7F407E4295
:102CA2007D0F7C00121DA8C374FF9FFF74FF9EFE60
:102CB200E49DFDE49CFC7808121E4B8FC69000CF69
:102CC200E0F8A3E0F9A3E0FAA3E0FB7F407E427DB7
:102CD2000F7C00121DA8C374FF9FFF8FC543C40859
:032CE200D2992262
:073650003098FDAF99C2980C
:013657002250
:08365800C2998F993099FD22FF
:102CE5009000D3121E5E53B1FB53B2FB53B3BF53D7
:102CF500B4BF75F85075C40853C4DF9000D3E0F82D
:102D0500A3E0F9A3E0FAA3E0FB7F407E427D0F7CC0
:102D150000121DA8C374FF9FFF74FF9EFEE49DFD76
:102D2500E49CFC7808121E4B8FC69000D3E0F8A3F4
:102D3500E0F9A3E0FAA3E0FB7F407E427D0F7C0033
:0E2D4500121DA8C374FF9FFF8FC543C4082250
:0736600030F8FDAF9AC2F83B
:013667002240
:08366800C2F98F9A30F9FD222E
:102F28009000D7121E5E538EF7438901D28CE4FFBE
:102F3800FEFDFC9000D7E0F8A3E0F9A3E0FAA3E0D7
:102F4800FBC3121E3A602F758A7E758CFF308DFD8B
:102F5800C28D9000D7E0FCA3E0FDA3E0FEA3E0242F
:102F6800FFFFEE34FFFEED34FFFDEC34FFFC900074
:092F7800D7121E5E80B8C28C2243
:102F81009000DB121E5E538EF7438901D28CE4FF61
:102F9100FEFDFC9000DBE0F8A3E0F9A3E0FAA3E07A
:102FA100FBC3121E3A602F758ACA758CFA308DFDEB
:102FB100C28D9000DBE0FCA3E0FDA3E0FEA3E024D2
:102FC100FFFFEE34FFFEED34FFFDEC34FFFC90001B
:092FD100DB121E5E80B8C28C22E6
:102FDA009000DF121E5E538EEF438910D28EE4FFFB
:102FEA00FEFDFC9000DFE0F8A3E0F9A3E0FAA3E01D
:102FFA00FBC3121E3A602F758BEA758DCB308FFD9D
:10300A00C28F9000DFE0FCA3E0FDA3E0FEA3E02472
:10301A00FFFFEE34FFFEED34FFFDEC34FFFC9000C1
:09302A00DF121E5E80B8C28E2286
:102E16009000E3121E5E53C9BF53C9DF43C910D2E7
:102E2600CAE4FFFEFDFC9000E3E0F8A3E0F9A3E0AE
:102E3600FAA3E0FBC3121E3A602F75CC3075CDF8AD
:102E460030CFFDC2CF9000E3E0FCA3E0FDA3E0FE9F
:102E5600A3E024FFFFEE34FFFEED34FFFDEC34FF6C
:0C2E6600FC9000E3121E5E80B8C2CA227D
:102E72009000E7121E5E75C40743C408E4FFFEFD1E
:102E8200FC9000E7E0F8A3E0F9A3E0FAA3E0FBC3BB
:102E9200121E3A603275C52C75C6CFE5C430E4FB0C
:102EA20053C4EF9000E7E0FCA3E0FDA3E0FEA3E043
:102EB20024FFFFEE34FFFEED34FFFDEC34FFFC9007
:0B2EC20000E7121E5E80B553C4F7222B
:102ECD009000EB121E5E75C40743C408E4FFFEFDBF
:102EDD00FC9000EBE0F8A3E0F9A3E0FAA3E0FBC35C
:102EED00121E3A603275C5D875C6FFE5C430E4FBD5
:102EFD0053C4EF9000EBE0FCA3E0FDA3E0FEA3E0E4
:102F0D0024FFFFEE34FFFEED34FFFDEC34FFFC90AB
:0B2F1D0000EB121E5E80B553C4F722CB
:1025AE000A3D3D3D3D3D3D3D3D3D3D3D3D3D3D3D80
:1025BE003D3D3D3D3D3D3D3D3D3D3D3D3D3D3D3D3D
:1025CE003D3D3D3D3D3D3D3D3D3D3D3D3D3D3D3D2D
:1025DE003D3D3D3D3D3D3D3D3D3D3D3D3D3D3D3D1D
:1025EE003D3D3D3D3D000A2A2020436F70797269C2
:1025FE006768742863292032303135204E75766F26
:10260E00746F6E20546563686E6F6C6F67792043CC
:10261E006F72702E20416C6C207269676874732023
:10262E0072657365727665642E2020000A2A20205A
:10263E00436F6E7461637420452D4D61696C3A2051
:10264E004D6963726F432D38626974406E75766F93
:10265E00746F6E2E636F6D2020202020202020208E
:10266E00202020202020202020202020202020205C
:10267E0020000A2A202044656D6F2056657273690A
:10268E006F6E20203A202532642E2532642E25329C
:10269E0064000A2A202046696E69736865642044C6
:1026AE00617465203A202532642E2532642E25323F
:0226BE006400B6
:102DB7007BFF7A2579AE121FE57BFF7A2579F4121E
:102DC7001FE57BFF7A26793A121FE57BFF7A267982
:102DD7008090002CE4F0A304F0E4A3F0A3F0A3F0A8
:102DE700A3F0121FE57BFF7A2679A090002C7407C9
:102DF700F0A374DFF0A3E4F0A37405F0A3E4F0A359
:0F2E0700741FF0121FE57BFF7A2579AE021FE5DD
:0300000002295280
:10295200787FE4F6D8FD9000007FFF7E03E4F0A3C9
:0A296200DFFCDEFA7581A30229A74D
:10296C00023242E493A3F8E493A34003F68001F20D
:10297C0008DFF48029E493A3F85407240CC8C3336C
:10298C00C4540F4420C8834004F456800146F6DF3B
:10299C00E4800B0102040810204080902BF8E47EA8
:1029AC00019360BCA3FF543F30E509541FFEE49330
:1029BC00A360010ECF54C025E060A840B8E493A3F7
:1029CC00FAE493A3F8E493A3C8C582C8CAC583CA22
:1029DC00F0A3C8C582C8CAC583CADFE9DEE780BEDA
:012C71000062
:101B5D00E709F608DFFA8046E709F208DFFA803E6A
:101B6D0088828C83E709F0A3DFFA8032E309F60857
:101B7D00DFFA8078E309F208DFFA807088828C83BF
:101B8D00E309F0A3DFFA806489828A83E0A3F60873
:101B9D00DFFA805889828A83E0A3F208DFFA804C4D
:101BAD0080D280FA80C680D4806980F28033801024
:101BBD0080A680EA809A80A880DA80E280CA80338D
:101BCD0089828A83ECFAE493A3C8C582C8CCC58305
:101BDD00CCF0A3C8C582C8CCC583CCDFE9DEE780D5
:101BED000D89828A83E493A3F608DFF9ECFAA9F054
:101BFD00EDFB2289828A83ECFAE0A3C8C582C8CCAA
:101C0D00C583CCF0A3C8C582C8CCC583CCDFEADEC2
:101C1D00E880DB89828A83E493A3F208DFF980CC24
:101C2D0088F0EF60010E4E60C388F0ED2402B4041D
:101C3D000050B9F582EB2402B4040050AF232345C4
:061C4D008223901BAD7321
:101C5300BB010689828A83E0225002E722BBFE028F
:091C6300E32289828A83E49322C2
:101C6C00BB010CE58229F582E5833AF583E022502D
:101C7C0006E92582F8E622BBFE06E92582F8E22277
:0D1C8C00E58229F582E5833AF583E4932291
:101C9900F8BB010DE58229F582E5833AF583E8F081
:101CA900225006E92582C8F622BBFE05E92582C82D
:021CB900F22215
:101CBB00C2D5EC30E709B2D5E4C39DFDE49CFCEE44
:101CCB0030E715B2D5E4C39FFFE49EFE121EDFC3BF
:101CDB00E49DFDE49CFC8003121EDF30D507C3E4BA
:061CEB009FFFE49EFE22B3
:101CF100C5F0F8A3E028F0C5F0F8E582158270027E
:061D01001583E038F0221A
:101D0700A3F8E0C5F025F0F0E5821582700215838F
:061D1700E0C838F0E822EC
:101D1D00E88FF0A4CC8BF0A42CFCE98EF0A42CFC65
:101D2D008AF0EDA42CFCEA8EF0A4CDA8F08BF0A4E3
:101D3D002DCC3825F0FDE98FF0A42CCD35F0FCEB42
:101D4D008EF0A4FEA9F0EB8FF0A4CFC5F02ECD3907
:0F1D5D00FEE43CFCEAA42DCE35F0FDE43CFC2274
:101D6C0075F008758200EF2FFFEE33FECD33CDCC2E
:101D7C0033CCC58233C5829BED9AEC99E5829840B1
:101D8C000CF582EE9BFEED9AFDEC99FC0FD5F0D68E
:101D9C00E4CEFBE4CDFAE4CCF9A88222B800C1B9B8
:101DAC000059BA002DEC8BF084CFCECDFCE5F0CBF6
:101DBC00F97818EF2FFFEE33FEED33FDEC33FCEB2F
:101DCC0033FB10D703994004EB99FB0FD8E5E4F9EA
:101DDC00FA227818EF2FFFEE33FEED33FDEC33FCD7
:101DEC00C933C910D7059BE99A4007EC9BFCE99ACB
:101DFC00F90FD8E0E4C9FAE4CCFB2275F010EF2F10
:101E0C00FFEE33FEED33FDCC33CCC833C810D7070F
:101E1C009BEC9AE899400AED9BFDEC9AFCE899F84A
:0E1E2C000FD5F0DAE4CDFBE4CCFAE4C8F922DD
:101E3A00EB9FF5F0EA9E42F0E99D42F0E89C45F0FE
:011E4A002275
:101E4B00E8600FECC313FCED13FDEE13FEEF13FF75
:031E5B00D8F12299
:0C1E5E00ECF0A3EDF0A3EEF0A3EFF022F7
:101E6A00A8828583F0D083D082121E81121E81122D
:101E7A001E81121E81E473E493A3C583C5F0C58352
:101E8A00C8C582C8F0A3C583C5F0C583C8C582C8C2
:011E9A002225
:061E9B008A838982E473D2
:101F7A00E508242CF582E43400F583E00508229074
:101F8A00002930070390002CE475F001121F340277
:101F9A001C532000E97F2ED2008018EF540F2490A2
:101FAA00D43440D4FF30040BEF24BFB41A005003DA
:101FBA002461FFE50960021509050CE50C700205AC
:101FCA000B30070E900029E475F001121F34EF025E
:101FDA001ECD02339E7403D2078003E4C207F508BC
:101FEA00900029121F4BE4F509F50BF50CE5096081
:101FFA00077F20121FBD80F5750AFFC201C200C209
:10200A0002C203C205C206C208121F89FF700D3040
:10201A0007057F00121FCEAF0CAE0B22B4255FC29C
:10202A00D5C204121F89FF24D0B40A00501A75F0D1
:10203A000A780930D50508B6FF0106C6A426F62097
:10204A00D5047002D20380D924CFB41A00EF500409
:10205A00C2E5D2040221CFD20180C6D20080C0D20A
:10206A000280BCD2D580BAD20580B47F20121FBDAF
:10207A002002077401B5090040F1121F7AFF121FEE
:10208A00BD021FF7D208D2068095121F7AFB121FD3
:10209A007AFA121F7AF94A4B700679A07A227BFFE4
:1020AA0020022EE509602A7E008E82758300121CAA
:1020BA006C60060EEE650A70F0C2D5EBC0E0EAC0AD
:1020CA00E0E9C0E0EE122216D0E0F9D0E0FAD0E062
:1020DA00FB121C53FF60AAEBC0E0EAC0E0E9C0E0D3
:1020EA00121FBDD0E02401F9D0E03400FAD0E0FBA1
:1020FA00E50A0460DCD50AD980877BFF7A22791247
:10210A00D202809C791080027908C206C20880082F
:10211A00D2D5790A8004790AC2D5E50A047002F593
:10212A000AE4FAFDFEFF121F7AFC7B082001131253
:10213A001F7AFD7B1030000A121F7AFE121F7AFFE7
:10214A007B20EC3382D592D55013C3E43000069F2E
:10215A00FFE49EFEE42001039DFDE49CFCE4CBF831
:10216A00C201EC700CCFCECDCCE824F8F870F38025
:10217A0017C3EF33FFEE33FEED33FDEC33FCEB33E5
:10218A00FB994002FB0FD8E9EB300105F8D0E0C417
:10219A0048B201C0E00AEC4D4E4F78207B0070C275
:1021AA00EAB50A0040BCC0E0122218D0F0D0E02004
:1021BA000104C4C0E0C4B201C0F0121FA6D0F0D519
:1021CA00F0EB021FF7121F54209453210E5820657A
:1021DA004C20614221124F211A44211A49207A4384
:0821EA002120552104462104C7
:1021F2004521044722C05020692D206D2E20902BAE
:10220200207123208E2022A92A202948000020881C
:102212003F3F3F00790AA2D5200314300509B910C7
:10222200020404B9080104A2D520060250010420C8
:1022320002689202B509005034C0E07F20300319D1
:102242007F30A20272067205500F12226FC202C2C2
:1022520006C205C2087F30800F300503E9C0E012D4
:102262001FBD300503D0E0F9D0E0B509CC30051729
:102272007F30B9100C121FBD7F583004077F788061
:1022820003B90803121FBD3002057F2D021FBD7F57
:10229200202008F87F2B2006F322920280CF286E9E
:1022A200756C6C2900D201121F7A3001F8C20178D4
:1022B2000930D50108F60220292D50434958121F32
:1022C2007A2403B405004001E49022BB93121FAEAE
:0D22D200743A121FAED20375090402210EEA
:0C361500EE30E707C3E49FFFE49EFE22B6
:101EA100EF4E6012EF60010EEDBB010B89828A8358
:101EB100F0A3DFFCDEFA2289F05007F709DFFCA965
:0C1EC100F022BBFEFCF309DFFCA9F022BC
:101ECD00BB010689828A83F0225002F722BBFE01F4
:021EDD00F322EE
:101EDF00BC000BBE0029EF8DF084FFADF022E4CCE7
:101EEF00F875F008EF2FFFEE33FEEC33FCEE9DECB0
:101EFF00984005FCEE9DFE0FD5F0E9E4CEFD22EDF6
:101F0F00F8F5F0EE8420D21CFEADF075F008EF2F3F
:101F1F00FFED33FD4007985006D5F0F222C398FD30
:051F2F000FD5F0EA22CD
:101F3400F8E0FBA3A3E0F925F0F0E5821582700236
:071F44001583E0FA38F022DA
:091F4B00EBF0A3EAF0A3E9F02297
:101F5400D083D082F8E4937012740193700DA3A31C
:101F640093F8740193F5828883E473740293686030
:061F7400EFA3A3A380DF30
:10339E00EFB40A07740D1233A9740A309811A89964
:1033AE00B8130CC2983098FDA899C298B811F6308F
:0733BE0099FDC299F5992267
:00000001FF
