:082FC500410226004102250033
:10254800123D71123F1A123AFB123F16123D5912F0
:102558002F339001E9E06060E4F0900226E004F097
:102568009000A5E0FFC394324027EF24CEFFE43467
:10257800FFFE7C007D03121E05EF240AFFE43EFEE9
:10258800900226E0D39FEE6480F8748098402980FA
:10259800229000A5E0FFC374329FFFE49400FE7C04
:1025A800007D06121E05C3740A9FFF900226E0D321
:1025B8009F4005E4F0120C379001EBE06005E4F071
:1025C800123D259001EDE06008E4F0120026123576
:1025D800909001EFE06002E4F09001F2E06002E424
:0E25E800F0123CD2900193EFF0700302255ADE
:1025F600E024FD70030226D71470030226FE24028F
:10260600600302255A900225E060030226CF90025D
:0826160028E020E3030226CFB7
:10261E00E4900194F0A3F0123C5F900194E0FF046B
:10262E00F074422FF582E43401F58374F8F09001D2
:10263E0094E0FF04F074422FF582E43401F58374C4
:10264E0009F0900194E0FF04F074422FF582E43417
:10265E0001F5837403F0900194E02442F9E434010F
:10266E00FA7B017D08123AA0900194E02408F0E470
:10267E00A3F0900143E02401FFE433FE900195E0C6
:10268E00FDC39FEE6480F8748098502474432DF53A
:10269E0082E43401F583E0FF900194E02442F58258
:1026AE00E43401F583E02FF0900195E004F080C250
:1026BE00900194E004F07B017A017942E0FD123042
:0126CE00E12A
:1026CF00E4900225F002255A9002257401F0900241
:1026DF0028E0FF30E30954F7F0123D0A02255A9023
:1026EF000228E04408F054FBF012000E02255A12A3
:0526FF003F1302255A03
:013F16002288
:013F17002287
:013F18002286
:013F19002285
:063EE5009001E30221320E
:063EEB009001E602213205
:0E3E0A009001E3122112E94A60031221812285
:0E3E18009001E6122112E94A60031221812274
:103A6E00EF4E602D9001D9EEF0A3EFF0AF05A3EC71
:103A7E00F0A3EFF0AF03A3EAF0A3EFF0E4A3F0A3FB
:103A8E00F0A3F0A3F09001D8F09001D704F0123E0D
:023A9E000A22FA
:103D8600E49001D7F0123E187B007A007900123ECB
:043D9600E5023EEB19
:102D43009001D7E07003022DF79001DBE0FEA3E0D2
:102D5300FF4E7003022DF79001D8E07035D3EF9446
:102D630000EE94005003022DF79001DFE475F001AB
:102D7300121E90FED39001DAE095F09001D9E09E07
:102D83005072123E18E49001DFF0A3F09001D804D2
:102D9300F0229001D8E06401705A9001DF75F001D0
:102DA300121E90FED39001DCE095F09001DBE09ED3
:102DB30050429001DDE0FEA3E0FF9400EE9400405A
:102DC300259001E1E475F001121E90FCD3EF95F01C
:102DD300EE9C5005E49001D7F09001D7E070079086
:102DE30001DBF0A3F022E49001DFF0A3F09001D81F
:052DF300F0123E0A226F
:102FCD0041015200500153000000000000000000BC
:102FDD000000000000000050014200000000000051
:102FED000000000000000000000048016300000028
:052FFD000000000000CF
:103AFB00E4900152F0FE7F10FD7B017A01795312A5
:103B0B0021877E007F107D007B017A017942122193
:073B1B0087122841023B491B
:0A30D70004F07B017A017942E0FD6C
:0B30E10090019D1221329001A0EDF043
:1030EC00E4FFFE0000000FBF00010EEF64144E70F1
:1030FC00F2123E269001527401F0E4FEFF00000033
:10310C00000FBF00010EEF64C84E70F190019D12CC
:10311C00211274019001426B7008E965827003EA18
:10312C00658360257E007F107D007B017A017942EA
:10313C001221879001A0E0FF7E0078427C017D0186
:09314C0090019D122112121D32A6
:013155002257
:06147800900196122132E2
:10147E00E4900199F0A3F0A3F0A3F0121D5864F2CA
:10148E006003021C61900196122112900001121D40
:10149E0071D394104003021C61E490019AF0900104
:1014AE0096122112900001121D712401FFE433FEE9
:1014BE0090019AE0FDC39FEE6480F87480985023EB
:1014CE00ED2401FFE433FE9001961221128F828EDD
:1014DE0083121D71FF90019CE02FF090019AE004A1
:1014EE00F080BB900196122112900001121D71F531
:1014FE0082758300A3A3121D71FF90019CE06F60A3
:10150E0003021C617E007F107D007B017A0179420F
:10151E00122187E490019BF0900196122112900007
:10152E0002121D7112215B158D01168502173E03E5
:10153E00194304194505194706194907195808157D
:10154E00900919675019855119A35219B25319D41C
:10155E00541B0C551B1C561B3B571B4A581B5D59E5
:10156E001B635A1B735B1B8B5C1B915D1BA95E1966
:10157E00767019947119437317F7B900001C58024D
:10158E001976900196122112900003121D71B4016A
:10159E0005123F0D80269001961221129000031223
:1015AE001D71B40205123F10801290019612211285
:1015BE00900003121D71B40303123F1390019BE0C0
:1015CE00FF04F074422FF582E43401F58374F8F0D1
:1015DE0090019BE0FF04F074422FF582E43401F594
:1015EE00837402F0900196122112900002121D7166
:1015FE00FF90019BE0FE04F074422EF582E434016C
:10160E00F583EFF0123EF7EF90019B6013E0FF04BD
:10161E00F074422FF582E43401F5837401F08011E9
:10162E00E0FF04F074422FF582E43401F583740276
:10163E00F0E490019AF0900143E02401FFE433FEC0
:10164E0090019AE0FDC39FEE6480F8748098400389
:10165E00021C5874432DF582E43401F583E0FF90AB
:10166E00019BE02442F582E43401F583E02FF090F3
:10167E00019AE004F080BF900228E0FF20E0030210
:10168E00198554FBF012000E900228E020E30302AD
:10169E001C58123BDB90019BE0FF04F074422FF5C7
:1016AE0082E43401F58374F8F090019BE0FF04F0BE
:1016BE0074422FF582E43401F5837409F090019B96
:1016CE00E0FF04F074422FF582E43401F5837402D6
:1016DE00F090019BE02442F9E43401FA7B017D088D
:1016EE00123AA090019BE02408F0E490019AF09049
:1016FE000143E02401FFE433FE90019AE0FDC39F15
:10170E00EE6480F8748098502474432DF582E4348E
:10171E0001F583E0FF90019BE02442F582E4340161
:10172E00F583E02FF090019AE004F080C2021B02D4
:10173E00900228E0FF20E0030219B254FBF01200E1
:10174E000E900228E020E303021C58123C5F900129
:10175E009BE0FF04F074422FF582E43401F58374AC
:10176E00F8F090019BE0FF04F074422FF582E43410
:10177E0001F5837409F090019BE0FF04F074422F91
:10178E00F582E43401F5837403F090019BE024426A
:10179E00F9E43401FA7B017D08123AA090019BE036
:1017AE002408F0E490019AF0900143E02401FFE454
:1017BE0033FE90019AE0FDC39FEE6480F87480982A
:1017CE00502474432DF582E43401F583E0FF90013B
:1017DE009BE02442F582E43401F583E02FF0900182
:1017EE009AE004F080C2021B02900228E030E0056D
:1017FE0054FEF0800F900228E04401F04408F0E41B
:10180E00FF1231D490019BE0FF04F074422FF58259
:10181E00E43401F58374F8F090019BE0FF04F0745A
:10182E00422FF582E43401F583740BF090019BE0B6
:10183E00FF04F074422FF582E43401F58374B9F09D
:10184E00900228E05401FF90019BE0FE04F07442E8
:10185E002EF582E43401F583EFF0900228E090013A
:10186E009B30E312E0FF04F074422FF582E4340162
:10187E00F583E4F08011E0FF04F074422FF582E46A
:10188E003401F5837401F090019BE02442F9E434B5
:10189E0001FA7B017D08123AA0E490019AF09001C2
:1018AE009AE0FFC394085040A3E0FE2442F582E480
:1018BE003401F583E5822FF582E43583F583E0600C
:1018CE0003B4FF1C90019AE0FF74422EF582E434BB
:1018DE0001F583E5822FF582E43583F5837420F0DC
:1018EE0090019AE004F080B690019BE02408F0E4A9
:1018FE0090019AF0900143E02401FFE433FE900141
:10190E009AE0FDC39FEE6480F8748098502474436F
:10191E002DF582E43401F583E0FF90019BE0244233
:10192E00F582E43401F583E02FF090019AE004F0A3
:10193E0080C2021B02807C804D805A7B007A007927
:10194E0000E49001A1F07F0780767B007A00790099
:10195E00E49001A1F07F0880677B007A007900E4B3
:10196E009001A1F07F0880587B007A007900E49006
:10197E0001A1F07F0180497B007A007900E490019B
:10198E00A1F07F02803A7B007A007900E49001A1F9
:10199E00F07F05802B7B007A007900E49001A1F0A6
:1019AE007F06801C7B007A007900E49001A1F07F15
:1019BE0003800D7B007A007900E49001A1F07F0492
:1019CE00122A81021C58900228E0FF20E3084408E6
:1019DE00F012000E800A900228E054F7F0123D0A31
:1019EE0090019BE0FF04F074422FF582E43401F580
:1019FE008374F8F090019BE0FF04F074422FF5829F
:101A0E00E43401F583740AF090019BE0FF04F07456
:101A1E00422FF582E43401F5837401F0900228E040
:101A2E0090019B30E312E0FF04F074422FF582E444
:101A3E003401F583E4F08011E0FF04F074422FF5D9
:101A4E0082E43401F5837401F090019BE02442F9A5
:101A5E00E43401FA7B017D08123AA0E490019AF079
:101A6E0090019AE0FFC394085040A3E0FE2442F593
:101A7E0082E43401F583E5822FF582E43583F58324
:101A8E00E06003B4FF1C90019AE0FF74422EF582D1
:101A9E00E43401F583E5822FF582E43583F5837412
:101AAE0020F090019AE004F080B690019BE02408AB
:101ABE00F0E490019AF0900143E02401FFE433FE3C
:101ACE0090019AE0FDC39FEE6480F87480985024D4
:101ADE0074432DF582E43401F583E0FF90019BE021
:101AEE002442F582E43401F583E02FF090019AE070
:101AFE0004F080C290019BE01230D7021C58900275
:101B0E0028E054FBF012000E123C5F021C589000AD
:101B1E00A5E0D394644003021C58E0240AF0E0C30D
:101B2E0094645003021C587464F0021C58900228EE
:101B3E00E04404F0E4FF1231D4021C589000A5E0FA
:101B4E00C3940A5003021C58E024F6F0021C5812EB
:101B5E003714021C58900228E054FBF012000E12AB
:101B6E003BDB021C589000A4E0D394645022E02486
:101B7E000AF0E0C3946440187464F0801312362D9A
:101B8E00021C589000A4E0C3940A4004E024F6F02E
:101B9E009000A4E0FF123B93021C58123F139001D9
:101BAE009BE0FF04F074422FF582E43401F5837458
:101BBE00F8F090019BE0FF04F074422FF582E434BC
:101BCE0001F5837402F090019BE0FF04F074422F44
:101BDE00F582E43401F5837409F0123EF7EF9001BB
:101BEE009B6013E0FF04F074422FF582E43401F59C
:101BFE00837401F08011E0FF04F074422FF582E44B
:101C0E003401F5837402F0E490019AF0900143E000
:101C1E002401FFE433FE90019AE0FDC39FEE648041
:101C2E00F8748098502474432DF582E43401F583C2
:101C3E00E0FF90019BE02442F582E43401F583E05D
:101C4E002FF090019AE004F080C290019BE06003B7
:031C5E001230D76A
:011C61002260
:10359000900152E06031123E93EF24F0601824D085
:1035A000601224207016123E5C123ED0E49001524C
:1035B000F0023B498000123E5C023ED07B017A0162
:1035C00079427D100239537B017A0179537D1012C3
:0F35D0003AD2EF60097B017A0179531214782205
:103002004101AD004101AE004101B2004101B300F6
:103012004201AF00004101B1005001B400000000C4
:0C302200000000000000000000000000A2
:103D5900E49001ADF0A3F09001B2F0FE7FA2FD7BEB
:083D6900017A007900022187B4
:102A810090019E122132E49001ADF0E0FE04F07459
:102A9100B42EF582E43401F5837455F09001ADE074
:102AA100FE04F074B42EF582E43401F58374AAF0C7
:102AB1009001A1E004FE9001ADE0FD04F074B42D9D
:102AC100F582E43401F583EEF09001ADE0FE04F00F
:102AD10074B42EF582E43401F583EFF0E49001B291
:102AE100F09001A1E0FF9001B2E0FEC39F502A9057
:102AF100019E1221128E82758300121D71FE9001BA
:102B0100ADE0FD04F074B42DF582E43401F583EEFB
:102B1100F09001B2E004F080C87B017A0179B4EF52
:102B21002404FD12348E9001ADE0FE04F074B42E45
:102B3100F582E43401F583EFF0E49001B2F0900105
:102B4100A1E02405FFE433FE9001B2E0FDC39FEE56
:102B51006480F8748098501774B42DF582E43401C0
:102B6100F583E0FF123EB89001B2E004F080CF227D
:100026009000A2E07003020C3614F09000A0E024C9
:10003600A0FFE433FEA3E0FBFDC3EF9DFFEE9400BB
:10004600FE7C007DA0121E05EDC3940440D2740010
:100056002BF582E43400F583E064556003020C223C
:100066009000A1E07A002401FFEA33FE7C007DA027
:10007600121E5A74002DF58274003CF583E064AAC2
:100086006003020C22EB2402FFEA33FE7C007DA013
:10009600121E5A74002DF58274003CF583E090011F
:1000A600AEF09000A0E024A0FFE433CFC39BCF9A2C
:1000B600FE7C007DA0121E5A9001AEE02404FFE4EF
:1000C60033FEC3ED9FEE6480F8EC64809850030223
:1000D6000C289000A1E0FF2400F9E43400FA7B012B
:1000E6009001AEE02403FD90019EEFF0A374A0F012
:1000F600123156AB079001AEE0FF9000A1E02FFF52
:10010600E433CF2403CF3400FE7C007DA0121E5AB8
:1001160074002DF58274003CF583E06B6003020CDD
:1001260022E49001ADF0FE7F10FD7B017A01794259
:100136001221879000A1E0FB7A002403FFEA33FE38
:100146007C007DA0121E5A74002DF58274003CF5C9
:1001560083E012215B018F12038E3104683308D2CB
:1001660034054C3506303607143702B43807F841E3
:1001760009B6540AFA570B05620B6A630B90640BB7
:09018600B2650BDE6600000C0CF2
:10018F00E4900196F0A3F0EB240CFFE43AFE7C0020
:10019F007DA0121E5A74002DF58274003CF583E089
:1001AF00FF7E00900196EEF0A3EFF09001B1741076
:1001BF00F0E024FFFDE434FFFCC3EF9DEE9C400311
:1001CF00020C0C900196E07002A3E070239001B234
:1001DF00F09001B1E0FFA3E0FEC39F5013EE75F066
:1001EF0080A4FFAEF0123E7F9001B2E004F080E1F8
:1001FF009000A1E0240DFFE433FE7C007DA0121ED1
:10020F005A74002DF58274003CF583E0540FFF9073
:10021F0001AFE4F0A3EFF0E49001B2F09001AFE092
:10022F00FEA3E0FF7C007D0D121DF3EF240AFFE417
:0D023F003EFE9001B2E0FBC39FEC9E504BD1
:10024C00900196E0FEA3E0FF7D72121DF3EBFD2FF3
:10025C00FFEC3EFEA3F0A3EFF0C006C0079000A198
:10026C00E02404FFE433CF2DCF3CFE7DA0121E5AB8
:10027C0074002DF58274003CF583E0FDD007D006A8
:03028C00123E8996
:10028F009001B2E004F08094900196A3E09001B148
:10029F00F07B017A0179B19001A17401F07F121204
:0202AF002A81A2
:1002B100020C0C9001ADE0FF04F074422FF582E4D2
:1002C1003401F58374F8F09001AEE0FF9001ADE0E8
:1002D100FE04F074422EF582E43401F583EFF090D0
:1002E10001ADE0FF04F074422FF582E43401F5839F
:1002F1007438F0E49001B2F09001AEE014FF900187
:10030100B2E0FEC39F50409000A1E02404FDE4331D
:10031100FCEE7E002DFFEE3CFE7C007DA0121E5AFD
:1003210074002DF58274003CF583E0FF9001ADE08F
:10033100FE04F074422EF582E43401F583EFF0906F
:1003410001B2E004F080B1E49001B2F0900143E029
:100351002401FFE433FE9001B2E0FDC39FEE64800F
:10036100F8748098502474432DF582E43401F583A8
:10037100E0FF9001ADE02442F582E43401F583E031
:100381002FF09001B2E004F080C2020AE69001ADC4
:10039100E0FF04F074422FF582E43401F58374F830
:1003A100F09001AEE0FF9001ADE0FE04F074422E4A
:1003B100F582E43401F583EFF09001ADE0FF04F044
:1003C10074422FF582E43401F5837431F0E4900135
:1003D100B2F09001AEE014FF9001B2E0FEC39F5075
:1003E100409000A1E02404FDE433FCEE7E002DFFEB
:1003F100EE3CFE7C007DA0121E5A74002DF5827425
:10040100003CF583E0FF9001ADE0FE04F074422E64
:10041100F582E43401F583EFF09001B2E004F0805D
:10042100B1E49001B2F0900143E02401FFE433FE16
:100431009001B2E0FDC39FEE6480F874809850246F
:1004410074432DF582E43401F583E0FF9001ADE0C2
:100451002442F582E43401F583E02FF09001B2E00B
:1004610004F080C2020AE6900228E030E003020CA8
:100471000C9001ADE0FF04F074422FF582E43401E9
:10048100F58374F8F09001AEE0FF9001ADE0FE0459
:10049100F074422EF582E43401F583EFF09001AD62
:1004A100E0FF04F074422FF582E43401F5837433E4
:1004B100F0E49001B2F09001AEE014FF9001B2E0DF
:1004C100FEC39F50409000A1E02404FDE433FCEE04
:1004D1007E002DFFEE3CFE7C007DA0121E5A7400B2
:1004E1002DF58274003CF583E0FF9001ADE0FE0440
:1004F100F074422EF582E43401F583EFF09001B2FD
:10050100E004F080B1E49001B2F0900143E02401F5
:10051100FFE433FE9001B2E0FDC39FEE6480F87406
:100521008098502474432DF582E43401F583E0FF73
:100531009001ADE02442F582E43401F583E02FF02F
:100541009001B2E004F080C2020AE6900228E03095
:10055100E003020C0C9001ADE0FF04F074422FF5B2
:1005610082E43401F58374F8F09001AEE0FF90016C
:10057100ADE0FE04F074422EF582E43401F583EF20
:10058100F09001ADE0FF04F074422FF582E43401F4
:10059100F5837435F0E49001B2F09001AEE014FF00
:1005A1009001B2E0FEC39F50409000A1E02404FD01
:1005B100E433FCEE7E002DFFEE3CFE7C007DA012BC
:1005C1001E5A74002DF58274003CF583E0FF900102
:1005D100ADE0FE04F074422EF582E43401F583EFC0
:1005E100F09001B2E004F080B1E49001B2F090012A
:1005F10043E02401FFE433FE9001B2E0FDC39FEE2E
:100601006480F8748098502474432DF582E4340199
:10061100F583E0FF9001ADE02442F582E43401F579
:1006210083E02FF09001B2E004F080C2020AE6906C
:100631000228E030E003020C0C9001ADE0FF04F071
:1006410074422FF582E43401F58374F8F09001AE21
:10065100E0FF9001ADE0FE04F074422EF582E43437
:1006610001F583EFF09001ADE0FF04F074422FF546
:1006710082E43401F5837436F0E49001B2F0900124
:10068100AEE014FF9001B2E0FEC39F50409000A184
:10069100E02404FDE433FCEE7E002DFFEE3CFE7C05
:1006A100007DA0121E5A74002DF58274003CF58362
:1006B100E0FF9001ADE0FE04F074422EF582E434D7
:1006C10001F583EFF09001B2E004F080B1E4900114
:1006D100B2F0900143E02401FFE433FE9001B2E067
:1006E100FDC39FEE6480F8748098502474432DF507
:1006F10082E43401F583E0FF9001ADE02442F5820C
:10070100E43401F583E02FF09001B2E004F080C2FF
:10071100020AE6900228E030E003020C0C9001ADE1
:10072100E0FF04F074422FF582E43401F58374F89C
:10073100F09001AEE0FF9001ADE0FE04F074422EB6
:10074100F582E43401F583EFF09001ADE0FF04F0B0
:1007510074422FF582E43401F5837437F0E490019B
:10076100B2F09001AEE014FF9001B2E0FEC39F50E1
:10077100409000A1E02404FDE433FCEE7E002DFF57
:10078100EE3CFE7C007DA0121E5A74002DF5827491
:10079100003CF583E0FF9001ADE0FE04F074422ED1
:1007A100F582E43401F583EFF09001B2E004F080CA
:1007B100B1E49001B2F0900143E02401FFE433FE83
:1007C1009001B2E0FDC39FEE6480F87480985024DC
:1007D10074432DF582E43401F583E0FF9001ADE02F
:1007E1002442F582E43401F583E02FF09001B2E078
:1007F10004F080C2020AE69001ADE0FF04F0744209
:100801002FF582E43401F58374F8F09001AEE0FF36
:100811009001ADE0FE04F074422EF582E43401F55E
:1008210083EFF09001ADE0FF04F074422FF582E414
:100831003401F5837441F0E49001B2F09001AEE02F
:1008410014FF9001B2E0FEC39F50409000A1E0244C
:1008510004FDE433FCEE7E002DFFEE3CFE7C007DCA
:10086100A0121E5A74002DF58274003CF583E0FF3E
:100871009001ADE0FE04F074422EF582E43401F5FE
:1008810083EFF09001B2E004F080B1E49001B2F0A6
:10089100900143E02401FFE433FE9001B2E0FDC387
:1008A1009FEE6480F8748098502474432DF582E49F
:1008B1003401F583E0FF9001ADE02442F582E43498
:1008C10001F583E02FF09001B2E004F080C2020A4A
:1008D100E6900228E030E003020C0C9001ADE0FF4D
:1008E10004F074422FF582E43401F58374F8F0903A
:1008F10001AEE0FF9001ADE0FE04F074422EF582FE
:10090100E43401F583EFF09001ADE0FF04F07442AF
:100911002FF582E43401F5837434F0E49001B2F0F0
:100921009001AEE014FF9001B2E0FEC39F504090F1
:1009310000A1E02404FDE433FCEE7E002DFFEE3C3B
:10094100FE7C007DA0121E5A74002DF58274003CBD
:10095100F583E0FF9001ADE0FE04F074422EF582D4
:10096100E43401F583EFF09001B2E004F080B1E4EA
:100971009001B2F0900143E02401FFE433FE9001C5
:10098100B2E0FDC39FEE6480F874809850247443F4
:100991002DF582E43401F583E0FF9001ADE02442BE
:1009A100F582E43401F583E02FF09001B2E004F028
:1009B10080C2020AE6900228E0FF20E3084408F022
:1009C10012000E800A900228E054F7F0123D0A90BE
:1009D10001ADE0FF04F074422FF582E43401F583A8
:1009E10074F8F09001ADE0FF04F074422FF582E459
:1009F1003401F583740AF09001ADE0FF04F0744214
:100A01002FF582E43401F5837401F0900228E0901F
:100A110001AD30E312E0FF04F074422FF582E434BB
:100A210001F583E4F08011E0FF04F074422FF582B8
:100A3100E43401F5837401F09001ADE02442F9E45E
:100A41003401FA7B017D08123AA0E49001B2F090E2
:100A510001B2E0FFC3940850429001ADE0FE244290
:100A6100F582E43401F583E5822FF582E43583F5DF
:100A710083E06003B4FF1C9001B2E0FF74422EF5E5
:100A810082E43401F583E5822FF582E43583F58331
:100A91007420F09001B2E004F080B49001ADE02444
:100AA10008F0E49001B2F0900143E02401FFE43347
:100AB100FE9001B2E0FDC39FEE6480F8748098500F
:100AC1002474432DF582E43401F583E0FF9001ADF8
:100AD100E02442F582E43401F583E02FF09001B285
:100AE100E004F080C29001ADE004F07B017A01796D
:100AF10042E0FD1230E1020C0C900228E04404F0C7
:100B0100E4020BD89000A1E0FB7A002404FFEA3351
:100B1100FE7C007DA0121E5A74002DF58274003CEB
:100B2100F583E0FFC007EB2405FFEA33FE7C007D7F
:100B3100A0121E5A74002DF58274003CF583E0FD6D
:100B4100C0059000A1E02406FFE433FE7C007DA0F7
:100B5100121E5A74002DF58274003CF583E0FBD01F
:100B610005D0071238CC020C0C9000A1E02404FF40
:100B7100E433FE7C007DA0121E5A74002DF58274B0
:100B8100003CF583E0FF9000A4F0123B93807C9041
:100B910000A1E02404FFE433FE7C007DA0121E5A74
:100BA10074002DF58274003CF583E09000A5F0807F
:100BB1005A900228E054FBF012000E9000A1E024AC
:100BC10004FFE433FE7C007DA0121E5A74002DF553
:0D0BD1008274003CF583E0FF1231D4802EC9
:100BDE009000A1E02404FFE433FE7C007DA0121EF1
:100BEE005A74002DF58274003CF583E0900196F066
:0E0BFE00E0FFC4540F7007EF540FFF123E9D2E
:100C0C009001AEE02404FF9000A1E02FF0E075F01D
:100C1C00A084E5F0F0229000A1E004F09000A1E0A7
:0B0C2C0075F0A084E5F0F00200262225
:10348E009001A2122132AE05E4900229F0AF061E81
:10349E00EF6040900229E0FF9001A2E475F0011266
:1034AE00211B121D586F900229F0E4A3F090022AFE
:1034BE00E0C3940850D7900229E030E007C31364AC
:1034CE008CF08007900229E0C313F090022AE004EA
:0934DE00F080DA900229E0FF22DF
:1031560090019A122132AE05E4900229F0AF061EC4
:10316600EF6065900229E0FF90019AE475F0011284
:10317600211B121D586F900229F090019EE004F069
:10318600A3E0FF90019EE0C39F4012E4F0EFFDE450
:103196009DFDE4940090019B8DF0121E90E4900238
:1031A6002AF090022AE0C3940850B2900229E03037
:1031B600E007C313648CF08007900229E0C313F084
:0E31C60090022AE004F080DA900229E0FF2255
:103C4100FFFFFF00FF000000FFFF000000FFFFFF7C
:0E3C510000FFFFFF0000FF800080FFFF8000EB
:10302E004100A3004100AC004101250044012600EF
:03303E000000008F
:102F3300E4900196F0A3F07410F0E49000A3F090F5
:102F43000196F0900197E0FF900196E0FEC39F5039
:102F530022EE75F072A42400FFE5F03440FE123F28
:102F630009EFF4600E9000A3E004F0900196E004F2
:102F7300F080D09000AC7409F07E007F067D007B6A
:102F8300017A01791F1221877E007F017D007B0179
:102F93007A0179371221877E007F727D007B017A67
:102FA3000079AD1221877E007F087D007B017A00C6
:102FB30079A41221879000A47464F0A37432F00200
:022FC3003D0AC5
:10362D009000ACE0600414F080069000AC7409F0DA
:10363D009000ACE0FE75F003A42441F582E4343C27
:10364D00F583E493FFEE75F003A42442F582E43490
:10365D003CF583E493FD9000ACE075F003A42443A6
:0D366D00F582E4343CF583E493FB0238CC95
:103714009000ACE004F0E0C3940A4002E4F09000AE
:10372400ACE0FE75F003A42441F582E4343CF58357
:10373400E493FFEE75F003A42442F582E4343CF5EF
:1037440083E493FD9000ACE075F003A42443F58278
:0B375400E4343CF583E493FB0238CC26
:103BDB00900137E0600414F080119000A3E06004C2
:103BEB0014FF80027F00900137EFF0900137E0FF68
:033BFB000231D4C0
:103C5F00900137E004F09000A3E0FF900137E0C33C
:0D3C6F009F4002E4F0900137E0FF0231D4E5
:103AA00090019D122132EDD39408400C7B007A00E6
:103AB000790090019D022132AF057E0090019D1298
:103AC0002112A801AC02AD037B017A0079AD121D71
:023AD0003222A0
:10000E009000AC7409F0900228E04408F09001379B
:05001E00E0FF0231D4F7
:103D0A00900228E054F7F0E4900131F0900135F088
:0B3D1A00A3F0FBFAFDFCFFFE022B7182
:1033DA0090019BEFF02401FFE433FE9000B6E05425
:1033EA000FB50714E4B5061090019BF0E075F00DD7
:1033FA00A424B7F97400800D90019BE075F00DA428
:10340A0024C4F9740035F0FA7B01782A7C017D0125
:10341A007E007F0D121D3278387C017D017B017A96
:0A342A000079AD7E007F0A021D321A
:1031D40090019DEFF0E490011FF0A31220D80000AD
:1031E4000000E4900124F09000A3E07009FBFAFDD4
:1031F400FCFFFE022B719000A3E014FF90019DE000
:10320400FED39F9001374008EFF090019DF08002BB
:10321400EEF07B017A0079AD90019DE0FD1234342B
:10322400782A7C017D017B017A0079B77E007F0DCD
:10323400121D3278387C017D017B017A0079AD7EE4
:07324400007F0A121D322277
:1039100090019AEFF0E490011FF0A31220D800006C
:1039200000009001247432F0900228E030E21690FA
:103930000125E004F0E0D394045002800DE49001EE
:1039400025F0023C5FE4900125F090019AE0FF121F
:0339500033DA2245
:1038CC0090019DEFF0A3EDF0A3EBF0123D0A9001F7
:1038DC009DE09000A6F0A3E4F090019EE09000A87B
:1038EC00F0A3E4F090019FE07F009000AAF0FAA30F
:1038FC00EFF0FB9000A6E0FEA3E0FFA3E0FCA3E04A
:04390C00FD022B711C
:100C3700900228E020E303021477900124E0600388
:100C470014F022900131E0700D900135E07002A39D
:100C5700E0700302147790012AE0540F24FC70031C
:100C67000210051470030211F324026003021477C3
:100C77009001201220B4EF2401FFE43EFEE43DFD85
:100C8700E43CFC9001201220CC90012EE0FF900163
:100C97002BE0FEC39F5064EEFDC3EF9DFFE494007D
:100CA700FE123E68EE3395E0FDFCC004C005C006A9
:100CB700C007E4FF7E01FDFC9001201220C0121F37
:100CC70073D003D002D001D000121F73C006C00733
:100CD700900132E0FEA3E0FBAA06E4F9F8D007D0C2
:100CE70006121FFEA804A905AA06AB0790012BE070
:100CF7007F00FEE4FCFD121F58806890012BE0FF87
:100D070090012EE0C39FFFE49400FE123E68EE338D
:100D170095E0FDFCC004C005C006C007E4FF7E01E6
:100D2700FDFC9001201220C0121F73D003D002D007
:100D370001D000121F73C006C007900132E0FEA366
:100D4700E0FBAA06E4F9F8D007D006121FFEA804B4
:100D5700A905AA06AB0790012BE07F00FEE4FCFD86
:100D6700121F659001261220CC900134E0FFE4FCAD
:100D7700FDFE9001261220C0121F73E47B64FAF96E
:100D8700F8121FFE9001261220CC9001261220B4E3
:100D97009000A6EEF0A3EFF090012FE0FF90012C5A
:100DA700E0FEC39F5064EEFDC3EF9DFFE49400FE99
:100DB700123E68EE3395E0FDFCC004C005C006C0D6
:100DC70007E4FF7E01FDFC9001201220C0121F7373
:100DD700D003D002D001D000121F73C006C0079005
:100DE7000132E0FEA3E0FBAA06E4F9F8D007D0063B
:100DF700121FFEA804A905AA06AB0790012CE07FE5
:100E070000FEE4FCFD121F58806890012CE0FF9063
:100E1700012FE0C39FFFE49400FE123E68EE339576
:100E2700E0FDFCC004C005C006C007E4FF7E01FD6D
:100E3700FC9001201220C0121F73D003D002D001F2
:100E4700D000121F73C006C007900132E0FEA3E076
:100E5700FBAA06E4F9F8D007D006121FFEA804A9DA
:100E670005AA06AB0790012CE07F00FEE4FCFD120B
:100E77001F659001261220CC900134E0FFE4FCFDB1
:100E8700FE9001261220C0121F73E47B64FAF9F862
:100E9700121FFE9001261220CC9001261220B4903A
:100EA70000A8EEF0A3EFF0900130E0FF90012DE0F5
:100EB700FEC39F5064EEFDC3EF9DFFE49400FE1256
:100EC7003E68EE3395E0FDFCC004C005C006C007D0
:100ED700E4FF7E01FDFC9001201220C0121F73D099
:100EE70003D002D001D000121F73C006C0079001C3
:100EF70032E0FEA3E0FBAA06E4F9F8D007D0061219
:100F07001FFEA804A905AA06AB0790012DE07F00E4
:100F1700FEE4FCFD121F58806890012DE0FF900150
:100F270030E0C39FFFE49400FE123E68EE3395E085
:100F3700FDFCC004C005C006C007E4FF7E01FDFC40
:100F47009001201220C0121F73D003D002D001D00D
:100F570000121F73C006C007900132E0FEA3E0FB3A
:100F6700AA06E4F9F8D007D006121FFEA804A905BF
:100F7700AA06AB0790012DE07F00FEE4FCFD121FDF
:100F8700659001261220CC900134E0FFE4FCFDFEC1
:100F97009001261220C0121F73E47B64FAF9F8123D
:100FA7001FFE9001261220CC9001261220B490003B
:100FB700AAEEF0FAA3EFF0FB9000A6E0FEA3E0FF95
:100FC700A3E0FCA3E0FD122B71900132E0FEA3E049
:100FD700FFE4FCFD9001201220C0C31220904012B4
:100FE7009001201220D800000000900131E060023B
:100FF70014F0900131E0600302147702146C900141
:101007001FE07012A31220B4EF2401FFE43EFEE4B8
:101017003DFDE43C80219001201220B4EC4D4E4F61
:10102700601C9001201220B4EF24FFFFEE34FFFE76
:10103700ED34FFFDEC34FFFC9001201220CCE47F5F
:10104700FFFEFDFC9001201220C0121F73A804A907
:1010570005AA06AB0790012BE0FFE4FCFDFE121F7B
:1010670073C006C007900132E0FEA3E0FBAA06E4C6
:10107700F9F8D007D006121FFE9001261220CC9057
:101087000134E0FFE4FCFDFE9001261220C0121F90
:1010970073E47B64FAF9F8121FFE9001261220CC44
:1010A7009001261220B49000A6EEF0A3EFF0E47FA3
:1010B700FFFEFDFC9001201220C0121F73A804A997
:1010C70005AA06AB0790012CE0FFE4FCFDFE121F0A
:1010D70073C006C007900132E0FEA3E0FBAA06E456
:1010E700F9F8D007D006121FFE9001261220CC90E7
:1010F7000134E0FFE4FCFDFE9001261220C0121F20
:1011070073E47B64FAF9F8121FFE9001261220CCD3
:101117009001261220B49000A8EEF0A3EFF0E47F30
:10112700FFFEFDFC9001201220C0121F73A804A926
:1011370005AA06AB0790012DE0FFE4FCFDFE121F98
:1011470073C006C007900132E0FEA3E0FBAA06E4E5
:10115700F9F8D007D006121FFE9001261220CC9076
:101167000134E0FFE4FCFDFE9001261220C0121FAF
:1011770073E47B64FAF9F8121FFE9001261220CC63
:101187009001261220B49000AAEEF0FAA3EFF0FB2C
:101197009000A6E0FEA3E0FFA3E0FCA3E0FD122B76
:1011A70071900132E0FEA3E0FFE4FCFD9001201204
:1011B70020C0C31220905011E4FFFEFDFC900120D7
:1011C7001220C0C3122090701790011FE070040412
:1011D700F0800DE490011FF0900131E0600214F0FF
:0C11E700900131E0600302147702146CE8
:1011F3009001961220D8000000FFE4FFFEFDFC9052
:1012030001201220C0C312209060030212ED90014E
:101213002BE0FFE4FCFDFE9001961220C0121F7329
:10122300A804A905AA06AB07900134E0FFE4FCFD7E
:10123300FE121F73E47B64FAF9F8121FFE90012675
:101243001220CC9001261220B49000A6EEF0A3EF5A
:10125300F090012CE0FFE4FCFDFE9001961220C00B
:10126300121F73A804A905AA06AB07900134E0FF77
:10127300E4FCFDFE121F73E47B64FAF9F8121FFE0F
:101283009001261220CC9001261220B49000A8EEE3
:10129300F0A3EFF090012DE0FFE4FCFDFE9001963A
:1012A3001220C0121F73A804A905AA06AB07900158
:1012B30034E0FFE4FCFDFE121F73E47B64FAF9F8EB
:1012C300121FFE9001261220CC9001261220B4900A
:1012D30000AAEEF0FAA3EFF0FB9000A6E0FEA3E075
:1012E300FFA3E0FCA3E0FD122B71900132E0FEA30B
:1012F300E0FFE4FCFD9001261220CC900126122091
:10130300B49001201220C0C312209060030213EF97
:1013130090012EE0FFE4FCFDFE9001961220C01226
:101323001F73A804A905AA06AB07900134E0FFE4E4
:10133300FCFDFE121F73E47B64FAF9F8121FFE90A2
:1013430001261220CC9001261220B49000A6EEF0C4
:10135300A3EFF090012FE0FFE4FCFDFE9001961255
:1013630020C0121F73A804A905AA06AB0790013475
:10137300E0FFE4FCFDFE121F73E47B64FAF9F8124C
:101383001FFE9001261220CC9001261220B490005B
:10139300A8EEF0A3EFF0900130E0FFE4FCFDFE9037
:1013A30001961220C0121F73A804A905AA06AB0751
:1013B300900134E0FFE4FCFDFE121F73E47B64FA4A
:1013C300F9F8121FFE9001261220CC90012612205C
:1013D300B49000AAEEF0FAA3EFF0FB9000A6E0FEB3
:1013E300A3E0FFA3E0FCA3E0FD122B719001201208
:1013F30020B4EF2401FFE43EFEE43DFDE43CFC9019
:1014030001201220CC9001261220D8000000009069
:101413000132E0FEA3E0FFE4FCFD9001261220C0B0
:10142300121F58A804A905AA06AB07900135E0FED0
:10143300A3E0FFE4FCFD121F589001261220CC907C
:1014430001261220B49001201220C0C31220904024
:10145300129001201220D800000000900131E060BA
:101463000214F0900131E0700B90012AE0C4540F94
:04147300FF1239101B
:011477002252
:013F1A002284
:0B34340090019E1221329001A1EDF0EA
:10343F00E4A3F0AF05EFC39410E49001A2F0900164
:10344F00A2E0FDC3947250369001A1E075F072A412
:10345F002400FFE5F03440FE7C00EF2DFFEC3EFE34
:10346F0012000390019E1221129001A2E0F58275C5
:0E347F008300EF121DD19001A2E004F080C086
:01348D00221C
:0A3E7F00E42FFFEE3440FE02388706
:0A3E8900E42FFFEE3440FE02324B3E
:103DE700E42FFFEE3440FE9001FAE0900200F0026B
:023DF7002DF8A5
:043F0900120003227D
:013F1B002283
:013F1C002282
:103D7100123DAE123EA7123EFD12353E123C2112FB
:053D81003C7CD2AF22E2
:043041004100A200A8
:103C7C00E49000A2F0FE7FA2FD7B017A0079001295
:0D3C8C0021877F007E4B7D007C000232B856
:0300230002384060
:10384000C0E0C083C082C0D075D000C007309827C8
:10385000C2989000A0E0FF04F074002FF582E434D9
:1038600000F583E599F09000A0E0C394A04002E445
:10387000F09000A2E004F0309902C299D007D0D0B5
:07388000D082D083D0E032BA
:083045004101F3004101F40018
:103C2100123CB65389F0438901538EF79001F37426
:103C3100FAF0A374C4F0758CFAF58AD2A9D28C2259
:103CB600E49001EAF09001ECF09001F0F0A3F090AE
:0C3CC60001EBF09001EDF09001F2F02213
:03000B000230566A
:10305600C0E0C0F0C083C082C0D075D000C000C040
:10306600069001F3E0F58CA3E0F58A9001E974017E
:10307600F0A3E004F0C3940A4005E4F0A304F09042
:1030860001ECE004F0C394644005E4F0A304F0907E
:1030960001EEE004F0C394F4748094814005E4F0FA
:1030A600A304F09001F0E475F001121E90FEC3E552
:1030B600F094E8EE9403400A9001F0E4F0A3F0A344
:1030C60004F0D006D000D0D0D082D083D0F0D0E0AB
:0130D60032C7
:103B6F000A6D679C46F6375D4521EFAC5A50010B45
:103B7F00DF020A6D679C46F6375D4521EFAC5A5060
:043B8F00E10BDF0265
:08304D00450201CCCCCCCCCC37
:103DAE0053B3FE43B40153B3FD43B40253B1FE43C8
:033DBE00B201222D
:013F1D002281
:103C9900E4FEC290EF30E704D2808002C280EF25B3
:0C3CA900E0FFD290000EEEB408E8C290DC
:013CB50022EC
:043DC100E4FD7FFCA2
:0F3DC500C29100123C99AF05123C9900D2912295
:0A39CD007B019001AC7405F07F3F10
:0639D7009001A91221324B
:1039DD00C291E4FD123C999001ACE0FFEDC39F5004
:1039ED00159001A91221128D82758300121D71FF90
:0839FD00123C990D80E1D2910A
:013A0500229E
:103BFE00E4FEC290EF30E704D2808002C280EF254F
:103C0E00E0FFD290000EEEB408E843B10153B2FECD
:023C1E00C29052
:013C20002281
:103D4000E4FFFEC290EF25E0FFD2903080034401F3
:083D5000FF0EEEB408EDC29075
:013D58002248
:103DD400C29100123BFE123D4053B1FE43B20100BA
:023DE400D2917A
:013DE60022BA
:063A06009001971221322D
:103A0C00C291123BFEE4FD90019AE0FFEDC39F5082
:103A1C0015123D409001971221128D82758300EF93
:0E3A2C00121DD10D80E153B1FE43B201D291C3
:013A3A002269
:0E3E2600123DC17D8E7F20123DC5000000229E
:103B4900E4FEFD7FFC123DC57D8F7F20123DC5E45B
:103B5900FD7FFD123DC5E4FEFF000FBF00010EBE53
:053B690013F7BF88F412
:013B6E002234
:0A3E93007F07123DD4EF5470FF22A8
:063EF1007F09123DD422FE
:073ED0007D707F27023DC554
:0C3E5C00E4FD7FE1123DC57FE2023DC5A0
:0E3E3400AC07123DC1AF04AD077F25023DC5AE
:06395300123E93EF7038F4
:10395900900196F0A3F09001ACEDF07FA01239D759
:10396900E4FD7FFD123DC5E4900196F0A3F00090BF
:103979000196E475F001121E90900196E07004A37F
:08398900E064C870E9123DC1C1
:013991002213
:103AD200AC05123E93EF30E61D123DC190019AEC07
:103AE200F07F61123A06123E5C123ED0E4FD7FFD89
:093AF200123DC57F01227F002274
:1028410078967C017D017BFF7A3B796F7E007F0565
:10285100121D32789B7C017D017BFF7A3B79747E6E
:10286100007F03121D32789E7C017D017BFF7A3B44
:1028710079777E007F06121D3278A47C017D017B71
:10288100FF7A3B797D7E007F01121D3278A57C01A4
:102891007D017BFF7A3B797E7E007F03121D321220
:1028A1003F1D7D5A7F53123DC57DA57F53123DC506
:1028B1007D207F3D123DC5123DC17FE1123DC57FA7
:1028C100E2123DC57D707F27123DC57D017F221239
:1028D1003DC57D037F23123DC57D4E7F25123DC53C
:1028E1007D107F31123DC57B017A0279019001ACE7
:1028F1007405F07F301239D77B017A02790190019A
:10290100AC7405F07F2A1239D77A0179961239CD44
:102911007B017A01799E9001AC7406F07F3A1239FD
:10292100D77B017A0179A49001AC7401F07F39124F
:1029310039D77B017A01799B9001AC7403F07F3E1A
:102941001239D77B017A0179A59001AC7403F07F2C
:102951003B1239D7E4FD7F3C123DC57D3F7F2612F6
:0E2961003DC5E4FD7F24123DC57F21023DC52A
:052C60009001C4EFF03B
:102C6500E478C57C017D017BFF7A3B7981FE7F0598
:102C7500121D3278CA7C017D017BFF7A3B79867E05
:102C8500007F03121D3278CD7C017D017BFF7A3BED
:102C950079897E007F06121D3278D37C017D017B08
:102CA500FF7A3B798F7E007F01121D3278D47C013B
:102CB5007D017BFF7A3B79907E007F03121D327D7B
:102CC5005A7F53123DC57DA57F53123DC57D207F9B
:102CD5003D123DC5123DC1E4FF000000000FEFB4F9
:102CE500DCF79001C4E0FD7F25123DC57D3F7F26C1
:102CF500123DC57A0179C51239CD7B017A0179CDAD
:102D05009001AC7406F07F3A1239D77B017A0179CC
:102D1500D39001AC7401F07F391239D77B017A0168
:102D250079CA9001AC7403F07F3E1239D77B017AE2
:0E2D35000179D49001AC7403F07F3B0239D7D2
:10353E0053B1F743B20853B1EF43B21053B3FB4349
:10354E00B40443DE01A2AF9209C2AF75C7AA75C714
:10355E005543910143C60875C7AA75C7555391FEC9
:10356E00A20992AF43DE2053DF3F43DF0153DFF961
:10357E0075D1FF75D9FFD2DFE4FBFAFDFCFFFE0229
:02358E002B719F
:103A3B00AD07AC06A2AF9209C2AF75C7AA75C75541
:103A4B00439101A20992AFECF5C5EDF5CDA2AF9272
:103A5B0009C2AF75C7AA75C7555391FEA20992AF9C
:033A6B00D2DE2286
:0D3E4200AD07AC06ECF5D5EDF5DDD2DE22C6
:0D3E4F00AD07AC06ECF5D2EDF5DAD2DE22BF
:102B71009001A0EEF0A3EFF0A3ECF0A3EDF0A3EA37
:042B8100F0A3EBF0E2
:102B8500A31220D8000000009001A0E0FEA3E0FF02
:102B9500E4FCFD9001A61220CC9001A61220C09065
:102BA50000A4E0FFE4FCFDFE121F739001A61220B5
:102BB500CC9001A61220B4E47B64FAF9F8121FFE4A
:102BC5009001A61220CC9001A61220B4123A3B9097
:102BD50001A2E0FEA3E0FFE4FCFD9001A61220CCDB
:102BE5009001A61220C09000A4E0FFE4FCFDFE12B7
:102BF5001F739001A61220CC9001A61220B4E47B8D
:102C050064FAF9F8121FFE9001A61220CC9001A6D5
:102C15001220B4123E429001A4E0FEA3E0FFE4FCC2
:102C2500FDA31220CC9001A61220C09000A4E0FFC5
:102C3500E4FCFDFE121F739001A61220CC9001A6A4
:102C45001220B4E47B64FAF9F8121FFE9001A61273
:0B2C550020CC9001A61220B4023E4FDC
:103B93009000A4EFF0C3940A5003740AF09000A6B7
:103BA300E0FEA3E0FFA3E0FCA3E0FDA3E0FAA3E0B3
:043BB300FB022B7175
:093EA70053B3EF43B410023F10C5
:033F0D00D2942229
:033F1000C2942236
:033F1300B2942243
:063EF700A294E433FF2257
:0A3E9D00EF6003023F0D123F1022F8
:013F1E002280
:10324B00EFF5A6EEF5A7A2AF9209C2AF75C7AA75A7
:10325B00C755439F01A20992AFA2AF9209C2AF75A6
:10326B00C7AA75C75543A501A20992AF75AF21AF88
:10327B00058FAEA2AF9209C2AF75C7AA75C75543EA
:10328B00A401A20992AFA2AF9209C2AF75C7AA75EA
:10329B00C75553A5FEA20992AFA2AF9209C2AF7553
:0D32AB00C7AA75C755539FFEA20992AF2216
:103887008FA6EEF5A775AEFFA2AF9209C2AF75C7B7
:10389700AA75C755439F01A20992AFA2AF9209C269
:1038A700AF75C7AA75C75543A501A20992AF75AFF2
:1038B70022A2AF9209C2AF75C7AA75C75543A40123
:0538C700A20992AF22EE
:0C2DF8009001FBEEF0A3EFF0A3122132DB
:102E04009001FBE0FEA3E0F5A6EEF5A7A2AF9209C0
:102E1400C2AF75C7AA75C755439F01A20992AFA255
:102E2400AF9209C2AF75C7AA75C75543A501A209D8
:102E340092AF75AF21E4FEFF900200E0FDC3EF9D69
:102E4400EE940050299001FD1221128F828E83127C
:102E54001D71F5AEA2AF9209C2AF75C7AA75C75569
:102E640043A401A20992AF0FBF00010E80CAA2AF12
:102E74009209C2AF75C7AA75C75553A5FEA2099298
:102E8400AFA2AF9209C2AF75C7AA75C755539FFECB
:042E9400A20992AF4E
:012E98002217
:040003008F828E83D7
:03000700E493FF80
:01000A0022D3
:073ED700A2B0B3E433FF22A7
:073EDE00A297B3E433FF22B9
:063EFD001234E7023DF95A
:103D9A007843E62438F8A607784306E6C3940A402F
:043DAA0002E4F62217
:103CD2007842E6FE08667002FF2274382EF8E6FF8C
:0B3CE200784206E6C3940A4002E4F6B4
:013CED0022B4
:103CEE007844E6FE18667002FF2274382EF8E6FF5E
:0B3CFE00784406E6C3940A4002E4F696
:013D09002297
:0B3E7400EF75F00BA4242AF8E6FF22F3
:103BB700EF75F00BA42428F8A60408A605AE03EFBA
:103BC70075F00BA4242BF8A606EF75F00BA4242C94
:043BD700F8E4F622F6
:063F03007843E618F622E7
:103DF90053ACFE53ADFE53B37F53B37FD2B0D297CA
:013E09002296
:1034E700E47842F608F608F6FFEF75F00BA42428F7
:1034F700F87600087664EF75F00BA42425F87602B9
:10350700EF75F00BA4242AF8E4F6EF75F00BA4246A
:103517002BF8E4F6EF75F00BA4242CF8E4F60FEF84
:10352700B402C67BFF7A3E79D778221221097A3E08
:0735370079DE782D02210965
:10270400900197EFF0E075F00BA42422F9E4FAFBB2
:1027140090022212213212213B122181EF70030216
:1027240027E3900222122112900003121D71FFC3AD
:1027340094055008900003740502283DEFC3940AE1
:1027440050089000037401021D9E900008121D7130
:10275400701490000804121DD1900197E075F003E5
:10276400A404FF123D9A9002221221129000061234
:102774001EA6FFAEF0D39400EE940050030228404E
:10278400900004121EA6C39FE5F09E5023900004FF
:10279400E475F001121EDEFCE5F06F7002EC6E6071
:1027A40003022840900197E075F003A42403802BD2
:1027B400900009121D71FFD3940050030228409029
:1027C400000A7401121D9EC39F407190000AE41216
:1027D4001DD1900197E075F003A404FF023D9A9087
:1027E4000222122112900003121D71FFD39405409E
:1027F4000A9000037405121DD1802BEF600A90002B
:102804000374FF121D9E801E900008121D71B401F6
:1028140015900008E4121DD1900197E075F003A40F
:102824002402FF123D9A900222122112900004E425
:0D283400F5F0121F2B90000AE4121DD122B6
:103D2500E4900196F0900196E0FFC39402500B12C7
:0A3D35002704900196E004F080EBF3
:013D3F002261
:1039920053B1BF53B2BF53B17F53B27F75985043F7
:1039A2008920438780438E1053C4DFAB07AA06A940
:1039B20005A8047F407E427D0F7C00121FFEEF04AB
:0B39C200F404F58DD28ED299D2AC2215
:1032B8009001961220CC53B1BF53B2BF53B17F5384
:1032C800B27F75985043878053C4F843C420900157
:1032D800961220C07F407E427D0F7C00121FFEC3E5
:1032E80074FF9FFF74FF9EFEE49DFDE49CFC78083C
:1032F8001220A18FC69001961220C07F407E427D89
:103308000F7C00121FFEC374FF9FFF8FC543C408C4
:05331800D299D2AC22A5
:073EB0003098FDAF99C298A4
:013EB70022E8
:083EB800C2998F993099FD2297
:10337C009002061220CC53B1FB53B2FB53B3BF5394
:10338C00B4BF75F85075C40853C4DF900206122000
:10339C00C07F407E427D0F7C00121FFEC374FF9FD6
:1033AC00FF74FF9EFEE49DFDE49CFC78081220A1B6
:1033BC008FC69002061220C07F407E427D0F7C009B
:0E33CC00121FFEC374FF9FFF8FC543C408226B
:073EC00030F8FDAF9AC2F8D3
:013EC70022D8
:083EC800C2F98F9A30F9FD22C6
:10375F0090020A1220CC538EF7438901D28CE4FFDA
:10376F00FEFDFC90020A1220C0C312209060297542
:10377F008A7E758CFF308DFDC28D90020A1220B4A7
:10378F00EF24FFFFEE34FFFEED34FFFDEC34FFFCC2
:0B379F0090020A1220CC80C6C28C22CF
:1037AA0090020E1220CC538EF7438901D28CE4FF8B
:1037BA00FEFDFC90020E1220C0C3122090602975F3
:1037CA008ACA758CFA308DFDC28D90020E1220B411
:1037DA00EF24FFFFEE34FFFEED34FFFDEC34FFFC77
:0B37EA0090020E1220CC80C6C28C2280
:1037F5009002121220CC538EEF438910D28EE4FF33
:10380500FEFDFC9002121220C0C3122090602975A3
:103815008BEA758DCB308FFDC28F9002121220B4CA
:10382500EF24FFFFEE34FFFEED34FFFDEC34FFFC2B
:0B3835009002121220CC80C6C28E222E
:1035DF009002161220CC53C9BF53C9DF43C910D272
:1035EF00CAE4FFFEFDFC9002161220C0C312209009
:1035FF00602975CC3075CDF830CFFDC2CF90021653
:10360F001220B4EF24FFFFEE34FFFEED34FFFDEC8C
:0E361F0034FFFC9002161220CC80C6C2CA22D4
:10367A0090021A1220CC75C40743C408E4FFFEFD69
:10368A00FC90021A1220C0C3122090602C75C52C1F
:10369A0075C6CFE5C430E4FB53C4EF90021A12207A
:1036AA00B4EF24FFFFEE34FFFEED34FFFDEC34FFF0
:0D36BA00FC90021A1220CC80C353C4F722EA
:1036C70090021E1220CC75C40743C408E4FFFEFD18
:1036D700FC90021E1220C0C3122090602C75C5D822
:1036E70075C6FFE5C430E4FB53C4EF90021E1220F9
:1036F700B4EF24FFFFEE34FFFEED34FFFDEC34FFA3
:0D370700FC90021E1220CC80C353C4F72298
:10296F000A3D3D3D3D3D3D3D3D3D3D3D3D3D3D3DBB
:10297F003D3D3D3D3D3D3D3D3D3D3D3D3D3D3D3D78
:10298F003D3D3D3D3D3D3D3D3D3D3D3D3D3D3D3D68
:10299F003D3D3D3D3D3D3D3D3D3D3D3D3D3D3D3D58
:1029AF003D3D3D3D3D000A2A2020436F70797269FD
:1029BF006768742863292032303135204E75766F61
:1029CF00746F6E20546563686E6F6C6F6779204308
:1029DF006F72702E20416C6C20726967687473205F
:1029EF0072657365727665642E2020000A2A202096
:1029FF00436F6E7461637420452D4D61696C3A208D
:102A0F004D6963726F432D38626974406E75766FCE
:102A1F00746F6E2E636F6D202020202020202020C9
:102A2F002020202020202020202020202020202097
:102A3F0020000A2A202044656D6F20566572736945
:102A4F006F6E20203A202532642E2532642E2532D7
:102A5F0064000A2A202046696E6973686564204401
:102A6F00617465203A202532642E2532642E25327A
:022A7F006400F1
:10331D007BFF7A29796F12224E7BFF7A2979B512BC
:10332D00224E7BFF7A2979FB12224E7BFF7A2A7976
:10333D004190016EE4F0A304F0E4A3F0A3F0A3F038
:10334D00A3F012224E7BFF7A2A796190016E7407E9
:10335D00F0A374DFF0A3E4F0A37405F0A3E4F0A3ED
:0F336D00741FF012224E7BFF7A29796F02224ED5
:03000000022E9934
:102E9900787FE4F6D8FD9000007FFF7E03E4F0A37D
:0A2EA900DFFCDEFA758144022EEE14
:102EB300022548E493A3F8E493A34003F68001F2C8
:102EC30008DFF48029E493A3F85407240CC8C33320
:102ED300C4540F4420C8834004F456800146F6DFEF
:102EE300E4800B0102040810204080902FC5E47E8B
:102EF300019360BCA3FF543F30E509541FFEE493E4
:102F0300A360010ECF54C025E060A840B8E493A3AA
:102F1300FAE493A3F8E493A3C8C582C8CAC583CAD5
:102F2300F0A3C8C582C8CAC583CADFE9DEE780BE8D
:01305500007A
:101C6200E709F608DFFA8046E709F208DFFA803E64
:101C720088828C83E709F0A3DFFA8032E309F60851
:101C8200DFFA8078E309F208DFFA807088828C83B9
:101C9200E309F0A3DFFA806489828A83E0A3F6086D
:101CA200DFFA805889828A83E0A3F208DFFA804C47
:101CB20080D280FA80C680D4806980F2803380101E
:101CC20080A680EA809A80A880DA80E280CA803387
:101CD20089828A83ECFAE493A3C8C582C8CCC583FF
:101CE200CCF0A3C8C582C8CCC583CCDFE9DEE780CF
:101CF2000D89828A83E493A3F608DFF9ECFAA9F04E
:101D0200EDFB2289828A83ECFAE0A3C8C582C8CCA3
:101D1200C583CCF0A3C8C582C8CCC583CCDFEADEBC
:101D2200E880DB89828A83E493A3F208DFF980CC1E
:101D320088F0EF60010E4E60C388F0ED2402B40417
:101D42000050B9F582EB2402B4040050AF232345BE
:061D52008223901CB27315
:101D5800BB010689828A83E0225002E722BBFE0289
:091D6800E32289828A83E49322BC
:101D7100BB010CE58229F582E5833AF583E0225027
:101D810006E92582F8E622BBFE06E92582F8E22271
:0D1D9100E58229F582E5833AF583E493228B
:101D9E00BB010FF8E58229F582E5833AF583E02849
:101DAE00F0225009C58229F8E58226F622BBFE09EB
:101DBE00C58229F8E22582F222F8EA2583F583E925
:031DCE0093282235
:101DD100F8BB010DE58229F582E5833AF583E8F048
:101DE100225006E92582C8F622BBFE05E92582C8F4
:021DF100F222DC
:101DF300EF8DF0A4A8F0CF8CF0A428CE8DF0A42E04
:021E0300FE22BD
:101E0500BC000BBE0029EF8DF084FFADF022E4CCC1
:101E1500F875F008EF2FFFEE33FEEC33FCEE9DEC8A
:101E2500984005FCEE9DFE0FD5F0E9E4CEFD22EDD0
:101E3500F8F5F0EE8420D21CFEADF075F008EF2F1A
:101E4500FFED33FD4007985006D5F0F222C398FD0B
:051E55000FD5F0EA22A8
:101E5A00C2D5EC30E709B2D5E4C39DFDE49CFCEEA3
:101E6A0030E715B2D5E4C39FFFE49EFE121E05C3F8
:101E7A00E49DFDE49CFC8003121E0530D507C3E4F3
:061E8A009FFFE49EFE2212
:101E9000C5F0F8A3E028F0C5F0F8E58215827002DD
:061EA0001583E038F0227A
:101EA600BB0110E58229F582E5833AF583E0F5F07A
:101EB600A3E0225009E92582F886F008E622BBFE57
:101EC6000AE92582F8E2F5F008E222E5832AF5839D
:081ED600E993F5F0A3E9932262
:101EDE00BB010DC58229C582C5833AC583021E90FA
:101EEE005011C58229F808E5F026F618F5F0E582BE
:101EFE0036F622BBFE11C58229F808E225F0F5F070
:101F0E00F218E23582F222F8E58229F582E5832A7B
:0D1F1E00F58374019325F0F5F0E49338226B
:101F2B00F8BB0111E58229F582E5833AF583E8F0E8
:101F3B00E5F0A3F0225009E92582C8F608A6F022A5
:0D1F4B00BBFE09E92582C8F2E5F008F2228C
:0D1F5800EF2BFFEE3AFEED39FDEC38FC22D8
:0E1F6500C3EF9BFFEE9AFEED99FDEC98FC2277
:101F7300E88FF0A4CC8BF0A42CFCE98EF0A42CFC0D
:101F83008AF0EDA42CFCEA8EF0A4CDA8F08BF0A48B
:101F93002DCC3825F0FDE98FF0A42CCD35F0FCEBEA
:101FA3008EF0A4FEA9F0EB8FF0A4CFC5F02ECD39AF
:0F1FB300FEE43CFCEAA42DCE35F0FDE43CFC221C
:101FC20075F008758200EF2FFFEE33FECD33CDCCD6
:101FD20033CCC58233C5829BED9AEC99E582984059
:101FE2000CF582EE9BFEED9AFDEC99FC0FD5F0D636
:101FF200E4CEFBE4CDFAE4CCF9A88222B800C1B960
:102002000059BA002DEC8BF084CFCECDFCE5F0CB9D
:10201200F97818EF2FFFEE33FEED33FDEC33FCEBD6
:1020220033FB10D703994004EB99FB0FD8E5E4F991
:10203200FA227818EF2FFFEE33FEED33FDEC33FC7E
:10204200C933C910D7059BE99A4007EC9BFCE99A72
:10205200F90FD8E0E4C9FAE4CCFB2275F010EF2FB7
:10206200FFEE33FEED33FDCC33CCC833C810D707B7
:102072009BEC9AE899400AED9BFDEC9AFCE899F8F2
:0E2082000FD5F0DAE4CDFBE4CCFAE4C8F92285
:10209000EB9FF5F0EA9E42F0E99D42F0E89C45F0A6
:0120A000221D
:1020A100E8600FECC313FCED13FDEE13FEEF13FF1D
:0320B100D8F12241
:0C20B400E0FCA3E0FDA3E0FEA3E0FF229F
:0C20C000E0F8A3E0F9A3E0FAA3E0FB22A3
:0C20CC00ECF0A3EDF0A3EEF0A3EFF02287
:1020D800A8828583F0D083D0821220EF1220EF12DD
:1020E80020EF1220EFE473E493A3C583C5F0C58302
:1020F800C8C582C8F0A3C583C5F0C583C8C582C852
:0121080022B4
:09210900EBF608EAF608E9F622FB
:09211200E0FBA3E0FAA3E0F922CE
:10211B00F8E0FBA3A3E0F925F0F0E582158270024D
:07212B001583E0FA38F022F1
:09213200EBF0A3EAF0A3E9F022AE
:10213B00BB010789828A830221125005E9F802212B
:10214B00C5BBFE05E9F80221CE89828A830221D71D
:10215B00D083D082F8E4937012740193700DA3A313
:10216B0093F8740193F5828883E473740293686027
:06217B00EFA3A3A380DF27
:062181008A838982E473E9
:1021E300E508246EF582E43401F583E005082290C6
:1021F300016B30070390016EE475F00112211B029D
:102203001D582000E97F2ED2008018EF540F249030
:10221300D43440D4FF30040BEF24BFB41A0050036E
:102223002461FFE50960021509050CE50C70020540
:102233000B30070E90016BE475F00112211BEF02C6
:1022430021B3023B227403D2078003E4C207F508DB
:1022530090016B122132E4F509F50BF50CE50960E9
:10226300077F2012222680F5750AFFC201C200C231
:1022730002C203C205C206C2081221F2FF700D306A
:1022830007057F00122237AF0CAE0B22B4255FC2C5
:10229300D5C2041221F2FF24D0B40A00501A75F0FB
:1022A3000A780930D50508B6FF0106C6A426F6202C
:1022B300D5047002D20380D924CFB41A00EF50049E
:1022C300C2E5D204022438D20180C6D20080C0D233
:1022D3000280BCD2D580BAD20580B47F20122226D8
:1022E3002002077401B5090040F11221E3FF122215
:1022F30026022260D208D20680951221E3FB122126
:10230300E3FA1221E3F94A4B700679097A257BFF38
:1023130020022EE509602A7E008E82758300121D3D
:102323007160060EEE650A70F0C2D5EBC0E0EAC03C
:10233300E0E9C0E0EE12247FD0E0F9D0E0FAD0E08B
:10234300FB121D58FF60AAEBC0E0EAC0E0E9C0E061
:10235300122226D0E02401F9D0E03400FAD0E0FBC9
:10236300E50A0460DCD50AD980877BFF7A24797B70
:10237300D202809C791080027908C206C2088008C4
:10238300D2D5790A8004790AC2D5E50A047002F528
:102393000AE4FAFDFEFF1221E3FC7B08200113127D
:1023A30021E3FD7B1030000A1221E3FE1221E3FF3B
:1023B3007B20EC3382D592D55013C3E43000069FC3
:1023C300FFE49EFEE42001039DFDE49CFCE4CBF8C6
:1023D300C201EC700CCFCECDCCE824F8F870F380BA
:1023E30017C3EF33FFEE33FEED33FDEC33FCEB337A
:1023F300FB994002FB0FD8E9EB300105F8D0E0C4AC
:1024030048B201C0E00AEC4D4E4F78207B0070C209
:10241300EAB50A0040BCC0E0122481D0F0D0E0202D
:102423000104C4C0E0C4B201C0F012220FD0F0D541
:10243300F0EB02226012215B22FD5323775822CE58
:102443004C22CA42237B4F23834423834922E34301
:08245300238955236D46236D1A
:10245B0045236D4725295022D22D22D62E22F92B2A
:10246B0022DA2322F72025122A229248000022F199
:10247B003F3F3F00790AA2D5200314300509B9105C
:10248B00020404B9080104A2D5200602500104205D
:10249B0002689202B509005034C0E07F2030031966
:1024AB007F30A20272067205500F1224D8C202C2EC
:1024BB0006C205C2087F30800F300503E9C0E01269
:1024CB002226300503D0E0F9D0E0B509CC30051752
:1024DB007F30B9100C1222267F583004077F78808A
:1024EB0003B908031222263002057F2D0222267F14
:1024FB00202008F87F2B2006F322920280CF286E33
:10250B00756C6C2900D2011221E33001F8C20178FD
:10251B000930D50108F60222922D50434958122159
:10252B00E32403B405004001E49025249312221701
:0D253B00743A122217D203750904022377A7
:0C3E6800EE30E707C3E49FFFE49EFE225B
:10218700EF4E6012EF60010EEDBB010B89828A836F
:10219700F0A3DFFCDEFA2289F05007F709DFFCA97C
:0C21A700F022BBFEFCF309DFFCA9F022D3
:1021B300BB010689828A83F0225002F722BBFE010B
:0221C300F32205
:0921C500E6FB08E6FA08E6F9223F
:0921CE00E2FB08E2FA08E2F92242
:0C21D700E493FB740193FA740293F92264
:103B2200EFB40A07740D123B2D740A309811A8994C
:103B3200B8130CC2983098FDA899C298B811F63003
:073B420099FDC299F59922DB
:00000001FF
