:08309900410229004102280058
:10254E00123EDB124083123C65124080123EC312D3
:10255E00312E9001E9E06060E4F0900229E004F091
:10256E009000A5E0FFC394324027EF24CEFFE43461
:10257E00FFFE7C007D03121E0BEF240AFFE43EFEDD
:10258E00900229E0D39FEE6480F8748098402980F1
:10259E00229000A5E0FFC374329FFFE49400FE7CFE
:1025AE00007D06121E0BC3740A9FFF900229E0D312
:1025BE009F4005E4F0120C3D9001EBE0600BE4F05F
:1025CE00123E8F1200261236FA9001EDE06002E400
:1025DE00F09001EFE06002E4F09001F2E06002E4BE
:0E25EE00F0123E3C900193EFF0700302256066
:1025FC00E024FD70030226DD14700302270424027C
:10260C006003022560900228E060030226D5900248
:08261C0024E020E3030226D5AF
:10262400E4900194F0A3F0123DC9900194E0FF04FA
:10263400F074422FF582E43401F58374F8F09001CC
:1026440094E0FF04F074422FF582E43401F58374BE
:1026540009F0900194E0FF04F074422FF582E43411
:1026640001F5837403F0900194E02442F9E4340109
:10267400FA7B017D08123C0A900194E02408F0E4FE
:10268400A3F0900143E02401FFE433FE900195E0C0
:10269400FDC39FEE6480F8748098502474432DF534
:1026A40082E43401F583E0FF900194E02442F58252
:1026B400E43401F583E02FF0900195E004F080C24A
:1026C400900194E004F07B017A017942E0FD12323A
:0126D4004BBA
:1026D500E4900228F00225609002287401F090022F
:1026E50024E0FF30E30954F7F0123E7402256090B0
:0F26F5000224E04408F054FBF012000E022560AE
:10270400E4900194F0A3F012407D900194E0FF0462
:10271400F074422FF582E43401F58374F8F09001EB
:1027240094E0FF04F074422FF582E43401F58374DD
:1027340002F0900194E0FF04F074422FF582E43437
:1027440001F5837409F0124061EF9001946013E085
:10275400FF04F074422FF582E43401F5837401F030
:102764008011E0FF04F074422FF582E43401F58314
:102774007402F0E4900195F0900143E02401FFE439
:1027840033FE900195E0FDC39FEE6480F874809859
:10279400502474432DF582E43401F583E0FF900165
:1027A40094E02442F582E43401F583E02FF09001B3
:1027B40095E004F080C2900194E004F07B017A017A
:0727C4007942E0FD12324BE7
:0327CB0002256084
:0430A10041022200C6
:01408000221D
:102F6300E490022CF0900222E004F0E0C3940250BB
:102F730003022FFEE4F090022CF0E0FF04F0744211
:102F83002FF582E43401F58374F8F090022CE0FF0E
:102F930004F074422FF582E43401F5837401F09058
:102FA300022CE0FF04F074422FF582E43401F58330
:102FB30074F1F0E4FF900143E02401FDE433FCEFFE
:102FC300C39DEC6480F8748098501F74432FF5827E
:102FD300E43401F583E0FE90022CE02442F582E420
:102FE3003401F583E02EF00F80CB90022CE004F047
:0B2FF3007B017A017942E0FD12324BB5
:012FFE0022B0
:01408100221C
:01408200221B
:06404F009001E30221389C
:064055009001E602213893
:0E3F74009001E3122118E94A6003122187220E
:0E3F82009001E6122118E94A600312218722FD
:103BD800EF4E602D9001D9EEF0A3EFF0AF05A3EC06
:103BE800F0A3EFF0AF03A3EAF0A3EFF0E4A3F0A390
:103BF800F0A3F0A3F09001D8F09001D704F0123FA1
:023C0800742224
:103EF000E49001D7F0123F827B007A0079001240F3
:043F00004F024055D7
:102E0D009001D7E07003022EC19001DBE0FEA3E03C
:102E1D00FF4E7003022EC19001D8E07035D3EF94B0
:102E2D0000EE94005003022EC19001DFE475F00115
:102E3D00121E96FED39001DAE095F09001D9E09E36
:102E4D005072123F82E49001DFF0A3F09001D8049C
:102E5D00F0229001D8E06401705A9001DF75F00105
:102E6D00121E96FED39001DCE095F09001DBE09E02
:102E7D0050429001DDE0FEA3E0FF9400EE9400408F
:102E8D00259001E1E475F001121E96FCD3EF95F04B
:102E9D00EE9C5005E49001D7F09001D7E0700790BB
:102EAD0001DBF0A3F022E49001DFF0A3F09001D854
:052EBD00F0123F742239
:1030A50041015200500153000000000000000000E3
:1030B5000000000000000050014200000000000078
:1030C500000000000000000000004801630000004F
:0530D5000000000000F6
:103C6500E4900152F0FE7F10FD7B017A0179531239
:103C7500218D7E007F107D007B017A017942122122
:073C85008D12290B023CB374
:0A32410004F07B017A017942E0FD00
:0B324B0090019D1221389001A0EDF0D1
:10325600E4FFFE0000000FBF00010EEF64144E7085
:10326600F2123F909001527401F0E4FEFF0000005C
:10327600000FBF00010EEF64C84E70F190019D1261
:10328600211874019001426B7008E965827003EAA7
:10329600658360257E007F107D007B017A0179427F
:1032A60012218D9001A0E0FF7E0078427C017D0115
:0932B60090019D122118121D382F
:0132BF0022EC
:06147E00900196122138D6
:10148400E4900199F0A3F0A3F0A3F0121D5E64F2BE
:101494006003021C67900196122118900001121D2E
:1014A40077D394104003021C67E490019AF09001F2
:1014B40096122118900001121D772401FFE433FED7
:1014C40090019AE0FDC39FEE6480F87480985023E5
:1014D400ED2401FFE433FE9001961221188F828ED1
:1014E40083121D77FF90019CE02FF090019AE00495
:1014F400F080BB900196122118900001121D77F51F
:1015040082758300A3A3121D77FF90019CE06F6096
:1015140003021C677E007F107D007B017A01794203
:1015240012218DE490019BF09001961221189000F5
:1015340002121D77122161159301168B02174403C1
:10154400194904194B05194D06194F07195E081559
:101554009609196D50198B5119A95219B85319DAF2
:10156400541B12551B22561B41571B50581B6359C1
:101574001B695A1B795B1B915C1B975D1BAF5E1942
:101584007C70199A7119497317FDB900001C5E0229
:10159400197C900196122118900003121D77B40152
:1015A40005124077802690019612211890000312AC
:1015B4001D77B4020512407A801290019612211808
:1015C400900003121D77B4030312407D90019BE049
:1015D400FF04F074422FF582E43401F58374F8F0CB
:1015E40090019BE0FF04F074422FF582E43401F58E
:1015F400837402F0900196122118900002121D7754
:10160400FF90019BE0FE04F074422EF582E4340165
:10161400F583EFF0124061EF90019B6013E0FF044B
:10162400F074422FF582E43401F5837401F08011E3
:10163400E0FF04F074422FF582E43401F583740270
:10164400F0E490019AF0900143E02401FFE433FEBA
:1016540090019AE0FDC39FEE6480F8748098400383
:10166400021C5E74432DF582E43401F583E0FF909F
:10167400019BE02442F582E43401F583E02FF090ED
:10168400019AE004F080BF900224E0FF20E003020E
:10169400198B54FBF012000E900224E020E30302A5
:1016A4001C5E123D4590019BE0FF04F074422FF54F
:1016B40082E43401F58374F8F090019BE0FF04F0B8
:1016C40074422FF582E43401F5837409F090019B90
:1016D400E0FF04F074422FF582E43401F5837402D0
:1016E400F090019BE02442F9E43401FA7B017D0887
:1016F400123C0A90019BE02408F0E490019AF090D7
:101704000143E02401FFE433FE90019AE0FDC39F0E
:10171400EE6480F8748098502474432DF582E43488
:1017240001F583E0FF90019BE02442F582E434015B
:10173400F583E02FF090019AE004F080C2021B08C8
:10174400900224E0FF20E0030219B854FBF01200D9
:101754000E900224E020E303021C5E123DC99001B6
:101764009BE0FF04F074422FF582E43401F58374A6
:10177400F8F090019BE0FF04F074422FF582E4340A
:1017840001F5837409F090019BE0FF04F074422F8B
:10179400F582E43401F5837403F090019BE0244264
:1017A400F9E43401FA7B017D08123C0A90019BE0C4
:1017B4002408F0E490019AF0900143E02401FFE44E
:1017C40033FE90019AE0FDC39FEE6480F874809824
:1017D400502474432DF582E43401F583E0FF900135
:1017E4009BE02442F582E43401F583E02FF090017C
:1017F4009AE004F080C2021B08900224E030E00565
:1018040054FEF0800F900224E04401F04408F0E418
:10181400FF12333E90019BE0FF04F074422FF582E7
:10182400E43401F58374F8F090019BE0FF04F07454
:10183400422FF582E43401F583740BF090019BE0B0
:10184400FF04F074422FF582E43401F58374B9F097
:10185400900224E05401FF90019BE0FE04F07442E6
:101864002EF582E43401F583EFF0900224E0900138
:101874009B30E312E0FF04F074422FF582E434015C
:10188400F583E4F08011E0FF04F074422FF582E464
:101894003401F5837401F090019BE02442F9E434AF
:1018A40001FA7B017D08123C0AE490019AF0900150
:1018B4009AE0FFC394085040A3E0FE2442F582E47A
:1018C4003401F583E5822FF582E43583F583E06006
:1018D40003B4FF1C90019AE0FF74422EF582E434B5
:1018E40001F583E5822FF582E43583F5837420F0D6
:1018F40090019AE004F080B690019BE02408F0E4A3
:1019040090019AF0900143E02401FFE433FE90013A
:101914009AE0FDC39FEE6480F87480985024744369
:101924002DF582E43401F583E0FF90019BE024422D
:10193400F582E43401F583E02FF090019AE004F09D
:1019440080C2021B08807C804D805A7B007A00791B
:1019540000E49001A1F07F0780767B007A00790093
:10196400E49001A1F07F0880677B007A007900E4AD
:101974009001A1F07F0880587B007A007900E49000
:1019840001A1F07F0180497B007A007900E4900195
:10199400A1F07F02803A7B007A007900E49001A1F3
:1019A400F07F05802B7B007A007900E49001A1F0A0
:1019B4007F06801C7B007A007900E49001A1F07F0F
:1019C40003800D7B007A007900E49001A1F07F048C
:1019D400122B4B021C5E900224E0FF20E308440813
:1019E400F012000E800A900224E054F7F0123E74C4
:1019F40090019BE0FF04F074422FF582E43401F57A
:101A04008374F8F090019BE0FF04F074422FF58298
:101A1400E43401F583740AF090019BE0FF04F07450
:101A2400422FF582E43401F5837401F0900224E03E
:101A340090019B30E312E0FF04F074422FF582E43E
:101A44003401F583E4F08011E0FF04F074422FF5D3
:101A540082E43401F5837401F090019BE02442F99F
:101A6400E43401FA7B017D08123C0AE490019AF007
:101A740090019AE0FFC394085040A3E0FE2442F58D
:101A840082E43401F583E5822FF582E43583F5831E
:101A9400E06003B4FF1C90019AE0FF74422EF582CB
:101AA400E43401F583E5822FF582E43583F583740C
:101AB40020F090019AE004F080B690019BE02408A5
:101AC400F0E490019AF0900143E02401FFE433FE36
:101AD40090019AE0FDC39FEE6480F87480985024CE
:101AE40074432DF582E43401F583E0FF90019BE01B
:101AF4002442F582E43401F583E02FF090019AE06A
:101B040004F080C290019BE0123241021C5E9002FC
:101B140024E054FBF012000E123DC9021C5E90003A
:101B2400A5E0D394644003021C5EE0240AF0E0C301
:101B340094645003021C5E7464F0021C5E900224E0
:101B4400E04404F0E4FF12333E021C5E9000A5E082
:101B5400C3940A5003021C5EE024F6F0021C5E12D9
:101B6400387E021C5E900224E054FBF012000E1238
:101B74003D45021C5E9000A4E0D394645022E0240E
:101B84000AF0E0C3946440187464F0801312379729
:101B9400021C5E9000A4E0C3940A4004E024F6F022
:101BA4009000A4E0FF123CFD021C5E12407D9001F7
:101BB4009BE0FF04F074422FF582E43401F5837452
:101BC400F8F090019BE0FF04F074422FF582E434B6
:101BD40001F5837402F090019BE0FF04F074422F3E
:101BE400F582E43401F5837409F0124061EF900149
:101BF4009B6013E0FF04F074422FF582E43401F596
:101C0400837401F08011E0FF04F074422FF582E444
:101C14003401F5837402F0E490019AF0900143E0FA
:101C24002401FFE433FE90019AE0FDC39FEE64803B
:101C3400F8748098502474432DF582E43401F583BC
:101C4400E0FF90019BE02442F582E43401F583E057
:101C54002FF090019AE004F080C290019BE06003B1
:031C6400123241F8
:011C6700225A
:1036FA00900152E06031123FFDEF24F0601824D0AF
:10370A00601224207016123FC612403AE490015209
:10371A00F0023CB38000123FC602403A7B017A01B4
:10372A0079427D10023ABD7B017A0179537D1012EC
:0F373A003C3CEF60097B017A01795312147E2227
:1030DA004101AD004101AE004101B2004101B3001E
:1030EA004201AF00004101B1005001B400000000EC
:0C30FA00000000000000000000000000CA
:103EC300E49001ADF0A3F09001B2F0FE7FA2FD7B80
:083ED300017A00790002218D43
:102B4B0090019E122138E49001ADF0E0FE04F07488
:102B5B00B42EF582E43401F5837455F09001ADE0A9
:102B6B00FE04F074B42EF582E43401F58374AAF0FC
:102B7B009001A1E004FE9001ADE0FD04F074B42DD2
:102B8B00F582E43401F583EEF09001ADE0FE04F044
:102B9B0074B42EF582E43401F583EFF0E49001B2C6
:102BAB00F09001A1E0FF9001B2E0FEC39F502A908C
:102BBB00019E1221188E82758300121D77FE9001E3
:102BCB00ADE0FD04F074B42DF582E43401F583EE31
:102BDB00F09001B2E004F080C87B017A0179B4EF88
:102BEB002404FD1235F89001ADE0FE04F074B42E10
:102BFB00F582E43401F583EFF0E49001B2F090013B
:102C0B00A1E02405FFE433FE9001B2E0FDC39FEE8B
:102C1B006480F8748098501774B42DF582E43401F5
:102C2B00F583E0FF1240229001B2E004F080CF2246
:100026009000A2E07003020C3C14F09000A0E024C3
:10003600A0FFE433FEA3E0FBFDC3EF9DFFEE9400BB
:10004600FE7C007DA0121E0BEDC3940440D274000A
:100056002BF582E43400F583E064556003020C2836
:100066009000A1E07A002401FFEA33FE7C007DA027
:10007600121E6074002DF58274003CF583E064AABC
:100086006003020C28EB2402FFEA33FE7C007DA00D
:10009600121E6074002DF58274003CF583E0900119
:1000A600AEF09000A0E024A0FFE433CFC39BCF9A2C
:1000B600FE7C007DA0121E609001AEE02404FFE4E9
:1000C60033FEC3ED9FEE6480F8EC64809850030223
:1000D6000C2E9000A1E0FF2400F9E43400FA7B0125
:1000E6009001AEE02403FD90019EEFF0A374A0F012
:1000F6001232C0AB079001AEE0FF9000A1E02FFFE7
:10010600E433CF2403CF3400FE7C007DA0121E60B2
:1001160074002DF58274003CF583E06B6003020CDD
:1001260028E49001ADF0FE7F10FD7B017A01794253
:1001360012218D9000A1E0FB7A002403FFEA33FE32
:100146007C007DA0121E6074002DF58274003CF5C3
:1001560083E0122161018F12039431046E3308D8B3
:1001660034055235063636071A3702BA3807FE41C5
:1001760009BC540B00570B0B620B70630B96640B98
:09018600B8650BE46600000C12E0
:10018F00E4900196F0A3F0EB240CFFE43AFE7C0020
:10019F007DA0121E6074002DF58274003CF583E083
:1001AF00FF7E00900196EEF0A3EFF09001B1741175
:1001BF00F0E024FFFDE434FFFCC3EF9DEE9C400311
:1001CF00020C129001B17410F0900196E07002A32E
:1001DF00E070239001B2F09001B1E0FFA3E0FEC305
:1001EF009F5013EE75F080A4FFAEF0123FE990011F
:1001FF00B2E004F080E19000A1E0240DFFE433FEB3
:10020F007C007DA0121E6074002DF58274003CF5F9
:10021F0083E0540FFF9001AFE4F0A3EFF0E49001FF
:10022F00B2F09001AFE0FEA3E0FF7C007D0D121D48
:10023F00F9EF240AFFE43EFE9001B2E0FBC39FEC0E
:03024F009E504B73
:10025200900196E0FEA3E0FF7D72121DF9EBFD2FE7
:10026200FFEC3EFEA3F0A3EFF0C006C0079000A192
:10027200E02404FFE433CF2DCF3CFE7DA0121E60AC
:1002820074002DF58274003CF583E0FDD007D006A2
:03029200123FF325
:100295009001B2E004F08094900196A3E09001B142
:1002A500F07B017A0179B19001A17401F07F1212FE
:0202B5002B4BD1
:1002B700020C129001ADE0FF04F074422FF582E4C6
:1002C7003401F58374F8F09001AEE0FF9001ADE0E2
:1002D700FE04F074422EF582E43401F583EFF090CA
:1002E70001ADE0FF04F074422FF582E43401F58399
:1002F7007438F0E49001B2F09001AEE014FF900181
:10030700B2E0FEC39F50409000A1E02404FDE43317
:10031700FCEE7E002DFFEE3CFE7C007DA0121E60F1
:1003270074002DF58274003CF583E0FF9001ADE089
:10033700FE04F074422EF582E43401F583EFF09069
:1003470001B2E004F080B1E49001B2F0900143E023
:100357002401FFE433FE9001B2E0FDC39FEE648009
:10036700F8748098502474432DF582E43401F583A2
:10037700E0FF9001ADE02442F582E43401F583E02B
:100387002FF09001B2E004F080C2020AEC9001ADB8
:10039700E0FF04F074422FF582E43401F58374F82A
:1003A700F09001AEE0FF9001ADE0FE04F074422E44
:1003B700F582E43401F583EFF09001ADE0FF04F03E
:1003C70074422FF582E43401F5837431F0E490012F
:1003D700B2F09001AEE014FF9001B2E0FEC39F506F
:1003E700409000A1E02404FDE433FCEE7E002DFFE5
:1003F700EE3CFE7C007DA0121E6074002DF5827419
:10040700003CF583E0FF9001ADE0FE04F074422E5E
:10041700F582E43401F583EFF09001B2E004F08057
:10042700B1E49001B2F0900143E02401FFE433FE10
:100437009001B2E0FDC39FEE6480F8748098502469
:1004470074432DF582E43401F583E0FF9001ADE0BC
:100457002442F582E43401F583E02FF09001B2E005
:1004670004F080C2020AEC900224E030E003020CA0
:10047700129001ADE0FF04F074422FF582E43401DD
:10048700F58374F8F09001AEE0FF9001ADE0FE0453
:10049700F074422EF582E43401F583EFF09001AD5C
:1004A700E0FF04F074422FF582E43401F5837433DE
:1004B700F0E49001B2F09001AEE014FF9001B2E0D9
:1004C700FEC39F50409000A1E02404FDE433FCEEFE
:1004D7007E002DFFEE3CFE7C007DA0121E607400A6
:1004E7002DF58274003CF583E0FF9001ADE0FE043A
:1004F700F074422EF582E43401F583EFF09001B2F7
:10050700E004F080B1E49001B2F0900143E02401EF
:10051700FFE433FE9001B2E0FDC39FEE6480F87400
:100527008098502474432DF582E43401F583E0FF6D
:100537009001ADE02442F582E43401F583E02FF029
:100547009001B2E004F080C2020AEC900224E0308D
:10055700E003020C129001ADE0FF04F074422FF5A6
:1005670082E43401F58374F8F09001AEE0FF900166
:10057700ADE0FE04F074422EF582E43401F583EF1A
:10058700F09001ADE0FF04F074422FF582E43401EE
:10059700F5837435F0E49001B2F09001AEE014FFFA
:1005A7009001B2E0FEC39F50409000A1E02404FDFB
:1005B700E433FCEE7E002DFFEE3CFE7C007DA012B6
:1005C7001E6074002DF58274003CF583E0FF9001F6
:1005D700ADE0FE04F074422EF582E43401F583EFBA
:1005E700F09001B2E004F080B1E49001B2F0900124
:1005F70043E02401FFE433FE9001B2E0FDC39FEE28
:100607006480F8748098502474432DF582E4340193
:10061700F583E0FF9001ADE02442F582E43401F573
:1006270083E02FF09001B2E004F080C2020AEC9060
:100637000224E030E003020C129001ADE0FF04F069
:1006470074422FF582E43401F58374F8F09001AE1B
:10065700E0FF9001ADE0FE04F074422EF582E43431
:1006670001F583EFF09001ADE0FF04F074422FF540
:1006770082E43401F5837436F0E49001B2F090011E
:10068700AEE014FF9001B2E0FEC39F50409000A17E
:10069700E02404FDE433FCEE7E002DFFEE3CFE7CFF
:1006A700007DA0121E6074002DF58274003CF58356
:1006B700E0FF9001ADE0FE04F074422EF582E434D1
:1006C70001F583EFF09001B2E004F080B1E490010E
:1006D700B2F0900143E02401FFE433FE9001B2E061
:1006E700FDC39FEE6480F8748098502474432DF501
:1006F70082E43401F583E0FF9001ADE02442F58206
:10070700E43401F583E02FF09001B2E004F080C2F9
:10071700020AEC900224E030E003020C129001ADD3
:10072700E0FF04F074422FF582E43401F58374F896
:10073700F09001AEE0FF9001ADE0FE04F074422EB0
:10074700F582E43401F583EFF09001ADE0FF04F0AA
:1007570074422FF582E43401F5837437F0E4900195
:10076700B2F09001AEE014FF9001B2E0FEC39F50DB
:10077700409000A1E02404FDE433FCEE7E002DFF51
:10078700EE3CFE7C007DA0121E6074002DF5827485
:10079700003CF583E0FF9001ADE0FE04F074422ECB
:1007A700F582E43401F583EFF09001B2E004F080C4
:1007B700B1E49001B2F0900143E02401FFE433FE7D
:1007C7009001B2E0FDC39FEE6480F87480985024D6
:1007D70074432DF582E43401F583E0FF9001ADE029
:1007E7002442F582E43401F583E02FF09001B2E072
:1007F70004F080C2020AEC9001ADE0FF04F07442FD
:100807002FF582E43401F58374F8F09001AEE0FF30
:100817009001ADE0FE04F074422EF582E43401F558
:1008270083EFF09001ADE0FF04F074422FF582E40E
:100837003401F5837441F0E49001B2F09001AEE029
:1008470014FF9001B2E0FEC39F50409000A1E02446
:1008570004FDE433FCEE7E002DFFEE3CFE7C007DC4
:10086700A0121E6074002DF58274003CF583E0FF32
:100877009001ADE0FE04F074422EF582E43401F5F8
:1008870083EFF09001B2E004F080B1E49001B2F0A0
:10089700900143E02401FFE433FE9001B2E0FDC381
:1008A7009FEE6480F8748098502474432DF582E499
:1008B7003401F583E0FF9001ADE02442F582E43492
:1008C70001F583E02FF09001B2E004F080C2020A44
:1008D700EC900224E030E003020C129001ADE0FF3F
:1008E70004F074422FF582E43401F58374F8F09034
:1008F70001AEE0FF9001ADE0FE04F074422EF582F8
:10090700E43401F583EFF09001ADE0FF04F07442A9
:100917002FF582E43401F5837434F0E49001B2F0EA
:100927009001AEE014FF9001B2E0FEC39F504090EB
:1009370000A1E02404FDE433FCEE7E002DFFEE3C35
:10094700FE7C007DA0121E6074002DF58274003CB1
:10095700F583E0FF9001ADE0FE04F074422EF582CE
:10096700E43401F583EFF09001B2E004F080B1E4E4
:100977009001B2F0900143E02401FFE433FE9001BF
:10098700B2E0FDC39FEE6480F874809850247443EE
:100997002DF582E43401F583E0FF9001ADE02442B8
:1009A700F582E43401F583E02FF09001B2E004F022
:1009B70080C2020AEC900224E0FF20E3084408F01A
:1009C70012000E800A900224E054F7F0123E749051
:1009D70001ADE0FF04F074422FF582E43401F583A2
:1009E70074F8F09001ADE0FF04F074422FF582E453
:1009F7003401F583740AF09001ADE0FF04F074420E
:100A07002FF582E43401F5837401F0900224E0901D
:100A170001AD30E312E0FF04F074422FF582E434B5
:100A270001F583E4F08011E0FF04F074422FF582B2
:100A3700E43401F5837401F09001ADE02442F9E458
:100A47003401FA7B017D08123C0AE49001B2F09070
:100A570001B2E0FFC3940850429001ADE0FE24428A
:100A6700F582E43401F583E5822FF582E43583F5D9
:100A770083E06003B4FF1C9001B2E0FF74422EF5DF
:100A870082E43401F583E5822FF582E43583F5832B
:100A97007420F09001B2E004F080B49001ADE0243E
:100AA70008F0E49001B2F0900143E02401FFE43341
:100AB700FE9001B2E0FDC39FEE6480F87480985009
:100AC7002474432DF582E43401F583E0FF9001ADF2
:100AD700E02442F582E43401F583E02FF09001B27F
:100AE700E004F080C29001ADE004F07B017A017967
:100AF70042E0FD12324B020C12900224E04404F053
:100B0700E4020BDE9000A1E0FB7A002404FFEA3345
:100B1700FE7C007DA0121E6074002DF58274003CDF
:100B2700F583E0FFC007EB2405FFEA33FE7C007D79
:100B3700A0121E6074002DF58274003CF583E0FD61
:100B4700C0059000A1E02406FFE433FE7C007DA0F1
:100B5700121E6074002DF58274003CF583E0FBD013
:100B670005D007123A36020C129000A1E02404FFC8
:100B7700E433FE7C007DA0121E6074002DF58274A4
:100B8700003CF583E0FF9000A4F0123CFD807C90D0
:100B970000A1E02404FFE433FE7C007DA0121E6068
:100BA70074002DF58274003CF583E09000A5F08079
:100BB7005A900224E054FBF04408F09000A1E0248E
:100BC70004FFE433FE7C007DA0121E6074002DF547
:0D0BD7008274003CF583E0FF12333E802E57
:100BE4009000A1E02404FFE433FE7C007DA0121EEB
:100BF4006074002DF58274003CF583E0900196F05A
:0E0C0400E0FFC4540F7007EF540FFF124007BB
:100C12009001AEE02404FF9000A1E02FF0E075F017
:100C2200A084E5F0F0229000A1E004F09000A1E0A1
:0B0C320075F0A084E5F0F0020026221F
:1035F8009001A2122138AE05E490022AF0AF061E0F
:10360800EF604090022AE0FF9001A2E475F00112F9
:103618002121121D5E6F90022AF0E4A3F090022B84
:10362800E0C3940850D790022AE030E007C313643F
:103638008CF0800790022AE0C313F090022BE0047C
:09364800F080DA90022AE0FF2272
:1032C00090019A122138AE05E490022AF0AF061E52
:1032D000EF606590022AE0FF90019AE475F0011218
:1032E0002121121D5E6F90022AF090019EE004F0F1
:1032F000A3E0FF90019EE0C39F4012E4F0EFFDE4E5
:103300009DFDE4940090019B8DF0121E96E49002C6
:103310002BF090022BE0C3940850B290022AE030C8
:10332000E007C313648CF0800790022AE0C313F017
:0E33300090022BE004F080DA90022AE0FF22E7
:103DAB00FFFFFF00FF000000FFFF000000FFFFFF11
:0E3DBB0000FFFFFF0000FF800080FFFF800080
:103106004100A3004100AC00410125004401260016
:03311600000000B6
:10312E00E4900196F0A3F07411F0E49000A3F090F7
:10313E000196F0900197E0FF900196E0FEC39F503C
:10314E0022EE75F072A42400FFE5F03440FE12402A
:10315E0073EFF4600E9000A3E004F0900196E0048B
:10316E00F080D09000AC7409F07E007F067D007B6D
:10317E00017A01791F12218D7E007F017D007B0176
:10318E007A01793712218D7E007F727D007B017A64
:10319E000079AD12218D7E007F087D007B017A00C3
:1031AE0079A412218D9000A47464F0A37432F002FD
:0231BE003E745D
:103797009000ACE0600414F080069000AC7409F06F
:1037A7009000ACE0FE75F003A424ABF582E4343D51
:1037B700F583E493FFEE75F003A424ACF582E434BB
:1037C7003DF583E493FD9000ACE075F003A424ADD0
:0D37D700F582E4343DF583E493FB023A36BD
:10387E009000ACE004F0E0C3940A4002E4F0900043
:10388E00ACE0FE75F003A424ABF582E4343DF58381
:10389E00E493FFEE75F003A424ACF582E4343DF519
:1038AE0083E493FD9000ACE075F003A424ADF582A3
:0B38BE00E4343DF583E493FB023A364E
:103D4500900137E0600414F080119000A3E0600456
:103D550014FF80027F00900137EFF0900137E0FFFC
:033D650002333EE8
:103DC900900137E004F09000A3E0FF900137E0C3D1
:0D3DD9009F4002E4F0900137E0FF02333E0E
:103C0A0090019D122138EDD39408400C7B007A0074
:103C1A00790090019D022138AF057E0090019D1226
:103C2A002118A801AC02AD037B017A0079AD121DFF
:023C3A0038222E
:10000E009000AC7409F0900224E04408F09001379F
:05001E00E0FF02333E8B
:103E7400900224E054F7F0E4900131F0900135F021
:0B3E8400A3F0FBFAFDFCFFFE022C3B4C
:1035440090019BEFF02401FFE433FE9000B6E054B9
:103554000FB50714E4B5061090019BF0E075F00D6B
:10356400A424B7F97400800D90019BE075F00DA4BC
:1035740024C4F9740035F0FA7B01782A7C017D01BA
:103584007E007F0D121D3878387C017D017B017A25
:0A3594000079AD7E007F0A021D38A9
:10333E0090019DEFF0E490011FF0A31220DE00003B
:10334E000000E4900124F09000A3E07009FBFAFD68
:10335E00FCFFFE022C3B9000A3E014FF90019DE0C9
:10336E00FED39F9001374008EFF090019DF0800250
:10337E00EEF07B017A0079AD90019DE0FD12359E55
:10338E00782A7C017D017B017A0079B77E007F0D62
:10339E00121D3878387C017D017B017A0079AD7E73
:0733AE00007F0A121D382206
:103A7A0090019AEFF0E490011FF0A31220DE0000FB
:103A8A0000009001247432F0900224E030E2169093
:103A9A000125E004F0E0D394045002800DE4900183
:103AAA0025F0023DC9E4900125F090019AE0FF1249
:033ABA003544226E
:103A360090019DEFF0A3EDF0A3EBF0123E74900120
:103A46009DE09000A6F0A3E4F090019EE09000A80F
:103A5600F0A3E4F090019FE07F009000AAF0FAA3A3
:103A6600EFF0FB9000A6E0FEA3E0FFA3E0FCA3E0DE
:043A7600FD022C3BE6
:100C3D00900224E020E30302147D900124E0600380
:100C4D0014F022900131E0700D900135E07002A397
:100C5D00E0700302147D90012AE0540F24FC700310
:100C6D0002100B1470030211F92402600302147DAB
:100C7D009001201220BAEF2401FFE43EFEE43DFD79
:100C8D00E43CFC9001201220D290012EE0FF900157
:100C9D002BE0FEC39F5064EEFDC3EF9DFFE4940077
:100CAD00FE123FD2EE3395E0FDFCC004C005C00638
:100CBD00C007E4FF7E01FDFC9001201220C6121F2B
:100CCD0079D003D002D001D000121F79C006C00721
:100CDD00900132E0FEA3E0FBAA06E4F9F8D007D0BC
:100CED0006122004A804A905AA06AB0790012BE063
:100CFD007F00FEE4FCFD121F5E806890012BE0FF7B
:100D0D0090012EE0C39FFFE49400FE123FD2EE331C
:100D1D0095E0FDFCC004C005C006C007E4FF7E01E0
:100D2D00FDFC9001201220C6121F79D003D002D0F5
:100D3D0001D000121F79C006C007900132E0FEA35A
:100D4D00E0FBAA06E4F9F8D007D006122004A804A7
:100D5D00A905AA06AB0790012BE07F00FEE4FCFD80
:100D6D00121F6B9001261220D2900134E0FFE4FC9B
:100D7D00FDFE9001261220C6121F79E47B64FAF95C
:100D8D00F81220049001261220D29001261220BACA
:100D9D009000A6EEF0A3EFF090012FE0FF90012C54
:100DAD00E0FEC39F5064EEFDC3EF9DFFE49400FE93
:100DBD00123FD2EE3395E0FDFCC004C005C006C065
:100DCD0007E4FF7E01FDFC9001201220C6121F7961
:100DDD00D003D002D001D000121F79C006C00790F9
:100DED000132E0FEA3E0FBAA06E4F9F8D007D00635
:100DFD00122004A804A905AA06AB0790012CE07FD8
:100E0D0000FEE4FCFD121F5E806890012CE0FF9057
:100E1D00012FE0C39FFFE49400FE123FD2EE339505
:100E2D00E0FDFCC004C005C006C007E4FF7E01FD67
:100E3D00FC9001201220C6121F79D003D002D001E0
:100E4D00D000121F79C006C007900132E0FEA3E06A
:100E5D00FBAA06E4F9F8D007D006122004A804A9CD
:100E6D0005AA06AB0790012CE07F00FEE4FCFD1205
:100E7D001F6B9001261220D2900134E0FFE4FCFD9F
:100E8D00FE9001261220C6121F79E47B64FAF9F850
:100E9D001220049001261220D29001261220BA9021
:100EAD0000A8EEF0A3EFF0900130E0FF90012DE0EF
:100EBD00FEC39F5064EEFDC3EF9DFFE49400FE1250
:100ECD003FD2EE3395E0FDFCC004C005C006C0075F
:100EDD00E4FF7E01FDFC9001201220C6121F79D087
:100EED0003D002D001D000121F79C006C0079001B7
:100EFD0032E0FEA3E0FBAA06E4F9F8D007D0061213
:100F0D002004A804A905AA06AB0790012DE07F00D7
:100F1D00FEE4FCFD121F5E806890012DE0FF900144
:100F2D0030E0C39FFFE49400FE123FD2EE3395E014
:100F3D00FDFCC004C005C006C007E4FF7E01FDFC3A
:100F4D009001201220C6121F79D003D002D001D0FB
:100F5D0000121F79C006C007900132E0FEA3E0FB2E
:100F6D00AA06E4F9F8D007D006122004A804A905B2
:100F7D00AA06AB0790012DE07F00FEE4FCFD121FD9
:100F8D006B9001261220D2900134E0FFE4FCFDFEAF
:100F9D009001261220C6121F79E47B64FAF9F8122B
:100FAD0020049001261220D29001261220BA900022
:100FBD00AAEEF0FAA3EFF0FB9000A6E0FEA3E0FF8F
:100FCD00A3E0FCA3E0FD122C3B900132E0FEA3E078
:100FDD00FFE4FCFD9001201220C6C31220964012A2
:100FED009001201220DE00000000900131E060022F
:100FFD0014F0900131E0600302147D02147290012F
:10100D001FE07012A31220BAEF2401FFE43EFEE4AC
:10101D003DFDE43C80219001201220BAEC4D4E4F55
:10102D00601C9001201220BAEF24FFFFEE34FFFE6A
:10103D00ED34FFFDEC34FFFC9001201220D2E47F53
:10104D00FFFEFDFC9001201220C6121F79A804A9F5
:10105D0005AA06AB0790012BE0FFE4FCFDFE121F75
:10106D0079C006C007900132E0FEA3E0FBAA06E4BA
:10107D00F9F8D007D0061220049001261220D29044
:10108D000134E0FFE4FCFDFE9001261220C6121F84
:10109D0079E47B64FAF9F81220049001261220D22B
:1010AD009001261220BA9000A6EEF0A3EFF0E47F97
:1010BD00FFFEFDFC9001201220C6121F79A804A985
:1010CD0005AA06AB0790012CE0FFE4FCFDFE121F04
:1010DD0079C006C007900132E0FEA3E0FBAA06E44A
:1010ED00F9F8D007D0061220049001261220D290D4
:1010FD000134E0FFE4FCFDFE9001261220C6121F14
:10110D0079E47B64FAF9F81220049001261220D2BA
:10111D009001261220BA9000A8EEF0A3EFF0E47F24
:10112D00FFFEFDFC9001201220C6121F79A804A914
:10113D0005AA06AB0790012DE0FFE4FCFDFE121F92
:10114D0079C006C007900132E0FEA3E0FBAA06E4D9
:10115D00F9F8D007D0061220049001261220D29063
:10116D000134E0FFE4FCFDFE9001261220C6121FA3
:10117D0079E47B64FAF9F81220049001261220D24A
:10118D009001261220BA9000AAEEF0FAA3EFF0FB20
:10119D009000A6E0FEA3E0FFA3E0FCA3E0FD122C6F
:1011AD003B900132E0FEA3E0FFE4FCFD9001201234
:1011BD0020C6C31220965011E4FFFEFDFC900120C5
:1011CD001220C6C3122096701790011FE070040400
:1011DD00F0800DE490011FF0900131E0600214F0F9
:0C11ED00900131E0600302147D021472D6
:1011F9009001961220DE000000FFE4FFFEFDFC9046
:1012090001201220C6C312209660030212F3900136
:101219002BE0FFE4FCFDFE9001961220C6121F7917
:10122900A804A905AA06AB07900134E0FFE4FCFD78
:10123900FE121F79E47B64FAF9F812200490012662
:101249001220D29001261220BA9000A6EEF0A3EF48
:10125900F090012CE0FFE4FCFDFE9001961220C6FF
:10126900121F79A804A905AA06AB07900134E0FF6B
:10127900E4FCFDFE121F79E47B64FAF9F8122004FC
:101289009001261220D29001261220BA9000A8EED1
:10129900F0A3EFF090012DE0FFE4FCFDFE90019634
:1012A9001220C6121F79A804A905AA06AB07900146
:1012B90034E0FFE4FCFDFE121F79E47B64FAF9F8DF
:1012C9001220049001261220D29001261220BA90F1
:1012D90000AAEEF0FAA3EFF0FB9000A6E0FEA3E06F
:1012E900FFA3E0FCA3E0FD122C3B900132E0FEA33A
:1012F900E0FFE4FCFD9001261220D2900126122085
:10130900BA9001201220C6C312209660030213F579
:1013190090012EE0FFE4FCFDFE9001961220C6121A
:101329001F79A804A905AA06AB07900134E0FFE4D8
:10133900FCFDFE121F79E47B64FAF9F8122004908F
:1013490001261220D29001261220BA9000A6EEF0B2
:10135900A3EFF090012FE0FFE4FCFDFE900196124F
:1013690020C6121F79A804A905AA06AB0790013463
:10137900E0FFE4FCFDFE121F79E47B64FAF9F81240
:1013890020049001261220D29001261220BA900042
:10139900A8EEF0A3EFF0900130E0FFE4FCFDFE9031
:1013A90001961220C6121F79A804A905AA06AB073F
:1013B900900134E0FFE4FCFDFE121F79E47B64FA3E
:1013C900F9F81220049001261220D2900126122049
:1013D900BA9000AAEEF0FAA3EFF0FB9000A6E0FEA7
:1013E900A3E0FFA3E0FCA3E0FD122C3B9001201237
:1013F90020BAEF2401FFE43EFEE43DFDE43CFC900D
:1014090001201220D29001261220DE000000009057
:101419000132E0FEA3E0FFE4FCFD9001261220C6A4
:10142900121F5EA804A905AA06AB07900135E0FEC4
:10143900A3E0FFE4FCFD121F5E9001261220D2906A
:1014490001261220BA9001201220C6C3122096400C
:10145900129001201220DE00000000900131E060AE
:101469000214F0900131E0700B90012AE0C4540F8E
:04147900FF123A7AAA
:01147D00224C
:01408300221A
:0B359E0090019E1221389001A1EDF079
:1035A900E4A3F0AF05EFC39411E49001A2F09001F8
:1035B900A2E0FDC3947250369001A1E075F072A4A7
:1035C9002400FFE5F03440FE7C00EF2DFFEC3EFEC9
:1035D90012000390019E1221189001A2E0F5827554
:0E35E9008300EF121DD79001A2E004F080C015
:0135F70022B1
:0A3FE900E42FFFEE3440FE0239F130
:0A3FF300E42FFFEE3440FE0233B568
:103F5100E42FFFEE3440FE9001FAE0900200F002FF
:023F61002EC26E
:044073001200032212
:014084002219
:014085002218
:103EDB00123F181240111240671236A8123D8B1276
:053EEB003DE6D2AF220C
:043119004100A200CF
:103DE600E49000A2F0FE7FA2FD7B017A007900122A
:0D3DF600218D7F007E4B7D007C0002342279
:030023000239AAF5
:1039AA00C0E0C083C082C0D075D000C0073098275D
:1039BA00C2989000A0E0FF04F074002FF582E4346E
:1039CA0000F583E599F09000A0E0C394A04002E4DA
:1039DA00F09000A2E004F0309902C299D007D0D04A
:0739EA00D082D083D0E0324F
:08311D004101F3004101F4003F
:103D8B00123E205389F0438901538EF79001F3744F
:103D9B00FAF0A374C4F0758CFAF58AD2A9D28C22EE
:103E2000E49001EAF09001ECF09001F0F0A3F09042
:0C3E300001EBF09001EDF09001F2F022A7
:03000B000231C0FF
:1031C000C0E0C0F0C083C082C0D075D000C000C0D5
:1031D000069001F3E0F58CA3E0F58A9001E9740113
:1031E000F0A3E004F0C3940A4005E4F0A304F090D7
:1031F00001ECE004F0C394644005E4F0A304F09013
:1032000001EEE004F0C394F4748094814005E4F08E
:10321000A304F09001F0E475F001121E96FEC3E5E0
:10322000F094E8EE9403400A9001F0E4F0A3F0A3D8
:1032300004F0D006D000D0D0D082D083D0F0D0E03F
:01324000325B
:103CD9000A6D679C46F6375D4521EFAC5A50010BDA
:103CE900DF020A6D679C46F6375D4521EFAC5A50F5
:043CF900E10BDF02FA
:08312500450201CCCCCCCCCC5E
:103F180053B3FE43B40153B3FD43B40253B1FE435C
:033F2800B20122C1
:014086002217
:103E0300E4FEC290EF30E704D2808002C280EF2547
:0C3E1300E0FFD290000EEEB408E8C29070
:013E1F002280
:043F2B00E4FD7FFC36
:0F3F2F00C29100123E03AF05123E0300D2912251
:0A3B37007B019001AC7405F07F3FA4
:063B41009001A9122138D9
:103B4700C291E4FD123E039001ACE0FFEDC39F502C
:103B5700159001A91221188D82758300121D77FF18
:083B6700123E030D80E1D29132
:013B6F002233
:103D6800E4FEC290EF30E704D2808002C280EF25E3
:103D7800E0FFD290000EEEB408E843B10153B2FE62
:023D8800C290E7
:013D8A002216
:103EAA00E4FFFEC290EF25E0FFD290308003440188
:083EBA00FF0EEEB408EDC2900A
:013EC20022DD
:103F3E00C29100123D68123EAA53B1FE43B2010077
:023F4E00D2910E
:013F5000224E
:063B7000900197122138BC
:103B7600C291123D68E4FD90019AE0FFEDC39F50AB
:103B860015123EAA9001971221188D82758300EFB7
:0E3B9600121DD70D80E153B1FE43B201D29152
:013BA40022FE
:0E3F9000123F2B7D8E7F20123F2F000000225B
:103CB300E4FEFD7FFC123F2F7D8F7F20123F2FE418
:103CC300FD7FFD123F2FE4FEFF000FBF00010EBE7C
:053CD30013F7BF88F4A7
:013CD80022C9
:0A3FFD007F07123F3EEF5470FF22D1
:06405B007F09123F3E2226
:07403A007D707F27023F2F7C
:0C3FC600E4FD7FE1123F2F7FE2023F2F5D
:0E3F9E00AC07123F2BAF04AD077F25023F2F6B
:063ABD00123FFDEF70381E
:103AC300900196F0A3F09001ACEDF07FA0123B4182
:103AD300E4FD7FFD123F2FE4900196F0A3F00090E8
:103AE3000196E475F001121E96900196E07004A30E
:083AF300E064C870E9123F2BEA
:013AFB0022A8
:103C3C00AC05123FFDEF30E61D123F2B90019AECC4
:103C4C00F07F61123B70123FC612403AE4FD7FFDDB
:093C5C00123F2F7F01227F00229C
:10290B0078967C017D017BFF7A3C79D97E007F052F
:10291B00121D38789B7C017D017BFF7A3C79DE7E32
:10292B00007F03121D38789E7C017D017BFF7A3C72
:10293B0079E17E007F06121D3878A47C017D017B36
:10294B00FF7A3C79E77E007F01121D3878A57C0168
:10295B007D017BFF7A3C79E87E007F03121D3812E4
:10296B0040867D5A7F53123F2F7DA57F53123F2FF9
:10297B007D207F3D123F2F123F2B7FE1123F2F7F98
:10298B00E2123F2F7D707F27123F2F7D017F221296
:10299B003F2F7D037F23123F2F7D4E7F25123F2F2D
:1029AB007D107F31123F2F7B017A0279019001ACB0
:1029BB007405F07F30123B417B017A027901900163
:1029CB00AC7405F07F2A123B417A017996123B37A2
:1029DB007B017A01799E9001AC7406F07F3A123B31
:1029EB00417B017A0179A49001AC7401F07F39121B
:1029FB003B417B017A01799B9001AC7403F07F3EE4
:102A0B00123B417B017A0179A59001AC7403F07FF5
:102A1B003B123B41E4FD7F3C123F2F7D3F7F261253
:0E2A2B003F2FE4FD7F24123F2F7F21023F2F1B
:052D2A009001C4EFF070
:102D2F00E478C57C017D017BFF7A3C79EBFE7F0562
:102D3F00121D3878CA7C017D017BFF7A3C79F07EC9
:102D4F00007F03121D3878CD7C017D017BFF7A3C1B
:102D5F0079F37E007F06121D3878D37C017D017BCD
:102D6F00FF7A3C79F97E007F01121D3878D47C01FF
:102D7F007D017BFF7A3C79FA7E007F03121D387D3F
:102D8F005A7F53123F2F7DA57F53123F2F7D207FF8
:102D9F003D123F2F123F2BE4FF000000000FEFB456
:102DAF00DCF79001C4E0FD7F25123F2F7D3F7F268A
:102DBF00123F2F7A0179C5123B377B017A0179CD0A
:102DCF009001AC7406F07F3A123B417B017A017996
:102DDF00D39001AC7401F07F39123B417B017A0132
:102DEF0079CA9001AC7403F07F3E123B417B017AAC
:0E2DFF000179D49001AC7403F07F3B023B419C
:1036A80053B1F743B20853B1EF43B21053B3FB43DE
:1036B800B40443DE01A2AF9209C2AF75C7AA75C7A9
:1036C8005543910143C60875C7AA75C7555391FE5E
:1036D800A20992AF43DE2053DF3F43DF0153DFF9F6
:1036E80075D1FF75D9FFD2DFE4FBFAFDFCFFFE02BE
:0236F8002C3B69
:103BA500AD07AC06A2AF9209C2AF75C7AA75C755D6
:103BB500439101A20992AFECF5C5EDF5CDA2AF9207
:103BC50009C2AF75C7AA75C7555391FEA20992AF31
:033BD500D2DE221B
:0D3FAC00AD07AC06ECF5D5EDF5DDD2DE225B
:0D3FB900AD07AC06ECF5D2EDF5DAD2DE2254
:102C3B009001A0EEF0A3EFF0A3ECF0A3EDF0A3EA6C
:042C4B00F0A3EBF017
:102C4F00A31220DE000000009001A0E0FEA3E0FF31
:102C5F00E4FCFD9001A61220D29001A61220C6908E
:102C6F0000A4E0FFE4FCFDFE121F799001A61220E4
:102C7F00D29001A61220BAE47B64FAF9F81220046C
:102C8F009001A61220D29001A61220BA123BA59055
:102C9F0001A2E0FEA3E0FFE4FCFD9001A61220D20A
:102CAF009001A61220C69000A4E0FFE4FCFDFE12E6
:102CBF001F799001A61220D29001A61220BAE47BB0
:102CCF0064FAF9F81220049001A61220D29001A6FE
:102CDF001220BA123FAC9001A4E0FEA3E0FFE4FC87
:102CEF00FDA31220D29001A61220C69000A4E0FFEF
:102CFF00E4FCFDFE121F799001A61220D29001A6CE
:102D0F001220BAE47B64FAF9F81220049001A6129B
:0B2D1F0020D29001A61220BA023FB99A
:103CFD009000A4EFF0C3940A5003740AF09000A64C
:103D0D00E0FEA3E0FFA3E0FCA3E0FDA3E0FAA3E047
:043D1D00FB022C3B3E
:0940110053B3EF43B41002407AEE
:03407700D29422BE
:03407A00C29422CB
:03407D00B29422D8
:06406100A294E433FF22EB
:0A400700EF600302407712407A22B6
:014087002216
:1033B500EFF5A6EEF5A7A2AF9209C2AF75C7AA753C
:1033C500C755439F01A20992AFA2AF9209C2AF753B
:1033D500C7AA75C75543A501A20992AF75AF21AF1D
:1033E500058FAEA2AF9209C2AF75C7AA75C755437F
:1033F500A401A20992AFA2AF9209C2AF75C7AA757F
:10340500C75553A5FEA20992AFA2AF9209C2AF75E7
:0D341500C7AA75C755539FFEA20992AF22AA
:1039F1008FA6EEF5A775AEFFA2AF9209C2AF75C74C
:103A0100AA75C755439F01A20992AFA2AF9209C2FD
:103A1100AF75C7AA75C75543A501A20992AF75AF86
:103A210022A2AF9209C2AF75C7AA75C75543A401B7
:053A3100A20992AF2282
:0C2EC2009001FBEEF0A3EFF0A31221380A
:102ECE009001FBE0FEA3E0F5A6EEF5A7A2AF9209F6
:102EDE00C2AF75C7AA75C755439F01A20992AFA28B
:102EEE00AF9209C2AF75C7AA75C75543A501A2090E
:102EFE0092AF75AF21E4FEFF900200E0FDC3EF9D9F
:102F0E00EE940050299001FD1221188F828E8312AB
:102F1E001D77F5AEA2AF9209C2AF75C7AA75C75598
:102F2E0043A401A20992AF0FBF00010E80CAA2AF47
:102F3E009209C2AF75C7AA75C75553A5FEA20992CD
:102F4E00AFA2AF9209C2AF75C7AA75C755539FFE00
:042F5E00A20992AF83
:012F6200224C
:040003008F828E83D7
:03000700E493FF80
:01000A0022D3
:07404100A2B0B3E433FF223B
:07404800A297B3E433FF224D
:06406700123651023F6316
:103F04007843E62438F8A607784306E6C3940A40C3
:043F140002E4F622AB
:103E3C007842E6FE08667002FF2274382EF8E6FF20
:0B3E4C00784206E6C3940A4002E4F648
:013E57002248
:103E58007844E6FE18667002FF2274382EF8E6FFF2
:0B3E6800784406E6C3940A4002E4F62A
:013E7300222C
:0B3FDE00EF75F00BA4242AF8E6FF2288
:103D2100EF75F00BA42428F8A60408A605AE03EF4E
:103D310075F00BA4242BF8A606EF75F00BA4242C28
:043D4100F8E4F6228A
:06406D007843E618F6227C
:103F630053ACFE53ADFE53B37F53B37FD2B0D2975E
:013F7300222B
:10365100E47842F608F608F6FFEF75F00BA424288B
:10366100F87600087664EF75F00BA42425F876024D
:10367100EF75F00BA4242AF8E4F6EF75F00BA424FF
:103681002BF8E4F6EF75F00BA4242CF8E4F60FEF19
:10369100B402C67BFF7A407941782212210F7A4029
:0736A1007948782D02210F8A
:1027CE00900197EFF0E075F00BA42422F9E4FAFBE8
:1027DE00900225122138122141122187EF70030237
:1027EE0028AD900225122118900003121D77FFC309
:1027FE00940550089000037405022907EFC3940A4C
:10280E0050089000037401021DA4900008121D7759
:10281E00701490000804121DD7900197E075F00314
:10282E00A404FF123F0490022512211890000612F4
:10283E001EACFFAEF0D39400EE9400500302290AB2
:10284E00900004121EACC39FE5F09E50239000042E
:10285E00E475F001121EE4FCE5F06F7002EC6E60A0
:10286E000302290A900197E075F003A42403802B3C
:10287E00900009121D77FFD39400500302290A908D
:10288E00000A7401121DA4C39F407190000AE41245
:10289E001DD7900197E075F003A404FF023F04904A
:1028AE000225122118900003121D77FFD3940540C4
:1028BE000A9000037405121DD7802BEF600A90005A
:1028CE000374FF121DA4801E900008121D77B40120
:1028DE0015900008E4121DD7900197E075F003A43F
:1028EE002402FF123F04900225122118900004E4E6
:0D28FE00F5F0121F3190000AE4121DD722E0
:103E8F00E4900196F0900196E0FFC39402500B125C
:0A3E9F0027CE900196E004F080EBBE
:013EA90022F6
:103AFC0053B1BF53B2BF53B17F53B27F759850438C
:103B0C008920438780438E1053C4DFAB07AA06A9D4
:103B1C0005A8047F407E427D0F7C00122004EF0438
:0B3B2C00F404F58DD28ED299D2AC22A9
:103422009001961220D253B1BF53B2BF53B17F5312
:10343200B27F75985043878053C4F843C4209001EB
:10344200961220C67F407E427D0F7C00122004C36C
:1034520074FF9FFF74FF9EFEE49DFDE49CFC7808D0
:103462001220A78FC69001961220C67F407E427D11
:103472000F7C00122004C374FF9FFF8FC543C40852
:05348200D299D2AC223A
:07401A003098FDAF99C29838
:01402100227C
:08402200C2998F993099FD222B
:1034E6009002061220D253B1FB53B2FB53B3BF5323
:1034F600B4BF75F85075C40853C4DF900206122095
:10350600C67F407E427D0F7C00122004C374FF9F5D
:10351600FF74FF9EFEE49DFDE49CFC78081220A744
:103526008FC69002061220C67F407E427D0F7C0029
:0E353600122004C374FF9FFF8FC543C40822F8
:07402A0030F8FDAF9AC2F867
:01403100226C
:08403200C2F98F9A30F9FD225A
:1038C90090020A1220D2538EF7438901D28CE4FF69
:1038D900FEFDFC90020A1220C6C3122096602975CB
:1038E9008A7E758CFF308DFDC28D90020A1220BA36
:1038F900EF24FFFFEE34FFFEED34FFFDEC34FFFC57
:0B39090090020A1220D280C6C28C225D
:1039140090020E1220D2538EF7438901D28CE4FF19
:10392400FEFDFC90020E1220C6C31220966029757B
:103934008ACA758CFA308DFDC28D90020E1220BA9F
:10394400EF24FFFFEE34FFFEED34FFFDEC34FFFC0B
:0B39540090020E1220D280C6C28C220E
:10395F009002121220D2538EEF438910D28EE4FFC1
:10396F00FEFDFC9002121220C6C31220966029752C
:10397F008BEA758DCB308FFDC28F9002121220BA59
:10398F00EF24FFFFEE34FFFEED34FFFDEC34FFFCC0
:0B399F009002121220D280C6C28E22BD
:103749009002161220D253C9BF53C9DF43C910D200
:10375900CAE4FFFEFDFC9002161220C6C312209691
:10376900602975CC3075CDF830CFFDC2CF900216E7
:103779001220BAEF24FFFFEE34FFFEED34FFFDEC1B
:0E37890034FFFC9002161220D280C6C2CA2263
:1037E40090021A1220D275C40743C408E4FFFEFDF8
:1037F400FC90021A1220C6C3122096602C75C52CA8
:1038040075C6CFE5C430E4FB53C4EF90021A12200E
:10381400BAEF24FFFFEE34FFFEED34FFFDEC34FF7E
:0D382400FC90021A1220D280C353C4F72278
:1038310090021E1220D275C40743C408E4FFFEFDA6
:10384100FC90021E1220C6C3122096602C75C5D8AA
:1038510075C6FFE5C430E4FB53C4EF90021E12208D
:10386100BAEF24FFFFEE34FFFEED34FFFDEC34FF31
:0D387100FC90021E1220D280C353C4F72227
:102A39000A3D3D3D3D3D3D3D3D3D3D3D3D3D3D3DF0
:102A49003D3D3D3D3D3D3D3D3D3D3D3D3D3D3D3DAD
:102A59003D3D3D3D3D3D3D3D3D3D3D3D3D3D3D3D9D
:102A69003D3D3D3D3D3D3D3D3D3D3D3D3D3D3D3D8D
:102A79003D3D3D3D3D000A2A2020436F7079726932
:102A89006768742863292032303135204E75766F96
:102A9900746F6E20546563686E6F6C6F677920433D
:102AA9006F72702E20416C6C207269676874732094
:102AB90072657365727665642E2020000A2A2020CB
:102AC900436F6E7461637420452D4D61696C3A20C2
:102AD9004D6963726F432D38626974406E75766F04
:102AE900746F6E2E636F6D202020202020202020FF
:102AF90020202020202020202020202020202020CD
:102B090020000A2A202044656D6F2056657273697A
:102B19006F6E20203A202532642E2532642E25320C
:102B290064000A2A202046696E6973686564204436
:102B3900617465203A202532642E2532642E2532AF
:022B4900640026
:103487007BFF7A2A79391222547BFF7A2A797F12B5
:1034970022547BFF7A2A79C51222547BFF7A2B7933
:1034A7000B90016EE4F0A304F0E4A3F0A3F0A3F003
:1034B700A3F01222547BFF7A2B792B90016E7407AD
:1034C700F0A374DFF0A3E4F0A37405F0A3E4F0A382
:0F34D700741FF01222547BFF7A2A793902225493
:03000000022FFFCD
:102FFF00787FE4F6D8FD9000007FFF7E03E4F0A316
:0A300F00DFFCDEFA75814402305444
:1030190002254EE493A3F8E493A34003F68001F25A
:1030290008DFF48029E493A3F85407240CC8C333B8
:10303900C4540F4420C8834004F456800146F6DF87
:10304900E4800B0102040810204080903099E47E4E
:10305900019360BCA3FF543F30E509541FFEE4937C
:10306900A360010ECF54C025E060A840B8E493A343
:10307900FAE493A3F8E493A3C8C582C8CAC583CA6E
:10308900F0A3C8C582C8CAC583CADFE9DEE780BE26
:01312D0000A1
:101C6800E709F608DFFA8046E709F208DFFA803E5E
:101C780088828C83E709F0A3DFFA8032E309F6084B
:101C8800DFFA8078E309F208DFFA807088828C83B3
:101C9800E309F0A3DFFA806489828A83E0A3F60867
:101CA800DFFA805889828A83E0A3F208DFFA804C41
:101CB80080D280FA80C680D4806980F28033801018
:101CC80080A680EA809A80A880DA80E280CA803381
:101CD80089828A83ECFAE493A3C8C582C8CCC583F9
:101CE800CCF0A3C8C582C8CCC583CCDFE9DEE780C9
:101CF8000D89828A83E493A3F608DFF9ECFAA9F048
:101D0800EDFB2289828A83ECFAE0A3C8C582C8CC9D
:101D1800C583CCF0A3C8C582C8CCC583CCDFEADEB6
:101D2800E880DB89828A83E493A3F208DFF980CC18
:101D380088F0EF60010E4E60C388F0ED2402B40411
:101D48000050B9F582EB2402B4040050AF232345B8
:061D58008223901CB87309
:101D5E00BB010689828A83E0225002E722BBFE0283
:091D6E00E32289828A83E49322B6
:101D7700BB010CE58229F582E5833AF583E0225021
:101D870006E92582F8E622BBFE06E92582F8E2226B
:0D1D9700E58229F582E5833AF583E4932285
:101DA400BB010FF8E58229F582E5833AF583E02843
:101DB400F0225009C58229F8E58226F622BBFE09E5
:101DC400C58229F8E22582F222F8EA2583F583E91F
:031DD4009328222F
:101DD700F8BB010DE58229F582E5833AF583E8F042
:101DE700225006E92582C8F622BBFE05E92582C8EE
:021DF700F222D6
:101DF900EF8DF0A4A8F0CF8CF0A428CE8DF0A42EFE
:021E0900FE22B7
:101E0B00BC000BBE0029EF8DF084FFADF022E4CCBB
:101E1B00F875F008EF2FFFEE33FEEC33FCEE9DEC84
:101E2B00984005FCEE9DFE0FD5F0E9E4CEFD22EDCA
:101E3B00F8F5F0EE8420D21CFEADF075F008EF2F14
:101E4B00FFED33FD4007985006D5F0F222C398FD05
:051E5B000FD5F0EA22A2
:101E6000C2D5EC30E709B2D5E4C39DFDE49CFCEE9D
:101E700030E715B2D5E4C39FFFE49EFE121E0BC3EC
:101E8000E49DFDE49CFC8003121E0B30D507C3E4E7
:061E90009FFFE49EFE220C
:101E9600C5F0F8A3E028F0C5F0F8E58215827002D7
:061EA6001583E038F02274
:101EAC00BB0110E58229F582E5833AF583E0F5F074
:101EBC00A3E0225009E92582F886F008E622BBFE51
:101ECC000AE92582F8E2F5F008E222E5832AF58397
:081EDC00E993F5F0A3E993225C
:101EE400BB010DC58229C582C5833AC583021E96EE
:101EF4005011C58229F808E5F026F618F5F0E582B8
:101F040036F622BBFE11C58229F808E225F0F5F069
:101F1400F218E23582F222F8E58229F582E5832A75
:0D1F2400F58374019325F0F5F0E493382265
:101F3100F8BB0111E58229F582E5833AF583E8F0E2
:101F4100E5F0A3F0225009E92582C8F608A6F0229F
:0D1F5100BBFE09E92582C8F2E5F008F22286
:0D1F5E00EF2BFFEE3AFEED39FDEC38FC22D2
:0E1F6B00C3EF9BFFEE9AFEED99FDEC98FC2271
:101F7900E88FF0A4CC8BF0A42CFCE98EF0A42CFC07
:101F89008AF0EDA42CFCEA8EF0A4CDA8F08BF0A485
:101F99002DCC3825F0FDE98FF0A42CCD35F0FCEBE4
:101FA9008EF0A4FEA9F0EB8FF0A4CFC5F02ECD39A9
:0F1FB900FEE43CFCEAA42DCE35F0FDE43CFC2216
:101FC80075F008758200EF2FFFEE33FECD33CDCCD0
:101FD80033CCC58233C5829BED9AEC99E582984053
:101FE8000CF582EE9BFEED9AFDEC99FC0FD5F0D630
:101FF800E4CEFBE4CDFAE4CCF9A88222B800C1B95A
:102008000059BA002DEC8BF084CFCECDFCE5F0CB97
:10201800F97818EF2FFFEE33FEED33FDEC33FCEBD0
:1020280033FB10D703994004EB99FB0FD8E5E4F98B
:10203800FA227818EF2FFFEE33FEED33FDEC33FC78
:10204800C933C910D7059BE99A4007EC9BFCE99A6C
:10205800F90FD8E0E4C9FAE4CCFB2275F010EF2FB1
:10206800FFEE33FEED33FDCC33CCC833C810D707B1
:102078009BEC9AE899400AED9BFDEC9AFCE899F8EC
:0E2088000FD5F0DAE4CDFBE4CCFAE4C8F9227F
:10209600EB9FF5F0EA9E42F0E99D42F0E89C45F0A0
:0120A6002217
:1020A700E8600FECC313FCED13FDEE13FEEF13FF17
:0320B700D8F1223B
:0C20BA00E0FCA3E0FDA3E0FEA3E0FF2299
:0C20C600E0F8A3E0F9A3E0FAA3E0FB229D
:0C20D200ECF0A3EDF0A3EEF0A3EFF02281
:1020DE00A8828583F0D083D0821220F51220F512CB
:1020EE0020F51220F5E473E493A3C583C5F0C583F0
:1020FE00C8C582C8F0A3C583C5F0C583C8C582C84C
:01210E0022AE
:09210F00EBF608EAF608E9F622F5
:09211800E0FBA3E0FAA3E0F922C8
:10212100F8E0FBA3A3E0F925F0F0E5821582700247
:072131001583E0FA38F022EB
:09213800EBF0A3EAF0A3E9F022A8
:10214100BB010789828A830221185005E9F802211F
:10215100CBBBFE05E9F80221D489828A830221DD05
:10216100D083D082F8E4937012740193700DA3A30D
:1021710093F8740193F5828883E473740293686021
:06218100EFA3A3A380DF21
:062187008A838982E473E3
:1021E900E508246EF582E43401F583E005082290C0
:1021F900016B30070390016EE475F0011221210291
:102209001D5E2000E97F2ED2008018EF540F249024
:10221900D43440D4FF30040BEF24BFB41A00500368
:102229002461FFE50960021509050CE50C7002053A
:102239000B30070E90016BE475F001122121EF02BA
:1022490021B9023C8C7403D2078003E4C207F50864
:1022590090016B122138E4F509F50BF50CE50960DD
:10226900077F2012222C80F5750AFFC201C200C225
:1022790002C203C205C206C2081221F8FF700D305E
:1022890007057F0012223DAF0CAE0B22B4255FC2B9
:10229900D5C2041221F8FF24D0B40A00501A75F0EF
:1022A9000A780930D50508B6FF0106C6A426F62026
:1022B900D5047002D20380D924CFB41A00EF500498
:1022C900C2E5D20402243ED20180C6D20080C0D227
:1022D9000280BCD2D580BAD20580B47F2012222CCC
:1022E9002002077401B5090040F11221E9FF122209
:1022F9002C022266D208D20680951221E9FB12210E
:10230900E9FA1221E9F94A4B7006790F7A257BFF20
:1023190020022EE509602A7E008E82758300121D37
:102329007760060EEE650A70F0C2D5EBC0E0EAC030
:10233900E0E9C0E0EE122485D0E0F9D0E0FAD0E07F
:10234900FB121D5EFF60AAEBC0E0EAC0E0E9C0E055
:1023590012222CD0E02401F9D0E03400FAD0E0FBBD
:10236900E50A0460DCD50AD980877BFF7A24798164
:10237900D202809C791080027908C206C2088008BE
:10238900D2D5790A8004790AC2D5E50A047002F522
:102399000AE4FAFDFEFF1221E9FC7B082001131271
:1023A90021E9FD7B1030000A1221E9FE1221E9FF23
:1023B9007B20EC3382D592D55013C3E43000069FBD
:1023C900FFE49EFEE42001039DFDE49CFCE4CBF8C0
:1023D900C201EC700CCFCECDCCE824F8F870F380B4
:1023E90017C3EF33FFEE33FEED33FDEC33FCEB3374
:1023F900FB994002FB0FD8E9EB300105F8D0E0C4A6
:1024090048B201C0E00AEC4D4E4F78207B0070C203
:10241900EAB50A0040BCC0E0122487D0F0D0E02021
:102429000104C4C0E0C4B201C0F0122215D0F0D535
:10243900F0EB022266122161230353237D5822D433
:102449004C22D04223814F23894423894922E943DD
:08245900238F55237346237302
:1024610045237347252F5022D82D22DC2E22FF2B06
:1024710022E02322FD2025182A229848000022F775
:102481003F3F3F00790AA2D5200314300509B91056
:10249100020404B9080104A2D52006025001042057
:1024A10002689202B509005034C0E07F2030031960
:1024B1007F30A20272067205500F1224DEC202C2E0
:1024C10006C205C2087F30800F300503E9C0E01263
:1024D100222C300503D0E0F9D0E0B509CC30051746
:1024E1007F30B9100C12222C7F583004077F78807E
:1024F10003B9080312222C3002057F2D02222C7F02
:10250100202008F87F2B2006F322920280CF286E2C
:10251100756C6C2900D2011221E93001F8C20178F1
:102521000930D50108F60222982D5043495812214D
:10253100E92403B405004001E490252A9312221DE9
:0D254100743A12221DD20375090402237D95
:0C3FD200EE30E707C3E49FFFE49EFE22F0
:10218D00EF4E6012EF60010EEDBB010B89828A8369
:10219D00F0A3DFFCDEFA2289F05007F709DFFCA976
:0C21AD00F022BBFEFCF309DFFCA9F022CD
:1021B900BB010689828A83F0225002F722BBFE0105
:0221C900F322FF
:0921CB00E6FB08E6FA08E6F92239
:0921D400E2FB08E2FA08E2F9223C
:0C21DD00E493FB740193FA740293F9225E
:103C8C00EFB40A07740D123C97740A309811A89976
:103C9C00B8130CC2983098FDA899C298B811F63098
:073CAC0099FDC299F5992270
:00000001FF
