:082F8B0041022500410224006F
:10249D0012000E123EA4123A95123EA0123CCD121D
:1024AD00352A9001E8E06060E4F0900225E004F048
:1024BD009000A4E0FFC394324027EF24CEFFE43414
:1024CD00FFFE7C007D03121D5AEF240AFFE43EFE41
:1024DD00900225E0D39FEE6480F8748098402980A7
:1024ED00229000A4E0FFC374329FFFE49400FE7CB1
:1024FD00007D06121D5AC3740A9FFF900225E0D37A
:10250D009F4005E4F0120BE29001EAE06005E4F073
:10251D00123C7F9001ECE06008E4F01200261234CA
:10252D00DB9001EEE06002E4F09001F1E06002E486
:0E253D00F0123C2C900192EFF070030224AFDC
:10254B00E024FD700302262C147003022653240290
:10255B0060030224AF900224E06003022624900261
:08256B0027E020E3030226240F
:10257300E4900193F0A3F0123CE5900193E0FF0493
:10258300F074412FF582E43401F58374F8F090017F
:1025930093E0FF04F074412FF582E43401F5837472
:1025A30009F0900193E0FF04F074412FF582E434C5
:1025B30001F5837403F0900193E02441F9E43401BD
:1025C300FA7B017D08123A3A900193E02408F0E483
:1025D300A3F0900142E02401FFE433FE900194E074
:1025E300FDC39FEE6480F8748098502474422DF5E7
:1025F30082E43401F583E0FF900193E02441F58206
:10260300E43401F583E02FF0900194E004F080C2FC
:10261300900193E004F07B017A017941E0FD1230EF
:01262300A313
:10262400E4900224F00224AF9002247401F090029A
:1026340027E0FF30E30954F7F0123C640224AF9022
:102644000227E04408F054FBF0123CFD0224AF12D0
:052654003E9D0224AFD1
:013EA00022FF
:013EA10022FE
:013EA20022FD
:013EA30022FC
:063E73009001E20220872D
:063E79009001E502208724
:0E3D98009001E2122067E94A60031220D62251
:0E3DA6009001E5122067E94A60031220D62240
:103A0800EF4E602D9001D8EEF0A3EFF0AF05A3ECD8
:103A1800F0A3EFF0AF03A3EAF0A3EFF0E4A3F0A361
:103A2800F0A3F0A3F09001D7F09001D604F0123D76
:023A38009822D2
:103D1400E49001D6F0123DA67B007A007900123EB1
:043D240073023E796F
:102D9B009001D6E07003022E4F9001DAE0FEA3E023
:102DAB00FF4E7003022E4F9001D7E07035D3EF9496
:102DBB0000EE94005003022E4F9001DEE475F001FB
:102DCB00121DE5FED39001D9E095F09001D8E09E5D
:102DDB005072123DA6E49001DEF0A3F09001D704EF
:102DEB00F0229001D7E06401705A9001DE75F0017A
:102DFB00121DE5FED39001DBE095F09001DAE09E29
:102E0B0050429001DCE0FEA3E0FF9400EE94004002
:102E1B00259001E0E475F001121DE5FCD3EF95F070
:102E2B00EE9C5005E49001D6F09001D6E07007902F
:102E3B0001DAF0A3F022E49001DEF0A3F09001D7C9
:052E4B00F0123D982289
:102F930041015100500152000000000000000000F8
:102FA300000000000000005001410000000000008C
:102FB3000000000000000000000048016200000063
:052FC300000000000009
:103A9500E4900151F0FE7F10FD7B017A017952120D
:103AA50020DC7E007F107D007B017A0179411220A8
:073AB500DC122796023AE340
:0A30990004F07B017A017941E0FDAB
:0B30A30090019C12208790019FEDF02F
:1030AE00E4FFFE0000000FBF00010EEF64144E702F
:1030BE00F2123DB49001517401F0E4FEFF000000E5
:1030CE00000FBF00010EEF64C84E70F190019C120C
:1030DE00206774019001416B7008E965827003EA04
:1030EE00658360257E007F107D007B017A0179412A
:1030FE001220DC90019FE0FF7E0078417C017D0173
:09310E0090019C122067121C873D
:013117002295
:06142300900195122087E4
:10142900E4900198F0A3F0A3F0A3F0121CAD64F2CC
:101439006003021BB6900195122067900001121CEF
:10144900C6D394104003021BB6E4900199F09001B1
:1014590095122067900001121CC62401FFE433FE97
:10146900900199E0FDC39FEE6480F8748098502341
:10147900ED2401FFE433FE9001951220678F828EDF
:1014890083121CC6FF90019BE02FF0900199E004A4
:10149900F080BB900195122067900001121CC6F5DF
:1014A90082758300A3A3121CC6FF90019BE06F60A5
:1014B90003021BB67E007F107D007B017A01794112
:1014C9001220DCE490019AF09001951220679000B7
:1014D90002121CC61220B015380116300216E90393
:1014E90018E60418E80518EA0618EC0718FB0815A9
:1014F9003B09190A50192851194652195553197798
:10150900541A60551A70561A8F571A9F581AB25999
:101519001AB85A1AC85B1AE05C1AE65D1AFE5E1917
:10152900197019377118E67317A2B900001BAD02BB
:101539001919900195122067900003121CC6B40175
:1015490005123E978026900195122067900003129C
:101559001CC6B40205123E9A8012900195122067AA
:10156900900003121CC6B40303123E9D90019AE039
:10157900FF04F074412FF582E43401F58374F8F027
:1015890090019AE0FF04F074412FF582E43401F5EB
:10159900837402F0900195122067900002121CC614
:1015A900FF90019AE0FE04F074412EF582E43401C3
:1015B900F583EFF0123E85EF90019A6013E0FF0486
:1015C900F074412FF582E43401F5837401F0801140
:1015D900E0FF04F074412FF582E43401F5837402CD
:1015E900F0E4900199F0900142E02401FFE433FE18
:1015F900900199E0FDC39FEE6480F87480984003E0
:10160900021BAD74422DF582E43401F583E0FF90AD
:10161900019AE02441F582E43401F583E02FF0904A
:101629000199E004F080BF900227E0FF20E0030267
:10163900192854FBF0123CFD900227E020E3030235
:101649001BAD123C9A90019AE0FF04F074412FF50A
:1016590082E43401F58374F8F090019AE0FF04F014
:1016690074412FF582E43401F5837409F090019AED
:10167900E0FF04F074412FF582E43401F58374022C
:10168900F090019AE02441F9E43401FA7B017D08E4
:10169900123A3A90019AE02408F0E4900199F09006
:1016A9000142E02401FFE433FE900199E0FDC39F6C
:1016B900EE6480F8748098502474422DF582E434E5
:1016C90001F583E0FF90019AE02441F582E43401B9
:1016D900F583E02FF0900199E004F080C2021A56D8
:1016E900900227E0FF20E00302195554FBF0123C59
:1016F900FD900227E020E303021BAD123CE59001B7
:101709009AE0FF04F074412FF582E43401F5837403
:10171900F8F090019AE0FF04F074412FF582E43467
:1017290001F5837409F090019AE0FF04F074412FE8
:10173900F582E43401F5837403F090019AE02441C1
:10174900F9E43401FA7B017D08123A3A90019AE0F2
:101759002408F0E4900199F0900142E02401FFE4AB
:1017690033FE900199E0FDC39FEE6480F874809880
:10177900502474422DF582E43401F583E0FF900191
:101789009AE02441F582E43401F583E02FF09001D9
:1017990099E004F080C2021A56900227E030E00571
:1017A90054FEF08010900227E04401F04408F0E470
:1017B900FDFF1229D690019AE0FF04F074412FF53C
:1017C90082E43401F58374F8F090019AE0FF04F0A3
:1017D90074412FF582E43401F583740BF090019A7A
:1017E900E0FF04F074412FF582E43401F58374B904
:1017F900F0900226E0FEA3E0FF5401FD90019AE07B
:10180900FC04F074412CF582E43401F583EDF0EF2A
:101819007803CEC313CE13D8F95401FF90019AE08F
:10182900FE04F074412EF582E43401F583EFF09063
:10183900019AE02441F9E43401FA7B017D08123A66
:101849003AE4900199F0900199E0FFC3940850405F
:10185900A3E0FE2441F582E43401F583E5822FF506
:1018690082E43583F583E06003B4FF1C900199E0BD
:10187900FF74412EF582E43401F583E5822FF58268
:10188900E43583F5837420F0900199E004F080B683
:1018990090019AE02408F0E4900199F0900142E067
:1018A9002401FFE433FE900199E0FDC39FEE6480BB
:1018B900F8748098502474422DF582E43401F5833C
:1018C900E0FF90019AE02441F582E43401F583E0D8
:1018D9002FF0900199E004F080C2021A56807C80B2
:1018E9004D805A7B007A007900E49001A0F07F07CF
:1018F90080767B007A007900E49001A0F07F08806F
:10190900677B007A007900E49001A0F07F08805895
:101919007B007A007900E49001A0F07F0180497B87
:10192900007A007900E49001A0F07F02803A7B0000
:101939007A007900E49001A0F07F05802B7B007A82
:10194900007900E49001A0F07F06801C7B007A00FA
:101959007900E49001A0F07F03800D7B007A007983
:1019690000E49001A0F07F04122AD9021BAD900275
:1019790027E0FF20E3084408F0123CFD800A9002AA
:1019890027E054F7F0123C6490019AE0FF04F074E8
:10199900412FF582E43401F58374F8F090019AE05F
:1019A900FF04F074412FF582E43401F583740AF0E1
:1019B90090019AE0FF04F074412FF582E43401F5B7
:1019C900837401F0900227E090019A30E312E0FF5E
:1019D90004F074412FF582E43401F583E4F08011B9
:1019E900E0FF04F074412FF582E43401F5837401BA
:1019F900F090019AE02441F9E43401FA7B017D0871
:101A0900123A3A90019AE02408F0E4900199F09092
:101A19000142E02401FFE433FE900199E0FDC39FF8
:101A2900EE6480F8748098502474422DF582E43471
:101A390001F583E0FF90019AE02441F582E4340145
:101A4900F583E02FF0900199E004F080C290019AAB
:101A5900E0123099021BAD900227E054FBF0123CD2
:101A6900FD123CE5021BAD9000A4E0D39464400351
:101A7900021BADE0240AF0E0C394645003021BADDD
:101A89007464F0021BAD900227E04404F0E4FDFF0A
:101A99001229D6021BAD9000A4E0C3940A50030298
:101AA9001BADE024F6F0021BAD1236AE021BAD9061
:101AB9000227E054FBF0123CFD123C9A021BAD9048
:101AC90000A3E0D394645022E0240AF0E0C39464B4
:101AD90040187464F080131235C7021BAD9000A33F
:101AE900E0C3940A4004E024F6F09000A3E0FF125A
:101AF9003B2D021BAD123E9D90019AE0FF04F0744C
:101B0900412FF582E43401F58374F8F090019AE0ED
:101B1900FF04F074412FF582E43401F5837402F077
:101B290090019AE0FF04F074412FF582E43401F545
:101B3900837409F0123E85EF90019A6013E0FF0467
:101B4900F074412FF582E43401F5837401F08011BA
:101B5900E0FF04F074412FF582E43401F583740247
:101B6900F0E4900199F0900142E02401FFE433FE92
:101B7900900199E0FDC39FEE6480F8748098502429
:101B890074422DF582E43401F583E0FF90019AE077
:101B99002441F582E43401F583E02FF0900199E0C6
:0D1BA90004F080C290019AE06003123099B0
:011BB600220C
:1034DB00900151E06031123E21EF24F0601824D0AE
:1034EB00601224207016123DEA123E5EE4900151E8
:1034FB00F0023AE38000123DEA023E5E7B017A0164
:10350B0079417D100238ED7B017A0179527D1012E1
:0F351B003A6CEF60097B017A0179521214232276
:102FC8004101AC004101AD004101B1004101B20035
:102FD8004201AE00004101B0005001B30000000002
:0C2FE800000000000000000000000000DD
:103CCD00E49001ACF0A3F09001B1F0FE7FA2FD7B7A
:083CDD00017A0079000220DCED
:102AD90090019D122087E49001ACF0E0FE04F074AF
:102AE900B32EF582E43401F5837455F09001ACE01E
:102AF900FE04F074B32EF582E43401F58374AAF070
:102B09009001A0E004FE9001ACE0FD04F074B32D47
:102B1900F582E43401F583EEF09001ACE0FE04F0B7
:102B290074B32EF582E43401F583EFF0E49001B13A
:102B3900F09001A0E0FF9001B1E0FEC39F502A9000
:102B4900019D1220678E82758300121CC6FE9001BA
:102B5900ACE0FD04F074B32DF582E43401F583EEA5
:102B6900F09001B1E004F080C87B017A0179B3EFFC
:102B79002404FD1233D99001ACE0FE04F074B32EA5
:102B8900F582E43401F583EFF0E49001B1F09001AE
:102B9900A0E02405FFE433FE9001B1E0FDC39FEE00
:102BA9006480F8748098501774B32DF582E4340169
:102BB900F583E0FF123E469001B1E004F080CF2298
:100026009000A2E07003020BE114F09000A0E0241F
:10003600A0FFE433FEA3E0FBFDC3EF9DFFEE9400BB
:10004600FE7C007DA0121D5AEDC3940440D27400BC
:100056002BF582E43400F583E064556003020BCD92
:100066009000A1E07A002401FFEA33FE7C007DA027
:10007600121DAF74002DF58274003CF583E064AA6E
:100086006003020BCDEB2402FFEA33FE7C007DA069
:10009600121DAF74002DF58274003CF583E09001CB
:1000A600ADF09000A0E024A0FFE433CFC39BCF9A2D
:1000B600FE7C007DA0121DAF9001ADE02404FFE49C
:1000C60033FEC3ED9FEE6480F8EC64809850030223
:1000D6000BD39000A1E0FF2400F9E43400FA7B0181
:1000E6009001ADE02403FD90019DEFF0A374A0F014
:1000F600123118AB079001ADE0FF9000A1E02FFF91
:10010600E433CF2403CF3400FE7C007DA0121DAF64
:1001160074002DF58274003CF583E06B6003020BDE
:10012600CDE49001ACF0FE7F10FD7B017A017941B0
:100136001220DC9000A1E0FB7A002403FFEA33FEE4
:100146007C007DA0121DAF74002DF58274003CF575
:1001560083E01220B0018F1203863104603308CA8F
:1001660034054435062836070C3702AC3807F0410B
:1001760009AE540AA1570AAE620B13630B39640B1E
:090186005B650B896600000BB7F4
:10018F00E4900195F0A3F0EB240CFFE43AFE7C0021
:10019F007DA0121DAF74002DF58274003CF583E035
:1001AF00FF7E00900195EEF0A3EFF0C39410EE9454
:1001BF00004003020BB7900195E07002A3E0702896
:1001CF009001B07410F0E4A3F09001B0E0FFA3E051
:1001DF00FEC39F5013EE75F080A4FFAEF0123E0DDC
:1001EF009001B1E004F080E19000A1E0240DFFE464
:1001FF0033FE7C007DA0121DAF74002DF5827400BC
:10020F003CF583E0540FFF9001AEE4F0A3EFF0E470
:10021F009001B1F09001AEE0FEA3E0FF7C007D0DF8
:10022F00121D48EF240AFFE43EFE9001B1E0FBC32C
:05023F009FEC9E504BF6
:10024400900195E0FEA3E0FF7D72121D48EBFD2FA7
:10025400FFEC3EFEA3F0A3EFF0C006C0079000A1A0
:10026400E02404FFE433CF2DCF3CFE7DA0121DAF6C
:1002740074002DF58274003CF583E0FDD007D006B0
:03028400123E1710
:100287009001B1E004F08094900195A3E09001B053
:10029700F07B017A0179B09001A07401F07F12120E
:0202A7002AD952
:1002A900020BB79001ACE0FF04F074412FF582E432
:1002B9003401F58374F8F09001ADE0FF9001ACE0F2
:1002C900FE04F074412EF582E43401F583EFF090D9
:1002D90001ACE0FF04F074412FF582E43401F583A9
:1002E9007438F0E49001B1F09001ADE014FF900191
:1002F900B1E0FEC39F50409000A1E02404FDE43327
:10030900FCEE7E002DFFEE3CFE7C007DA0121DAFB1
:1003190074002DF58274003CF583E0FF9001ACE098
:10032900FE04F074412EF582E43401F583EFF09078
:1003390001B1E004F080B1E49001B1F0900142E034
:100349002401FFE433FE9001B1E0FDC39FEE648018
:10035900F8748098502474422DF582E43401F583B1
:10036900E0FF9001ACE02441F582E43401F583E03B
:100379002FF09001B1E004F080C2020A8D9001AC27
:10038900E0FF04F074412FF582E43401F58374F839
:10039900F09001ADE0FF9001ACE0FE04F074412E55
:1003A900F582E43401F583EFF09001ACE0FF04F04D
:1003B90074412FF582E43401F5837431F0E490013E
:1003C900B1F09001ADE014FF9001B1E0FEC39F5080
:1003D900409000A1E02404FDE433FCEE7E002DFFF3
:1003E900EE3CFE7C007DA0121DAF74002DF58274D9
:1003F900003CF583E0FF9001ACE0FE04F074412E6F
:10040900F582E43401F583EFF09001B1E004F08066
:10041900B1E49001B1F0900142E02401FFE433FE20
:100429009001B1E0FDC39FEE6480F8748098502478
:1004390074422DF582E43401F583E0FF9001ACE0CC
:100449002441F582E43401F583E02FF09001B1E015
:1004590004F080C2020A8D900227E030E003020B0B
:10046900B79001ACE0FF04F074412FF582E4340148
:10047900F58374F8F09001ADE0FF9001ACE0FE0463
:10048900F074412EF582E43401F583EFF09001AC6C
:10049900E0FF04F074412FF582E43401F5837433ED
:1004A900F0E49001B1F09001ADE014FF9001B1E0EA
:1004B900FEC39F50409000A1E02404FDE433FCEE0C
:1004C9007E002DFFEE3CFE7C007DA0121DAF740066
:1004D9002DF58274003CF583E0FF9001ACE0FE0449
:1004E900F074412EF582E43401F583EFF09001B107
:1004F900E004F080B1E49001B1F0900142E0240100
:10050900FFE433FE9001B1E0FDC39FEE6480F8740F
:100519008098502474422DF582E43401F583E0FF7C
:100529009001ACE02441F582E43401F583E02FF039
:100539009001B1E004F080C2020A8D900227E030F8
:10054900E003020BB79001ACE0FF04F074412FF512
:1005590082E43401F58374F8F09001ADE0FF900175
:10056900ACE0FE04F074412EF582E43401F583EF2A
:10057900F09001ACE0FF04F074412FF582E43401FE
:10058900F5837435F0E49001B1F09001ADE014FF0A
:100599009001B1E0FEC39F50409000A1E02404FD0A
:1005A900E433FCEE7E002DFFEE3CFE7C007DA012C4
:1005B9001DAF74002DF58274003CF583E0FF9001B6
:1005C900ACE0FE04F074412EF582E43401F583EFCA
:1005D900F09001B1E004F080B1E49001B1F0900134
:1005E90042E02401FFE433FE9001B1E0FDC39FEE38
:1005F9006480F8748098502474422DF582E43401A3
:10060900F583E0FF9001ACE02441F582E43401F583
:1006190083E02FF09001B1E004F080C2020A8D90CE
:100629000227E030E003020BB79001ACE0FF04F0D1
:1006390074412FF582E43401F58374F8F09001AD2B
:10064900E0FF9001ACE0FE04F074412EF582E43441
:1006590001F583EFF09001ACE0FF04F074412FF550
:1006690082E43401F5837436F0E49001B1F090012D
:10067900ADE014FF9001B1E0FEC39F50409000A18E
:10068900E02404FDE433FCEE7E002DFFEE3CFE7C0D
:10069900007DA0121DAF74002DF58274003CF58316
:1006A900E0FF9001ACE0FE04F074412EF582E434E1
:1006B90001F583EFF09001B1E004F080B1E490011D
:1006C900B1F0900142E02401FFE433FE9001B1E072
:1006D900FDC39FEE6480F8748098502474422DF510
:1006E90082E43401F583E0FF9001ACE02441F58216
:1006F900E43401F583E02FF09001B1E004F080C209
:10070900020A8D900227E030E003020BB79001AC9A
:10071900E0FF04F074412FF582E43401F58374F8A5
:10072900F09001ADE0FF9001ACE0FE04F074412EC1
:10073900F582E43401F583EFF09001ACE0FF04F0B9
:1007490074412FF582E43401F5837437F0E49001A4
:10075900B1F09001ADE014FF9001B1E0FEC39F50EC
:10076900409000A1E02404FDE433FCEE7E002DFF5F
:10077900EE3CFE7C007DA0121DAF74002DF5827445
:10078900003CF583E0FF9001ACE0FE04F074412EDB
:10079900F582E43401F583EFF09001B1E004F080D3
:1007A900B1E49001B1F0900142E02401FFE433FE8D
:1007B9009001B1E0FDC39FEE6480F87480985024E5
:1007C90074422DF582E43401F583E0FF9001ACE039
:1007D9002441F582E43401F583E02FF09001B1E082
:1007E90004F080C2020A8D9001ACE0FF04F074416C
:1007F9002FF582E43401F58374F8F09001ADE0FF40
:100809009001ACE0FE04F074412EF582E43401F568
:1008190083EFF09001ACE0FF04F074412FF582E41E
:100829003401F5837441F0E49001B1F09001ADE039
:1008390014FF9001B1E0FEC39F50409000A1E02455
:1008490004FDE433FCEE7E002DFFEE3CFE7C007DD2
:10085900A0121DAF74002DF58274003CF583E0FFF2
:100869009001ACE0FE04F074412EF582E43401F508
:1008790083EFF09001B1E004F080B1E49001B1F0B0
:10088900900142E02401FFE433FE9001B1E0FDC391
:100899009FEE6480F8748098502474422DF582E4A8
:1008A9003401F583E0FF9001ACE02441F582E434A2
:1008B90001F583E02FF09001B1E004F080C2020A53
:1008C9008D900227E030E003020BB79001ACE0FF06
:1008D90004F074412FF582E43401F58374F8F09043
:1008E90001ADE0FF9001ACE0FE04F074412EF58209
:1008F900E43401F583EFF09001ACE0FF04F07441BA
:100909002FF582E43401F5837434F0E49001B1F0F9
:100919009001ADE014FF9001B1E0FEC39F504090FB
:1009290000A1E02404FDE433FCEE7E002DFFEE3C43
:10093900FE7C007DA0121DAF74002DF58274003C71
:10094900F583E0FF9001ACE0FE04F074412EF582DE
:10095900E43401F583EFF09001B1E004F080B1E4F3
:100969009001B1F0900142E02401FFE433FE9001CF
:10097900B1E0FDC39FEE6480F874809850247442FE
:100989002DF582E43401F583E0FF9001ACE02441C8
:10099900F582E43401F583E02FF09001B1E004F031
:1009A90080C2020A8D900227E0FF20E3084408F084
:1009B900123CFD800A900227E054F7F0123C649043
:1009C90001ACE0FF04F074412FF582E43401F583B2
:1009D90074F8F09001ACE0FF04F074412FF582E463
:1009E9003401F583740AF09001ACE0FF04F074411E
:1009F9002FF582E43401F5837401F0900227E09029
:100A090001AC30E312E0FF04F074412FF582E434C5
:100A190001F583E4F08011E0FF04F074412FF582C1
:100A2900E43401F5837401F09001ACE02441F9E468
:100A39003401FA7B017D08123A3A9001ACE02408AE
:100A4900F0E49001B1F0900142E02401FFE433FEAB
:100A59009001B1E0FDC39FEE6480F8748098502442
:100A690074422DF582E43401F583E0FF9001ACE096
:100A79002441F582E43401F583E02FF09001B1E0DF
:100A890004F080C29001ACE004F07B017A01794165
:100A9900E0FD1230A3020BB7900227E04404F0E412
:100AA900FDFF020B849000A1E0FB7A002404FFEA19
:100AB90033FE7C007DA0121DAF74002DF5827400F9
:100AC9003CF583E0FFC007EB2405FFEA33FE7C0019
:100AD9007DA0121DAF74002DF58274003CF583E0F2
:100AE900FDC0059000A1E02406FFE433FE7C007DF3
:100AF900A0121DAF74002DF58274003CF583E0FB54
:100B0900D005D007123866020BB79000A1E0240483
:100B1900FFE433FE7C007DA0121DAF74002DF58229
:100B290074003CF583E0FF9000A3F0123B2D807E1A
:100B39009000A1E02404FFE433FE7C007DA0121D97
:100B4900AF74002DF58274003CF583E09000A4F0A9
:100B5900805C900227E054FBF0123CFD9000A1E07C
:100B69002404FFE433FE7C007DA0121DAF74002D28
:100B7900F58274003CF583E0FFE4FD1229D6802E4E
:100B89009000A1E02404FFE433FE7C007DA0121D47
:100B9900AF74002DF58274003CF583E0900195F067
:0E0BA900E0FFC4540F7007EF540FFF123E2BF5
:100BB7009001ADE02404FF9000A1E02FF0E075F074
:100BC700A084E5F0F0229000A1E004F09000A1E0FD
:0B0BD70075F0A084E5F0F0020026227B
:1033D9009001A1122087AE05E4900228F0AF061EE5
:1033E900EF6040900228E0FF9001A1E475F001121E
:1033F9002070121CAD6F900228F0E4A3F09002290E
:10340900E0C3940850D7900228E030E007C3136462
:103419008CF08007900228E0C313F0900229E004A1
:09342900F080DA900228E0FF2295
:10311800900199122087AE05E4900228F0AF061EB0
:10312800EF6065900228E0FF900199E475F00112C4
:103138002070121CAD6F900228F090019DE004F001
:10314800A3E0FF90019DE0C39F4012E4F0EFFDE48F
:103158009DFDE4940090019A8DF0121DE5E4900223
:1031680029F0900229E0C3940850B2900228E03078
:10317800E007C313648CF08007900228E0C313F0C3
:0E318800900229E004F080DA900228E0FF2295
:103BB800FFFFFF00FF000000FFFF000000FFFFFF06
:0E3BC80000FFFFFF0000FF800080FFFF800075
:0F2FF4004100AB00410124004401250000000012
:10352A009000AB7409F07E007F067D007B017A0172
:10353A00791E1220DC7E007F017D007B017A0179F1
:10354A00361220DC7E007F727D007B017A0079AC26
:10355A001220DC7E007F087D007B017A0079A312AD
:0F356A0020DC9000A37464F0A37432F0023C6480
:1035C7009000ABE0600414F080069000AB7409F043
:1035D7009000ABE0FE75F003A424B8F582E4343B19
:1035E700F583E493FFEE75F003A424B9F582E43480
:1035F7003BF583E493FD9000ABE075F003A424BA98
:0D360700F582E4343BF583E493FB02386662
:1036AE009000ABE004F0E0C3940A4002E4F0900016
:1036BE00ABE0FE75F003A424B8F582E4343BF58349
:1036CE00E493FFEE75F003A424B9F582E4343BF5E0
:1036DE0083E493FD9000ABE075F003A424BAF58269
:0B36EE00E4343BF583E493FB023866F4
:103C9A00900136E0600414F080069001367410F04A
:0A3CAA00900136E0FF7D020229D6EA
:103CE500900136E004F0E0C394114002E4F0900145
:083CF50036E0FF7D010229D633
:103A3A0090019C122087EDD39408400C7B007A00F9
:103A4A00790090019C022087AF057E0090019C12AC
:103A5A002067A801AC02AD037B017A0079AC121C85
:023A6A008722B1
:103CFD009000AB7409F0900227E04408F090013673
:073D0D00E0FFE4FD0229D6EE
:103C6400900227E054F7F0E4900130F0900134F032
:0B3C7400A3F0FBFAFDFCFFFE022BC9D1
:1033250090019AEFF02401FFE433FE9000B5E054DC
:103335000FB50714E4B5061090019AF0E075F00D8D
:10334500A424B6F97400800D90019AE075F00DA4DF
:1033550024C3F9740035F0FA7B0178297C017D01DD
:103365007E007F0D121C8778377C017D017B017AF9
:0A3375000079AC7E007F0A021C877D
:1029D60090019DEDF090019CEFF0FBE490011EF05C
:1029E600A312202D00000000E4900123F0EBD39405
:1029F60010400C9001367410F090019CF080089005
:102A0600019CE0900136F090019DE0701A7B017AFE
:102A16000079AC90019CE0FD12337F9000ACE0F4AD
:0F2A26006003022AB3806F90019DE06401703C51
:102A3500A3F0F07B017A0079AC90019CE0FD1233A4
:102A45007F9000ACE0F4706690019CE070028047D6
:102A550090019CE004F0E0C394114002E4F0900181
:0C2A65009EE004F0E0C3941140C98042E0
:082A710090019DE06402703A3F
:102A7900A3F0F07B017A0079AC90019CE0FD123360
:102A89007F9000ACE0F4702290019CE0600414F0A7
:102A9900800CE4FBFAFDFCFFFE122BC9800C9001AF
:0A2AA9009EE004F0E0C3941140C960
:102AB30078297C017D017B017A0079B67E007F0D48
:102AC300121C8778377C017D017B017A0079AC7E0B
:062AD300007F0A021C87CF
:1038AA00900199EFF0E490011EF0A312202D000080
:1038BA0000009001237432F0900227E030E2169063
:1038CA000124E004F0E0D394045002800DE4900156
:1038DA0024F0023CE5E4900124F0900199E0FF1203
:0338EA0033252261
:1038660090019CEFF0A3EDF0A3EBF0123C64900105
:103876009CE09000A5F0A3E4F090019DE09000A7E5
:10388600F0A3E4F090019EE07F009000A9F0FAA377
:10389600EFF0FB9000A5E0FEA3E0FFA3E0FCA3E0B1
:0438A600FD022BC92B
:100BE200900227E020E303021422900123E0600335
:100BF20014F022900130E0700D900134E07002A3F5
:100C0200E07003021422900129E0540F24FC7003C7
:100C1200020FB014700302119E2402600302142218
:100C220090011F122009EF2401FFE43EFEE43DFD86
:100C3200E43CFC90011F12202190012DE0FF900165
:100C42002AE0FEC39F5064EEFDC3EF9DFFE49400D3
:100C5200FE123DF6EE3395E0FDFCC004C005C00671
:100C6200C007E4FF7E01FDFC90011F122015121E39
:100C7200C8D003D002D001D000121EC8C006C007DF
:100C8200900131E0FEA3E0FBAA06E4F9F8D007D018
:100C920006121F53A804A905AA06AB0790012AE071
:100CA2007F00FEE4FCFD121EAD806890012AE0FF89
:100CB20090012DE0C39FFFE49400FE123DF6EE3357
:100CC20095E0FDFCC004C005C006C007E4FF7E013C
:100CD200FDFC90011F122015121EC8D003D002D0B5
:100CE20001D000121EC8C006C007900131E0FEA369
:100CF200E0FBAA06E4F9F8D007D006121F53A804B5
:100D0200A905AA06AB0790012AE07F00FEE4FCFDDC
:100D1200121EBA900125122021900133E0FFE4FC5B
:100D2200FDFE900125122015121EC8E47B64FAF91B
:100D3200F8121F539001251220219001251220093B
:100D42009000A5EEF0A3EFF090012EE0FF90012BB2
:100D5200E0FEC39F5064EEFDC3EF9DFFE49400FEEE
:100D6200123DF6EE3395E0FDFCC004C005C006C09E
:100D720007E4FF7E01FDFC90011F122015121EC820
:100D8200D003D002D001D000121EC8C006C0079006
:100D92000131E0FEA3E0FBAA06E4F9F8D007D00691
:100DA200121F53A804A905AA06AB0790012BE07FE6
:100DB20000FEE4FCFD121EAD806890012BE0FF9066
:100DC200012EE0C39FFFE49400FE123DF6EE339540
:100DD200E0FDFCC004C005C006C007E4FF7E01FDC3
:100DE200FC90011F122015121EC8D003D002D001A0
:100DF200D000121EC8C006C007900131E0FEA3E079
:100E0200FBAA06E4F9F8D007D006121F53A804A9DA
:100E120005AA06AB0790012BE07F00FEE4FCFD1261
:100E22001EBA900125122021900133E0FFE4FCFD5F
:100E3200FE900125122015121EC8E47B64FAF9F80F
:100E4200121F539001251220219001251220099092
:100E520000A7EEF0A3EFF090012FE0FF90012CE04D
:100E6200FEC39F5064EEFDC3EF9DFFE49400FE12AB
:100E72003DF6EE3395E0FDFCC004C005C006C00798
:100E8200E4FF7E01FDFC90011F122015121EC8D046
:100E920003D002D001D000121EC8C006C0079001C4
:100EA20031E0FEA3E0FBAA06E4F9F8D007D006126F
:100EB2001F53A804A905AA06AB0790012CE07F00E6
:100EC200FEE4FCFD121EAD806890012CE0FF900153
:100ED2002FE0C39FFFE49400FE123DF6EE3395E04F
:100EE200FDFCC004C005C006C007E4FF7E01FDFC96
:100EF20090011F122015121EC8D003D002D001D0BB
:100F020000121EC8C006C007900131E0FEA3E0FB3C
:100F1200AA06E4F9F8D007D006121F53A804A905BF
:100F2200AA06AB0790012CE07F00FEE4FCFD121E36
:100F3200BA900125122021900133E0FFE4FCFDFE6E
:100F4200900125122015121EC8E47B64FAF9F812EA
:100F52001F53900125122021900125122009900093
:100F6200A9EEF0FAA3EFF0FB9000A5E0FEA3E0FFEC
:100F7200A3E0FCA3E0FD122BC9900131E0FEA3E047
:100F8200FFE4FCFD90011F122015C3121FE5401261
:100F920090011F12202D00000000900130E060023D
:100FA20014F0900130E06003021422021417900141
:100FB2001EE07012A3122009EF2401FFE43EFEE4BA
:100FC2003DFDE43C802190011F122009EC4D4E4F63
:100FD200601C90011F122009EF24FFFFEE34FFFE78
:100FE200ED34FFFDEC34FFFC90011F122021E47F61
:100FF200FFFEFDFC90011F122015121EC8A804A9B5
:1010020005AA06AB0790012AE0FFE4FCFDFE121ED2
:10101200C8C006C007900131E0FEA3E0FBAA06E4C7
:10102200F9F8D007D006121F539001251220219003
:101032000133E0FFE4FCFDFE900125122015121E93
:10104200C8E47B64FAF9F8121F539001251220219B
:101052009001251220099000A5EEF0A3EFF0E47FA5
:10106200FFFEFDFC90011F122015121EC8A804A944
:1010720005AA06AB0790012BE0FFE4FCFDFE121E61
:10108200C8C006C007900131E0FEA3E0FBAA06E457
:10109200F9F8D007D006121F539001251220219093
:1010A2000133E0FFE4FCFDFE900125122015121E23
:1010B200C8E47B64FAF9F8121F539001251220212B
:1010C2009001251220099000A7EEF0A3EFF0E47F33
:1010D200FFFEFDFC90011F122015121EC8A804A9D4
:1010E20005AA06AB0790012CE0FFE4FCFDFE121EF0
:1010F200C8C006C007900131E0FEA3E0FBAA06E4E7
:10110200F9F8D007D006121F539001251220219022
:101112000133E0FFE4FCFDFE900125122015121EB2
:10112200C8E47B64FAF9F8121F53900125122021BA
:101132009001251220099000A9EEF0FAA3EFF0FB2E
:101142009000A5E0FEA3E0FFA3E0FCA3E0FD122BCC
:10115200C9900131E0FEA3E0FFE4FCFD90011F1203
:101162002015C3121FE55011E4FFFEFDFC90011F84
:10117200122015C3121FE5701790011EE0700404BF
:10118200F0800DE490011EF0900130E0600214F056
:0C119200900130E06003021422021417E8
:10119E0090019512202D000000FFE4FFFEFDFC9053
:1011AE00011F122015C3121FE56003021298900151
:1011BE002AE0FFE4FCFDFE900195122015121EC8D8
:1011CE00A804A905AA06AB07900133E0FFE4FCFDD5
:1011DE00FE121EC8E47B64FAF9F8121F5390012523
:1011EE001220219001251220099000A5EEF0A3EF08
:1011FE00F090012BE0FFE4FCFDFE9001951220150E
:10120E00121EC8A804A905AA06AB07900133E0FF79
:10121E00E4FCFDFE121EC8E47B64FAF9F8121F53BB
:10122E009001251220219001251220099000A7EE91
:10123E00F0A3EFF090012CE0FFE4FCFDFE90019591
:10124E00122015121EC8A804A905AA06AB07900104
:10125E0033E0FFE4FCFDFE121EC8E47B64FAF9F8ED
:10126E00121F539001251220219001251220099062
:10127E0000A9EEF0FAA3EFF0FB9000A5E0FEA3E0CC
:10128E00FFA3E0FCA3E0FD122BC9900131E0FEA309
:10129E00E0FFE4FCFD900125122021900125122093
:1012AE000990011F122015C3121FE5600302139A45
:1012BE0090012DE0FFE4FCFDFE9001951220151229
:1012CE001EC8A804A905AA06AB07900133E0FFE4E7
:1012DE00FCFDFE121EC8E47B64FAF9F8121F53904F
:1012EE0001251220219001251220099000A5EEF073
:1012FE00A3EFF090012EE0FFE4FCFDFE90019512AD
:10130E002015121EC8A804A905AA06AB0790013322
:10131E00E0FFE4FCFDFE121EC8E47B64FAF9F8124D
:10132E001F539001251220219001251220099000B3
:10133E00A7EEF0A3EFF090012FE0FFE4FCFDFE908E
:10134E000195122015121EC8A804A905AA06AB07FE
:10135E00900133E0FFE4FCFDFE121EC8E47B64FA4C
:10136E00F9F8121F53900125122021900125122009
:10137E00099000A9EEF0FAA3EFF0FB9000A5E0FEB5
:10138E00A3E0FFA3E0FCA3E0FD122BC990011F1206
:10139E002009EF2401FFE43EFEE43DFDE43CFC9019
:1013AE00011F12202190012512202D000000009017
:1013BE000131E0FEA3E0FFE4FCFD900125122015B3
:1013CE00121EADA804A905AA06AB07900134E0FED3
:1013DE00A3E0FFE4FCFD121EAD900125122021902A
:1013EE00012512200990011F122015C3121FE5407E
:1013FE001290011F12202D00000000900130E060BD
:10140E000214F0900130E0700B900129E0C4540FEB
:04141E00FF1238AAD7
:0114220022A7
:013EA40022FB
:0B337F0090019F1220879001A2EDF04A
:10338A00E4A3F0AF05EFC39411E49001A3F0900118
:10339A00A3E0FDC3947250369001A2E075F072A4C6
:1033AA002400FFE5F03440FE7C00EF2DFFEC3EFEEA
:1033BA0012000390019F1220679001A3E0F5827525
:0E33CA008300EF121D269001A3E004F080C0E6
:0133D80022D2
:0A3E0D00E42FFFEE3440FE023821DE
:0A3E1700E42FFFEE3440FE02319666
:103D7500E42FFFEE3440FE9001F9E09001FFF002E0
:023D85002E50BE
:013EA50022FA
:013EA60022F9
:10000E00123D3C123E35123E8B123489123B981231
:05001E003BD6D2AF2229
:043003004100A200E6
:103BD600E49000A2F0FE7FA2FD7B017A007900123C
:0D3BE60020DC7F007E4B7D007C000232035E
:030023000237DAC7
:1037DA00C0E0C083C082C0D075D000C0073098272F
:1037EA00C2989000A0E0FF04F074002FF582E43440
:1037FA0000F583E599F09000A0E0C394A04002E4AC
:10380A00F09000A2E004F0309902C299D007D0D01B
:07381A00D082D083D0E03220
:083007004101F2004101F30058
:103B9800123C105389F0438901538EF79001F27457
:103BA800FAF0A374C4F0758CFAF58AD2A9D28C22E3
:103C1000E49001E9F09001EBF09001EFF0A3F09057
:0C3C200001EAF09001ECF09001F1F022BC
:03000B00023018A8
:10301800C0E0C0F0C083C082C0D075D000C000C07E
:10302800069001F2E0F58CA3E0F58A9001E87401BE
:10303800F0A3E004F0C3940A4005E4F0A304F09080
:1030480001EBE004F0C394644005E4F0A304F090BD
:1030580001EDE004F0C394F4748094814005E4F039
:10306800A304F09001EFE475F001121DE5FEC3E53D
:10307800F094E8EE9403400A9001EFE4F0A3F0A383
:1030880004F0D006D000D0D0D082D083D0F0D0E0E9
:013098003205
:103B09000A6D679C46F6375D4521EFAC5A50010BAB
:103B1900DF020A6D679C46F6375D4521EFAC5A50C6
:043B2900E10BDF02CB
:08300F00450200CCCCCCCCCC76
:103D3C0053B3FE43B40153B3FD43B40253B1FE433A
:033D4C00B201229F
:013EA70022F8
:103BF300E4FEC290EF30E704D2808002C280EF255A
:0C3C0300E0FFD290000EEEB408E8C29082
:013C0F002292
:043D4F00E4FD7FFC14
:0F3D5300C29100123BF3AF05123BF300D2912255
:0A3967007B019001AB7405F07F3F77
:063971009001A81220875E
:10397700C291E4FD123BF39001ABE0FFEDC39F5012
:10398700159001A81220678D82758300121CC6FF4F
:08399700123BF30D80E1D29117
:01399F002205
:103B7500E4FEC290EF30E704D2808002C280EF25D8
:103B8500E0FFD290000EEEB408E843B10153B2FE57
:023B9500C290DC
:013B9700220B
:103CB400E4FFFEC290EF25E0FFD290308003440180
:083CC400FF0EEEB408EDC29002
:013CCC0022D5
:103D6200C29100123B75123CB453B1FE43B2010042
:023D7200D291EC
:013D7400222C
:0639A00090019612208741
:1039A600C291123B75E4FD900199E0FFEDC39F5073
:1039B60015123CB49001961220678D82758300EF34
:0E39C600121D260D80E153B1FE43B201D291D5
:0139D40022D0
:0E3DB400123D4F7D8E7F20123D5300000022F5
:103AE300E4FEFD7FFC123D537D8F7F20123D53E4A6
:103AF300FD7FFD123D53E4FEFF000FBF00010EBE2C
:053B030013F7BF88F478
:013B0800229A
:0A3E21007F07123D62EF5470FF228C
:063E7F007F09123D6222E2
:073E5E007D707F27023D5338
:0C3DEA00E4FD7FE1123D537FE2023D53F7
:0E3DC200AC07123D4FAF04AD077F25023D5305
:0638ED00123E21EF7038CD
:1038F300900195F0A3F09001ABEDF07FA012397128
:10390300E4FD7FFD123D53E4900195F0A3F0009098
:103913000195E475F001121DE5900195E07004A393
:08392300E064C870E9123D4F99
:01392B002279
:103A6C00AC05123E21EF30E61D123D4F900199EC52
:103A7C00F07F611239A0123DEA123E5EE4FD7FFD3B
:093A8C00123D537F01227F00224C
:1027960078957C017D017BFF7A3B79097E007F0578
:1027A600121C87789A7C017D017BFF7A3B790E7E2D
:1027B600007F03121C87789D7C017D017BFF7A3B9D
:1027C60079117E007F06121C8778A37C017D017B30
:1027D600FF7A3B79177E007F01121C8778A47C0163
:1027E6007D017BFF7A3B79187E007F03121C8712DE
:1027F6003EA77D5A7F53123D537DA57F53123D530D
:102806007D207F3D123D53123D4F7FE1123D537FA8
:10281600E2123D537D707F27123D537D017F2212C8
:102826003D537D037F23123D537D4E7F25123D533D
:102836007D107F31123D537B017A0279009001AB06
:102846007405F07F301239717B017A0279009001AC
:10285600AB7405F07F2A1239717A017995123967BE
:102866007B017A01799D9001AB7406F07F3A1239AB
:10287600717B017A0179A39001AB7401F07F391263
:1028860039717B017A01799A9001AB7403F07F3E2E
:102896001239717B017A0179A49001AB7403F07F40
:1028A6003B123971E4FD7F3C123D537D3F7F26127A
:0E28B6003D53E4FD7F24123D537F21023D532C
:052CB8009001C3EFF0E4
:102CBD00E478C47C017D017BFF7A3B791BFE7F05A7
:102CCD00121C8778C97C017D017BFF7A3B79207EC0
:102CDD00007F03121C8778CC7C017D017BFF7A3B42
:102CED0079237E007F06121C8778D27C017D017BC3
:102CFD00FF7A3B79297E007F01121C8778D37C01F6
:102D0D007D017BFF7A3B792A7E007F03121C877D34
:102D1D005A7F53123D537DA57F53123D537D207F26
:102D2D003D123D53123D4FE4FF000000000FEFB484
:102D3D00DCF79001C3E0FD7F25123D537D3F7F26DB
:102D4D00123D537A0179C41239677B017A0179CC2E
:102D5D009001AB7406F07F3A1239717B017A0179DB
:102D6D00D29001AB7401F07F391239717B017A0178
:102D7D0079C99001AB7403F07F3E1239717B017AF2
:0E2D8D000179D39001AB7403F07F3B023971E2
:1034890053B1F743B20853B1EF43B21053B3FB43FF
:10349900B40443DE01A2AF9209C2AF75C7AA75C7CA
:1034A9005543910143C60875C7AA75C7555391FE7F
:1034B900A20992AF43DE2053DF3F43DF0153DFF917
:1034C90075D1FF75D9FFD2DFE4FBFAFDFCFFFE02DF
:0234D9002BC9FD
:1039D500AD07AC06A2AF9209C2AF75C7AA75C755A8
:1039E500439101A20992AFECF5C5EDF5CDA2AF92D9
:1039F50009C2AF75C7AA75C7555391FEA20992AF03
:033A0500D2DE22EC
:0D3DD000AD07AC06ECF5D5EDF5DDD2DE2239
:0D3DDD00AD07AC06ECF5D2EDF5DAD2DE2232
:102BC90090019FEEF0A3EFF0A3ECF0A3EDF0A3EAE0
:042BD900F0A3EBF08A
:102BDD00A312202D0000000090019FE0FEA3E0FF56
:102BED00E4FCFD9001A51220219001A51220159065
:102BFD0000A3E0FFE4FCFDFE121EC89001A512200B
:102C0D00219001A5122009E47B64FAF9F8121F53F3
:102C1D009001A51220219001A51220091239D590FD
:102C2D0001A1E0FEA3E0FFE4FCFD9001A51220212F
:102C3D009001A51220159000A3E0FFE4FCFDFE120B
:102C4D001EC89001A51220219001A5122009E47B38
:102C5D0064FAF9F8121F539001A51220219001A5D5
:102C6D00122009123DD09001A3E0FEA3E0FFE4FC89
:102C7D00FDA31220219001A51220159000A3E0FFC5
:102C8D00E4FCFDFE121EC89001A51220219001A5A5
:102C9D00122009E47B64FAF9F8121F539001A51272
:0B2CAD0020219001A5122009023DDD4E
:103B2D009000A3EFF0C3940A5003740AF09000A51F
:103B3D00E0FEA3E0FFA3E0FCA3E0FDA3E0FAA3E019
:043B4D00FB022BC983
:093E350053B3EF43B410023E9AAE
:033E9700D29422A0
:033E9A00C29422AD
:033E9D00B29422BA
:063E8500A294E433FF22C9
:0A3E2B00EF6003023E97123E9A2258
:013EA80022F7
:10319600EFF5A6EEF5A7A2AF9209C2AF75C7AA755D
:1031A600C755439F01A20992AFA2AF9209C2AF755C
:1031B600C7AA75C75543A501A20992AF75AF21AF3E
:1031C600058FAEA2AF9209C2AF75C7AA75C75543A0
:1031D600A401A20992AFA2AF9209C2AF75C7AA75A0
:1031E600C75553A5FEA20992AFA2AF9209C2AF7509
:0D31F600C7AA75C755539FFEA20992AF22CC
:103821008FA6EEF5A775AEFFA2AF9209C2AF75C71D
:10383100AA75C755439F01A20992AFA2AF9209C2CF
:10384100AF75C7AA75C75543A501A20992AF75AF58
:1038510022A2AF9209C2AF75C7AA75C75543A40189
:05386100A20992AF2254
:0C2E50009001FAEEF0A3EFF0A31220872F
:102E5C009001FAE0FEA3E0F5A6EEF5A7A2AF920969
:102E6C00C2AF75C7AA75C755439F01A20992AFA2FD
:102E7C00AF9209C2AF75C7AA75C75543A501A20980
:102E8C0092AF75AF21E4FEFF9001FFE0FDC3EF9D13
:102E9C00EE940050299001FC1220678F828E8312D1
:102EAC001CC6F5AEA2AF9209C2AF75C7AA75C755BD
:102EBC0043A401A20992AF0FBF00010E80CAA2AFBA
:102ECC009209C2AF75C7AA75C75553A5FEA2099240
:102EDC00AFA2AF9209C2AF75C7AA75C755539FFE73
:042EEC00A20992AFF6
:012EF00022BF
:040003008F828E83D7
:03000700E493FF80
:01000A0022D3
:073E6500A2B0B3E433FF2219
:073E6C00A297B3E433FF222B
:063E8B00123432023D87F3
:103D28007843E62438F8A607784306E6C3940A40A1
:043D380002E4F62289
:103C2C007842E6FE08667002FF2274382EF8E6FF32
:0B3C3C00784206E6C3940A4002E4F65A
:013C4700225A
:103C48007844E6FE18667002FF2274382EF8E6FF04
:0B3C5800784406E6C3940A4002E4F63C
:013C6300223E
:0B3E0200EF75F00BA4242AF8E6FF2265
:103B5100EF75F00BA42428F8A60408A605AE03EF20
:103B610075F00BA4242BF8A606EF75F00BA4242CFA
:043B7100F8E4F6225C
:063E91007843E618F6225A
:103D870053ACFE53ADFE53B37F53B37FD2B0D2973C
:013D97002209
:10343200E47842F608F608F6FFEF75F00BA42428AC
:10344200F87600087664EF75F00BA42425F876026E
:10345200EF75F00BA4242AF8E4F6EF75F00BA42420
:103462002BF8E4F6EF75F00BA4242CF8E4F60FEF3A
:10347200B402C67BFF7A3E7965782212205E7A3EDC
:07348200796C782D02205E39
:10265900900196EFF0E075F00BA42422F9E4FAFB5F
:102669009002211220871220901220D6EF700302C7
:102679002738900221122067900003121CC6FFC35D
:10268900940550089000037405022792EFC3940A39
:1026990050089000037401021CF3900008121CC634
:1026A900701490000804121D26900196E075F0033D
:1026B900A404FF123D2890022112206790000612FF
:1026C9001DFBFFAEF0D39400EE9400500302279552
:1026D900900004121DFBC39FE5F09E502390000457
:1026E900E475F001121E33FCE5F06F7002EC6E60C8
:1026F90003022795900196E075F003A42403802B2B
:10270900900009121CC6FFD394005003022795902C
:10271900000A7401121CF3C39F407190000AE4126D
:102729001D26900196E075F003A404FF023D289050
:102739000221122067900003121CC6FFD3940540A2
:102749000A9000037405121D26802BEF600A900081
:102759000374FF121CF3801E900008121CC6B401FA
:1027690015900008E4121D26900196E075F003A467
:102779002402FF123D28900221122067900004E4F0
:0D278900F5F0121E8090000AE4121D2622B9
:103C7F00E4900195F0900195E0FFC39402500B1270
:0A3C8F002659900195E004F080EB47
:013C99002208
:10392C0053B1BF53B2BF53B17F53B27F759850435D
:10393C008920438780438E1053C4DFAB07AA06A9A6
:10394C0005A8047F407E427D0F7C00121F53EF04BC
:0B395C00F404F58DD28ED299D2AC227B
:1032030090019512202153B1BF53B2BF53B17F53E5
:10321300B27F75985043878053C4F843C42090010C
:10322300951220157F407E427D0F7C00121F53C3F1
:1032330074FF9FFF74FF9EFEE49DFDE49CFC7808F1
:10324300121FF68FC69001951220157F407E427D96
:103253000F7C00121F53C374FF9FFF8FC543C40825
:05326300D299D2AC225B
:073E3E003098FDAF99C29816
:013E4500225A
:083E4600C2998F993099FD2209
:1032C70090020512202153B1FB53B2FB53B3BF53F6
:1032D700B4BF75F85075C40853C4DF9002051220B7
:1032E700157F407E427D0F7C00121F53C374FF9FE2
:1032F700FF74FF9EFEE49DFDE49CFC7808121FF618
:103307008FC69002051220157F407E427D0F7C00FC
:0E331700121F53C374FF9FFF8FC543C40822CB
:073E4E0030F8FDAF9AC2F845
:013E5500224A
:083E5600C2F98F9A30F9FD2238
:1036F900900209122021538EF7438901D28CE4FFED
:10370900FEFDFC900209122015C3121FE560297500
:103719008A7E758CFF308DFDC28D900209122009B9
:10372900EF24FFFFEE34FFFEED34FFFDEC34FFFC28
:0B37390090020912202180C6C28C22E1
:1037440090020D122021538EF7438901D28CE4FF9D
:10375400FEFDFC90020D122015C3121FE5602975B1
:103764008ACA758CFA308DFDC28D90020D12200923
:10377400EF24FFFFEE34FFFEED34FFFDEC34FFFCDD
:0B37840090020D12202180C6C28C2292
:10378F00900211122021538EEF438910D28EE4FF45
:10379F00FEFDFC900211122015C3121FE560297562
:1037AF008BEA758DCB308FFDC28F900211122009DD
:1037BF00EF24FFFFEE34FFFEED34FFFDEC34FFFC92
:0B37CF0090021112202180C6C28E2241
:1035790090021512202153C9BF53C9DF43C910D284
:10358900CAE4FFFEFDFC900215122015C3121FE5C7
:10359900602975CC3075CDF830CFFDC2CF900215BA
:1035A900122009EF24FFFFEE34FFFEED34FFFDEC9E
:0E35B90034FFFC90021512202180C6C2CA22E7
:1036140090021912202175C40743C408E4FFFEFD7B
:10362400FC900219122015C3121FE5602C75C52CDD
:1036340075C6CFE5C430E4FB53C4EF9002191220E1
:1036440009EF24FFFFEE34FFFEED34FFFDEC34FF01
:0D365400FC90021912202180C353C4F722FC
:1036610090021D12202175C40743C408E4FFFEFD2A
:10367100FC90021D122015C3121FE5602C75C5D8E0
:1036810075C6FFE5C430E4FB53C4EF90021D122060
:1036910009EF24FFFFEE34FFFEED34FFFDEC34FFB4
:0D36A100FC90021D12202180C353C4F722AB
:1028C4000A3D3D3D3D3D3D3D3D3D3D3D3D3D3D3D67
:1028D4003D3D3D3D3D3D3D3D3D3D3D3D3D3D3D3D24
:1028E4003D3D3D3D3D3D3D3D3D3D3D3D3D3D3D3D14
:1028F4003D3D3D3D3D3D3D3D3D3D3D3D3D3D3D3D04
:102904003D3D3D3D3D000A2A2020436F70797269A8
:102914006768742863292032303135204E75766F0C
:10292400746F6E20546563686E6F6C6F67792043B3
:102934006F72702E20416C6C20726967687473200A
:1029440072657365727665642E2020000A2A202041
:10295400436F6E7461637420452D4D61696C3A2038
:102964004D6963726F432D38626974406E75766F7A
:10297400746F6E2E636F6D20202020202020202075
:102984002020202020202020202020202020202043
:1029940020000A2A202044656D6F205665727369F1
:1029A4006F6E20203A202532642E2532642E253283
:1029B40064000A2A202046696E69736865642044AD
:1029C400617465203A202532642E2532642E253226
:0229D40064009D
:103268007BFF7A2879C41221A37BFF7A29790A1275
:1032780021A37BFF7A2979501221A37BFF7A297930
:103288009690016DE4F0A304F0E4A3F0A3F0A3F09A
:10329800A3F01221A37BFF7A2979B690016D7407F8
:1032A800F0A374DFF0A3E4F0A37405F0A3E4F0A3A3
:0F32B800741FF01221A37BFF7A2879C40221A38F
:03000000022EF1DC
:102EF100787FE4F6D8FD9000007FFF7E03E4F0A325
:0A2F0100DFFCDEFA758144022F4662
:102F0B0002249DE493A3F8E493A34003F68001F21B
:102F1B0008DFF48029E493A3F85407240CC8C333C7
:102F2B00C4540F4420C8834004F456800146F6DF96
:102F3B00E4800B0102040810204080902F8BE47E6C
:102F4B00019360BCA3FF543F30E509541FFEE4938B
:102F5B00A360010ECF54C025E060A840B8E493A352
:102F6B00FAE493A3F8E493A3C8C582C8CAC583CA7D
:102F7B00F0A3C8C582C8CAC583CADFE9DEE780BE35
:0130170000B8
:101BB700E709F608DFFA8046E709F208DFFA803E10
:101BC70088828C83E709F0A3DFFA8032E309F608FD
:101BD700DFFA8078E309F208DFFA807088828C8365
:101BE700E309F0A3DFFA806489828A83E0A3F60819
:101BF700DFFA805889828A83E0A3F208DFFA804CF3
:101C070080D280FA80C680D4806980F280338010C9
:101C170080A680EA809A80A880DA80E280CA803332
:101C270089828A83ECFAE493A3C8C582C8CCC583AA
:101C3700CCF0A3C8C582C8CCC583CCDFE9DEE7807A
:101C47000D89828A83E493A3F608DFF9ECFAA9F0F9
:101C5700EDFB2289828A83ECFAE0A3C8C582C8CC4F
:101C6700C583CCF0A3C8C582C8CCC583CCDFEADE68
:101C7700E880DB89828A83E493A3F208DFF980CCCA
:101C870088F0EF60010E4E60C388F0ED2402B404C3
:101C97000050B9F582EB2402B4040050AF2323456A
:061CA7008223901C07736C
:101CAD00BB010689828A83E0225002E722BBFE0235
:091CBD00E32289828A83E4932268
:101CC600BB010CE58229F582E5833AF583E02250D3
:101CD60006E92582F8E622BBFE06E92582F8E2221D
:0D1CE600E58229F582E5833AF583E4932237
:101CF300BB010FF8E58229F582E5833AF583E028F5
:101D0300F0225009C58229F8E58226F622BBFE0996
:101D1300C58229F8E22582F222F8EA2583F583E9D0
:031D2300932822E0
:101D2600F8BB010DE58229F582E5833AF583E8F0F3
:101D3600225006E92582C8F622BBFE05E92582C89F
:021D4600F22287
:101D4800EF8DF0A4A8F0CF8CF0A428CE8DF0A42EAF
:021D5800FE2269
:101D5A00BC000BBE0029EF8DF084FFADF022E4CC6D
:101D6A00F875F008EF2FFFEE33FEEC33FCEE9DEC36
:101D7A00984005FCEE9DFE0FD5F0E9E4CEFD22ED7C
:101D8A00F8F5F0EE8420D21CFEADF075F008EF2FC6
:101D9A00FFED33FD4007985006D5F0F222C398FDB7
:051DAA000FD5F0EA2254
:101DAF00C2D5EC30E709B2D5E4C39DFDE49CFCEE4F
:101DBF0030E715B2D5E4C39FFFE49EFE121D5AC350
:101DCF00E49DFDE49CFC8003121D5A30D507C3E44B
:061DDF009FFFE49EFE22BE
:101DE500C5F0F8A3E028F0C5F0F8E5821582700289
:061DF5001583E038F02226
:101DFB00BB0110E58229F582E5833AF583E0F5F026
:101E0B00A3E0225009E92582F886F008E622BBFE02
:101E1B000AE92582F8E2F5F008E222E5832AF58348
:081E2B00E993F5F0A3E993220D
:101E3300BB010DC58229C582C5833AC583021DE551
:101E43005011C58229F808E5F026F618F5F0E58269
:101E530036F622BBFE11C58229F808E225F0F5F01B
:101E6300F218E23582F222F8E58229F582E5832A27
:0D1E7300F58374019325F0F5F0E493382217
:101E8000F8BB0111E58229F582E5833AF583E8F094
:101E9000E5F0A3F0225009E92582C8F608A6F02251
:0D1EA000BBFE09E92582C8F2E5F008F22238
:0D1EAD00EF2BFFEE3AFEED39FDEC38FC2284
:0E1EBA00C3EF9BFFEE9AFEED99FDEC98FC2223
:101EC800E88FF0A4CC8BF0A42CFCE98EF0A42CFCB9
:101ED8008AF0EDA42CFCEA8EF0A4CDA8F08BF0A437
:101EE8002DCC3825F0FDE98FF0A42CCD35F0FCEB96
:101EF8008EF0A4FEA9F0EB8FF0A4CFC5F02ECD395B
:0F1F0800FEE43CFCEAA42DCE35F0FDE43CFC22C7
:101F170075F008758200EF2FFFEE33FECD33CDCC81
:101F270033CCC58233C5829BED9AEC99E582984004
:101F37000CF582EE9BFEED9AFDEC99FC0FD5F0D6E1
:101F4700E4CEFBE4CDFAE4CCF9A88222B800C1B90B
:101F57000059BA002DEC8BF084CFCECDFCE5F0CB49
:101F6700F97818EF2FFFEE33FEED33FDEC33FCEB82
:101F770033FB10D703994004EB99FB0FD8E5E4F93D
:101F8700FA227818EF2FFFEE33FEED33FDEC33FC2A
:101F9700C933C910D7059BE99A4007EC9BFCE99A1E
:101FA700F90FD8E0E4C9FAE4CCFB2275F010EF2F63
:101FB700FFEE33FEED33FDCC33CCC833C810D70763
:101FC7009BEC9AE899400AED9BFDEC9AFCE899F89E
:0E1FD7000FD5F0DAE4CDFBE4CCFAE4C8F92231
:101FE500EB9FF5F0EA9E42F0E99D42F0E89C45F052
:011FF50022C9
:101FF600E8600FECC313FCED13FDEE13FEEF13FFC9
:03200600D8F122EC
:0C200900E0FCA3E0FDA3E0FEA3E0FF224A
:0C201500E0F8A3E0F9A3E0FAA3E0FB224E
:0C202100ECF0A3EDF0A3EEF0A3EFF02232
:10202D00A8828583F0D083D08212204412204412DE
:10203D002044122044E473E493A3C583C5F0C58303
:10204D00C8C582C8F0A3C583C5F0C583C8C582C8FD
:01205D002260
:09205E00EBF608EAF608E9F622A7
:09206700E0FBA3E0FAA3E0F9227A
:10207000F8E0FBA3A3E0F925F0F0E58215827002F9
:072080001583E0FA38F0229D
:09208700EBF0A3EAF0A3E9F0225A
:10209000BB010789828A830220675005E9F8022183
:1020A0001ABBFE05E9F802212389828A8302212CCA
:1020B000D083D082F8E4937012740193700DA3A3BF
:1020C00093F8740193F5828883E4737402936860D3
:0620D000EFA3A3A380DFD3
:0620D6008A838982E47395
:10213800E508246DF582E43401F583E00508229072
:10214800016A30070390016DE475F00112207002F6
:102158001CAD2000E97F2ED2008018EF540F249088
:10216800D43440D4FF30040BEF24BFB41A0050031A
:102178002461FFE50960021509050CE50C700205EC
:102188000B30070E90016AE475F001122070EF021F
:102198002108023ABC7403D2078003E4C207F50899
:1021A80090016A122087E4F509F50BF50CE5096042
:1021B800077F2012217B80F5750AFFC201C200C289
:1021C80002C203C205C206C208122147FF700D30C1
:1021D80007057F0012218CAF0CAE0B22B4255FC21D
:1021E800D5C204122147FF24D0B40A00501A75F052
:1021F8000A780930D50508B6FF0106C6A426F620D8
:10220800D5047002D20380D924CFB41A00EF500449
:10221800C2E5D20402238DD20180C6D20080C0D28A
:102228000280BCD2D580BAD20580B47F2012217B2F
:102238002002077401B5090040F1122138FF12216C
:102248007B0221B5D208D2068095122138FB1221D3
:1022580038FA122138F94A4B7006795E7A247BFFE6
:1022680020022EE509602A7E008E82758300121CEA
:10227800C660060EEE650A70F0C2D5EBC0E0EAC093
:10228800E0E9C0E0EE1223D4D0E0F9D0E0FAD0E0E3
:10229800FB121CADFF60AAEBC0E0EAC0E0E9C0E0B9
:1022A80012217BD0E02401F9D0E03400FAD0E0FB21
:1022B800E50A0460DCD50AD980877BFF7A2379D0C8
:1022C800D202809C791080027908C206C208800870
:1022D800D2D5790A8004790AC2D5E50A047002F5D4
:1022E8000AE4FAFDFEFF122138FC7B0820011312D4
:1022F8002138FD7B1030000A122138FE122138FFE8
:102308007B20EC3382D592D55013C3E43000069F6E
:10231800FFE49EFEE42001039DFDE49CFCE4CBF871
:10232800C201EC700CCFCECDCCE824F8F870F38065
:1023380017C3EF33FFEE33FEED33FDEC33FCEB3325
:10234800FB994002FB0FD8E9EB300105F8D0E0C457
:1023580048B201C0E00AEC4D4E4F78207B0070C2B5
:10236800EAB50A0040BCC0E01223D6D0F0D0E02085
:102378000104C4C0E0C4B201C0F0122164D0F0D599
:10238800F0EB0221B51220B022525322CC5822235E
:102398004C221F4222D04F22D84422D84922384307
:0823A80022DE5522C24622C2CA
:1023B0004522C247247E5022272D222B2E224E2B2F
:1023C000222F23224C2024672A21E748000022469E
:1023D0003F3F3F00790AA2D5200314300509B91008
:1023E000020404B9080104A2D52006025001042009
:1023F00002689202B509005034C0E07F2030031912
:102400007F30A20272067205500F12242DC202C242
:1024100006C205C2087F30800F300503E9C0E01214
:10242000217B300503D0E0F9D0E0B509CC300517A9
:102430007F30B9100C12217B7F583004077F7880E1
:1024400003B9080312217B3002057F2D02217B7F17
:10245000202008F87F2B2006F322920280CF286EDE
:10246000756C6C2900D2011221383001F8C2017854
:102470000930D50108F60221E72D504349581221B1
:10248000382403B405004001E49024799312216CB0
:0D249000743A12216CD2037509040222CCAB
:0C3DF600EE30E707C3E49FFFE49EFE22CE
:1020DC00EF4E6012EF60010EEDBB010B89828A831B
:1020EC00F0A3DFFCDEFA2289F05007F709DFFCA928
:0C20FC00F022BBFEFCF309DFFCA9F0227F
:10210800BB010689828A83F0225002F722BBFE01B6
:02211800F322B0
:09211A00E6FB08E6FA08E6F922EA
:09212300E2FB08E2FA08E2F922ED
:0C212C00E493FB740193FA740293F9220F
:103ABC00EFB40A07740D123AC7740A309811A8991A
:103ACC00B8130CC2983098FDA899C298B811F6306A
:073ADC0099FDC299F5992242
:00000001FF
