:083034004102250041022400C5
:1025460012000E123F4D123B3E123F49123D7612CB
:1025560035D39001E8E06060E4F0900225E004F0F5
:102566009000A4E0FFC394324027EF24CEFFE4346A
:10257600FFFE7C007D03121E03EF240AFFE43EFEED
:10258600900225E0D39FEE6480F8748098402980FD
:10259600229000A4E0FFC374329FFFE49400FE7C07
:1025A600007D06121E03C3740A9FFF900225E0D326
:1025B6009F4005E4F0120C339001EAE06005E4F078
:1025C600123D289001ECE06008E4F0120026123576
:1025D600849001EEE06002E4F09001F1E06002E434
:0E25E600F0123CD5900192EFF07003022558E0
:1025F400E024FD70030226D51470030226FC240295
:102604006003022558900224E060030226CD900264
:0826140027E020E3030226CDBC
:10261C00E4900193F0A3F0123D8E900193E0FF043F
:10262C00F074412FF582E43401F58374F8F09001D5
:10263C0093E0FF04F074412FF582E43401F58374C8
:10264C0009F0900193E0FF04F074412FF582E4341B
:10265C0001F5837403F0900193E02441F9E4340113
:10266C00FA7B017D08123AE3900193E02408F0E430
:10267C00A3F0900142E02401FFE433FE900194E0CA
:10268C00FDC39FEE6480F8748098502474422DF53D
:10269C0082E43401F583E0FF900193E02441F5825C
:1026AC00E43401F583E02FF0900194E004F080C253
:1026BC00900193E004F07B017A017941E0FD123145
:0126CC004CC1
:1026CD00E4900224F00225589002247401F0900247
:1026DD0027E0FF30E30954F7F0123D0D0225589025
:1026ED000227E04408F054FBF0123DA602255812D3
:0526FD003F46022558D4
:013F49002255
:013F4A002254
:013F4B002253
:013F4C002252
:063F1C009001E2022130D9
:063F22009001E5022130D0
:0E3E41009001E2122110E94A600312217F2253
:0E3E4F009001E5122110E94A600312217F2242
:103AB100EF4E602D9001D8EEF0A3EFF0AF05A3EC2F
:103AC100F0A3EFF0AF03A3EAF0A3EFF0E4A3F0A3B8
:103AD100F0A3F0A3F09001D7F09001D604F0123ECC
:023AE100412280
:103DBD00E49001D6F0123E4F7B007A007900123F5D
:043DCD001C023F2273
:102E44009001D6E07003022EF89001DAE0FEA3E0D0
:102E5400FF4E7003022EF89001D7E07035D3EF9443
:102E640000EE94005003022EF89001DEE475F001A8
:102E7400121E8EFED39001D9E095F09001D8E09E09
:102E84005072123E4FE49001DEF0A3F09001D7049B
:102E9400F0229001D7E06401705A9001DE75F001D0
:102EA400121E8EFED39001DBE095F09001DAE09ED5
:102EB40050429001DCE0FEA3E0FF9400EE94004059
:102EC400259001E0E475F001121E8EFCD3EF95F01D
:102ED400EE9C5005E49001D6F09001D6E070079086
:102EE40001DAF0A3F022E49001DEF0A3F09001D720
:052EF400F0123E412236
:10303C00410151005001520000000000000000004E
:10304C0000000000000000500141000000000000E2
:10305C0000000000000000000000480162000000B9
:05306C0000000000005F
:103B3E00E4900151F0FE7F10FD7B017A0179521263
:103B4E0021857E007F107D007B017A017941122153
:073B5E008512283F023B8C99
:0A31420004F07B017A017941E0FD01
:0B314C0090019C12213090019FEDF0DB
:10315700E4FFFE0000000FBF00010EEF64144E7085
:10316700F2123E5D9001517401F0E4FEFF00000091
:10317700000FBF00010EEF64C84E70F190019C1262
:10318700211074019001416B7008E965827003EAB0
:10319700658360257E007F107D007B017A01794180
:1031A70012218590019FE0FF7E0078417C017D011F
:0931B70090019C122110121D3040
:0131C00022EC
:06147400900195122130E9
:10147A00E4900198F0A3F0A3F0A3F0121D5664F2D1
:10148A006003021C5F900195122110900001121D49
:10149A006FD394104003021C5FE4900199F090010D
:1014AA0095122110900001121D6F2401FFE433FEF2
:1014BA00900199E0FDC39FEE6480F87480985023F0
:1014CA00ED2401FFE433FE9001951221108F828EE4
:1014DA0083121D6FFF90019BE02FF0900199E004A9
:1014EA00F080BB900195122110900001121D6FF53A
:1014FA0082758300A3A3121D6FFF90019BE06F60AA
:10150A0003021C5F7E007F107D007B017A01794116
:10151A00122185E490019AF0900195122110900011
:10152A0002121D6F122159158901168102173A03F9
:10153A001940041942051944061946071955081590
:10154A008C0919645019825119A05219AF5319D133
:10155A00541B09551B19561B38571B48581B5B59F6
:10156A001B615A1B715B1B895C1B8F5D1BA75E1974
:10157A00737019917119407317F3B900001C560260
:10158A001973900195122110900003121D6FB40176
:10159A0005123F40802690019512211090000312F7
:1015AA001D6FB40205123F4380129001951221105B
:1015BA00900003121D6FB40303123F4690019AE094
:1015CA00FF04F074412FF582E43401F58374F8F0D6
:1015DA0090019AE0FF04F074412FF582E43401F59A
:1015EA00837402F0900195122110900002121D6F6F
:1015FA00FF90019AE0FE04F074412EF582E4340172
:10160A00F583EFF0123F2EEF90019A6013E0FF048A
:10161A00F074412FF582E43401F5837401F08011EE
:10162A00E0FF04F074412FF582E43401F58374027B
:10163A00F0E4900199F0900142E02401FFE433FEC6
:10164A00900199E0FDC39FEE6480F874809840038E
:10165A00021C5674422DF582E43401F583E0FF90B2
:10166A00019AE02441F582E43401F583E02FF090F9
:10167A000199E004F080BF900227E0FF20E0030216
:10168A00198254FBF0123DA6900227E020E30302E0
:10169A001C56123D4390019AE0FF04F074412FF565
:1016AA0082E43401F58374F8F090019AE0FF04F0C3
:1016BA0074412FF582E43401F5837409F090019A9C
:1016CA00E0FF04F074412FF582E43401F5837402DB
:1016DA00F090019AE02441F9E43401FA7B017D0893
:1016EA00123AE390019AE02408F0E4900199F0900C
:1016FA000142E02401FFE433FE900199E0FDC39F1B
:10170A00EE6480F8748098502474422DF582E43493
:10171A0001F583E0FF90019AE02441F582E4340167
:10172A00F583E02FF0900199E004F080C2021AFFDD
:10173A00900227E0FF20E0030219AF54FBF0123DAC
:10174A00A6900227E020E303021C56123D8E900168
:10175A009AE0FF04F074412FF582E43401F58374B2
:10176A00F8F090019AE0FF04F074412FF582E43416
:10177A0001F5837409F090019AE0FF04F074412F97
:10178A00F582E43401F5837403F090019AE0244170
:10179A00F9E43401FA7B017D08123AE390019AE0F8
:1017AA002408F0E4900199F0900142E02401FFE45A
:1017BA0033FE900199E0FDC39FEE6480F87480982F
:1017CA00502474422DF582E43401F583E0FF900140
:1017DA009AE02441F582E43401F583E02FF0900188
:1017EA0099E004F080C2021AFF900227E030E00577
:1017FA0054FEF08010900227E04401F04408F0E41F
:10180A00FDFF122A7F90019AE0FF04F074412FF540
:10181A0082E43401F58374F8F090019AE0FF04F051
:10182A0074412FF582E43401F583740BF090019A28
:10183A00E0FF04F074412FF582E43401F58374B9B2
:10184A00F0900227E05401FF90019AE0FE04F07440
:10185A00412EF582E43401F583EFF0900227E090FF
:10186A00019A30E312E0FF04F074412FF582E43468
:10187A0001F583E4F08011E0FF04F074412FF58252
:10188A00E43401F5837401F090019AE02441F9E40B
:10189A003401FA7B017D08123AE3E4900199F09051
:1018AA000199E0FFC394085040A3E0FE2441F58269
:1018BA00E43401F583E5822FF582E43583F583E08C
:1018CA006003B4FF1C900199E0FF74412EF582E495
:1018DA003401F583E5822FF582E43583F58374209C
:1018EA00F0900199E004F080B690019AE02408F0A3
:1018FA00E4900199F0900142E02401FFE433FE9064
:10190A000199E0FDC39FEE6480F8748098502474B6
:10191A00422DF582E43401F583E0FF90019AE02438
:10192A0041F582E43401F583E02FF0900199E00457
:10193A00F080C2021AFF807C804D805A7B007A00B8
:10194A007900E49001A0F07F0780767B007A007925
:10195A0000E49001A0F07F0880677B007A0079009C
:10196A00E49001A0F07F0880587B007A007900E4B7
:10197A009001A0F07F0180497B007A007900E49011
:10198A0001A0F07F02803A7B007A007900E490019E
:10199A00A0F07F05802B7B007A007900E49001A0FB
:1019AA00F07F06801C7B007A007900E49001A0F0A9
:1019BA007F03800D7B007A007900E49001A0F07F1C
:1019CA0004122B82021C56900227E0FF20E30844EF
:1019DA0008F0123DA6800A900227E054F7F0123D63
:1019EA000D90019AE0FF04F074412FF582E434016E
:1019FA00F58374F8F090019AE0FF04F074412FF532
:101A0A0082E43401F583740AF090019AE0FF04F04D
:101A1A0074412FF582E43401F5837401F0900227B2
:101A2A00E090019A30E312E0FF04F074412FF5824E
:101A3A00E43401F583E4F08011E0FF04F074412FEF
:101A4A00F582E43401F5837401F090019AE02441AF
:101A5A00F9E43401FA7B017D08123AE3E490019932
:101A6A00F0900199E0FFC394085040A3E0FE24419E
:101A7A00F582E43401F583E5822FF582E43583F5B6
:101A8A0083E06003B4FF1C900199E0FF74412EF5D6
:101A9A0082E43401F583E5822FF582E43583F58308
:101AAA007420F0900199E004F080B690019AE02445
:101ABA0008F0E4900199F0900142E02401FFE43338
:101ACA00FE900199E0FDC39FEE6480F874809850FF
:101ADA002474422DF582E43401F583E0FF90019AE3
:101AEA00E02441F582E43401F583E02FF090019976
:101AFA00E004F080C290019AE0123142021C569032
:101B0A000227E054FBF0123DA6123D8E021C5690AD
:101B1A0000A4E0D394644003021C56E0240AF0E0D7
:101B2A00C394645003021C567464F0021C5690025B
:101B3A0027E04404F0E4FDFF122A7F021C569000BD
:101B4A00A4E0C3940A5003021C56E024F6F0021CD7
:101B5A0056123757021C56900227E054FBF0123DEA
:101B6A00A6123D43021C569000A3E0D3946450226F
:101B7A00E0240AF0E0C3946440187464F0801312FD
:101B8A003670021C569000A3E0C3940A4004E02475
:101B9A00F6F09000A3E0FF123BD6021C56123F4615
:101BAA0090019AE0FF04F074412FF582E43401F5C4
:101BBA008374F8F090019AE0FF04F074412FF582E3
:101BCA00E43401F5837402F090019AE0FF04F074A2
:101BDA00412FF582E43401F5837409F0123F2EEFA8
:101BEA0090019A6013E0FF04F074412FF582E43407
:101BFA0001F5837401F08011E0FF04F074412FF5C0
:101C0A0082E43401F5837402F0E4900199F09001C2
:101C1A0042E02401FFE433FE900199E0FDC39FEE08
:101C2A006480F8748098502474422DF582E434015B
:101C3A00F583E0FF90019AE02441F582E43401F54E
:101C4A0083E02FF0900199E004F080C290019AE0BD
:051C5A0060031231429D
:011C5F002262
:10358400900151E06031123ECAEF24F0601824D05B
:10359400601224207016123E93123F07E4900151EA
:1035A400F0023B8C8000123E93023F077B017A01BC
:1035B40079417D100239967B017A0179527D10128E
:0F35C4003B15EF60097B017A01795212147422D2
:103071004101AC004101AD004101B1004101B2008B
:103081004201AE00004101B0005001B30000000058
:0C30910000000000000000000000000033
:103D7600E49001ACF0A3F09001B1F0FE7FA2FD7BD0
:083D8600017A00790002218599
:102B820090019D122130E49001ACF0E0FE04F0745B
:102B9200B32EF582E43401F5837455F09001ACE074
:102BA200FE04F074B32EF582E43401F58374AAF0C6
:102BB2009001A0E004FE9001ACE0FD04F074B32D9E
:102BC200F582E43401F583EEF09001ACE0FE04F00E
:102BD20074B32EF582E43401F583EFF0E49001B191
:102BE200F09001A0E0FF9001B1E0FEC39F502A9057
:102BF200019D1221108E82758300121D6FFE9001BD
:102C0200ACE0FD04F074B32DF582E43401F583EEFB
:102C1200F09001B1E004F080C87B017A0179B3EF52
:102C22002404FD1234829001ACE0FE04F074B32E51
:102C3200F582E43401F583EFF0E49001B1F0900104
:102C4200A0E02405FFE433FE9001B1E0FDC39FEE56
:102C52006480F8748098501774B32DF582E43401BF
:102C6200F583E0FF123EEF9001B1E004F080CF2245
:100026009000A2E07003020C3214F09000A0E024CD
:10003600A0FFE433FEA3E0FBFDC3EF9DFFEE9400BB
:10004600FE7C007DA0121E03EDC3940440D2740012
:100056002BF582E43400F583E064556003020C1E40
:100066009000A1E07A002401FFEA33FE7C007DA027
:10007600121E5874002DF58274003CF583E064AAC4
:100086006003020C1EEB2402FFEA33FE7C007DA017
:10009600121E5874002DF58274003CF583E0900121
:1000A600ADF09000A0E024A0FFE433CFC39BCF9A2D
:1000B600FE7C007DA0121E589001ADE02404FFE4F2
:1000C60033FEC3ED9FEE6480F8EC64809850030223
:1000D6000C249000A1E0FF2400F9E43400FA7B012F
:1000E6009001ADE02403FD90019DEFF0A374A0F014
:1000F6001231C1AB079001ADE0FF9000A1E02FFFE8
:10010600E433CF2403CF3400FE7C007DA0121E58BA
:1001160074002DF58274003CF583E06B6003020CDD
:100126001EE49001ACF0FE7F10FD7B017A0179415F
:100136001221859000A1E0FB7A002403FFEA33FE3A
:100146007C007DA0121E5874002DF58274003CF5CB
:1001560083E0122159018F1203863104603308CAE5
:1001660034054435062836070C3702AC3807F0410B
:1001760009AE540AF2570AFF620B64630B8A640BDA
:09018600AC650BDA6600000C0800
:10018F00E4900195F0A3F0EB240CFFE43AFE7C0021
:10019F007DA0121E5874002DF58274003CF583E08B
:1001AF00FF7E00900195EEF0A3EFF0C39410EE9454
:1001BF00004003020C08900195E07002A3E0702844
:1001CF009001B07410F0E4A3F09001B0E0FFA3E051
:1001DF00FEC39F5013EE75F080A4FFAEF0123EB633
:1001EF009001B1E004F080E19000A1E0240DFFE464
:1001FF0033FE7C007DA0121E5874002DF582740012
:10020F003CF583E0540FFF9001AEE4F0A3EFF0E470
:10021F009001B1F09001AEE0FEA3E0FF7C007D0DF8
:10022F00121DF1EF240AFFE43EFE9001B1E0FBC383
:05023F009FEC9E504BF6
:10024400900195E0FEA3E0FF7D72121DF1EBFD2FFE
:10025400FFEC3EFEA3F0A3EFF0C006C0079000A1A0
:10026400E02404FFE433CF2DCF3CFE7DA0121E58C2
:1002740074002DF58274003CF583E0FDD007D006B0
:03028400123EC067
:100287009001B1E004F08094900195A3E09001B053
:10029700F07B017A0179B09001A07401F07F12120E
:0202A7002B82A8
:1002A900020C089001ACE0FF04F074412FF582E4E0
:1002B9003401F58374F8F09001ADE0FF9001ACE0F2
:1002C900FE04F074412EF582E43401F583EFF090D9
:1002D90001ACE0FF04F074412FF582E43401F583A9
:1002E9007438F0E49001B1F09001ADE014FF900191
:1002F900B1E0FEC39F50409000A1E02404FDE43327
:10030900FCEE7E002DFFEE3CFE7C007DA0121E5807
:1003190074002DF58274003CF583E0FF9001ACE098
:10032900FE04F074412EF582E43401F583EFF09078
:1003390001B1E004F080B1E49001B1F0900142E034
:100349002401FFE433FE9001B1E0FDC39FEE648018
:10035900F8748098502474422DF582E43401F583B1
:10036900E0FF9001ACE02441F582E43401F583E03B
:100379002FF09001B1E004F080C2020ADE9001ACD6
:10038900E0FF04F074412FF582E43401F58374F839
:10039900F09001ADE0FF9001ACE0FE04F074412E55
:1003A900F582E43401F583EFF09001ACE0FF04F04D
:1003B90074412FF582E43401F5837431F0E490013E
:1003C900B1F09001ADE014FF9001B1E0FEC39F5080
:1003D900409000A1E02404FDE433FCEE7E002DFFF3
:1003E900EE3CFE7C007DA0121E5874002DF582742F
:1003F900003CF583E0FF9001ACE0FE04F074412E6F
:10040900F582E43401F583EFF09001B1E004F08066
:10041900B1E49001B1F0900142E02401FFE433FE20
:100429009001B1E0FDC39FEE6480F8748098502478
:1004390074422DF582E43401F583E0FF9001ACE0CC
:100449002441F582E43401F583E02FF09001B1E015
:1004590004F080C2020ADE900227E030E003020CB9
:10046900089001ACE0FF04F074412FF582E43401F7
:10047900F58374F8F09001ADE0FF9001ACE0FE0463
:10048900F074412EF582E43401F583EFF09001AC6C
:10049900E0FF04F074412FF582E43401F5837433ED
:1004A900F0E49001B1F09001ADE014FF9001B1E0EA
:1004B900FEC39F50409000A1E02404FDE433FCEE0C
:1004C9007E002DFFEE3CFE7C007DA0121E587400BC
:1004D9002DF58274003CF583E0FF9001ACE0FE0449
:1004E900F074412EF582E43401F583EFF09001B107
:1004F900E004F080B1E49001B1F0900142E0240100
:10050900FFE433FE9001B1E0FDC39FEE6480F8740F
:100519008098502474422DF582E43401F583E0FF7C
:100529009001ACE02441F582E43401F583E02FF039
:100539009001B1E004F080C2020ADE900227E030A7
:10054900E003020C089001ACE0FF04F074412FF5C0
:1005590082E43401F58374F8F09001ADE0FF900175
:10056900ACE0FE04F074412EF582E43401F583EF2A
:10057900F09001ACE0FF04F074412FF582E43401FE
:10058900F5837435F0E49001B1F09001ADE014FF0A
:100599009001B1E0FEC39F50409000A1E02404FD0A
:1005A900E433FCEE7E002DFFEE3CFE7C007DA012C4
:1005B9001E5874002DF58274003CF583E0FF90010C
:1005C900ACE0FE04F074412EF582E43401F583EFCA
:1005D900F09001B1E004F080B1E49001B1F0900134
:1005E90042E02401FFE433FE9001B1E0FDC39FEE38
:1005F9006480F8748098502474422DF582E43401A3
:10060900F583E0FF9001ACE02441F582E43401F583
:1006190083E02FF09001B1E004F080C2020ADE907D
:100629000227E030E003020C089001ACE0FF04F07F
:1006390074412FF582E43401F58374F8F09001AD2B
:10064900E0FF9001ACE0FE04F074412EF582E43441
:1006590001F583EFF09001ACE0FF04F074412FF550
:1006690082E43401F5837436F0E49001B1F090012D
:10067900ADE014FF9001B1E0FEC39F50409000A18E
:10068900E02404FDE433FCEE7E002DFFEE3CFE7C0D
:10069900007DA0121E5874002DF58274003CF5836C
:1006A900E0FF9001ACE0FE04F074412EF582E434E1
:1006B90001F583EFF09001B1E004F080B1E490011D
:1006C900B1F0900142E02401FFE433FE9001B1E072
:1006D900FDC39FEE6480F8748098502474422DF510
:1006E90082E43401F583E0FF9001ACE02441F58216
:1006F900E43401F583E02FF09001B1E004F080C209
:10070900020ADE900227E030E003020C089001ACF7
:10071900E0FF04F074412FF582E43401F58374F8A5
:10072900F09001ADE0FF9001ACE0FE04F074412EC1
:10073900F582E43401F583EFF09001ACE0FF04F0B9
:1007490074412FF582E43401F5837437F0E49001A4
:10075900B1F09001ADE014FF9001B1E0FEC39F50EC
:10076900409000A1E02404FDE433FCEE7E002DFF5F
:10077900EE3CFE7C007DA0121E5874002DF582749B
:10078900003CF583E0FF9001ACE0FE04F074412EDB
:10079900F582E43401F583EFF09001B1E004F080D3
:1007A900B1E49001B1F0900142E02401FFE433FE8D
:1007B9009001B1E0FDC39FEE6480F87480985024E5
:1007C90074422DF582E43401F583E0FF9001ACE039
:1007D9002441F582E43401F583E02FF09001B1E082
:1007E90004F080C2020ADE9001ACE0FF04F074411B
:1007F9002FF582E43401F58374F8F09001ADE0FF40
:100809009001ACE0FE04F074412EF582E43401F568
:1008190083EFF09001ACE0FF04F074412FF582E41E
:100829003401F5837441F0E49001B1F09001ADE039
:1008390014FF9001B1E0FEC39F50409000A1E02455
:1008490004FDE433FCEE7E002DFFEE3CFE7C007DD2
:10085900A0121E5874002DF58274003CF583E0FF48
:100869009001ACE0FE04F074412EF582E43401F508
:1008790083EFF09001B1E004F080B1E49001B1F0B0
:10088900900142E02401FFE433FE9001B1E0FDC391
:100899009FEE6480F8748098502474422DF582E4A8
:1008A9003401F583E0FF9001ACE02441F582E434A2
:1008B90001F583E02FF09001B1E004F080C2020A53
:1008C900DE900227E030E003020C089001ACE0FF63
:1008D90004F074412FF582E43401F58374F8F09043
:1008E90001ADE0FF9001ACE0FE04F074412EF58209
:1008F900E43401F583EFF09001ACE0FF04F07441BA
:100909002FF582E43401F5837434F0E49001B1F0F9
:100919009001ADE014FF9001B1E0FEC39F504090FB
:1009290000A1E02404FDE433FCEE7E002DFFEE3C43
:10093900FE7C007DA0121E5874002DF58274003CC7
:10094900F583E0FF9001ACE0FE04F074412EF582DE
:10095900E43401F583EFF09001B1E004F080B1E4F3
:100969009001B1F0900142E02401FFE433FE9001CF
:10097900B1E0FDC39FEE6480F874809850247442FE
:100989002DF582E43401F583E0FF9001ACE02441C8
:10099900F582E43401F583E02FF09001B1E004F031
:1009A90080C2020ADE900227E0FF20E3084408F033
:1009B900123DA6800A900227E054F7F0123D0D90EF
:1009C90001ACE0FF04F074412FF582E43401F583B2
:1009D90074F8F09001ACE0FF04F074412FF582E463
:1009E9003401F583740AF09001ACE0FF04F074411E
:1009F9002FF582E43401F5837401F0900227E09029
:100A090001AC30E312E0FF04F074412FF582E434C5
:100A190001F583E4F08011E0FF04F074412FF582C1
:100A2900E43401F5837401F09001ACE02441F9E468
:100A39003401FA7B017D08123AE3E49001B1F090A8
:100A490001B1E0FFC3940850429001ACE0FE24419B
:100A5900F582E43401F583E5822FF582E43583F5E7
:100A690083E06003B4FF1C9001B1E0FF74412EF5EF
:100A790082E43401F583E5822FF582E43583F58339
:100A89007420F09001B1E004F080B49001ACE0244E
:100A990008F0E49001B1F0900142E02401FFE43351
:100AA900FE9001B1E0FDC39FEE6480F87480985018
:100AB9002474422DF582E43401F583E0FF9001AC02
:100AC900E02441F582E43401F583E02FF09001B18F
:100AD900E004F080C29001ACE004F07B017A017976
:100AE90041E0FD12314C020C08900227E04404F069
:100AF900E4FDFF020BD59000A1E0FB7A002404FF7E
:100B0900EA33FE7C007DA0121E5874002DF5827414
:100B1900003CF583E0FFC007EB2405FFEA33FE7CC8
:100B2900007DA0121E5874002DF58274003CF583D7
:100B3900E0FDC0059000A1E02406FFE433FE7C003F
:100B49007DA0121E5874002DF58274003CF583E0D7
:100B5900FBD005D00712390F020C089000A1E02440
:100B690004FFE433FE7C007DA0121E5874002DF5AD
:100B79008274003CF583E0FF9000A3F0123BD6801D
:100B89007E9000A1E02404FFE433FE7C007DA012E6
:100B99001E5874002DF58274003CF583E09000A482
:100BA900F0805C900227E054FBF0123DA69000A172
:100BB900E02404FFE433FE7C007DA0121E5874007B
:100BC9002DF58274003CF583E0FFE4FD122A7F8055
:010BD9002EED
:100BDA009000A1E02404FFE433FE7C007DA0121EF5
:100BEA005874002DF58274003CF583E0900195F06D
:0E0BFA00E0FFC4540F7007EF540FFF123ED4FB
:100C08009001ADE02404FF9000A1E02FF0E075F022
:100C1800A084E5F0F0229000A1E004F09000A1E0AB
:0B0C280075F0A084E5F0F00200262229
:103482009001A1122130AE05E4900228F0AF061E91
:10349200EF6040900228E0FF9001A1E475F0011274
:1034A2002119121D566F900228F0E4A3F090022910
:1034B200E0C3940850D7900228E030E007C31364B9
:1034C2008CF08007900228E0C313F0900229E004F8
:0934D200F080DA900228E0FF22EC
:1031C100900199122130AE05E4900228F0AF061E5D
:1031D100EF6065900228E0FF900199E475F001121B
:1031E1002119121D566F900228F090019DE004F004
:1031F100A3E0FF90019DE0C39F4012E4F0EFFDE4E6
:103201009DFDE4940090019A8DF0121E8EE49002CF
:1032110029F0900229E0C3940850B2900228E030CE
:10322100E007C313648CF08007900228E0C313F019
:0E323100900229E004F080DA900228E0FF22EB
:103C6100FFFFFF00FF000000FFFF000000FFFFFF5C
:0E3C710000FFFFFF0000FF800080FFFF8000CB
:0F309D004100AB00410124004401250000000068
:1035D3009000AB7409F07E007F067D007B017A01C9
:1035E300791E1221857E007F017D007B017A01799E
:1035F300361221857E007F727D007B017A0079ACD3
:103603001221857E007F087D007B017A0079A31259
:0F36130021859000A37464F0A37432F0023D0D82
:103670009000ABE0600414F080069000AB7409F099
:103680009000ABE0FE75F003A42461F582E4343CC5
:10369000F583E493FFEE75F003A42462F582E4342D
:1036A0003CF583E493FD9000ABE075F003A4246344
:0D36B000F582E4343CF583E493FB02390F0E
:103757009000ABE004F0E0C3940A4002E4F090006C
:10376700ABE0FE75F003A42461F582E4343CF583F5
:10377700E493FFEE75F003A42462F582E4343CF58C
:1037870083E493FD9000ABE075F003A42463F58216
:0B379700E4343CF583E493FB02390F9F
:103D4300900136E0600414F080069001367410F0A0
:0A3D5300900136E0FF7D02022A7F96
:103D8E00900136E004F0E0C394114002E4F090019B
:083D9E0036E0FF7D01022A7FDF
:103AE30090019C122130EDD39408400C7B007A00A6
:103AF300790090019C022130AF057E0090019C1259
:103B03002110A801AC02AD037B017A0079AC121D30
:023B130030225E
:103DA6009000AB7409F0900227E04408F0900136C9
:073DB600E0FFE4FD022A7F9B
:103D0D00900227E054F7F0E4900130F0900134F088
:0B3D1D00A3F0FBFAFDFCFFFE022C727D
:1033CE0090019AEFF02401FFE433FE9000B5E05433
:1033DE000FB50714E4B5061090019AF0E075F00DE4
:1033EE00A424B6F97400800D90019AE075F00DA436
:1033FE0024C3F9740035F0FA7B0178297C017D0134
:10340E007E007F0D121D3078377C017D017B017AA5
:0A341E000079AC7E007F0A021D3029
:102A7F0090019DEDF090019CEFF0FBE490011EF0B2
:102A8F00A31220D600000000E4900123F0EBD394B2
:102A9F0010400C9001367410F090019CF08008905B
:102AAF00019CE0900136F090019DE0701A7B017A55
:102ABF000079AC90019CE0FD1234289000ACE0F45A
:0F2ACF006003022B5C806F90019DE06401703CFE
:102ADE00A3F0F07B017A0079AC90019CE0FD1234FA
:102AEE00289000ACE0F4706690019CE07002804784
:102AFE0090019CE004F0E0C394114002E4F09001D8
:0C2B0E009EE004F0E0C3941140C9804236
:082B1A0090019DE06402703A95
:102B2200A3F0F07B017A0079AC90019CE0FD1234B5
:102B3200289000ACE0F4702290019CE0600414F054
:102B4200800CE4FBFAFDFCFFFE122C72800C90015B
:0A2B52009EE004F0E0C3941140C9B6
:102B5C0078297C017D017B017A0079B67E007F0D9E
:102B6C00121D3078377C017D017B017A0079AC7EB7
:062B7C00007F0A021D307B
:10395300900199EFF0E490011EF0A31220D600002D
:1039630000009001237432F0900227E030E21690B9
:103973000124E004F0E0D394045002800DE49001AC
:1039830024F0023D8EE4900124F0900199E0FF12AF
:0339930033CE220E
:10390F0090019CEFF0A3EDF0A3EBF0123D0D9001B1
:10391F009CE09000A5F0A3E4F090019DE09000A73B
:10392F00F0A3E4F090019EE07F009000A9F0FAA3CD
:10393F00EFF0FB9000A5E0FEA3E0FFA3E0FCA3E007
:04394F00FD022C72D7
:100C3300900227E020E303021473900123E0600392
:100C430014F022900130E0700D900134E07002A3A3
:100C5300E07003021473900129E0540F24FC700325
:100C63000210011470030211EF24026003021473D3
:100C730090011F1220B2EF2401FFE43EFEE43DFD8C
:100C8300E43CFC90011F1220CA90012DE0FF90016B
:100C93002AE0FEC39F5064EEFDC3EF9DFFE4940082
:100CA300FE123E9FEE3395E0FDFCC004C005C00676
:100CB300C007E4FF7E01FDFC90011F1220BE121F3E
:100CC30071D003D002D001D000121F71C006C0073B
:100CD300900131E0FEA3E0FBAA06E4F9F8D007D0C7
:100CE30006121FFCA804A905AA06AB0790012AE077
:100CF3007F00FEE4FCFD121F56806890012AE0FF8E
:100D030090012DE0C39FFFE49400FE123E9FEE335B
:100D130095E0FDFCC004C005C006C007E4FF7E01EA
:100D2300FDFC90011F1220BE121F71D003D002D010
:100D330001D000121F71C006C007900131E0FEA36D
:100D4300E0FBAA06E4F9F8D007D006121FFCA804BA
:100D5300A905AA06AB0790012AE07F00FEE4FCFD8B
:100D6300121F639001251220CA900133E0FFE4FCB7
:100D7300FDFE9001251220BE121F71E47B64FAF977
:100D8300F8121FFC9001251220CA9001251220B2EF
:100D93009000A5EEF0A3EFF090012EE0FF90012B61
:100DA300E0FEC39F5064EEFDC3EF9DFFE49400FE9D
:100DB300123E9FEE3395E0FDFCC004C005C006C0A3
:100DC30007E4FF7E01FDFC90011F1220BE121F717C
:100DD300D003D002D001D000121F71C006C007900B
:100DE3000131E0FEA3E0FBAA06E4F9F8D007D00640
:100DF300121FFCA804A905AA06AB0790012BE07FEC
:100E030000FEE4FCFD121F56806890012BE0FF906A
:100E1300012EE0C39FFFE49400FE123E9FEE339544
:100E2300E0FDFCC004C005C006C007E4FF7E01FD71
:100E3300FC90011F1220BE121F71D003D002D001FB
:100E4300D000121F71C006C007900131E0FEA3E07D
:100E5300FBAA06E4F9F8D007D006121FFCA804A9E0
:100E630005AA06AB0790012BE07F00FEE4FCFD1210
:100E73001F639001251220CA900133E0FFE4FCFDBB
:100E8300FE9001251220BE121F71E47B64FAF9F86B
:100E9300121FFC9001251220CA9001251220B29046
:100EA30000A7EEF0A3EFF090012FE0FF90012CE0FC
:100EB300FEC39F5064EEFDC3EF9DFFE49400FE125A
:100EC3003E9FEE3395E0FDFCC004C005C006C0079D
:100ED300E4FF7E01FDFC90011F1220BE121F71D0A2
:100EE30003D002D001D000121F71C006C0079001C9
:100EF30031E0FEA3E0FBAA06E4F9F8D007D006121E
:100F03001FFCA804A905AA06AB0790012CE07F00EB
:100F1300FEE4FCFD121F56806890012CE0FF900157
:100F23002FE0C39FFFE49400FE123E9FEE3395E053
:100F3300FDFCC004C005C006C007E4FF7E01FDFC44
:100F430090011F1220BE121F71D003D002D001D016
:100F530000121F71C006C007900131E0FEA3E0FB41
:100F6300AA06E4F9F8D007D006121FFCA804A905C5
:100F7300AA06AB0790012CE07F00FEE4FCFD121FE4
:100F8300639001251220CA900133E0FFE4FCFDFECB
:100F93009001251220BE121F71E47B64FAF9F81246
:100FA3001FFC9001251220CA9001251220B2900047
:100FB300A9EEF0FAA3EFF0FB9000A5E0FEA3E0FF9B
:100FC300A3E0FCA3E0FD122C72900131E0FEA3E04C
:100FD300FFE4FCFD90011F1220BEC312208E4012BD
:100FE30090011F1220D600000000900130E0600243
:100FF30014F0900130E0600302147302146890014E
:101003001EE07012A31220B2EF2401FFE43EFEE4BF
:101013003DFDE43C802190011F1220B2EC4D4E4F68
:10102300601C90011F1220B2EF24FFFFEE34FFFE7D
:10103300ED34FFFDEC34FFFC90011F1220CAE47F66
:10104300FFFEFDFC90011F1220BE121F71A804A910
:1010530005AA06AB0790012AE0FFE4FCFDFE121F80
:1010630071C006C007900131E0FEA3E0FBAA06E4CD
:10107300F9F8D007D006121FFC9001251220CA9060
:101083000133E0FFE4FCFDFE9001251220BE121F98
:1010930071E47B64FAF9F8121FFC9001251220CA4F
:1010A3009001251220B29000A5EEF0A3EFF0E47FAB
:1010B300FFFEFDFC90011F1220BE121F71A804A9A0
:1010C30005AA06AB0790012BE0FFE4FCFDFE121F0F
:1010D30071C006C007900131E0FEA3E0FBAA06E45D
:1010E300F9F8D007D006121FFC9001251220CA90F0
:1010F3000133E0FFE4FCFDFE9001251220BE121F28
:1011030071E47B64FAF9F8121FFC9001251220CADE
:101113009001251220B29000A7EEF0A3EFF0E47F38
:10112300FFFEFDFC90011F1220BE121F71A804A92F
:1011330005AA06AB0790012CE0FFE4FCFDFE121F9D
:1011430071C006C007900131E0FEA3E0FBAA06E4EC
:10115300F9F8D007D006121FFC9001251220CA907F
:101163000133E0FFE4FCFDFE9001251220BE121FB7
:1011730071E47B64FAF9F8121FFC9001251220CA6E
:101183009001251220B29000A9EEF0FAA3EFF0FB34
:101193009000A5E0FEA3E0FFA3E0FCA3E0FD122C7A
:1011A30072900131E0FEA3E0FFE4FCFD90011F1209
:1011B30020BEC312208E5011E4FFFEFDFC90011FE0
:1011C3001220BEC312208E701790011EE07004041B
:1011D300F0800DE490011EF0900130E0600214F005
:0C11E300900130E06003021473021468F5
:1011EF009001951220D6000000FFE4FFFEFDFC9059
:1011FF00011F1220BEC312208E60030212E990015C
:10120F002AE0FFE4FCFDFE9001951220BE121F7133
:10121F00A804A905AA06AB07900133E0FFE4FCFD83
:10122F00FE121F71E47B64FAF9F8121FFC9001257E
:10123F001220CA9001251220B29000A5EEF0A3EF64
:10124F00F090012BE0FFE4FCFDFE9001951220BE13
:10125F00121F71A804A905AA06AB07900133E0FF7E
:10126F00E4FCFDFE121F71E47B64FAF9F8121FFC17
:10127F009001251220CA9001251220B29000A7EEEE
:10128F00F0A3EFF090012CE0FFE4FCFDFE90019540
:10129F001220BE121F71A804A905AA06AB07900160
:1012AF0033E0FFE4FCFDFE121F71E47B64FAF9F8F2
:1012BF00121FFC9001251220CA9001251220B29016
:1012CF0000A9EEF0FAA3EFF0FB9000A5E0FEA3E07B
:1012DF00FFA3E0FCA3E0FD122C72900131E0FEA30E
:1012EF00E0FFE4FCFD9001251220CA900125122099
:1012FF00B290011F1220BEC312208E60030213EBA7
:10130F0090012DE0FFE4FCFDFE9001951220BE122E
:10131F001F71A804A905AA06AB07900133E0FFE4EB
:10132F00FCFDFE121F71E47B64FAF9F8121FFC90AA
:10133F0001251220CA9001251220B29000A5EEF0CF
:10134F00A3EFF090012EE0FFE4FCFDFE900195125B
:10135F0020BE121F71A804A905AA06AB079001337E
:10136F00E0FFE4FCFDFE121F71E47B64FAF9F81252
:10137F001FFC9001251220CA9001251220B2900067
:10138F00A7EEF0A3EFF090012FE0FFE4FCFDFE903D
:10139F0001951220BE121F71A804A905AA06AB075A
:1013AF00900133E0FFE4FCFDFE121F71E47B64FA51
:1013BF00F9F8121FFC9001251220CA900125122066
:1013CF00B29000A9EEF0FAA3EFF0FB9000A5E0FEBB
:1013DF00A3E0FFA3E0FCA3E0FD122C7290011F120B
:1013EF0020B2EF2401FFE43EFEE43DFDE43CFC901F
:1013FF00011F1220CA9001251220D6000000009074
:10140F000131E0FEA3E0FFE4FCFD9001251220BEB8
:10141F00121F56A804A905AA06AB07900134E0FED7
:10142F00A3E0FFE4FCFD121F569001251220CA9085
:10143F0001251220B290011F1220BEC312208E4030
:10144F001290011F1220D600000000900130E060C2
:10145F000214F0900130E0700B900129E0C4540F9A
:04146F00FF123953DC
:011473002256
:013F4D002251
:0B34280090019F1221309001A2EDF0F6
:10343300E4A3F0AF05EFC39411E49001A3F090016E
:10344300A3E0FDC3947250369001A2E075F072A41C
:103453002400FFE5F03440FE7C00EF2DFFEC3EFE40
:1034630012000390019F1221109001A3E0F58275D1
:0E3473008300EF121DCF9001A3E004F080C093
:013481002228
:0A3EB600E42FFFEE3440FE0238CA8C
:0A3EC000E42FFFEE3440FE02323F13
:103E1E00E42FFFEE3440FE9001F9E09001FFF00236
:023E2E002EF96B
:013F4E002250
:013F4F00224F
:10000E00123DE5123EDE123F34123532123C4112E1
:05001E003C7FD2AF227F
:0430AC004100A2003D
:103C7F00E49000A2F0FE7FA2FD7B017A0079001292
:0D3C8F0021857F007E4B7D007C000232AC61
:030023000238831D
:10388300C0E0C083C082C0D075D000C00730982785
:10389300C2989000A0E0FF04F074002FF582E43496
:1038A30000F583E599F09000A0E0C394A04002E402
:1038B300F09000A2E004F0309902C299D007D0D072
:0738C300D082D083D0E03277
:0830B0004101F2004101F300AF
:103C4100123CB95389F0438901538EF79001F27404
:103C5100FAF0A374C4F0758CFAF58AD2A9D28C2239
:103CB900E49001E9F09001EBF09001EFF0A3F090AE
:0C3CC90001EAF09001ECF09001F1F02213
:03000B000230C1FF
:1030C100C0E0C0F0C083C082C0D075D000C000C0D5
:1030D100069001F2E0F58CA3E0F58A9001E8740115
:1030E100F0A3E004F0C3940A4005E4F0A304F090D7
:1030F10001EBE004F0C394644005E4F0A304F09014
:1031010001EDE004F0C394F4748094814005E4F08F
:10311100A304F09001EFE475F001121E8EFEC3E5E9
:10312100F094E8EE9403400A9001EFE4F0A3F0A3D9
:1031310004F0D006D000D0D0D082D083D0F0D0E03F
:01314100325B
:103BB2000A6D679C46F6375D4521EFAC5A50010B02
:103BC200DF020A6D679C46F6375D4521EFAC5A501D
:043BD200E10BDF0222
:0830B800450200CCCCCCCCCCCD
:103DE50053B3FE43B40153B3FD43B40253B1FE4391
:033DF500B20122F6
:013F5000224E
:103C9C00E4FEC290EF30E704D2808002C280EF25B0
:0C3CAC00E0FFD290000EEEB408E8C290D9
:013CB80022E9
:043DF800E4FD7FFC6B
:0F3DFC00C29100123C9CAF05123C9C00D2912258
:0A3A10007B019001AB7405F07F3FCD
:063A1A009001A81221300A
:103A2000C291E4FD123C9C9001ABE0FFEDC39F50BE
:103A3000159001A81221108D82758300121D6FFF51
:083A4000123C9C0D80E1D291C3
:013A4800225B
:103C1E00E4FEC290EF30E704D2808002C280EF252E
:103C2E00E0FFD290000EEEB408E843B10153B2FEAD
:023C3E00C29032
:013C40002261
:103D5D00E4FFFEC290EF25E0FFD2903080034401D6
:083D6D00FF0EEEB408EDC29058
:013D7500222B
:103E0B00C29100123C1E123D5D53B1FE43B2010044
:023E1B00D29142
:013E1D002282
:063A4900900196122130ED
:103A4F00C291123C1EE4FD900199E0FFEDC39F501F
:103A5F0015123D5D9001961221108D82758300EF36
:0E3A6F00121DCF0D80E153B1FE43B201D29182
:013A7D002226
:0E3E5D00123DF87D8E7F20123DFC00000022F9
:103B8C00E4FEFD7FFC123DFC7D8F7F20123DFCE4AA
:103B9C00FD7FFD123DFCE4FEFF000FBF00010EBED9
:053BAC0013F7BF88F4CF
:013BB10022F1
:0A3ECA007F07123E0BEF5470FF2239
:063F28007F09123E0B228E
:073F07007D707F27023DFCE5
:0C3E9300E4FD7FE1123DFC7FE2023DFCFB
:0E3E6B00AC07123DF8AF04AD077F25023DFC09
:06399600123ECAEF70387A
:10399C00900195F0A3F09001ABEDF07FA0123A1AD4
:1039AC00E4FD7FFD123DFCE4900195F0A3F0009046
:1039BC000195E475F001121E8E900195E07004A340
:0839CC00E064C870E9123DF847
:0139D40022D0
:103B1500AC05123ECAEF30E61D123DF8900199EC56
:103B2500F07F61123A49123E93123F07E4FD7FFD93
:093B3500123DFC7F01227F0022F9
:10283F0078957C017D017BFF7A3B79B27E007F0525
:10284F00121D30789A7C017D017BFF7A3B79B77E30
:10285F00007F03121D30789D7C017D017BFF7A3B49
:10286F0079BA7E007F06121D3078A37C017D017B33
:10287F00FF7A3B79C07E007F01121D3078A47C0166
:10288F007D017BFF7A3B79C17E007F03121D3012E1
:10289F003F507D5A7F53123DFC7DA57F53123DFC67
:1028AF007D207F3D123DFC123DF87FE1123DFC7F04
:1028BF00E2123DFC7D707F27123DFC7D017F2212CD
:1028CF003DFC7D037F23123DFC7D4E7F25123DFC99
:1028DF007D107F31123DFC7B017A0279009001ABB4
:1028EF007405F07F30123A1A7B017A027900900159
:1028FF00AB7405F07F2A123A1A7A017995123A10C1
:10290F007B017A01799D9001AB7406F07F3A123A00
:10291F001A7B017A0179A39001AB7401F07F391210
:10292F003A1A7B017A01799A9001AB7403F07F3EDA
:10293F00123A1A7B017A0179A49001AB7403F07FEC
:10294F003B123A1AE4FD7F3C123DFC7D3F7F26127D
:0E295F003DFCE4FD7F24123DFC7F21023DFC87
:052D61009001C3EFF03A
:102D6600E478C47C017D017BFF7A3B79C4FE7F0554
:102D7600121D3078C97C017D017BFF7A3B79C97EC3
:102D8600007F03121D3078CC7C017D017BFF7A3BEE
:102D960079CC7E007F06121D3078D27C017D017BC6
:102DA600FF7A3B79D27E007F01121D3078D37C01F9
:102DB6007D017BFF7A3B79D37E007F03121D307D38
:102DC6005A7F53123DFC7DA57F53123DFC7D207F2B
:102DD6003D123DFC123DF8E4FF000000000FEFB489
:102DE600DCF79001C3E0FD7F25123DFC7D3F7F2689
:102DF600123DFC7A0179C4123A107B017A0179CC32
:102E06009001AB7406F07F3A123A1A7B017A017987
:102E1600D29001AB7401F07F39123A1A7B017A0124
:102E260079C99001AB7403F07F3E123A1A7B017A9E
:0E2E36000179D39001AB7403F07F3B023A1A8E
:1035320053B1F743B20853B1EF43B21053B3FB4355
:10354200B40443DE01A2AF9209C2AF75C7AA75C720
:103552005543910143C60875C7AA75C7555391FED5
:10356200A20992AF43DE2053DF3F43DF0153DFF96D
:1035720075D1FF75D9FFD2DFE4FBFAFDFCFFFE0235
:023582002C72A9
:103A7E00AD07AC06A2AF9209C2AF75C7AA75C755FE
:103A8E00439101A20992AFECF5C5EDF5CDA2AF922F
:103A9E0009C2AF75C7AA75C7555391FEA20992AF59
:033AAE00D2DE2243
:0D3E7900AD07AC06ECF5D5EDF5DDD2DE228F
:0D3E8600AD07AC06ECF5D2EDF5DAD2DE2288
:102C720090019FEEF0A3EFF0A3ECF0A3EDF0A3EA36
:042C8200F0A3EBF0E0
:102C8600A31220D60000000090019FE0FEA3E0FF03
:102C9600E4FCFD9001A51220CA9001A51220BE9069
:102CA60000A3E0FFE4FCFDFE121F719001A51220B7
:102CB600CA9001A51220B2E47B64FAF9F8121FFC4F
:102CC6009001A51220CA9001A51220B2123A7E9058
:102CD60001A1E0FEA3E0FFE4FCFD9001A51220CADD
:102CE6009001A51220BE9000A3E0FFE4FCFDFE12B9
:102CF6001F719001A51220CA9001A51220B2E47B93
:102D060064FAF9F8121FFC9001A51220CA9001A5D9
:102D16001220B2123E799001A3E0FEA3E0FFE4FC8C
:102D2600FDA31220CA9001A51220BE9000A3E0FFC9
:102D3600E4FCFDFE121F719001A51220CA9001A5A8
:102D46001220B2E47B64FAF9F8121FFC9001A51276
:0B2D560020CA9001A51220B2023E86A8
:103BD6009000A3EFF0C3940A5003740AF09000A576
:103BE600E0FEA3E0FFA3E0FCA3E0FDA3E0FAA3E070
:043BF600FB022C7230
:093EDE0053B3EF43B410023F435B
:033F4000D29422F6
:033F4300C2942203
:033F4600B2942210
:063F2E00A294E433FF221F
:0A3ED400EF6003023F40123F43225B
:013F5100224D
:10323F00EFF5A6EEF5A7A2AF9209C2AF75C7AA75B3
:10324F00C755439F01A20992AFA2AF9209C2AF75B2
:10325F00C7AA75C75543A501A20992AF75AF21AF94
:10326F00058FAEA2AF9209C2AF75C7AA75C75543F6
:10327F00A401A20992AFA2AF9209C2AF75C7AA75F6
:10328F00C75553A5FEA20992AFA2AF9209C2AF755F
:0D329F00C7AA75C755539FFEA20992AF2222
:1038CA008FA6EEF5A775AEFFA2AF9209C2AF75C774
:1038DA00AA75C755439F01A20992AFA2AF9209C226
:1038EA00AF75C7AA75C75543A501A20992AF75AFAF
:1038FA0022A2AF9209C2AF75C7AA75C75543A401E0
:05390A00A20992AF22AA
:0C2EF9009001FAEEF0A3EFF0A3122130DC
:102F05009001FAE0FEA3E0F5A6EEF5A7A2AF9209BF
:102F1500C2AF75C7AA75C755439F01A20992AFA253
:102F2500AF9209C2AF75C7AA75C75543A501A209D6
:102F350092AF75AF21E4FEFF9001FFE0FDC3EF9D69
:102F4500EE940050299001FC1221108F828E83127D
:102F55001D6FF5AEA2AF9209C2AF75C7AA75C75569
:102F650043A401A20992AF0FBF00010E80CAA2AF10
:102F75009209C2AF75C7AA75C75553A5FEA2099296
:102F8500AFA2AF9209C2AF75C7AA75C755539FFEC9
:042F9500A20992AF4C
:012F99002215
:040003008F828E83D7
:03000700E493FF80
:01000A0022D3
:073F0E00A2B0B3E433FF226F
:073F1500A297B3E433FF2281
:063F34001234DB023E30F6
:103DD1007843E62438F8A607784306E6C3940A40F8
:043DE10002E4F622E0
:103CD5007842E6FE08667002FF2274382EF8E6FF89
:0B3CE500784206E6C3940A4002E4F6B1
:013CF00022B1
:103CF1007844E6FE18667002FF2274382EF8E6FF5B
:0B3D0100784406E6C3940A4002E4F692
:013D0C002294
:0B3EAB00EF75F00BA4242AF8E6FF22BC
:103BFA00EF75F00BA42428F8A60408A605AE03EF77
:103C0A0075F00BA4242BF8A606EF75F00BA4242C50
:043C1A00F8E4F622B2
:063F3A007843E618F622B0
:103E300053ACFE53ADFE53B37F53B37FD2B0D29792
:013E4000225F
:1034DB00E47842F608F608F6FFEF75F00BA4242803
:1034EB00F87600087664EF75F00BA42425F87602C5
:1034FB00EF75F00BA4242AF8E4F6EF75F00BA42477
:10350B002BF8E4F6EF75F00BA4242CF8E4F60FEF90
:10351B00B402C67BFF7A3F790E78221221077A3FDD
:07352B007915782D0221073C
:10270200900196EFF0E075F00BA42422F9E4FAFBB5
:1027120090022112213012213912217FEF7003021F
:1027220027E1900221122110900003121D6FFFC3B6
:1027320094055008900003740502283BEFC3940AE5
:1027420050089000037401021D9C900008121D6F36
:10275200701490000804121DCF900196E075F003EA
:10276200A404FF123DD19002211221109000061202
:102772001EA4FFAEF0D39400EE9400500302283E54
:10278200900004121EA4C39FE5F09E502390000403
:10279200E475F001121EDCFCE5F06F7002EC6E6075
:1027A2000302283E900196E075F003A42403802BD7
:1027B200900009121D6FFFD39400500302283E902F
:1027C200000A7401121D9CC39F407190000AE4121A
:1027D2001DCF900196E075F003A404FF023DD19055
:1027E2000221122110900003121D6FFFD3940540A5
:1027F2000A9000037405121DCF802BEF600A90002F
:102802000374FF121D9C801E900008121D6FB401FC
:1028120015900008E4121DCF900196E075F003A414
:102822002402FF123DD1900221122110900004E4F3
:0D283200F5F0121F2990000AE4121DCF22BC
:103D2800E4900195F0900195E0FFC39402500B12C6
:0A3D38002702900195E004F080EBF3
:013D4200225E
:1039D50053B1BF53B2BF53B17F53B27F75985043B4
:1039E5008920438780438E1053C4DFAB07AA06A9FD
:1039F50005A8047F407E427D0F7C00121FFCEF046A
:0B3A0500F404F58DD28ED299D2AC22D1
:1032AC009001951220CA53B1BF53B2BF53B17F5393
:1032BC00B27F75985043878053C4F843C420900163
:1032CC00951220BE7F407E427D0F7C00121FFCC3F6
:1032DC0074FF9FFF74FF9EFEE49DFDE49CFC780848
:1032EC0012209F8FC69001951220BE7F407E427D9A
:1032FC000F7C00121FFCC374FF9FFF8FC543C408D3
:05330C00D299D2AC22B1
:073EE7003098FDAF99C2986D
:013EEE0022B1
:083EEF00C2998F993099FD2260
:103370009002051220CA53B1FB53B2FB53B3BF53A3
:10338000B4BF75F85075C40853C4DF90020512200D
:10339000BE7F407E427D0F7C00121FFCC374FF9FE6
:1033A000FF74FF9EFEE49DFDE49CFC780812209FC4
:1033B0008FC69002051220BE7F407E427D0F7C00AA
:0E33C000121FFCC374FF9FFF8FC543C4082279
:073EF70030F8FDAF9AC2F89C
:013EFE0022A1
:083EFF00C2F98F9A30F9FD228F
:1037A2009002091220CA538EF7438901D28CE4FF9A
:1037B200FEFDFC9002091220BEC312208E60297504
:1037C2008A7E758CFF308DFDC28D9002091220B267
:1037D200EF24FFFFEE34FFFEED34FFFDEC34FFFC7F
:0B37E2009002091220CA80C6C28C228F
:1037ED0090020D1220CA538EF7438901D28CE4FF4B
:1037FD00FEFDFC90020D1220BEC312208E602975B5
:10380D008ACA758CFA308DFDC28D90020D1220B2D0
:10381D00EF24FFFFEE34FFFEED34FFFDEC34FFFC33
:0B382D0090020D1220CA80C6C28C223F
:103838009002111220CA538EEF438910D28EE4FFF2
:10384800FEFDFC9002111220BEC312208E60297565
:103858008BEA758DCB308FFDC28F9002111220B28A
:10386800EF24FFFFEE34FFFEED34FFFDEC34FFFCE8
:0B3878009002111220CA80C6C28E22EE
:103622009002151220CA53C9BF53C9DF43C910D231
:10363200CAE4FFFEFDFC9002151220BEC312208ECA
:10364200602975CC3075CDF830CFFDC2CF90021510
:103652001220B2EF24FFFFEE34FFFEED34FFFDEC4B
:0E36620034FFFC9002151220CA80C6C2CA2294
:1036BD009002191220CA75C40743C408E4FFFEFD29
:1036CD00FC9002191220BEC312208E602C75C52CE1
:1036DD0075C6CFE5C430E4FB53C4EF900219122038
:1036ED00B2EF24FFFFEE34FFFEED34FFFDEC34FFAF
:0D36FD00FC9002191220CA80C353C4F722AA
:10370A0090021D1220CA75C40743C408E4FFFEFDD7
:10371A00FC90021D1220BEC312208E602C75C5D8E3
:10372A0075C6FFE5C430E4FB53C4EF90021D1220B6
:10373A00B2EF24FFFFEE34FFFEED34FFFDEC34FF61
:0D374A00FC90021D1220CA80C353C4F72258
:10296D000A3D3D3D3D3D3D3D3D3D3D3D3D3D3D3DBD
:10297D003D3D3D3D3D3D3D3D3D3D3D3D3D3D3D3D7A
:10298D003D3D3D3D3D3D3D3D3D3D3D3D3D3D3D3D6A
:10299D003D3D3D3D3D3D3D3D3D3D3D3D3D3D3D3D5A
:1029AD003D3D3D3D3D000A2A2020436F70797269FF
:1029BD006768742863292032303135204E75766F63
:1029CD00746F6E20546563686E6F6C6F677920430A
:1029DD006F72702E20416C6C207269676874732061
:1029ED0072657365727665642E2020000A2A202098
:1029FD00436F6E7461637420452D4D61696C3A208F
:102A0D004D6963726F432D38626974406E75766FD0
:102A1D00746F6E2E636F6D202020202020202020CB
:102A2D002020202020202020202020202020202099
:102A3D0020000A2A202044656D6F20566572736947
:102A4D006F6E20203A202532642E2532642E2532D9
:102A5D0064000A2A202046696E6973686564204403
:102A6D00617465203A202532642E2532642E25327C
:022A7D006400F3
:103311007BFF7A29796D12224C7BFF7A2979B312CE
:10332100224C7BFF7A2979F912224C7BFF7A2A7988
:103331003F90016DE4F0A304F0E4A3F0A3F0A3F047
:10334100A3F012224C7BFF7A2A795F90016D7407FA
:10335100F0A374DFF0A3E4F0A37405F0A3E4F0A3F9
:0F336100741FF012224C7BFF7A29796D02224CE7
:03000000022F9A32
:102F9A00787FE4F6D8FD9000007FFF7E03E4F0A37B
:0A2FAA00DFFCDEFA758144022FEF10
:102FB400022546E493A3F8E493A34003F68001F2C8
:102FC40008DFF48029E493A3F85407240CC8C3331E
:102FD400C4540F4420C8834004F456800146F6DFED
:102FE400E4800B0102040810204080903034E47E19
:102FF400019360BCA3FF543F30E509541FFEE493E2
:10300400A360010ECF54C025E060A840B8E493A3A8
:10301400FAE493A3F8E493A3C8C582C8CAC583CAD3
:10302400F0A3C8C582C8CAC583CADFE9DEE780BE8B
:0130C000000F
:101C6000E709F608DFFA8046E709F208DFFA803E66
:101C700088828C83E709F0A3DFFA8032E309F60853
:101C8000DFFA8078E309F208DFFA807088828C83BB
:101C9000E309F0A3DFFA806489828A83E0A3F6086F
:101CA000DFFA805889828A83E0A3F208DFFA804C49
:101CB00080D280FA80C680D4806980F28033801020
:101CC00080A680EA809A80A880DA80E280CA803389
:101CD00089828A83ECFAE493A3C8C582C8CCC58301
:101CE000CCF0A3C8C582C8CCC583CCDFE9DEE780D1
:101CF0000D89828A83E493A3F608DFF9ECFAA9F050
:101D0000EDFB2289828A83ECFAE0A3C8C582C8CCA5
:101D1000C583CCF0A3C8C582C8CCC583CCDFEADEBE
:101D2000E880DB89828A83E493A3F208DFF980CC20
:101D300088F0EF60010E4E60C388F0ED2402B40419
:101D40000050B9F582EB2402B4040050AF232345C0
:061D50008223901CB07319
:101D5600BB010689828A83E0225002E722BBFE028B
:091D6600E32289828A83E49322BE
:101D6F00BB010CE58229F582E5833AF583E0225029
:101D7F0006E92582F8E622BBFE06E92582F8E22273
:0D1D8F00E58229F582E5833AF583E493228D
:101D9C00BB010FF8E58229F582E5833AF583E0284B
:101DAC00F0225009C58229F8E58226F622BBFE09ED
:101DBC00C58229F8E22582F222F8EA2583F583E927
:031DCC0093282237
:101DCF00F8BB010DE58229F582E5833AF583E8F04A
:101DDF00225006E92582C8F622BBFE05E92582C8F6
:021DEF00F222DE
:101DF100EF8DF0A4A8F0CF8CF0A428CE8DF0A42E06
:021E0100FE22BF
:101E0300BC000BBE0029EF8DF084FFADF022E4CCC3
:101E1300F875F008EF2FFFEE33FEEC33FCEE9DEC8C
:101E2300984005FCEE9DFE0FD5F0E9E4CEFD22EDD2
:101E3300F8F5F0EE8420D21CFEADF075F008EF2F1C
:101E4300FFED33FD4007985006D5F0F222C398FD0D
:051E53000FD5F0EA22AA
:101E5800C2D5EC30E709B2D5E4C39DFDE49CFCEEA5
:101E680030E715B2D5E4C39FFFE49EFE121E03C3FC
:101E7800E49DFDE49CFC8003121E0330D507C3E4F7
:061E88009FFFE49EFE2214
:101E8E00C5F0F8A3E028F0C5F0F8E58215827002DF
:061E9E001583E038F0227C
:101EA400BB0110E58229F582E5833AF583E0F5F07C
:101EB400A3E0225009E92582F886F008E622BBFE59
:101EC4000AE92582F8E2F5F008E222E5832AF5839F
:081ED400E993F5F0A3E9932264
:101EDC00BB010DC58229C582C5833AC583021E8EFE
:101EEC005011C58229F808E5F026F618F5F0E582C0
:101EFC0036F622BBFE11C58229F808E225F0F5F072
:101F0C00F218E23582F222F8E58229F582E5832A7D
:0D1F1C00F58374019325F0F5F0E49338226D
:101F2900F8BB0111E58229F582E5833AF583E8F0EA
:101F3900E5F0A3F0225009E92582C8F608A6F022A7
:0D1F4900BBFE09E92582C8F2E5F008F2228E
:0D1F5600EF2BFFEE3AFEED39FDEC38FC22DA
:0E1F6300C3EF9BFFEE9AFEED99FDEC98FC2279
:101F7100E88FF0A4CC8BF0A42CFCE98EF0A42CFC0F
:101F81008AF0EDA42CFCEA8EF0A4CDA8F08BF0A48D
:101F91002DCC3825F0FDE98FF0A42CCD35F0FCEBEC
:101FA1008EF0A4FEA9F0EB8FF0A4CFC5F02ECD39B1
:0F1FB100FEE43CFCEAA42DCE35F0FDE43CFC221E
:101FC00075F008758200EF2FFFEE33FECD33CDCCD8
:101FD00033CCC58233C5829BED9AEC99E58298405B
:101FE0000CF582EE9BFEED9AFDEC99FC0FD5F0D638
:101FF000E4CEFBE4CDFAE4CCF9A88222B800C1B962
:102000000059BA002DEC8BF084CFCECDFCE5F0CB9F
:10201000F97818EF2FFFEE33FEED33FDEC33FCEBD8
:1020200033FB10D703994004EB99FB0FD8E5E4F993
:10203000FA227818EF2FFFEE33FEED33FDEC33FC80
:10204000C933C910D7059BE99A4007EC9BFCE99A74
:10205000F90FD8E0E4C9FAE4CCFB2275F010EF2FB9
:10206000FFEE33FEED33FDCC33CCC833C810D707B9
:102070009BEC9AE899400AED9BFDEC9AFCE899F8F4
:0E2080000FD5F0DAE4CDFBE4CCFAE4C8F92287
:10208E00EB9FF5F0EA9E42F0E99D42F0E89C45F0A8
:01209E00221F
:10209F00E8600FECC313FCED13FDEE13FEEF13FF1F
:0320AF00D8F12243
:0C20B200E0FCA3E0FDA3E0FEA3E0FF22A1
:0C20BE00E0F8A3E0F9A3E0FAA3E0FB22A5
:0C20CA00ECF0A3EDF0A3EEF0A3EFF02289
:1020D600A8828583F0D083D0821220ED1220ED12E3
:1020E60020ED1220EDE473E493A3C583C5F0C58308
:1020F600C8C582C8F0A3C583C5F0C583C8C582C854
:0121060022B6
:09210700EBF608EAF608E9F622FD
:09211000E0FBA3E0FAA3E0F922D0
:10211900F8E0FBA3A3E0F925F0F0E582158270024F
:072129001583E0FA38F022F3
:09213000EBF0A3EAF0A3E9F022B0
:10213900BB010789828A830221105005E9F802212F
:10214900C3BBFE05E9F80221CC89828A830221D525
:10215900D083D082F8E4937012740193700DA3A315
:1021690093F8740193F5828883E473740293686029
:06217900EFA3A3A380DF29
:06217F008A838982E473EB
:1021E100E508246DF582E43401F583E005082290C9
:1021F100016A30070390016DE475F00112211902A3
:102201001D562000E97F2ED2008018EF540F249034
:10221100D43440D4FF30040BEF24BFB41A00500370
:102221002461FFE50960021509050CE50C70020542
:102231000B30070E90016AE475F001122119EF02CB
:1022410021B1023B657403D2078003E4C207F5089C
:1022510090016A122130E4F509F50BF50CE50960EE
:10226100077F2012222480F5750AFFC201C200C235
:1022710002C203C205C206C2081221F0FF700D306E
:1022810007057F00122235AF0CAE0B22B4255FC2C9
:10229100D5C2041221F0FF24D0B40A00501A75F0FF
:1022A1000A780930D50508B6FF0106C6A426F6202E
:1022B100D5047002D20380D924CFB41A00EF5004A0
:1022C100C2E5D204022436D20180C6D20080C0D237
:1022D1000280BCD2D580BAD20580B47F20122224DC
:1022E1002002077401B5090040F11221E1FF122219
:1022F1002402225ED208D20680951221E1FB12212E
:10230100E1FA1221E1F94A4B700679077A257BFF40
:1023110020022EE509602A7E008E82758300121D3F
:102321006F60060EEE650A70F0C2D5EBC0E0EAC040
:10233100E0E9C0E0EE12247DD0E0F9D0E0FAD0E08F
:10234100FB121D56FF60AAEBC0E0EAC0E0E9C0E065
:10235100122224D0E02401F9D0E03400FAD0E0FBCD
:10236100E50A0460DCD50AD980877BFF7A24797974
:10237100D202809C791080027908C206C2088008C6
:10238100D2D5790A8004790AC2D5E50A047002F52A
:102391000AE4FAFDFEFF1221E1FC7B082001131281
:1023A10021E1FD7B1030000A1221E1FE1221E1FF43
:1023B1007B20EC3382D592D55013C3E43000069FC5
:1023C100FFE49EFEE42001039DFDE49CFCE4CBF8C8
:1023D100C201EC700CCFCECDCCE824F8F870F380BC
:1023E10017C3EF33FFEE33FEED33FDEC33FCEB337C
:1023F100FB994002FB0FD8E9EB300105F8D0E0C4AE
:1024010048B201C0E00AEC4D4E4F78207B0070C20B
:10241100EAB50A0040BCC0E012247FD0F0D0E02031
:102421000104C4C0E0C4B201C0F012220DD0F0D545
:10243100F0EB02225E12215922FB5323755822CC64
:102441004C22C84223794F23814423814922E1430D
:08245100238755236B46236B22
:1024590045236B4725275022D02D22D42E22F72B36
:1024690022D82322F52025102A229048000022EFA5
:102479003F3F3F00790AA2D5200314300509B9105E
:10248900020404B9080104A2D5200602500104205F
:1024990002689202B509005034C0E07F2030031968
:1024A9007F30A20272067205500F1224D6C202C2F0
:1024B90006C205C2087F30800F300503E9C0E0126B
:1024C9002224300503D0E0F9D0E0B509CC30051756
:1024D9007F30B9100C1222247F583004077F78808E
:1024E90003B908031222243002057F2D0222247F1A
:1024F900202008F87F2B2006F322920280CF286E35
:10250900756C6C2900D2011221E13001F8C2017801
:102519000930D50108F60222902D5043495812215D
:10252900E12403B405004001E49025229312221509
:0D253900743A122215D203750904022375AD
:0C3E9F00EE30E707C3E49FFFE49EFE2224
:10218500EF4E6012EF60010EEDBB010B89828A8371
:10219500F0A3DFFCDEFA2289F05007F709DFFCA97E
:0C21A500F022BBFEFCF309DFFCA9F022D5
:1021B100BB010689828A83F0225002F722BBFE010D
:0221C100F32207
:0921C300E6FB08E6FA08E6F92241
:0921CC00E2FB08E2FA08E2F92244
:0C21D500E493FB740193FA740293F92266
:103B6500EFB40A07740D123B70740A309811A899C6
:103B7500B8130CC2983098FDA899C298B811F630C0
:073B850099FDC299F5992298
:00000001FF
