:082FF600410225004102240004
:1025080012000E123F0F123B00123F0B123D381201
:1025180035959001E8E06060E4F0900225E004F071
:102528009000A4E0FFC394324027EF24CEFFE434A8
:10253800FFFE7C007D03121DC5EF240AFFE43EFE6A
:10254800900225E0D39FEE6480F87480984029803B
:10255800229000A4E0FFC374329FFFE49400FE7C45
:10256800007D06121DC5C3740A9FFF900225E0D3A3
:102578009F4005E4F0120C089001EAE06005E4F0E1
:10258800123CEA9001ECE06008E4F01200261235F3
:10259800469001EEE06002E4F09001F1E06002E4B0
:0E25A800F0123C97900192EFF0700302251A9A
:1025B600E024FD70030226971470030226BE24024F
:1025C600600302251A900224E0600302268F90021F
:0825D60027E020E30302268F39
:1025DE00E4900193F0A3F0123D50900193E0FF04BC
:1025EE00F074412FF582E43401F58374F8F0900114
:1025FE0093E0FF04F074412FF582E43401F5837407
:10260E0009F0900193E0FF04F074412FF582E43459
:10261E0001F5837403F0900193E02441F9E4340151
:10262E00FA7B017D08123AA5900193E02408F0E4AC
:10263E00A3F0900142E02401FFE433FE900194E008
:10264E00FDC39FEE6480F8748098502474422DF57B
:10265E0082E43401F583E0FF900193E02441F5829A
:10266E00E43401F583E02FF0900194E004F080C291
:10267E00900193E004F07B017A017941E0FD123183
:01268E000E3D
:10268F00E4900224F002251A9002247401F09002C3
:10269F0027E0FF30E30954F7F0123CCF02251A90E0
:1026AF000227E04408F054FBF0123D6802251A128D
:0526BF003F0802251A8E
:013F0B002293
:013F0C002292
:013F0D002291
:013F0E002290
:063EDE009001E20220F257
:063EE4009001E50220F24E
:0E3E03009001E21220D2E94A6003122141220E
:0E3E11009001E51220D2E94A600312214122FD
:103A7300EF4E602D9001D8EEF0A3EFF0AF05A3EC6D
:103A8300F0A3EFF0AF03A3EAF0A3EFF0E4A3F0A3F6
:103A9300F0A3F0A3F09001D7F09001D604F0123E0A
:023AA3000322FC
:103D7F00E49001D6F0123E117B007A007900123EDA
:043D8F00DE023EE42E
:102E06009001D6E07003022EBA9001DAE0FEA3E04C
:102E1600FF4E7003022EBA9001D7E07035D3EF94BF
:102E260000EE94005003022EBA9001DEE475F00124
:102E3600121E50FED39001D9E095F09001D8E09E85
:102E46005072123E11E49001DEF0A3F09001D70417
:102E5600F0229001D7E06401705A9001DE75F0010E
:102E6600121E50FED39001DBE095F09001DAE09E51
:102E760050429001DCE0FEA3E0FF9400EE94004097
:102E8600259001E0E475F001121E50FCD3EF95F099
:102E9600EE9C5005E49001D6F09001D6E0700790C4
:102EA60001DAF0A3F022E49001DEF0A3F09001D75E
:052EB600F0123E0322B2
:102FFE00410151005001520000000000000000008D
:10300E000000000000000050014100000000000020
:10301E0000000000000000000000480162000000F7
:05302E0000000000009D
:103B0000E4900151F0FE7F10FD7B017A01795212A1
:103B100021477E007F107D007B017A0179411221CF
:073B200047122801023B4E91
:0A31040004F07B017A017941E0FD3F
:0B310E0090019C1220F290019FEDF058
:10311900E4FFFE0000000FBF00010EEF64144E70C3
:10312900F2123E1F9001517401F0E4FEFF0000000D
:10313900000FBF00010EEF64C84E70F190019C12A0
:1031490020D274019001416B7008E965827003EA2D
:10315900658360257E007F107D007B017A017941BE
:1031690012214790019FE0FF7E0078417C017D019B
:0931790090019C1220D2121CF2FC
:01318200222A
:061449009001951220F253
:10144F00E4900198F0A3F0A3F0A3F0121D1864F23A
:10145F006003021C219001951220D2900001121DF1
:10146F0031D394104003021C21E4900199F09001B4
:10147F00951220D2900001121D312401FFE433FE9A
:10148F00900199E0FDC39FEE6480F874809850231B
:10149F00ED2401FFE433FE9001951220D28F828E4E
:1014AF0083121D31FF90019BE02FF0900199E00412
:1014BF00F080BB9001951220D2900001121D31F5E2
:1014CF0082758300A3A3121D31FF90019BE06F6013
:1014DF0003021C217E007F107D007B017A01794180
:1014EF00122147E490019AF09001951220D29000BA
:1014FF0002121D3112211B155E01165602170F0322
:10150F0019000419020519040619060719150815FB
:10151F006109192450194251196052196F531991C9
:10152F00541ACB551ADB561AFA571B0A581B1D595A
:10153F001B235A1B335B1B4B5C1B515D1B695E19D5
:10154F00337019517119007317C8B900001C1802B4
:10155F0019339001951220D2900003121D31B4015E
:10156F0005123F0280269001951220D2900003129F
:10157F001D31B40205123F0580129001951220D241
:10158F00900003121D31B40303123F0890019AE03B
:10159F00FF04F074412FF582E43401F58374F8F001
:1015AF0090019AE0FF04F074412FF582E43401F5C5
:1015BF00837402F09001951220D2900002121D3117
:1015CF00FF90019AE0FE04F074412EF582E434019D
:1015DF00F583EFF0123EF0EF90019A6013E0FF04F5
:1015EF00F074412FF582E43401F5837401F080111A
:1015FF00E0FF04F074412FF582E43401F5837402A7
:10160F00F0E4900199F0900142E02401FFE433FEF1
:10161F00900199E0FDC39FEE6480F87480984003B9
:10162F00021C1874422DF582E43401F583E0FF901B
:10163F00019AE02441F582E43401F583E02FF09024
:10164F000199E004F080BF900227E0FF20E0030241
:10165F00194254FBF0123D68900227E020E3030289
:10166F001C18123D0590019AE0FF04F074412FF50C
:10167F0082E43401F58374F8F090019AE0FF04F0EE
:10168F0074412FF582E43401F5837409F090019AC7
:10169F00E0FF04F074412FF582E43401F583740206
:1016AF00F090019AE02441F9E43401FA7B017D08BE
:1016BF00123AA590019AE02408F0E4900199F09075
:1016CF000142E02401FFE433FE900199E0FDC39F46
:1016DF00EE6480F8748098502474422DF582E434BF
:1016EF0001F583E0FF90019AE02441F582E4340193
:1016FF00F583E02FF0900199E004F080C2021AC147
:10170F00900227E0FF20E00302196F54FBF0123D17
:10171F0068900227E020E303021C18123D5090014D
:10172F009AE0FF04F074412FF582E43401F58374DD
:10173F00F8F090019AE0FF04F074412FF582E43441
:10174F0001F5837409F090019AE0FF04F074412FC2
:10175F00F582E43401F5837403F090019AE024419B
:10176F00F9E43401FA7B017D08123AA590019AE061
:10177F002408F0E4900199F0900142E02401FFE485
:10178F0033FE900199E0FDC39FEE6480F87480985A
:10179F00502474422DF582E43401F583E0FF90016B
:1017AF009AE02441F582E43401F583E02FF09001B3
:1017BF0099E004F080C2021AC1900227E054FEF0B3
:1017CF004408F0E4FDFF122A4190019AE0FF04F073
:1017DF0074412FF582E43401F58374F8F090019A87
:1017EF00E0FF04F074412FF582E43401F583740BAC
:1017FF00F090019AE0FF04F074412FF582E4340178
:10180F00F58374B9F0900226E0FEA3E0FF5401FDCA
:10181F0090019AE0FC04F074412CF582E43401F558
:10182F0083EDF0EF7803CEC313CE13D8F95401FF35
:10183F0090019AE0FE04F074412EF582E43401F534
:10184F0083EFF090019AE02441F9E43401FA7B012F
:10185F007D08123AA5E4900199F0900199E0FFC339
:10186F0094085040A3E0FE2441F582E43401F5834F
:10187F00E5822FF582E43583F583E06003B4FF1C26
:10188F00900199E0FF74412EF582E43401F583E570
:10189F00822FF582E43583F5837420F0900199E06F
:1018AF0004F080B690019AE02408F0E4900199F0DA
:1018BF00900142E02401FFE433FE900199E0FDC363
:1018CF009FEE6480F8748098502474422DF582E462
:1018DF003401F583E0FF90019AE02441F582E4346E
:1018EF0001F583E02FF0900199E004F080C2021A15
:1018FF00C1807C804D805A7B007A007900E4900192
:10190F00A0F07F0780767B007A007900E49001A039
:10191F00F07F0880677B007A007900E49001A0F0E7
:10192F007F0880587B007A007900E49001A0F07F57
:10193F000180497B007A007900E49001A0F07F02DA
:10194F00803A7B007A007900E49001A0F07F058057
:10195F002B7B007A007900E49001A0F07F06801CB9
:10196F007B007A007900E49001A0F07F03800D7B6B
:10197F00007A007900E49001A0F07F04122B44025A
:10198F001C18900227E0FF20E30B4408F04404F0FA
:10199F00123D688010900227E054F7F054FBF0449A
:1019AF0008F0123CCF90019AE0FF04F074412FF53C
:1019BF0082E43401F58374F8F090019AE0FF04F0AB
:1019CF0074412FF582E43401F583740AF090019A83
:1019DF00E0FF04F074412FF582E43401F5837401C4
:1019EF00F0900226E0FEA3E07803CEC313CE13D807
:1019FF00F95401FF90019AE0FE04F074412EF58234
:101A0F00E43401F583EFF090019AE02441F9E434D6
:101A1F0001FA7B017D08123AA5E4900199F090013B
:101A2F0099E0FFC394085040A3E0FE2441F582E4FF
:101A3F003401F583E5822FF582E43583F583E06089
:101A4F0003B4FF1C900199E0FF74412EF582E4343A
:101A5F0001F583E5822FF582E43583F5837420F059
:101A6F00900199E004F080B690019AE02408F0E428
:101A7F00900199F0900142E02401FFE433FE9001C0
:101A8F0099E0FDC39FEE6480F874809850247442EF
:101A9F002DF582E43401F583E0FF90019AE02441B3
:101AAF00F582E43401F583E02FF0900199E004F022
:101ABF0080C290019AE0123104021C18900227E0B4
:101ACF0054FBF0123D68123D50021C189000A4E028
:101ADF00D394644003021C18E0240AF0E0C394641A
:101AEF005003021C187464F0021C18900227E04483
:101AFF0004F0E4FDFF122A41021C189000A4E0C379
:101B0F00940A5003021C18E024F6F0021C18123736
:101B1F0019021C18900227E054FBF0123D68123D89
:101B2F0005021C189000A3E0D394645022E0240A0D
:101B3F00F0E0C3946440187464F0801312363202DC
:101B4F001C189000A3E0C3940A4004E024F6F09020
:101B5F0000A3E0FF123B98021C18123F0890019A55
:101B6F00E0FF04F074412FF582E43401F58374F83B
:101B7F00F090019AE0FF04F074412FF582E43401F4
:101B8F00F5837402F090019AE0FF04F074412FF591
:101B9F0082E43401F5837409F0123EF0EF90019A5C
:101BAF006013E0FF04F074412FF582E43401F583F4
:101BBF007401F08011E0FF04F074412FF582E434DA
:101BCF0001F5837402F0E4900199F0900142E02452
:101BDF0001FFE433FE900199E0FDC39FEE6480F8AE
:101BEF00748098502474422DF582E43401F583E01B
:101BFF00FF90019AE02441F582E43401F583E02F50
:101C0F00F0900199E004F080C290019AE060031215
:021C1F0031048E
:011C210022A0
:10354600900151E06031123E8CEF24F0601824D0D7
:10355600601224207016123E55123EC9E4900151A5
:10356600F0023B4E8000123E55023EC97B017A01B5
:1035760079417D100239587B017A0179527D10120A
:0F3586003AD7EF60097B017A017952121449227A
:103033004101AC004101AD004101B1004101B200C9
:103043004201AE00004101B0005001B30000000096
:0C30530000000000000000000000000071
:103D3800E49001ACF0A3F09001B1F0FE7FA2FD7B0E
:083D4800017A00790002214715
:102B440090019D1220F2E49001ACF0E0FE04F074D8
:102B5400B32EF582E43401F5837455F09001ACE0B2
:102B6400FE04F074B32EF582E43401F58374AAF004
:102B74009001A0E004FE9001ACE0FD04F074B32DDC
:102B8400F582E43401F583EEF09001ACE0FE04F04C
:102B940074B32EF582E43401F583EFF0E49001B1CF
:102BA400F09001A0E0FF9001B1E0FEC39F502A9095
:102BB400019D1220D28E82758300121D31FE900178
:102BC400ACE0FD04F074B32DF582E43401F583EE3A
:102BD400F09001B1E004F080C87B017A0179B3EF91
:102BE4002404FD1234449001ACE0FE04F074B32ECE
:102BF400F582E43401F583EFF0E49001B1F0900143
:102C0400A0E02405FFE433FE9001B1E0FDC39FEE94
:102C14006480F8748098501774B32DF582E43401FD
:102C2400F583E0FF123EB19001B1E004F080CF22C1
:100026009000A2E07003020C0714F09000A0E024F8
:10003600A0FFE433FEA3E0FBFDC3EF9DFFEE9400BB
:10004600FE7C007DA0121DC5EDC3940440D2740051
:100056002BF582E43400F583E064556003020BF36C
:100066009000A1E07A002401FFEA33FE7C007DA027
:10007600121E1A74002DF58274003CF583E064AA02
:100086006003020BF3EB2402FFEA33FE7C007DA043
:10009600121E1A74002DF58274003CF583E090015F
:1000A600ADF09000A0E024A0FFE433CFC39BCF9A2D
:1000B600FE7C007DA0121E1A9001ADE02404FFE430
:1000C60033FEC3ED9FEE6480F8EC64809850030223
:1000D6000BF99000A1E0FF2400F9E43400FA7B015B
:1000E6009001ADE02403FD90019DEFF0A374A0F014
:1000F600123183AB079001ADE0FF9000A1E02FFF26
:10010600E433CF2403CF3400FE7C007DA0121E1AF8
:1001160074002DF58274003CF583E06B6003020BDE
:10012600F3E49001ACF0FE7F10FD7B017A0179418A
:100136001221479000A1E0FB7A002403FFEA33FE78
:100146007C007DA0121E1A74002DF58274003CF509
:1001560083E012211B018F1203863104603308E20B
:1001660034054A35063436071E3702AC38080841CE
:1001760009D5540AC7570AD4620B39630B5F640B5F
:0901860081650BAF6600000BDD82
:10018F00E4900195F0A3F0EB240CFFE43AFE7C0021
:10019F007DA0121E1A74002DF58274003CF583E0C9
:1001AF00FF7E00900195EEF0A3EFF0C39410EE9454
:1001BF00004003020BDD900195E07002A3E0702870
:1001CF009001B07410F0E4A3F09001B0E0FFA3E051
:1001DF00FEC39F5013EE75F080A4FFAEF0123E7871
:1001EF009001B1E004F080E19000A1E0240DFFE464
:1001FF0033FE7C007DA0121E1A74002DF582740050
:10020F003CF583E0540FFF9001AEE4F0A3EFF0E470
:10021F009001B1F09001AEE0FEA3E0FF7C007D0DF8
:10022F00121DB3EF240AFFE43EFE9001B1E0FBC3C1
:05023F009FEC9E504BF6
:10024400900195E0FEA3E0FF7D72121DB3EBFD2F3C
:10025400FFEC3EFEA3F0A3EFF0C006C0079000A1A0
:10026400E02404FFE433CF2DCF3CFE7DA0121E1A00
:1002740074002DF58274003CF583E0FDD007D006B0
:03028400123E82A5
:100287009001B1E004F08094900195A3E09001B053
:10029700F07B017A0179B09001A07401F07F12120E
:0202A7002B44E6
:1002A900020BDD9001ACE0FF04F074412FF582E40C
:1002B9003401F58374F8F09001ADE0FF9001ACE0F2
:1002C900FE04F074412EF582E43401F583EFF090D9
:1002D90001ACE0FF04F074412FF582E43401F583A9
:1002E9007438F0E49001B1F09001ADE014FF900191
:1002F900B1E0FEC39F50409000A1E02404FDE43327
:10030900FCEE7E002DFFEE3CFE7C007DA0121E1A45
:1003190074002DF58274003CF583E0FF9001ACE098
:10032900FE04F074412EF582E43401F583EFF09078
:1003390001B1E004F080B1E49001B1F0900142E034
:100349002401FFE433FE9001B1E0FDC39FEE648018
:10035900F8748098502474422DF582E43401F583B1
:10036900E0FF9001ACE02441F582E43401F583E03B
:100379002FF09001B1E004F080C2020AB39001AC01
:10038900E0FF04F074412FF582E43401F58374F839
:10039900F09001ADE0FF9001ACE0FE04F074412E55
:1003A900F582E43401F583EFF09001ACE0FF04F04D
:1003B90074412FF582E43401F5837431F0E490013E
:1003C900B1F09001ADE014FF9001B1E0FEC39F5080
:1003D900409000A1E02404FDE433FCEE7E002DFFF3
:1003E900EE3CFE7C007DA0121E1A74002DF582746D
:1003F900003CF583E0FF9001ACE0FE04F074412E6F
:10040900F582E43401F583EFF09001B1E004F08066
:10041900B1E49001B1F0900142E02401FFE433FE20
:100429009001B1E0FDC39FEE6480F8748098502478
:1004390074422DF582E43401F583E0FF9001ACE0CC
:100449002441F582E43401F583E02FF09001B1E015
:1004590004F080C2020AB39001ACE0FF04F07441D9
:100469002FF582E43401F58374F8F09001ADE0FFD3
:100479009001ACE0FE04F074412EF582E43401F5FC
:1004890083EFF09001ACE0FF04F074412FF582E4B2
:100499003401F5837433F0E49001B1F09001ADE0DB
:1004A90014FF9001B1E0FEC39F50409000A1E024E9
:1004B90004FDE433FCEE7E002DFFEE3CFE7C007D66
:1004C900A0121E1A74002DF58274003CF583E0FF1A
:1004D9009001ACE0FE04F074412EF582E43401F59C
:1004E90083EFF09001B1E004F080B1E49001B1F044
:1004F900900142E02401FFE433FE9001B1E0FDC325
:100509009FEE6480F8748098502474422DF582E43B
:100519003401F583E0FF9001ACE02441F582E43435
:1005290001F583E02FF09001B1E004F080C2900161
:10053900ACE004F0900227E030E003020BDD020991
:10054900C99001ACE0FF04F074412FF582E4340155
:10055900F58374F8F09001ADE0FF9001ACE0FE0482
:10056900F074412EF582E43401F583EFF09001AC8B
:10057900E0FF04F074412FF582E43401F58374350A
:10058900F0E49001B1F09001ADE014FF9001B1E009
:10059900FEC39F50409000A1E02404FDE433FCEE2B
:1005A9007E002DFFEE3CFE7C007DA0121E1A740019
:1005B9002DF58274003CF583E0FF9001ACE0FE0468
:1005C900F074412EF582E43401F583EFF09001B126
:1005D900E004F080B1E49001B1F0900142E024011F
:1005E900FFE433FE9001B1E0FDC39FEE6480F8742F
:1005F9008098502474422DF582E43401F583E0FF9C
:100609009001ACE02441F582E43401F583E02FF058
:100619009001B1E004F080C29001ACE004F09002D6
:1006290027E030E003020BDD0209C99001ACE0FFCD
:1006390004F074412FF582E43401F58374F8F090E5
:1006490001ADE0FF9001ACE0FE04F074412EF582AB
:10065900E43401F583EFF09001ACE0FF04F074415C
:100669002FF582E43401F5837436F0E49001B1F09A
:100679009001ADE014FF9001B1E0FEC39F5040909E
:1006890000A1E02404FDE433FCEE7E002DFFEE3CE6
:10069900FE7C007DA0121E1A74002DF58274003CA8
:1006A900F583E0FF9001ACE0FE04F074412EF58281
:1006B900E43401F583EFF09001B1E004F080B1E496
:1006C9009001B1F0900142E02401FFE433FE900172
:1006D900B1E0FDC39FEE6480F874809850247442A1
:1006E9002DF582E43401F583E0FF9001ACE024416B
:1006F900F582E43401F583E02FF09001B1E004F0D4
:1007090080C29001ACE004F0900227E030E00302DF
:100719000BDD0209C99001ACE0FF04F074412FF52B
:1007290082E43401F58374F8F09001ADE0FF9001A3
:10073900ACE0FE04F074412EF582E43401F583EF58
:10074900F09001ACE0FF04F074412FF582E434012C
:10075900F5837437F0E49001B1F09001ADE014FF36
:100769009001B1E0FEC39F50409000A1E02404FD38
:10077900E433FCEE7E002DFFEE3CFE7C007DA012F2
:100789001E1A74002DF58274003CF583E0FF900178
:10079900ACE0FE04F074412EF582E43401F583EFF8
:1007A900F09001B1E004F080B1E49001B1F0900162
:1007B90042E02401FFE433FE9001B1E0FDC39FEE66
:1007C9006480F8748098502474422DF582E43401D1
:1007D900F583E0FF9001ACE02441F582E43401F5B2
:1007E90083E02FF09001B1E004F080C29001ACE009
:1007F90004F0900227E030E003020BDD0209C99002
:1008090001ACE0FF04F074412FF582E43401F58373
:1008190074F8F09001ADE0FF9001ACE0FE04F074D3
:10082900412EF582E43401F583EFF09001ACE0FF4D
:1008390004F074412FF582E43401F5837441F0E446
:100849009001B1F09001ADE014FF9001B1E0FEC359
:100859009F50409000A1E02404FDE433FCEE7E00AB
:100869002DFFEE3CFE7C007DA0121E1A74002DF5B2
:100879008274003CF583E0FF9001ACE0FE04F07463
:10088900412EF582E43401F583EFF09001B1E004E3
:10089900F080B1E49001B1F0900142E02401FFE45D
:1008A90033FE9001B1E0FDC39FEE6480F874809837
:1008B900502474422DF582E43401F583E0FF900160
:1008C900ACE02441F582E43401F583E02FF0900196
:1008D900B1E004F080C2020AB39001ACE0FF04F079
:1008E90074412FF582E43401F58374F8F09001AD79
:1008F900E0FF9001ACE0FE04F074412EF582E4348F
:1009090001F583EFF09001ACE0FF04F074412FF59D
:1009190082E43401F5837434F0E49001B1F090017C
:10092900ADE014FF9001B1E0FEC39F50409000A1DB
:10093900E02404FDE433FCEE7E002DFFEE3CFE7C5A
:10094900007DA0121E1A74002DF58274003CF583F7
:10095900E0FF9001ACE0FE04F074412EF582E4342E
:1009690001F583EFF09001B1E004F080B1E490016A
:10097900B1F0900142E02401FFE433FE9001B1E0BF
:10098900FDC39FEE6480F8748098502474422DF55D
:1009990082E43401F583E0FF9001ACE02441F58263
:1009A900E43401F583E02FF09001B1E004F080C256
:1009B9009001ACE004F0900227E030E003020BDD87
:1009C9007B017A0179419001AC020ABF900227E0CC
:1009D900FF20E30B4408F04404F0123D68800D90B9
:1009E9000227E054F7F054FBF0123CCF9001ACE041
:1009F900FF04F074412FF582E43401F58374F8F0B3
:100A09009001ACE0FF04F074412FF582E43401F564
:100A190083740AF09001ACE0FF04F074412FF58271
:100A2900E43401F5837401F0900226E0FEA3E07836
:100A390003CEC313CE13D8F95401FF9001ACE0FEE5
:100A490004F074412EF582E43401F583EFF090014E
:100A5900ACE02441F9E43401FA7B017D08123AA59E
:100A69009001ACE02408F0E49001B1F0900142E07B
:100A79002401FFE433FE9001B1E0FDC39FEE6480E1
:100A8900F8748098502474422DF582E43401F5837A
:100A9900E0FF9001ACE02441F582E43401F583E004
:100AA9002FF09001B1E004F080C29001ACE004F0B5
:100AB9007B017A017941E0FD12310E020BDD9002D2
:100AC90027E04404F0E4FDFF020BAA9000A1E0FB3B
:100AD9007A002404FFEA33FE7C007DA0121E1A74FA
:100AE900002DF58274003CF583E0FFC007EB240577
:100AF900FFEA33FE7C007DA0121E1A74002DF582D8
:100B090074003CF583E0FDC0059000A1E02406FFD8
:100B1900E433FE7C007DA0121E1A74002DF5827448
:100B2900003CF583E0FBD005D0071238D1020BDD7C
:100B39009000A1E02404FFE433FE7C007DA0121E96
:100B49001A74002DF58274003CF583E0FF9000A330
:100B5900F0123B98807E9000A1E02404FFE433FE6C
:100B69007C007DA0121E1A74002DF58274003CF5DC
:100B790083E09000A4F0805C900227E054FBF0121F
:100B89003D689000A1E02404FFE433FE7C007DA0D1
:100B9900121E1A74002DF58274003CF583E0FFE4FF
:060BA900FD122A41802E1E
:100BAF009000A1E02404FFE433FE7C007DA0121E20
:100BBF001A74002DF58274003CF583E0900195F0D6
:0E0BCF00E0FFC4540F7007EF540FFF123E9664
:100BDD009001ADE02404FF9000A1E02FF0E075F04E
:100BED00A084E5F0F0229000A1E004F09000A1E0D7
:0B0BFD0075F0A084E5F0F00200262255
:103444009001A11220F2AE05E4900228F0AF061E0E
:10345400EF6040900228E0FF9001A1E475F00112B2
:1034640020DB121D186F900228F0E4A3F0900229CB
:10347400E0C3940850D7900228E030E007C31364F7
:103484008CF08007900228E0C313F0900229E00436
:09349400F080DA900228E0FF222A
:103183009001991220F2AE05E4900228F0AF061EDA
:10319300EF6065900228E0FF900199E475F0011259
:1031A30020DB121D186F900228F090019DE004F0BF
:1031B300A3E0FF90019DE0C39F4012E4F0EFFDE424
:1031C3009DFDE4940090019A8DF0121E50E490024C
:1031D30029F0900229E0C3940850B2900228E0300D
:1031E300E007C313648CF08007900228E0C313F058
:0E31F300900229E004F080DA900228E0FF222A
:103C2300FFFFFF00FF000000FFFF000000FFFFFF9A
:0E3C330000FFFFFF0000FF800080FFFF800009
:0F305F004100AB004101240044012500000000A6
:103595009000AB7409F07E007F067D007B017A0107
:1035A500791E1221477E007F017D007B017A01791A
:1035B500361221477E007F727D007B017A0079AC4F
:1035C5001221477E007F087D007B017A0079A312D6
:0F35D50021479000A37464F0A37432F0023CCF3E
:103632009000ABE0600414F080069000AB7409F0D7
:103642009000ABE0FE75F003A42423F582E4343C41
:10365200F583E493FFEE75F003A42424F582E434A9
:103662003CF583E493FD9000ABE075F003A42425C0
:0D367200F582E4343CF583E493FB0238D18B
:103719009000ABE004F0E0C3940A4002E4F09000AA
:10372900ABE0FE75F003A42423F582E4343CF58371
:10373900E493FFEE75F003A42424F582E4343CF508
:1037490083E493FD9000ABE075F003A42425F58292
:0B375900E4343CF583E493FB0238D11C
:103D0500900136E0600414F080069001367410F0DE
:0A3D1500900136E0FF7D02022A4112
:103D5000900136E004F0E0C394114002E4F09001D9
:083D600036E0FF7D01022A415B
:103AA50090019C1220F2EDD39408400C7B007A0023
:103AB500790090019C0220F2AF057E0090019C12D6
:103AC50020D2A801AC02AD037B017A0079AC121CAF
:023AD500F222DB
:103D68009000AB7409F0900227E04408F090013607
:073D7800E0FFE4FD022A4117
:103CCF00900227E054F7F0E4900130F0900134F0C7
:0B3CDF00A3F0FBFAFDFCFFFE022C34FA
:1033900090019AEFF02401FFE433FE9000B5E05471
:1033A0000FB50714E4B5061090019AF0E075F00D22
:1033B000A424B6F97400800D90019AE075F00DA474
:1033C00024C3F9740035F0FA7B0178297C017D0172
:1033D0007E007F0D121CF278377C017D017B017A23
:0A33E0000079AC7E007F0A021CF2A7
:102A410090019DEDF090019CEFF0FBE490011EF0F0
:102A5100A312209800000000E4900123F0EBD3942E
:102A610010400C9001367410F090019CF080089099
:102A7100019CE0900136F090019DE0701A7B017A93
:102A81000079AC90019CE0FD1233EA9000ACE0F4D7
:0F2A91006003022B1E806F90019DE06401703C7A
:102AA000A3F0F07B017A0079AC90019CE0FD123339
:102AB000EA9000ACE0F4706690019CE07002804700
:102AC00090019CE004F0E0C394114002E4F0900116
:0C2AD0009EE004F0E0C3941140C9804275
:082ADC0090019DE06402703AD4
:102AE400A3F0F07B017A0079AC90019CE0FD1233F5
:102AF400EA9000ACE0F4702290019CE0600414F0D1
:102B0400800CE4FBFAFDFCFFFE122C34800C9001D7
:0A2B14009EE004F0E0C3941140C9F4
:102B1E0078297C017D017B017A0079B67E007F0DDC
:102B2E00121CF278377C017D017B017A0079AC7E34
:062B3E00007F0A021CF2F8
:10391500900199EFF0E490011EF0A31220980000A9
:1039250000009001237432F0900227E030E21690F7
:103935000124E004F0E0D394045002800DE49001EA
:1039450024F0023D50E4900124F0900199E0FF122B
:033955003390228A
:1038D10090019CEFF0A3EDF0A3EBF0123CCF90012F
:1038E1009CE09000A5F0A3E4F090019DE09000A77A
:1038F100F0A3E4F090019EE07F009000A9F0FAA30C
:10390100EFF0FB9000A5E0FEA3E0FFA3E0FCA3E045
:04391100FD022C3453
:100C0800900227E020E303021448900123E06003E8
:100C180014F022900130E0700D900134E07002A3CE
:100C2800E07003021448900129E0540F24FC70037B
:100C3800020FD61470030211C42402600302144880
:100C480090011F122074EF2401FFE43EFEE43DFDF5
:100C5800E43CFC90011F12208C90012DE0FF9001D4
:100C68002AE0FEC39F5064EEFDC3EF9DFFE49400AD
:100C7800FE123E61EE3395E0FDFCC004C005C006DF
:100C8800C007E4FF7E01FDFC90011F122080121FA7
:100C980033D003D002D001D000121F33C006C007E2
:100CA800900131E0FEA3E0FBAA06E4F9F8D007D0F2
:100CB80006121FBEA804A905AA06AB0790012AE0E0
:100CC8007F00FEE4FCFD121F18806890012AE0FFF7
:100CD80090012DE0C39FFFE49400FE123E61EE33C5
:100CE80095E0FDFCC004C005C006C007E4FF7E0116
:100CF800FDFC90011F122080121F33D003D002D0B8
:100D080001D000121F33C006C007900131E0FEA3D6
:100D1800E0FBAA06E4F9F8D007D006121FBEA80423
:100D2800A905AA06AB0790012AE07F00FEE4FCFDB6
:100D3800121F2590012512208C900133E0FFE4FC5E
:100D4800FDFE900125122080121F33E47B64FAF91E
:100D5800F8121FBE90012512208C900125122074D4
:100D68009000A5EEF0A3EFF090012EE0FF90012B8C
:100D7800E0FEC39F5064EEFDC3EF9DFFE49400FEC8
:100D8800123E61EE3395E0FDFCC004C005C006C00C
:100D980007E4FF7E01FDFC90011F122080121F3323
:100DA800D003D002D001D000121F33C006C0079074
:100DB8000131E0FEA3E0FBAA06E4F9F8D007D0066B
:100DC800121FBEA804A905AA06AB0790012BE07F55
:100DD80000FEE4FCFD121F18806890012BE0FF90D4
:100DE800012EE0C39FFFE49400FE123E61EE3395AE
:100DF800E0FDFCC004C005C006C007E4FF7E01FD9D
:100E0800FC90011F122080121F33D003D002D001A2
:100E1800D000121F33C006C007900131E0FEA3E0E6
:100E2800FBAA06E4F9F8D007D006121FBEA804A949
:100E380005AA06AB0790012BE07F00FEE4FCFD123B
:100E48001F2590012512208C900133E0FFE4FCFD62
:100E5800FE900125122080121F33E47B64FAF9F812
:100E6800121FBE90012512208C900125122074902B
:100E780000A7EEF0A3EFF090012FE0FF90012CE027
:100E8800FEC39F5064EEFDC3EF9DFFE49400FE1285
:100E98003E61EE3395E0FDFCC004C005C006C00706
:100EA800E4FF7E01FDFC90011F122080121F33D049
:100EB80003D002D001D000121F33C006C007900132
:100EC80031E0FEA3E0FBAA06E4F9F8D007D0061249
:100ED8001FBEA804A905AA06AB0790012CE07F0055
:100EE800FEE4FCFD121F18806890012CE0FF9001C1
:100EF8002FE0C39FFFE49400FE123E61EE3395E0BD
:100F0800FDFCC004C005C006C007E4FF7E01FDFC6F
:100F180090011F122080121F33D003D002D001D0BD
:100F280000121F33C006C007900131E0FEA3E0FBAA
:100F3800AA06E4F9F8D007D006121FBEA804A9052E
:100F4800AA06AB0790012CE07F00FEE4FCFD121F0F
:100F58002590012512208C900133E0FFE4FCFDFE72
:100F6800900125122080121F33E47B64FAF9F812ED
:100F78001FBE90012512208C90012512207490002C
:100F8800A9EEF0FAA3EFF0FB9000A5E0FEA3E0FFC6
:100F9800A3E0FCA3E0FD122C34900131E0FEA3E0B5
:100FA800FFE4FCFD90011F122080C3122050401264
:100FB80090011F12209800000000900130E06002AC
:100FC80014F0900130E0600302144802143D9001CF
:100FD8001EE07012A3122074EF2401FFE43EFEE429
:100FE8003DFDE43C802190011F122074EC4D4E4FD2
:100FF800601C90011F122074EF24FFFFEE34FFFEE7
:10100800ED34FFFDEC34FFFC90011F12208CE47FCF
:10101800FFFEFDFC90011F122080121F33A804A9B7
:1010280005AA06AB0790012AE0FFE4FCFDFE121FAB
:1010380033C006C007900131E0FEA3E0FBAA06E436
:10104800F9F8D007D006121FBE90012512208C9007
:101058000133E0FFE4FCFDFE900125122080121F01
:1010680033E47B64FAF9F8121FBE90012512208C34
:101078009001251220749000A5EEF0A3EFF0E47F14
:10108800FFFEFDFC90011F122080121F33A804A947
:1010980005AA06AB0790012BE0FFE4FCFDFE121F3A
:1010A80033C006C007900131E0FEA3E0FBAA06E4C6
:1010B800F9F8D007D006121FBE90012512208C9097
:1010C8000133E0FFE4FCFDFE900125122080121F91
:1010D80033E47B64FAF9F8121FBE90012512208CC4
:1010E8009001251220749000A7EEF0A3EFF0E47FA2
:1010F800FFFEFDFC90011F122080121F33A804A9D7
:1011080005AA06AB0790012CE0FFE4FCFDFE121FC8
:1011180033C006C007900131E0FEA3E0FBAA06E455
:10112800F9F8D007D006121FBE90012512208C9026
:101138000133E0FFE4FCFDFE900125122080121F20
:1011480033E47B64FAF9F8121FBE90012512208C53
:101158009001251220749000A9EEF0FAA3EFF0FB9D
:101168009000A5E0FEA3E0FFA3E0FCA3E0FD122CA5
:1011780034900131E0FEA3E0FFE4FCFD90011F1272
:101188002080C31220505011E4FFFEFDFC90011F87
:10119800122080C3122050701790011EE0700404C2
:1011A800F0800DE490011EF0900130E0600214F030
:0C11B800900130E0600302144802143D76
:1011C400900195122098000000FFE4FFFEFDFC90C2
:1011D400011F122080C312205060030212BE90012E
:1011E4002AE0FFE4FCFDFE900195122080121F33DB
:1011F400A804A905AA06AB07900133E0FFE4FCFDAF
:10120400FE121F33E47B64FAF9F8121FBE90012525
:1012140012208C9001251220749000A5EEF0A3EF0B
:10122400F090012BE0FFE4FCFDFE9001951220807C
:10123400121F33A804A905AA06AB07900133E0FFE7
:10124400E4FCFDFE121F33E47B64FAF9F8121FBEBE
:1012540090012512208C9001251220749000A7EE95
:10126400F0A3EFF090012CE0FFE4FCFDFE9001956B
:10127400122080121F33A804A905AA06AB07900107
:1012840033E0FFE4FCFDFE121F33E47B64FAF9F85B
:10129400121FBE90012512208C90012512207490FB
:1012A40000A9EEF0FAA3EFF0FB9000A5E0FEA3E0A6
:1012B400FFA3E0FCA3E0FD122C34900131E0FEA377
:1012C400E0FFE4FCFD90012512208C900125122002
:1012D4007490011F122080C312205060030213C0B7
:1012E40090012DE0FFE4FCFDFE9001951220801298
:1012F4001F33A804A905AA06AB07900133E0FFE455
:10130400FCFDFE121F33E47B64FAF9F8121FBE9051
:10131400012512208C9001251220749000A5EEF076
:10132400A3EFF090012EE0FFE4FCFDFE9001951286
:101334002080121F33A804A905AA06AB0790013325
:10134400E0FFE4FCFDFE121F33E47B64FAF9F812BB
:101354001FBE90012512208C90012512207490004C
:10136400A7EEF0A3EFF090012FE0FFE4FCFDFE9068
:101374000195122080121F33A804A905AA06AB0701
:10138400900133E0FFE4FCFDFE121F33E47B64FABA
:10139400F9F8121FBE90012512208C90012512200D
:1013A400749000A9EEF0FAA3EFF0FB9000A5E0FE24
:1013B400A3E0FFA3E0FCA3E0FD122C3490011F1274
:1013C4002074EF2401FFE43EFEE43DFDE43CFC9088
:1013D400011F12208C90012512209800000000901B
:1013E4000131E0FEA3E0FFE4FCFD90012512208022
:1013F400121F18A804A905AA06AB07900134E0FE41
:10140400A3E0FFE4FCFD121F1890012512208C902C
:10141400012512207490011F122080C31220504015
:101424001290011F12209800000000900130E0602B
:101434000214F0900130E0700B900129E0C4540FC5
:04144400FF12391545
:011448002281
:013F0F00228F
:0B33EA0090019F1220F29001A2EDF074
:1033F500E4A3F0AF05EFC39411E49001A3F09001AD
:10340500A3E0FDC3947250369001A2E075F072A45A
:103415002400FFE5F03440FE7C00EF2DFFEC3EFE7E
:1034250012000390019F1220D29001A3E0F582754E
:0E3435008300EF121D919001A3E004F080C00F
:013443002266
:0A3E7800E42FFFEE3440FE02388C08
:0A3E8200E42FFFEE3440FE0232018F
:103DE000E42FFFEE3440FE9001F9E09001FFF00275
:023DF0002EBBE8
:013F1000228E
:013F1100228D
:10000E00123DA7123EA0123EF61234F4123C031219
:05001E003C41D2AF22BD
:04306E004100A2007B
:103C4100E49000A2F0FE7FA2FD7B017A00790012D0
:0D3C510021477F007E4B7D007C0002326E1B
:030023000238455B
:10384500C0E0C083C082C0D075D000C007309827C3
:10385500C2989000A0E0FF04F074002FF582E434D4
:1038650000F583E599F09000A0E0C394A04002E440
:10387500F09000A2E004F0309902C299D007D0D0B0
:07388500D082D083D0E032B5
:083072004101F2004101F300ED
:103C0300123C7B5389F0438901538EF79001F27480
:103C1300FAF0A374C4F0758CFAF58AD2A9D28C2277
:103C7B00E49001E9F09001EBF09001EFF0A3F090EC
:0C3C8B0001EAF09001ECF09001F1F02251
:03000B000230833D
:10308300C0E0C0F0C083C082C0D075D000C000C013
:10309300069001F2E0F58CA3E0F58A9001E8740153
:1030A300F0A3E004F0C3940A4005E4F0A304F09015
:1030B30001EBE004F0C394644005E4F0A304F09052
:1030C30001EDE004F0C394F4748094814005E4F0CE
:1030D300A304F09001EFE475F001121E50FEC3E566
:1030E300F094E8EE9403400A9001EFE4F0A3F0A318
:1030F30004F0D006D000D0D0D082D083D0F0D0E07E
:013103003299
:103B74000A6D679C46F6375D4521EFAC5A50010B40
:103B8400DF020A6D679C46F6375D4521EFAC5A505B
:043B9400E10BDF0260
:08307A00450200CCCCCCCCCC0B
:103DA70053B3FE43B40153B3FD43B40253B1FE43CF
:033DB700B2012234
:013F1200228C
:103C5E00E4FEC290EF30E704D2808002C280EF25EE
:0C3C6E00E0FFD290000EEEB408E8C29017
:013C7A002227
:043DBA00E4FD7FFCA9
:0F3DBE00C29100123C5EAF05123C5E00D2912212
:0A39D2007B019001AB7405F07F3F0C
:0639DC009001A81220F288
:1039E200C291E4FD123C5E9001ABE0FFEDC39F503B
:1039F200159001A81220D28D82758300121D31FF0D
:083A0200123C5E0D80E1D2913F
:013A0A002299
:103BE000E4FEC290EF30E704D2808002C280EF256D
:103BF000E0FFD290000EEEB408E843B10153B2FEEC
:023C0000C29070
:013C0200229F
:103D1F00E4FFFEC290EF25E0FFD290308003440114
:083D2F00FF0EEEB408EDC29096
:013D37002269
:103DCD00C29100123BE0123D1F53B1FE43B2010000
:023DDD00D29181
:013DDF0022C1
:063A0B009001961220F26A
:103A1100C291123BE0E4FD900199E0FFEDC39F509C
:103A210015123D1F9001961220D28D82758300EFF1
:0E3A3100121D910D80E153B1FE43B201D291FE
:013A3F002264
:0E3E1F00123DBA7D8E7F20123DBE00000022B3
:103B4E00E4FEFD7FFC123DBE7D8F7F20123DBEE464
:103B5E00FD7FFD123DBEE4FEFF000FBF00010EBE55
:053B6E0013F7BF88F40D
:013B7300222F
:0A3E8C007F07123DCDEF5470FF22B6
:063EEA007F09123DCD220C
:073EC9007D707F27023DBE62
:0C3E5500E4FD7FE1123DBE7FE2023DBEB5
:0E3E2D00AC07123DBAAF04AD077F25023DBEC3
:06395800123E8CEF7038F6
:10395E00900195F0A3F09001ABEDF07FA01239DC51
:10396E00E4FD7FFD123DBEE4900195F0A3F00090C2
:10397E000195E475F001121E50900195E07004A3BC
:08398E00E064C870E9123DBAC3
:01399600220E
:103AD700AC05123E8CEF30E61D123DBA900199EC11
:103AE700F07F61123A0B123E55123EC9E4FD7FFD8D
:093AF700123DBE7F01227F002276
:1028010078957C017D017BFF7A3B79747E007F05A1
:10281100121CF2789A7C017D017BFF7A3B79797EEB
:10282100007F03121CF2789D7C017D017BFF7A3BC6
:10283100797C7E007F06121CF278A37C017D017BEE
:10284100FF7A3B79827E007F01121CF278A47C0121
:102851007D017BFF7A3B79837E007F03121CF2129C
:102861003F127D5A7F53123DBE7DA57F53123DBE5F
:102871007D207F3D123DBE123DBA7FE1123DBE7FFC
:10288100E2123DBE7D707F27123DBE7D017F221287
:102891003DBE7D037F23123DBE7D4E7F25123DBE91
:1028A1007D107F31123DBE7B017A0279009001AB30
:1028B1007405F07F301239DC7B017A0279009001D6
:1028C100AB7405F07F2A1239DC7A0179951239D27D
:1028D1007B017A01799D9001AB7406F07F3A123940
:1028E100DC7B017A0179A39001AB7401F07F39128D
:1028F10039DC7B017A01799A9001AB7403F07F3E58
:102901001239DC7B017A0179A49001AB7403F07F69
:102911003B1239DCE4FD7F3C123DBE7D3F7F261238
:0E2921003DBEE4FD7F24123DBE7F21023DBE7F
:052D23009001C3EFF078
:102D2800E478C47C017D017BFF7A3B7986FE7F05D0
:102D3800121CF278C97C017D017BFF7A3B798B7E7E
:102D4800007F03121CF278CC7C017D017BFF7A3B6B
:102D5800798E7E007F06121CF278D27C017D017B81
:102D6800FF7A3B79947E007F01121CF278D37C01B4
:102D78007D017BFF7A3B79957E007F03121CF27DF3
:102D88005A7F53123DBE7DA57F53123DBE7D207FE5
:102D98003D123DBE123DBAE4FF000000000FEFB443
:102DA800DCF79001C3E0FD7F25123DBE7D3F7F2605
:102DB800123DBE7A0179C41239D27B017A0179CCED
:102DC8009001AB7406F07F3A1239DC7B017A017905
:102DD800D29001AB7401F07F391239DC7B017A01A2
:102DE80079C99001AB7403F07F3E1239DC7B017A1C
:0E2DF8000179D39001AB7403F07F3B0239DC0C
:1034F40053B1F743B20853B1EF43B21053B3FB4394
:10350400B40443DE01A2AF9209C2AF75C7AA75C75E
:103514005543910143C60875C7AA75C7555391FE13
:10352400A20992AF43DE2053DF3F43DF0153DFF9AB
:1035340075D1FF75D9FFD2DFE4FBFAFDFCFFFE0273
:023544002C3425
:103A4000AD07AC06A2AF9209C2AF75C7AA75C7553C
:103A5000439101A20992AFECF5C5EDF5CDA2AF926D
:103A600009C2AF75C7AA75C7555391FEA20992AF97
:033A7000D2DE2281
:0D3E3B00AD07AC06ECF5D5EDF5DDD2DE22CD
:0D3E4800AD07AC06ECF5D2EDF5DAD2DE22C6
:102C340090019FEEF0A3EFF0A3ECF0A3EDF0A3EA74
:042C4400F0A3EBF01E
:102C4800A31220980000000090019FE0FEA3E0FF7F
:102C5800E4FCFD9001A512208C9001A51220809023
:102C680000A3E0FFE4FCFDFE121F339001A5122033
:102C78008C9001A5122074E47B64FAF9F8121FBE47
:102C88009001A512208C9001A5122074123A409050
:102C980001A1E0FEA3E0FFE4FCFD9001A512208C59
:102CA8009001A51220809000A3E0FFE4FCFDFE1235
:102CB8001F339001A512208C9001A5122074E47B8B
:102CC80064FAF9F8121FBE9001A512208C9001A594
:102CD800122074123E3B9001A3E0FEA3E0FFE4FC47
:102CE800FDA312208C9001A51220809000A3E0FF84
:102CF800E4FCFDFE121F339001A512208C9001A563
:102D0800122074E47B64FAF9F8121FBE9001A51230
:0B2D1800208C9001A5122074023E48A0
:103B98009000A3EFF0C3940A5003740AF09000A5B4
:103BA800E0FEA3E0FFA3E0FCA3E0FDA3E0FAA3E0AE
:043BB800FB022C34AC
:093EA00053B3EF43B410023F05D7
:033F0200D2942234
:033F0500C2942241
:033F0800B294224E
:063EF000A294E433FF225E
:0A3E9600EF6003023F02123F052215
:013F1300228B
:10320100EFF5A6EEF5A7A2AF9209C2AF75C7AA75F1
:10321100C755439F01A20992AFA2AF9209C2AF75F0
:10322100C7AA75C75543A501A20992AF75AF21AFD2
:10323100058FAEA2AF9209C2AF75C7AA75C7554334
:10324100A401A20992AFA2AF9209C2AF75C7AA7534
:10325100C75553A5FEA20992AFA2AF9209C2AF759D
:0D326100C7AA75C755539FFEA20992AF2260
:10388C008FA6EEF5A775AEFFA2AF9209C2AF75C7B2
:10389C00AA75C755439F01A20992AFA2AF9209C264
:1038AC00AF75C7AA75C75543A501A20992AF75AFED
:1038BC0022A2AF9209C2AF75C7AA75C75543A4011E
:0538CC00A20992AF22E9
:0C2EBB009001FAEEF0A3EFF0A31220F259
:102EC7009001FAE0FEA3E0F5A6EEF5A7A2AF9209FE
:102ED700C2AF75C7AA75C755439F01A20992AFA292
:102EE700AF9209C2AF75C7AA75C75543A501A20915
:102EF70092AF75AF21E4FEFF9001FFE0FDC3EF9DA8
:102F0700EE940050299001FC1220D28F828E8312FA
:102F17001D31F5AEA2AF9209C2AF75C7AA75C755E5
:102F270043A401A20992AF0FBF00010E80CAA2AF4E
:102F37009209C2AF75C7AA75C75553A5FEA20992D4
:102F4700AFA2AF9209C2AF75C7AA75C755539FFE07
:042F5700A20992AF8A
:012F5B002253
:040003008F828E83D7
:03000700E493FF80
:01000A0022D3
:073ED000A2B0B3E433FF22AE
:073ED700A297B3E433FF22C0
:063EF60012349D023DF2B2
:103D93007843E62438F8A607784306E6C3940A4036
:043DA30002E4F6221E
:103C97007842E6FE08667002FF2274382EF8E6FFC7
:0B3CA700784206E6C3940A4002E4F6EF
:013CB20022EF
:103CB3007844E6FE18667002FF2274382EF8E6FF99
:0B3CC300784406E6C3940A4002E4F6D1
:013CCE0022D3
:0B3E6D00EF75F00BA4242AF8E6FF22FA
:103BBC00EF75F00BA42428F8A60408A605AE03EFB5
:103BCC0075F00BA4242BF8A606EF75F00BA4242C8F
:043BDC00F8E4F622F1
:063EFC007843E618F622EF
:103DF20053ACFE53ADFE53B37F53B37FD2B0D297D1
:013E0200229D
:10349D00E47842F608F608F6FFEF75F00BA4242841
:1034AD00F87600087664EF75F00BA42425F8760203
:1034BD00EF75F00BA4242AF8E4F6EF75F00BA424B5
:1034CD002BF8E4F6EF75F00BA4242CF8E4F60FEFCF
:1034DD00B402C67BFF7A3E79D078221220C97A3E9B
:0734ED0079D7782D0220C9F8
:1026C400900196EFF0E075F00BA42422F9E4FAFBF4
:1026D4009002211220F21220FB122141EF7003021A
:1026E40027A39002211220D2900003121D31FFC3B0
:1026F4009405500890000374050227FDEFC3940A63
:1027040050089000037401021D5E900008121D31F0
:10271400701490000804121D91900196E075F00366
:10272400A404FF123D939002211220D290000612BD
:102734001E66FFAEF0D39400EE940050030228000E
:10274400900004121E66C39FE5F09E50239000047F
:10275400E475F001121E9EFCE5F06F7002EC6E60F1
:1027640003022800900196E075F003A42403802B53
:10277400900009121D31FFD39400500302280090E9
:10278400000A7401121D5EC39F407190000AE41296
:102794001D91900196E075F003A404FF023D93900F
:1027A40002211220D2900003121D31FFD394054060
:1027B4000A9000037405121D91802BEF600A9000AB
:1027C4000374FF121D5E801E900008121D31B401B7
:1027D40015900008E4121D91900196E075F003A491
:1027E4002402FF123D939002211220D2900004E4AF
:0D27F400F5F0121EEB90000AE4121D912278
:103CEA00E4900195F0900195E0FFC39402500B1205
:0A3CFA0026C4900195E004F080EB71
:013D0400229C
:1039970053B1BF53B2BF53B17F53B27F75985043F2
:1039A7008920438780438E1053C4DFAB07AA06A93B
:1039B70005A8047F407E427D0F7C00121FBEEF04E6
:0B39C700F404F58DD28ED299D2AC2210
:10326E0090019512208C53B1BF53B2BF53B17F530F
:10327E00B27F75985043878053C4F843C4209001A1
:10328E00951220807F407E427D0F7C00121FBEC3B0
:10329E0074FF9FFF74FF9EFEE49DFDE49CFC780886
:1032AE001220618FC69001951220807F407E427D54
:1032BE000F7C00121FBEC374FF9FFF8FC543C4084F
:0532CE00D299D2AC22F0
:073EA9003098FDAF99C298AB
:013EB00022EF
:083EB100C2998F993099FD229E
:1033320090020512208C53B1FB53B2FB53B3BF531F
:10334200B4BF75F85075C40853C4DF90020512204B
:10335200807F407E427D0F7C00121FBEC374FF9FA0
:10336200FF74FF9EFEE49DFDE49CFC780812206140
:103372008FC69002051220807F407E427D0F7C0026
:0E338200121FBEC374FF9FFF8FC543C40822F5
:073EB90030F8FDAF9AC2F8DA
:013EC00022DF
:083EC100C2F98F9A30F9FD22CD
:1037640090020912208C538EF7438901D28CE4FF16
:10377400FEFDFC900209122080C3122050602975BE
:103784008A7E758CFF308DFDC28D900209122074E3
:10379400EF24FFFFEE34FFFEED34FFFDEC34FFFCBD
:0B37A40090020912208C80C6C28C220B
:1037AF0090020D12208C538EF7438901D28CE4FFC7
:1037BF00FEFDFC90020D122080C31220506029756F
:1037CF008ACA758CFA308DFDC28D90020D1220744D
:1037DF00EF24FFFFEE34FFFEED34FFFDEC34FFFC72
:0B37EF0090020D12208C80C6C28C22BC
:1037FA0090021112208C538EEF438910D28EE4FF6F
:10380A00FEFDFC900211122080C31220506029751F
:10381A008BEA758DCB308FFDC28F90021112207406
:10382A00EF24FFFFEE34FFFEED34FFFDEC34FFFC26
:0B383A0090021112208C80C6C28E226A
:1035E40090021512208C53C9BF53C9DF43C910D2AE
:1035F400CAE4FFFEFDFC900215122080C312205085
:10360400602975CC3075CDF830CFFDC2CF9002154E
:10361400122074EF24FFFFEE34FFFEED34FFFDECC7
:0E36240034FFFC90021512208C80C6C2CA2210
:10367F0090021912208C75C40743C408E4FFFEFDA5
:10368F00FC900219122080C3122050602C75C52C9B
:10369F0075C6CFE5C430E4FB53C4EF900219122076
:1036AF0074EF24FFFFEE34FFFEED34FFFDEC34FF2B
:0D36BF00FC90021912208C80C353C4F72226
:1036CC0090021D12208C75C40743C408E4FFFEFD54
:1036DC00FC90021D122080C3122050602C75C5D89E
:1036EC0075C6FFE5C430E4FB53C4EF90021D1220F5
:1036FC0074EF24FFFFEE34FFFEED34FFFDEC34FFDE
:0D370C00FC90021D12208C80C353C4F722D4
:10292F000A3D3D3D3D3D3D3D3D3D3D3D3D3D3D3DFB
:10293F003D3D3D3D3D3D3D3D3D3D3D3D3D3D3D3DB8
:10294F003D3D3D3D3D3D3D3D3D3D3D3D3D3D3D3DA8
:10295F003D3D3D3D3D3D3D3D3D3D3D3D3D3D3D3D98
:10296F003D3D3D3D3D000A2A2020436F707972693D
:10297F006768742863292032303135204E75766FA1
:10298F00746F6E20546563686E6F6C6F6779204348
:10299F006F72702E20416C6C20726967687473209F
:1029AF0072657365727665642E2020000A2A2020D6
:1029BF00436F6E7461637420452D4D61696C3A20CD
:1029CF004D6963726F432D38626974406E75766F0F
:1029DF00746F6E2E636F6D2020202020202020200A
:1029EF0020202020202020202020202020202020D8
:1029FF0020000A2A202044656D6F20566572736986
:102A0F006F6E20203A202532642E2532642E253217
:102A1F0064000A2A202046696E6973686564204441
:102A2F00617465203A202532642E2532642E2532BA
:022A3F00640031
:1032D3007BFF7A29792F12220E7BFF7A29797512C7
:1032E300220E7BFF7A2979BB12220E7BFF7A2A7981
:1032F3000190016DE4F0A304F0E4A3F0A3F0A3F0C4
:10330300A3F012220E7BFF7A2A792190016D7407B4
:10331300F0A374DFF0A3E4F0A37405F0A3E4F0A337
:0F332300741FF012220E7BFF7A29792F02220EDF
:03000000022F5C70
:102F5C00787FE4F6D8FD9000007FFF7E03E4F0A3B9
:0A2F6C00DFFCDEFA758144022FB18C
:102F7600022508E493A3F8E493A34003F68001F244
:102F860008DFF48029E493A3F85407240CC8C3335C
:102F9600C4540F4420C8834004F456800146F6DF2B
:102FA600E4800B0102040810204080902FF6E47E96
:102FB600019360BCA3FF543F30E509541FFEE49320
:102FC600A360010ECF54C025E060A840B8E493A3E7
:102FD600FAE493A3F8E493A3C8C582C8CAC583CA12
:102FE600F0A3C8C582C8CAC583CADFE9DEE780BECA
:01308200004D
:101C2200E709F608DFFA8046E709F208DFFA803EA4
:101C320088828C83E709F0A3DFFA8032E309F60891
:101C4200DFFA8078E309F208DFFA807088828C83F9
:101C5200E309F0A3DFFA806489828A83E0A3F608AD
:101C6200DFFA805889828A83E0A3F208DFFA804C87
:101C720080D280FA80C680D4806980F2803380105E
:101C820080A680EA809A80A880DA80E280CA8033C7
:101C920089828A83ECFAE493A3C8C582C8CCC5833F
:101CA200CCF0A3C8C582C8CCC583CCDFE9DEE7800F
:101CB2000D89828A83E493A3F608DFF9ECFAA9F08E
:101CC200EDFB2289828A83ECFAE0A3C8C582C8CCE4
:101CD200C583CCF0A3C8C582C8CCC583CCDFEADEFD
:101CE200E880DB89828A83E493A3F208DFF980CC5F
:101CF20088F0EF60010E4E60C388F0ED2402B40458
:101D02000050B9F582EB2402B4040050AF232345FE
:061D12008223901C727395
:101D1800BB010689828A83E0225002E722BBFE02C9
:091D2800E32289828A83E49322FC
:101D3100BB010CE58229F582E5833AF583E0225067
:101D410006E92582F8E622BBFE06E92582F8E222B1
:0D1D5100E58229F582E5833AF583E49322CB
:101D5E00BB010FF8E58229F582E5833AF583E02889
:101D6E00F0225009C58229F8E58226F622BBFE092B
:101D7E00C58229F8E22582F222F8EA2583F583E965
:031D8E0093282275
:101D9100F8BB010DE58229F582E5833AF583E8F088
:101DA100225006E92582C8F622BBFE05E92582C834
:021DB100F2221C
:101DB300EF8DF0A4A8F0CF8CF0A428CE8DF0A42E44
:021DC300FE22FE
:101DC500BC000BBE0029EF8DF084FFADF022E4CC02
:101DD500F875F008EF2FFFEE33FEEC33FCEE9DECCB
:101DE500984005FCEE9DFE0FD5F0E9E4CEFD22ED11
:101DF500F8F5F0EE8420D21CFEADF075F008EF2F5B
:101E0500FFED33FD4007985006D5F0F222C398FD4B
:051E15000FD5F0EA22E8
:101E1A00C2D5EC30E709B2D5E4C39DFDE49CFCEEE3
:101E2A0030E715B2D5E4C39FFFE49EFE121DC5C379
:101E3A00E49DFDE49CFC8003121DC530D507C3E474
:061E4A009FFFE49EFE2252
:101E5000C5F0F8A3E028F0C5F0F8E582158270021D
:061E60001583E038F022BA
:101E6600BB0110E58229F582E5833AF583E0F5F0BA
:101E7600A3E0225009E92582F886F008E622BBFE97
:101E86000AE92582F8E2F5F008E222E5832AF583DD
:081E9600E993F5F0A3E99322A2
:101E9E00BB010DC58229C582C5833AC583021E507A
:101EAE005011C58229F808E5F026F618F5F0E582FE
:101EBE0036F622BBFE11C58229F808E225F0F5F0B0
:101ECE00F218E23582F222F8E58229F582E5832ABC
:0D1EDE00F58374019325F0F5F0E4933822AC
:101EEB00F8BB0111E58229F582E5833AF583E8F029
:101EFB00E5F0A3F0225009E92582C8F608A6F022E6
:0D1F0B00BBFE09E92582C8F2E5F008F222CC
:0D1F1800EF2BFFEE3AFEED39FDEC38FC2218
:0E1F2500C3EF9BFFEE9AFEED99FDEC98FC22B7
:101F3300E88FF0A4CC8BF0A42CFCE98EF0A42CFC4D
:101F43008AF0EDA42CFCEA8EF0A4CDA8F08BF0A4CB
:101F53002DCC3825F0FDE98FF0A42CCD35F0FCEB2A
:101F63008EF0A4FEA9F0EB8FF0A4CFC5F02ECD39EF
:0F1F7300FEE43CFCEAA42DCE35F0FDE43CFC225C
:101F820075F008758200EF2FFFEE33FECD33CDCC16
:101F920033CCC58233C5829BED9AEC99E582984099
:101FA2000CF582EE9BFEED9AFDEC99FC0FD5F0D676
:101FB200E4CEFBE4CDFAE4CCF9A88222B800C1B9A0
:101FC2000059BA002DEC8BF084CFCECDFCE5F0CBDE
:101FD200F97818EF2FFFEE33FEED33FDEC33FCEB17
:101FE20033FB10D703994004EB99FB0FD8E5E4F9D2
:101FF200FA227818EF2FFFEE33FEED33FDEC33FCBF
:10200200C933C910D7059BE99A4007EC9BFCE99AB2
:10201200F90FD8E0E4C9FAE4CCFB2275F010EF2FF7
:10202200FFEE33FEED33FDCC33CCC833C810D707F7
:102032009BEC9AE899400AED9BFDEC9AFCE899F832
:0E2042000FD5F0DAE4CDFBE4CCFAE4C8F922C5
:10205000EB9FF5F0EA9E42F0E99D42F0E89C45F0E6
:01206000225D
:10206100E8600FECC313FCED13FDEE13FEEF13FF5D
:03207100D8F12281
:0C207400E0FCA3E0FDA3E0FEA3E0FF22DF
:0C208000E0F8A3E0F9A3E0FAA3E0FB22E3
:0C208C00ECF0A3EDF0A3EEF0A3EFF022C7
:10209800A8828583F0D083D0821220AF1220AF129D
:1020A80020AF1220AFE473E493A3C583C5F0C583C2
:1020B800C8C582C8F0A3C583C5F0C583C8C582C892
:0120C80022F5
:0920C900EBF608EAF608E9F6223C
:0920D200E0FBA3E0FAA3E0F9220F
:1020DB00F8E0FBA3A3E0F925F0F0E582158270028E
:0720EB001583E0FA38F02232
:0920F200EBF0A3EAF0A3E9F022EF
:1020FB00BB010789828A830220D25005E9F80221AD
:10210B0085BBFE05E9F802218E89828A830221971D
:10211B00D083D082F8E4937012740193700DA3A353
:10212B0093F8740193F5828883E473740293686067
:06213B00EFA3A3A380DF67
:062141008A838982E47329
:1021A300E508246DF582E43401F583E00508229007
:1021B300016A30070390016DE475F0011220DB0220
:1021C3001D182000E97F2ED2008018EF540F2490B1
:1021D300D43440D4FF30040BEF24BFB41A005003AF
:1021E3002461FFE50960021509050CE50C70020581
:1021F3000B30070E90016AE475F0011220DBEF0249
:102203002173023B277403D2078003E4C207F50856
:1022130090016A1220F2E4F509F50BF50CE509606B
:10222300077F201221E680F5750AFFC201C200C2B2
:1022330002C203C205C206C2081221B2FF700D30EA
:1022430007057F001221F7AF0CAE0B22B4255FC246
:10225300D5C2041221B2FF24D0B40A00501A75F07B
:102263000A780930D50508B6FF0106C6A426F6206C
:10227300D5047002D20380D924CFB41A00EF5004DE
:10228300C2E5D2040223F8D20180C6D20080C0D2B4
:102293000280BCD2D580BAD20580B47F201221E659
:1022A3002002077401B5090040F11221A3FF122196
:1022B300E6022220D208D20680951221A3FB122126
:1022C300A3FA1221A3F94A4B700679C97A247BFF3A
:1022D30020022EE509602A7E008E82758300121D7E
:1022E3003160060EEE650A70F0C2D5EBC0E0EAC0BD
:1022F300E0E9C0E0EE12243FD0E0F9D0E0FAD0E00C
:10230300FB121D18FF60AAEBC0E0EAC0E0E9C0E0E1
:102313001221E6D0E02401F9D0E03400FAD0E0FB4A
:10232300E50A0460DCD50AD980877BFF7A24793BF0
:10233300D202809C791080027908C206C208800804
:10234300D2D5790A8004790AC2D5E50A047002F568
:102353000AE4FAFDFEFF1221A3FC7B0820011312FD
:1023630021A3FD7B1030000A1221A3FE1221A3FF3B
:102373007B20EC3382D592D55013C3E43000069F03
:10238300FFE49EFEE42001039DFDE49CFCE4CBF806
:10239300C201EC700CCFCECDCCE824F8F870F380FA
:1023A30017C3EF33FFEE33FEED33FDEC33FCEB33BA
:1023B300FB994002FB0FD8E9EB300105F8D0E0C4EC
:1023C30048B201C0E00AEC4D4E4F78207B0070C24A
:1023D300EAB50A0040BCC0E0122441D0F0D0E020AE
:1023E3000104C4C0E0C4B201C0F01221CFD0F0D5C3
:1023F300F0EB02222012211B22BD53233758228ED9
:102403004C228A42233B4F23434423434922A34381
:08241300234955232D46232D1A
:10241B0045232D4724E95022922D22962E22B92BAB
:10242B00229A2322B72024D22A225248000022B11A
:10243B003F3F3F00790AA2D5200314300509B9109C
:10244B00020404B9080104A2D5200602500104209D
:10245B0002689202B509005034C0E07F20300319A6
:10246B007F30A20272067205500F122498C202C26C
:10247B0006C205C2087F30800F300503E9C0E012A9
:10248B0021E6300503D0E0F9D0E0B509CC300517D3
:10249B007F30B9100C1221E67F583004077F78800B
:1024AB0003B908031221E63002057F2D0221E67FD6
:1024BB00202008F87F2B2006F322920280CF286E73
:1024CB00756C6C2900D2011221A33001F8C201787E
:1024DB000930D50108F60222522D504349581221DA
:1024EB00A32403B405004001E49024E4931221D704
:0D24FB00743A1221D7D20375090402233769
:0C3E6100EE30E707C3E49FFFE49EFE2262
:10214700EF4E6012EF60010EEDBB010B89828A83AF
:10215700F0A3DFFCDEFA2289F05007F709DFFCA9BC
:0C216700F022BBFEFCF309DFFCA9F02213
:10217300BB010689828A83F0225002F722BBFE014B
:02218300F32245
:09218500E6FB08E6FA08E6F9227F
:09218E00E2FB08E2FA08E2F92282
:0C219700E493FB740193FA740293F922A4
:103B2700EFB40A07740D123B32740A309811A89942
:103B3700B8130CC2983098FDA899C298B811F630FE
:073B470099FDC299F59922D6
:00000001FF
