:04106C004100A90096
:101154001212F71213AC900077E06002E4F09000F2
:1011640079E06002E4F090007CE060EAE4F0120EC2
:03117400EE80E327
:101070004800530A1414191E1E322841005200C1A0
:011080000966
:1011D70090005B7401F0E4A3F0A3F0A3F0A3F0A3E5
:0C11E700F0A3F0A3F0A3F0900052F0225F
:10110C0090005EE004F0700690005DE004F0D39077
:10111C00005EE0941090005DE094274004E4F0A39E
:04112C00F0D20922D2
:0D000E00900052E0C394FF5003E004F02284
:09137500300905C2091213BE2261
:0113BE00220C
:0C133200900070EBF0A3EAF0A3E9F022B9
:0C133E00900073EBF0A3EAF0A3E9F022AA
:1012D700900070A3E0FAA3E0F94A60031205EE223A
:1012E700900073A3E0FAA3E0F94A60031205EE2227
:10103A00EF4E602D900066EEF0A3EFF0AF05A3EC43
:10104A00F0A3EFF0AF03A3EAF0A3EFF0E4A3F0A359
:10105A00F0A3F0A3F0900065F090006404F012127F
:02106A00D7228B
:10122800E4900064F01212E77B007A007900121350
:041238003202133E2D
:10097600900064E07003020A2A900068E0FEA3E09B
:10098600FF4E7003020A2A900065E07035D3EF949B
:1009960000EE94005003020A2A90006CE475F00100
:1009A6001204DAFED3900067E095F0900066E09EB0
:1009B60050721212E7E490006CF0A3F09000650408
:1009C600F022900065E06401705A90006C75F001A9
:1009D6001204DAFED3900069E095F0900068E09E7C
:1009E600504290006AE0FEA3E0FF9400EE940040BF
:1009F6002590006EE475F0011204DAFCD3EF95F051
:100A0600EE9C5005E4900064F0900064E07007905E
:100A16000068F0A3F022E490006CF0A3F09000656B
:050A2600F01212D722BE
:080003000102030405060708D1
:041081004100AA0080
:0613AC00120653021306B5
:100EEE0078287C007D017BFF7A0079037E007F08E5
:100EFE00120453121361EF24F0602124D0601D24DC
:100F0E0020701F9000AAE06006E4F07F0180089038
:100F1E0000AA7401F07F5A121250800012134A0276
:0D0F2E00139E7B017A0079287D08120F7F49
:010F3B002293
:0F12F70012129E1213A5120C0F12119AD2AF22CF
:0B1356007F807E257D007C00020B38AC
:1012780030F80BE59A1204A6C2F8D20B8002C20B12
:02128800A20BB7
:01128A002241
:0810850041007D0041007E00E6
:10119A001211F35389F0438901538EEF90007D7445
:1011AA00FDF0A37467F0758CFDF58AD2A9D28C2262
:1011F300E4900076F0900078F090007AF0A3F090FD
:0C1203000077F0900079F090007CF02261
:03000B00020BA63F
:100BA600C0E0C0F0C083C082C0D075D000C000C015
:100BB6000690007DE0F58CA3E0F58A900076E004CF
:100BC600F0C3940A4005E4F0A304F0900078E00432
:100BD600F0C394644005E4F0A304F090007AE47551
:100BE600F0011204DAFEC3E5F094E8EE9403400A3D
:100BF60090007AE4F0A3F0A304F0D006D000D0D0A1
:090C0600D082D083D0F0D0E0329E
:10128B0053897F5389BF4389205389EF758DCE7561
:03129B008BCE22D5
:03001B000213BF0E
:0113BF0032FB
:101130000A6D679C46F6375D4521EFAC5A50010BAE
:10114000DF020A6D679C46F6375D4521EFAC5A50C9
:04115000E10BDF02CE
:08108D00450084CCCCCCCCCC96
:10129E0053B3FE43B40153B3FD43B40253B1FE4303
:0312AE00B2012268
:0113C000220A
:1011BA00E4FEC290EF30E704D2808002C280EF25BD
:0C11CA00E0FFD290000EEEB408E8C290E6
:0111D60022F6
:0412B100E4FD7FFCDD
:0F12B500C291001211BAAF051211BA00D29122E4
:0A0F3C007B0190003E7405F07F3F3A
:0B0F460090003BEBF0A3EAF0A3E9F001
:100F5100C291E4FD1211BA90003EE0FFEDC39F5033
:100F61001A90003BE0FBA3E0FAA3E0F98D827583C0
:0D0F710000120479FF1211BA0D80DCD2913C
:010F7E002250
:10117700E4FEC290EF30E704D2808002C280EF2500
:10118700E0FFD290000EEEB408E843B10153B2FE7F
:02119700C29004
:011199002233
:10120F00E4FFFEC290EF25E0FFD29030800344014F
:08121F00FF0EEEB408EDC290D1
:0112270022A4
:1012C400C2910012117712120F53B1FE43B2010002
:0212D400D291B5
:0112D60022F5
:0B0FC200900080EBF0A3EAF0A3E9F040
:100FCD00C291121177E4FD900083E0FFEDC39F50B5
:100FDD001A12120F900080E0FBA3E0FAA3E0F98D46
:100FED0082758300EF1204B80D80DC53B1FE43B25D
:030FFD0001D2918D
:0110000022CD
:0F1306001212B17D8E7F201212B500000000225E
:1010E600E4FEFD7FFC1212B57D8F7F201212B5E45F
:1010F600FD7FFD1212B5E4FEFF000FBF00010EBE1C
:0511060007F7BFD0F463
:01110B0022C1
:0A1361007F071212C4EF5470FF2240
:0613B2007F091212C422A3
:07139E007D707F270212B5EC
:0C134A00E4FD7FE11212B57FE20212B553
:0E132400AC071212B1AF04AD077F250212B55F
:060F7F00121361EF703C4B
:100F8500900030F0A3F090003EEDF07FA0120F46E8
:100F9500E4FD7FFD1212B5E4900030F0A3F000905F
:100FA5000031E004F07006900030E004F09000306D
:0C0FB500E07004A3E064C870E51212B103
:010FC100220D
:10109600AC05121361EF30E61D1212B1900083EC1D
:1010A600F07F61120FC212134A12139EE4FD7FFDF8
:0910B6001212B57F01227F002215
:1006530078287C007D017BFF7A1179307E007F054D
:10066300120453782D7C007D017BFF7A1179357E4E
:10067300007F0312045378307C007D017BFF7A11E5
:1006830079387E007F0612045378367C007D017B27
:10069300FF7A11793E7E007F0112045378377C0084
:1006A3007D017BFF7A11793F7E007F031204531291
:1006B30013C07D5A7F531212B57DA57F531212B515
:1006C3007D207F3D1212B51212B17FE11212B57F68
:1006D300E21212B57D707F271212B57D017F2212BF
:1006E30012B57D037F231212B57D4E7F251212B5FD
:1006F3007D087F311212B57B017A00798490003E28
:100703007405F07F30120F467B017A0079849000E4
:100713003E7405F07F2A120F467A007928120F3CA7
:100723007B017A00793090003E7406F07F3A120F15
:10073300467B017A00793690003E7401F07F3912CE
:100743000F467B017A00792D90003E7403F07F3EC3
:10075300120F467B017A00793790003E7403F07FD5
:100763003B120F46E4FD7F3C1212B57D3F7F2612FC
:0E07730012B5E4FD7F241212B57F210212B5EB
:0508930090003FEFF0B2
:10089800E478407C007D017BFF7A117942FE7F0578
:1008A80012045378457C007D017BFF7A1179477EDD
:1008B800007F0312045378487C007D017BFF7A1186
:1008C800794A7E007F06120453784E7C007D017BB6
:1008D800FF7A1179507E007F01120453784F7C0013
:1008E8007D017BFF7A1179517E007F031204537DCD
:1008F8005A7F531212B57DA57F531212B57D207F02
:100908003D1212B51212B1E4FF000000000FEFB45F
:10091800DCF790003FE0FD7F251212B57D3F7F2672
:100928001212B57A007940120F3C7B017A0079489F
:1009380090003E7406F07F3A120F467B017A0079E8
:100948004E90003E7401F07F39120F467B017A0009
:10095800794590003E7403F07F3E120F467B017A82
:0E09680000794F90003E7403F07F3B020F4673
:100C0F0053B1F743B20853B1EF43B21053B3FB43A1
:100C1F00B40443DE01A2AF920AC2AF75C7AA75C76B
:100C2F005543910143C60875C7AA75C7555391FE21
:100C3F00A20A92AF43DE2053DF3F43DF0353DFFBB4
:100C4F0075D10775D9D075D20175DAF475D50175DF
:100C5F00DDD475C50175CDA4D2DED2DFE4FBFDFF77
:030C6F0002131558
:10123C00E4EF75F00AA4ACF0FDECF5C5AF05EFF5E5
:03124C00CDD2DE22
:01124F00227C
:10125000E4EF75F00AA4ACF0FDECF5D5AF05EFF5C1
:03126000DDD2DEFE
:011263002268
:10126400E4EF75F00AA4ACF0FDECF5D2AF05EFF5B0
:03127400DAD2DEED
:011277002254
:0F131500AE0512123CAF06121250AF0302126463
:0713A50053B3EF43B4102223
:0313B800D29422AA
:0313BB00C29422B7
:0A136B00EF60030213B81213BB2257
:1010010053B1BF53B2BF53B17F53B27F75985043B1
:101011008920438780438E1053C4DFAB07AA06A9FA
:1010210005A8047F407E427D0F7C0012052CEF0451
:09103100F404F58DD28ED299224F
:100AC5009000891205E253B1BF53B2BF53B17F53B2
:100AD500B27F75985043878053C4F843C420900073
:100AE50089E0F8A3E0F9A3E0FAA3E0FB7F407E42AA
:100AF5007D0F7C0012052CC374FF9FFF74FF9EFEC3
:100B0500E49DFDE49CFC78081205CF8FC690008912
:100B1500E0F8A3E0F9A3E0FAA3E0FB7F407E427D85
:100B25000F7C0012052CC374FF9FFF8FC543C408BB
:030B3500D2992230
:07137E003098FDAF99C29801
:011385002245
:08138600C2998F993099FD22F4
:100B380090008D1205E253B1FB53B2FB53B3BF5380
:100B4800B4BF75F85075C40853C4DF90008DE0F841
:100B5800A3E0F9A3E0FAA3E0FB7F407E427D0F7C8F
:100B68000012052CC374FF9FFF74FF9EFEE49DFDD9
:100B7800E49CFC78081205CF8FC690008DE0F8A39E
:100B8800E0F9A3E0FAA3E0FB7F407E427D0F7C0002
:0E0B980012052CC374FF9FFF8FC543C40822B3
:07138E0030F8FDAF9AC2F830
:011395002235
:08139600C2F98F9A30F9FD2223
:100DE3009000911205E2538EF7438901D28CE4FF00
:100DF300FEFDFC900091E0F8A3E0F9A3E0FAA3E084
:100E0300FBC31205BE602F758A7E758CFF308DFD86
:100E1300C28D900091E0FCA3E0FDA3E0FEA3E024DB
:100E2300FFFFEE34FFFEED34FFFDEC34FFFC9000DA
:090E3300911205E280B8C28C2284
:100E3C009000951205E2538EF7438901D28CE4FFA2
:100E4C00FEFDFC900095E0F8A3E0F9A3E0FAA3E026
:100E5C00FBC31205BE602F758ACA758CFA308DFDE6
:100E6C00C28D900095E0FCA3E0FDA3E0FEA3E0247E
:100E7C00FFFFEE34FFFEED34FFFDEC34FFFC900081
:090E8C00951205E280B8C28C2227
:100E95009000991205E2538EEF438910D28EE4FF3C
:100EA500FEFDFC900099E0F8A3E0F9A3E0FAA3E0C9
:100EB500FBC31205BE602F758BEA758DCB308FFD98
:100EC500C28F900099E0FCA3E0FDA3E0FEA3E0241F
:100ED500FFFFEE34FFFEED34FFFDEC34FFFC900028
:090EE500991205E280B8C28E22C8
:100CD10090009D1205E253C9BF53C9DF43C910D229
:100CE100CAE4FFFEFDFC90009DE0F8A3E0F9A3E05B
:100CF100FAA3E0FBC31205BE602F75CC3075CDF8A9
:100D010030CFFDC2CF90009DE0FCA3E0FDA3E0FE4B
:100D1100A3E024FFFFEE34FFFEED34FFFDEC34FFD2
:0C0D2100FC90009D1205E280B8C2CA22BE
:100D2D009000A11205E275C40743C408E4FFFEFD5F
:100D3D00FC9000A1E0F8A3E0F9A3E0FAA3E0FBC367
:100D4D001205BE603275C52C75C6CFE5C430E4FB07
:100D5D0053C4EF9000A1E0FCA3E0FDA3E0FEA3E0EF
:100D6D0024FFFFEE34FFFEED34FFFDEC34FFFC906D
:0B0D7D0000A11205E280B553C4F7226C
:100D88009000A51205E275C40743C408E4FFFEFD00
:100D9800FC9000A5E0F8A3E0F9A3E0FAA3E0FBC308
:100DA8001205BE603275C5D875C6FFE5C430E4FBD0
:100DB80053C4EF9000A5E0FCA3E0FDA3E0FEA3E090
:100DC80024FFFFEE34FFFEED34FFFDEC34FFFC9012
:0B0DD80000A51205E280B553C4F7220D
:100781000A3D3D3D3D3D3D3D3D3D3D3D3D3D3D3DCB
:100791003D3D3D3D3D3D3D3D3D3D3D3D3D3D3D3D88
:1007A1003D3D3D3D3D3D3D3D3D3D3D3D3D3D3D3D78
:1007B1003D3D3D3D3D3D3D3D3D3D3D3D3D3D3D3D68
:1007C1003D3D3D3D3D000A2A2020436F707972690D
:1007D1006768742863292032303135204E75766F71
:1007E100746F6E20546563686E6F6C6F6779204318
:1007F1006F72702E20416C6C20726967687473206F
:1008010072657365727665642E2020000A2A2020A5
:10081100436F6E7461637420452D4D61696C3A209C
:100821004D6963726F432D38626974406E75766FDE
:10083100746F6E2E636F6D202020202020202020D9
:1008410020202020202020202020202020202020A7
:1008510020000A2A202044656D6F20566572736955
:100861006F6E20203A202532642E2532642E2532E7
:1008710064000A2A202046696E6973686564204411
:10088100617465203A202532642E2532642E25328A
:02089100640001
:100C72007BFF7A0779811200897BFF7A0779C71295
:100C820000897BFF7A08790D1200897BFF7A087947
:100C920053900003E4F0A304F0E4A3F0A3F0A3F064
:100CA200A3F01200897BFF7A08797390000374071E
:100CB200F0A374DFF0A3E4F0A37405F0A3E4F0A3BF
:0F0CC200741FF01200897BFF7A07798102008985
:03000000020A2BC6
:100A2B00787FE4F6D8FD9000007FFF7E03E4F0A30F
:0A0A3B00DFFCDEFA758121020A805B
:100A4500021154E493A3F8E493A34003F68001F262
:100A550008DFF48029E493A3F85407240CC8C333B2
:100A6500C4540F4420C8834004F456800146F6DF81
:100A7500E4800B010204081020408090106CE47E95
:100A8500019360BCA3FF543F30E509541FFEE49376
:100A9500A360010ECF54C025E060A840B8E493A33D
:100AA500FAE493A3F8E493A3C8C582C8CAC583CA68
:100AB500F0A3C8C582C8CAC583CADFE9DEE780BE20
:01109500005A
:10038300E709F608DFFA8046E709F208DFFA803E5C
:1003930088828C83E709F0A3DFFA8032E309F60849
:1003A300DFFA8078E309F208DFFA807088828C83B1
:1003B300E309F0A3DFFA806489828A83E0A3F60865
:1003C300DFFA805889828A83E0A3F208DFFA804C3F
:1003D30080D280FA80C680D4806980F28033801016
:1003E30080A680EA809A80A880DA80E280CA80337F
:1003F30089828A83ECFAE493A3C8C582C8CCC583F7
:10040300CCF0A3C8C582C8CCC583CCDFE9DEE780C6
:100413000D89828A83E493A3F608DFF9ECFAA9F045
:10042300EDFB2289828A83ECFAE0A3C8C582C8CC9B
:10043300C583CCF0A3C8C582C8CCC583CCDFEADEB4
:10044300E880DB89828A83E493A3F208DFF980CC16
:1004530088F0EF60010E4E60C388F0ED2402B4040F
:100463000050B9F582EB2402B4040050AF232345B6
:0604730082239003D37305
:10047900BB010CE58229F582E5833AF583E0225038
:1004890006E92582F8E622BBFE06E92582F8E22282
:0D049900E58229F582E5833AF583E493229C
:1004A600BB010689828A83F0225002F722BBFE0135
:0204B600F3222F
:1004B800F8BB010DE58229F582E5833AF583E8F07A
:1004C800225006E92582C8F622BBFE05E92582C826
:0204D800F2220E
:1004DA00C5F0F8A3E028F0C5F0F8E58215827002AD
:0604EA001583E038F0224A
:1004F00075F008758200EF2FFFEE33FECD33CDCCC3
:1005000033CCC58233C5829BED9AEC99E582984045
:100510000CF582EE9BFEED9AFDEC99FC0FD5F0D622
:10052000E4CEFBE4CDFAE4CCF9A88222B800C1B94C
:100530000059BA002DEC8BF084CFCECDFCE5F0CB8A
:10054000F97818EF2FFFEE33FEED33FDEC33FCEBC3
:1005500033FB10D703994004EB99FB0FD8E5E4F97E
:10056000FA227818EF2FFFEE33FEED33FDEC33FC6B
:10057000C933C910D7059BE99A4007EC9BFCE99A5F
:10058000F90FD8E0E4C9FAE4CCFB2275F010EF2FA4
:10059000FFEE33FEED33FDCC33CCC833C810D707A4
:1005A0009BEC9AE899400AED9BFDEC9AFCE899F8DF
:0E05B0000FD5F0DAE4CDFBE4CCFAE4C8F92272
:1005BE00EB9FF5F0EA9E42F0E99D42F0E89C45F093
:0105CE00220A
:1005CF00E8600FECC313FCED13FDEE13FEEF13FF0A
:0305DF00D8F1222E
:0C05E200ECF0A3EDF0A3EEF0A3EFF0228C
:0605EE008A838982E47398
:10001E00E5082403F582E43400F583E00508229018
:10002E000000300703900003E475F00112060D0284
:10003E0005F42000E97F2ED2008018EF540F249093
:10004E00D43440D4FF30040BEF24BFB41A00500355
:10005E002461FFE50960021509050CE50C70020527
:10006E000B30070E900000E475F00112060DEF0242
:10007E0004A60210BF7403D2078003E4C207F5087A
:10008E00900000120624E4F509F50BF50CE5096065
:10009E00077F2012006180F5750AFFC201C200C2FF
:1000AE0002C203C205C206C20812002DFF700D3037
:1000BE0007057F00120072AF0CAE0B22B4255FC293
:1000CE00D5C20412002DFF24D0B40A00501A75F0C8
:1000DE000A780930D50508B6FF0106C6A426F62013
:1000EE00D5047002D20380D924CFB41A00EF500485
:1000FE00C2E5D204020273D20180C6D20080C0D201
:10010E000280BCD2D580BAD20580B47F20120061A5
:10011E002002077401B5090040F112001EFF120003
:10012E006102009BD208D206809512001EFB1200BF
:10013E001EFA12001EF94A4B700679447A037BFFB1
:10014E0020022EE509602A7E008E8275830012043D
:10015E007960060EEE650A70F0C2D5EBC0E0EAC01B
:10016E00E0E9C0E0EE1202BAD0E0F9D0E0FAD0E059
:10017E00FB1205F4FF60AAEBC0E0EAC0E0E9C0E0C4
:10018E00120061D0E02401F9D0E03400FAD0E0FB97
:10019E00E50A0460DCD50AD980877BFF7A0279B63E
:1001AE00D202809C791080027908C206C2088008AB
:1001BE00D2D5790A8004790AC2D5E50A047002F50F
:1001CE000AE4FAFDFEFF12001EFC7B08200113124A
:1001DE00001EFD7B1030000A12001EFE12001EFFD4
:1001EE007B20EC3382D592D55013C3E43000069FAA
:1001FE00FFE49EFEE42001039DFDE49CFCE4CBF8AD
:10020E00C201EC700CCFCECDCCE824F8F870F380A0
:10021E0017C3EF33FFEE33FEED33FDEC33FCEB3360
:10022E00FB994002FB0FD8E9EB300105F8D0E0C492
:10023E0048B201C0E00AEC4D4E4F78207B0070C2F0
:10024E00EAB50A0040BCC0E01202BCD0F0D0E020FB
:10025E000104C4C0E0C4B201C0F012004AD0F0D50F
:10026E00F0EB02009B12062D01385301B258010922
:10027E004C01054201B64F01BE4401BE49011E4369
:08028E0001C45501A84601A8B6
:100296004501A847036450010D2D01112E01342B91
:1002A600011523013220034D2A00CD480000012C00
:1002B6003F3F3F00790AA2D5200314300509B91043
:1002C600020404B9080104A2D52006025001042044
:1002D60002689202B509005034C0E07F203003194D
:1002E6007F30A20272067205500F120313C202C2B9
:1002F60006C205C2087F30800F300503E9C0E01250
:100306000061300503D0E0F9D0E0B509CC3005171F
:100316007F30B9100C1200617F583004077F788057
:1003260003B908031200613002057F2D0200617FC8
:10033600202008F87F2B2006F322920280CF286E19
:10034600756C6C2900D20112001E3001F8C20178CA
:100356000930D50108F60200CD2D50434958120048
:100366001E2403B405004001E490035F931200527B
:0D037600743A120052D2037509040201B25C
:1005F400BB010689828A83E0225002E722BBFE0205
:09060400E32289828A83E4932237
:10060D00F8E0FBA3A3E0F925F0F0E5821582700276
:07061D001583E0FA38F0221A
:09062400EBF0A3EAF0A3E9F022D7
:10062D00D083D082F8E4937012740193700DA3A35C
:10063D0093F8740193F5828883E473740293686070
:06064D00EFA3A3A380DF70
:1010BF00EFB40A07740D1210CA740A309811A89968
:1010CF00B8130CC2983098FDA899C298B811F63091
:0710DF0099FDC299F5992269
:00000001FF
