:083001004102250041022400F8
:1025130012000E123F1A123B0B123F16123D4312CA
:1025230035A09001E8E06060E4F0900225E004F05B
:102533009000A4E0FFC394324027EF24CEFFE4349D
:10254300FFFE7C007D03121DD0EF240AFFE43EFE54
:10255300900225E0D39FEE6480F874809840298030
:10256300229000A4E0FFC374329FFFE49400FE7C3A
:10257300007D06121DD0C3740A9FFF900225E0D38D
:102583009F4005E4F0120C099001EAE06005E4F0D5
:10259300123CF59001ECE06008E4F01200261235DD
:1025A300519001EEE06002E4F09001F1E06002E49A
:0E25B300F0123CA2900192EFF0700302252579
:1025C100E024FD70030226A21470030226C924022E
:1025D1006003022525900224E0600302269A9002FE
:0825E10027E020E30302269A23
:1025E900E4900193F0A3F0123D5B900193E0FF04A6
:1025F900F074412FF582E43401F58374F8F0900109
:1026090093E0FF04F074412FF582E43401F58374FB
:1026190009F0900193E0FF04F074412FF582E4344E
:1026290001F5837403F0900193E02441F9E4340146
:10263900FA7B017D08123AB0900193E02408F0E496
:10264900A3F0900142E02401FFE433FE900194E0FD
:10265900FDC39FEE6480F8748098502474422DF570
:1026690082E43401F583E0FF900193E02441F5828F
:10267900E43401F583E02FF0900194E004F080C286
:10268900900193E004F07B017A017941E0FD123178
:012699001927
:10269A00E4900224F00225259002247401F09002AD
:1026AA0027E0FF30E30954F7F0123CDA02252590BF
:1026BA000227E04408F054FBF0123D73022525126C
:0526CA003F130225256D
:013F16002288
:013F17002287
:013F18002286
:013F19002285
:063EE9009001E20220FD41
:063EEF009001E50220FD38
:0E3E0E009001E21220DDE94A600312214C22ED
:0E3E1C009001E51220DDE94A600312214C22DC
:103A7E00EF4E602D9001D8EEF0A3EFF0AF05A3EC62
:103A8E00F0A3EFF0AF03A3EAF0A3EFF0E4A3F0A3EB
:103A9E00F0A3F0A3F09001D7F09001D604F0123EFF
:023AAE000E22E6
:103D8A00E49001D6F0123E1C7B007A007900123EC4
:043D9A00E9023EEF0D
:102E11009001D6E07003022EC59001DAE0FEA3E036
:102E2100FF4E7003022EC59001D7E07035D3EF94A9
:102E310000EE94005003022EC59001DEE475F0010E
:102E4100121E5BFED39001D9E095F09001D8E09E6F
:102E51005072123E1CE49001DEF0A3F09001D70401
:102E6100F0229001D7E06401705A9001DE75F00103
:102E7100121E5BFED39001DBE095F09001DAE09E3B
:102E810050429001DCE0FEA3E0FF9400EE9400408C
:102E9100259001E0E475F001121E5BFCD3EF95F083
:102EA100EE9C5005E49001D6F09001D6E0700790B9
:102EB10001DAF0A3F022E49001DEF0A3F09001D753
:052EC100F0123E0E229C
:103009004101510050015200000000000000000081
:103019000000000000000050014100000000000015
:1030290000000000000000000000480162000000EC
:05303900000000000092
:103B0B00E4900151F0FE7F10FD7B017A0179521296
:103B1B0021527E007F107D007B017A0179411221B9
:073B2B005212280C023B5965
:0A310F0004F07B017A017941E0FD34
:0B31190090019C1220FD90019FEDF042
:10312400E4FFFE0000000FBF00010EEF64144E70B8
:10313400F2123E2A9001517401F0E4FEFF000000F7
:10314400000FBF00010EEF64C84E70F190019C1295
:1031540020DD74019001416B7008E965827003EA17
:10316400658360257E007F107D007B017A017941B3
:1031740012215290019FE0FF7E0078417C017D0185
:0931840090019C1220DD121CFDDB
:01318D00221F
:06144A009001951220FD47
:10145000E4900198F0A3F0A3F0A3F0121D2364F22E
:101460006003021C2C9001951220DD900001121DDA
:101470003CD394104003021C2CE4900199F090019D
:10148000951220DD900001121D3C2401FFE433FE83
:10149000900199E0FDC39FEE6480F874809850231A
:1014A000ED2401FFE433FE9001951220DD8F828E42
:1014B00083121D3CFF90019BE02FF0900199E00406
:1014C000F080BB9001951220DD900001121D3CF5CB
:1014D00082758300A3A3121D3CFF90019BE06F6007
:1014E00003021C2C7E007F107D007B017A01794174
:1014F000122152E490019AF09001951220DD9000A3
:1015000002121D3C122126155F0116570217100307
:10151000190D04190F0519110619130719220815B9
:101520006209193150194F51196D52197C53199E86
:10153000541AD6551AE6561B05571B15581B285921
:101540001B2E5A1B3E5B1B565C1B5C5D1B745E199D
:101550004070195E71190D7317C9B900001C230280
:1015600019409001951220DD900003121D3CB4013A
:1015700005123F0D80269001951220DD9000031288
:101580001D3CB40205123F1080129001951220DD1F
:10159000900003121D3CB40303123F1390019AE024
:1015A000FF04F074412FF582E43401F58374F8F000
:1015B00090019AE0FF04F074412FF582E43401F5C4
:1015C000837402F09001951220DD900002121D3C00
:1015D000FF90019AE0FE04F074412EF582E434019C
:1015E000F583EFF0123EFBEF90019A6013E0FF04E9
:1015F000F074412FF582E43401F5837401F0801119
:10160000E0FF04F074412FF582E43401F5837402A5
:10161000F0E4900199F0900142E02401FFE433FEF0
:10162000900199E0FDC39FEE6480F87480984003B8
:10163000021C2374422DF582E43401F583E0FF900F
:10164000019AE02441F582E43401F583E02FF09023
:101650000199E004F080BF900227E0FF20E0030240
:10166000194F54FBF0123D73900227E020E3030270
:101670001C23123D1090019AE0FF04F074412FF5F5
:1016800082E43401F58374F8F090019AE0FF04F0ED
:1016900074412FF582E43401F5837409F090019AC6
:1016A000E0FF04F074412FF582E43401F583740205
:1016B000F090019AE02441F9E43401FA7B017D08BD
:1016C000123AB090019AE02408F0E4900199F09069
:1016D0000142E02401FFE433FE900199E0FDC39F45
:1016E000EE6480F8748098502474422DF582E434BE
:1016F00001F583E0FF90019AE02441F582E4340192
:10170000F583E02FF0900199E004F080C2021ACC3A
:10171000900227E0FF20E00302197C54FBF0123D09
:1017200073900227E020E303021C23123D5B90012B
:101730009AE0FF04F074412FF582E43401F58374DC
:10174000F8F090019AE0FF04F074412FF582E43440
:1017500001F5837409F090019AE0FF04F074412FC1
:10176000F582E43401F5837403F090019AE024419A
:10177000F9E43401FA7B017D08123AB090019AE055
:101780002408F0E4900199F0900142E02401FFE484
:1017900033FE900199E0FDC39FEE6480F874809859
:1017A000502474422DF582E43401F583E0FF90016A
:1017B0009AE02441F582E43401F583E02FF09001B2
:1017C00099E004F080C2021ACC900227E030E005D4
:1017D00054FEF08010900227E04401F04408F0E449
:1017E000FDFF122A4C90019AE0FF04F074412FF59E
:1017F00082E43401F58374F8F090019AE0FF04F07C
:1018000074412FF582E43401F583740BF090019A52
:10181000E0FF04F074412FF582E43401F58374B9DC
:10182000F0900226E0FEA3E0FF5401FD90019AE053
:10183000FC04F074412CF582E43401F583EDF0EF03
:101840007803CEC313CE13D8F95401FF90019AE068
:10185000FE04F074412EF582E43401F583EFF0903C
:10186000019AE02441F9E43401FA7B017D08123A3F
:10187000B0E4900199F0900199E0FFC394085040C2
:10188000A3E0FE2441F582E43401F583E5822FF5DF
:1018900082E43583F583E06003B4FF1C900199E096
:1018A000FF74412EF582E43401F583E5822FF58241
:1018B000E43583F5837420F0900199E004F080B65C
:1018C00090019AE02408F0E4900199F0900142E040
:1018D0002401FFE433FE900199E0FDC39FEE648094
:1018E000F8748098502474422DF582E43401F58315
:1018F000E0FF90019AE02441F582E43401F583E0B1
:101900002FF0900199E004F080C2021ACC807C8014
:101910004D805A7B007A007900E49001A0F07F07A7
:1019200080767B007A007900E49001A0F07F088047
:10193000677B007A007900E49001A0F07F0880586E
:101940007B007A007900E49001A0F07F0180497B60
:10195000007A007900E49001A0F07F02803A7B00D9
:101960007A007900E49001A0F07F05802B7B007A5B
:10197000007900E49001A0F07F06801C7B007A00D3
:101980007900E49001A0F07F03800D7B007A00795C
:1019900000E49001A0F07F04122B4F021C23900260
:1019A00027E0FF20E3084408F0123D73800A90020C
:1019B00027E054F7F0123CDA90019AE0FF04F0744B
:1019C000412FF582E43401F58374F8F090019AE038
:1019D000FF04F074412FF582E43401F583740AF0BA
:1019E00090019AE0FF04F074412FF582E43401F590
:1019F000837401F0900227E090019A30E312E0FF37
:101A000004F074412FF582E43401F583E4F0801191
:101A1000E0FF04F074412FF582E43401F583740192
:101A2000F090019AE02441F9E43401FA7B017D0849
:101A3000123AB0E4900199F0900199E0FFC3940844
:101A40005040A3E0FE2441F582E43401F583E582B1
:101A50002FF582E43583F583E06003B4FF1C900129
:101A600099E0FF74412EF582E43401F583E5822F7D
:101A7000F582E43583F5837420F0900199E004F059
:101A800080B690019AE02408F0E4900199F090016A
:101A900042E02401FFE433FE900199E0FDC39FEE94
:101AA0006480F8748098502474422DF582E43401E7
:101AB000F583E0FF90019AE02441F582E43401F5DA
:101AC00083E02FF0900199E004F080C290019AE049
:101AD00012310F021C23900227E054FBF0123D73D9
:101AE000123D5B021C239000A4E0D39464400302E7
:101AF0001C23E0240AF0E0C394645003021C237406
:101B000064F0021C23900227E04404F0E4FDFF127D
:101B10002A4C021C239000A4E0C3940A5003021C28
:101B200023E024F6F0021C23123724021C23900227
:101B300027E054FBF0123D73123D10021C2390006D
:101B4000A3E0D394645022E0240AF0E0C3946440FC
:101B5000187464F0801312363D021C239000A3E039
:101B6000C3940A4004E024F6F09000A3E0FF123B87
:101B7000A3021C23123F1390019AE0FF04F074416A
:101B80002FF582E43401F58374F8F090019AE0FFB8
:101B900004F074412FF582E43401F5837402F0906F
:101BA000019AE0FF04F074412FF582E43401F583DB
:101BB0007409F0123EFBEF90019A6013E0FF04F00D
:101BC00074412FF582E43401F5837401F08011E053
:101BD000FF04F074412FF582E43401F5837402F0C0
:101BE000E4900199F0900142E02401FFE433FE907B
:101BF0000199E0FDC39FEE6480F8748098502474CE
:101C0000422DF582E43401F583E0FF90019AE0244F
:101C100041F582E43401F583E02FF0900199E0046E
:0C1C2000F080C290019AE0600312310FC6
:011C2C002295
:10355100900151E06031123E97EF24F0601824D0C1
:10356100601224207016123E60123ED4E490015184
:10357100F0023B598000123E60023ED47B017A0189
:1035810079417D100239637B017A0179527D1012F4
:0F3591003AE2EF60097B017A01795212144A2263
:10303E004101AC004101AD004101B1004101B200BE
:10304E004201AE00004101B0005001B3000000008B
:0C305E0000000000000000000000000066
:103D4300E49001ACF0A3F09001B1F0FE7FA2FD7B03
:083D5300017A007900022152FF
:102B4F0090019D1220FDE49001ACF0E0FE04F074C2
:102B5F00B32EF582E43401F5837455F09001ACE0A7
:102B6F00FE04F074B32EF582E43401F58374AAF0F9
:102B7F009001A0E004FE9001ACE0FD04F074B32DD1
:102B8F00F582E43401F583EEF09001ACE0FE04F041
:102B9F0074B32EF582E43401F583EFF0E49001B1C4
:102BAF00F09001A0E0FF9001B1E0FEC39F502A908A
:102BBF00019D1220DD8E82758300121D3CFE900157
:102BCF00ACE0FD04F074B32DF582E43401F583EE2F
:102BDF00F09001B1E004F080C87B017A0179B3EF86
:102BEF002404FD12344F9001ACE0FE04F074B32EB8
:102BFF00F582E43401F583EFF0E49001B1F0900138
:102C0F00A0E02405FFE433FE9001B1E0FDC39FEE89
:102C1F006480F8748098501774B32DF582E43401F2
:102C2F00F583E0FF123EBC9001B1E004F080CF22AB
:100026009000A2E07003020C0814F09000A0E024F7
:10003600A0FFE433FEA3E0FBFDC3EF9DFFEE9400BB
:10004600FE7C007DA0121DD0EDC3940440D2740046
:100056002BF582E43400F583E064556003020BF46B
:100066009000A1E07A002401FFEA33FE7C007DA027
:10007600121E2574002DF58274003CF583E064AAF7
:100086006003020BF4EB2402FFEA33FE7C007DA042
:10009600121E2574002DF58274003CF583E0900154
:1000A600ADF09000A0E024A0FFE433CFC39BCF9A2D
:1000B600FE7C007DA0121E259001ADE02404FFE425
:1000C60033FEC3ED9FEE6480F8EC64809850030223
:1000D6000BFA9000A1E0FF2400F9E43400FA7B015A
:1000E6009001ADE02403FD90019DEFF0A374A0F014
:1000F60012318EAB079001ADE0FF9000A1E02FFF1B
:10010600E433CF2403CF3400FE7C007DA0121E25ED
:1001160074002DF58274003CF583E06B6003020BDE
:10012600F4E49001ACF0FE7F10FD7B017A01794189
:100136001221529000A1E0FB7A002403FFEA33FE6D
:100146007C007DA0121E2574002DF58274003CF5FE
:1001560083E0122126018F1203863104603308E200
:1001660034054A35063436071E3702AC38080841CE
:1001760009D5540AC8570AD5620B3A630B60640B5B
:0901860082650BB06600000BDE7F
:10018F00E4900195F0A3F0EB240CFFE43AFE7C0021
:10019F007DA0121E2574002DF58274003CF583E0BE
:1001AF00FF7E00900195EEF0A3EFF0C39410EE9454
:1001BF00004003020BDE900195E07002A3E070286F
:1001CF009001B07410F0E4A3F09001B0E0FFA3E051
:1001DF00FEC39F5013EE75F080A4FFAEF0123E8366
:1001EF009001B1E004F080E19000A1E0240DFFE464
:1001FF0033FE7C007DA0121E2574002DF582740045
:10020F003CF583E0540FFF9001AEE4F0A3EFF0E470
:10021F009001B1F09001AEE0FEA3E0FF7C007D0DF8
:10022F00121DBEEF240AFFE43EFE9001B1E0FBC3B6
:05023F009FEC9E504BF6
:10024400900195E0FEA3E0FF7D72121DBEEBFD2F31
:10025400FFEC3EFEA3F0A3EFF0C006C0079000A1A0
:10026400E02404FFE433CF2DCF3CFE7DA0121E25F5
:1002740074002DF58274003CF583E0FDD007D006B0
:03028400123E8D9A
:100287009001B1E004F08094900195A3E09001B053
:10029700F07B017A0179B09001A07401F07F12120E
:0202A7002B4FDB
:1002A900020BDE9001ACE0FF04F074412FF582E40B
:1002B9003401F58374F8F09001ADE0FF9001ACE0F2
:1002C900FE04F074412EF582E43401F583EFF090D9
:1002D90001ACE0FF04F074412FF582E43401F583A9
:1002E9007438F0E49001B1F09001ADE014FF900191
:1002F900B1E0FEC39F50409000A1E02404FDE43327
:10030900FCEE7E002DFFEE3CFE7C007DA0121E253A
:1003190074002DF58274003CF583E0FF9001ACE098
:10032900FE04F074412EF582E43401F583EFF09078
:1003390001B1E004F080B1E49001B1F0900142E034
:100349002401FFE433FE9001B1E0FDC39FEE648018
:10035900F8748098502474422DF582E43401F583B1
:10036900E0FF9001ACE02441F582E43401F583E03B
:100379002FF09001B1E004F080C2020AB49001AC00
:10038900E0FF04F074412FF582E43401F58374F839
:10039900F09001ADE0FF9001ACE0FE04F074412E55
:1003A900F582E43401F583EFF09001ACE0FF04F04D
:1003B90074412FF582E43401F5837431F0E490013E
:1003C900B1F09001ADE014FF9001B1E0FEC39F5080
:1003D900409000A1E02404FDE433FCEE7E002DFFF3
:1003E900EE3CFE7C007DA0121E2574002DF5827462
:1003F900003CF583E0FF9001ACE0FE04F074412E6F
:10040900F582E43401F583EFF09001B1E004F08066
:10041900B1E49001B1F0900142E02401FFE433FE20
:100429009001B1E0FDC39FEE6480F8748098502478
:1004390074422DF582E43401F583E0FF9001ACE0CC
:100449002441F582E43401F583E02FF09001B1E015
:1004590004F080C2020AB49001ACE0FF04F07441D8
:100469002FF582E43401F58374F8F09001ADE0FFD3
:100479009001ACE0FE04F074412EF582E43401F5FC
:1004890083EFF09001ACE0FF04F074412FF582E4B2
:100499003401F5837433F0E49001B1F09001ADE0DB
:1004A90014FF9001B1E0FEC39F50409000A1E024E9
:1004B90004FDE433FCEE7E002DFFEE3CFE7C007D66
:1004C900A0121E2574002DF58274003CF583E0FF0F
:1004D9009001ACE0FE04F074412EF582E43401F59C
:1004E90083EFF09001B1E004F080B1E49001B1F044
:1004F900900142E02401FFE433FE9001B1E0FDC325
:100509009FEE6480F8748098502474422DF582E43B
:100519003401F583E0FF9001ACE02441F582E43435
:1005290001F583E02FF09001B1E004F080C2900161
:10053900ACE004F0900227E030E003020BDE020990
:10054900C99001ACE0FF04F074412FF582E4340155
:10055900F58374F8F09001ADE0FF9001ACE0FE0482
:10056900F074412EF582E43401F583EFF09001AC8B
:10057900E0FF04F074412FF582E43401F58374350A
:10058900F0E49001B1F09001ADE014FF9001B1E009
:10059900FEC39F50409000A1E02404FDE433FCEE2B
:1005A9007E002DFFEE3CFE7C007DA0121E2574000E
:1005B9002DF58274003CF583E0FF9001ACE0FE0468
:1005C900F074412EF582E43401F583EFF09001B126
:1005D900E004F080B1E49001B1F0900142E024011F
:1005E900FFE433FE9001B1E0FDC39FEE6480F8742F
:1005F9008098502474422DF582E43401F583E0FF9C
:100609009001ACE02441F582E43401F583E02FF058
:100619009001B1E004F080C29001ACE004F09002D6
:1006290027E030E003020BDE0209C99001ACE0FFCC
:1006390004F074412FF582E43401F58374F8F090E5
:1006490001ADE0FF9001ACE0FE04F074412EF582AB
:10065900E43401F583EFF09001ACE0FF04F074415C
:100669002FF582E43401F5837436F0E49001B1F09A
:100679009001ADE014FF9001B1E0FEC39F5040909E
:1006890000A1E02404FDE433FCEE7E002DFFEE3CE6
:10069900FE7C007DA0121E2574002DF58274003C9D
:1006A900F583E0FF9001ACE0FE04F074412EF58281
:1006B900E43401F583EFF09001B1E004F080B1E496
:1006C9009001B1F0900142E02401FFE433FE900172
:1006D900B1E0FDC39FEE6480F874809850247442A1
:1006E9002DF582E43401F583E0FF9001ACE024416B
:1006F900F582E43401F583E02FF09001B1E004F0D4
:1007090080C29001ACE004F0900227E030E00302DF
:100719000BDE0209C99001ACE0FF04F074412FF52A
:1007290082E43401F58374F8F09001ADE0FF9001A3
:10073900ACE0FE04F074412EF582E43401F583EF58
:10074900F09001ACE0FF04F074412FF582E434012C
:10075900F5837437F0E49001B1F09001ADE014FF36
:100769009001B1E0FEC39F50409000A1E02404FD38
:10077900E433FCEE7E002DFFEE3CFE7C007DA012F2
:100789001E2574002DF58274003CF583E0FF90016D
:10079900ACE0FE04F074412EF582E43401F583EFF8
:1007A900F09001B1E004F080B1E49001B1F0900162
:1007B90042E02401FFE433FE9001B1E0FDC39FEE66
:1007C9006480F8748098502474422DF582E43401D1
:1007D900F583E0FF9001ACE02441F582E43401F5B2
:1007E90083E02FF09001B1E004F080C29001ACE009
:1007F90004F0900227E030E003020BDE0209C99001
:1008090001ACE0FF04F074412FF582E43401F58373
:1008190074F8F09001ADE0FF9001ACE0FE04F074D3
:10082900412EF582E43401F583EFF09001ACE0FF4D
:1008390004F074412FF582E43401F5837441F0E446
:100849009001B1F09001ADE014FF9001B1E0FEC359
:100859009F50409000A1E02404FDE433FCEE7E00AB
:100869002DFFEE3CFE7C007DA0121E2574002DF5A7
:100879008274003CF583E0FF9001ACE0FE04F07463
:10088900412EF582E43401F583EFF09001B1E004E3
:10089900F080B1E49001B1F0900142E02401FFE45D
:1008A90033FE9001B1E0FDC39FEE6480F874809837
:1008B900502474422DF582E43401F583E0FF900160
:1008C900ACE02441F582E43401F583E02FF0900196
:1008D900B1E004F080C2020AB49001ACE0FF04F078
:1008E90074412FF582E43401F58374F8F09001AD79
:1008F900E0FF9001ACE0FE04F074412EF582E4348F
:1009090001F583EFF09001ACE0FF04F074412FF59D
:1009190082E43401F5837434F0E49001B1F090017C
:10092900ADE014FF9001B1E0FEC39F50409000A1DB
:10093900E02404FDE433FCEE7E002DFFEE3CFE7C5A
:10094900007DA0121E2574002DF58274003CF583EC
:10095900E0FF9001ACE0FE04F074412EF582E4342E
:1009690001F583EFF09001B1E004F080B1E490016A
:10097900B1F0900142E02401FFE433FE9001B1E0BF
:10098900FDC39FEE6480F8748098502474422DF55D
:1009990082E43401F583E0FF9001ACE02441F58263
:1009A900E43401F583E02FF09001B1E004F080C256
:1009B9009001ACE004F0900227E030E003020BDE86
:1009C9007B017A0179419001AC020AC0900227E0CB
:1009D900FF20E3084408F0123D73800A900227E0E3
:1009E90054F7F0123CDA9001ACE0FF04F074412FA7
:1009F900F582E43401F58374F8F09001ACE0FF046A
:100A0900F074412FF582E43401F583740AF0900102
:100A1900ACE0FF04F074412FF582E43401F58374EE
:100A290001F0900227E09001AC30E312E0FF04F0FE
:100A390074412FF582E43401F583E4F08011E0FF7D
:100A490004F074412FF582E43401F5837401F090C8
:100A590001ACE02441F9E43401FA7B017D08123A42
:100A6900B09001ACE02408F0E49001B1F0900142AB
:100A7900E02401FFE433FE9001B1E0FDC39FEE6481
:100A890080F8748098502474422DF582E43401F57D
:100A990083E0FF9001ACE02441F582E43401F58361
:100AA900E02FF09001B1E004F080C29001ACE004C5
:100AB900F07B017A017941E0FD123119020BDE90D8
:100AC9000227E04404F0E4FDFF020BAB9000A1E033
:100AD900FB7A002404FFEA33FE7C007DA0121E2568
:100AE90074002DF58274003CF583E0FFC007EB2408
:100AF90005FFEA33FE7C007DA0121E2574002DF54A
:100B09008274003CF583E0FDC0059000A1E0240655
:100B1900FFE433FE7C007DA0121E2574002DF582B2
:100B290074003CF583E0FBD005D0071238DC020BDA
:100B3900DE9000A1E02404FFE433FE7C007DA012D6
:100B49001E2574002DF58274003CF583E0FF9000AA
:100B5900A3F0123BA3807E9000A1E02404FFE433BC
:100B6900FE7C007DA0121E2574002DF58274003CC8
:100B7900F583E09000A4F0805C900227E054FBF03C
:100B8900123D739000A1E02404FFE433FE7C007D54
:100B9900A0121E2574002DF58274003CF583E0FF38
:070BA900E4FD122A4C802E2E
:100BB0009000A1E02404FFE433FE7C007DA0121E1F
:100BC0002574002DF58274003CF583E0900195F0CA
:0E0BD000E0FFC4540F7007EF540FFF123EA158
:100BDE009001ADE02404FF9000A1E02FF0E075F04D
:100BEE00A084E5F0F0229000A1E004F09000A1E0D6
:0B0BFE0075F0A084E5F0F00200262254
:10344F009001A11220FDAE05E4900228F0AF061EF8
:10345F00EF6040900228E0FF9001A1E475F00112A7
:10346F0020E6121D236F900228F0E4A3F0900229AA
:10347F00E0C3940850D7900228E030E007C31364EC
:10348F008CF08007900228E0C313F0900229E0042B
:09349F00F080DA900228E0FF221F
:10318E009001991220FDAE05E4900228F0AF061EC4
:10319E00EF6065900228E0FF900199E475F001124E
:1031AE0020E6121D236F900228F090019DE004F09E
:1031BE00A3E0FF90019DE0C39F4012E4F0EFFDE419
:1031CE009DFDE4940090019A8DF0121E5BE4900236
:1031DE0029F0900229E0C3940850B2900228E03002
:1031EE00E007C313648CF08007900228E0C313F04D
:0E31FE00900229E004F080DA900228E0FF221F
:103C2E00FFFFFF00FF000000FFFF000000FFFFFF8F
:0E3C3E0000FFFFFF0000FF800080FFFF8000FE
:0F306A004100AB0041012400440125000000009B
:1035A0009000AB7409F07E007F067D007B017A01FC
:1035B000791E1221527E007F017D007B017A017904
:1035C000361221527E007F727D007B017A0079AC39
:1035D0001221527E007F087D007B017A0079A312C0
:0F35E00021529000A37464F0A37432F0023CDA1D
:10363D009000ABE0600414F080069000AB7409F0CC
:10364D009000ABE0FE75F003A4242EF582E4343C2B
:10365D00F583E493FFEE75F003A4242FF582E43493
:10366D003CF583E493FD9000ABE075F003A42430AA
:0D367D00F582E4343CF583E493FB0238DC75
:103724009000ABE004F0E0C3940A4002E4F090009F
:10373400ABE0FE75F003A4242EF582E4343CF5835B
:10374400E493FFEE75F003A4242FF582E4343CF5F2
:1037540083E493FD9000ABE075F003A42430F5827C
:0B376400E4343CF583E493FB0238DC06
:103D1000900136E0600414F080069001367410F0D3
:0A3D2000900136E0FF7D02022A4CFC
:103D5B00900136E004F0E0C394114002E4F09001CE
:083D6B0036E0FF7D01022A4C45
:103AB00090019C1220FDEDD39408400C7B007A000D
:103AC000790090019C0220FDAF057E0090019C12C0
:103AD00020DDA801AC02AD037B017A0079AC121C99
:023AE000FD22C5
:103D73009000AB7409F0900227E04408F0900136FC
:073D8300E0FFE4FD022A4C01
:103CDA00900227E054F7F0E4900130F0900134F0BC
:0B3CEA00A3F0FBFAFDFCFFFE022C3FE4
:10339B0090019AEFF02401FFE433FE9000B5E05466
:1033AB000FB50714E4B5061090019AF0E075F00D17
:1033BB00A424B6F97400800D90019AE075F00DA469
:1033CB0024C3F9740035F0FA7B0178297C017D0167
:1033DB007E007F0D121CFD78377C017D017B017A0D
:0A33EB000079AC7E007F0A021CFD91
:102A4C0090019DEDF090019CEFF0FBE490011EF0E5
:102A5C00A31220A300000000E4900123F0EBD39418
:102A6C0010400C9001367410F090019CF08008908E
:102A7C00019CE0900136F090019DE0701A7B017A88
:102A8C000079AC90019CE0FD1233F59000ACE0F4C1
:0F2A9C006003022B29806F90019DE06401703C64
:102AAB00A3F0F07B017A0079AC90019CE0FD12332E
:102ABB00F59000ACE0F4706690019CE070028047EA
:102ACB0090019CE004F0E0C394114002E4F090010B
:0C2ADB009EE004F0E0C3941140C980426A
:082AE70090019DE06402703AC9
:102AEF00A3F0F07B017A0079AC90019CE0FD1233EA
:102AFF00F59000ACE0F4702290019CE0600414F0BB
:102B0F00800CE4FBFAFDFCFFFE122C3F800C9001C1
:0A2B1F009EE004F0E0C3941140C9E9
:102B290078297C017D017B017A0079B67E007F0DD1
:102B3900121CFD78377C017D017B017A0079AC7E1E
:062B4900007F0A021CFDE2
:10392000900199EFF0E490011EF0A31220A3000093
:1039300000009001237432F0900227E030E21690EC
:103940000124E004F0E0D394045002800DE49001DF
:1039500024F0023D5BE4900124F0900199E0FF1215
:03396000339B2274
:1038DC0090019CEFF0A3EDF0A3EBF0123CDA900119
:1038EC009CE09000A5F0A3E4F090019DE09000A76F
:1038FC00F0A3E4F090019EE07F009000A9F0FAA301
:10390C00EFF0FB9000A5E0FEA3E0FFA3E0FCA3E03A
:04391C00FD022C3F3D
:100C0900900227E020E303021449900123E06003E6
:100C190014F022900130E0700D900134E07002A3CD
:100C2900E07003021449900129E0540F24FC700379
:100C3900020FD71470030211C5240260030214497C
:100C490090011F12207FEF2401FFE43EFEE43DFDE9
:100C5900E43CFC90011F12209790012DE0FF9001C8
:100C69002AE0FEC39F5064EEFDC3EF9DFFE49400AC
:100C7900FE123E6CEE3395E0FDFCC004C005C006D3
:100C8900C007E4FF7E01FDFC90011F12208B121F9B
:100C99003ED003D002D001D000121F3EC006C007CB
:100CA900900131E0FEA3E0FBAA06E4F9F8D007D0F1
:100CB90006121FC9A804A905AA06AB0790012AE0D4
:100CC9007F00FEE4FCFD121F23806890012AE0FFEB
:100CD90090012DE0C39FFFE49400FE123E6CEE33B9
:100CE90095E0FDFCC004C005C006C007E4FF7E0115
:100CF900FDFC90011F12208B121F3ED003D002D0A1
:100D090001D000121F3EC006C007900131E0FEA3CA
:100D1900E0FBAA06E4F9F8D007D006121FC9A80417
:100D2900A905AA06AB0790012AE07F00FEE4FCFDB5
:100D3900121F30900125122097900133E0FFE4FC47
:100D4900FDFE90012512208B121F3EE47B64FAF907
:100D5900F8121FC990012512209790012512207FB2
:100D69009000A5EEF0A3EFF090012EE0FF90012B8B
:100D7900E0FEC39F5064EEFDC3EF9DFFE49400FEC7
:100D8900123E6CEE3395E0FDFCC004C005C006C000
:100D990007E4FF7E01FDFC90011F12208B121F3E0C
:100DA900D003D002D001D000121F3EC006C0079068
:100DB9000131E0FEA3E0FBAA06E4F9F8D007D0066A
:100DC900121FC9A804A905AA06AB0790012BE07F49
:100DD90000FEE4FCFD121F23806890012BE0FF90C8
:100DE900012EE0C39FFFE49400FE123E6CEE3395A2
:100DF900E0FDFCC004C005C006C007E4FF7E01FD9C
:100E0900FC90011F12208B121F3ED003D002D0018B
:100E1900D000121F3EC006C007900131E0FEA3E0DA
:100E2900FBAA06E4F9F8D007D006121FC9A804A93D
:100E390005AA06AB0790012BE07F00FEE4FCFD123A
:100E49001F30900125122097900133E0FFE4FCFD4B
:100E5900FE90012512208B121F3EE47B64FAF9F8FB
:100E6900121FC990012512209790012512207F9009
:100E790000A7EEF0A3EFF090012FE0FF90012CE026
:100E8900FEC39F5064EEFDC3EF9DFFE49400FE1284
:100E99003E6CEE3395E0FDFCC004C005C006C007FA
:100EA900E4FF7E01FDFC90011F12208B121F3ED032
:100EB90003D002D001D000121F3EC006C007900126
:100EC90031E0FEA3E0FBAA06E4F9F8D007D0061248
:100ED9001FC9A804A905AA06AB0790012CE07F0049
:100EE900FEE4FCFD121F23806890012CE0FF9001B5
:100EF9002FE0C39FFFE49400FE123E6CEE3395E0B1
:100F0900FDFCC004C005C006C007E4FF7E01FDFC6E
:100F190090011F12208B121F3ED003D002D001D0A6
:100F290000121F3EC006C007900131E0FEA3E0FB9E
:100F3900AA06E4F9F8D007D006121FC9A804A90522
:100F4900AA06AB0790012CE07F00FEE4FCFD121F0E
:100F590030900125122097900133E0FFE4FCFDFE5B
:100F690090012512208B121F3EE47B64FAF9F812D6
:100F79001FC990012512209790012512207F90000A
:100F8900A9EEF0FAA3EFF0FB9000A5E0FEA3E0FFC5
:100F9900A3E0FCA3E0FD122C3F900131E0FEA3E0A9
:100FA900FFE4FCFD90011F12208BC312205B40124D
:100FB90090011F1220A300000000900130E06002A0
:100FC90014F0900130E0600302144902143E9001CC
:100FD9001EE07012A312207FEF2401FFE43EFEE41D
:100FE9003DFDE43C802190011F12207FEC4D4E4FC6
:100FF900601C90011F12207FEF24FFFFEE34FFFEDB
:10100900ED34FFFDEC34FFFC90011F122097E47FC3
:10101900FFFEFDFC90011F12208B121F3EA804A9A0
:1010290005AA06AB0790012AE0FFE4FCFDFE121FAA
:101039003EC006C007900131E0FEA3E0FBAA06E42A
:10104900F9F8D007D006121FC990012512209790F0
:101059000133E0FFE4FCFDFE90012512208B121FF5
:101069003EE47B64FAF9F8121FC990012512209712
:1010790090012512207F9000A5EEF0A3EFF0E47F08
:10108900FFFEFDFC90011F12208B121F3EA804A930
:1010990005AA06AB0790012BE0FFE4FCFDFE121F39
:1010A9003EC006C007900131E0FEA3E0FBAA06E4BA
:1010B900F9F8D007D006121FC99001251220979080
:1010C9000133E0FFE4FCFDFE90012512208B121F85
:1010D9003EE47B64FAF9F8121FC9900125122097A2
:1010E90090012512207F9000A7EEF0A3EFF0E47F96
:1010F900FFFEFDFC90011F12208B121F3EA804A9C0
:1011090005AA06AB0790012CE0FFE4FCFDFE121FC7
:101119003EC006C007900131E0FEA3E0FBAA06E449
:10112900F9F8D007D006121FC9900125122097900F
:101139000133E0FFE4FCFDFE90012512208B121F14
:101149003EE47B64FAF9F8121FC990012512209731
:1011590090012512207F9000A9EEF0FAA3EFF0FB91
:101169009000A5E0FEA3E0FFA3E0FCA3E0FD122CA4
:101179003F900131E0FEA3E0FFE4FCFD90011F1266
:10118900208BC312205B5011E4FFFEFDFC90011F70
:1011990012208BC312205B701790011EE0700404AB
:1011A900F0800DE490011EF0900130E0600214F02F
:0C11B900900130E0600302144902143E73
:1011C5009001951220A3000000FFE4FFFEFDFC90B6
:1011D500011F12208BC312205B60030212BF900116
:1011E5002AE0FFE4FCFDFE90019512208B121F3EC4
:1011F500A804A905AA06AB07900133E0FFE4FCFDAE
:10120500FE121F3EE47B64FAF9F8121FC99001250E
:1012150012209790012512207F9000A5EEF0A3EFF4
:10122500F090012BE0FFE4FCFDFE90019512208B70
:10123500121F3EA804A905AA06AB07900133E0FFDB
:10124500E4FCFDFE121F3EE47B64FAF9F8121FC9A7
:1012550090012512209790012512207F9000A7EE7E
:10126500F0A3EFF090012CE0FFE4FCFDFE9001956A
:1012750012208B121F3EA804A905AA06AB079001F0
:1012850033E0FFE4FCFDFE121F3EE47B64FAF9F84F
:10129500121FC990012512209790012512207F90D9
:1012A50000A9EEF0FAA3EFF0FB9000A5E0FEA3E0A5
:1012B500FFA3E0FCA3E0FD122C3F900131E0FEA36B
:1012C500E0FFE4FCFD9001251220979001251220F6
:1012D5007F90011F12208BC312205B60030213C194
:1012E50090012DE0FFE4FCFDFE90019512208B128C
:1012F5001F3EA804A905AA06AB07900133E0FFE449
:10130500FCFDFE121F3EE47B64FAF9F8121FC9903A
:10131500012512209790012512207F9000A5EEF05F
:10132500A3EFF090012EE0FFE4FCFDFE9001951285
:10133500208B121F3EA804A905AA06AB079001330E
:10134500E0FFE4FCFDFE121F3EE47B64FAF9F812AF
:101355001FC990012512209790012512207F90002A
:10136500A7EEF0A3EFF090012FE0FFE4FCFDFE9067
:10137500019512208B121F3EA804A905AA06AB07EA
:10138500900133E0FFE4FCFDFE121F3EE47B64FAAE
:10139500F9F8121FC99001251220979001251220F6
:1013A5007F9000A9EEF0FAA3EFF0FB9000A5E0FE18
:1013B500A3E0FFA3E0FCA3E0FD122C3F90011F1268
:1013C500207FEF2401FFE43EFEE43DFDE43CFC907C
:1013D500011F1220979001251220A3000000009004
:1013E5000131E0FEA3E0FFE4FCFD90012512208B16
:1013F500121F23A804A905AA06AB07900134E0FE35
:10140500A3E0FFE4FCFD121F239001251220979015
:10141500012512207F90011F12208BC312205B40F3
:101425001290011F1220A300000000900130E0601F
:101435000214F0900130E0700B900129E0C4540FC4
:04144500FF12392039
:011449002280
:013F1A002284
:0B33F50090019F1220FD9001A2EDF05E
:10340000E4A3F0AF05EFC39411E49001A3F09001A1
:10341000A3E0FDC3947250369001A2E075F072A44F
:103420002400FFE5F03440FE7C00EF2DFFEC3EFE73
:1034300012000390019F1220DD9001A3E0F5827538
:0E3440008300EF121D9C9001A3E004F080C0F9
:01344E00225B
:0A3E8300E42FFFEE3440FE023897F2
:0A3E8D00E42FFFEE3440FE02320C79
:103DEB00E42FFFEE3440FE9001F9E09001FFF0026A
:023DFB002EC6D2
:013F1B002283
:013F1C002282
:10000E00123DB2123EAB123F011234FF123C0E12E1
:05001E003C4CD2AF22B2
:043079004100A20070
:103C4C00E49000A2F0FE7FA2FD7B017A00790012C5
:0D3C5C0021527F007E4B7D007C00023279FA
:0300230002385050
:10385000C0E0C083C082C0D075D000C007309827B8
:10386000C2989000A0E0FF04F074002FF582E434C9
:1038700000F583E599F09000A0E0C394A04002E435
:10388000F09000A2E004F0309902C299D007D0D0A5
:07389000D082D083D0E032AA
:08307D004101F2004101F300E2
:103C0E00123C865389F0438901538EF79001F2746A
:103C1E00FAF0A374C4F0758CFAF58AD2A9D28C226C
:103C8600E49001E9F09001EBF09001EFF0A3F090E1
:0C3C960001EAF09001ECF09001F1F02246
:03000B0002308E32
:10308E00C0E0C0F0C083C082C0D075D000C000C008
:10309E00069001F2E0F58CA3E0F58A9001E8740148
:1030AE00F0A3E004F0C3940A4005E4F0A304F0900A
:1030BE0001EBE004F0C394644005E4F0A304F09047
:1030CE0001EDE004F0C394F4748094814005E4F0C3
:1030DE00A304F09001EFE475F001121E5BFEC3E550
:1030EE00F094E8EE9403400A9001EFE4F0A3F0A30D
:1030FE0004F0D006D000D0D0D082D083D0F0D0E073
:01310E00328E
:103B7F000A6D679C46F6375D4521EFAC5A50010B35
:103B8F00DF020A6D679C46F6375D4521EFAC5A5050
:043B9F00E10BDF0255
:08308500450200CCCCCCCCCC00
:103DB20053B3FE43B40153B3FD43B40253B1FE43C4
:033DC200B2012229
:013F1D002281
:103C6900E4FEC290EF30E704D2808002C280EF25E3
:0C3C7900E0FFD290000EEEB408E8C2900C
:013C8500221C
:043DC500E4FD7FFC9E
:0F3DC900C29100123C69AF05123C6900D29122F1
:0A39DD007B019001AB7405F07F3F01
:0639E7009001A81220FD72
:1039ED00C291E4FD123C699001ABE0FFEDC39F5025
:1039FD00159001A81220DD8D82758300121D3CFFEC
:083A0D00123C690D80E1D29129
:013A1500228E
:103BEB00E4FEC290EF30E704D2808002C280EF2562
:103BFB00E0FFD290000EEEB408E843B10153B2FEE1
:023C0B00C29065
:013C0D002294
:103D2A00E4FFFEC290EF25E0FFD290308003440109
:083D3A00FF0EEEB408EDC2908B
:013D4200225E
:103DD800C29100123BEB123D2A53B1FE43B20100DF
:023DE800D29176
:013DEA0022B6
:063A16009001961220FD54
:103A1C00C291123BEBE4FD900199E0FFEDC39F5086
:103A2C0015123D2A9001961220DD8D82758300EFD0
:0E3A3C00121D9C0D80E153B1FE43B201D291E8
:013A4A002259
:0E3E2A00123DC57D8E7F20123DC90000002292
:103B5900E4FEFD7FFC123DC97D8F7F20123DC9E443
:103B6900FD7FFD123DC9E4FEFF000FBF00010EBE3F
:053B790013F7BF88F402
:013B7E002224
:0A3E97007F07123DD8EF5470FF22A0
:063EF5007F09123DD822F6
:073ED4007D707F27023DC94C
:0C3E6000E4FD7FE1123DC97FE2023DC994
:0E3E3800AC07123DC5AF04AD077F25023DC9A2
:06396300123E97EF7038E0
:10396900900195F0A3F09001ABEDF07FA01239E73B
:10397900E4FD7FFD123DC9E4900195F0A3F00090AC
:103989000195E475F001121E5B900195E07004A3A6
:08399900E064C870E9123DC5AD
:0139A1002203
:103AE200AC05123E97EF30E61D123DC5900199ECF0
:103AF200F07F61123A16123E60123ED4E4FD7FFD61
:093B0200123DC97F01227F00225F
:10280C0078957C017D017BFF7A3B797F7E007F058B
:10281C00121CFD789A7C017D017BFF7A3B79847ECA
:10282C00007F03121CFD789D7C017D017BFF7A3BB0
:10283C0079877E007F06121CFD78A37C017D017BCD
:10284C00FF7A3B798D7E007F01121CFD78A47C0100
:10285C007D017BFF7A3B798E7E007F03121CFD127B
:10286C003F1D7D5A7F53123DC97DA57F53123DC933
:10287C007D207F3D123DC9123DC57FE1123DC97FD0
:10288C00E2123DC97D707F27123DC97D017F221266
:10289C003DC97D037F23123DC97D4E7F25123DC965
:1028AC007D107F31123DC97B017A0279009001AB1A
:1028BC007405F07F301239E77B017A0279009001C0
:1028CC00AB7405F07F2A1239E77A0179951239DD5C
:1028DC007B017A01799D9001AB7406F07F3A123935
:1028EC00E77B017A0179A39001AB7401F07F391277
:1028FC0039E77B017A01799A9001AB7403F07F3E42
:10290C001239E77B017A0179A49001AB7403F07F53
:10291C003B1239E7E4FD7F3C123DC97D3F7F261217
:0E292C003DC9E4FD7F24123DC97F21023DC953
:052D2E009001C3EFF06D
:102D3300E478C47C017D017BFF7A3B7991FE7F05BA
:102D4300121CFD78C97C017D017BFF7A3B79967E5D
:102D5300007F03121CFD78CC7C017D017BFF7A3B55
:102D630079997E007F06121CFD78D27C017D017B60
:102D7300FF7A3B799F7E007F01121CFD78D37C0193
:102D83007D017BFF7A3B79A07E007F03121CFD7DD2
:102D93005A7F53123DC97DA57F53123DC97D207FC4
:102DA3003D123DC9123DC5E4FF000000000FEFB422
:102DB300DCF79001C3E0FD7F25123DC97D3F7F26EF
:102DC300123DC97A0179C41239DD7B017A0179CCCC
:102DD3009001AB7406F07F3A1239E77B017A0179EF
:102DE300D29001AB7401F07F391239E77B017A018C
:102DF30079C99001AB7403F07F3E1239E77B017A06
:0E2E03000179D39001AB7403F07F3B0239E7F5
:1034FF0053B1F743B20853B1EF43B21053B3FB4389
:10350F00B40443DE01A2AF9209C2AF75C7AA75C753
:10351F005543910143C60875C7AA75C7555391FE08
:10352F00A20992AF43DE2053DF3F43DF0153DFF9A0
:10353F0075D1FF75D9FFD2DFE4FBFAFDFCFFFE0268
:02354F002C3F0F
:103A4B00AD07AC06A2AF9209C2AF75C7AA75C75531
:103A5B00439101A20992AFECF5C5EDF5CDA2AF9262
:103A6B0009C2AF75C7AA75C7555391FEA20992AF8C
:033A7B00D2DE2276
:0D3E4600AD07AC06ECF5D5EDF5DDD2DE22C2
:0D3E5300AD07AC06ECF5D2EDF5DAD2DE22BB
:102C3F0090019FEEF0A3EFF0A3ECF0A3EDF0A3EA69
:042C4F00F0A3EBF013
:102C5300A31220A30000000090019FE0FEA3E0FF69
:102C6300E4FCFD9001A51220979001A512208B9002
:102C730000A3E0FFE4FCFDFE121F3E9001A512201D
:102C8300979001A512207FE47B64FAF9F8121FC91B
:102C93009001A51220979001A512207F123A4B9024
:102CA30001A1E0FEA3E0FFE4FCFD9001A512209743
:102CB3009001A512208B9000A3E0FFE4FCFDFE121F
:102CC3001F3E9001A51220979001A512207FE47B5F
:102CD30064FAF9F8121FC99001A51220979001A573
:102CE30012207F123E469001A3E0FEA3E0FFE4FC26
:102CF300FDA31220979001A512208B9000A3E0FF63
:102D0300E4FCFDFE121F3E9001A51220979001A541
:102D130012207FE47B64FAF9F8121FC99001A5120F
:0B2D230020979001A512207F023E5374
:103BA3009000A3EFF0C3940A5003740AF09000A5A9
:103BB300E0FEA3E0FFA3E0FCA3E0FDA3E0FAA3E0A3
:043BC300FB022C3F96
:093EAB0053B3EF43B410023F10C1
:033F0D00D2942229
:033F1000C2942236
:033F1300B2942243
:063EFB00A294E433FF2253
:0A3EA100EF6003023F0D123F1022F4
:013F1E002280
:10320C00EFF5A6EEF5A7A2AF9209C2AF75C7AA75E6
:10321C00C755439F01A20992AFA2AF9209C2AF75E5
:10322C00C7AA75C75543A501A20992AF75AF21AFC7
:10323C00058FAEA2AF9209C2AF75C7AA75C7554329
:10324C00A401A20992AFA2AF9209C2AF75C7AA7529
:10325C00C75553A5FEA20992AFA2AF9209C2AF7592
:0D326C00C7AA75C755539FFEA20992AF2255
:103897008FA6EEF5A775AEFFA2AF9209C2AF75C7A7
:1038A700AA75C755439F01A20992AFA2AF9209C259
:1038B700AF75C7AA75C75543A501A20992AF75AFE2
:1038C70022A2AF9209C2AF75C7AA75C75543A40113
:0538D700A20992AF22DE
:0C2EC6009001FAEEF0A3EFF0A31220FD43
:102ED2009001FAE0FEA3E0F5A6EEF5A7A2AF9209F3
:102EE200C2AF75C7AA75C755439F01A20992AFA287
:102EF200AF9209C2AF75C7AA75C75543A501A2090A
:102F020092AF75AF21E4FEFF9001FFE0FDC3EF9D9C
:102F1200EE940050299001FC1220DD8F828E8312E4
:102F22001D3CF5AEA2AF9209C2AF75C7AA75C755CF
:102F320043A401A20992AF0FBF00010E80CAA2AF43
:102F42009209C2AF75C7AA75C75553A5FEA20992C9
:102F5200AFA2AF9209C2AF75C7AA75C755539FFEFC
:042F6200A20992AF7F
:012F66002248
:040003008F828E83D7
:03000700E493FF80
:01000A0022D3
:073EDB00A2B0B3E433FF22A3
:073EE200A297B3E433FF22B5
:063F01001234A8023DFD90
:103D9E007843E62438F8A607784306E6C3940A402B
:043DAE0002E4F62213
:103CA2007842E6FE08667002FF2274382EF8E6FFBC
:0B3CB200784206E6C3940A4002E4F6E4
:013CBD0022E4
:103CBE007844E6FE18667002FF2274382EF8E6FF8E
:0B3CCE00784406E6C3940A4002E4F6C6
:013CD90022C8
:0B3E7800EF75F00BA4242AF8E6FF22EF
:103BC700EF75F00BA42428F8A60408A605AE03EFAA
:103BD70075F00BA4242BF8A606EF75F00BA4242C84
:043BE700F8E4F622E6
:063F07007843E618F622E3
:103DFD0053ACFE53ADFE53B37F53B37FD2B0D297C6
:013E0D002292
:1034A800E47842F608F608F6FFEF75F00BA4242836
:1034B800F87600087664EF75F00BA42425F87602F8
:1034C800EF75F00BA4242AF8E4F6EF75F00BA424AA
:1034D8002BF8E4F6EF75F00BA4242CF8E4F60FEFC4
:1034E800B402C67BFF7A3E79DB78221220D47A3E7A
:0734F80079E2782D0220D4D7
:1026CF00900196EFF0E075F00BA42422F9E4FAFBE9
:1026DF009002211220FD12210612214CEF700302ED
:1026EF0027AE9002211220DD900003121D3CFFC384
:1026FF00940550089000037405022808EFC3940A4C
:10270F0050089000037401021D69900008121D3CCF
:10271F00701490000804121D9C900196E075F00350
:10272F00A404FF123D9E9002211220DD900006129C
:10273F001E71FFAEF0D39400EE9400500302280BED
:10274F00900004121E71C39FE5F09E502390000469
:10275F00E475F001121EA9FCE5F06F7002EC6E60DB
:10276F000302280B900196E075F003A42403802B3D
:10277F00900009121D3CFFD39400500302280B90C8
:10278F00000A7401121D69C39F407190000AE41280
:10279F001D9C900196E075F003A404FF023D9E90EE
:1027AF0002211220DD900003121D3CFFD39405403F
:1027BF000A9000037405121D9C802BEF600A900095
:1027CF000374FF121D69801E900008121D3CB40196
:1027DF0015900008E4121D9C900196E075F003A47B
:1027EF002402FF123D9E9002211220DD900004E48E
:0D27FF00F5F0121EF690000AE4121D9C2257
:103CF500E4900195F0900195E0FFC39402500B12FA
:0A3D050026CF900195E004F080EB5A
:013D0F002291
:1039A20053B1BF53B2BF53B17F53B27F75985043E7
:1039B2008920438780438E1053C4DFAB07AA06A930
:1039C20005A8047F407E427D0F7C00121FC9EF04D0
:0B39D200F404F58DD28ED299D2AC2205
:1032790090019512209753B1BF53B2BF53B17F53F9
:10328900B27F75985043878053C4F843C420900196
:103299009512208B7F407E427D0F7C00121FC9C38F
:1032A90074FF9FFF74FF9EFEE49DFDE49CFC78087B
:1032B90012206C8FC690019512208B7F407E427D33
:1032C9000F7C00121FC9C374FF9FFF8FC543C40839
:0532D900D299D2AC22E5
:073EB4003098FDAF99C298A0
:013EBB0022E4
:083EBC00C2998F993099FD2293
:10333D0090020512209753B1FB53B2FB53B3BF5309
:10334D00B4BF75F85075C40853C4DF900205122040
:10335D008B7F407E427D0F7C00121FC9C374FF9F7F
:10336D00FF74FF9EFEE49DFDE49CFC780812206C2A
:10337D008FC690020512208B7F407E427D0F7C0010
:0E338D00121FC9C374FF9FFF8FC543C40822DF
:073EC40030F8FDAF9AC2F8CF
:013ECB0022D4
:083ECC00C2F98F9A30F9FD22C2
:10376F00900209122097538EF7438901D28CE4FF00
:10377F00FEFDFC90020912208BC312205B6029759D
:10378F008A7E758CFF308DFDC28D90020912207FCD
:10379F00EF24FFFFEE34FFFEED34FFFDEC34FFFCB2
:0B37AF0090020912209780C6C28C22F5
:1037BA0090020D122097538EF7438901D28CE4FFB1
:1037CA00FEFDFC90020D12208BC312205B6029754E
:1037DA008ACA758CFA308DFDC28D90020D12207F37
:1037EA00EF24FFFFEE34FFFEED34FFFDEC34FFFC67
:0B37FA0090020D12209780C6C28C22A6
:10380500900211122097538EEF438910D28EE4FF58
:10381500FEFDFC90021112208BC312205B602975FE
:103825008BEA758DCB308FFDC28F90021112207FF0
:10383500EF24FFFFEE34FFFEED34FFFDEC34FFFC1B
:0B38450090021112209780C6C28E2254
:1035EF0090021512209753C9BF53C9DF43C910D298
:1035FF00CAE4FFFEFDFC90021512208BC312205B64
:10360F00602975CC3075CDF830CFFDC2CF90021543
:10361F0012207FEF24FFFFEE34FFFEED34FFFDECB1
:0E362F0034FFFC90021512209780C6C2CA22FA
:10368A0090021912209775C40743C408E4FFFEFD8F
:10369A00FC90021912208BC312205B602C75C52C7A
:1036AA0075C6CFE5C430E4FB53C4EF90021912206B
:1036BA007FEF24FFFFEE34FFFEED34FFFDEC34FF15
:0D36CA00FC90021912209780C353C4F72210
:1036D70090021D12209775C40743C408E4FFFEFD3E
:1036E700FC90021D12208BC312205B602C75C5D87D
:1036F70075C6FFE5C430E4FB53C4EF90021D1220EA
:103707007FEF24FFFFEE34FFFEED34FFFDEC34FFC7
:0D371700FC90021D12209780C353C4F722BE
:10293A000A3D3D3D3D3D3D3D3D3D3D3D3D3D3D3DF0
:10294A003D3D3D3D3D3D3D3D3D3D3D3D3D3D3D3DAD
:10295A003D3D3D3D3D3D3D3D3D3D3D3D3D3D3D3D9D
:10296A003D3D3D3D3D3D3D3D3D3D3D3D3D3D3D3D8D
:10297A003D3D3D3D3D000A2A2020436F7079726932
:10298A006768742863292032303135204E75766F96
:10299A00746F6E20546563686E6F6C6F677920433D
:1029AA006F72702E20416C6C207269676874732094
:1029BA0072657365727665642E2020000A2A2020CB
:1029CA00436F6E7461637420452D4D61696C3A20C2
:1029DA004D6963726F432D38626974406E75766F04
:1029EA00746F6E2E636F6D202020202020202020FF
:1029FA0020202020202020202020202020202020CD
:102A0A0020000A2A202044656D6F2056657273697A
:102A1A006F6E20203A202532642E2532642E25320C
:102A2A0064000A2A202046696E6973686564204436
:102A3A00617465203A202532642E2532642E2532AF
:022A4A00640026
:1032DE007BFF7A29793A1222197BFF7A297980129B
:1032EE0022197BFF7A2979C61222197BFF7A2A7955
:1032FE000C90016DE4F0A304F0E4A3F0A3F0A3F0AE
:10330E00A3F01222197BFF7A2A792C90016D740793
:10331E00F0A374DFF0A3E4F0A37405F0A3E4F0A32C
:0F332E00741FF01222197BFF7A29793A022219B3
:03000000022F6765
:102F6700787FE4F6D8FD9000007FFF7E03E4F0A3AE
:0A2F7700DFFCDEFA758144022FBC76
:102F8100022513E493A3F8E493A34003F68001F22E
:102F910008DFF48029E493A3F85407240CC8C33351
:102FA100C4540F4420C8834004F456800146F6DF20
:102FB100E4800B0102040810204080903001E47E7F
:102FC100019360BCA3FF543F30E509541FFEE49315
:102FD100A360010ECF54C025E060A840B8E493A3DC
:102FE100FAE493A3F8E493A3C8C582C8CAC583CA07
:102FF100F0A3C8C582C8CAC583CADFE9DEE780BEBF
:01308D000042
:101C2D00E709F608DFFA8046E709F208DFFA803E99
:101C3D0088828C83E709F0A3DFFA8032E309F60886
:101C4D00DFFA8078E309F208DFFA807088828C83EE
:101C5D00E309F0A3DFFA806489828A83E0A3F608A2
:101C6D00DFFA805889828A83E0A3F208DFFA804C7C
:101C7D0080D280FA80C680D4806980F28033801053
:101C8D0080A680EA809A80A880DA80E280CA8033BC
:101C9D0089828A83ECFAE493A3C8C582C8CCC58334
:101CAD00CCF0A3C8C582C8CCC583CCDFE9DEE78004
:101CBD000D89828A83E493A3F608DFF9ECFAA9F083
:101CCD00EDFB2289828A83ECFAE0A3C8C582C8CCD9
:101CDD00C583CCF0A3C8C582C8CCC583CCDFEADEF2
:101CED00E880DB89828A83E493A3F208DFF980CC54
:101CFD0088F0EF60010E4E60C388F0ED2402B4044D
:101D0D000050B9F582EB2402B4040050AF232345F3
:061D1D008223901C7D737F
:101D2300BB010689828A83E0225002E722BBFE02BE
:091D3300E32289828A83E49322F1
:101D3C00BB010CE58229F582E5833AF583E022505C
:101D4C0006E92582F8E622BBFE06E92582F8E222A6
:0D1D5C00E58229F582E5833AF583E49322C0
:101D6900BB010FF8E58229F582E5833AF583E0287E
:101D7900F0225009C58229F8E58226F622BBFE0920
:101D8900C58229F8E22582F222F8EA2583F583E95A
:031D99009328226A
:101D9C00F8BB010DE58229F582E5833AF583E8F07D
:101DAC00225006E92582C8F622BBFE05E92582C829
:021DBC00F22211
:101DBE00EF8DF0A4A8F0CF8CF0A428CE8DF0A42E39
:021DCE00FE22F3
:101DD000BC000BBE0029EF8DF084FFADF022E4CCF7
:101DE000F875F008EF2FFFEE33FEEC33FCEE9DECC0
:101DF000984005FCEE9DFE0FD5F0E9E4CEFD22ED06
:101E0000F8F5F0EE8420D21CFEADF075F008EF2F4F
:101E1000FFED33FD4007985006D5F0F222C398FD40
:051E20000FD5F0EA22DD
:101E2500C2D5EC30E709B2D5E4C39DFDE49CFCEED8
:101E350030E715B2D5E4C39FFFE49EFE121DD0C363
:101E4500E49DFDE49CFC8003121DD030D507C3E45E
:061E55009FFFE49EFE2247
:101E5B00C5F0F8A3E028F0C5F0F8E5821582700212
:061E6B001583E038F022AF
:101E7100BB0110E58229F582E5833AF583E0F5F0AF
:101E8100A3E0225009E92582F886F008E622BBFE8C
:101E91000AE92582F8E2F5F008E222E5832AF583D2
:081EA100E993F5F0A3E9932297
:101EA900BB010DC58229C582C5833AC583021E5B64
:101EB9005011C58229F808E5F026F618F5F0E582F3
:101EC90036F622BBFE11C58229F808E225F0F5F0A5
:101ED900F218E23582F222F8E58229F582E5832AB1
:0D1EE900F58374019325F0F5F0E4933822A1
:101EF600F8BB0111E58229F582E5833AF583E8F01E
:101F0600E5F0A3F0225009E92582C8F608A6F022DA
:0D1F1600BBFE09E92582C8F2E5F008F222C1
:0D1F2300EF2BFFEE3AFEED39FDEC38FC220D
:0E1F3000C3EF9BFFEE9AFEED99FDEC98FC22AC
:101F3E00E88FF0A4CC8BF0A42CFCE98EF0A42CFC42
:101F4E008AF0EDA42CFCEA8EF0A4CDA8F08BF0A4C0
:101F5E002DCC3825F0FDE98FF0A42CCD35F0FCEB1F
:101F6E008EF0A4FEA9F0EB8FF0A4CFC5F02ECD39E4
:0F1F7E00FEE43CFCEAA42DCE35F0FDE43CFC2251
:101F8D0075F008758200EF2FFFEE33FECD33CDCC0B
:101F9D0033CCC58233C5829BED9AEC99E58298408E
:101FAD000CF582EE9BFEED9AFDEC99FC0FD5F0D66B
:101FBD00E4CEFBE4CDFAE4CCF9A88222B800C1B995
:101FCD000059BA002DEC8BF084CFCECDFCE5F0CBD3
:101FDD00F97818EF2FFFEE33FEED33FDEC33FCEB0C
:101FED0033FB10D703994004EB99FB0FD8E5E4F9C7
:101FFD00FA227818EF2FFFEE33FEED33FDEC33FCB4
:10200D00C933C910D7059BE99A4007EC9BFCE99AA7
:10201D00F90FD8E0E4C9FAE4CCFB2275F010EF2FEC
:10202D00FFEE33FEED33FDCC33CCC833C810D707EC
:10203D009BEC9AE899400AED9BFDEC9AFCE899F827
:0E204D000FD5F0DAE4CDFBE4CCFAE4C8F922BA
:10205B00EB9FF5F0EA9E42F0E99D42F0E89C45F0DB
:01206B002252
:10206C00E8600FECC313FCED13FDEE13FEEF13FF52
:03207C00D8F12276
:0C207F00E0FCA3E0FDA3E0FEA3E0FF22D4
:0C208B00E0F8A3E0F9A3E0FAA3E0FB22D8
:0C209700ECF0A3EDF0A3EEF0A3EFF022BC
:1020A300A8828583F0D083D0821220BA1220BA127C
:1020B30020BA1220BAE473E493A3C583C5F0C583A1
:1020C300C8C582C8F0A3C583C5F0C583C8C582C887
:0120D30022EA
:0920D400EBF608EAF608E9F62231
:0920DD00E0FBA3E0FAA3E0F92204
:1020E600F8E0FBA3A3E0F925F0F0E5821582700283
:0720F6001583E0FA38F02227
:0920FD00EBF0A3EAF0A3E9F022E4
:10210600BB010789828A830220DD5005E9F8022196
:1021160090BBFE05E9F802219989828A830221A2F1
:10212600D083D082F8E4937012740193700DA3A348
:1021360093F8740193F5828883E47374029368605C
:06214600EFA3A3A380DF5C
:06214C008A838982E4731E
:1021AE00E508246DF582E43401F583E005082290FC
:1021BE00016A30070390016DE475F0011220E6020A
:1021CE001D232000E97F2ED2008018EF540F24909B
:1021DE00D43440D4FF30040BEF24BFB41A005003A4
:1021EE002461FFE50960021509050CE50C70020576
:1021FE000B30070E90016AE475F0011220E6EF0233
:10220E00217E023B327403D2078003E4C207F50835
:10221E0090016A1220FDE4F509F50BF50CE5096055
:10222E00077F201221F180F5750AFFC201C200C29C
:10223E0002C203C205C206C2081221BDFF700D30D4
:10224E0007057F00122202AF0CAE0B22B4255FC22F
:10225E00D5C2041221BDFF24D0B40A00501A75F065
:10226E000A780930D50508B6FF0106C6A426F62061
:10227E00D5047002D20380D924CFB41A00EF5004D3
:10228E00C2E5D204022403D20180C6D20080C0D29D
:10229E000280BCD2D580BAD20580B47F201221F143
:1022AE002002077401B5090040F11221AEFF122180
:1022BE00F102222BD208D20680951221AEFB1221FA
:1022CE00AEFA1221AEF94A4B700679D47A247BFF0E
:1022DE0020022EE509602A7E008E82758300121D73
:1022EE003C60060EEE650A70F0C2D5EBC0E0EAC0A7
:1022FE00E0E9C0E0EE12244AD0E0F9D0E0FAD0E0F6
:10230E00FB121D23FF60AAEBC0E0EAC0E0E9C0E0CB
:10231E001221F1D0E02401F9D0E03400FAD0E0FB34
:10232E00E50A0460DCD50AD980877BFF7A247946DA
:10233E00D202809C791080027908C206C2088008F9
:10234E00D2D5790A8004790AC2D5E50A047002F55D
:10235E000AE4FAFDFEFF1221AEFC7B0820011312E7
:10236E0021AEFD7B1030000A1221AEFE1221AEFF0F
:10237E007B20EC3382D592D55013C3E43000069FF8
:10238E00FFE49EFEE42001039DFDE49CFCE4CBF8FB
:10239E00C201EC700CCFCECDCCE824F8F870F380EF
:1023AE0017C3EF33FFEE33FEED33FDEC33FCEB33AF
:1023BE00FB994002FB0FD8E9EB300105F8D0E0C4E1
:1023CE0048B201C0E00AEC4D4E4F78207B0070C23F
:1023DE00EAB50A0040BCC0E012244CD0F0D0E02098
:1023EE000104C4C0E0C4B201C0F01221DAD0F0D5AD
:1023FE00F0EB02222B12212622C853234258229997
:10240E004C22954223464F234E44234E4922AE433F
:08241E002354552338462338EE
:102426004523384724F450229D2D22A12E22C42B69
:1024360022A52322C22024DD2A225D48000022BCD8
:102446003F3F3F00790AA2D5200314300509B91091
:10245600020404B9080104A2D52006025001042092
:1024660002689202B509005034C0E07F203003199B
:102476007F30A20272067205500F1224A3C202C256
:1024860006C205C2087F30800F300503E9C0E0129E
:1024960021F1300503D0E0F9D0E0B509CC300517BD
:1024A6007F30B9100C1221F17F583004077F7880F5
:1024B60003B908031221F13002057F2D0221F17FB5
:1024C600202008F87F2B2006F322920280CF286E68
:1024D600756C6C2900D2011221AE3001F8C2017868
:1024E6000930D50108F602225D2D504349581221C4
:1024F600AE2403B405004001E49024EF931221E2D8
:0D250600743A1221E2D20375090402234247
:0C3E6C00EE30E707C3E49FFFE49EFE2257
:10215200EF4E6012EF60010EEDBB010B89828A83A4
:10216200F0A3DFFCDEFA2289F05007F709DFFCA9B1
:0C217200F022BBFEFCF309DFFCA9F02208
:10217E00BB010689828A83F0225002F722BBFE0140
:02218E00F3223A
:09219000E6FB08E6FA08E6F92274
:09219900E2FB08E2FA08E2F92277
:0C21A200E493FB740193FA740293F92299
:103B3200EFB40A07740D123B3D740A309811A8992C
:103B4200B8130CC2983098FDA899C298B811F630F3
:073B520099FDC299F59922CB
:00000001FF
