:082F3C004102290041022800B6
:10254E00123D7E123F2C123B08123F29123D66129D
:10255E002FD19001E9E06060E4F0900229E004F0F0
:10256E009000A5E0FFC394324027EF24CEFFE43461
:10257E00FFFE7C007D03121E0BEF240AFFE43EFEDD
:10258E00900229E0D39FEE6480F8748098402980F1
:10259E00229000A5E0FFC374329FFFE49400FE7CFE
:1025AE00007D06121E0BC3740A9FFF900229E0D312
:1025BE009F4005E4F0120C3D9001EBE0600BE4F05F
:1025CE00123D3212002612359D9001EDE06002E4BC
:1025DE00F09001EFE06002E4F09001F2E06005E4BB
:1025EE00F0123EF2123CDF900193EFF070030225E1
:0125FE00607C
:1025FF00E024FD70030226E0147003022707240273
:10260F006003022560900228E060030226D8900242
:08261F0024E020E3030226D8A9
:10262700E4900194F0A3F0123C6C900194E0FF0455
:10263700F074422FF582E43401F58374F8F09001C9
:1026470094E0FF04F074422FF582E43401F58374BB
:1026570009F0900194E0FF04F074422FF582E4340E
:1026670001F5837403F0900194E02442F9E4340106
:10267700FA7B017D08123AAD900194E02408F0E45A
:10268700A3F0900143E02401FFE433FE900195E0BD
:10269700FDC39FEE6480F8748098502474432DF531
:1026A70082E43401F583E0FF900194E02442F5824F
:1026B700E43401F583E02FF0900195E004F080C247
:1026C700900194E004F07B017A017942E0FD123039
:0126D700EE14
:1026D800E4900228F00225609002287401F090022C
:1026E80024E0FF30E30954F7F0123D17022560900B
:1026F8000224E04408F054FBF012000E0225601298
:052708003F26022560E0
:042F44004102220024
:013F29002275
:063EF200E4900196F022AD
:013F2A002274
:013F2B002273
:063EF8009001E3022138F5
:063EFE009001E6022138EC
:0E3E17009001E3122118E94A6003122187226C
:0E3E25009001E6122118E94A6003122187225B
:103A7B00EF4E602D9001D9EEF0A3EFF0AF05A3EC64
:103A8B00F0A3EFF0AF03A3EAF0A3EFF0E4A3F0A3EE
:103A9B00F0A3F0A3F09001D8F09001D704F0123E00
:023AAB001722E0
:103D9300E49001D7F0123E257B007A007900123EB1
:043DA300F8023EFEE6
:102D4C009001D7E07003022E009001DBE0FEA3E0BF
:102D5C00FF4E7003022E009001D8E07035D3EF9433
:102D6C0000EE94005003022E009001DFE475F00198
:102D7C00121E96FED39001DAE095F09001D9E09EF8
:102D8C005072123E25E49001DFF0A3F09001D804BC
:102D9C00F0229001D8E06401705A9001DF75F001C7
:102DAC00121E96FED39001DCE095F09001DBE09EC4
:102DBC0050429001DDE0FEA3E0FF9400EE94004051
:102DCC00259001E1E475F001121E96FCD3EF95F00D
:102DDC00EE9C5005E49001D7F09001D7E07007907D
:102DEC0001DBF0A3F022E49001DFF0A3F09001D816
:052DFC00F0123E172259
:102F48004101520050015300000000000000000041
:102F580000000000000000500142000000000000D6
:102F680000000000000000000000480163000000AD
:052F7800000000000054
:103B0800E4900152F0FE7F10FD7B017A0179531297
:103B1800218D7E007F107D007B017A017942122180
:073B28008D12284A023B56F2
:0A30E40004F07B017A017942E0FD5F
:0B30EE0090019D1221389001A0EDF030
:1030F900E4FFFE0000000FBF00010EEF64144E70E4
:10310900F2123E339001527401F0E4FEFF00000018
:10311900000FBF00010EEF64C84E70F190019D12BF
:10312900211874019001426B7008E965827003EA05
:10313900658360257E007F107D007B017A017942DD
:1031490012218D9001A0E0FF7E0078427C017D0173
:0931590090019D122118121D388D
:01316200224A
:06147E00900196122138D6
:10148400E4900199F0A3F0A3F0A3F0121D5E64F2BE
:101494006003021C67900196122118900001121D2E
:1014A40077D394104003021C67E490019AF09001F2
:1014B40096122118900001121D772401FFE433FED7
:1014C40090019AE0FDC39FEE6480F87480985023E5
:1014D400ED2401FFE433FE9001961221188F828ED1
:1014E40083121D77FF90019CE02FF090019AE00495
:1014F400F080BB900196122118900001121D77F51F
:1015040082758300A3A3121D77FF90019CE06F6096
:1015140003021C677E007F107D007B017A01794203
:1015240012218DE490019BF09001961221189000F5
:1015340002121D77122161159301168B02174403C1
:10154400194904194B05194D06194F07195E081559
:101554009609196D50198B5119A95219B85319DAF2
:10156400541B12551B22561B41571B50581B6359C1
:101574001B695A1B795B1B915C1B975D1BAF5E1942
:101584007C70199A7119497317FDB900001C5E0229
:10159400197C900196122118900003121D77B40152
:1015A40005123F2080269001961221189000031204
:1015B4001D77B40205123F23801290019612211860
:1015C400900003121D77B40303123F2690019BE0A1
:1015D400FF04F074422FF582E43401F58374F8F0CB
:1015E40090019BE0FF04F074422FF582E43401F58E
:1015F400837402F0900196122118900002121D7754
:10160400FF90019BE0FE04F074422EF582E4340165
:10161400F583EFF0123F0AEF90019B6013E0FF04A3
:10162400F074422FF582E43401F5837401F08011E3
:10163400E0FF04F074422FF582E43401F583740270
:10164400F0E490019AF0900143E02401FFE433FEBA
:1016540090019AE0FDC39FEE6480F8748098400383
:10166400021C5E74432DF582E43401F583E0FF909F
:10167400019BE02442F582E43401F583E02FF090ED
:10168400019AE004F080BF900224E0FF20E003020E
:10169400198B54FBF012000E900224E020E30302A5
:1016A4001C5E123BE890019BE0FF04F074422FF5AE
:1016B40082E43401F58374F8F090019BE0FF04F0B8
:1016C40074422FF582E43401F5837409F090019B90
:1016D400E0FF04F074422FF582E43401F5837402D0
:1016E400F090019BE02442F9E43401FA7B017D0887
:1016F400123AAD90019BE02408F0E490019AF09036
:101704000143E02401FFE433FE90019AE0FDC39F0E
:10171400EE6480F8748098502474432DF582E43488
:1017240001F583E0FF90019BE02442F582E434015B
:10173400F583E02FF090019AE004F080C2021B08C8
:10174400900224E0FF20E0030219B854FBF01200D9
:101754000E900224E020E303021C5E123C6C900114
:101764009BE0FF04F074422FF582E43401F58374A6
:10177400F8F090019BE0FF04F074422FF582E4340A
:1017840001F5837409F090019BE0FF04F074422F8B
:10179400F582E43401F5837403F090019BE0244264
:1017A400F9E43401FA7B017D08123AAD90019BE023
:1017B4002408F0E490019AF0900143E02401FFE44E
:1017C40033FE90019AE0FDC39FEE6480F874809824
:1017D400502474432DF582E43401F583E0FF900135
:1017E4009BE02442F582E43401F583E02FF090017C
:1017F4009AE004F080C2021B08900224E030E00565
:1018040054FEF0800F900224E04401F04408F0E418
:10181400FF1231E190019BE0FF04F074422FF58246
:10182400E43401F58374F8F090019BE0FF04F07454
:10183400422FF582E43401F583740BF090019BE0B0
:10184400FF04F074422FF582E43401F58374B9F097
:10185400900224E05401FF90019BE0FE04F07442E6
:101864002EF582E43401F583EFF0900224E0900138
:101874009B30E312E0FF04F074422FF582E434015C
:10188400F583E4F08011E0FF04F074422FF582E464
:101894003401F5837401F090019BE02442F9E434AF
:1018A40001FA7B017D08123AADE490019AF09001AF
:1018B4009AE0FFC394085040A3E0FE2442F582E47A
:1018C4003401F583E5822FF582E43583F583E06006
:1018D40003B4FF1C90019AE0FF74422EF582E434B5
:1018E40001F583E5822FF582E43583F5837420F0D6
:1018F40090019AE004F080B690019BE02408F0E4A3
:1019040090019AF0900143E02401FFE433FE90013A
:101914009AE0FDC39FEE6480F87480985024744369
:101924002DF582E43401F583E0FF90019BE024422D
:10193400F582E43401F583E02FF090019AE004F09D
:1019440080C2021B08807C804D805A7B007A00791B
:1019540000E49001A1F07F0780767B007A00790093
:10196400E49001A1F07F0880677B007A007900E4AD
:101974009001A1F07F0880587B007A007900E49000
:1019840001A1F07F0180497B007A007900E4900195
:10199400A1F07F02803A7B007A007900E49001A1F3
:1019A400F07F05802B7B007A007900E49001A1F0A0
:1019B4007F06801C7B007A007900E49001A1F07F0F
:1019C40003800D7B007A007900E49001A1F07F048C
:1019D400122A8A021C5E900224E0FF20E3084408D5
:1019E400F012000E800A900224E054F7F0123D1722
:1019F40090019BE0FF04F074422FF582E43401F57A
:101A04008374F8F090019BE0FF04F074422FF58298
:101A1400E43401F583740AF090019BE0FF04F07450
:101A2400422FF582E43401F5837401F0900224E03E
:101A340090019B30E312E0FF04F074422FF582E43E
:101A44003401F583E4F08011E0FF04F074422FF5D3
:101A540082E43401F5837401F090019BE02442F99F
:101A6400E43401FA7B017D08123AADE490019AF066
:101A740090019AE0FFC394085040A3E0FE2442F58D
:101A840082E43401F583E5822FF582E43583F5831E
:101A9400E06003B4FF1C90019AE0FF74422EF582CB
:101AA400E43401F583E5822FF582E43583F583740C
:101AB40020F090019AE004F080B690019BE02408A5
:101AC400F0E490019AF0900143E02401FFE433FE36
:101AD40090019AE0FDC39FEE6480F87480985024CE
:101AE40074432DF582E43401F583E0FF90019BE01B
:101AF4002442F582E43401F583E02FF090019AE06A
:101B040004F080C290019BE01230E4021C5E90025B
:101B140024E054FBF012000E123C6C021C5E900098
:101B2400A5E0D394644003021C5EE0240AF0E0C301
:101B340094645003021C5E7464F0021C5E900224E0
:101B4400E04404F0E4FF1231E1021C5E9000A5E0E1
:101B5400C3940A5003021C5EE024F6F0021C5E12D9
:101B64003721021C5E900224E054FBF012000E1296
:101B74003BE8021C5E9000A4E0D394645022E0246D
:101B84000AF0E0C3946440187464F0801312363A87
:101B9400021C5E9000A4E0C3940A4004E024F6F022
:101BA4009000A4E0FF123BA0021C5E123F269001AD
:101BB4009BE0FF04F074422FF582E43401F5837452
:101BC400F8F090019BE0FF04F074422FF582E434B6
:101BD40001F5837402F090019BE0FF04F074422F3E
:101BE400F582E43401F5837409F0123F0AEF9001A1
:101BF4009B6013E0FF04F074422FF582E43401F596
:101C0400837401F08011E0FF04F074422FF582E444
:101C14003401F5837402F0E490019AF0900143E0FA
:101C24002401FFE433FE90019AE0FDC39FEE64803B
:101C3400F8748098502474432DF582E43401F583BC
:101C4400E0FF90019BE02442F582E43401F583E057
:101C54002FF090019AE004F080C290019BE06003B1
:031C64001230E457
:011C6700225A
:10359D00900152E06031123EA0EF24F0601824D06B
:1035AD00601224207016123E69123EDDE490015225
:1035BD00F0023B568000123E69023EDD7B017A012E
:1035CD0079427D100239607B017A0179537D1012A9
:0F35DD003ADFEF60097B017A01795312147E22E5
:102F7D004101AD004101AE004101B2004101B3007C
:102F8D004201AF00004101B1005001B4000000004A
:0C2F9D0000000000000000000000000028
:103D6600E49001ADF0A3F09001B2F0FE7FA2FD7BDE
:083D7600017A00790002218DA1
:102A8A0090019E122138E49001ADF0E0FE04F0744A
:102A9A00B42EF582E43401F5837455F09001ADE06B
:102AAA00FE04F074B42EF582E43401F58374AAF0BE
:102ABA009001A1E004FE9001ADE0FD04F074B42D94
:102ACA00F582E43401F583EEF09001ADE0FE04F006
:102ADA0074B42EF582E43401F583EFF0E49001B288
:102AEA00F09001A1E0FF9001B2E0FEC39F502A904E
:102AFA00019E1221188E82758300121D77FE9001A5
:102B0A00ADE0FD04F074B42DF582E43401F583EEF2
:102B1A00F09001B2E004F080C87B017A0179B4EF49
:102B2A002404FD12349B9001ADE0FE04F074B42E2F
:102B3A00F582E43401F583EFF0E49001B2F09001FC
:102B4A00A1E02405FFE433FE9001B2E0FDC39FEE4D
:102B5A006480F8748098501774B42DF582E43401B7
:102B6A00F583E0FF123EC59001B2E004F080CF2267
:100026009000A2E07003020C3C14F09000A0E024C3
:10003600A0FFE433FEA3E0FBFDC3EF9DFFEE9400BB
:10004600FE7C007DA0121E0BEDC3940440D274000A
:100056002BF582E43400F583E064556003020C2836
:100066009000A1E07A002401FFEA33FE7C007DA027
:10007600121E6074002DF58274003CF583E064AABC
:100086006003020C28EB2402FFEA33FE7C007DA00D
:10009600121E6074002DF58274003CF583E0900119
:1000A600AEF09000A0E024A0FFE433CFC39BCF9A2C
:1000B600FE7C007DA0121E609001AEE02404FFE4E9
:1000C60033FEC3ED9FEE6480F8EC64809850030223
:1000D6000C2E9000A1E0FF2400F9E43400FA7B0125
:1000E6009001AEE02403FD90019EEFF0A374A0F012
:1000F600123163AB079001AEE0FF9000A1E02FFF45
:10010600E433CF2403CF3400FE7C007DA0121E60B2
:1001160074002DF58274003CF583E06B6003020CDD
:1001260028E49001ADF0FE7F10FD7B017A01794253
:1001360012218D9000A1E0FB7A002403FFEA33FE32
:100146007C007DA0121E6074002DF58274003CF5C3
:1001560083E0122161018F12039431046E3308D8B3
:1001660034055235063636071A3702BA3807FE41C5
:1001760009BC540B00570B0B620B70630B96640B98
:09018600B8650BE46600000C12E0
:10018F00E4900196F0A3F0EB240CFFE43AFE7C0020
:10019F007DA0121E6074002DF58274003CF583E083
:1001AF00FF7E00900196EEF0A3EFF09001B1741175
:1001BF00F0E024FFFDE434FFFCC3EF9DEE9C400311
:1001CF00020C129001B17410F0900196E07002A32E
:1001DF00E070239001B2F09001B1E0FFA3E0FEC305
:1001EF009F5013EE75F080A4FFAEF0123E8C90017D
:1001FF00B2E004F080E19000A1E0240DFFE433FEB3
:10020F007C007DA0121E6074002DF58274003CF5F9
:10021F0083E0540FFF9001AFE4F0A3EFF0E49001FF
:10022F00B2F09001AFE0FEA3E0FF7C007D0D121D48
:10023F00F9EF240AFFE43EFE9001B2E0FBC39FEC0E
:03024F009E504B73
:10025200900196E0FEA3E0FF7D72121DF9EBFD2FE7
:10026200FFEC3EFEA3F0A3EFF0C006C0079000A192
:10027200E02404FFE433CF2DCF3CFE7DA0121E60AC
:1002820074002DF58274003CF583E0FDD007D006A2
:03029200123E9683
:100295009001B2E004F08094900196A3E09001B142
:1002A500F07B017A0179B19001A17401F07F1212FE
:0202B5002A8A93
:1002B700020C129001ADE0FF04F074422FF582E4C6
:1002C7003401F58374F8F09001AEE0FF9001ADE0E2
:1002D700FE04F074422EF582E43401F583EFF090CA
:1002E70001ADE0FF04F074422FF582E43401F58399
:1002F7007438F0E49001B2F09001AEE014FF900181
:10030700B2E0FEC39F50409000A1E02404FDE43317
:10031700FCEE7E002DFFEE3CFE7C007DA0121E60F1
:1003270074002DF58274003CF583E0FF9001ADE089
:10033700FE04F074422EF582E43401F583EFF09069
:1003470001B2E004F080B1E49001B2F0900143E023
:100357002401FFE433FE9001B2E0FDC39FEE648009
:10036700F8748098502474432DF582E43401F583A2
:10037700E0FF9001ADE02442F582E43401F583E02B
:100387002FF09001B2E004F080C2020AEC9001ADB8
:10039700E0FF04F074422FF582E43401F58374F82A
:1003A700F09001AEE0FF9001ADE0FE04F074422E44
:1003B700F582E43401F583EFF09001ADE0FF04F03E
:1003C70074422FF582E43401F5837431F0E490012F
:1003D700B2F09001AEE014FF9001B2E0FEC39F506F
:1003E700409000A1E02404FDE433FCEE7E002DFFE5
:1003F700EE3CFE7C007DA0121E6074002DF5827419
:10040700003CF583E0FF9001ADE0FE04F074422E5E
:10041700F582E43401F583EFF09001B2E004F08057
:10042700B1E49001B2F0900143E02401FFE433FE10
:100437009001B2E0FDC39FEE6480F8748098502469
:1004470074432DF582E43401F583E0FF9001ADE0BC
:100457002442F582E43401F583E02FF09001B2E005
:1004670004F080C2020AEC900224E030E003020CA0
:10047700129001ADE0FF04F074422FF582E43401DD
:10048700F58374F8F09001AEE0FF9001ADE0FE0453
:10049700F074422EF582E43401F583EFF09001AD5C
:1004A700E0FF04F074422FF582E43401F5837433DE
:1004B700F0E49001B2F09001AEE014FF9001B2E0D9
:1004C700FEC39F50409000A1E02404FDE433FCEEFE
:1004D7007E002DFFEE3CFE7C007DA0121E607400A6
:1004E7002DF58274003CF583E0FF9001ADE0FE043A
:1004F700F074422EF582E43401F583EFF09001B2F7
:10050700E004F080B1E49001B2F0900143E02401EF
:10051700FFE433FE9001B2E0FDC39FEE6480F87400
:100527008098502474432DF582E43401F583E0FF6D
:100537009001ADE02442F582E43401F583E02FF029
:100547009001B2E004F080C2020AEC900224E0308D
:10055700E003020C129001ADE0FF04F074422FF5A6
:1005670082E43401F58374F8F09001AEE0FF900166
:10057700ADE0FE04F074422EF582E43401F583EF1A
:10058700F09001ADE0FF04F074422FF582E43401EE
:10059700F5837435F0E49001B2F09001AEE014FFFA
:1005A7009001B2E0FEC39F50409000A1E02404FDFB
:1005B700E433FCEE7E002DFFEE3CFE7C007DA012B6
:1005C7001E6074002DF58274003CF583E0FF9001F6
:1005D700ADE0FE04F074422EF582E43401F583EFBA
:1005E700F09001B2E004F080B1E49001B2F0900124
:1005F70043E02401FFE433FE9001B2E0FDC39FEE28
:100607006480F8748098502474432DF582E4340193
:10061700F583E0FF9001ADE02442F582E43401F573
:1006270083E02FF09001B2E004F080C2020AEC9060
:100637000224E030E003020C129001ADE0FF04F069
:1006470074422FF582E43401F58374F8F09001AE1B
:10065700E0FF9001ADE0FE04F074422EF582E43431
:1006670001F583EFF09001ADE0FF04F074422FF540
:1006770082E43401F5837436F0E49001B2F090011E
:10068700AEE014FF9001B2E0FEC39F50409000A17E
:10069700E02404FDE433FCEE7E002DFFEE3CFE7CFF
:1006A700007DA0121E6074002DF58274003CF58356
:1006B700E0FF9001ADE0FE04F074422EF582E434D1
:1006C70001F583EFF09001B2E004F080B1E490010E
:1006D700B2F0900143E02401FFE433FE9001B2E061
:1006E700FDC39FEE6480F8748098502474432DF501
:1006F70082E43401F583E0FF9001ADE02442F58206
:10070700E43401F583E02FF09001B2E004F080C2F9
:10071700020AEC900224E030E003020C129001ADD3
:10072700E0FF04F074422FF582E43401F58374F896
:10073700F09001AEE0FF9001ADE0FE04F074422EB0
:10074700F582E43401F583EFF09001ADE0FF04F0AA
:1007570074422FF582E43401F5837437F0E4900195
:10076700B2F09001AEE014FF9001B2E0FEC39F50DB
:10077700409000A1E02404FDE433FCEE7E002DFF51
:10078700EE3CFE7C007DA0121E6074002DF5827485
:10079700003CF583E0FF9001ADE0FE04F074422ECB
:1007A700F582E43401F583EFF09001B2E004F080C4
:1007B700B1E49001B2F0900143E02401FFE433FE7D
:1007C7009001B2E0FDC39FEE6480F87480985024D6
:1007D70074432DF582E43401F583E0FF9001ADE029
:1007E7002442F582E43401F583E02FF09001B2E072
:1007F70004F080C2020AEC9001ADE0FF04F07442FD
:100807002FF582E43401F58374F8F09001AEE0FF30
:100817009001ADE0FE04F074422EF582E43401F558
:1008270083EFF09001ADE0FF04F074422FF582E40E
:100837003401F5837441F0E49001B2F09001AEE029
:1008470014FF9001B2E0FEC39F50409000A1E02446
:1008570004FDE433FCEE7E002DFFEE3CFE7C007DC4
:10086700A0121E6074002DF58274003CF583E0FF32
:100877009001ADE0FE04F074422EF582E43401F5F8
:1008870083EFF09001B2E004F080B1E49001B2F0A0
:10089700900143E02401FFE433FE9001B2E0FDC381
:1008A7009FEE6480F8748098502474432DF582E499
:1008B7003401F583E0FF9001ADE02442F582E43492
:1008C70001F583E02FF09001B2E004F080C2020A44
:1008D700EC900224E030E003020C129001ADE0FF3F
:1008E70004F074422FF582E43401F58374F8F09034
:1008F70001AEE0FF9001ADE0FE04F074422EF582F8
:10090700E43401F583EFF09001ADE0FF04F07442A9
:100917002FF582E43401F5837434F0E49001B2F0EA
:100927009001AEE014FF9001B2E0FEC39F504090EB
:1009370000A1E02404FDE433FCEE7E002DFFEE3C35
:10094700FE7C007DA0121E6074002DF58274003CB1
:10095700F583E0FF9001ADE0FE04F074422EF582CE
:10096700E43401F583EFF09001B2E004F080B1E4E4
:100977009001B2F0900143E02401FFE433FE9001BF
:10098700B2E0FDC39FEE6480F874809850247443EE
:100997002DF582E43401F583E0FF9001ADE02442B8
:1009A700F582E43401F583E02FF09001B2E004F022
:1009B70080C2020AEC900224E0FF20E3084408F01A
:1009C70012000E800A900224E054F7F0123D1790AF
:1009D70001ADE0FF04F074422FF582E43401F583A2
:1009E70074F8F09001ADE0FF04F074422FF582E453
:1009F7003401F583740AF09001ADE0FF04F074420E
:100A07002FF582E43401F5837401F0900224E0901D
:100A170001AD30E312E0FF04F074422FF582E434B5
:100A270001F583E4F08011E0FF04F074422FF582B2
:100A3700E43401F5837401F09001ADE02442F9E458
:100A47003401FA7B017D08123AADE49001B2F090CF
:100A570001B2E0FFC3940850429001ADE0FE24428A
:100A6700F582E43401F583E5822FF582E43583F5D9
:100A770083E06003B4FF1C9001B2E0FF74422EF5DF
:100A870082E43401F583E5822FF582E43583F5832B
:100A97007420F09001B2E004F080B49001ADE0243E
:100AA70008F0E49001B2F0900143E02401FFE43341
:100AB700FE9001B2E0FDC39FEE6480F87480985009
:100AC7002474432DF582E43401F583E0FF9001ADF2
:100AD700E02442F582E43401F583E02FF09001B27F
:100AE700E004F080C29001ADE004F07B017A017967
:100AF70042E0FD1230EE020C12900224E04404F0B2
:100B0700E4020BDE9000A1E0FB7A002404FFEA3345
:100B1700FE7C007DA0121E6074002DF58274003CDF
:100B2700F583E0FFC007EB2405FFEA33FE7C007D79
:100B3700A0121E6074002DF58274003CF583E0FD61
:100B4700C0059000A1E02406FFE433FE7C007DA0F1
:100B5700121E6074002DF58274003CF583E0FBD013
:100B670005D0071238D9020C129000A1E02404FF27
:100B7700E433FE7C007DA0121E6074002DF58274A4
:100B8700003CF583E0FF9000A4F0123BA0807C902E
:100B970000A1E02404FFE433FE7C007DA0121E6068
:100BA70074002DF58274003CF583E09000A5F08079
:100BB7005A900224E054FBF04408F09000A1E0248E
:100BC70004FFE433FE7C007DA0121E6074002DF547
:0D0BD7008274003CF583E0FF1231E1802EB6
:100BE4009000A1E02404FFE433FE7C007DA0121EEB
:100BF4006074002DF58274003CF583E0900196F05A
:0E0C0400E0FFC4540F7007EF540FFF123EAA1A
:100C12009001AEE02404FF9000A1E02FF0E075F017
:100C2200A084E5F0F0229000A1E004F09000A1E0A1
:0B0C320075F0A084E5F0F0020026221F
:10349B009001A2122138AE05E490022AF0AF061E6D
:1034AB00EF604090022AE0FF9001A2E475F0011258
:1034BB002121121D5E6F90022AF0E4A3F090022BE3
:1034CB00E0C3940850D790022AE030E007C313649E
:1034DB008CF0800790022AE0C313F090022BE004DB
:0934EB00F080DA90022AE0FF22D1
:1031630090019A122138AE05E490022AF0AF061EB0
:10317300EF606590022AE0FF90019AE475F0011276
:103183002121121D5E6F90022AF090019EE004F04F
:10319300A3E0FF90019EE0C39F4012E4F0EFFDE443
:1031A3009DFDE4940090019B8DF0121E96E4900225
:1031B3002BF090022BE0C3940850B290022AE03027
:1031C300E007C313648CF0800790022AE0C313F076
:0E31D30090022BE004F080DA90022AE0FF2246
:103C4E00FFFFFF00FF000000FFFF000000FFFFFF6F
:0E3C5E0000FFFFFF0000FF800080FFFF8000DE
:102FA9004100A3004100AC00410125004401260075
:032FB90000000015
:102FD100E4900196F0A3F07411F0E49000A3F09056
:102FE1000196F0900197E0FF900196E0FEC39F509B
:102FF10022EE75F072A42400FFE5F03440FE123F8A
:103001001CEFF4600E9000A3E004F0900196E00440
:10301100F080D09000AC7409F07E007F067D007BCB
:10302100017A01791F12218D7E007F017D007B01D4
:103031007A01793712218D7E007F727D007B017AC2
:103041000079AD12218D7E007F087D007B017A0021
:1030510079A412218D9000A47464F0A37432F0025B
:023061003D1719
:10363A009000ACE0600414F080069000AC7409F0CD
:10364A009000ACE0FE75F003A4244EF582E4343C0D
:10365A00F583E493FFEE75F003A4244FF582E43476
:10366A003CF583E493FD9000ACE075F003A424508C
:0D367A00F582E4343CF583E493FB0238D97B
:103721009000ACE004F0E0C3940A4002E4F09000A1
:10373100ACE0FE75F003A4244EF582E4343CF5833D
:10374100E493FFEE75F003A4244FF582E4343CF5D5
:1037510083E493FD9000ACE075F003A42450F5825E
:0B376100E4343CF583E493FB0238D90C
:103BE800900137E0600414F080119000A3E06004B5
:103BF80014FF80027F00900137EFF0900137E0FF5B
:033C08000231E1A5
:103C6C00900137E004F09000A3E0FF900137E0C32F
:0D3C7C009F4002E4F0900137E0FF0231E1CB
:103AAD0090019D122138EDD39408400C7B007A00D3
:103ABD00790090019D022138AF057E0090019D1285
:103ACD002118A801AC02AD037B017A0079AD121D5E
:023ADD0038228D
:10000E009000AC7409F0900224E04408F09001379F
:05001E00E0FF0231E1EA
:103D1700900224E054F7F0E4900131F0900135F07F
:0B3D2700A3F0FBFAFDFCFFFE022B7A6C
:1033E70090019BEFF02401FFE433FE9000B6E05418
:1033F7000FB50714E4B5061090019BF0E075F00DCA
:10340700A424B7F97400800D90019BE075F00DA41A
:1034170024C4F9740035F0FA7B01782A7C017D0118
:103427007E007F0D121D3878387C017D017B017A83
:0A3437000079AD7E007F0A021D3807
:1031E10090019DEFF0E490011FF0A31220DE00009A
:1031F1000000E4900124F09000A3E07009FBFAFDC7
:10320100FCFFFE022B7A9000A3E014FF90019DE0E9
:10321100FED39F9001374008EFF090019DF08002AE
:10322100EEF07B017A0079AD90019DE0FD12344111
:10323100782A7C017D017B017A0079B77E007F0DC0
:10324100121D3878387C017D017B017A0079AD7ED1
:07325100007F0A121D382264
:10391D0090019AEFF0E490011FF0A31220DE000059
:10392D0000009001247432F0900224E030E21690F1
:10393D000125E004F0E0D394045002800DE49001E1
:10394D0025F0023C6CE4900125F090019AE0FF1205
:03395D0033E7222B
:1038D90090019DEFF0A3EDF0A3EBF0123D179001DD
:1038E9009DE09000A6F0A3E4F090019EE09000A86E
:1038F900F0A3E4F090019FE07F009000AAF0FAA302
:10390900EFF0FB9000A6E0FEA3E0FFA3E0FCA3E03C
:04391900FD022B7A06
:100C3D00900224E020E30302147D900124E0600380
:100C4D0014F022900131E0700D900135E07002A397
:100C5D00E0700302147D90012AE0540F24FC700310
:100C6D0002100B1470030211F92402600302147DAB
:100C7D009001201220BAEF2401FFE43EFEE43DFD79
:100C8D00E43CFC9001201220D290012EE0FF900157
:100C9D002BE0FEC39F5064EEFDC3EF9DFFE4940077
:100CAD00FE123E75EE3395E0FDFCC004C005C00696
:100CBD00C007E4FF7E01FDFC9001201220C6121F2B
:100CCD0079D003D002D001D000121F79C006C00721
:100CDD00900132E0FEA3E0FBAA06E4F9F8D007D0BC
:100CED0006122004A804A905AA06AB0790012BE063
:100CFD007F00FEE4FCFD121F5E806890012BE0FF7B
:100D0D0090012EE0C39FFFE49400FE123E75EE337A
:100D1D0095E0FDFCC004C005C006C007E4FF7E01E0
:100D2D00FDFC9001201220C6121F79D003D002D0F5
:100D3D0001D000121F79C006C007900132E0FEA35A
:100D4D00E0FBAA06E4F9F8D007D006122004A804A7
:100D5D00A905AA06AB0790012BE07F00FEE4FCFD80
:100D6D00121F6B9001261220D2900134E0FFE4FC9B
:100D7D00FDFE9001261220C6121F79E47B64FAF95C
:100D8D00F81220049001261220D29001261220BACA
:100D9D009000A6EEF0A3EFF090012FE0FF90012C54
:100DAD00E0FEC39F5064EEFDC3EF9DFFE49400FE93
:100DBD00123E75EE3395E0FDFCC004C005C006C0C3
:100DCD0007E4FF7E01FDFC9001201220C6121F7961
:100DDD00D003D002D001D000121F79C006C00790F9
:100DED000132E0FEA3E0FBAA06E4F9F8D007D00635
:100DFD00122004A804A905AA06AB0790012CE07FD8
:100E0D0000FEE4FCFD121F5E806890012CE0FF9057
:100E1D00012FE0C39FFFE49400FE123E75EE339563
:100E2D00E0FDFCC004C005C006C007E4FF7E01FD67
:100E3D00FC9001201220C6121F79D003D002D001E0
:100E4D00D000121F79C006C007900132E0FEA3E06A
:100E5D00FBAA06E4F9F8D007D006122004A804A9CD
:100E6D0005AA06AB0790012CE07F00FEE4FCFD1205
:100E7D001F6B9001261220D2900134E0FFE4FCFD9F
:100E8D00FE9001261220C6121F79E47B64FAF9F850
:100E9D001220049001261220D29001261220BA9021
:100EAD0000A8EEF0A3EFF0900130E0FF90012DE0EF
:100EBD00FEC39F5064EEFDC3EF9DFFE49400FE1250
:100ECD003E75EE3395E0FDFCC004C005C006C007BD
:100EDD00E4FF7E01FDFC9001201220C6121F79D087
:100EED0003D002D001D000121F79C006C0079001B7
:100EFD0032E0FEA3E0FBAA06E4F9F8D007D0061213
:100F0D002004A804A905AA06AB0790012DE07F00D7
:100F1D00FEE4FCFD121F5E806890012DE0FF900144
:100F2D0030E0C39FFFE49400FE123E75EE3395E072
:100F3D00FDFCC004C005C006C007E4FF7E01FDFC3A
:100F4D009001201220C6121F79D003D002D001D0FB
:100F5D0000121F79C006C007900132E0FEA3E0FB2E
:100F6D00AA06E4F9F8D007D006122004A804A905B2
:100F7D00AA06AB0790012DE07F00FEE4FCFD121FD9
:100F8D006B9001261220D2900134E0FFE4FCFDFEAF
:100F9D009001261220C6121F79E47B64FAF9F8122B
:100FAD0020049001261220D29001261220BA900022
:100FBD00AAEEF0FAA3EFF0FB9000A6E0FEA3E0FF8F
:100FCD00A3E0FCA3E0FD122B7A900132E0FEA3E03A
:100FDD00FFE4FCFD9001201220C6C31220964012A2
:100FED009001201220DE00000000900131E060022F
:100FFD0014F0900131E0600302147D02147290012F
:10100D001FE07012A31220BAEF2401FFE43EFEE4AC
:10101D003DFDE43C80219001201220BAEC4D4E4F55
:10102D00601C9001201220BAEF24FFFFEE34FFFE6A
:10103D00ED34FFFDEC34FFFC9001201220D2E47F53
:10104D00FFFEFDFC9001201220C6121F79A804A9F5
:10105D0005AA06AB0790012BE0FFE4FCFDFE121F75
:10106D0079C006C007900132E0FEA3E0FBAA06E4BA
:10107D00F9F8D007D0061220049001261220D29044
:10108D000134E0FFE4FCFDFE9001261220C6121F84
:10109D0079E47B64FAF9F81220049001261220D22B
:1010AD009001261220BA9000A6EEF0A3EFF0E47F97
:1010BD00FFFEFDFC9001201220C6121F79A804A985
:1010CD0005AA06AB0790012CE0FFE4FCFDFE121F04
:1010DD0079C006C007900132E0FEA3E0FBAA06E44A
:1010ED00F9F8D007D0061220049001261220D290D4
:1010FD000134E0FFE4FCFDFE9001261220C6121F14
:10110D0079E47B64FAF9F81220049001261220D2BA
:10111D009001261220BA9000A8EEF0A3EFF0E47F24
:10112D00FFFEFDFC9001201220C6121F79A804A914
:10113D0005AA06AB0790012DE0FFE4FCFDFE121F92
:10114D0079C006C007900132E0FEA3E0FBAA06E4D9
:10115D00F9F8D007D0061220049001261220D29063
:10116D000134E0FFE4FCFDFE9001261220C6121FA3
:10117D0079E47B64FAF9F81220049001261220D24A
:10118D009001261220BA9000AAEEF0FAA3EFF0FB20
:10119D009000A6E0FEA3E0FFA3E0FCA3E0FD122B70
:1011AD007A900132E0FEA3E0FFE4FCFD90012012F5
:1011BD0020C6C31220965011E4FFFEFDFC900120C5
:1011CD001220C6C3122096701790011FE070040400
:1011DD00F0800DE490011FF0900131E0600214F0F9
:0C11ED00900131E0600302147D021472D6
:1011F9009001961220DE000000FFE4FFFEFDFC9046
:1012090001201220C6C312209660030212F3900136
:101219002BE0FFE4FCFDFE9001961220C6121F7917
:10122900A804A905AA06AB07900134E0FFE4FCFD78
:10123900FE121F79E47B64FAF9F812200490012662
:101249001220D29001261220BA9000A6EEF0A3EF48
:10125900F090012CE0FFE4FCFDFE9001961220C6FF
:10126900121F79A804A905AA06AB07900134E0FF6B
:10127900E4FCFDFE121F79E47B64FAF9F8122004FC
:101289009001261220D29001261220BA9000A8EED1
:10129900F0A3EFF090012DE0FFE4FCFDFE90019634
:1012A9001220C6121F79A804A905AA06AB07900146
:1012B90034E0FFE4FCFDFE121F79E47B64FAF9F8DF
:1012C9001220049001261220D29001261220BA90F1
:1012D90000AAEEF0FAA3EFF0FB9000A6E0FEA3E06F
:1012E900FFA3E0FCA3E0FD122B7A900132E0FEA3FC
:1012F900E0FFE4FCFD9001261220D2900126122085
:10130900BA9001201220C6C312209660030213F579
:1013190090012EE0FFE4FCFDFE9001961220C6121A
:101329001F79A804A905AA06AB07900134E0FFE4D8
:10133900FCFDFE121F79E47B64FAF9F8122004908F
:1013490001261220D29001261220BA9000A6EEF0B2
:10135900A3EFF090012FE0FFE4FCFDFE900196124F
:1013690020C6121F79A804A905AA06AB0790013463
:10137900E0FFE4FCFDFE121F79E47B64FAF9F81240
:1013890020049001261220D29001261220BA900042
:10139900A8EEF0A3EFF0900130E0FFE4FCFDFE9031
:1013A90001961220C6121F79A804A905AA06AB073F
:1013B900900134E0FFE4FCFDFE121F79E47B64FA3E
:1013C900F9F81220049001261220D2900126122049
:1013D900BA9000AAEEF0FAA3EFF0FB9000A6E0FEA7
:1013E900A3E0FFA3E0FCA3E0FD122B7A90012012F9
:1013F90020BAEF2401FFE43EFEE43DFDE43CFC900D
:1014090001201220D29001261220DE000000009057
:101419000132E0FEA3E0FFE4FCFD9001261220C6A4
:10142900121F5EA804A905AA06AB07900135E0FEC4
:10143900A3E0FFE4FCFD121F5E9001261220D2906A
:1014490001261220BA9001201220C6C3122096400C
:10145900129001201220DE00000000900131E060AE
:101469000214F0900131E0700B90012AE0C4540F8E
:04147900FF12391D08
:01147D00224C
:013F2C002272
:0B34410090019E1221389001A1EDF0D7
:10344C00E4A3F0AF05EFC39411E49001A2F0900156
:10345C00A2E0FDC3947250369001A1E075F072A405
:10346C002400FFE5F03440FE7C00EF2DFFEC3EFE27
:10347C0012000390019E1221189001A2E0F58275B2
:0E348C008300EF121DD79001A2E004F080C073
:01349A00220F
:0A3E8C00E42FFFEE3440FE023894EC
:0A3E9600E42FFFEE3440FE02325824
:103DF400E42FFFEE3440FE9001FAE0900200F0025E
:023E04002E018D
:043F1C00120003226A
:013F2D002271
:013F2E002270
:103D7E00123DBB123EB4123F1012354B123C2E12A6
:053D8E003C89D2AF22C8
:042FBC004100A2002E
:103C8900E49000A2F0FE7FA2FD7B017A0079001288
:0D3C9900218D7F007E4B7D007C000232C536
:0300230002384D53
:10384D00C0E0C083C082C0D075D000C007309827BB
:10385D00C2989000A0E0FF04F074002FF582E434CC
:10386D0000F583E599F09000A0E0C394A04002E438
:10387D00F09000A2E004F0309902C299D007D0D0A8
:07388D00D082D083D0E032AD
:082FC0004101F3004101F4009E
:103C2E00123CC35389F0438901538EF79001F3740C
:103C3E00FAF0A374C4F0758CFAF58AD2A9D28C224C
:103CC300E49001EAF09001ECF09001F0F0A3F090A1
:0C3CD30001EBF09001EDF09001F2F02206
:03000B000230635D
:10306300C0E0C0F0C083C082C0D075D000C000C033
:10307300069001F3E0F58CA3E0F58A9001E9740171
:10308300F0A3E004F0C3940A4005E4F0A304F09035
:1030930001ECE004F0C394644005E4F0A304F09071
:1030A30001EEE004F0C394F4748094814005E4F0ED
:1030B300A304F09001F0E475F001121E96FEC3E53F
:1030C300F094E8EE9403400A9001F0E4F0A3F0A337
:1030D30004F0D006D000D0D0D082D083D0F0D0E09E
:0130E30032BA
:103B7C000A6D679C46F6375D4521EFAC5A50010B38
:103B8C00DF020A6D679C46F6375D4521EFAC5A5053
:043B9C00E10BDF0258
:082FC800450201CCCCCCCCCCBD
:103DBB0053B3FE43B40153B3FD43B40253B1FE43BB
:033DCB00B2012220
:013F2F00226F
:103CA600E4FEC290EF30E704D2808002C280EF25A6
:0C3CB600E0FFD290000EEEB408E8C290CF
:013CC20022DF
:043DCE00E4FD7FFC95
:0F3DD200C29100123CA6AF05123CA600D291226E
:0A39DA007B019001AC7405F07F3F03
:0639E4009001A912213838
:1039EA00C291E4FD123CA69001ACE0FFEDC39F50EA
:1039FA00159001A91221188D82758300121D77FF77
:083A0A00123CA60D80E1D291EF
:013A12002291
:103C0B00E4FEC290EF30E704D2808002C280EF2541
:103C1B00E0FFD290000EEEB408E843B10153B2FEC0
:023C2B00C29045
:013C2D002274
:103D4D00E4FFFEC290EF25E0FFD2903080034401E6
:083D5D00FF0EEEB408EDC29068
:013D6500223B
:103DE100C29100123C0B123D4D53B1FE43B2010092
:023DF100D2916D
:013DF30022AD
:063A13009001971221381A
:103A1900C291123C0BE4FD90019AE0FFEDC39F5067
:103A290015123D4D9001971221188D82758300EF73
:0E3A3900121DD70D80E153B1FE43B201D291B0
:013A4700225C
:0E3E3300123DCE7D8E7F20123DD20000002277
:103B5600E4FEFD7FFC123DD27D8F7F20123DD2E434
:103B6600FD7FFD123DD2E4FEFF000FBF00010EBE39
:053B760013F7BF88F405
:013B7B002227
:0A3EA0007F07123DE1EF5470FF228E
:063F04007F09123DE122DD
:073EDD007D707F27023DD23A
:0C3E6900E4FD7FE1123DD27FE2023DD279
:0E3E4100AC07123DCEAF04AD077F25023DD287
:06396000123EA0EF7038DA
:10396600900196F0A3F09001ACEDF07FA01239E43F
:10397600E4FD7FFD123DD2E4900196F0A3F00090A5
:103986000196E475F001121E96900196E07004A36C
:08399600E064C870E9123DCEA7
:01399E002206
:103ADF00AC05123EA0EF30E61D123DCE90019AECE0
:103AEF00F07F61123A13123E69123EDDE4FD7FFD55
:093AFF00123DD27F01227F00225A
:10284A0078967C017D017BFF7A3B797C7E007F054F
:10285A00121D38789B7C017D017BFF7A3B79817E52
:10286A00007F03121D38789E7C017D017BFF7A3B35
:10287A0079847E007F06121D3878A47C017D017B55
:10288A00FF7A3B798A7E007F01121D3878A57C0188
:10289A007D017BFF7A3B798B7E007F03121D381204
:1028AA003F2F7D5A7F53123DD27DA57F53123DD2D1
:1028BA007D207F3D123DD2123DCE7FE1123DD27F77
:1028CA00E2123DD27D707F27123DD27D017F221216
:1028DA003DD27D037F23123DD27D4E7F25123DD20C
:1028EA007D107F31123DD27B017A0279019001ACD1
:1028FA007405F07F301239E47B017A027901900184
:10290A00AC7405F07F2A1239E47A0179961239DA21
:10291A007B017A01799E9001AC7406F07F3A1239F4
:10292A00E47B017A0179A49001AC7401F07F391239
:10293A0039E47B017A01799B9001AC7403F07F3E04
:10294A001239E47B017A0179A59001AC7403F07F16
:10295A003B1239E4E4FD7F3C123DD27D3F7F2612D3
:0E296A003DD2E4FD7F24123DD27F21023DD2FA
:052C69009001C4EFF032
:102C6E00E478C57C017D017BFF7A3B798EFE7F0582
:102C7E00121D3878CA7C017D017BFF7A3B79937EE9
:102C8E00007F03121D3878CD7C017D017BFF7A3BDE
:102C9E0079967E007F06121D3878D37C017D017BEC
:102CAE00FF7A3B799C7E007F01121D3878D47C011F
:102CBE007D017BFF7A3B799D7E007F03121D387D5F
:102CCE005A7F53123DD27DA57F53123DD27D207F78
:102CDE003D123DD2123DCEE4FF000000000FEFB4D6
:102CEE00DCF79001C4E0FD7F25123DD27D3F7F26AB
:102CFE00123DD27A0179C51239DA7B017A0179CD8A
:102D0E009001AC7406F07F3A1239E47B017A0179B6
:102D1E00D39001AC7401F07F391239E47B017A0152
:102D2E0079CA9001AC7403F07F3E1239E47B017ACC
:0E2D3E000179D49001AC7403F07F3B0239E4BC
:10354B0053B1F743B20853B1EF43B21053B3FB433C
:10355B00B40443DE01A2AF9209C2AF75C7AA75C707
:10356B005543910143C60875C7AA75C7555391FEBC
:10357B00A20992AF43DE2053DF3F43DF0153DFF954
:10358B0075D1FF75D9FFD2DFE4FBFAFDFCFFFE021C
:02359B002B7A89
:103A4800AD07AC06A2AF9209C2AF75C7AA75C75534
:103A5800439101A20992AFECF5C5EDF5CDA2AF9265
:103A680009C2AF75C7AA75C7555391FEA20992AF8F
:033A7800D2DE2279
:0D3E4F00AD07AC06ECF5D5EDF5DDD2DE22B9
:0D3E5C00AD07AC06ECF5D2EDF5DAD2DE22B2
:102B7A009001A0EEF0A3EFF0A3ECF0A3EDF0A3EA2E
:042B8A00F0A3EBF0D9
:102B8E00A31220DE000000009001A0E0FEA3E0FFF3
:102B9E00E4FCFD9001A61220D29001A61220C69050
:102BAE0000A4E0FFE4FCFDFE121F799001A61220A6
:102BBE00D29001A61220BAE47B64FAF9F81220042E
:102BCE009001A61220D29001A61220BA123A489075
:102BDE0001A2E0FEA3E0FFE4FCFD9001A61220D2CC
:102BEE009001A61220C69000A4E0FFE4FCFDFE12A8
:102BFE001F799001A61220D29001A61220BAE47B72
:102C0E0064FAF9F81220049001A61220D29001A6BF
:102C1E001220BA123E4F9001A4E0FEA3E0FFE4FCA6
:102C2E00FDA31220D29001A61220C69000A4E0FFB0
:102C3E00E4FCFDFE121F799001A61220D29001A68F
:102C4E001220BAE47B64FAF9F81220049001A6125D
:0B2C5E0020D29001A61220BA023E5CBA
:103BA0009000A4EFF0C3940A5003740AF09000A6AA
:103BB000E0FEA3E0FFA3E0FCA3E0FDA3E0FAA3E0A6
:043BC000FB022B7A5F
:093EB40053B3EF43B410023F23A5
:033F2000D2942216
:033F2300C2942223
:033F2600B2942230
:063F0A00A294E433FF2243
:0A3EAA00EF6003023F20123F2322C5
:013F3000226E
:10325800EFF5A6EEF5A7A2AF9209C2AF75C7AA759A
:10326800C755439F01A20992AFA2AF9209C2AF7599
:10327800C7AA75C75543A501A20992AF75AF21AF7B
:10328800058FAEA2AF9209C2AF75C7AA75C75543DD
:10329800A401A20992AFA2AF9209C2AF75C7AA75DD
:1032A800C75553A5FEA20992AFA2AF9209C2AF7546
:0D32B800C7AA75C755539FFEA20992AF2209
:103894008FA6EEF5A775AEFFA2AF9209C2AF75C7AA
:1038A400AA75C755439F01A20992AFA2AF9209C25C
:1038B400AF75C7AA75C75543A501A20992AF75AFE5
:1038C40022A2AF9209C2AF75C7AA75C75543A40116
:0538D400A20992AF22E1
:0C2E01009001FBEEF0A3EFF0A3122138CB
:102E0D009001FBE0FEA3E0F5A6EEF5A7A2AF9209B7
:102E1D00C2AF75C7AA75C755439F01A20992AFA24C
:102E2D00AF9209C2AF75C7AA75C75543A501A209CF
:102E3D0092AF75AF21E4FEFF900200E0FDC3EF9D60
:102E4D00EE940050299001FD1221188F828E83126D
:102E5D001D77F5AEA2AF9209C2AF75C7AA75C7555A
:102E6D0043A401A20992AF0FBF00010E80CAA2AF09
:102E7D009209C2AF75C7AA75C75553A5FEA209928F
:102E8D00AFA2AF9209C2AF75C7AA75C755539FFEC2
:042E9D00A20992AF45
:012EA100220E
:040003008F828E83D7
:03000700E493FF80
:01000A0022D3
:073EE400A2B0B3E433FF229A
:073EEB00A297B3E433FF22AC
:063F10001234F4023E062B
:103DA7007843E62438F8A607784306E6C3940A4022
:043DB70002E4F6220A
:103CDF007842E6FE08667002FF2274382EF8E6FF7F
:0B3CEF00784206E6C3940A4002E4F6A7
:013CFA0022A7
:103CFB007844E6FE18667002FF2274382EF8E6FF51
:0B3D0B00784406E6C3940A4002E4F688
:013D1600228A
:0B3E8100EF75F00BA4242AF8E6FF22E6
:103BC400EF75F00BA42428F8A60408A605AE03EFAD
:103BD40075F00BA4242BF8A606EF75F00BA4242C87
:043BE400F8E4F622E9
:063F16007843E618F622D4
:103E060053ACFE53ADFE53B37F53B37FD2B0D297BC
:013E16002289
:1034F400E47842F608F608F6FFEF75F00BA42428EA
:10350400F87600087664EF75F00BA42425F87602AB
:10351400EF75F00BA4242AF8E4F6EF75F00BA4245D
:103524002BF8E4F6EF75F00BA4242CF8E4F60FEF77
:10353400B402C67BFF7A3E79E4782212210F7A3EE8
:0735440079EB782D02210F45
:10270D00900197EFF0E075F00BA42422F9E4FAFBA9
:10271D00900225122138122141122187EF700302F8
:10272D0027EC900225122118900003121D77FFC38C
:10273D00940550089000037405022846EFC3940ACF
:10274D0050089000037401021DA4900008121D771B
:10275D00701490000804121DD7900197E075F003D6
:10276D00A404FF123DA79002251221189000061215
:10277D001EACFFAEF0D39400EE9400500302284936
:10278D00900004121EACC39FE5F09E5023900004F0
:10279D00E475F001121EE4FCE5F06F7002EC6E6062
:1027AD0003022849900197E075F003A42403802BC0
:1027BD00900009121D77FFD3940050030228499011
:1027CD00000A7401121DA4C39F407190000AE41207
:1027DD001DD7900197E075F003A404FF023DA7906B
:1027ED000225122118900003121D77FFD394054086
:1027FD000A9000037405121DD7802BEF600A90001C
:10280D000374FF121DA4801E900008121D77B401E1
:10281D0015900008E4121DD7900197E075F003A400
:10282D002402FF123DA7900225122118900004E406
:0D283D00F5F0121F3190000AE4121DD722A1
:103D3200E4900196F0900196E0FFC39402500B12BA
:0A3D4200270D900196E004F080EBDD
:013D4C002254
:10399F0053B1BF53B2BF53B17F53B27F75985043EA
:1039AF008920438780438E1053C4DFAB07AA06A933
:1039BF0005A8047F407E427D0F7C00122004EF0497
:0B39CF00F404F58DD28ED299D2AC2208
:1032C5009001961220D253B1BF53B2BF53B17F5371
:1032D500B27F75985043878053C4F843C42090014A
:1032E500961220C67F407E427D0F7C00122004C3CB
:1032F50074FF9FFF74FF9EFEE49DFDE49CFC78082F
:103305001220A78FC69001961220C67F407E427D6F
:103315000F7C00122004C374FF9FFF8FC543C408B0
:05332500D299D2AC2298
:073EBD003098FDAF99C29897
:013EC40022DB
:083EC500C2998F993099FD228A
:103389009002061220D253B1FB53B2FB53B3BF5381
:10339900B4BF75F85075C40853C4DF9002061220F3
:1033A900C67F407E427D0F7C00122004C374FF9FBC
:1033B900FF74FF9EFEE49DFDE49CFC78081220A7A3
:1033C9008FC69002061220C67F407E427D0F7C0088
:0E33D900122004C374FF9FFF8FC543C4082257
:073ECD0030F8FDAF9AC2F8C6
:013ED40022CB
:083ED500C2F98F9A30F9FD22B9
:10376C0090020A1220D2538EF7438901D28CE4FFC7
:10377C00FEFDFC90020A1220C6C312209660297529
:10378C008A7E758CFF308DFDC28D90020A1220BA94
:10379C00EF24FFFFEE34FFFEED34FFFDEC34FFFCB5
:0B37AC0090020A1220D280C6C28C22BC
:1037B70090020E1220D2538EF7438901D28CE4FF78
:1037C700FEFDFC90020E1220C6C3122096602975DA
:1037D7008ACA758CFA308DFDC28D90020E1220BAFE
:1037E700EF24FFFFEE34FFFEED34FFFDEC34FFFC6A
:0B37F70090020E1220D280C6C28C226D
:103802009002121220D2538EEF438910D28EE4FF1F
:10381200FEFDFC9002121220C6C31220966029758A
:103822008BEA758DCB308FFDC28F9002121220BAB7
:10383200EF24FFFFEE34FFFEED34FFFDEC34FFFC1E
:0B3842009002121220D280C6C28E221B
:1035EC009002161220D253C9BF53C9DF43C910D25F
:1035FC00CAE4FFFEFDFC9002161220C6C3122096F0
:10360C00602975CC3075CDF830CFFDC2CF90021645
:10361C001220BAEF24FFFFEE34FFFEED34FFFDEC79
:0E362C0034FFFC9002161220D280C6C2CA22C1
:1036870090021A1220D275C40743C408E4FFFEFD56
:10369700FC90021A1220C6C3122096602C75C52C06
:1036A70075C6CFE5C430E4FB53C4EF90021A12206D
:1036B700BAEF24FFFFEE34FFFEED34FFFDEC34FFDD
:0D36C700FC90021A1220D280C353C4F722D7
:1036D40090021E1220D275C40743C408E4FFFEFD05
:1036E400FC90021E1220C6C3122096602C75C5D809
:1036F40075C6FFE5C430E4FB53C4EF90021E1220EC
:10370400BAEF24FFFFEE34FFFEED34FFFDEC34FF8F
:0D371400FC90021E1220D280C353C4F72285
:102978000A3D3D3D3D3D3D3D3D3D3D3D3D3D3D3DB2
:102988003D3D3D3D3D3D3D3D3D3D3D3D3D3D3D3D6F
:102998003D3D3D3D3D3D3D3D3D3D3D3D3D3D3D3D5F
:1029A8003D3D3D3D3D3D3D3D3D3D3D3D3D3D3D3D4F
:1029B8003D3D3D3D3D000A2A2020436F70797269F4
:1029C8006768742863292032303135204E75766F58
:1029D800746F6E20546563686E6F6C6F67792043FF
:1029E8006F72702E20416C6C207269676874732056
:1029F80072657365727665642E2020000A2A20208D
:102A0800436F6E7461637420452D4D61696C3A2083
:102A18004D6963726F432D38626974406E75766FC5
:102A2800746F6E2E636F6D202020202020202020C0
:102A3800202020202020202020202020202020208E
:102A480020000A2A202044656D6F2056657273693C
:102A58006F6E20203A202532642E2532642E2532CE
:102A680064000A2A202046696E69736865642044F8
:102A7800617465203A202532642E2532642E253271
:022A88006400E8
:10332A007BFF7A2979781222547BFF7A2979BE1297
:10333A0022547BFF7A2A79041222547BFF7A2A7953
:10334A004A90016EE4F0A304F0E4A3F0A3F0A3F022
:10335A00A3F01222547BFF7A2A796A90016E7407CD
:10336A00F0A374DFF0A3E4F0A37405F0A3E4F0A3E0
:0F337A00741FF01222547BFF7A297978022254B3
:03000000022EA22B
:102EA200787FE4F6D8FD9000007FFF7E03E4F0A374
:0A2EB200DFFCDEFA758144022EF702
:102EBC0002254EE493A3F8E493A34003F68001F2B9
:102ECC0008DFF48029E493A3F85407240CC8C33317
:102EDC00C4540F4420C8834004F456800146F6DFE6
:102EEC00E4800B0102040810204080902F3CE47E0B
:102EFC00019360BCA3FF543F30E509541FFEE493DB
:102F0C00A360010ECF54C025E060A840B8E493A3A1
:102F1C00FAE493A3F8E493A3C8C582C8CAC583CACC
:102F2C00F0A3C8C582C8CAC583CADFE9DEE780BE84
:012FD0000000
:101C6800E709F608DFFA8046E709F208DFFA803E5E
:101C780088828C83E709F0A3DFFA8032E309F6084B
:101C8800DFFA8078E309F208DFFA807088828C83B3
:101C9800E309F0A3DFFA806489828A83E0A3F60867
:101CA800DFFA805889828A83E0A3F208DFFA804C41
:101CB80080D280FA80C680D4806980F28033801018
:101CC80080A680EA809A80A880DA80E280CA803381
:101CD80089828A83ECFAE493A3C8C582C8CCC583F9
:101CE800CCF0A3C8C582C8CCC583CCDFE9DEE780C9
:101CF8000D89828A83E493A3F608DFF9ECFAA9F048
:101D0800EDFB2289828A83ECFAE0A3C8C582C8CC9D
:101D1800C583CCF0A3C8C582C8CCC583CCDFEADEB6
:101D2800E880DB89828A83E493A3F208DFF980CC18
:101D380088F0EF60010E4E60C388F0ED2402B40411
:101D48000050B9F582EB2402B4040050AF232345B8
:061D58008223901CB87309
:101D5E00BB010689828A83E0225002E722BBFE0283
:091D6E00E32289828A83E49322B6
:101D7700BB010CE58229F582E5833AF583E0225021
:101D870006E92582F8E622BBFE06E92582F8E2226B
:0D1D9700E58229F582E5833AF583E4932285
:101DA400BB010FF8E58229F582E5833AF583E02843
:101DB400F0225009C58229F8E58226F622BBFE09E5
:101DC400C58229F8E22582F222F8EA2583F583E91F
:031DD4009328222F
:101DD700F8BB010DE58229F582E5833AF583E8F042
:101DE700225006E92582C8F622BBFE05E92582C8EE
:021DF700F222D6
:101DF900EF8DF0A4A8F0CF8CF0A428CE8DF0A42EFE
:021E0900FE22B7
:101E0B00BC000BBE0029EF8DF084FFADF022E4CCBB
:101E1B00F875F008EF2FFFEE33FEEC33FCEE9DEC84
:101E2B00984005FCEE9DFE0FD5F0E9E4CEFD22EDCA
:101E3B00F8F5F0EE8420D21CFEADF075F008EF2F14
:101E4B00FFED33FD4007985006D5F0F222C398FD05
:051E5B000FD5F0EA22A2
:101E6000C2D5EC30E709B2D5E4C39DFDE49CFCEE9D
:101E700030E715B2D5E4C39FFFE49EFE121E0BC3EC
:101E8000E49DFDE49CFC8003121E0B30D507C3E4E7
:061E90009FFFE49EFE220C
:101E9600C5F0F8A3E028F0C5F0F8E58215827002D7
:061EA6001583E038F02274
:101EAC00BB0110E58229F582E5833AF583E0F5F074
:101EBC00A3E0225009E92582F886F008E622BBFE51
:101ECC000AE92582F8E2F5F008E222E5832AF58397
:081EDC00E993F5F0A3E993225C
:101EE400BB010DC58229C582C5833AC583021E96EE
:101EF4005011C58229F808E5F026F618F5F0E582B8
:101F040036F622BBFE11C58229F808E225F0F5F069
:101F1400F218E23582F222F8E58229F582E5832A75
:0D1F2400F58374019325F0F5F0E493382265
:101F3100F8BB0111E58229F582E5833AF583E8F0E2
:101F4100E5F0A3F0225009E92582C8F608A6F0229F
:0D1F5100BBFE09E92582C8F2E5F008F22286
:0D1F5E00EF2BFFEE3AFEED39FDEC38FC22D2
:0E1F6B00C3EF9BFFEE9AFEED99FDEC98FC2271
:101F7900E88FF0A4CC8BF0A42CFCE98EF0A42CFC07
:101F89008AF0EDA42CFCEA8EF0A4CDA8F08BF0A485
:101F99002DCC3825F0FDE98FF0A42CCD35F0FCEBE4
:101FA9008EF0A4FEA9F0EB8FF0A4CFC5F02ECD39A9
:0F1FB900FEE43CFCEAA42DCE35F0FDE43CFC2216
:101FC80075F008758200EF2FFFEE33FECD33CDCCD0
:101FD80033CCC58233C5829BED9AEC99E582984053
:101FE8000CF582EE9BFEED9AFDEC99FC0FD5F0D630
:101FF800E4CEFBE4CDFAE4CCF9A88222B800C1B95A
:102008000059BA002DEC8BF084CFCECDFCE5F0CB97
:10201800F97818EF2FFFEE33FEED33FDEC33FCEBD0
:1020280033FB10D703994004EB99FB0FD8E5E4F98B
:10203800FA227818EF2FFFEE33FEED33FDEC33FC78
:10204800C933C910D7059BE99A4007EC9BFCE99A6C
:10205800F90FD8E0E4C9FAE4CCFB2275F010EF2FB1
:10206800FFEE33FEED33FDCC33CCC833C810D707B1
:102078009BEC9AE899400AED9BFDEC9AFCE899F8EC
:0E2088000FD5F0DAE4CDFBE4CCFAE4C8F9227F
:10209600EB9FF5F0EA9E42F0E99D42F0E89C45F0A0
:0120A6002217
:1020A700E8600FECC313FCED13FDEE13FEEF13FF17
:0320B700D8F1223B
:0C20BA00E0FCA3E0FDA3E0FEA3E0FF2299
:0C20C600E0F8A3E0F9A3E0FAA3E0FB229D
:0C20D200ECF0A3EDF0A3EEF0A3EFF02281
:1020DE00A8828583F0D083D0821220F51220F512CB
:1020EE0020F51220F5E473E493A3C583C5F0C583F0
:1020FE00C8C582C8F0A3C583C5F0C583C8C582C84C
:01210E0022AE
:09210F00EBF608EAF608E9F622F5
:09211800E0FBA3E0FAA3E0F922C8
:10212100F8E0FBA3A3E0F925F0F0E5821582700247
:072131001583E0FA38F022EB
:09213800EBF0A3EAF0A3E9F022A8
:10214100BB010789828A830221185005E9F802211F
:10215100CBBBFE05E9F80221D489828A830221DD05
:10216100D083D082F8E4937012740193700DA3A30D
:1021710093F8740193F5828883E473740293686021
:06218100EFA3A3A380DF21
:062187008A838982E473E3
:1021E900E508246EF582E43401F583E005082290C0
:1021F900016B30070390016EE475F0011221210291
:102209001D5E2000E97F2ED2008018EF540F249024
:10221900D43440D4FF30040BEF24BFB41A00500368
:102229002461FFE50960021509050CE50C7002053A
:102239000B30070E90016BE475F001122121EF02BA
:1022490021B9023B2F7403D2078003E4C207F508C2
:1022590090016B122138E4F509F50BF50CE50960DD
:10226900077F2012222C80F5750AFFC201C200C225
:1022790002C203C205C206C2081221F8FF700D305E
:1022890007057F0012223DAF0CAE0B22B4255FC2B9
:10229900D5C2041221F8FF24D0B40A00501A75F0EF
:1022A9000A780930D50508B6FF0106C6A426F62026
:1022B900D5047002D20380D924CFB41A00EF500498
:1022C900C2E5D20402243ED20180C6D20080C0D227
:1022D9000280BCD2D580BAD20580B47F2012222CCC
:1022E9002002077401B5090040F11221E9FF122209
:1022F9002C022266D208D20680951221E9FB12210E
:10230900E9FA1221E9F94A4B7006790F7A257BFF20
:1023190020022EE509602A7E008E82758300121D37
:102329007760060EEE650A70F0C2D5EBC0E0EAC030
:10233900E0E9C0E0EE122485D0E0F9D0E0FAD0E07F
:10234900FB121D5EFF60AAEBC0E0EAC0E0E9C0E055
:1023590012222CD0E02401F9D0E03400FAD0E0FBBD
:10236900E50A0460DCD50AD980877BFF7A24798164
:10237900D202809C791080027908C206C2088008BE
:10238900D2D5790A8004790AC2D5E50A047002F522
:102399000AE4FAFDFEFF1221E9FC7B082001131271
:1023A90021E9FD7B1030000A1221E9FE1221E9FF23
:1023B9007B20EC3382D592D55013C3E43000069FBD
:1023C900FFE49EFEE42001039DFDE49CFCE4CBF8C0
:1023D900C201EC700CCFCECDCCE824F8F870F380B4
:1023E90017C3EF33FFEE33FEED33FDEC33FCEB3374
:1023F900FB994002FB0FD8E9EB300105F8D0E0C4A6
:1024090048B201C0E00AEC4D4E4F78207B0070C203
:10241900EAB50A0040BCC0E0122487D0F0D0E02021
:102429000104C4C0E0C4B201C0F0122215D0F0D535
:10243900F0EB022266122161230353237D5822D433
:102449004C22D04223814F23894423894922E943DD
:08245900238F55237346237302
:1024610045237347252F5022D82D22DC2E22FF2B06
:1024710022E02322FD2025182A229848000022F775
:102481003F3F3F00790AA2D5200314300509B91056
:10249100020404B9080104A2D52006025001042057
:1024A10002689202B509005034C0E07F2030031960
:1024B1007F30A20272067205500F1224DEC202C2E0
:1024C10006C205C2087F30800F300503E9C0E01263
:1024D100222C300503D0E0F9D0E0B509CC30051746
:1024E1007F30B9100C12222C7F583004077F78807E
:1024F10003B9080312222C3002057F2D02222C7F02
:10250100202008F87F2B2006F322920280CF286E2C
:10251100756C6C2900D2011221E93001F8C20178F1
:102521000930D50108F60222982D5043495812214D
:10253100E92403B405004001E490252A9312221DE9
:0D254100743A12221DD20375090402237D95
:0C3E7500EE30E707C3E49FFFE49EFE224E
:10218D00EF4E6012EF60010EEDBB010B89828A8369
:10219D00F0A3DFFCDEFA2289F05007F709DFFCA976
:0C21AD00F022BBFEFCF309DFFCA9F022CD
:1021B900BB010689828A83F0225002F722BBFE0105
:0221C900F322FF
:0921CB00E6FB08E6FA08E6F92239
:0921D400E2FB08E2FA08E2F9223C
:0C21DD00E493FB740193FA740293F9225E
:103B2F00EFB40A07740D123B3A740A309811A89932
:103B3F00B8130CC2983098FDA899C298B811F630F6
:073B4F0099FDC299F59922CE
:00000001FF
