:083015004102290041022800DC
:10258B00123E57123FFF123BE1123FFC123E3F122D
:10259B0030AA9001E9E06060E4F0900229E004F0D9
:1025AB009000A5E0FFC394324027EF24CEFFE43424
:1025BB00FFFE7C007D03121E48EF240AFFE43EFE63
:1025CB00900229E0D39FEE6480F8748098402980B4
:1025DB00229000A5E0FFC374329FFFE49400FE7CC1
:1025EB00007D06121E48C3740A9FFF900229E0D398
:1025FB009F4005E4F0120C7A9001EBE0600BE4F0E5
:10260B00123E0B1200261236769001EDE06002E4CA
:10261B00F09001EFE06002E4F09001F2E06005E47D
:10262B00F0122EDF123DB8900193EFF070030225EC
:01263B009D01
:10263C00E024FD700302271D1470030227442402BA
:10264C00600302259D900228E0600302271590028A
:08265C0024E020E3030227152E
:10266400E4900194F0A3F0123D45900194E0FF043E
:10267400F074422FF582E43401F58374F8F090018C
:1026840094E0FF04F074422FF582E43401F583747E
:1026940009F0900194E0FF04F074422FF582E434D1
:1026A40001F5837403F0900194E02442F9E43401C9
:1026B400FA7B017D08123B86900194E02408F0E443
:1026C400A3F0900143E02401FFE433FE900195E080
:1026D400FDC39FEE6480F8748098502474432DF5F4
:1026E40082E43401F583E0FF900194E02442F58212
:1026F400E43401F583E02FF0900195E004F080C20A
:10270400900194E004F07B017A017942E0FD1231FA
:01271400C7FD
:10271500E4900228F002259D9002287401F09002B1
:1027250024E0FF30E30954F7F0123DF002259D90B7
:102735000224E04408F054FBF012000E02259D121D
:052745003FF902259D93
:04301D00410222004A
:013FFC0022A2
:102EDF00E4900196F0900222E004F0E0C3940250D7
:102EEF0003022F7AE4F0900196F0E0FF04F07442B1
:102EFF002FF582E43401F58374F8F0900196E0FF2A
:102F0F0004F074422FF582E43401F5837401F090DC
:102F1F000196E0FF04F074422FF582E43401F5834B
:102F2F0074F1F0E4FF900143E02401FDE433FCEF82
:102F3F00C39DEC6480F8748098501F74432FF58202
:102F4F00E43401F583E0FE900196E02442F582E43B
:102F5F003401F583E02EF00F80CB900196E004F062
:0B2F6F007B017A017942E0FD1231C7BE
:012F7A002234
:013FFD0022A1
:013FFE0022A0
:063FCB009001E3022175E4
:063FD1009001E6022175DB
:0E3EF0009001E3122155E94A60031221C42219
:0E3EFE009001E6122155E94A60031221C42208
:103B5400EF4E602D9001D9EEF0A3EFF0AF05A3EC8A
:103B6400F0A3EFF0AF03A3EAF0A3EFF0E4A3F0A314
:103B7400F0A3F0A3F09001D8F09001D704F0123E26
:023B8400F0222D
:103E6C00E49001D7F0123EFE7B007A007900123FFD
:043E7C00CB023FD165
:102D89009001D7E07003022E3D9001DBE0FEA3E045
:102D9900FF4E7003022E3D9001D8E07035D3EF94B9
:102DA90000EE94005003022E3D9001DFE475F0011E
:102DB900121ED3FED39001DAE095F09001D9E09E7E
:102DC9005072123EFEE49001DFF0A3F09001D804A6
:102DD900F0229001D8E06401705A9001DF75F0018A
:102DE900121ED3FED39001DCE095F09001DBE09E4A
:102DF90050429001DDE0FEA3E0FF9400EE94004014
:102E0900259001E1E475F001121ED3FCD3EF95F092
:102E1900EE9C5005E49001D7F09001D7E07007903F
:102E290001DBF0A3F022E49001DFF0A3F09001D8D8
:052E3900F0123EF02242
:103021004101520050015300000000000000000067
:1030310000000000000000500142000000000000FC
:1030410000000000000000000000480163000000D3
:0530510000000000007A
:103BE100E4900152F0FE7F10FD7B017A01795312BE
:103BF10021CA7E007F107D007B017A01794212216A
:073C0100CA122887023C2FC4
:0A31BD0004F07B017A017942E0FD85
:0B31C70090019D1221759001A0EDF019
:1031D200E4FFFE0000000FBF00010EEF64144E700A
:1031E200F2123F0C9001527401F0E4FEFF00000065
:1031F200000FBF00010EEF64C84E70F190019D12E6
:10320200215574019001426B7008E965827003EAEE
:10321200658360257E007F107D007B017A01794203
:103222001221CA9001A0E0FF7E0078427C017D015C
:0932320090019D122155121D7539
:01323B002270
:0614BB009001961221755C
:1014C100E4900199F0A3F0A3F0A3F0121D9B64F244
:1014D1006003021CA4900196122155900001121D77
:1014E100B4D394104003021CA4E490019AF090013B
:1014F10096122155900001121DB42401FFE433FE20
:1015010090019AE0FDC39FEE6480F87480985023A7
:10151100ED2401FFE433FE9001961221558F828E56
:1015210083121DB4FF90019CE02FF090019AE0041A
:10153100F080BB900196122155900001121DB4F567
:1015410082758300A3A3121DB4FF90019CE06F601C
:1015510003021CA47E007F107D007B017A01794289
:101561001221CAE490019BF090019612215590003E
:1015710002121DB412219E15D00116C80217810353
:10158100198604198805198A06198C07199B0815EB
:10159100D30919AA5019C85119E65219F5531A1746
:1015A100541B4F551B5F561B7E571B8D581BA05953
:1015B1001BA65A1BB65B1BCE5C1BD45D1BEC5E19D4
:1015C100B97019D771198673183AB900001C9B02BA
:1015D10019B9900196122155900003121DB4B4015E
:1015E10005123FF3802690019612215590000312B7
:1015F1001DB4B40205123FF68012900196122155D6
:10160100900003121DB4B40303123FF990019BE053
:10161100FF04F074422FF582E43401F58374F8F08D
:1016210090019BE0FF04F074422FF582E43401F550
:10163100837402F0900196122155900002121DB49C
:10164100FF90019BE0FE04F074422EF582E4340128
:10165100F583EFF0123FDDEF90019B6013E0FF0493
:10166100F074422FF582E43401F5837401F08011A6
:10167100E0FF04F074422FF582E43401F583740233
:10168100F0E490019AF0900143E02401FFE433FE7D
:1016910090019AE0FDC39FEE6480F8748098400346
:1016A100021C9B74432DF582E43401F583E0FF9025
:1016B100019BE02442F582E43401F583E02FF090B0
:1016C100019AE004F080BF900224E0FF20E00302D1
:1016D10019C854FBF012000E900224E020E303022B
:1016E1001C9B123CC190019BE0FF04F074422FF55A
:1016F10082E43401F58374F8F090019BE0FF04F07B
:1017010074422FF582E43401F5837409F090019B52
:10171100E0FF04F074422FF582E43401F583740292
:10172100F090019BE02442F9E43401FA7B017D0849
:10173100123B8690019BE02408F0E490019AF0901E
:101741000143E02401FFE433FE90019AE0FDC39FD1
:10175100EE6480F8748098502474432DF582E4344B
:1017610001F583E0FF90019BE02442F582E434011E
:10177100F583E02FF090019AE004F080C2021B454E
:10178100900224E0FF20E0030219F554FBF012005F
:101791000E900224E020E303021C9B123D459001C0
:1017A1009BE0FF04F074422FF582E43401F5837469
:1017B100F8F090019BE0FF04F074422FF582E434CD
:1017C10001F5837409F090019BE0FF04F074422F4E
:1017D100F582E43401F5837403F090019BE0244227
:1017E100F9E43401FA7B017D08123B8690019BE00C
:1017F1002408F0E490019AF0900143E02401FFE411
:1018010033FE90019AE0FDC39FEE6480F8748098E6
:10181100502474432DF582E43401F583E0FF9001F7
:101821009BE02442F582E43401F583E02FF090013E
:101831009AE004F080C2021B45900224E030E005EA
:1018410054FEF0800F900224E04401F04408F0E4DB
:10185100FF1232BA90019BE0FF04F074422FF5822F
:10186100E43401F58374F8F090019BE0FF04F07417
:10187100422FF582E43401F583740BF090019BE073
:10188100FF04F074422FF582E43401F58374B9F05A
:10189100900224E05401FF90019BE0FE04F07442A9
:1018A1002EF582E43401F583EFF0900224E09001FB
:1018B1009B30E312E0FF04F074422FF582E434011F
:1018C100F583E4F08011E0FF04F074422FF582E427
:1018D1003401F5837401F090019BE02442F9E43472
:1018E10001FA7B017D08123B86E490019AF0900198
:1018F1009AE0FFC394085040A3E0FE2442F582E43D
:101901003401F583E5822FF582E43583F583E060C8
:1019110003B4FF1C90019AE0FF74422EF582E43477
:1019210001F583E5822FF582E43583F5837420F098
:1019310090019AE004F080B690019BE02408F0E465
:1019410090019AF0900143E02401FFE433FE9001FD
:101951009AE0FDC39FEE6480F8748098502474432C
:101961002DF582E43401F583E0FF90019BE02442F0
:10197100F582E43401F583E02FF090019AE004F060
:1019810080C2021B45807C804D805A7B007A0079A1
:1019910000E49001A1F07F0780767B007A00790056
:1019A100E49001A1F07F0880677B007A007900E470
:1019B1009001A1F07F0880587B007A007900E490C3
:1019C10001A1F07F0180497B007A007900E4900158
:1019D100A1F07F02803A7B007A007900E49001A1B6
:1019E100F07F05802B7B007A007900E49001A1F063
:1019F1007F06801C7B007A007900E49001A1F07FD2
:101A010003800D7B007A007900E49001A1F07F044E
:101A1100122AC7021C9B900224E0FF20E30844081D
:101A2100F012000E800A900224E054F7F0123DF00B
:101A310090019BE0FF04F074422FF582E43401F53C
:101A41008374F8F090019BE0FF04F074422FF5825B
:101A5100E43401F583740AF090019BE0FF04F07413
:101A6100422FF582E43401F5837401F0900224E001
:101A710090019B30E312E0FF04F074422FF582E401
:101A81003401F583E4F08011E0FF04F074422FF596
:101A910082E43401F5837401F090019BE02442F962
:101AA100E43401FA7B017D08123B86E490019AF04F
:101AB10090019AE0FFC394085040A3E0FE2442F550
:101AC10082E43401F583E5822FF582E43583F583E1
:101AD100E06003B4FF1C90019AE0FF74422EF5828E
:101AE100E43401F583E5822FF582E43583F58374CF
:101AF10020F090019AE004F080B690019BE0240868
:101B0100F0E490019AF0900143E02401FFE433FEF8
:101B110090019AE0FDC39FEE6480F8748098502490
:101B210074432DF582E43401F583E0FF90019BE0DD
:101B31002442F582E43401F583E02FF090019AE02C
:101B410004F080C290019BE01231BD021C9B900207
:101B510024E054FBF012000E123D45021C9B900044
:101B6100A5E0D394644003021C9BE0240AF0E0C387
:101B710094645003021C9B7464F0021C9B90022429
:101B8100E04404F0E4FF1232BA021C9B9000A5E08D
:101B9100C3940A5003021C9BE024F6F0021C9B1222
:101BA10037FA021C9B900224E054FBF012000E1243
:101BB1003CC1021C9B9000A4E0D394645022E02419
:101BC1000AF0E0C3946440187464F0801312371370
:101BD100021C9B9000A4E0C3940A4004E024F6F0A8
:101BE1009000A4E0FF123C79021C9B123FF9900186
:101BF1009BE0FF04F074422FF582E43401F5837415
:101C0100F8F090019BE0FF04F074422FF582E43478
:101C110001F5837402F090019BE0FF04F074422F00
:101C2100F582E43401F5837409F0123FDDEF900190
:101C31009B6013E0FF04F074422FF582E43401F558
:101C4100837401F08011E0FF04F074422FF582E407
:101C51003401F5837402F0E490019AF0900143E0BD
:101C61002401FFE433FE90019AE0FDC39FEE6480FE
:101C7100F8748098502474432DF582E43401F5837F
:101C8100E0FF90019BE02442F582E43401F583E01A
:101C91002FF090019AE004F080C290019BE0600374
:031CA1001231BD40
:011CA400221D
:10367600900152E06031123F79EF24F0601824D0B7
:10368600601224207016123F42123FB6E490015297
:10369600F0023C2F8000123F42023FB67B017A01C6
:1036A60079427D10023A397B017A0179537D1012F5
:0F36B6003BB8EF60097B017A0179531214BB22F4
:103056004101AD004101AE004101B2004101B300A2
:103066004201AF00004101B1005001B40000000070
:0C3076000000000000000000000000004E
:103E3F00E49001ADF0A3F09001B2F0FE7FA2FD7B04
:083E4F00017A0079000221CA8A
:102AC70090019E122175E49001ADF0E0FE04F074D0
:102AD700B42EF582E43401F5837455F09001ADE02E
:102AE700FE04F074B42EF582E43401F58374AAF081
:102AF7009001A1E004FE9001ADE0FD04F074B42D57
:102B0700F582E43401F583EEF09001ADE0FE04F0C8
:102B170074B42EF582E43401F583EFF0E49001B24A
:102B2700F09001A1E0FF9001B2E0FEC39F502A9010
:102B3700019E1221558E82758300121DB4FE9001ED
:102B4700ADE0FD04F074B42DF582E43401F583EEB5
:102B5700F09001B2E004F080C87B017A0179B4EF0C
:102B67002404FD1235749001ADE0FE04F074B42E18
:102B7700F582E43401F583EFF0E49001B2F09001BF
:102B8700A1E02405FFE433FE9001B2E0FDC39FEE10
:102B97006480F8748098501774B42DF582E434017A
:102BA700F583E0FF123F9E9001B2E004F080CF2250
:100026009000A2E07003020C7914F09000A0E02486
:10003600A0FFE433FEA3E0FBFDC3EF9DFFEE9400BB
:10004600FE7C007DA0121E48EDC3940440D27400CD
:100056002BF582E43400F583E064556003020C65F9
:100066009000A1E07A002401FFEA33FE7C007DA027
:10007600121E9D74002DF58274003CF583E064AA7F
:100086006003020C65EB2402FFEA33FE7C007DA0D0
:10009600121E9D74002DF58274003CF583E09001DC
:1000A600AEF09000A0E024A0FFE433CFC39BCF9A2C
:1000B600FE7C007DA0121E9D9001AEE02404FFE4AC
:1000C60033FEC3ED9FEE6480F8EC64809850030223
:1000D6000C6B9000A1E0FF2400F9E43400FA7B01E8
:1000E6009001AEE02403FD90019EEFF0A374A0F012
:1000F60012323CAB079001AEE0FF9000A1E02FFF6B
:10010600E433CF2403CF3400FE7C007DA0121E9D75
:1001160074002DF58274003CF583E06B6003020CDD
:1001260065E49001ADF0FE7F10FD7B017A01794216
:100136001221CA9000A1E0FB7A002403FFEA33FEF5
:100146007C007DA0121E9D74002DF58274003CF586
:1001560083E012219E018F1203D13104AB330915BE
:1001660034058F3506733607573702F738083B4193
:1001760009F9540B3D570B48620BAD630BD3640B67
:09018600F5650C216600000C4F28
:10018F00E4900196F0A3F0EB240CFFE43AFE7C0020
:10019F007DA0121E9D74002DF58274003CF583E046
:1001AF00FF7E00900196EEF0A3EFF09001B1741175
:1001BF00F0E024FFFDE434FFFCC3EF9DEE9C400311
:1001CF00020C4F9001B17410F0900196E07002A3F1
:1001DF00E070239001B2F09001B1E0FFA3E0FEC305
:1001EF009F5013EE75F080A4FFAEF0123F659001A3
:1001FF00B2E004F080E19000A1E0240DFFE433FEB3
:10020F007C007DA0121E9D74002DF58274003CF5BC
:10021F0083E0540FFF9001AFE4F0A3EFF0E49001FF
:10022F00B2F09001AFE0FEA3E0FF7C007D0D121E47
:10023F0036EF240AFFE43EFE9001B2E0FBC39FECD1
:03024F009E504B73
:10025200900196E0FEA3E0FF7D72121E36EBFD2FA9
:10026200FFEC3EFEA3F0A3EFF0C006C0079000A192
:10027200E02404FFE433CF2DCF3CFE7DA0121E9D6F
:1002820074002DF58274003CF583E0FDD007D006A2
:03029200123F6FA9
:100295009001B2E004F080949001B17411F0E49003
:1002A50000A3F09001B2F09001B1E0FFA3E0FEC31E
:1002B5009F5022EE75F072A42400FFE5F03440FE55
:1002C500123FEFEFF4600E9000A3E004F09001B24E
:1002D500E004F080D2900196A3E09001B1F07B019B
:0F02E5007A0179B19001A17401F07F12122AC73A
:1002F400020C4F9001ADE0FF04F074422FF582E44C
:100304003401F58374F8F09001AEE0FF9001ADE0A4
:10031400FE04F074422EF582E43401F583EFF0908C
:1003240001ADE0FF04F074422FF582E43401F5835B
:100334007438F0E49001B2F09001AEE014FF900143
:10034400B2E0FEC39F50409000A1E02404FDE433DA
:10035400FCEE7E002DFFEE3CFE7C007DA0121E9D77
:1003640074002DF58274003CF583E0FF9001ADE04C
:10037400FE04F074422EF582E43401F583EFF0902C
:1003840001B2E004F080B1E49001B2F0900143E0E6
:100394002401FFE433FE9001B2E0FDC39FEE6480CC
:1003A400F8748098502474432DF582E43401F58365
:1003B400E0FF9001ADE02442F582E43401F583E0EE
:1003C4002FF09001B2E004F080C2020B299001AD3D
:1003D400E0FF04F074422FF582E43401F58374F8ED
:1003E400F09001AEE0FF9001ADE0FE04F074422E07
:1003F400F582E43401F583EFF09001ADE0FF04F001
:1004040074422FF582E43401F5837431F0E49001F1
:10041400B2F09001AEE014FF9001B2E0FEC39F5031
:10042400409000A1E02404FDE433FCEE7E002DFFA7
:10043400EE3CFE7C007DA0121E9D74002DF582749E
:10044400003CF583E0FF9001ADE0FE04F074422E21
:10045400F582E43401F583EFF09001B2E004F0801A
:10046400B1E49001B2F0900143E02401FFE433FED3
:100474009001B2E0FDC39FEE6480F874809850242C
:1004840074432DF582E43401F583E0FF9001ADE07F
:100494002442F582E43401F583E02FF09001B2E0C8
:1004A40004F080C2020B29900224E030E003020C25
:1004B4004F9001ADE0FF04F074422FF582E4340163
:1004C400F58374F8F09001AEE0FF9001ADE0FE0416
:1004D400F074422EF582E43401F583EFF09001AD1F
:1004E400E0FF04F074422FF582E43401F5837433A1
:1004F400F0E49001B2F09001AEE014FF9001B2E09C
:10050400FEC39F50409000A1E02404FDE433FCEEC0
:100514007E002DFFEE3CFE7C007DA0121E9D74002B
:100524002DF58274003CF583E0FF9001ADE0FE04FC
:10053400F074422EF582E43401F583EFF09001B2B9
:10054400E004F080B1E49001B2F0900143E02401B2
:10055400FFE433FE9001B2E0FDC39FEE6480F874C3
:100564008098502474432DF582E43401F583E0FF30
:100574009001ADE02442F582E43401F583E02FF0EC
:100584009001B2E004F080C2020B29900224E03012
:10059400E003020C4F9001ADE0FF04F074422FF52C
:1005A40082E43401F58374F8F09001AEE0FF900129
:1005B400ADE0FE04F074422EF582E43401F583EFDD
:1005C400F09001ADE0FF04F074422FF582E43401B1
:1005D400F5837435F0E49001B2F09001AEE014FFBD
:1005E4009001B2E0FEC39F50409000A1E02404FDBE
:1005F400E433FCEE7E002DFFEE3CFE7C007DA01279
:100604001E9D74002DF58274003CF583E0FF90017B
:10061400ADE0FE04F074422EF582E43401F583EF7C
:10062400F09001B2E004F080B1E49001B2F09001E6
:1006340043E02401FFE433FE9001B2E0FDC39FEEEA
:100644006480F8748098502474432DF582E4340156
:10065400F583E0FF9001ADE02442F582E43401F536
:1006640083E02FF09001B2E004F080C2020B2990E5
:100674000224E030E003020C4F9001ADE0FF04F0EF
:1006840074422FF582E43401F58374F8F09001AEDE
:10069400E0FF9001ADE0FE04F074422EF582E434F4
:1006A40001F583EFF09001ADE0FF04F074422FF503
:1006B40082E43401F5837436F0E49001B2F09001E1
:1006C400AEE014FF9001B2E0FEC39F50409000A141
:1006D400E02404FDE433FCEE7E002DFFEE3CFE7CC2
:1006E400007DA0121E9D74002DF58274003CF583DC
:1006F400E0FF9001ADE0FE04F074422EF582E43494
:1007040001F583EFF09001B2E004F080B1E49001D0
:10071400B2F0900143E02401FFE433FE9001B2E023
:10072400FDC39FEE6480F8748098502474432DF5C3
:1007340082E43401F583E0FF9001ADE02442F582C8
:10074400E43401F583E02FF09001B2E004F080C2BC
:10075400020B29900224E030E003020C4F9001AD1B
:10076400E0FF04F074422FF582E43401F58374F859
:10077400F09001AEE0FF9001ADE0FE04F074422E73
:10078400F582E43401F583EFF09001ADE0FF04F06D
:1007940074422FF582E43401F5837437F0E4900158
:1007A400B2F09001AEE014FF9001B2E0FEC39F509E
:1007B400409000A1E02404FDE433FCEE7E002DFF14
:1007C400EE3CFE7C007DA0121E9D74002DF582740B
:1007D400003CF583E0FF9001ADE0FE04F074422E8E
:1007E400F582E43401F583EFF09001B2E004F08087
:1007F400B1E49001B2F0900143E02401FFE433FE40
:100804009001B2E0FDC39FEE6480F8748098502498
:1008140074432DF582E43401F583E0FF9001ADE0EB
:100824002442F582E43401F583E02FF09001B2E034
:1008340004F080C2020B299001ADE0FF04F0744281
:100844002FF582E43401F58374F8F09001AEE0FFF3
:100854009001ADE0FE04F074422EF582E43401F51B
:1008640083EFF09001ADE0FF04F074422FF582E4D1
:100874003401F5837441F0E49001B2F09001AEE0EC
:1008840014FF9001B2E0FEC39F50409000A1E02409
:1008940004FDE433FCEE7E002DFFEE3CFE7C007D87
:1008A400A0121E9D74002DF58274003CF583E0FFB8
:1008B4009001ADE0FE04F074422EF582E43401F5BB
:1008C40083EFF09001B2E004F080B1E49001B2F063
:1008D400900143E02401FFE433FE9001B2E0FDC344
:1008E4009FEE6480F8748098502474432DF582E45C
:1008F4003401F583E0FF9001ADE02442F582E43455
:1009040001F583E02FF09001B2E004F080C2020B05
:1009140029900224E030E003020C4F9001ADE0FF87
:1009240004F074422FF582E43401F58374F8F090F6
:1009340001AEE0FF9001ADE0FE04F074422EF582BA
:10094400E43401F583EFF09001ADE0FF04F074426C
:100954002FF582E43401F5837434F0E49001B2F0AD
:100964009001AEE014FF9001B2E0FEC39F504090AE
:1009740000A1E02404FDE433FCEE7E002DFFEE3CF8
:10098400FE7C007DA0121E9D74002DF58274003C37
:10099400F583E0FF9001ADE0FE04F074422EF58291
:1009A400E43401F583EFF09001B2E004F080B1E4A7
:1009B4009001B2F0900143E02401FFE433FE900182
:1009C400B2E0FDC39FEE6480F874809850247443B1
:1009D4002DF582E43401F583E0FF9001ADE024427B
:1009E400F582E43401F583E02FF09001B2E004F0E5
:1009F40080C2020B29900224E0FF20E3084408F09F
:100A040012000E800A900224E054F7F0123DF09098
:100A140001ADE0FF04F074422FF582E43401F58364
:100A240074F8F09001ADE0FF04F074422FF582E415
:100A34003401F583740AF09001ADE0FF04F07442D0
:100A44002FF582E43401F5837401F0900224E090E0
:100A540001AD30E312E0FF04F074422FF582E43478
:100A640001F583E4F08011E0FF04F074422FF58275
:100A7400E43401F5837401F09001ADE02442F9E41B
:100A84003401FA7B017D08123B86E49001B2F090B8
:100A940001B2E0FFC3940850429001ADE0FE24424D
:100AA400F582E43401F583E5822FF582E43583F59C
:100AB40083E06003B4FF1C9001B2E0FF74422EF5A2
:100AC40082E43401F583E5822FF582E43583F583EE
:100AD4007420F09001B2E004F080B49001ADE02401
:100AE40008F0E49001B2F0900143E02401FFE43304
:100AF400FE9001B2E0FDC39FEE6480F874809850CC
:100B04002474432DF582E43401F583E0FF9001ADB4
:100B1400E02442F582E43401F583E02FF09001B241
:100B2400E004F080C29001ADE004F07B017A017929
:100B340042E0FD1231C7020C4F900224E04404F05D
:100B4400E4020C1B9000A1E0FB7A002404FFEA33CA
:100B5400FE7C007DA0121E9D74002DF58274003C65
:100B6400F583E0FFC007EB2405FFEA33FE7C007D3C
:100B7400A0121E9D74002DF58274003CF583E0FDE7
:100B8400C0059000A1E02406FFE433FE7C007DA0B4
:100B9400121E9D74002DF58274003CF583E0FBD099
:100BA40005D0071239B2020C4F9000A1E02404FFD3
:100BB400E433FE7C007DA0121E9D74002DF582742A
:100BC400003CF583E0FF9000A4F0123C79807C9017
:100BD40000A1E02404FFE433FE7C007DA0121E9DEE
:100BE40074002DF58274003CF583E09000A5F0803C
:100BF4005A900224E054FBF04408F09000A1E02451
:100C040004FFE433FE7C007DA0121E9D74002DF5CC
:0D0C14008274003CF583E0FF1232BA802E9E
:100C21009000A1E02404FFE433FE7C007DA0121EAD
:100C31009D74002DF58274003CF583E0900196F0DF
:0E0C4100E0FFC4540F7007EF540FFF123F8303
:100C4F009001AEE02404FF9000A1E02FF0E075F0DA
:100C5F00A084E5F0F0229000A1E004F09000A1E064
:0B0C6F0075F0A084E5F0F002002622E2
:103574009001A2122175AE05E490022AF0AF061E56
:10358400EF604090022AE0FF9001A2E475F001127E
:10359400215E121D9B6F90022AF0E4A3F090022B8F
:1035A400E0C3940850D790022AE030E007C31364C4
:1035B4008CF0800790022AE0C313F090022BE00401
:0935C400F080DA90022AE0FF22F7
:10323C0090019A122175AE05E490022AF0AF061E99
:10324C00EF606590022AE0FF90019AE475F001129C
:10325C00215E121D9B6F90022AF090019EE004F0FB
:10326C00A3E0FF90019EE0C39F4012E4F0EFFDE469
:10327C009DFDE4940090019B8DF0121ED3E490020E
:10328C002BF090022BE0C3940850B290022AE0304D
:10329C00E007C313648CF0800790022AE0C313F09C
:0E32AC0090022BE004F080DA90022AE0FF226C
:103D2700FFFFFF00FF000000FFFF000000FFFFFF95
:0E3D370000FFFFFF0000FF800080FFFF800004
:103082004100A3004100AC0041012500440126009B
:033092000000003B
:1030AA00E4900196F0A3F07411F0E49000A3F0907C
:1030BA000196F0900197E0FF900196E0FEC39F50C1
:1030CA0022EE75F072A42400FFE5F03440FE123FB0
:1030DA00EFEFF4600E9000A3E004F0900196E00494
:1030EA00F080D09000AC7409F07E007F067D007BF2
:1030FA00017A01791F1221CA7E007F017D007B01BE
:10310A007A0179371221CA7E007F727D007B017AAB
:10311A000079AD1221CA7E007F087D007B017A000A
:10312A0079A41221CA9000A47464F0A37432F00244
:02313A003DF066
:103713009000ACE0600414F080069000AC7409F0F3
:103723009000ACE0FE75F003A42427F582E4343D59
:10373300F583E493FFEE75F003A42428F582E434C3
:103743003DF583E493FD9000ACE075F003A42429D8
:0D375300F582E4343DF583E493FB0239B2C6
:1037FA009000ACE004F0E0C3940A4002E4F09000C8
:10380A00ACE0FE75F003A42427F582E4343DF58389
:10381A00E493FFEE75F003A42428F582E4343DF521
:10382A0083E493FD9000ACE075F003A42429F582AB
:0B383A00E4343DF583E493FB0239B257
:103CC100900137E0600414F080119000A3E06004DB
:103CD10014FF80027F00900137EFF0900137E0FF81
:033CE1000232BAF2
:103D4500900137E004F09000A3E0FF900137E0C355
:0D3D55009F4002E4F0900137E0FF0232BA17
:103B860090019D122175EDD39408400C7B007A00BC
:103B9600790090019D022175AF057E0090019D126E
:103BA6002155A801AC02AD037B017A0079AD121D47
:023BB600752276
:10000E009000AC7409F0900224E04408F09001379F
:05001E00E0FF0232BA10
:103DF000900224E054F7F0E4900131F0900135F0A6
:0B3E0000A3F0FBFAFDFCFFFE022BB755
:1034C00090019BEFF02401FFE433FE9000B6E0543E
:1034D0000FB50714E4B5061090019BF0E075F00DF0
:1034E000A424B7F97400800D90019BE075F00DA441
:1034F00024C4F9740035F0FA7B01782A7C017D013F
:103500007E007F0D121D7578387C017D017B017A6C
:0A3510000079AD7E007F0A021D75F0
:1032BA0090019DEFF0E490011FF0A312211B000082
:1032CA000000E4900124F09000A3E07009FBFAFDED
:1032DA00FCFFFE022BB79000A3E014FF90019DE0D3
:1032EA00FED39F9001374008EFF090019DF08002D5
:1032FA00EEF07B017A0079AD90019DE0FD12351A5E
:10330A00782A7C017D017B017A0079B77E007F0DE6
:10331A00121D7578387C017D017B017A0079AD7EBA
:07332A00007F0A121D75224D
:1039F60090019AEFF0E490011FF0A312211B000042
:103A060000009001247432F0900224E030E2169017
:103A16000125E004F0E0D394045002800DE4900107
:103A260025F0023D45E4900125F090019AE0FF1251
:033A360034C02277
:1039B20090019DEFF0A3EDF0A3EBF0123DF090012A
:1039C2009DE09000A6F0A3E4F090019EE09000A894
:1039D200F0A3E4F090019FE07F009000AAF0FAA328
:1039E200EFF0FB9000A6E0FEA3E0FFA3E0FCA3E063
:0439F200FD022BB7F0
:100C7A00900224E020E3030214BA900124E0600306
:100C8A0014F022900131E0700D900135E07002A35A
:100C9A00E070030214BA90012AE0540F24FC700396
:100CAA00021048147003021236240260030214BAB6
:100CBA009001201220F7EF2401FFE43EFEE43DFDFF
:100CCA00E43CFC90012012210F90012EE0FF9001DC
:100CDA002BE0FEC39F5064EEFDC3EF9DFFE494003A
:100CEA00FE123F4EEE3395E0FDFCC004C005C0067F
:100CFA00C007E4FF7E01FDFC900120122103121FB0
:100D0A00B6D003D002D001D000121FB6C006C00769
:100D1A00900132E0FEA3E0FBAA06E4F9F8D007D07E
:100D2A0006122041A804A905AA06AB0790012BE0E8
:100D3A007F00FEE4FCFD121F9B806890012BE0FF00
:100D4A0090012EE0C39FFFE49400FE123F4EEE3363
:100D5A0095E0FDFCC004C005C006C007E4FF7E01A3
:100D6A00FDFC900120122103121FB6D003D002D03D
:100D7A0001D000121FB6C006C007900132E0FEA3E0
:100D8A00E0FBAA06E4F9F8D007D006122041A8042D
:100D9A00A905AA06AB0790012BE07F00FEE4FCFD43
:100DAA00121FA890012612210F900134E0FFE4FCE3
:100DBA00FDFE900126122103121FB6E47B64FAF9A4
:100DCA00F812204190012612210F9001261220F7D5
:100DDA009000A6EEF0A3EFF090012FE0FF90012C17
:100DEA00E0FEC39F5064EEFDC3EF9DFFE49400FE56
:100DFA00123F4EEE3395E0FDFCC004C005C006C0AC
:100E0A0007E4FF7E01FDFC900120122103121FB6A8
:100E1A00D003D002D001D000121FB6C006C007907E
:100E2A000132E0FEA3E0FBAA06E4F9F8D007D006F7
:100E3A00122041A804A905AA06AB0790012CE07F5D
:100E4A0000FEE4FCFD121F9B806890012CE0FF90DD
:100E5A00012FE0C39FFFE49400FE123F4EEE33954C
:100E6A00E0FDFCC004C005C006C007E4FF7E01FD2A
:100E7A00FC900120122103121FB6D003D002D00128
:100E8A00D000121FB6C006C007900132E0FEA3E0F0
:100E9A00FBAA06E4F9F8D007D006122041A804A953
:100EAA0005AA06AB0790012CE07F00FEE4FCFD12C8
:100EBA001FA890012612210F900134E0FFE4FCFDE7
:100ECA00FE900126122103121FB6E47B64FAF9F898
:100EDA0012204190012612210F9001261220F7902C
:100EEA0000A8EEF0A3EFF0900130E0FF90012DE0B2
:100EFA00FEC39F5064EEFDC3EF9DFFE49400FE1213
:100F0A003F4EEE3395E0FDFCC004C005C006C007A5
:100F1A00E4FF7E01FDFC900120122103121FB6D0CE
:100F2A0003D002D001D000121FB6C006C00790013C
:100F3A0032E0FEA3E0FBAA06E4F9F8D007D00612D5
:100F4A002041A804A905AA06AB0790012DE07F005D
:100F5A00FEE4FCFD121F9B806890012DE0FF9001CA
:100F6A0030E0C39FFFE49400FE123F4EEE3395E05B
:100F7A00FDFCC004C005C006C007E4FF7E01FDFCFD
:100F8A00900120122103121FB6D003D002D001D043
:100F9A0000121FB6C006C007900132E0FEA3E0FBB4
:100FAA00AA06E4F9F8D007D006122041A804A90538
:100FBA00AA06AB0790012DE07F00FEE4FCFD121F9C
:100FCA00A890012612210F900134E0FFE4FCFDFEF7
:100FDA00900126122103121FB6E47B64FAF9F81273
:100FEA00204190012612210F9001261220F790002D
:100FFA00AAEEF0FAA3EFF0FB9000A6E0FEA3E0FF52
:10100A00A3E0FCA3E0FD122BB7900132E0FEA3E0BF
:10101A00FFE4FCFD900120122103C31220D34012E9
:10102A0090012012211B00000000900131E06002B3
:10103A0014F0900131E060030214BA0214AF900177
:10104A001FE07012A31220F7EF2401FFE43EFEE432
:10105A003DFDE43C80219001201220F7EC4D4E4FDB
:10106A00601C9001201220F7EF24FFFFEE34FFFEF0
:10107A00ED34FFFDEC34FFFC90012012210FE47FD8
:10108A00FFFEFDFC900120122103121FB6A804A93D
:10109A0005AA06AB0790012BE0FFE4FCFDFE121F38
:1010AA00B6C006C007900132E0FEA3E0FBAA06E440
:1010BA00F9F8D007D00612204190012612210F908C
:1010CA000134E0FFE4FCFDFE900126122103121F09
:1010DA00B6E47B64FAF9F812204190012612210F36
:1010EA009001261220F79000A6EEF0A3EFF0E47F1D
:1010FA00FFFEFDFC900120122103121FB6A804A9CD
:10110A0005AA06AB0790012CE0FFE4FCFDFE121FC6
:10111A00B6C006C007900132E0FEA3E0FBAA06E4CF
:10112A00F9F8D007D00612204190012612210F901B
:10113A000134E0FFE4FCFDFE900126122103121F98
:10114A00B6E47B64FAF9F812204190012612210FC5
:10115A009001261220F79000A8EEF0A3EFF0E47FAA
:10116A00FFFEFDFC900120122103121FB6A804A95C
:10117A0005AA06AB0790012DE0FFE4FCFDFE121F55
:10118A00B6C006C007900132E0FEA3E0FBAA06E45F
:10119A00F9F8D007D00612204190012612210F90AB
:1011AA000134E0FFE4FCFDFE900126122103121F28
:1011BA00B6E47B64FAF9F812204190012612210F55
:1011CA009001261220F79000AAEEF0FAA3EFF0FBA6
:1011DA009000A6E0FEA3E0FFA3E0FCA3E0FD122B33
:1011EA00B7900132E0FEA3E0FFE4FCFD900120127B
:1011FA002103C31220D35011E4FFFEFDFC9001200D
:10120A00122103C31220D3701790011FE070040447
:10121A00F0800DE490011FF0900131E0600214F0BB
:0C122A00900131E060030214BA0214AF1E
:1012360090019612211B000000FFE4FFFEFDFC90CA
:101246000120122103C31220D36003021330900140
:101256002BE0FFE4FCFDFE900196122103121FB65F
:10126600A804A905AA06AB07900134E0FFE4FCFD3B
:10127600FE121FB6E47B64FAF9F8122041900126AB
:1012860012210F9001261220F79000A6EEF0A3EF90
:10129600F090012CE0FFE4FCFDFE90019612210384
:1012A600121FB6A804A905AA06AB07900134E0FFF1
:1012B600E4FCFDFE121FB6E47B64FAF9F812204145
:1012C60090012612210F9001261220F79000A8EE19
:1012D600F0A3EFF090012DE0FFE4FCFDFE900196F7
:1012E600122103121FB6A804A905AA06AB0790018E
:1012F60034E0FFE4FCFDFE121FB6E47B64FAF9F865
:1013060012204190012612210F9001261220F790FB
:1013160000AAEEF0FAA3EFF0FB9000A6E0FEA3E031
:10132600FFA3E0FCA3E0FD122BB7900132E0FEA381
:10133600E0FFE4FCFD90012612210F900126122009
:10134600F7900120122103C31220D3600302143246
:1013560090012EE0FFE4FCFDFE900196122103129F
:101366001FB6A804A905AA06AB07900134E0FFE45E
:10137600FCFDFE121FB6E47B64FAF9F812204190D8
:10138600012612210F9001261220F79000A6EEF0FA
:10139600A3EFF090012FE0FFE4FCFDFE9001961212
:1013A6002103121FB6A804A905AA06AB07900134AB
:1013B600E0FFE4FCFDFE121FB6E47B64FAF9F812C6
:1013C600204190012612210F9001261220F790004D
:1013D600A8EEF0A3EFF0900130E0FFE4FCFDFE90F4
:1013E6000196122103121FB6A804A905AA06AB0787
:1013F600900134E0FFE4FCFDFE121FB6E47B64FAC4
:10140600F9F812204190012612210F900126122090
:10141600F79000AAEEF0FAA3EFF0FB9000A6E0FE2C
:10142600A3E0FFA3E0FCA3E0FD122BB7900120127E
:1014360020F7EF2401FFE43EFEE43DFDE43CFC9092
:10144600012012210F90012612211B00000000909E
:101456000132E0FEA3E0FFE4FCFD90012612210329
:10146600121F9BA804A905AA06AB07900135E0FE4A
:10147600A3E0FFE4FCFD121F9B90012612210F90B2
:1014860001261220F7900120122103C31220D34017
:101496001290012012211B00000000900131E06033
:1014A6000214F0900131E0700B90012AE0C4540F51
:0414B600FF1239F6F2
:0114BA00220F
:013FFF00229F
:0B351A0090019E1221759001A1EDF0C0
:10352500E4A3F0AF05EFC39411E49001A2F090017C
:10353500A2E0FDC3947250369001A1E075F072A42B
:103545002400FFE5F03440FE7C00EF2DFFEC3EFE4D
:1035550012000390019E1221559001A2E0F582759B
:0E3565008300EF121E149001A2E004F080C05B
:013573002235
:0A3F6500E42FFFEE3440FE02396D38
:0A3F6F00E42FFFEE3440FE02333170
:103ECD00E42FFFEE3440FE9001FAE0900200F00284
:023EDD002E3E77
:043FEF001200032297
:01400000229D
:01400100229C
:103E5700123E94123F8D123FE3123624123D071291
:053E67003D62D2AF2214
:043095004100A20054
:103D6200E49000A2F0FE7FA2FD7B017A00790012AE
:0D3D720021CA7F007E4B7D007C0002339E45
:0300230002392679
:10392600C0E0C083C082C0D075D000C007309827E1
:10393600C2989000A0E0FF04F074002FF582E434F2
:1039460000F583E599F09000A0E0C394A04002E45E
:10395600F09000A2E004F0309902C299D007D0D0CE
:07396600D082D083D0E032D3
:083099004101F3004101F400C4
:103D0700123D9C5389F0438901538EF79001F37458
:103D1700FAF0A374C4F0758CFAF58AD2A9D28C2272
:103D9C00E49001EAF09001ECF09001F0F0A3F090C7
:0C3DAC0001EBF09001EDF09001F2F0222C
:03000B0002313C83
:10313C00C0E0C0F0C083C082C0D075D000C000C059
:10314C00069001F3E0F58CA3E0F58A9001E9740197
:10315C00F0A3E004F0C3940A4005E4F0A304F0905B
:10316C0001ECE004F0C394644005E4F0A304F09097
:10317C0001EEE004F0C394F4748094814005E4F013
:10318C00A304F09001F0E475F001121ED3FEC3E528
:10319C00F094E8EE9403400A9001F0E4F0A3F0A35D
:1031AC0004F0D006D000D0D0D082D083D0F0D0E0C4
:0131BC0032E0
:103C55000A6D679C46F6375D4521EFAC5A50010B5E
:103C6500DF020A6D679C46F6375D4521EFAC5A5079
:043C7500E10BDF027E
:0830A100450201CCCCCCCCCCE3
:103E940053B3FE43B40153B3FD43B40253B1FE43E1
:033EA400B2012246
:01400200229B
:103D7F00E4FEC290EF30E704D2808002C280EF25CC
:0C3D8F00E0FFD290000EEEB408E8C290F5
:013D9B002205
:043EA700E4FD7FFCBB
:0F3EAB00C29100123D7FAF05123D7F00D29122E0
:0A3AB3007B019001AC7405F07F3F29
:063ABD009001A912217521
:103AC300C291E4FD123D7F9001ACE0FFEDC39F5036
:103AD300159001A91221558D82758300121DB4FF23
:083AE300123D7F0D80E1D2913C
:013AEB0022B8
:103CE400E4FEC290EF30E704D2808002C280EF2568
:103CF400E0FFD290000EEEB408E843B10153B2FEE7
:023D0400C2906B
:013D0600229A
:103E2600E4FFFEC290EF25E0FFD29030800344010C
:083E3600FF0EEEB408EDC2908E
:013E3E002261
:103EBA00C29100123CE4123E2653B1FE43B2010005
:023ECA00D29193
:013ECC0022D3
:063AEC0090019712217504
:103AF200C291123CE4E4FD90019AE0FFEDC39F50B5
:103B020015123E269001971221558D82758300EF82
:0E3B1200121E140D80E153B1FE43B201D29198
:013B20002282
:0E3F0C00123EA77D8E7F20123EAB00000022E9
:103C2F00E4FEFD7FFC123EAB7D8F7F20123EABE4A6
:103C3F00FD7FFD123EABE4FEFF000FBF00010EBE85
:053C4F0013F7BF88F42B
:013C5400224D
:0A3F79007F07123EBAEF5470FF22DA
:063FD7007F09123EBA2230
:073FB6007D707F27023EAB86
:0C3F4200E4FD7FE1123EAB7FE2023EABEB
:0E3F1A00AC07123EA7AF04AD077F25023EABF9
:063A3900123F79EF703826
:103A3F00900196F0A3F09001ACEDF07FA0123ABD8B
:103A4F00E4FD7FFD123EABE4900196F0A3F00090F1
:103A5F000196E475F001121ED3900196E07004A355
:083A6F00E064C870E9123EA7F3
:013A7700222C
:103BB800AC05123F79EF30E61D123EA790019AEC52
:103BC800F07F61123AEC123F42123FB6E4FD7FFDEE
:093BD800123EAB7F01227F0022A6
:1028870078967C017D017BFF7A3C79557E007F0538
:10289700121D75789B7C017D017BFF7A3C795A7EFE
:1028A700007F03121D75789E7C017D017BFF7A3CBA
:1028B700795D7E007F06121D7578A47C017D017B02
:1028C700FF7A3C79637E007F01121D7578A57C0134
:1028D7007D017BFF7A3C79647E007F03121D7512B0
:1028E70040027D5A7F53123EAB7DA57F53123EAB0C
:1028F7007D207F3D123EAB123EA77FE1123EAB7FAC
:10290700E2123EAB7D707F27123EAB7D017F221224
:102917003EAB7D037F23123EAB7D4E7F25123EAB40
:102927007D107F31123EAB7B017A0279019001ACB9
:102937007405F07F30123ABD7B017A02790190016C
:10294700AC7405F07F2A123ABD7A017996123AB330
:102957007B017A01799E9001AC7406F07F3A123AB6
:10296700BD7B017A0179A49001AC7401F07F391223
:102977003ABD7B017A01799B9001AC7403F07F3EED
:10298700123ABD7B017A0179A59001AC7403F07FFF
:102997003B123ABDE4FD7F3C123EAB7D3F7F2612E2
:0E29A7003EABE4FD7F24123EAB7F21023EAB2F
:052CA6009001C4EFF0F5
:102CAB00E478C57C017D017BFF7A3C7967FE7F056B
:102CBB00121D7578CA7C017D017BFF7A3C796C7E95
:102CCB00007F03121D7578CD7C017D017BFF7A3C63
:102CDB00796F7E007F06121D7578D37C017D017B99
:102CEB00FF7A3C79757E007F01121D7578D47C01CB
:102CFB007D017BFF7A3C79767E007F03121D757D0B
:102D0B005A7F53123EAB7DA57F53123EAB7D207F86
:102D1B003D123EAB123EA7E4FF000000000FEFB4E4
:102D2B00DCF79001C4E0FD7F25123EAB7D3F7F2693
:102D3B00123EAB7A0179C5123AB37B017A0179CD98
:102D4B009001AC7406F07F3A123ABD7B017A01799F
:102D5B00D39001AC7401F07F39123ABD7B017A013B
:102D6B0079CA9001AC7403F07F3E123ABD7B017AB5
:0E2D7B000179D49001AC7403F07F3B023ABDA5
:1036240053B1F743B20853B1EF43B21053B3FB4362
:10363400B40443DE01A2AF9209C2AF75C7AA75C72D
:103644005543910143C60875C7AA75C7555391FEE2
:10365400A20992AF43DE2053DF3F43DF0153DFF97A
:1036640075D1FF75D9FFD2DFE4FBFAFDFCFFFE0242
:023674002BB772
:103B2100AD07AC06A2AF9209C2AF75C7AA75C7555A
:103B3100439101A20992AFECF5C5EDF5CDA2AF928B
:103B410009C2AF75C7AA75C7555391FEA20992AFB5
:033B5100D2DE229F
:0D3F2800AD07AC06ECF5D5EDF5DDD2DE22DF
:0D3F3500AD07AC06ECF5D2EDF5DAD2DE22D8
:102BB7009001A0EEF0A3EFF0A3ECF0A3EDF0A3EAF1
:042BC700F0A3EBF09C
:102BCB00A312211B000000009001A0E0FEA3E0FF78
:102BDB00E4FCFD9001A612210F9001A61221039097
:102BEB0000A4E0FFE4FCFDFE121FB69001A612212B
:102BFB000F9001A61220F7E47B64FAF9F81220413A
:102C0B009001A612210F9001A61220F7123B2190E2
:102C1B0001A2E0FEA3E0FFE4FCFD9001A612210F50
:102C2B009001A61221039000A4E0FFE4FCFDFE122C
:102C3B001FB69001A612210F9001A61220F7E47B7C
:102C4B0064FAF9F81220419001A612210F9001A607
:102C5B001220F7123F289001A4E0FEA3E0FFE4FC52
:102C6B00FDA312210F9001A61221039000A4E0FFF7
:102C7B00E4FCFDFE121FB69001A612210F9001A6D7
:102C8B001220F7E47B64FAF9F81220419001A612A6
:0B2C9B00210F9001A61220F7023F3528
:103C79009000A4EFF0C3940A5003740AF09000A6D0
:103C8900E0FEA3E0FFA3E0FCA3E0FDA3E0FAA3E0CC
:043C9900FB022BB748
:093F8D0053B3EF43B410023FF6F8
:033FF300D2942243
:033FF600C2942250
:033FF900B294225D
:063FDD00A294E433FF2270
:0A3F8300EF6003023FF3123FF62245
:01400300229A
:10333100EFF5A6EEF5A7A2AF9209C2AF75C7AA75C0
:10334100C755439F01A20992AFA2AF9209C2AF75BF
:10335100C7AA75C75543A501A20992AF75AF21AFA1
:10336100058FAEA2AF9209C2AF75C7AA75C7554303
:10337100A401A20992AFA2AF9209C2AF75C7AA7503
:10338100C75553A5FEA20992AFA2AF9209C2AF756C
:0D339100C7AA75C755539FFEA20992AF222F
:10396D008FA6EEF5A775AEFFA2AF9209C2AF75C7D0
:10397D00AA75C755439F01A20992AFA2AF9209C282
:10398D00AF75C7AA75C75543A501A20992AF75AF0B
:10399D0022A2AF9209C2AF75C7AA75C75543A4013C
:0539AD00A20992AF2207
:0C2E3E009001FBEEF0A3EFF0A312217551
:102E4A009001FBE0FEA3E0F5A6EEF5A7A2AF92097A
:102E5A00C2AF75C7AA75C755439F01A20992AFA20F
:102E6A00AF9209C2AF75C7AA75C75543A501A20992
:102E7A0092AF75AF21E4FEFF900200E0FDC3EF9D23
:102E8A00EE940050299001FD1221558F828E8312F3
:102E9A001DB4F5AEA2AF9209C2AF75C7AA75C755E0
:102EAA0043A401A20992AF0FBF00010E80CAA2AFCC
:102EBA009209C2AF75C7AA75C75553A5FEA2099252
:102ECA00AFA2AF9209C2AF75C7AA75C755539FFE85
:042EDA00A20992AF08
:012EDE0022D1
:040003008F828E83D7
:03000700E493FF80
:01000A0022D3
:073FBD00A2B0B3E433FF22C0
:073FC400A297B3E433FF22D2
:063FE3001235CD023EDFA5
:103E80007843E62438F8A607784306E6C3940A4048
:043E900002E4F62230
:103DB8007842E6FE08667002FF2274382EF8E6FFA5
:0B3DC800784206E6C3940A4002E4F6CD
:013DD30022CD
:103DD4007844E6FE18667002FF2274382EF8E6FF77
:0B3DE400784406E6C3940A4002E4F6AF
:013DEF0022B1
:0B3F5A00EF75F00BA4242AF8E6FF220C
:103C9D00EF75F00BA42428F8A60408A605AE03EFD3
:103CAD0075F00BA4242BF8A606EF75F00BA4242CAD
:043CBD00F8E4F6220F
:063FE9007843E618F62201
:103EDF0053ACFE53ADFE53B37F53B37FD2B0D297E3
:013EEF0022B0
:1035CD00E47842F608F608F6FFEF75F00BA4242810
:1035DD00F87600087664EF75F00BA42425F87602D2
:1035ED00EF75F00BA4242AF8E4F6EF75F00BA42484
:1035FD002BF8E4F6EF75F00BA4242CF8E4F60FEF9E
:10360D00B402C67BFF7A3F79BD782212214C7A3FF6
:07361D0079C4782D02214C55
:10274A00900197EFF0E075F00BA42422F9E4FAFB6C
:10275A0090022512217512217E1221C4EF70030204
:10276A002829900225122155900003121DB4FFC397
:10277A00940550089000037405022883EFC3940A55
:10278A0050089000037401021DE1900008121DB464
:10279A00701490000804121E14900197E075F0035B
:1027AA00A404FF123E8090022512215590000612C1
:1027BA001EE9FFAEF0D39400EE940050030228867F
:1027CA00900004121EE9C39FE5F09E502390000476
:1027DA00E475F001121F21FCE5F06F7002EC6E60E7
:1027EA0003022886900197E075F003A42403802B46
:1027FA00900009121DB4FFD394005003022886905A
:10280A00000A7401121DE1C39F407190000AE4128C
:10281A001E14900197E075F003A404FF023E809015
:10282A000225122155900003121DB4FFD3940540CE
:10283A000A9000037405121E14802BEF600A9000A0
:10284A000374FF121DE1801E900008121DB4B4012A
:10285A0015900008E4121E14900197E075F003A485
:10286A002402FF123E80900225122155900004E4B2
:0D287A00F5F0121F6E90000AE4121E1422E9
:103E0B00E4900196F0900196E0FFC39402500B12E0
:0A3E1B00274A900196E004F080EBC6
:013E2500227A
:103A780053B1BF53B2BF53B17F53B27F7598504310
:103A88008920438780438E1053C4DFAB07AA06A959
:103A980005A8047F407E427D0F7C00122041EF0480
:0B3AA800F404F58DD28ED299D2AC222E
:10339E0090019612210F53B1BF53B2BF53B17F5359
:1033AE00B27F75985043878053C4F843C420900170
:1033BE00961221037F407E427D0F7C00122041C376
:1033CE0074FF9FFF74FF9EFEE49DFDE49CFC780855
:1033DE001220E48FC69001961221037F407E427D1B
:1033EE000F7C00122041C374FF9FFF8FC543C4089A
:0533FE00D299D2AC22BF
:073F96003098FDAF99C298BD
:013F9D002201
:083F9E00C2998F993099FD22B0
:1034620090020612210F53B1FB53B2FB53B3BF5369
:10347200B4BF75F85075C40853C4DF900206122118
:10348200037F407E427D0F7C00122041C374FF9F68
:10349200FF74FF9EFEE49DFDE49CFC78081220E48C
:1034A2008FC69002061221037F407E427D0F7C0070
:0E34B200122041C374FF9FFF8FC543C4082240
:073FA60030F8FDAF9AC2F8EC
:013FAD0022F1
:083FAE00C2F98F9A30F9FD22DF
:1038450090020A12210F538EF7438901D28CE4FFAF
:10385500FEFDFC90020A122103C31220D3602975D4
:103865008A7E758CFF308DFDC28D90020A1220F77D
:10387500EF24FFFFEE34FFFEED34FFFDEC34FFFCDB
:0B38850090020A12210F80C6C28C22A4
:1038900090020E12210F538EF7438901D28CE4FF60
:1038A000FEFDFC90020E122103C31220D360297585
:1038B0008ACA758CFA308DFDC28D90020E1220F7E7
:1038C000EF24FFFFEE34FFFEED34FFFDEC34FFFC90
:0B38D00090020E12210F80C6C28C2255
:1038DB0090021212210F538EEF438910D28EE4FF08
:1038EB00FEFDFC900212122103C31220D360297536
:1038FB008BEA758DCB308FFDC28F9002121220F7A1
:10390B00EF24FFFFEE34FFFEED34FFFDEC34FFFC44
:0B391B0090021212210F80C6C28E2203
:1036C50090021612210F53C9BF53C9DF43C910D247
:1036D500CAE4FFFEFDFC900216122103C31220D39B
:1036E500602975CC3075CDF830CFFDC2CF9002166C
:1036F5001220F7EF24FFFFEE34FFFEED34FFFDEC63
:0E37050034FFFC90021612210F80C6C2CA22A9
:1037600090021A12210F75C40743C408E4FFFEFD3E
:10377000FC90021A122103C31220D3602C75C52CB1
:1037800075C6CFE5C430E4FB53C4EF90021A122093
:10379000F7EF24FFFFEE34FFFEED34FFFDEC34FFC6
:0D37A000FC90021A12210F80C353C4F722BF
:1037AD0090021E12210F75C40743C408E4FFFEFDED
:1037BD00FC90021E122103C31220D3602C75C5D8B4
:1037CD0075C6FFE5C430E4FB53C4EF90021E122012
:1037DD00F7EF24FFFFEE34FFFEED34FFFDEC34FF79
:0D37ED00FC90021E12210F80C353C4F7226E
:1029B5000A3D3D3D3D3D3D3D3D3D3D3D3D3D3D3D75
:1029C5003D3D3D3D3D3D3D3D3D3D3D3D3D3D3D3D32
:1029D5003D3D3D3D3D3D3D3D3D3D3D3D3D3D3D3D22
:1029E5003D3D3D3D3D3D3D3D3D3D3D3D3D3D3D3D12
:1029F5003D3D3D3D3D000A2A2020436F70797269B7
:102A05006768742863292032303135204E75766F1A
:102A1500746F6E20546563686E6F6C6F67792043C1
:102A25006F72702E20416C6C207269676874732018
:102A350072657365727665642E2020000A2A20204F
:102A4500436F6E7461637420452D4D61696C3A2046
:102A55004D6963726F432D38626974406E75766F88
:102A6500746F6E2E636F6D20202020202020202083
:102A75002020202020202020202020202020202051
:102A850020000A2A202044656D6F205665727369FF
:102A95006F6E20203A202532642E2532642E253291
:102AA50064000A2A202046696E69736865642044BB
:102AB500617465203A202532642E2532642E253234
:022AC5006400AB
:103403007BFF7A2979B51222917BFF7A2979FB1206
:1034130022917BFF7A2A79411222917BFF7A2A79C2
:103423008790016EE4F0A304F0E4A3F0A3F0A3F00B
:10343300A3F01222917BFF7A2A79A790016E740779
:10344300F0A374DFF0A3E4F0A37405F0A3E4F0A306
:0F345300741FF01222917BFF7A2979B502229122
:03000000022F7B51
:102F7B00787FE4F6D8FD9000007FFF7E03E4F0A39A
:0A2F8B00DFFCDEFA758144022FD04E
:102F950002258BE493A3F8E493A34003F68001F2A2
:102FA50008DFF48029E493A3F85407240CC8C3333D
:102FB500C4540F4420C8834004F456800146F6DF0C
:102FC500E4800B0102040810204080903015E47E57
:102FD500019360BCA3FF543F30E509541FFEE49301
:102FE500A360010ECF54C025E060A840B8E493A3C8
:102FF500FAE493A3F8E493A3C8C582C8CAC583CAF3
:10300500F0A3C8C582C8CAC583CADFE9DEE780BEAA
:0130A9000026
:101CA500E709F608DFFA8046E709F208DFFA803E21
:101CB50088828C83E709F0A3DFFA8032E309F6080E
:101CC500DFFA8078E309F208DFFA807088828C8376
:101CD500E309F0A3DFFA806489828A83E0A3F6082A
:101CE500DFFA805889828A83E0A3F208DFFA804C04
:101CF50080D280FA80C680D4806980F280338010DB
:101D050080A680EA809A80A880DA80E280CA803343
:101D150089828A83ECFAE493A3C8C582C8CCC583BB
:101D2500CCF0A3C8C582C8CCC583CCDFE9DEE7808B
:101D35000D89828A83E493A3F608DFF9ECFAA9F00A
:101D4500EDFB2289828A83ECFAE0A3C8C582C8CC60
:101D5500C583CCF0A3C8C582C8CCC583CCDFEADE79
:101D6500E880DB89828A83E493A3F208DFF980CCDB
:101D750088F0EF60010E4E60C388F0ED2402B404D4
:101D85000050B9F582EB2402B4040050AF2323457B
:061D95008223901CF5738F
:101D9B00BB010689828A83E0225002E722BBFE0246
:091DAB00E32289828A83E4932279
:101DB400BB010CE58229F582E5833AF583E02250E4
:101DC40006E92582F8E622BBFE06E92582F8E2222E
:0D1DD400E58229F582E5833AF583E4932248
:101DE100BB010FF8E58229F582E5833AF583E02806
:101DF100F0225009C58229F8E58226F622BBFE09A8
:101E0100C58229F8E22582F222F8EA2583F583E9E1
:031E1100932822F1
:101E1400F8BB010DE58229F582E5833AF583E8F004
:101E2400225006E92582C8F622BBFE05E92582C8B0
:021E3400F22298
:101E3600EF8DF0A4A8F0CF8CF0A428CE8DF0A42EC0
:021E4600FE227A
:101E4800BC000BBE0029EF8DF084FFADF022E4CC7E
:101E5800F875F008EF2FFFEE33FEEC33FCEE9DEC47
:101E6800984005FCEE9DFE0FD5F0E9E4CEFD22ED8D
:101E7800F8F5F0EE8420D21CFEADF075F008EF2FD7
:101E8800FFED33FD4007985006D5F0F222C398FDC8
:051E98000FD5F0EA2265
:101E9D00C2D5EC30E709B2D5E4C39DFDE49CFCEE60
:101EAD0030E715B2D5E4C39FFFE49EFE121E48C372
:101EBD00E49DFDE49CFC8003121E4830D507C3E46D
:061ECD009FFFE49EFE22CF
:101ED300C5F0F8A3E028F0C5F0F8E582158270029A
:061EE3001583E038F02237
:101EE900BB0110E58229F582E5833AF583E0F5F037
:101EF900A3E0225009E92582F886F008E622BBFE14
:101F09000AE92582F8E2F5F008E222E5832AF58359
:081F1900E993F5F0A3E993221E
:101F2100BB010DC58229C582C5833AC583021ED373
:101F31005011C58229F808E5F026F618F5F0E5827A
:101F410036F622BBFE11C58229F808E225F0F5F02C
:101F5100F218E23582F222F8E58229F582E5832A38
:0D1F6100F58374019325F0F5F0E493382228
:101F6E00F8BB0111E58229F582E5833AF583E8F0A5
:101F7E00E5F0A3F0225009E92582C8F608A6F02262
:0D1F8E00BBFE09E92582C8F2E5F008F22249
:0D1F9B00EF2BFFEE3AFEED39FDEC38FC2295
:0E1FA800C3EF9BFFEE9AFEED99FDEC98FC2234
:101FB600E88FF0A4CC8BF0A42CFCE98EF0A42CFCCA
:101FC6008AF0EDA42CFCEA8EF0A4CDA8F08BF0A448
:101FD6002DCC3825F0FDE98FF0A42CCD35F0FCEBA7
:101FE6008EF0A4FEA9F0EB8FF0A4CFC5F02ECD396C
:0F1FF600FEE43CFCEAA42DCE35F0FDE43CFC22D9
:1020050075F008758200EF2FFFEE33FECD33CDCC92
:1020150033CCC58233C5829BED9AEC99E582984015
:102025000CF582EE9BFEED9AFDEC99FC0FD5F0D6F2
:10203500E4CEFBE4CDFAE4CCF9A88222B800C1B91C
:102045000059BA002DEC8BF084CFCECDFCE5F0CB5A
:10205500F97818EF2FFFEE33FEED33FDEC33FCEB93
:1020650033FB10D703994004EB99FB0FD8E5E4F94E
:10207500FA227818EF2FFFEE33FEED33FDEC33FC3B
:10208500C933C910D7059BE99A4007EC9BFCE99A2F
:10209500F90FD8E0E4C9FAE4CCFB2275F010EF2F74
:1020A500FFEE33FEED33FDCC33CCC833C810D70774
:1020B5009BEC9AE899400AED9BFDEC9AFCE899F8AF
:0E20C5000FD5F0DAE4CDFBE4CCFAE4C8F92242
:1020D300EB9FF5F0EA9E42F0E99D42F0E89C45F063
:0120E30022DA
:1020E400E8600FECC313FCED13FDEE13FEEF13FFDA
:0320F400D8F122FE
:0C20F700E0FCA3E0FDA3E0FEA3E0FF225C
:0C210300E0F8A3E0F9A3E0FAA3E0FB225F
:0C210F00ECF0A3EDF0A3EEF0A3EFF02243
:10211B00A8828583F0D083D0821221321221321211
:10212B002132122132E473E493A3C583C5F0C58336
:10213B00C8C582C8F0A3C583C5F0C583C8C582C80E
:01214B002271
:09214C00EBF608EAF608E9F622B8
:09215500E0FBA3E0FAA3E0F9228B
:10215E00F8E0FBA3A3E0F925F0F0E582158270020A
:07216E001583E0FA38F022AE
:09217500EBF0A3EAF0A3E9F0226B
:10217E00BB010789828A830221555005E9F80222A4
:10218E0008BBFE05E9F802221189828A8302221A0F
:10219E00D083D082F8E4937012740193700DA3A3D0
:1021AE0093F8740193F5828883E4737402936860E4
:0621BE00EFA3A3A380DFE4
:0621C4008A838982E473A6
:10222600E508246EF582E43401F583E00508229082
:10223600016B30070390016EE475F00112215E0216
:102246001D9B2000E97F2ED2008018EF540F2490AA
:10225600D43440D4FF30040BEF24BFB41A0050032B
:102266002461FFE50960021509050CE50C700205FD
:102276000B30070E90016BE475F00112215EEF0240
:1022860021F6023C087403D2078003E4C207F5086E
:1022960090016B122175E4F509F50BF50CE5096063
:1022A600077F2012226980F5750AFFC201C200C2AB
:1022B60002C203C205C206C208122235FF700D30E3
:1022C60007057F0012227AAF0CAE0B22B4255FC23F
:1022D600D5C204122235FF24D0B40A00501A75F074
:1022E6000A780930D50508B6FF0106C6A426F620E9
:1022F600D5047002D20380D924CFB41A00EF50045B
:10230600C2E5D20402247BD20180C6D20080C0D2AC
:102316000280BCD2D580BAD20580B47F2012226951
:102326002002077401B5090040F1122226FF12228D
:10233600690222A3D208D2068095122226FB122217
:1023460026FA122226F94A4B7006794C7A257BFF2B
:1023560020022EE509602A7E008E82758300121DFA
:10236600B460060EEE650A70F0C2D5EBC0E0EAC0B6
:10237600E0E9C0E0EE1224C2D0E0F9D0E0FAD0E005
:10238600FB121D9BFF60AAEBC0E0EAC0E0E9C0E0DB
:10239600122269D0E02401F9D0E03400FAD0E0FB43
:1023A600E50A0460DCD50AD980877BFF7A2479BEEA
:1023B600D202809C791080027908C206C208800881
:1023C600D2D5790A8004790AC2D5E50A047002F5E5
:1023D6000AE4FAFDFEFF122226FC7B0820011312F6
:1023E6002226FD7B1030000A122226FE122226FF2C
:1023F6007B20EC3382D592D55013C3E43000069F80
:10240600FFE49EFEE42001039DFDE49CFCE4CBF882
:10241600C201EC700CCFCECDCCE824F8F870F38076
:1024260017C3EF33FFEE33FEED33FDEC33FCEB3336
:10243600FB994002FB0FD8E9EB300105F8D0E0C468
:1024460048B201C0E00AEC4D4E4F78207B0070C2C6
:10245600EAB50A0040BCC0E01224C4D0F0D0E020A7
:102466000104C4C0E0C4B201C0F0122252D0F0D5BB
:10247600F0EB0222A312219E23405323BA582311C4
:102486004C230D4223BE4F23C64423C6492326436D
:0824960023CC5523B04623B00E
:10249E004523B047256C5023152D23192E233C2B95
:1024AE00231D23233A2025552A22D5480000233404
:1024BE003F3F3F00790AA2D5200314300509B91019
:1024CE00020404B9080104A2D5200602500104201A
:1024DE0002689202B509005034C0E07F2030031923
:1024EE007F30A20272067205500F12251BC202C265
:1024FE0006C205C2087F30800F300503E9C0E01226
:10250E002269300503D0E0F9D0E0B509CC300517CB
:10251E007F30B9100C1222697F583004077F788003
:10252E0003B908031222693002057F2D0222697F4A
:10253E00202008F87F2B2006F322920280CF286EEF
:10254E00756C6C2900D2011222263001F8C2017876
:10255E000930D50108F60222D52D504349581222D2
:10256E00262403B405004001E49025679312225AF5
:0D257E00743A12225AD2037509040223BADE
:0C3F4E00EE30E707C3E49FFFE49EFE2274
:1021CA00EF4E6012EF60010EEDBB010B89828A832C
:1021DA00F0A3DFFCDEFA2289F05007F709DFFCA939
:0C21EA00F022BBFEFCF309DFFCA9F02290
:1021F600BB010689828A83F0225002F722BBFE01C8
:02220600F322C1
:09220800E6FB08E6FA08E6F922FB
:09221100E2FB08E2FA08E2F922FE
:0C221A00E493FB740193FA740293F92220
:103C0800EFB40A07740D123C13740A309811A8997E
:103C1800B8130CC2983098FDA899C298B811F6301C
:073C280099FDC299F59922F4
:00000001FF
