:0415CD004100CD000C
:101B2800121D1F121B7D121DEC121DAD12002690F6
:101B3800009BE06002E4F090009DE06005E4F01294
:0C1B480019789000A0E060E4E4F080E078
:071DEC009000CA7442F022CE
:0100220022BB
:011E0F0022B0
:011E100022AF
:0C1D8900900094EBF0A3EAF0A3E9F02234
:0C1D9500900097EBF0A3EAF0A3E9F02225
:101D3100900094A3E0FAA3E0F94A6003120732226B
:101D4100900097A3E0FAA3E0F94A60031207322258
:101AC700EF4E602D90008AEEF0A3EFF0AF05A3EC88
:101AD700F0A3EFF0AF03A3EAF0A3EFF0E4A3F0A3C2
:101AE700F0A3F0A3F0900089F090008804F0121D95
:021AF70031229A
:10000E00E4900088F0121D417B007A007900121DE9
:04001E0089021D95A1
:10123600900088E070030212EA90008CE0FEA3E0C2
:10124600FF4E70030212EA900089E07035D3EF94E6
:1012560000EE940050030212EA900090E475F0014B
:10126600120608FED390008BE095F090008AE09E6F
:101276005072121D41E4900090F0A3F09000890492
:10128600F022900089E06401705A90009075F00198
:10129600120608FED390008DE095F090008CE09E3B
:1012A600504290008EE0FEA3E0FF9400EE940040D2
:1012B60025900092E475F001120608FCD3EF95F034
:1012C600EE9C5005E4900088F0900088E07007904E
:1012D600008CF0A3F022E4900090F0A3F090008937
:0512E600F0121D312291
:1015D1004100390050003A00000000000000000006
:1015E1000000000000000050002900000000000081
:1015F1000000000000000000000041004A0041001E
:021601002800BF
:101B7D00E4900039F0FE7F10FD7B017A00793A1276
:101B8D0007387E007F107D007B017A0079291207CE
:071B9D0038120E19021BCBE8
:0E140E00900052EBF0A3EAF0A3E9F0A3EDF09A
:10141C00E4FF000000000FEFB478F7121D6090009D
:10142C00397401F0E4FF000000000FEFB478F7907E
:10143C000052E0FBA3E0FAA3E0F974019000296BE1
:10144C007008E965827003EA6583602A7E007F106C
:10145C007D007B017A007929120738900055E0FF56
:10146C007E0078297C007D01900052E0FBA3E0FA1D
:06147C00A3E0F912054493
:011482002247
:0B0B760090004BEBF0A3EAF0A3E9F0C5
:100B8100E4A3F0A3F0A3F0A3F012056A64F26003FA
:100B9100020E1890004BE0FBA3E0FAA3E0F99000ED
:100BA10001120583D394104003020E18E490004F04
:100BB100F090004BE0FBA3E0FAA3E0F990000112F2
:100BC10005832401FFE433FE90004FE0FDC39FEE57
:100BD1006480F8748098501DED2401FFE433FE8F8A
:100BE100828E83120583FF900051E02FF090004F19
:100BF100E004F080BC90004BE0FBA3E0FAA3E0F935
:100C0100900001120583F582758300A3A312058369
:100C1100FF900051E06F6003020E187E007F107D8F
:100C2100007B017A007929120738E4900050F09096
:100C3100004BE0FBA3E0FAA3E0F990000212058368
:100C4100244FB409004003020E05900C5975F003BE
:100C5100A4C58325F0C58373020C74020DE6020D51
:100C610094020DA3020DC8020C8B020DD7020DF5E3
:100C7100020DB290004E7403F07B017A00794E9020
:100C810000567401F07F31020E0290004BE0FBA38D
:100C9100E0FAA3E0F9900003120583B40105121EE6
:100CA10006803090004BE0FBA3E0FAA3E0F990004E
:100CB10003120583B40205121E09801790004BE050
:100CC100FBA3E0FAA3E0F9900003120583B4030348
:100CD100121E0C900050E0FF04F074292FF582E4FD
:100CE1003400F58374F8F0900050E0FF04F07429AB
:100CF1002FF582E43400F5837402F090004BE0FBA1
:100D0100A3E0FAA3E0F9900002120583FF900050DE
:100D1100E0FE04F074292EF582E43400F583EFF04F
:100D2100121E00EF9000506013E0FF04F074292FB1
:100D3100F582E43400F5837401F08011E0FF04F0E2
:100D410074292FF582E43400F5837402F0E49000F5
:100D51004FF090002AE02401FFE433FE90004FE0C1
:100D6100FDC39FEE6480F87480984003020E057401
:100D71002A2DF582E43400F583E0FF900050E02451
:100D810029F582E43400F583E02FF090004FE00470
:100D9100F080BF7B007A007900E4900056F07F3448
:100DA100805F7B007A007900E4900056F07F358007
:100DB1005090004E7403F07B017A00794E900056FA
:100DC1007401F07F32803A7B007A007900E4900070
:100DD10056F07F36802B7B007A007900E490005634
:100DE100F07F37801C7B007A007900E4900056F098
:100DF1007F38800D7B007A007900E4900056F07F07
:100E010039121059900050E0600D04F07B017A0016
:070E11007929E0FD12140E27
:010E180022B7
:10197800900039E06031121DB7EF24F0601824D0D0
:10198800601224207016121DA1121DF3E490003974
:10199800F0021BCB8000121DA1021DF37B017A000F
:1019A80079297D10021A0A7B017A00793A7D101292
:0F19B8001B54EF60097B017A00793A120B7622FB
:011E110022AE
:101603004100620041006300410064005000650036
:0F161300000000000000000000000000000000C8
:0A1DAD00E4900062F0A3F0A3F0221E
:10105900900053EBF0A3EAF0A3E9F0E4900062F00A
:10106900E0FE04F074652EF582E43400F5837455CE
:10107900F0900062E0FE04F074652EF582E434001D
:10108900F58374AAF0900056E004FE900062E0FD3A
:1010990004F074652DF582E43400F583EEF09000D8
:1010A90062E0FE04F074652EF582E43400F583EF06
:1010B900F0E4900064F0900056E0FF900064E0FED8
:1010C900C39F502F900053E0FBA3E0FAA3E0F98EF1
:1010D90082758300120583FE900062E0FD04F074BE
:1010E900652DF582E43400F583EEF0900064E004A8
:1010F900F080C37B017A007965EF2404FD1216356F
:10110900900062E0FE04F074652EF582E43400F587
:1011190083EFF0E4900064F0900056E02405FFE4CA
:1011290033FE900064E0FDC39FEE6480F8748098FC
:10113900501774652DF582E43400F583E0FF121D24
:0A114900D4900064E004F080CF228F
:10002600200A03020473C20A7862E62440FF08E647
:10003600FEC3EF9E543FD39404500302047374220C
:100046002EF8E66455600302046AEE04543F242247
:10005600F8E664AA600302046A7863E6FF240254A1
:100066003F2422F8E6900063F0FB7862E62440FD28
:10007600E433FCC3ED9FFFEC9400FE7C007D401250
:1000860005D2EB2404FFE433FEC3ED9FEE6480F853
:10009600EC648098500302046D7863E6FF2422F92D
:1000A600E4FAFBE02403FD90004FEFF0A37440F068
:1000B600121385900063E07863262403543F2422BC
:1000C600F8E66F600302046AE4900062F0FE7F10B7
:1000D600FD7B017A0079291207387863E6FF24034D
:1000E600543F2422F8E624C970030201A9147003C0
:1000F60002030B14700302024E2403600302045E23
:10010600900062E0FE04F074292EF582E43400F5D6
:100116008374F8F0900063E0FE900062E0FD04F066
:1001260074292DF582E43400F583EEF0900062E048
:10013600FE04F074292EF582E43400F58374B5F0DC
:10014600EF2404543F2422F8E6FF900062E0FE0408
:10015600F074292EF582E43400F583EFF0E4900084
:1001660064F090002AE02401FFE433FE900064E08E
:10017600FDC39FEE6480F87480985024742A2DF590
:1001860082E43400F583E0FF900062E02429F582E2
:10019600E43400F583E02FF0900064E004F080C2C0
:1001A60002044D900062E0FF04F074292FF582E40A
:1001B6003400F58374F8F0900063E0FF900062E08D
:1001C600FE04F074292EF582E43400F583EFF090F6
:1001D6000062E0FF04F074292FF582E43400F58311
:1001E60074B7F07863E62404543F2422F8E6FF90BF
:1001F6000062E0FE04F074292EF582E43400F583F3
:10020600EFF0E4900064F090002AE02401FFE4336C
:10021600FE900064E0FDC39FEE6480F87480985001
:1002260024742A2DF582E43400F583E0FF90006201
:10023600E02429F582E43400F583E02FF090006491
:10024600E004F080C202044D900062E0FF04F07406
:10025600292FF582E43400F58374F8F0900063E00A
:10026600FF900062E0FE04F074292EF582E434006B
:10027600F583EFF0900062E0FF04F074292FF58219
:10028600E43400F58374B8F07863E6FF2404543F41
:100296002422F8E6FE900062E0FD04F074292DF5B4
:1002A60082E43400F583EEF024FE601014600F142F
:1002B60060132403600302045EEF80058007786301
:1002C600E6240580237863E6FF2405543F2422F8BC
:1002D600E6FE900062E0FD04F074292DF582E43418
:1002E60000F583EEF0EF2406543F2422F8E6FF9053
:1002F6000062E0FE04F074292EF582E43400F583F2
:10030600EFF002045E900062E0FF04F074292FF51E
:1003160082E43400F58374F8F0900063E0FF900007
:1003260062E0FE04F074292EF582E43400F583EFD2
:10033600F0900062E0FF04F074292FF582E43400A7
:10034600F58374B2F07863E6FF2404543F2422F860
:10035600E6FE900062E0FD04F074292DF582E43497
:1003660000F583EEF024FE60101460331460372429
:1003760003600302040AEF80297863E6FF2405542C
:100386003F2422F8E6FE900062E0FD04F074292D79
:10039600F582E43400F583EEF064017067802B7813
:1003A60063E6240580447863E6FF2405543F24224F
:1003B600F8E6FE900062E0FD04F074292DF582E473
:1003C6003400F583EEF06401703AEF2406543F24BE
:1003D60022F8E6FE900062E0FD04F074292DF58215
:1003E600E43400F583EEF0EF2407543F2422F8E6C8
:1003F600FF900062E0FE04F074292EF582E43400DA
:10040600F583EFF0E4900064F090002AE02401FF09
:10041600E433FE900064E0FDC39FEE6480F87480D0
:10042600985024742A2DF582E43400F583E0FF9079
:100436000062E02429F582E43400F583E02FF09091
:100446000064E004F080C2900062E004F07B017A70
:10045600007929E0FD12140E900063E0240478630D
:0E04660026F680037863067863E6543FF6229C
:10163500900057EBF0A3EAF0A3E9F0AE05E49000C3
:10164500CBF0AF061EEF60469000CBE0FF90005751
:10165500E0FBA3E475F00112061EA9F0FA12056A73
:101665006F9000CBF0E4A3F09000CCE0C394085059
:10167500D19000CBE030E007C313648CF080079075
:1016850000CBE0C313F09000CCE004F080DA9000CA
:04169500CBE0FF2285
:1013850090004BEBF0A3EAF0A3E9F0AE05E4900082
:10139500CBF0AF061EEF606B9000CBE0FF90004BEB
:1013A500E0FBA3E475F00112061EA9F0FA12056A26
:1013B5006F9000CBF090004FE004F0A3E0FF9000A9
:1013C5004FE0C39F4012E4F0EFFDE49DFDE494007F
:1013D50090004C8DF0120608E49000CCF09000CC03
:1013E500E0C3940850AC9000CBE030E007C3136431
:1013F5008CF080079000CBE0C313F09000CCE004A4
:09140500F080DA9000CBE0FF2238
:101D1F00121CE6121DCB121699121C38121D7CD202
:021D2F00AF22E1
:02162200C10AFB
:0D1D7C00C20A7F807E257D007C00021A8C4B
:03002300021AF9C5
:101AF900C0E0C0D075D000C000309817C298786295
:101B0900E6062422F8A6997862E6C3944040027654
:0F1B190000D20A309902C299D000D0D0D0E03269
:081624004100A1004100A200F9
:101C3800121C755389F0438901538EF79000A174E3
:101C4800FAF0A374C4F0758CFAF58AD2A9D28C2262
:101C7500E490009AF090009CF090009EF0A3F09004
:0C1C8500009BF090009DF09000A0F02269
:03000B0002156477
:10156400C0E0C0F0C083C082C0D075D000C000C04D
:10157400069000A1E0F58CA3E0F58A90009AE004BF
:10158400F0C3940A4005E4F0A304F090009CE00446
:10159400F0C394644005E4F0A304F090009EE47565
:1015A400F001120608FEC3E5F094E8EE9403400A45
:1015B40090009EE4F0A3F0A304F0D006D000D0D0B5
:0915C400D082D083D0F0D0E032D7
:101BF1000A6D679C46F6375D4521EFAC5A50010BE3
:101C0100DF020A6D679C46F6375D4521EFAC5A50FD
:041C1100E10BDF0202
:08162C004500A3CCCCCCCCCCD2
:101CE60053B3FE43B40153B3FD43B40253B1FE43B1
:031CF600B2012216
:011E120022AD
:101C5800E4FEC290EF30E704D2808002C280EF2514
:0C1C6800E0FFD290000EEEB408E8C2903D
:011C7400224D
:041CF900E4FD7FFC8B
:0F1CFD00C29100121C58AF05121C5800D2912240
:0A19C7007B019000617405F07F3F82
:0B19D10090005EEBF0A3EAF0A3E9F049
:1019DC00C291E4FD121C58900061E0FFEDC39F50D2
:1019EC001A90005EE0FBA3E0FAA3E0F98D82758308
:0D19FC0000120583FF121C580D80DCD291F3
:011A090022BA
:101C1500E4FEC290EF30E704D2808002C280EF2557
:101C2500E0FFD290000EEEB408E843B10153B2FED6
:021C3500C2905B
:011C3700228A
:101C9100E4FFFEC290EF25E0FFD2903080034401C3
:081CA100FF0EEEB408EDC29045
:011CA9002218
:101D0C00C29100121C15121C9153B1FE43B201007A
:021D1C00D29162
:011D1E0022A2
:0B1A4D0090004CEBF0A3EAF0A3E9F0DE
:101A5800C291121C15E4FD90004FE0FFEDC39F50AA
:101A68001A121C9190004CE0FBA3E0FAA3E0F98D58
:101A780082758300EF1205B00D80DC53B1FE43B2CE
:031A880001D291F7
:011A8B002238
:0E1D6000121CF97D8E7F20121CFD0000002257
:101BCB00E4FEFD7FFC121CFD7D8F7F20121CFDE4CB
:101BDB00FD7FFD121CFDE4FEFF000FBF00010EBEDA
:051BEB0013F7BF88F4B0
:011BF00022D2
:0A1DB7007F07121D0CEF5470FF228D
:061DFA007F09121D0C22FE
:071DF3007D707F27021CFD3B
:0C1DA100E4FD7FE1121CFD7FE2021CFD4E
:0E1D6E00AC07121CF9AF04AD077F25021CFD67
:061A0A00121DB7EF703C55
:101A100090004BF0A3F0900061EDF07FA01219D17F
:101A2000E4FD7FFD121CFDE490004BF0A3F000905C
:101A3000004CE004F0700690004BE004F090004B86
:0C1A4000E07004A3E064C870E5121CF91B
:011A4C002277
:101B5400AC05121DB7EF30E61D121CF990004FECD6
:101B6400F07F61121A4D121DA1121DF3E4FD7FFDD9
:091B7400121CFD7F01227F0022FA
:100E1900784B7C007D017BFF7A1B79F17E007F0591
:100E290012054478507C007D017BFF7A1B79F67EA0
:100E3900007F0312054478537C007D017BFF7A1BF8
:100E490079F97E007F0612054478597C007D017B83
:100E5900FF7A1B79FF7E007F01120544785A7C00D6
:100E69007D017BFF7A1C79007E007F031205441205
:100E79001E127D5A7F53121CFD7DA57F53121CFD46
:100E89007D207F3D121CFD121CF97FE1121CFD7FA4
:100E9900E2121CFD7D707F27121CFD7D017F22124D
:100EA9001CFD7D037F23121CFD7D4E7F25121CFD39
:100EB9007D107F31121CFD7B017A0079A3900061BE
:100EC9007405F07F301219D17B017A0079A3900063
:100ED900617405F07F2A1219D17A00794B1219C76A
:100EE9007B017A0079539000617406F07F3A1219F8
:100EF900D17B017A0079599000617401F07F391230
:100F090019D17B017A0079509000617403F07F3E1A
:100F19001219D17B017A00795A9000617403F07F2C
:100F29003B1219D1E4FD7F3C121CFD7D3F7F261247
:0E0F39001CFDE4FD7F24121CFD7F21021CFD27
:05115300900075EFF0B3
:10115800E478767C007D017BFF7A1C7903FE7F05AD
:10116800120544787B7C007D017BFF7A1C79087E20
:10117800007F03120544787E7C007D017BFF7A1C8A
:10118800790B7E007F0612054478847C007D017B04
:10119800FF7A1C79117E007F0112054478857C0056
:1011A8007D017BFF7A1C79127E007F031205447D46
:1011B8005A7F53121CFD7DA57F53121CFD7D207F95
:1011C8003D121CFD121CF9E4FF000000000FEFB4F3
:1011D800DCF7900075E0FD7F25121CFD7D3F7F2622
:1011E800121CFD7A0079761219C77B017A00797E84
:1011F8009000617406F07F3A1219D17B017A007968
:10120800849000617401F07F391219D17B017A0052
:10121800797B9000617403F07F3E1219D17B017ACB
:0E1228000079859000617403F07F3B0219D1BC
:1016990053B1F743B20853B1EF43B21053B3FB430D
:1016A900B40443DE01A2AF9209C2AF75C7AA75C7D8
:1016B9005543910143C60875C7AA75C7555391FE8D
:1016C900A20992AF43DE2053DF3F43DF0353DFFB21
:1016D90075D10775D9D075D20175DAF475D501754B
:1016E900DDD475C50175CDA4D2DED2DFE4FBFDFFE3
:0316F900021D517E
:101CAA00E4EF75F00AA4ACF0FDECF5C5AF05EFF56D
:031CBA00CDD2DEAA
:011CBD002204
:101CBE00E4EF75F00AA4ACF0FDECF5D5AF05EFF549
:031CCE00DDD2DE86
:011CD10022F0
:101CD200E4EF75F00AA4ACF0FDECF5D2AF05EFF538
:031CE200DAD2DE75
:011CE50022DC
:0F1D5100AE05121CAAAF06121CBEAF03021CD2B5
:091DCB0053B3EF43B410021E09EA
:031E0600D2942251
:031E0900C294225E
:031E0C00B294226B
:061E0000A294E433FF226E
:0A1DC100EF6003021E06121E092245
:101A8C0053B1BF53B2BF53B17F53B27F759850431C
:101A9C008920438780438E1053C4DFAB07AA06A965
:101AAC0005A8047F407E427D0F7C00120670EF0477
:0B1ABC00F404F58DD28ED299D2AC223A
:101483009000A812072653B1BF53B2BF53B17F5385
:10149300B27F75985043878053C4F843C4209000AB
:1014A300A8E0F8A3E0F9A3E0FAA3E0FB7F407E42C3
:1014B3007D0F7C00120670C374FF9FFF74FF9EFEB6
:1014C300E49DFDE49CFC78081207138FC69000A8E6
:1014D300E0F8A3E0F9A3E0FAA3E0FB7F407E427DBE
:1014E3000F7C00120670C374FF9FFF8FC543C408AF
:0314F300D2992269
:070003003098FDAF99C2988F
:01000A0022D3
:081DD400C2998F993099FD229C
:1014F6009000AC12072653B1FB53B2FB53B3BF5354
:10150600B4BF75F85075C40853C4DF9000ACE0F85A
:10151600A3E0F9A3E0FAA3E0FB7F407E427D0F7CC7
:1015260000120670C374FF9FFF74FF9EFEE49DFDCC
:10153600E49CFC78081207138FC69000ACE0F8A371
:10154600E0F9A3E0FAA3E0FB7F407E427D0F7C003A
:0E155600120670C374FF9FFF8FC543C40822A6
:071DDC0030F8FDAF9AC2F8D8
:011DE30022DD
:081DE400C2F98F9A30F9FD22CB
:10186D009000B0120726538EF7438901D28CE4FF06
:10187D00FEFDFC9000B0E0F8A3E0F9A3E0FAA3E0D0
:10188D00FBC3120702602F758A7E758CFF308DFDAC
:10189D00C28D9000B0E0FCA3E0FDA3E0FEA3E02428
:1018AD00FFFFEE34FFFEED34FFFDEC34FFFC900046
:0918BD00B012072680B8C28C228B
:1018C6009000B4120726538EF7438901D28CE4FFA9
:1018D600FEFDFC9000B4E0F8A3E0F9A3E0FAA3E073
:1018E600FBC3120702602F758ACA758CFA308DFD0C
:1018F600C28D9000B4E0FCA3E0FDA3E0FEA3E024CB
:10190600FFFFEE34FFFEED34FFFDEC34FFFC9000EC
:09191600B412072680B8C28C222D
:10191F009000B8120726538EEF438910D28EE4FF42
:10192F00FEFDFC9000B8E0F8A3E0F9A3E0FAA3E015
:10193F00FBC3120702602F758BEA758DCB308FFDBD
:10194F00C28F9000B8E0FCA3E0FDA3E0FEA3E0246B
:10195F00FFFFEE34FFFEED34FFFDEC34FFFC900093
:09196F00B812072680B8C28E22CE
:10175B009000BC12072653C9BF53C9DF43C910D22F
:10176B00CAE4FFFEFDFC9000BCE0F8A3E0F9A3E0A7
:10177B00FAA3E0FBC3120702602F75CC3075CDF8CE
:10178B0030CFFDC2CF9000BCE0FCA3E0FDA3E0FE98
:10179B00A3E024FFFFEE34FFFEED34FFFDEC34FF3E
:0C17AB00FC9000BC12072680B8C2CA22C5
:1017B7009000C012072675C40743C408E4FFFEFD66
:1017C700FC9000C0E0F8A3E0F9A3E0FAA3E0FBC3B4
:1017D700120702603275C52C75C6CFE5C430E4FB2D
:1017E70053C4EF9000C0E0FCA3E0FDA3E0FEA3E03C
:1017F70024FFFFEE34FFFEED34FFFDEC34FFFC90D9
:0B18070000C012072680B553C4F72272
:101812009000C412072675C40743C408E4FFFEFD06
:10182200FC9000C4E0F8A3E0F9A3E0FAA3E0FBC354
:10183200120702603275C5D875C6FFE5C430E4FBF5
:1018420053C4EF9000C4E0FCA3E0FDA3E0FEA3E0DC
:1018520024FFFFEE34FFFEED34FFFDEC34FFFC907D
:0B18620000C412072680B553C4F72213
:100F47000A3D3D3D3D3D3D3D3D3D3D3D3D3D3D3DFD
:100F57003D3D3D3D3D3D3D3D3D3D3D3D3D3D3D3DBA
:100F67003D3D3D3D3D3D3D3D3D3D3D3D3D3D3D3DAA
:100F77003D3D3D3D3D3D3D3D3D3D3D3D3D3D3D3D9A
:100F87003D3D3D3D3D000A2A2020436F707972693F
:100F97006768742863292032303135204E75766FA3
:100FA700746F6E20546563686E6F6C6F677920434A
:100FB7006F72702E20416C6C2072696768747320A1
:100FC70072657365727665642E2020000A2A2020D8
:100FD700436F6E7461637420452D4D61696C3A20CF
:100FE7004D6963726F432D38626974406E75766F11
:100FF700746F6E2E636F6D2020202020202020200C
:1010070020202020202020202020202020202020D9
:1010170020000A2A202044656D6F20566572736987
:101027006F6E20203A202532642E2532642E253219
:1010370064000A2A202046696E6973686564204443
:10104700617465203A202532642E2532642E2532BC
:02105700640033
:1016FC007BFF7A0F794712087C7BFF7A0F798D126A
:10170C00087C7BFF7A0F79D312087C7BFF7A1079E7
:10171C0019900003E4F0A304F0E4A3F0A3F0A3F009
:10172C00A3F012087C7BFF7A1079399000037407C0
:10173C00F0A374DFF0A3E4F0A37405F0A3E4F0A32A
:0F174C00741FF012087C7BFF7A0F794702087C2C
:030000000212EBFE
:1012EB00787FE4F6D8FD9000007FFF7E03E4F0A347
:0A12FB00DFFCDEFA75816302134088
:10130500021B28E493A3F8E493A34003F68001F2BB
:1013150008DFF48029E493A3F85407240CC8C333E9
:10132500C4540F4420C8834004F456800146F6DFB8
:10133500E4800B01020408102040809015CDE47E66
:10134500019360BCA3FF543F30E509541FFEE493AD
:10135500A360010ECF54C025E060A840B8E493A374
:10136500FAE493A3F8E493A3C8C582C8CAC583CA9F
:10137500F0A3C8C582C8CAC583CADFE9DEE780BE57
:0116340000B5
:10047400E709F608DFFA8046E709F208DFFA803E6A
:1004840088828C83E709F0A3DFFA8032E309F60857
:10049400DFFA8078E309F208DFFA807088828C83BF
:1004A400E309F0A3DFFA806489828A83E0A3F60873
:1004B400DFFA805889828A83E0A3F208DFFA804C4D
:1004C40080D280FA80C680D4806980F28033801024
:1004D40080A680EA809A80A880DA80E280CA80338D
:1004E40089828A83ECFAE493A3C8C582C8CCC58305
:1004F400CCF0A3C8C582C8CCC583CCDFE9DEE780D5
:100504000D89828A83E493A3F608DFF9ECFAA9F053
:10051400EDFB2289828A83ECFAE0A3C8C582C8CCA9
:10052400C583CCF0A3C8C582C8CCC583CCDFEADEC2
:10053400E880DB89828A83E493A3F208DFF980CC24
:1005440088F0EF60010E4E60C388F0ED2402B4041D
:100554000050B9F582EB2402B4040050AF232345C4
:0605640082239004C47321
:10056A00BB010689828A83E0225002E722BBFE028F
:09057A00E32289828A83E49322C2
:10058300BB010CE58229F582E5833AF583E022502D
:1005930006E92582F8E622BBFE06E92582F8E22277
:0D05A300E58229F582E5833AF583E4932291
:1005B000F8BB010DE58229F582E5833AF583E8F081
:1005C000225006E92582C8F622BBFE05E92582C82D
:0205D000F22215
:1005D200C2D5EC30E709B2D5E4C39DFDE49CFCEE44
:1005E20030E715B2D5E4C39FFFE49EFE120776C33F
:1005F200E49DFDE49CFC800312077630D507C3E43A
:060602009FFFE49EFE22B2
:10060800C5F0F8A3E028F0C5F0F8E582158270027D
:060618001583E038F0221A
:10061E00A3F8E0C5F025F0F0E5821582700215838F
:06062E00E0C838F0E822EC
:1006340075F008758200EF2FFFEE33FECD33CDCC7D
:1006440033CCC58233C5829BED9AEC99E582984000
:100654000CF582EE9BFEED9AFDEC99FC0FD5F0D6DD
:10066400E4CEFBE4CDFAE4CCF9A88222B800C1B907
:100674000059BA002DEC8BF084CFCECDFCE5F0CB45
:10068400F97818EF2FFFEE33FEED33FDEC33FCEB7E
:1006940033FB10D703994004EB99FB0FD8E5E4F939
:1006A400FA227818EF2FFFEE33FEED33FDEC33FC26
:1006B400C933C910D7059BE99A4007EC9BFCE99A1A
:1006C400F90FD8E0E4C9FAE4CCFB2275F010EF2F5F
:1006D400FFEE33FEED33FDCC33CCC833C810D7075F
:1006E4009BEC9AE899400AED9BFDEC9AFCE899F89A
:0E06F4000FD5F0DAE4CDFBE4CCFAE4C8F9222D
:10070200EB9FF5F0EA9E42F0E99D42F0E89C45F04D
:0107120022C4
:10071300E8600FECC313FCED13FDEE13FEEF13FFC4
:03072300D8F122E8
:0C072600ECF0A3EDF0A3EEF0A3EFF02246
:060732008A838982E47352
:10081100E5082403F582E43400F583E0050822901D
:100821000000300703900003E475F0011207CB02CA
:10083100056A2000E97F2ED2008018EF540F249022
:10084100D43440D4FF30040BEF24BFB41A0050035A
:100851002461FFE50960021509050CE50C7002052C
:100861000B30070E900000E475F0011207CBEF0288
:100871000764021BA47403D2078003E4C207F508CE
:100881009000001207E2E4F509F50BF50CE50960AB
:10089100077F2012085480F5750AFFC201C200C209
:1008A10002C203C205C206C208120820FF700D3041
:1008B10007057F00120865AF0CAE0B22B4255FC29D
:1008C100D5C204120820FF24D0B40A00501A75F0D2
:1008D1000A780930D50508B6FF0106C6A426F62018
:1008E100D5047002D20380D924CFB41A00EF50048A
:1008F100C2E5D204020A66D20180C6D20080C0D20B
:100901000280BCD2D580BAD20580B47F20120854AF
:100911002002077401B5090040F1120811FF120805
:100921005402088ED208D2068095120811FB1208D3
:1009310011FA120811F94A4B700679377A0B7BFFCD
:1009410020022EE509602A7E008E82758300120541
:100951008360060EEE650A70F0C2D5EBC0E0EAC016
:10096100E0E9C0E0EE120AADD0E0F9D0E0FAD0E063
:10097100FB12056AFF60AAEBC0E0EAC0E0E9C0E053
:10098100120854D0E02401F9D0E03400FAD0E0FBA1
:10099100E50A0460DCD50AD980877BFF7A0A79A948
:1009A100D202809C791080027908C206C2088008B0
:1009B100D2D5790A8004790AC2D5E50A047002F514
:1009C1000AE4FAFDFEFF120811FC7B082001131254
:1009D1000811FD7B1030000A120811FE120811FFE8
:1009E1007B20EC3382D592D55013C3E43000069FAF
:1009F100FFE49EFEE42001039DFDE49CFCE4CBF8B2
:100A0100C201EC700CCFCECDCCE824F8F870F380A5
:100A110017C3EF33FFEE33FEED33FDEC33FCEB3365
:100A2100FB994002FB0FD8E9EB300105F8D0E0C497
:100A310048B201C0E00AEC4D4E4F78207B0070C2F5
:100A4100EAB50A0040BCC0E0120AAFD0F0D0E02005
:100A51000104C4C0E0C4B201C0F012083DD0F0D519
:100A6100F0EB02088E1207EB092B5309A55808FC7D
:100A71004C08F84209A94F09B14409B14909114388
:080A810009B755099B46099BCA
:100A890045099B470B575009002D09042E09272BAF
:100A99000908230925200B402A08C0480000091F1E
:100AA9003F3F3F00790AA2D5200314300509B91048
:100AB900020404B9080104A2D52006025001042049
:100AC90002689202B509005034C0E07F2030031952
:100AD9007F30A20272067205500F120B06C202C2C3
:100AE90006C205C2087F30800F300503E9C0E01255
:100AF9000854300503D0E0F9D0E0B509CC3005172A
:100B09007F30B9100C1208547F583004077F788061
:100B190003B908031208543002057F2D0208547FD7
:100B2900202008F87F2B2006F322920280CF286E1E
:100B3900756C6C2900D2011208113001F8C20178D4
:100B49000930D50108F60208C02D5043495812084A
:100B5900112403B405004001E4900B529312084597
:0D0B6900743A120845D2037509040209A56B
:10073800EF4E6012EF60010EEDBB010B89828A83D8
:10074800F0A3DFFCDEFA2289F05007F709DFFCA9E5
:0C075800F022BBFEFCF309DFFCA9F0223C
:10076400BB010689828A83F0225002F722BBFE0174
:02077400F3226E
:10077600BC000BBE0029EF8DF084FFADF022E4CC67
:10078600F875F008EF2FFFEE33FEEC33FCEE9DEC30
:10079600984005FCEE9DFE0FD5F0E9E4CEFD22ED76
:1007A600F8F5F0EE8420D21CFEADF075F008EF2FC0
:1007B600FFED33FD4007985006D5F0F222C398FDB1
:0507C6000FD5F0EA224E
:1007CB00F8E0FBA3A3E0F925F0F0E58215827002B7
:0707DB001583E0FA38F0225B
:0907E200EBF0A3EAF0A3E9F02218
:1007EB00D083D082F8E4937012740193700DA3A39D
:1007FB0093F8740193F5828883E4737402936860B1
:06080B00EFA3A3A380DFB0
:101BA400EFB40A07740D121BAF740A309811A89988
:101BB400B8130CC2983098FDA899C298B811F630A1
:071BC40099FDC299F5992279
:00000001FF
