:042327004100FA0077
:1029E100122C90122DB8122B16122D8B122D44126F
:1029F10024F4120F269000BCE06005E4F0120026DA
:102A01009000BEE06005E4F012288F9000C0E06005
:0D2A110002E4F09000C3E060D9E4F080D54D
:072D8B009000F77442F022F2
:012DB20022FE
:012DB30022FD
:012DB40022FC
:0C2D14009000B5EBF0A3EAF0A3E9F02278
:0C2D20009000B8EBF0A3EAF0A3E9F02269
:102CA2009000B5A3E0FAA3E0F94A6003120D5E2298
:102CB2009000B8A3E0FAA3E0F94A6003120D5E2285
:102A8C00EF4E602D9000ABEEF0A3EFF0AF05A3EC92
:102A9C00F0A3EFF0AF03A3EAF0A3EFF0E4A3F0A3ED
:102AAC00F0A3F0A3F09000AAF09000A904F0122C6F
:022ABC00A22254
:102C4300E49000A9F0122CB27B007A007900122DD7
:042C530014022D201A
:1020D2009000A9E070030221869000ADE0FEA3E02B
:1020E200FF4E70030221869000AAE07035D3EF9470
:1020F20000EE940050030221869000B1E475F001D5
:10210200120BB4FED39000ACE095F09000ABE09ED1
:102112005072122CB2E49000B1F0A3F09000AA0425
:10212200F0229000AAE06401705A9000B175F001AB
:10213200120BB4FED39000AEE095F09000ADE09E9D
:1021420050429000AFE0FEA3E0FF9400EE94004006
:10215200259000B3E475F001120BB4FCD3EF95F0B7
:10216200EE9C5005E49000A9F09000A9E070079061
:1021720000ADF0A3F022E49000B1F0A3F09000AA29
:05218200F0122CA22266
:10232B004100390050003A0000000000000000009E
:10233B000000000000000050002900000000000019
:10234B000000000000000000000041004A004100B6
:02235B00280058
:102B1600E4900039F0FE7F10FD7B017A00793A12CD
:102B26000E4D7E007F107D007B017A007929120E02
:072B36004D121CB5022B64D7
:0E239E00900073EBF0A3EAF0A3E9F0A3EDF0DA
:1023AC00E4FF000000000FEFB478F7122CD190007E
:1023BC00397401F0E4FF000000000FEFB478F790DF
:1023CC000073E0FBA3E0FAA3E0F974019000296B21
:1023DC007008E965827003EA6583602A7E007F10CD
:1023EC007D007B017A007929120E4D900076E0FF7A
:1023FC007E0078297C007D01900073E0FBA3E0FA5D
:06240C00A3E0F9120AF042
:0124120022A7
:0B17190090006CEBF0A3EAF0A3E9F0F5
:10172400E4A3F0A3F0A3F0A3F0120B1664F2600399
:101734000219BB90006CE0FBA3E0FAA3E0F990006F
:1017440001120B2FD3941040030219BBE4900070D4
:10175400F090006CE0FBA3E0FAA3E0F99000011222
:101764000B2F2401FFE433FE900070E0FDC39FEED5
:101774006480F8748098501DED2401FFE433FE8FDB
:10178400828E83120B2FFF900072E02FF090007076
:10179400E004F080BC90006CE0FBA3E0FAA3E0F965
:1017A400900001120B2FF582758300A3A3120B2F57
:1017B400FF900072E06F60030219BB7E007F107D12
:1017C400007B017A007929120E4DE4900071F090AB
:1017D400006CE0FBA3E0FAA3E0F9900002120B2FE7
:1017E400244FB4090040030219A89017FC75F003B4
:1017F400A4C58325F0C58373021817021989021939
:101804003702194602196B02182E02197A02199826
:1018140002195590006F7403F07B017A00796F9080
:1018240000777401F07F310219A590006CE0FBA3EE
:10183400E0FAA3E0F9900003120B2FB40105122D76
:10184400A9803090006CE0FBA3E0FAA3E0F99000DB
:1018540003120B2FB40205122DAC801790006CE01C
:10186400FBA3E0FAA3E0F9900003120B2FB40303E7
:10187400122DAF900071E0FF04F074292FF582E47B
:101884003400F58374F8F0900071E0FF04F07429DB
:101894002FF582E43400F5837402F090006CE0FBD1
:1018A400A3E0FAA3E0F9900002120B2FFF9000715D
:1018B400E0FE04F074292EF582E43400F583EFF0A1
:1018C400122D9FEF9000716013E0FF04F074292F34
:1018D400F582E43400F5837401F08011E0FF04F034
:1018E40074292FF582E43400F5837402F0E4900047
:1018F40070F090002AE02401FFE433FE900070E0D1
:10190400FDC39FEE6480F874809840030219A874A4
:101914002A2DF582E43400F583E0FF900071E02481
:1019240029F582E43400F583E02FF0900070E004A0
:10193400F080BF7B007A007900E4900077F07F3478
:10194400805F7B007A007900E4900077F07F358037
:101954005090006F7403F07B017A00796F900077E8
:101964007401F07F32803A7B007A007900E49000C1
:1019740077F07F36802B7B007A007900E490007743
:10198400F07F37801C7B007A007900E4900077F0C8
:101994007F38800D7B007A007900E4900077F07F37
:1019A40039121EF5900071E0600D04F07B017A009D
:0719B4007929E0FD12239EDA
:0119BB002209
:10288F00900039E06031122D4EEF24F0601824D003
:10289F00601224207016122D2C122D92E490003904
:1028AF00F0022B648000122D2C022D927B017A00F6
:1028BF0079297D100229217B017A00793A7D101246
:0F28CF002AEDEF60097B017A00793A121719227E
:012DB50022FB
:10235D00410083004100840041008500500086004B
:0F236D0000000000000000000000000000000061
:0A2D4400E4900083F0A3F0A3F02256
:101EF500900074EBF0A3EAF0A3E9F0E4900083F01E
:101F0500E0FE04F074862EF582E43400F583745502
:101F1500F0900083E0FE04F074862EF582E4340030
:101F2500F58374AAF0900077E004FE900083E0FD4D
:101F350004F074862DF582E43400F583EEF090000C
:101F450083E0FE04F074862EF582E43400F583EF19
:101F5500F0E4900085F0900077E0FF900085E0FECA
:101F6500C39F502F900074E0FBA3E0FAA3E0F98E25
:101F750082758300120B2FFE900083E0FD04F07440
:101F8500862DF582E43400F583EEF0900085E004BB
:101F9500F080C37B017A007986EF2404FD12255D6C
:101FA500900083E0FE04F074862EF582E43400F59B
:101FB50083EFF0E4900085F0900077E02405FFE4DE
:101FC50033FE900085E0FDC39FEE6480F874809831
:101FD500501774862DF582E43400F583E0FF122D49
:0A1FE50073900085E004F080CF2225
:100F2600200A030213B3C20A78A2E62480FF08E669
:100F3600FEC3EF9E547FD3940450030213B374226E
:100F46002EF8E6645560030213AAEE04547F2422A9
:100F5600F8E664AA60030213AA78A3E6FF24025403
:100F66007F2422F8E6900084F0FB78A2E62480FD38
:100F7600E433FCC3ED9FFFEC9400FE7C007D801201
:100F86000B7EEB2404FFE433FEC3ED9FEE6480F892
:100F9600EC64809850030213AD78A3E6FF2422F98F
:100FA600E4FAFBE02403FD900070EFF0A37480F0F8
:100FB600122221900084E078A3262403547F242261
:100FC600F8E66F60030213AAE4900083F0FE7F1038
:100FD600FD7B017A007929120E4D78A3E6FF2403E2
:100FE600547F2422F8E624C970030210A914700362
:100FF60002124B14700302114E2403600302139E67
:10100600900083E0FE04F074292EF582E43400F5A6
:101016008374F8F0900084E0FE900083E0FD04F015
:1010260074292DF582E43400F583EEF0900083E018
:10103600FE04F074292EF582E43400F58374B5F0CD
:10104600EF2404547F2422F8E6FF900083E0FE0498
:10105600F074292EF582E43400F583EFF0E4900075
:1010660085F090002AE02401FFE433FE900085E03D
:10107600FDC39FEE6480F87480985024742A2DF581
:1010860082E43400F583E0FF900083E02429F582B2
:10109600E43400F583E02FF0900085E004F080C290
:1010A60002138D900083E0FF04F074292FF582E48B
:1010B6003400F58374F8F0900084E0FF900083E03C
:1010C600FE04F074292EF582E43400F583EFF090E7
:1010D6000083E0FF04F074292FF582E43400F583E1
:1010E60074B7F078A3E62404547F2422F8E6FF9030
:1010F6000083E0FE04F074292EF582E43400F583C3
:10110600EFF0E4900085F090002AE02401FFE4333C
:10111600FE900085E0FDC39FEE6480F874809850D1
:1011260024742A2DF582E43400F583E0FF900083D1
:10113600E02429F582E43400F583E02FF090008561
:10114600E004F080C202138D900083E0FF04F07487
:10115600292FF582E43400F58374F8F0900084E0DA
:10116600FF900083E0FE04F074292EF582E434003B
:10117600F583EFF0900083E0FF04F074292FF582E9
:10118600E43400F58374B8F078A3E6FF2404547FB2
:101196002422F8E6FE900083E0FD04F074292DF584
:1011A60082E43400F583EEF024FE600D14600C1426
:1011B600601024037049EF8005800778A3E62405B4
:1011C600802378A3E6FF2405547F2422F8E6FE90C8
:1011D6000083E0FD04F074292DF582E43400F583E4
:1011E600EEF0EF2406547F2422F8E6FF900083E019
:1011F600FE04F074292EF582E43400F583EFF0E462
:10120600900085F090002AE02401FFE433FE900070
:1012160085E0FDC39FEE6480F87480985024742A9C
:101226002DF582E43400F583E0FF900083E0242965
:10123600F582E43400F583E02FF0900085E004F0B9
:1012460080C202138D900083E0FF04F074292FF50D
:1012560082E43400F58374F8F0900084E0FF900097
:1012660083E0FE04F074292EF582E43400F583EF62
:10127600F0900083E0FF04F074292FF582E4340037
:10128600F58374B2F078A3E6FF2404547F2422F891
:10129600E6FE900083E0FD04F074292DF582E43427
:1012A60000F583EEF024FE601014603314603724DA
:1012B60003600302134AEF802978A3E6FF2405544E
:1012C6007F2422F8E6FE900083E0FD04F074292DC9
:1012D600F582E43400F583EEF064017067802B78C4
:1012E600A3E62405804478A3E6FF2405547F242240
:1012F600F8E6FE900083E0FD04F074292DF582E403
:101306003400F583EEF06401703AEF2406547F242E
:1013160022F8E6FE900083E0FD04F074292DF582A4
:10132600E43400F583EEF0EF2407547F2422F8E638
:10133600FF900083E0FE04F074292EF582E4340069
:10134600F583EFF0E4900085F090002AE02401FF99
:10135600E433FE900085E0FDC39FEE6480F8748060
:10136600985024742A2DF582E43400F583E0FF902A
:101376000083E02429F582E43400F583E02FF09021
:101386000085E004F080C2900083E004F07B017ADF
:10139600007929E0FD12239E900084E0240478A3BE
:0E13A60026F6800378A30678A3E6547FF6228D
:10255D00900078EBF0A3EAF0A3E9F0AE05E490006B
:10256D00F8F0AF061EEF60469000F8E0FF9000789F
:10257D00E0FBA3E475F001120BCAA9F0FA120B16D9
:10258D006F9000F8F0E4A3F09000F9E0C3940850C8
:10259D00D19000F8E030E007C313648CF080079011
:1025AD0000F8E0C313F09000F9E004F080DA900039
:0425BD00F8E0FF2221
:1022210090006CEBF0A3EAF0A3E9F0AE05E49000B6
:10223100F8F0AF061EEF606B9000F8E0FF90006CC5
:10224100E0FBA3E475F001120BCAA9F0FA120B1618
:102251006F9000F8F0900070E004F0A3E0FF9000B0
:1022610070E0C39F4012E4F0EFFDE49DFDE49400B3
:1022710090006D8DF0120BB4E49000F9F09000F92C
:10228100E0C3940850AC9000F8E030E007C3136459
:102291008CF080079000F8E0C313F09000F9E0049F
:0922A100F080DA9000F8E0FF2261
:101B5D00484F4D4500484F4D45000000000304001F
:101B6D0000FF0000000100C864000004FF00000039
:101B7D0000000100C86400000400FF000000000127
:101B8D0000C86400000400FF000000000100C864EC
:101B9D0000000400FF000000000100C86400000404
:101BAD0000FF000000000100C86400000400FF00F9
:101BBD000000000100C86400000400FF00000000E8
:101BCD000100C8640000464F4F00000000000304F0
:101BDD00FF00000000000100C86400000400FF00C9
:101BED000000000100C8640000040000FF000000B8
:101BFD000100C8640000040000FF0000000100C8DF
:101C0D00640000040000FF0000000100C864000033
:101C1D00040000FF0000000100C864000004000083
:101C2D00FF0000000100C8640000040000FF000078
:101C3D00000100C864000042415200000000000194
:101C4D00040000FF0000000400C864000004000050
:101C5D00FF0000000400C8640000040000FF000045
:101C6D00000400C8640000040000FF000000040030
:101C7D00C8640000040000FF0000000400C86400F8
:101C8D0000040000FF0000000400C8640000040010
:101C9D0000FF0000000400C8640000040000FF0005
:081CAD0000000400C8640000FF
:0B237C0044005100000000410062001E
:1024F4007E007F067D007B017A00794B120E4D78B9
:10250400637C007D017BFF7A1B795D120E309000A5
:102514006B7404F090005504F0A374C8F0E49000C8
:1025240059F090005774B4F0E490005AF0900058B9
:102534007478F0E490005BF0A3741EF090005F7474
:102544005AF090005DE4F0A37403F0900060E4F0AE
:09255400A3743CF0E4FF0229A38A
:012DB60022FA
:042DA500E4FEFF2227
:012DB70022F9
:1029A300900070EFF0E490004BF0A3120D2D0000A7
:1029B30000009000507432F078637C007D017BFF4F
:1029C3007A1B79D37E007F09120AF078557C007D4B
:0E29D300017BFF7A1B79DC7E007F0D020AF08B
:10002600900050E0600314F02290005CE0700D90A8
:100036000060E07002A3E07003020A1F900055E022
:10004600540F24FC700302050A1470030207682487
:10005600026003020A1F90004CE0FCA3E0FDA3E04F
:10006600FEA3E02401FFE43EFEE43DFDE43CFC90FB
:10007600004C120D21900059E0FF900056E0FEC39F
:100086009F400302013DEEFDC3EF9DFFE49400FE99
:10009600122D38EE3395E0FDFCC004C005C006C045
:1000A60007E4FF7E01FDFC90004CE0F8A3E0F9A315
:1000B600E0FAA3E0FB120BE0D003D002D001D0009F
:1000C600120BE0C006C00790005DE0FEA3E0FBAAAD
:1000D60006E4F9F8D007D006120C6BA804A905AA05
:1000E60006AB07900056E0FEE4FCFD2BFFEA3EFE61
:1000F600ED39FDEC38FC900051120D2190005FE0C7
:10010600FFE4FCFDFE900051E0F8A3E0F9A3E0FA5D
:10011600A3E0FB120BE0E47B64FAF9F8120C6B9097
:100126000051120D21900051E0FCA3E0FDA3E0FE7A
:10013600A3E0FFE40201EB900056E0FF900059E0D7
:10014600C39FFFE49400FE122D38EE3395E0FDFCCC
:10015600C004C005C006C007E4FF7E01FDFC900098
:100166004CE0F8A3E0F9A3E0FAA3E0FB120BE0D021
:1001760003D002D001D000120BE0C006C0079000E9
:100186005DE0FEA3E0FBAA06E4F9F8D007D006126C
:100196000C6BA804A905AA06AB07900056E0FEE47E
:1001A600C39BFFEE9AFEE499FDE498FC9000511281
:1001B6000D2190005FE0FFE4FCFDFE900051E0F8A9
:1001C600A3E0F9A3E0FAA3E0FB120BE0E47B64FAF8
:1001D600F9F8120C6B900051120D21900051A3A357
:1001E600E0FEA3E0FF122A5990005AE0FF90005764
:1001F600E0FEC39F5071EEFDC3EF9DFFE49400FE49
:10020600122D38EE3395E0FDFCC004C005C006C0D3
:1002160007E4FF7E01FDFC90004CE0F8A3E0F9A3A3
:10022600E0FAA3E0FB120BE0D003D002D001D0002D
:10023600120BE0C006C00790005DE0FEA3E0FBAA3B
:1002460006E4F9F8D007D006120C6BA804A905AA93
:1002560006AB07900057E0FEE4FCFD2BFFEA3EFEEE
:10026600ED39FDEC388074900057E0FF90005AE0BD
:10027600C39FFFE49400FE122D38EE3395E0FDFC9B
:10028600C004C005C006C007E4FF7E01FDFC900067
:100296004CE0F8A3E0F9A3E0FAA3E0FB120BE0D0F0
:1002A60003D002D001D000120BE0C006C0079000B8
:1002B6005DE0FEA3E0FBAA06E4F9F8D007D006123B
:1002C6000C6BA804A905AA06AB07900057E0FEE44C
:1002D600C39BFFEE9AFEE499FDE498FC9000511250
:1002E6000D2190005FE0FFE4FCFDFE900051E0F878
:1002F600A3E0F9A3E0FAA3E0FB120BE0E47B64FAC7
:10030600F9F8120C6B900051120D21900051A3A325
:10031600E0FEA3E0FF122CFA90005BE0FF9000588D
:10032600E0FEC39F5071EEFDC3EF9DFFE49400FE17
:10033600122D38EE3395E0FDFCC004C005C006C0A2
:1003460007E4FF7E01FDFC90004CE0F8A3E0F9A372
:10035600E0FAA3E0FB120BE0D003D002D001D000FC
:10036600120BE0C006C00790005DE0FEA3E0FBAA0A
:1003760006E4F9F8D007D006120C6BA804A905AA62
:1003860006AB07900058E0FEE4FCFD2BFFEA3EFEBC
:10039600ED39FDEC388074900058E0FF90005BE08A
:1003A600C39FFFE49400FE122D38EE3395E0FDFC6A
:1003B600C004C005C006C007E4FF7E01FDFC900036
:1003C6004CE0F8A3E0F9A3E0FAA3E0FB120BE0D0BF
:1003D60003D002D001D000120BE0C006C007900087
:1003E6005DE0FEA3E0FBAA06E4F9F8D007D006120A
:1003F6000C6BA804A905AA06AB07900058E0FEE41A
:10040600C39BFFEE9AFEE499FDE498FC900051121E
:100416000D2190005FE0FFE4FCFDFE900051E0F846
:10042600A3E0F9A3E0FAA3E0FB120BE0E47B64FA95
:10043600F9F8120C6B900051120D21900051A3A3F4
:10044600E0FEA3E0FF122D0790005DE0FEA3E0FFB3
:10045600E4FCFD90004CE0F8A3E0F9A3E0FAA3E089
:10046600FBC3120CFD406390004C120D2D000000E2
:1004760000900059E0FF900062F0900056E0900076
:1004860059F0900056EFF090005AE0FF900062F0AD
:10049600900057E090005AF0900057EFF090005B04
:1004A600E0FF900062F0900058E090005BF0900052
:1004B60058EFF090004BE0700404F0800DE49000DB
:1004C6004BF090005CE0600214F090005CE060038A
:1004D600020A1FFBFAFDFCFFFE12000E900060E010
:1004E6007002A3E0600E900061E024FFF0900060CF
:1004F600E034FFF0900060E07002A3E06003020ABF
:100506001F020A1790004BE07018A3E0FCA3E0FD61
:10051600A3E0FEA3E02401FFE43EFEE43DFDE43C4F
:10052600802990004CE0FCA3E0FDA3E0FEA3E0FFE1
:10053600EC4D4E4F601C90004CA3A3A3E024FFFF9C
:10054600EE34FFFEED34FFFDEC34FFFC90004C1260
:100556000D21E47FFFFEFDFC90004CE0F8A3E0F9DE
:10056600A3E0FAA3E0FB120BE0A804A905AA06ABD8
:1005760007900056E0FFE4FCFDFE120BE0C006C04B
:100586000790005DE0FEA3E0FBAA06E4F9F8D007B9
:10059600D006120C6B900051120D2190005FE0FF07
:1005A600E4FCFDFE900051E0F8A3E0F9A3E0FAA315
:1005B600E0FB120BE0E47B64FAF9F8120C6B900096
:1005C60051120D21900051E0FCA3E0FDA3E0FEA333
:1005D600E0FFE4122A59E47FFFFEFDFC90004CE0A8
:1005E600F8A3E0F9A3E0FAA3E0FB120BE0A804A944
:1005F60005AA06AB07900057E0FFE4FCFDFE120BD0
:10060600E0C006C00790005DE0FEA3E0FBAA06E49A
:10061600F9F8D007D006120C6B900051120D2190FC
:10062600005FE0FFE4FCFDFE900051E0F8A3E0F976
:10063600A3E0FAA3E0FB120BE0E47B64FAF9F812FC
:100646000C6B900051120D21900051E0FCA3E0FDCF
:10065600A3E0FEA3E0FFE4122CFAE47FFFFEFDFC1C
:1006660090004CE0F8A3E0F9A3E0FAA3E0FB120B3C
:10067600E0A804A905AA06AB07900058E0FFE4FC31
:10068600FDFE120BE0C006C00790005DE0FEA3E091
:10069600FBAA06E4F9F8D007D006120C6B900051BD
:1006A600120D2190005FE0FFE4FCFDFE900051E09A
:1006B600F8A3E0F9A3E0FAA3E0FB120BE0E47B6405
:1006C600FAF9F8120C6B900051120D21900051E0CE
:1006D600FCA3E0FDA3E0FEA3E0FFE4122D079000DB
:1006E6005DE0FEA3E0FFE4FCFD90004CE0F8A3E033
:1006F600F9A3E0FAA3E0FBC3120CFD5014E4FFFEDD
:10070600FDFC90004CE0F8A3A3A3E0C3120CFD701F
:100716001790004BE0700404F0800DE490004BF05D
:1007260090005CE0600214F090005CE06003020A56
:100736001FFBFAFDFCFFFE12000E900060E0700247
:10074600A3E0600E900061E024FFF0900060E034CA
:10075600FFF0900060E07002A3E06003020A1F024F
:020766000A1770
:1007680090006C120D2D000000FFE4FFFEFDFC90D0
:10077800004CE0F8A3E0F9A3E0FAA3E0FBC3120CF5
:10078800FD600302087B900056E0FFE4FCFDFE904C
:10079800006CE0F8A3E0F9A3E0FAA3E0FB120BE099
:1007A800A804A905AA06AB0790005FE0FFE4FCFDDA
:1007B800FE120BE0E47B64FAF9F8120C6B9000511E
:1007C800120D21900051E0FCA3E0FDA3E0FEA3E0A0
:1007D800FFE4122A59900057E0FFE4FCFDFE900068
:1007E8006CE0F8A3E0F9A3E0FAA3E0FB120BE0A8A1
:1007F80004A905AA06AB0790005FE0FFE4FCFDFE34
:10080800120BE0E47B64FAF9F8120C6B90005112B9
:100818000D21900051E0FCA3E0FDA3E0FEA3E0FF62
:10082800E4122CFA900058E0FFE4FCFDFE90006C06
:10083800E0F8A3E0F9A3E0FAA3E0FB120BE0A804B8
:10084800A905AA06AB0790005FE0FFE4FCFDFE12D5
:100858000BE0E47B64FAF9F8120C6B900051120D6E
:1008680021900051E0FCA3E0FDA3E0FEA3E0FFE43B
:10087800122D0790005DE0FEA3E0FFE4FCFD900070
:100888004CE0F8A3E0F9A3E0FAA3E0FBC3120CFDE7
:10089800600302098A900059E0FFE4FCFDFE900025
:1008A8006CE0F8A3E0F9A3E0FAA3E0FB120BE0A8E0
:1008B80004A905AA06AB0790005FE0FFE4FCFDFE73
:1008C800120BE0E47B64FAF9F8120C6B90005112F9
:1008D8000D21900051E0FCA3E0FDA3E0FEA3E0FFA2
:1008E800E4122A5990005AE0FFE4FCFDFE90006CE7
:1008F800E0F8A3E0F9A3E0FAA3E0FB120BE0A804F8
:10090800A905AA06AB0790005FE0FFE4FCFDFE1214
:100918000BE0E47B64FAF9F8120C6B900051120DAD
:1009280021900051E0FCA3E0FDA3E0FEA3E0FFE47A
:10093800122CFA90005BE0FFE4FCFDFE90006CE0F6
:10094800F8A3E0F9A3E0FAA3E0FB120BE0A804A9DE
:1009580005AA06AB0790005FE0FFE4FCFDFE120B62
:10096800E0E47B64FAF9F8120C6B900051120D2147
:10097800900051E0FCA3E0FDA3E0FEA3E0FFE41239
:100988002D0790004CE0FCA3E0FDA3E0FEA3E024CB
:1009980001FFE43EFEE43DFDE43CFC90004C120DFA
:1009A80021900060E0FEA3E0FF90005EE02FFF9042
:1009B800005DE03EFEE4FCFD90004CE0F8A3E0F9A9
:1009C800A3E0FAA3E0FBC3120CFD401290004C1206
:1009D8000D2D0000000090005CE0600214F0900013
:1009E8005CE07033FBFAFDFCFFFE12000E90006025
:1009F800E07002A3E0600E900061E024FFF0900038
:100A080060E034FFF0900060E07002A3E0700890AE
:070A18000055E0FF1229A3C5
:010A1F0022B4
:012DB80022F8
:0F2CC2009000D1EBF0A3EAF0A3E9F0A3EDF0222C
:012DB90022F7
:012DBA0022F6
:102C9000122C57122D6212283D122BD1122CEDD27C
:022CA000AF2261
:02238700C10A89
:0D2CED00C20A7F807E257D007C00022A1E29
:03002300022ABEF0
:102ABE00C0E0C0D075D000C000309817C29878A280
:102ACE00E6062422F8A69978A2E6C3948040027600
:0F2ADE0000D20A309902C299D000D0D0D0E03295
:082389004100C4004100C50041
:102BD100122C0E5389F0438901538EF79000C4746F
:102BE100FAF0A374C4F0758CFAF58AD2A9D28C22BA
:102C0E00E49000BBF09000BDF09000C1F0A3F090F6
:0C2C1E0000BCF09000BEF09000C3F0225B
:03000B000222AA24
:1022AA00C0E0C0F0C083C082C0D075D000C000C0FA
:1022BA00069000C4E0F58CA3E0F58A9000BBE00428
:1022CA00F0C3940A4005E4F0A304F09000BDE004D2
:1022DA00F0C394644005E4F0A304F09000BFE00466
:1022EA00F0C394F4748094814005E4F0A304F09060
:1022FA0000C1E475F001120BB4FEC3E5F094E8EEF8
:10230A009403400A9000C1E4F0A3F0A304F0D006BD
:0D231A00D000D0D0D082D083D0F0D0E032FF
:102B8A000A6D679C46F6375D4521EFAC5A50010B3A
:102B9A00DF020A6D679C46F6375D4521EFAC5A5055
:042BAA00E10BDF025A
:082391004500CCCCCCCCCCCC37
:102C570053B3FE43B40153B3FD43B40253B1FE4330
:032C6700B2012295
:012DBB0022F5
:102BF100E4FEC290EF30E704D2808002C280EF256C
:0C2C0100E0FFD290000EEEB408E8C29094
:012C0D0022A4
:042C6A00E4FD7FFC0A
:0F2C6E00C29100122BF1AF05122BF100D291226F
:0A28DE007B019000827405F07F3F3B
:0B28E80090007FEBF0A3EAF0A3E9F002
:1028F300C291E4FD122BF1900082E0FFEDC39F50E3
:102903001A90007FE0FBA3E0FAA3E0F98D827583C0
:0D29130000120B2FFF122BF10D80DCD29172
:012920002294
:102BAE00E4FEC290EF30E704D2808002C280EF25AF
:102BBE00E0FFD290000EEEB408E843B10153B2FE2E
:022BCE00C290B3
:012BD00022E2
:102C2A00E4FFFEC290EF25E0FFD29030800344011A
:082C3A00FF0EEEB408EDC2909C
:012C4200226F
:102C7D00C29100122BAE122C2A53B1FE43B20100A9
:022C8D00D291E2
:012C8F002222
:0B29640090006DEBF0A3EAF0A3E9F097
:10296F00C291122BAEE4FD900070E0FFEDC39F50BB
:10297F001A122C2A90006DE0FBA3E0FAA3E0F98D68
:10298F0082758300EF120B5C0D80DC53B1FE43B2F6
:03299F0001D291D1
:0129A2002212
:0E2CD100122C6A7D8E7F20122C6E00000022D5
:102B6400E4FEFD7FFC122C6E7D8F7F20122C6EE420
:102B7400FD7FFD122C6EE4FEFF000FBF00010EBEB0
:052B840013F7BF88F407
:012B89002229
:0A2D4E007F07122C7DEF5470FF2266
:062D99007F09122C7D22CF
:072D92007D707F27022C6E0B
:0C2D2C00E4FD7FE1122C6E7FE2022C6EB1
:0E2CDF00AC07122C6AAF04AD077F25022C6EE5
:06292100122D4EEF703C88
:1029270090006CF0A3F0900082EDF07FA01228E8F1
:10293700E4FD7FFD122C6EE490006CF0A3F0009094
:10294700006DE004F0700690006CE004F090006CFD
:0C295700E07004A3E064C870E5122C6A74
:012963002251
:102AED00AC05122D4EEF30E61D122C6A900070ECE5
:102AFD00F07F61122964122D2C122D92E4FD7FFDC1
:092B0D00122C6E7F01227F0022D0
:101CB500786C7C007D017BFF7A2B798A7E007F051D
:101CC500120AF078717C007D017BFF7A2B798F7E7B
:101CD500007F03120AF078747C007D017BFF7A2B6C
:101CE50079927E007F06120AF0787A7C007D017B6E
:101CF500FF7A2B79987E007F01120AF0787B7C00B1
:101D05007D017BFF7A2B79997E007F03120AF01201
:101D15002DBB7D5A7F53122C6E7DA57F53122C6EE1
:101D25007D207F3D122C6E122C6A7FE1122C6E7F76
:101D3500E2122C6E7D707F27122C6E7D017F2212A0
:101D45002C6E7D037F23122C6E7D4E7F25122C6E0B
:101D55007D107F31122C6E7B017A0079CC90008248
:101D65007405F07F301228E87B017A0079CC900069
:101D7500827405F07F2A1228E87A00796C1228DE31
:101D85007B017A0079749000827406F07F3A1228FC
:101D9500E87B017A00797A9000827401F07F39122C
:101DA50028E87B017A0079719000827403F07F3E08
:101DB5001228E87B017A00797B9000827403F07F1A
:101DC5003B1228E8E4FD7F3C122C6E7D3F7F2612F6
:0E1DD5002C6EE4FD7F24122C6E7F21022C6EFA
:051FEF00900096EFF0E8
:101FF400E478977C007D017BFF7A2B799CFE7F053A
:10200400120AF0789C7C007D017BFF7A2B79A17EFB
:10201400007F03120AF0789F7C007D017BFF7A2BFE
:1020240079A47E007F06120AF078A57C007D017BEE
:10203400FF7A2B79AA7E007F01120AF078A67C0031
:102044007D017BFF7A2B79AB7E007F03120AF07D42
:102054005A7F53122C6E7DA57F53122C6E7D207FE8
:102064003D122C6E122C6AE4FF000000000FEFB446
:10207400DCF7900096E0FD7F25122C6E7D3F7F26D5
:10208400122C6E7A0079971228DE7B017A00799FF0
:102094009000827406F07F3A1228E87B017A007976
:1020A400A59000827401F07F391228E87B017A0040
:1020B400799C9000827403F07F3E1228E87B017AB9
:0E20C4000079A69000827403F07F3B0228E8AA
:10283D0053B1F743B20853B1EF43B21053B3FB4357
:10284D00B40443DE01A2AF9209C2AF75C7AA75C722
:10285D005543910143C60875C7AA75C7555391FED7
:10286D00A20992AF43DE2053DF3F43DF0153DFF96F
:10287D0075D1FF75D9FFD2DFE4FBFAFDFCFFFE0237
:02288D00000E3B
:102A5900AD07AC06A2AF9209C2AF75C7AA75C75533
:102A6900439101A20992AFECF5C5EDF5CDA2AF9264
:102A790009C2AF75C7AA75C7555391FEA20992AF8E
:032A8900D2DE2278
:0D2CFA00AD07AC06ECF5D5EDF5DDD2DE2220
:0D2D0700AD07AC06ECF5D2EDF5DAD2DE2218
:10000E008D828C83122A59AE83AF82122CFAAE02E5
:05001E00AF03022D07F5
:092D620053B3EF43B410022DAC91
:032DA900D294229F
:032DAC00C29422AC
:032DAF00B29422B9
:062D9F00A294E433FF22C0
:0A2D5800EF6003022DA9122DAC223A
:042399004100C80037
:012DBC0022F4
:1019BC00AB07AA06A9059000C9EFF0C394805004A8
:1019CC00E4F080069000C97480F09000C6E4F0A3A7
:1019DC007480F09000C9E07C002400FEEC3AA3F087
:1019EC00A3CEF09000C6E0FEA3E0FF7003EE64010E
:1019FC0060369000CAE0FCA3E0F5828C83E4938F00
:101A0C00828E83F09000C8E004F09000C7E004F0F0
:101A1C0070069000C6E004F09000CBE004F070C3B8
:101A2C009000CAE004F080BBAF039000C9EFF0C394
:101A3C009480500FE02480FEE4339000C6F0A3CED7
:101A4C00F0800D9000C9E0FF9000C6E4F0A3EFF029
:101A5C009000C6E0FCA3E0F5828C83E9F0AD038D29
:101A6C00A6EAFFF5A775AEFFA2AF9209C2AF75C784
:101A7C00AA75C755439F01A20992AFA2AF9209C2A2
:101A8C00AF75C7AA75C75543A501A20992AF75AF2B
:101A9C0022A2AF9209C2AF75C7AA75C75543A4015C
:101AAC00A20992AF9000C9EDF0C394805004E4F009
:101ABC0080069000C97480F09000C6E4F0A3748096
:101ACC00F09000C9E0F5A68FA7A2AF9209C2AF753E
:101ADC00C7AA75C755439F01A20992AFA2AF92093D
:101AEC00C2AF75C7AA75C75543A501A20992AF75B8
:101AFC00AF219000C6E0FEA3E0FFF44E602C8F8275
:101B0C008E83E0F5AEA2AF9209C2AF75C7AA75C7B6
:101B1C005543A401A20992AF05A69000C7E004F0BA
:101B2C0070D09000C6E004F080C8A2AF9209C2AF9A
:101B3C0075C7AA75C75553A5FEA20992AFA2AF925D
:101B4C0009C2AF75C7AA75C755539FFEA20992AFBC
:011B5C002266
:040003008F828E83D7
:03000700E493FF80
:01000A0022D3
:102A1E0053B1BF53B2BF53B17F53B27F759850437A
:102A2E008920438780438E1053C4DFAB07AA06A9C3
:102A3E0005A8047F407E427D0F7C00120C6BEF04D4
:0B2A4E00F404F58DD28ED299D2AC2298
:102413009000D5120D2153B1BF53B2BF53B17F53B7
:10242300B27F75985043878053C4F843C42090000B
:10243300D5E0F8A3E0F9A3E0FAA3E0FB7F407E42F6
:102443007D0F7C00120C6BC374FF9FFF74FF9EFE15
:10245300E49DFDE49CFC7808120D0E8FC69000D518
:10246300E0F8A3E0F9A3E0FAA3E0FB7F407E427D1E
:102473000F7C00120C6BC374FF9FFF8FC543C4080E
:03248300D29922C9
:072D6B003098FDAF99C298FA
:012D7200223E
:082D7300C2998F993099FD22ED
:102486009000D9120D2153B1FB53B2FB53B3BF5386
:10249600B4BF75F85075C40853C4DF9000D9E0F88E
:1024A600A3E0F9A3E0FAA3E0FB7F407E427D0F7C28
:1024B60000120C6BC374FF9FFF74FF9EFEE49DFD2C
:1024C600E49CFC7808120D0E8FC69000D9E0F8A3A4
:1024D600E0F9A3E0FAA3E0FB7F407E427D0F7C009B
:0E24E600120C6BC374FF9FFF8FC543C4082206
:072D7B0030F8FDAF9AC2F829
:012D8200222E
:082D8300C2F98F9A30F9FD221C
:102732009000DD120D21538EF7438901D28CE4FF04
:10274200FEFDFC9000DDE0F8A3E0F9A3E0FAA3E0CF
:10275200FBC3120CFD602F758A7E758CFF308DFDD8
:10276200C28D9000DDE0FCA3E0FDA3E0FEA3E02427
:10277200FFFFEE34FFFEED34FFFDEC34FFFC900072
:09278200DD120D2180B8C28C2289
:10278B009000E1120D21538EF7438901D28CE4FFA7
:10279B00FEFDFC9000E1E0F8A3E0F9A3E0FAA3E072
:1027AB00FBC3120CFD602F758ACA758CFA308DFD38
:1027BB00C28D9000E1E0FCA3E0FDA3E0FEA3E024CA
:1027CB00FFFFEE34FFFEED34FFFDEC34FFFC900019
:0927DB00E1120D2180B8C28C222C
:1027E4009000E5120D21538EEF438910D28EE4FF41
:1027F400FEFDFC9000E5E0F8A3E0F9A3E0FAA3E015
:10280400FBC3120CFD602F758BEA758DCB308FFDE9
:10281400C28F9000E5E0FCA3E0FDA3E0FEA3E0246A
:10282400FFFFEE34FFFEED34FFFDEC34FFFC9000BF
:09283400E5120D2180B8C28E22CC
:102620009000E9120D2153C9BF53C9DF43C910D22D
:10263000CAE4FFFEFDFC9000E9E0F8A3E0F9A3E0A6
:10264000FAA3E0FBC3120CFD602F75CC3075CDF8FA
:1026500030CFFDC2CF9000E9E0FCA3E0FDA3E0FE97
:10266000A3E024FFFFEE34FFFEED34FFFDEC34FF6A
:0C267000FC9000E9120D2180B8C2CA22C3
:10267C009000ED120D2175C40743C408E4FFFEFD64
:10268C00FC9000EDE0F8A3E0F9A3E0FAA3E0FBC3B3
:10269C00120CFD603275C52C75C6CFE5C430E4FB59
:1026AC0053C4EF9000EDE0FCA3E0FDA3E0FEA3E03B
:1026BC0024FFFFEE34FFFEED34FFFDEC34FFFC9005
:0B26CC0000ED120D2180B553C4F72271
:1026D7009000F1120D2175C40743C408E4FFFEFD05
:1026E700FC9000F1E0F8A3E0F9A3E0FAA3E0FBC354
:1026F700120CFD603275C5D875C6FFE5C430E4FB22
:1027070053C4EF9000F1E0FCA3E0FDA3E0FEA3E0DB
:1027170024FFFFEE34FFFEED34FFFDEC34FFFC90A9
:0B27270000F1120D2180B553C4F72211
:101DE3000A3D3D3D3D3D3D3D3D3D3D3D3D3D3D3D53
:101DF3003D3D3D3D3D3D3D3D3D3D3D3D3D3D3D3D10
:101E03003D3D3D3D3D3D3D3D3D3D3D3D3D3D3D3DFF
:101E13003D3D3D3D3D3D3D3D3D3D3D3D3D3D3D3DEF
:101E23003D3D3D3D3D000A2A2020436F7079726994
:101E33006768742863292032303135204E75766FF8
:101E4300746F6E20546563686E6F6C6F677920439F
:101E53006F72702E20416C6C2072696768747320F6
:101E630072657365727665642E2020000A2A20202D
:101E7300436F6E7461637420452D4D61696C3A2024
:101E83004D6963726F432D38626974406E75766F66
:101E9300746F6E2E636F6D20202020202020202061
:101EA300202020202020202020202020202020202F
:101EB30020000A2A202044656D6F205665727369DD
:101EC3006F6E20203A202532642E2532642E25326F
:101ED30064000A2A202046696E6973686564204499
:101EE300617465203A202532642E2532642E253212
:021EF300640089
:1025C1007BFF7A1D79E312141F7BFF7A1E79291292
:1025D100141F7BFF7A1E796F12141F7BFF7A1E79FD
:1025E100B5900003E4F0A304F0E4A3F0A3F0A3F09A
:1025F100A3F012141F7BFF7A1E79D5900003740794
:10260100F0A374DFF0A3E4F0A37405F0A3E4F0A356
:0F261100741FF012141F7BFF7A1D79E302141F50
:0300000002218753
:10218700787FE4F6D8FD9000007FFF7E03E4F0A39C
:0A219700DFFCDEFA7581A30221DCF3
:1021A1000229E1E493A3F8E493A34003F68001F24A
:1021B10008DFF48029E493A3F85407240CC8C3333F
:1021C100C4540F4420C8834004F456800146F6DF0E
:1021D100E4800B0102040810204080902327E47E54
:1021E100019360BCA3FF543F30E509541FFEE49303
:1021F100A360010ECF54C025E060A840B8E493A3CA
:10220100FAE493A3F8E493A3C8C582C8CAC583CAF4
:10221100F0A3C8C582C8CAC583CADFE9DEE780BEAC
:01239D00003F
:100A2000E709F608DFFA8046E709F208DFFA803EB8
:100A300088828C83E709F0A3DFFA8032E309F608A5
:100A4000DFFA8078E309F208DFFA807088828C830D
:100A5000E309F0A3DFFA806489828A83E0A3F608C1
:100A6000DFFA805889828A83E0A3F208DFFA804C9B
:100A700080D280FA80C680D4806980F28033801072
:100A800080A680EA809A80A880DA80E280CA8033DB
:100A900089828A83ECFAE493A3C8C582C8CCC58353
:100AA000CCF0A3C8C582C8CCC583CCDFE9DEE78023
:100AB0000D89828A83E493A3F608DFF9ECFAA9F0A2
:100AC000EDFB2289828A83ECFAE0A3C8C582C8CCF8
:100AD000C583CCF0A3C8C582C8CCC583CCDFEADE11
:100AE000E880DB89828A83E493A3F208DFF980CC73
:100AF00088F0EF60010E4E60C388F0ED2402B4046C
:100B00000050B9F582EB2402B4040050AF23234512
:060B10008223900A7073BD
:100B1600BB010689828A83E0225002E722BBFE02DD
:090B2600E32289828A83E4932210
:100B2F00BB010CE58229F582E5833AF583E022507B
:100B3F0006E92582F8E622BBFE06E92582F8E222C5
:0D0B4F00E58229F582E5833AF583E49322DF
:100B5C00F8BB010DE58229F582E5833AF583E8F0CF
:100B6C00225006E92582C8F622BBFE05E92582C87B
:020B7C00F22263
:100B7E00C2D5EC30E709B2D5E4C39DFDE49CFCEE92
:100B8E0030E715B2D5E4C39FFFE49EFE120E8BC371
:100B9E00E49DFDE49CFC8003120E8B30D507C3E46C
:060BAE009FFFE49EFE2201
:100BB400C5F0F8A3E028F0C5F0F8E58215827002CC
:060BC4001583E038F02269
:100BCA00A3F8E0C5F025F0F0E582158270021583DE
:060BDA00E0C838F0E8223B
:100BE000E88FF0A4CC8BF0A42CFCE98EF0A42CFCB4
:100BF0008AF0EDA42CFCEA8EF0A4CDA8F08BF0A432
:100C00002DCC3825F0FDE98FF0A42CCD35F0FCEB90
:100C10008EF0A4FEA9F0EB8FF0A4CFC5F02ECD3955
:0F0C2000FEE43CFCEAA42DCE35F0FDE43CFC22C2
:100C2F0075F008758200EF2FFFEE33FECD33CDCC7C
:100C3F0033CCC58233C5829BED9AEC99E5829840FF
:100C4F000CF582EE9BFEED9AFDEC99FC0FD5F0D6DC
:100C5F00E4CEFBE4CDFAE4CCF9A88222B800C1B906
:100C6F000059BA002DEC8BF084CFCECDFCE5F0CB44
:100C7F00F97818EF2FFFEE33FEED33FDEC33FCEB7D
:100C8F0033FB10D703994004EB99FB0FD8E5E4F938
:100C9F00FA227818EF2FFFEE33FEED33FDEC33FC25
:100CAF00C933C910D7059BE99A4007EC9BFCE99A19
:100CBF00F90FD8E0E4C9FAE4CCFB2275F010EF2F5E
:100CCF00FFEE33FEED33FDCC33CCC833C810D7075E
:100CDF009BEC9AE899400AED9BFDEC9AFCE899F899
:0E0CEF000FD5F0DAE4CDFBE4CCFAE4C8F9222C
:100CFD00EB9FF5F0EA9E42F0E99D42F0E89C45F04D
:010D0D0022C3
:100D0E00E8600FECC313FCED13FDEE13FEEF13FFC3
:030D1E00D8F122E7
:0C0D2100ECF0A3EDF0A3EEF0A3EFF02245
:100D2D00A8828583F0D083D082120D44120D441217
:100D3D000D44120D44E473E493A3C583C5F0C5833C
:100D4D00C8C582C8F0A3C583C5F0C583C8C582C810
:010D5D002273
:060D5E008A838982E47320
:1013B400E5082403F582E43400F583E0050822906F
:1013C4000000300703900003E475F001120EE00200
:1013D4000B162000E97F2ED2008018EF540F2490C2
:1013E400D43440D4FF30040BEF24BFB41A005003AC
:1013F4002461FFE50960021509050CE50C7002057E
:101404000B30070E900000E475F001120EE0EF02BD
:101414000E79022B3D7403D2078003E4C207F5085A
:10142400900000120EF7E4F509F50BF50CE50960E0
:10143400077F201213F780F5750AFFC201C200C2AC
:1014440002C203C205C206C2081213C3FF700D30E4
:1014540007057F00121408AF0CAE0B22B4255FC23F
:10146400D5C2041213C3FF24D0B40A00501A75F075
:101474000A780930D50508B6FF0106C6A426F62069
:10148400D5047002D20380D924CFB41A00EF5004DB
:10149400C2E5D204021609D20180C6D20080C0D2AD
:1014A4000280BCD2D580BAD20580B47F201213F753
:1014B4002002077401B5090040F11213B4FF12139E
:1014C400F7021431D208D20680951213B4FB12131A
:1014D400B4FA1213B4F94A4B700679DA7A167BFF20
:1014E40020022EE509602A7E008E82758300120B8D
:1014F4002F60060EEE650A70F0C2D5EBC0E0EAC0BC
:10150400E0E9C0E0EE121650D0E0F9D0E0FAD0E005
:10151400FB120B16FF60AAEBC0E0EAC0E0E9C0E0F2
:101524001213F7D0E02401F9D0E03400FAD0E0FB44
:10153400E50A0460DCD50AD980877BFF7A16794CEA
:10154400D202809C791080027908C206C208800801
:10155400D2D5790A8004790AC2D5E50A047002F565
:101564000AE4FAFDFEFF1213B4FC7B0820011312F7
:1015740013B4FD7B1030000A1213B4FE1213B4FF2F
:101584007B20EC3382D592D55013C3E43000069F00
:10159400FFE49EFEE42001039DFDE49CFCE4CBF803
:1015A400C201EC700CCFCECDCCE824F8F870F380F7
:1015B40017C3EF33FFEE33FEED33FDEC33FCEB33B7
:1015C400FB994002FB0FD8E9EB300105F8D0E0C4E9
:1015D40048B201C0E00AEC4D4E4F78207B0070C247
:1015E400EAB50A0040BCC0E0121652D0F0D0E020A8
:1015F4000104C4C0E0C4B201C0F01213E0D0F0D5BD
:10160400F0EB021431120F0014CE53154858149FF6
:101614004C149B42154C4F15544415544914B4436F
:08162400155A55153E46153E0E
:10162C0045153E4716FA5014A32D14A72E14CA2B99
:10163C0014AB2314C82016E32A146348000014C208
:10164C003F3F3F00790AA2D5200314300509B91099
:10165C00020404B9080104A2D5200602500104209A
:10166C0002689202B509005034C0E07F20300319A3
:10167C007F30A20272067205500F1216A9C202C266
:10168C0006C205C2087F30800F300503E9C0E012A6
:10169C0013F7300503D0E0F9D0E0B509CC300517CD
:1016AC007F30B9100C1213F77F583004077F788005
:1016BC0003B908031213F73002057F2D0213F77FCD
:1016CC00202008F87F2B2006F322920280CF286E70
:1016DC00756C6C2900D2011213B43001F8C2017878
:1016EC000930D50108F60214632D504349581213E2
:1016FC00B42403B405004001E49016F5931213E8EA
:0D170C00743A1213E8D2037509040215485F
:0C2D3800EE30E707C3E49FFFE49EFE229C
:100D6400E709F60870FA8046E709F20870FA803E4F
:100D740088828C83E709F0A370FA807EE309F60881
:100D840070FA8076E309F20870FA806E88828C83A8
:100D9400E309F0A370FA806289828A83E0A3F608EB
:100DA40070FA805689828A83E0A3F20870FA804A36
:100DB40080D280FA80C680D4806580F28031801031
:100DC40080A680EA809A80A880DA80E280CA803196
:100DD40089828A83ECFAE493A3C8C582C8CCC5830C
:100DE400CCF0A3C8C582C8CCC583CC70E9800D897A
:100DF400828A83E493A3F60870F9ECFAA9F0EDFB78
:100E04002289828A83ECFAE0A3C8C582C8CCC58350
:100E1400CCF0A3C8C582C8CCC583CC70EA80DD8978
:100E2400828A83E493A3F20870F980CE88F0ED24DB
:100E340002B4040050C4F582EB2402B4040050BA96
:090E44002323458223900DB473B1
:100E4D00EF4E6012EF60010EEDBB010B89828A83BC
:100E5D00F0A3DFFCDEFA2289F05007F709DFFCA9C9
:0C0E6D00F022BBFEFCF309DFFCA9F02220
:100E7900BB010689828A83F0225002F722BBFE0158
:020E8900F32252
:100E8B00BC000BBE0029EF8DF084FFADF022E4CC4B
:100E9B00F875F008EF2FFFEE33FEEC33FCEE9DEC14
:100EAB00984005FCEE9DFE0FD5F0E9E4CEFD22ED5A
:100EBB00F8F5F0EE8420D21CFEADF075F008EF2FA4
:100ECB00FFED33FD4007985006D5F0F222C398FD95
:050EDB000FD5F0EA2232
:100EE000F8E0FBA3A3E0F925F0F0E582158270029B
:070EF0001583E0FA38F0223F
:090EF700EBF0A3EAF0A3E9F022FC
:100F0000D083D082F8E4937012740193700DA3A380
:100F100093F8740193F5828883E473740293686094
:060F2000EFA3A3A380DF94
:102B3D00EFB40A07740D122B48740A309811A89936
:102B4D00B8130CC2983098FDA899C298B811F630F8
:072B5D0099FDC299F59922D0
:00000001FF
