:04179D004100E60021
:101C9B00121EFE12201C121D5C121FED121FA6122B
:101CAB0000269000A8E06002E4F09000AAE0600536
:101CBB00E4F0121B4C9000ACE06002E4F09000AF3B
:071CCB00E060DCE4F080D8CA
:071FED009000E37442F022B2
:0100220022BB
:0120140022A9
:0120150022A8
:0C1F7700900094EBF0A3EAF0A3E9F02244
:0C1F8300900097EBF0A3EAF0A3E9F02235
:101F1000900094A3E0FAA3E0F94A6003120732228A
:101F2000900097A3E0FAA3E0F94A60031207322277
:101CD200EF4E602D90008AEEF0A3EFF0AF05A3EC7B
:101CE200F0A3EFF0AF03A3EAF0A3EFF0E4A3F0A3B5
:101CF200F0A3F0A3F0900089F090008804F0121F86
:021D02001022AD
:10000E00E4900088F0121F207B007A007900121F06
:04001E0077021F83C3
:1013D700900088E0700302148B90008CE0FEA3E07D
:1013E700FF4E700302148B900089E07035D3EF94A1
:1013F70000EE9400500302148B900090E475F00106
:10140700120608FED390008BE095F090008AE09ECC
:101417005072121F20E4900090F0A3F0900089040E
:10142700F022900089E06401705A90009075F001F5
:10143700120608FED390008DE095F090008CE09E98
:10144700504290008EE0FEA3E0FF9400EE9400402F
:1014570025900092E475F001120608FCD3EF95F091
:10146700EE9C5005E4900088F0900088E0700790AB
:10147700008CF0A3F022E4900090F0A3F090008994
:05148700F0121F10220D
:1017A1004100390050003A00000000000000000034
:1017B10000000000000000500029000000000000AF
:1017C1000000000000000000000041004A0041004C
:0217D1002800EE
:101D5C00E4900039F0FE7F10FD7B017A00793A1295
:101D6C0007387E007F107D007B017A0079291207ED
:071D7C0038120FBA021DAA84
:0E164700900052EBF0A3EAF0A3E9F0A3EDF05F
:10165500E4FF000000000FEFB478F7121F4E900072
:10166500397401F0E4FF000000000FEFB478F79043
:101675000052E0FBA3E0FAA3E0F974019000296BA6
:101685007008E965827003EA6583602A7E007F1031
:101695007D007B017A007929120738900055E0FF1B
:1016A5007E0078297C007D01900052E0FBA3E0FAE2
:0616B500A3E0F912054458
:0116BB00220C
:0B0B760090004BEBF0A3EAF0A3E9F0C5
:100B8100E4A3F0A3F0A3F0A3F012056A64F26003FA
:100B9100020E1890004BE0FBA3E0FAA3E0F99000ED
:100BA10001120583D394104003020E18E490004F04
:100BB100F090004BE0FBA3E0FAA3E0F990000112F2
:100BC10005832401FFE433FE90004FE0FDC39FEE57
:100BD1006480F8748098501DED2401FFE433FE8F8A
:100BE100828E83120583FF900051E02FF090004F19
:100BF100E004F080BC90004BE0FBA3E0FAA3E0F935
:100C0100900001120583F582758300A3A312058369
:100C1100FF900051E06F6003020E187E007F107D8F
:100C2100007B017A007929120738E4900050F09096
:100C3100004BE0FBA3E0FAA3E0F990000212058368
:100C4100244FB409004003020E05900C5975F003BE
:100C5100A4C58325F0C58373020C74020DE6020D51
:100C610094020DA3020DC8020C8B020DD7020DF5E3
:100C7100020DB290004E7403F07B017A00794E9020
:100C810000567401F07F31020E0290004BE0FBA38D
:100C9100E0FAA3E0F9900003120583B401051220E4
:100CA1000B803090004BE0FBA3E0FAA3E0F9900049
:100CB10003120583B4020512200E801790004BE049
:100CC100FBA3E0FAA3E0F9900003120583B4030348
:100CD100122011900050E0FF04F074292FF582E4F6
:100CE1003400F58374F8F0900050E0FF04F07429AB
:100CF1002FF582E43400F5837402F090004BE0FBA1
:100D0100A3E0FAA3E0F9900002120583FF900050DE
:100D1100E0FE04F074292EF582E43400F583EFF04F
:100D2100122001EF9000506013E0FF04F074292FAE
:100D3100F582E43400F5837401F08011E0FF04F0E2
:100D410074292FF582E43400F5837402F0E49000F5
:100D51004FF090002AE02401FFE433FE90004FE0C1
:100D6100FDC39FEE6480F87480984003020E057401
:100D71002A2DF582E43400F583E0FF900050E02451
:100D810029F582E43400F583E02FF090004FE00470
:100D9100F080BF7B007A007900E4900056F07F3448
:100DA100805F7B007A007900E4900056F07F358007
:100DB1005090004E7403F07B017A00794E900056FA
:100DC1007401F07F32803A7B007A007900E4900070
:100DD10056F07F36802B7B007A007900E490005634
:100DE100F07F37801C7B007A007900E4900056F098
:100DF1007F38800D7B007A007900E4900056F07F07
:100E0100391211FA900050E0600D04F07B017A0074
:070E11007929E0FD121647EC
:010E180022B7
:101B4C00900039E06031121FB0EF24F0601824D0FF
:101B5C00601224207016121F8F121FF4E4900039AB
:101B6C00F0021DAA8000121F8F021FF47B017A0065
:101B7C0079297D10021BDE7B017A00793A7D1012E7
:0F1B8C001D33EF60097B017A00793A120B762244
:0120160022A7
:1017D3004100620041006300410064005000650065
:0F17E300000000000000000000000000000000F7
:0A1FA600E4900062F0A3F0A3F02223
:1011FA00900053EBF0A3EAF0A3E9F0E4900062F068
:10120A00E0FE04F074652EF582E43400F58374552B
:10121A00F0900062E0FE04F074652EF582E434007A
:10122A00F58374AAF0900056E004FE900062E0FD97
:10123A0004F074652DF582E43400F583EEF0900035
:10124A0062E0FE04F074652EF582E43400F583EF63
:10125A00F0E4900064F0900056E0FF900064E0FE35
:10126A00C39F502F900053E0FBA3E0FAA3E0F98E4E
:10127A0082758300120583FE900062E0FD04F0741B
:10128A00652DF582E43400F583EEF0900064E00405
:10129A00F080C37B017A007965EF2404FD121809F6
:1012AA00900062E0FE04F074652EF582E43400F5E5
:1012BA0083EFF0E4900064F0900056E02405FFE428
:1012CA0033FE900064E0FDC39FEE6480F87480985A
:1012DA00501774652DF582E43400F583E0FF121F80
:0A12EA00D5900064E004F080CF22EC
:10002600200A03020473C20A78A2E62480FF08E6C7
:10003600FEC3EF9E547FD3940450030204737422CC
:100046002EF8E66455600302046AEE04547F242207
:10005600F8E664AA600302046A78A3E6FF24025461
:100066007F2422F8E6900063F0FB78A2E62480FD68
:10007600E433FCC3ED9FFFEC9400FE7C007D801210
:1000860005D2EB2404FFE433FEC3ED9FEE6480F853
:10009600EC648098500302046D78A3E6FF2422F9ED
:1000A600E4FAFBE02403FD90004FEFF0A37480F028
:1000B6001215BE900063E078A3262403547F242201
:1000C600F8E66F600302046AE4900062F0FE7F10B7
:1000D600FD7B017A00792912073878A3E6FF24030D
:1000E600547F2422F8E624C970030201A914700380
:1000F60002030B14700302024E2403600302045E23
:10010600900062E0FE04F074292EF582E43400F5D6
:100116008374F8F0900063E0FE900062E0FD04F066
:1001260074292DF582E43400F583EEF0900062E048
:10013600FE04F074292EF582E43400F58374B5F0DC
:10014600EF2404547F2422F8E6FF900062E0FE04C8
:10015600F074292EF582E43400F583EFF0E4900084
:1001660064F090002AE02401FFE433FE900064E08E
:10017600FDC39FEE6480F87480985024742A2DF590
:1001860082E43400F583E0FF900062E02429F582E2
:10019600E43400F583E02FF0900064E004F080C2C0
:1001A60002044D900062E0FF04F074292FF582E40A
:1001B6003400F58374F8F0900063E0FF900062E08D
:1001C600FE04F074292EF582E43400F583EFF090F6
:1001D6000062E0FF04F074292FF582E43400F58311
:1001E60074B7F078A3E62404547F2422F8E6FF903F
:1001F6000062E0FE04F074292EF582E43400F583F3
:10020600EFF0E4900064F090002AE02401FFE4336C
:10021600FE900064E0FDC39FEE6480F87480985001
:1002260024742A2DF582E43400F583E0FF90006201
:10023600E02429F582E43400F583E02FF090006491
:10024600E004F080C202044D900062E0FF04F07406
:10025600292FF582E43400F58374F8F0900063E00A
:10026600FF900062E0FE04F074292EF582E434006B
:10027600F583EFF0900062E0FF04F074292FF58219
:10028600E43400F58374B8F078A3E6FF2404547FC1
:100296002422F8E6FE900062E0FD04F074292DF5B4
:1002A60082E43400F583EEF024FE601014600F142F
:1002B60060132403600302045EEF8005800778A3C1
:1002C600E62405802378A3E6FF2405547F2422F83C
:1002D600E6FE900062E0FD04F074292DF582E43418
:1002E60000F583EEF0EF2406547F2422F8E6FF9013
:1002F6000062E0FE04F074292EF582E43400F583F2
:10030600EFF002045E900062E0FF04F074292FF51E
:1003160082E43400F58374F8F0900063E0FF900007
:1003260062E0FE04F074292EF582E43400F583EFD2
:10033600F0900062E0FF04F074292FF582E43400A7
:10034600F58374B2F078A3E6FF2404547F2422F8E0
:10035600E6FE900062E0FD04F074292DF582E43497
:1003660000F583EEF024FE60101460331460372429
:1003760003600302040AEF802978A3E6FF240554EC
:100386007F2422F8E6FE900062E0FD04F074292D39
:10039600F582E43400F583EEF064017067802B7813
:1003A600A3E62405804478A3E6FF2405547F24228F
:1003B600F8E6FE900062E0FD04F074292DF582E473
:1003C6003400F583EEF06401703AEF2406547F247E
:1003D60022F8E6FE900062E0FD04F074292DF58215
:1003E600E43400F583EEF0EF2407547F2422F8E688
:1003F600FF900062E0FE04F074292EF582E43400DA
:10040600F583EFF0E4900064F090002AE02401FF09
:10041600E433FE900064E0FDC39FEE6480F87480D0
:10042600985024742A2DF582E43400F583E0FF9079
:100436000062E02429F582E43400F583E02FF09091
:100446000064E004F080C2900062E004F07B017A70
:10045600007929E0FD121647900063E0240478A392
:0E04660026F6800378A30678A3E6547FF622DC
:10180900900057EBF0A3EAF0A3E9F0AE05E49000ED
:10181900E4F0AF061EEF60469000E4E0FF90005749
:10182900E0FBA3E475F00112061EA9F0FA12056A9D
:101839006F9000E4F0E4A3F09000E5E0C394085051
:10184900D19000E4E030E007C313648CF080079086
:1018590000E4E0C313F09000E5E004F080DA9000C2
:04186900E4E0FF2296
:1015BE0090004BEBF0A3EAF0A3E9F0AE05E4900047
:1015CE00E4F0AF061EEF606B9000E4E0FF90004B7E
:1015DE00E0FBA3E475F00112061EA9F0FA12056AEB
:1015EE006F9000E4F090004FE004F0A3E0FF900055
:1015FE004FE0C39F4012E4F0EFFDE49DFDE4940044
:10160E0090004C8DF0120608E49000E5F09000E595
:10161E00E0C3940850AC9000E4E030E007C31364DC
:10162E008CF080079000E4E0C313F09000E5E00436
:09163E00F080DA9000E4E0FF22E4
:0120170022A6
:0120180022A5
:0120190022A4
:04200700E4FEFF22D2
:01201A0022A3
:0B1F9B007B017A00799AAD07021F302D
:01201B0022A2
:01201C0022A1
:0F1F30009000BDEBF0A3EAF0A3E9F0A3EDF022DF
:01201D0022A0
:01201E00229F
:101EFE00121EC5121FC412186D121E17121F6AD29F
:021F0E00AF2200
:0217F200C10A2A
:0D1F6A00C20A7F807E257D007C00021C6085
:03002300021D04B7
:101D0400C0E0C0D075D000C000309817C29878A247
:101D1400E6062422F8A69978A2E6C39480400276C7
:0F1D240000D20A309902C299D000D0D0D0E0325C
:0817F4004100B0004100B1000A
:101E1700121E545389F0438901538EF79000B07412
:101E2700FAF0A374C4F0758CFAF58AD2A9D28C2281
:101E5400E49000A7F09000A9F09000ADF0A3F090FA
:0C1E640000A8F09000AAF09000AFF0225F
:03000B00021526B5
:10152600C0E0C0F0C083C082C0D075D000C000C08B
:1015360001C002C003C004C005C006C0079000B0C9
:10154600E0F58CA3E0F58A12201B9000A7E004F0DA
:10155600C3940A4005E4F0A304F09000A9E004F067
:10156600C394644005E4F0A304F09000ABE004F0FB
:10157600C394F4748094814005E4F0A304F09000D1
:10158600ADE475F001120608FEC3E5F094E8EE94AA
:1015960003400A9000ADE4F0A3F0A304F0D007D016
:1015A60006D005D004D003D002D001D000D0D0D0D0
:0815B60082D083D0F0D0E032B6
:101DD0000A6D679C46F6375D4521EFAC5A50010B02
:101DE000DF020A6D679C46F6375D4521EFAC5A501D
:041DF000E10BDF0222
:0817FC004500B8CCCCCCCCCCEC
:101EC50053B3FE43B40153B3FD43B40253B1FE43D0
:031ED500B2012235
:01201F00229E
:101E3700E4FEC290EF30E704D2808002C280EF2533
:0C1E4700E0FFD290000EEEB408E8C2905C
:011E5300226C
:041ED800E4FD7FFCAA
:0F1EDC00C29100121E37AF05121E3700D291229D
:0A1B9B007B019000617405F07F3FAC
:0B1BA50090005EEBF0A3EAF0A3E9F073
:101BB000C291E4FD121E37900061E0FFEDC39F501B
:101BC0001A90005EE0FBA3E0FAA3E0F98D82758332
:0D1BD00000120583FF121E370D80DCD2913C
:011BDD0022E5
:101DF400E4FEC290EF30E704D2808002C280EF2577
:101E0400E0FFD290000EEEB408E843B10153B2FEF5
:021E1400C2907A
:011E160022A9
:101E7000E4FFFEC290EF25E0FFD2903080034401E2
:081E8000FF0EEEB408EDC29064
:011E88002237
:101EEB00C29100121DF4121E7053B1FE43B20100D9
:021EFB00D29182
:011EFD0022C2
:0B1C210090004CEBF0A3EAF0A3E9F008
:101C2C00C291121DF4E4FD90004FE0FFEDC39F50F4
:101C3C001A121E7090004CE0FBA3E0FAA3E0F98DA1
:101C4C0082758300EF1205B00D80DC53B1FE43B2F8
:031C5C0001D29121
:011C5F002262
:0E1F4E00121ED87D8E7F20121EDC00000022A5
:101DAA00E4FEFD7FFC121EDC7D8F7F20121EDCE428
:101DBA00FD7FFD121EDCE4FEFF000FBF00010EBE18
:051DCA0013F7BF88F4CF
:011DCF0022F1
:0A1FB0007F07121EEBEF5470FF22B2
:061FFB007F09121EEB221B
:071FF4007D707F27021EDC57
:0C1F8F00E4FD7FE1121EDC7FE2021EDC9C
:0E1F5C00AC07121ED8AF04AD077F25021EDCB5
:061BDE00121FB0EF703C85
:101BE40090004BF0A3F0900061EDF07FA0121BA5D4
:101BF400E4FD7FFD121EDCE490004BF0A3F00090A6
:101C0400004CE004F0700690004BE004F090004BB0
:0C1C1400E07004A3E064C870E5121ED864
:011C200022A1
:101D3300AC05121FB0EF30E61D121ED890004FEC19
:101D4300F07F61121C21121F8F121FF4E4FD7FFD2F
:091D5300121EDC7F01227F002238
:100FBA00784B7C007D017BFF7A1D79D07E007F050E
:100FCA0012054478507C007D017BFF7A1D79D57E1D
:100FDA00007F0312054478537C007D017BFF7A1D54
:100FEA0079D87E007F0612054478597C007D017B02
:100FFA00FF7A1D79DE7E007F01120544785A7C0053
:10100A007D017BFF7A1D79DF7E007F031205441282
:10101A00201F7D5A7F53121EDC7DA57F53121EDCD2
:10102A007D207F3D121EDC121ED87FE1121EDC7F5E
:10103A00E2121EDC7D707F27121EDC7D017F2212E8
:10104A001EDC7D037F23121EDC7D4E7F25121EDCF3
:10105A007D107F31121EDC7B017A0079B890006125
:10106A007405F07F30121BA57B017A0079B89000D5
:10107A00617405F07F2A121BA57A00794B121B9B1B
:10108A007B017A0079539000617406F07F3A121B53
:10109A00A57B017A0079599000617401F07F3912B9
:1010AA001BA57B017A0079509000617403F07F3EA2
:1010BA00121BA57B017A00795A9000617403F07FB4
:1010CA003B121BA5E4FD7F3C121EDC7D3F7F2612EE
:0E10DA001EDCE4FD7F24121EDC7F21021EDCE2
:0512F400900075EFF011
:1012F900E478767C007D017BFF7A1D79E2FE7F052B
:10130900120544787B7C007D017BFF7A1D79E77E9D
:10131900007F03120544787E7C007D017BFF7A1DE6
:1013290079EA7E007F0612054478847C007D017B82
:10133900FF7A1D79F07E007F0112054478857C00D3
:101349007D017BFF7A1D79F17E007F031205447DC3
:101359005A7F53121EDC7DA57F53121EDC7D207F30
:101369003D121EDC121ED8E4FF000000000FEFB48E
:10137900DCF7900075E0FD7F25121EDC7D3F7F269E
:10138900121EDC7A007976121B9B7B017A00797E2A
:101399009000617406F07F3A121BA57B017A0079EF
:1013A900849000617401F07F39121BA57B017A00DA
:1013B900797B9000617403F07F3E121BA57B017A53
:0E13C9000079859000617403F07F3B021BA544
:10186D0053B1F743B20853B1EF43B21053B3FB4337
:10187D00B40443DE01A2AF9209C2AF75C7AA75C702
:10188D005543910143C60875C7AA75C7555391FEB7
:10189D00A20992AF43DE2053DF3F43DF0353DFFB4B
:1018AD0075D10775D9D075D20175DAF475D5017575
:1018BD00DDD475C50175CDA4D2DED2DFE4FBFDFF0D
:0318CD00021F3FB8
:101E8900E4EF75F00AA4ACF0FDECF5C5AF05EFF58C
:031E9900CDD2DEC9
:011E9C002223
:101E9D00E4EF75F00AA4ACF0FDECF5D5AF05EFF568
:031EAD00DDD2DEA5
:011EB000220F
:101EB100E4EF75F00AA4ACF0FDECF5D2AF05EFF557
:031EC100DAD2DE94
:011EC40022FB
:0F1F3F00AE05121E89AF06121E9DAF03021EB122
:091FC40053B3EF43B41002200EE8
:03200B00D294224A
:03200E00C2942257
:03201100B2942264
:06200100A294E433FF226B
:0A1FBA00EF600302200B12200E223C
:041804004100B400EB
:01202000229D
:100E1900AB07AA06A9059000B5EFF0C3948050046A
:100E2900E4F080069000B57480F09000B2E4F0A37D
:100E39007480F09000B5E07C002400FEEC3AA3F049
:100E4900A3CEF09000B2E0FEA3E0FF7003EE6401D0
:100E590060369000B6E0FCA3E0F5828C83E4938FC2
:100E6900828E83F09000B4E004F09000B3E004F0C7
:100E790070069000B2E004F09000B7E004F070C38F
:100E89009000B6E004F080BBAF039000B5EFF0C36B
:100E99009480500FE02480FEE4339000B2F0A3CE9A
:100EA900F0800D9000B5E0FF9000B2E4F0A3EFF000
:100EB9009000B2E0FCA3E0F5828C83E9F0AD038DEC
:100EC900A6EAFFF5A775AEFFA2AF9209C2AF75C733
:100ED900AA75C755439F01A20992AFA2AF9209C251
:100EE900AF75C7AA75C75543A501A20992AF75AFDA
:100EF90022A2AF9209C2AF75C7AA75C75543A4010B
:100F0900A20992AF9000B5EDF0C394805004E4F0CB
:100F190080069000B57480F09000B2E4F0A374806C
:100F2900F09000B5E0F5A68FA7A2AF9209C2AF7500
:100F3900C7AA75C755439F01A20992AFA2AF9209EB
:100F4900C2AF75C7AA75C75543A501A20992AF7566
:100F5900AF219000B2E0FEA3E0FFF44E602C8F8237
:100F69008E83E0F5AEA2AF9209C2AF75C7AA75C765
:100F79005543A401A20992AF05A69000B3E004F07D
:100F890070D09000B2E004F080C8A2AF9209C2AF5D
:100F990075C7AA75C75553A5FEA20992AFA2AF920C
:100FA90009C2AF75C7AA75C755539FFEA20992AF6B
:010FB9002215
:040003008F828E83D7
:03000700E493FF80
:01000A0022D3
:101C600053B1BF53B2BF53B17F53B27F7598504346
:101C70008920438780438E1053C4DFAB07AA06A98F
:101C800005A8047F407E427D0F7C00120670EF04A1
:0B1C9000F404F58DD28ED299D2AC2264
:1016BC009000C112072653B1BF53B2BF53B17F5331
:1016CC00B27F75985043878053C4F843C420900070
:1016DC00C1E0F8A3E0F9A3E0FAA3E0FB7F407E426F
:1016EC007D0F7C00120670C374FF9FFF74FF9EFE7B
:1016FC00E49DFDE49CFC78081207138FC69000C192
:10170C00E0F8A3E0F9A3E0FAA3E0FB7F407E427D82
:10171C000F7C00120670C374FF9FFF8FC543C40873
:03172C00D299222D
:071FCD003098FDAF99C298A6
:011FD40022EA
:081FD500C2998F993099FD2299
:10172F009000C512072653B1FB53B2FB53B3BF53FF
:10173F00B4BF75F85075C40853C4DF9000C5E0F806
:10174F00A3E0F9A3E0FAA3E0FB7F407E427D0F7C8C
:10175F0000120670C374FF9FFF74FF9EFEE49DFD91
:10176F00E49CFC78081207138FC69000C5E0F8A31D
:10177F00E0F9A3E0FAA3E0FB7F407E427D0F7C00FF
:0E178F00120670C374FF9FFF8FC543C408226B
:071FDD0030F8FDAF9AC2F8D5
:011FE40022DA
:081FE500C2F98F9A30F9FD22C8
:101A41009000C9120726538EF7438901D28CE4FF17
:101A5100FEFDFC9000C9E0F8A3E0F9A3E0FAA3E0E1
:101A6100FBC3120702602F758A7E758CFF308DFDD6
:101A7100C28D9000C9E0FCA3E0FDA3E0FEA3E02439
:101A8100FFFFEE34FFFEED34FFFDEC34FFFC900070
:091A9100C912072680B8C28C229C
:101A9A009000CD120726538EF7438901D28CE4FFBA
:101AAA00FEFDFC9000CDE0F8A3E0F9A3E0FAA3E084
:101ABA00FBC3120702602F758ACA758CFA308DFD36
:101ACA00C28D9000CDE0FCA3E0FDA3E0FEA3E024DC
:101ADA00FFFFEE34FFFEED34FFFDEC34FFFC900017
:091AEA00CD12072680B8C28C223F
:101AF3009000D1120726538EEF438910D28EE4FF54
:101B0300FEFDFC9000D1E0F8A3E0F9A3E0FAA3E026
:101B1300FBC3120702602F758BEA758DCB308FFDE7
:101B2300C28F9000D1E0FCA3E0FDA3E0FEA3E0247C
:101B3300FFFFEE34FFFEED34FFFDEC34FFFC9000BD
:091B4300D112072680B8C28E22DF
:10192F009000D512072653C9BF53C9DF43C910D240
:10193F00CAE4FFFEFDFC9000D5E0F8A3E0F9A3E0B8
:10194F00FAA3E0FBC3120702602F75CC3075CDF8F8
:10195F0030CFFDC2CF9000D5E0FCA3E0FDA3E0FEA9
:10196F00A3E024FFFFEE34FFFEED34FFFDEC34FF68
:0C197F00FC9000D512072680B8C2CA22D6
:10198B009000D912072675C40743C408E4FFFEFD77
:10199B00FC9000D9E0F8A3E0F9A3E0FAA3E0FBC3C5
:1019AB00120702603275C52C75C6CFE5C430E4FB57
:1019BB0053C4EF9000D9E0FCA3E0FDA3E0FEA3E04D
:1019CB0024FFFFEE34FFFEED34FFFDEC34FFFC9003
:0B19DB0000D912072680B553C4F72284
:1019E6009000DD12072675C40743C408E4FFFEFD18
:1019F600FC9000DDE0F8A3E0F9A3E0FAA3E0FBC366
:101A0600120702603275C5D875C6FFE5C430E4FB1F
:101A160053C4EF9000DDE0FCA3E0FDA3E0FEA3E0ED
:101A260024FFFFEE34FFFEED34FFFDEC34FFFC90A7
:0B1A360000DD12072680B553C4F72224
:1010E8000A3D3D3D3D3D3D3D3D3D3D3D3D3D3D3D5B
:1010F8003D3D3D3D3D3D3D3D3D3D3D3D3D3D3D3D18
:101108003D3D3D3D3D3D3D3D3D3D3D3D3D3D3D3D07
:101118003D3D3D3D3D3D3D3D3D3D3D3D3D3D3D3DF7
:101128003D3D3D3D3D000A2A2020436F707972699C
:101138006768742863292032303135204E75766F00
:10114800746F6E20546563686E6F6C6F67792043A7
:101158006F72702E20416C6C2072696768747320FE
:1011680072657365727665642E2020000A2A202035
:10117800436F6E7461637420452D4D61696C3A202C
:101188004D6963726F432D38626974406E75766F6E
:10119800746F6E2E636F6D20202020202020202069
:1011A8002020202020202020202020202020202037
:1011B80020000A2A202044656D6F205665727369E5
:1011C8006F6E20203A202532642E2532642E253277
:1011D80064000A2A202046696E69736865642044A1
:1011E800617465203A202532642E2532642E25321A
:0211F800640091
:1018D0007BFF7A1079E812087C7BFF7A11792E124F
:1018E000087C7BFF7A11797412087C7BFF7A11796E
:1018F000BA900003E4F0A304F0E4A3F0A3F0A3F093
:10190000A3F012087C7BFF7A1179DA900003740748
:10191000F0A374DFF0A3E4F0A37405F0A3E4F0A354
:0F192000741FF012087C7BFF7A1079E802087CB4
:0300000002148C5B
:10148C00787FE4F6D8FD9000007FFF7E03E4F0A3A4
:0A149C00DFFCDEFA7581A30214E103
:1014A600021C9BE493A3F8E493A34003F68001F2A5
:1014B60008DFF48029E493A3F85407240CC8C33347
:1014C600C4540F4420C8834004F456800146F6DF16
:1014D600E4800B010204081020408090179DE47EF2
:1014E600019360BCA3FF543F30E509541FFEE4930B
:1014F600A360010ECF54C025E060A840B8E493A3D2
:10150600FAE493A3F8E493A3C8C582C8CAC583CAFC
:10151600F0A3C8C582C8CAC583CADFE9DEE780BEB4
:0118080000DF
:10047400E709F608DFFA8046E709F208DFFA803E6A
:1004840088828C83E709F0A3DFFA8032E309F60857
:10049400DFFA8078E309F208DFFA807088828C83BF
:1004A400E309F0A3DFFA806489828A83E0A3F60873
:1004B400DFFA805889828A83E0A3F208DFFA804C4D
:1004C40080D280FA80C680D4806980F28033801024
:1004D40080A680EA809A80A880DA80E280CA80338D
:1004E40089828A83ECFAE493A3C8C582C8CCC58305
:1004F400CCF0A3C8C582C8CCC583CCDFE9DEE780D5
:100504000D89828A83E493A3F608DFF9ECFAA9F053
:10051400EDFB2289828A83ECFAE0A3C8C582C8CCA9
:10052400C583CCF0A3C8C582C8CCC583CCDFEADEC2
:10053400E880DB89828A83E493A3F208DFF980CC24
:1005440088F0EF60010E4E60C388F0ED2402B4041D
:100554000050B9F582EB2402B4040050AF232345C4
:0605640082239004C47321
:10056A00BB010689828A83E0225002E722BBFE028F
:09057A00E32289828A83E49322C2
:10058300BB010CE58229F582E5833AF583E022502D
:1005930006E92582F8E622BBFE06E92582F8E22277
:0D05A300E58229F582E5833AF583E4932291
:1005B000F8BB010DE58229F582E5833AF583E8F081
:1005C000225006E92582C8F622BBFE05E92582C82D
:0205D000F22215
:1005D200C2D5EC30E709B2D5E4C39DFDE49CFCEE44
:1005E20030E715B2D5E4C39FFFE49EFE120776C33F
:1005F200E49DFDE49CFC800312077630D507C3E43A
:060602009FFFE49EFE22B2
:10060800C5F0F8A3E028F0C5F0F8E582158270027D
:060618001583E038F0221A
:10061E00A3F8E0C5F025F0F0E5821582700215838F
:06062E00E0C838F0E822EC
:1006340075F008758200EF2FFFEE33FECD33CDCC7D
:1006440033CCC58233C5829BED9AEC99E582984000
:100654000CF582EE9BFEED9AFDEC99FC0FD5F0D6DD
:10066400E4CEFBE4CDFAE4CCF9A88222B800C1B907
:100674000059BA002DEC8BF084CFCECDFCE5F0CB45
:10068400F97818EF2FFFEE33FEED33FDEC33FCEB7E
:1006940033FB10D703994004EB99FB0FD8E5E4F939
:1006A400FA227818EF2FFFEE33FEED33FDEC33FC26
:1006B400C933C910D7059BE99A4007EC9BFCE99A1A
:1006C400F90FD8E0E4C9FAE4CCFB2275F010EF2F5F
:1006D400FFEE33FEED33FDCC33CCC833C810D7075F
:1006E4009BEC9AE899400AED9BFDEC9AFCE899F89A
:0E06F4000FD5F0DAE4CDFBE4CCFAE4C8F9222D
:10070200EB9FF5F0EA9E42F0E99D42F0E89C45F04D
:0107120022C4
:10071300E8600FECC313FCED13FDEE13FEEF13FFC4
:03072300D8F122E8
:0C072600ECF0A3EDF0A3EEF0A3EFF02246
:060732008A838982E47352
:10081100E5082403F582E43400F583E0050822901D
:100821000000300703900003E475F0011207CB02CA
:10083100056A2000E97F2ED2008018EF540F249022
:10084100D43440D4FF30040BEF24BFB41A0050035A
:100851002461FFE50960021509050CE50C7002052C
:100861000B30070E900000E475F0011207CBEF0288
:100871000764021D837403D2078003E4C207F508ED
:100881009000001207E2E4F509F50BF50CE50960AB
:10089100077F2012085480F5750AFFC201C200C209
:1008A10002C203C205C206C208120820FF700D3041
:1008B10007057F00120865AF0CAE0B22B4255FC29D
:1008C100D5C204120820FF24D0B40A00501A75F0D2
:1008D1000A780930D50508B6FF0106C6A426F62018
:1008E100D5047002D20380D924CFB41A00EF50048A
:1008F100C2E5D204020A66D20180C6D20080C0D20B
:100901000280BCD2D580BAD20580B47F20120854AF
:100911002002077401B5090040F1120811FF120805
:100921005402088ED208D2068095120811FB1208D3
:1009310011FA120811F94A4B700679377A0B7BFFCD
:1009410020022EE509602A7E008E82758300120541
:100951008360060EEE650A70F0C2D5EBC0E0EAC016
:10096100E0E9C0E0EE120AADD0E0F9D0E0FAD0E063
:10097100FB12056AFF60AAEBC0E0EAC0E0E9C0E053
:10098100120854D0E02401F9D0E03400FAD0E0FBA1
:10099100E50A0460DCD50AD980877BFF7A0A79A948
:1009A100D202809C791080027908C206C2088008B0
:1009B100D2D5790A8004790AC2D5E50A047002F514
:1009C1000AE4FAFDFEFF120811FC7B082001131254
:1009D1000811FD7B1030000A120811FE120811FFE8
:1009E1007B20EC3382D592D55013C3E43000069FAF
:1009F100FFE49EFEE42001039DFDE49CFCE4CBF8B2
:100A0100C201EC700CCFCECDCCE824F8F870F380A5
:100A110017C3EF33FFEE33FEED33FDEC33FCEB3365
:100A2100FB994002FB0FD8E9EB300105F8D0E0C497
:100A310048B201C0E00AEC4D4E4F78207B0070C2F5
:100A4100EAB50A0040BCC0E0120AAFD0F0D0E02005
:100A51000104C4C0E0C4B201C0F012083DD0F0D519
:100A6100F0EB02088E1207EB092B5309A55808FC7D
:100A71004C08F84209A94F09B14409B14909114388
:080A810009B755099B46099BCA
:100A890045099B470B575009002D09042E09272BAF
:100A99000908230925200B402A08C0480000091F1E
:100AA9003F3F3F00790AA2D5200314300509B91048
:100AB900020404B9080104A2D52006025001042049
:100AC90002689202B509005034C0E07F2030031952
:100AD9007F30A20272067205500F120B06C202C2C3
:100AE90006C205C2087F30800F300503E9C0E01255
:100AF9000854300503D0E0F9D0E0B509CC3005172A
:100B09007F30B9100C1208547F583004077F788061
:100B190003B908031208543002057F2D0208547FD7
:100B2900202008F87F2B2006F322920280CF286E1E
:100B3900756C6C2900D2011208113001F8C20178D4
:100B49000930D50108F60208C02D5043495812084A
:100B5900112403B405004001E4900B529312084597
:0D0B6900743A120845D2037509040209A56B
:10073800EF4E6012EF60010EEDBB010B89828A83D8
:10074800F0A3DFFCDEFA2289F05007F709DFFCA9E5
:0C075800F022BBFEFCF309DFFCA9F0223C
:10076400BB010689828A83F0225002F722BBFE0174
:02077400F3226E
:10077600BC000BBE0029EF8DF084FFADF022E4CC67
:10078600F875F008EF2FFFEE33FEEC33FCEE9DEC30
:10079600984005FCEE9DFE0FD5F0E9E4CEFD22ED76
:1007A600F8F5F0EE8420D21CFEADF075F008EF2FC0
:1007B600FFED33FD4007985006D5F0F222C398FDB1
:0507C6000FD5F0EA224E
:1007CB00F8E0FBA3A3E0F925F0F0E58215827002B7
:0707DB001583E0FA38F0225B
:0907E200EBF0A3EAF0A3E9F02218
:1007EB00D083D082F8E4937012740193700DA3A39D
:1007FB0093F8740193F5828883E4737402936860B1
:06080B00EFA3A3A380DFB0
:101D8300EFB40A07740D121D8E740A309811A899C6
:101D9300B8130CC2983098FDA899C298B811F630C0
:071DA30099FDC299F5992298
:00000001FF
