:04176F004100E9004C
:101CDF00121F4212206A121DA012203C121FED1279
:101CEF0000269000ABE06002E4F09000ADE06005EC
:101CFF00E4F0121B909000AFE06002E4F09000B2AD
:071D0F00E060DCE4F080D885
:07203C009000E67442F0225F
:0100220022BB
:01206300225A
:012064002259
:0C1FC900900096EBF0A3EAF0A3E9F022F0
:0C1FD500900099EBF0A3EAF0A3E9F022E1
:101F5400900096A3E0FAA3E0F94A60031207722204
:101F6400900099A3E0FAA3E0F94A600312077222F1
:101D1600EF4E602D90008CEEF0A3EFF0AF05A3EC34
:101D2600F0A3EFF0AF03A3EAF0A3EFF0E4A3F0A370
:101D3600F0A3F0A3F090008BF090008A04F0121F3D
:021D4600542225
:10000E00E490008AF0121F647B007A007900121FC0
:04001E00C9021FD51F
:1014170090008AE070030214CB90008EE0FEA3E0F8
:10142700FF4E70030214CB90008BE07035D3EF941E
:1014370000EE940050030214CB900092E475F00183
:10144700120648FED390008DE095F090008CE09E48
:101457005072121F64E4900092F0A3F090008B0486
:10146700F02290008BE06401705A90009275F001B1
:10147700120648FED390008FE095F090008EE09E14
:101487005042900090E0FEA3E0FF9400EE940040ED
:1014970025900094E475F001120648FCD3EF95F00F
:1014A700EE9C5005E490008AF090008AE070079067
:1014B700008EF0A3F022E4900092F0A3F090008B4E
:0514C700F0121F542289
:101773004100390050003A00000000000000000062
:1017830000000000000000500029000000000000DD
:101793000000000000000000000041004A0041007A
:0217A30028001C
:101DA000E4900039F0FE7F10FD7B017A00793A1251
:101DB00007787E007F107D007B017A007929120769
:071DC00078120FFA021DEE7C
:0E168700900054EBF0A3EAF0A3E9F0A3EDF01D
:10169500E4FF000000000FEFB478F7121FA09000E0
:1016A500397401F0E4FF000000000FEFB478F79003
:1016B5000054E0FBA3E0FAA3E0F974019000296B64
:1016C5007008E965827003EA6583602A7E007F10F1
:1016D5007D007B017A007929120778900057E0FF99
:1016E5007E0078297C007D01900054E0FBA3E0FAA0
:0616F500A3E0F9120584D8
:0116FB0022CC
:0B0BB60090004DEBF0A3EAF0A3E9F083
:100BC100E4A3F0A3F0A3F0A3F01205AA64F260037A
:100BD100020E5890004DE0FBA3E0FAA3E0F990006B
:100BE100011205C3D394104003020E58E490005142
:100BF100F090004DE0FBA3E0FAA3E0F990000112B0
:100C010005C32401FFE433FE900051E0FDC39FEED4
:100C11006480F8748098501DED2401FFE433FE8F49
:100C2100828E831205C3FF900053E02FF090005194
:100C3100E004F080BC90004DE0FBA3E0FAA3E0F9F2
:100C41009000011205C3F582758300A3A31205C3A9
:100C5100FF900053E06F6003020E587E007F107D0D
:100C6100007B017A007929120778E4900052F09014
:100C7100004DE0FBA3E0FAA3E0F99000021205C3E6
:100C8100244FB409004003020E45900C9975F003FE
:100C9100A4C58325F0C58373020CB4020E26020D90
:100CA100D4020DE3020E08020CCB020E17020E3520
:100CB100020DF29000507403F07B017A007950909C
:100CC10000587401F07F31020E4290004DE0FBA309
:100CD100E0FAA3E0F99000031205C3B40105122064
:100CE1005A803090004DE0FBA3E0FAA3E0F99000B8
:100CF100031205C3B4020512205D801790004DE078
:100D0100FBA3E0FAA3E0F99000031205C3B40303C7
:100D1100122060900052E0FF04F074292FF582E464
:100D21003400F58374F8F0900052E0FF04F0742968
:100D31002FF582E43400F5837402F090004DE0FB5E
:100D4100A3E0FAA3E0F99000021205C3FF9000525C
:100D5100E0FE04F074292EF582E43400F583EFF00F
:100D6100122050EF9000526013E0FF04F074292F1D
:100D7100F582E43400F5837401F08011E0FF04F0A2
:100D810074292FF582E43400F5837402F0E49000B5
:100D910051F090002AE02401FFE433FE900051E07D
:100DA100FDC39FEE6480F87480984003020E457481
:100DB1002A2DF582E43400F583E0FF900052E0240F
:100DC10029F582E43400F583E02FF0900051E0042E
:100DD100F080BF7B007A007900E4900058F07F3406
:100DE100805F7B007A007900E4900058F07F3580C5
:100DF100509000507403F07B017A007950900058B4
:100E01007401F07F32803A7B007A007900E490002F
:100E110058F07F36802B7B007A007900E4900058EF
:100E2100F07F37801C7B007A007900E4900058F055
:100E31007F38800D7B007A007900E4900058F07FC4
:100E41003912123A900052E0600D04F07B017A00F1
:070E51007929E0FD1216876C
:010E58002277
:101B9000900039E06031121FF7EF24F0601824D074
:101BA000601224207016121FE1122043E4900039C5
:101BB000F0021DEE8000121FE10220437B017A003B
:101BC00079297D10021C227B017A00793A7D10125E
:0F1BD0001D77EF60097B017A00793A120BB6227C
:012065002258
:1017A500410064004100650041006600500067008B
:0F17B50000000000000000000000000000000025
:0A1FED00E4900064F0A3F0A3F022DA
:10123A00900055EBF0A3EAF0A3E9F0E4900064F023
:10124A00E0FE04F074672EF582E43400F5837455E9
:10125A00F0900064E0FE04F074672EF582E4340036
:10126A00F58374AAF0900058E004FE900064E0FD53
:10127A0004F074672DF582E43400F583EEF09000F3
:10128A0064E0FE04F074672EF582E43400F583EF1F
:10129A00F0E4900066F0900058E0FF900066E0FEEF
:1012AA00C39F502F900055E0FBA3E0FAA3E0F98E0C
:1012BA00827583001205C3FE900064E0FD04F07499
:1012CA00672DF582E43400F583EEF0900066E004C1
:1012DA00F080C37B017A007967EF2404FD12184D70
:1012EA00900064E0FE04F074672EF582E43400F5A1
:1012FA0083EFF0E4900066F0900058E02405FFE4E4
:10130A0033FE900066E0FDC39FEE6480F874809817
:10131A00501774672DF582E43400F583E0FF12203C
:0A132A0024900066E004F080CF225A
:10002600200A030204B3C20A78A2E62480FF08E687
:10003600FEC3EF9E547FD3940450030204B374228C
:100046002EF8E6645560030204AAEE04547F2422C7
:10005600F8E664AA60030204AA78A3E6FF24025421
:100066007F2422F8E6900065F0FB78A2E62480FD66
:10007600E433FCC3ED9FFFEC9400FE7C007D801210
:100086000612EB2404FFE433FEC3ED9FEE6480F812
:10009600EC64809850030204AD78A3E6FF2422F9AD
:1000A600E4FAFBE02403FD900051EFF0A37480F026
:1000B6001215FE900065E078A3262403547F2422BF
:1000C600F8E66F60030204AAE4900064F0FE7F1075
:1000D600FD7B017A00792912077878A3E6FF2403CD
:1000E600547F2422F8E624C970030201A914700380
:1000F60002034B14700302024E2403600302049EA3
:10010600900064E0FE04F074292EF582E43400F5D4
:100116008374F8F0900065E0FE900064E0FD04F062
:1001260074292DF582E43400F583EEF0900064E046
:10013600FE04F074292EF582E43400F58374B5F0DC
:10014600EF2404547F2422F8E6FF900064E0FE04C6
:10015600F074292EF582E43400F583EFF0E4900084
:1001660066F090002AE02401FFE433FE900066E08A
:10017600FDC39FEE6480F87480985024742A2DF590
:1001860082E43400F583E0FF900064E02429F582E0
:10019600E43400F583E02FF0900066E004F080C2BE
:1001A60002048D900064E0FF04F074292FF582E4C8
:1001B6003400F58374F8F0900065E0FF900064E089
:1001C600FE04F074292EF582E43400F583EFF090F6
:1001D6000064E0FF04F074292FF582E43400F5830F
:1001E60074B7F078A3E62404547F2422F8E6FF903F
:1001F6000064E0FE04F074292EF582E43400F583F1
:10020600EFF0E4900066F090002AE02401FFE4336A
:10021600FE900066E0FDC39FEE6480F874809850FF
:1002260024742A2DF582E43400F583E0FF900064FF
:10023600E02429F582E43400F583E02FF09000668F
:10024600E004F080C202048D900064E0FF04F074C4
:10025600292FF582E43400F58374F8F0900065E008
:10026600FF900064E0FE04F074292EF582E4340069
:10027600F583EFF0900064E0FF04F074292FF58217
:10028600E43400F58374B8F078A3E6FF2404547FC1
:100296002422F8E6FE900064E0FD04F074292DF5B2
:1002A60082E43400F583EEF024FE600D14600C1435
:1002B600601024037049EF8005800778A3E62405C3
:1002C600802378A3E6FF2405547F2422F8E6FE90D7
:1002D6000064E0FD04F074292DF582E43400F58312
:1002E600EEF0EF2406547F2422F8E6FF900064E047
:1002F600FE04F074292EF582E43400F583EFF0E471
:10030600900066F090002AE02401FFE433FE90009E
:1003160066E0FDC39FEE6480F87480985024742ACA
:100326002DF582E43400F583E0FF900064E0242993
:10033600F582E43400F583E02FF0900066E004F0E7
:1003460080C202048D900064E0FF04F074292FF54A
:1003560082E43400F58374F8F0900065E0FF9000C5
:1003660064E0FE04F074292EF582E43400F583EF90
:10037600F0900064E0FF04F074292FF582E4340065
:10038600F58374B2F078A3E6FF2404547F2422F8A0
:10039600E6FE900064E0FD04F074292DF582E43455
:1003A60000F583EEF024FE601014603314603724E9
:1003B60003600302044AEF802978A3E6FF2405546C
:1003C6007F2422F8E6FE900064E0FD04F074292DF7
:1003D600F582E43400F583EEF064017067802B78D3
:1003E600A3E62405804478A3E6FF2405547F24224F
:1003F600F8E6FE900064E0FD04F074292DF582E431
:100406003400F583EEF06401703AEF2406547F243D
:1004160022F8E6FE900064E0FD04F074292DF582D2
:10042600E43400F583EEF0EF2407547F2422F8E647
:10043600FF900064E0FE04F074292EF582E4340097
:10044600F583EFF0E4900066F090002AE02401FFC7
:10045600E433FE900066E0FDC39FEE6480F874808E
:10046600985024742A2DF582E43400F583E0FF9039
:100476000064E02429F582E43400F583E02FF0904F
:100486000066E004F080C2900064E004F07B017A2C
:10049600007929E0FD121687900065E0240478A310
:0E04A60026F6800378A30678A3E6547FF6229C
:10184D00900059EBF0A3EAF0A3E9F0AE05E49000A7
:10185D00E7F0AF061EEF60469000E7E0FF900059FD
:10186D00E0FBA3E475F00112065EA9F0FA1205AAD9
:10187D006F9000E7F0E4A3F09000E8E0C394085007
:10188D00D19000E7E030E007C313648CF08007903F
:10189D0000E7E0C313F09000E8E004F080DA900078
:0418AD00E7E0FF224F
:1015FE0090004DEBF0A3EAF0A3E9F0AE05E4900005
:10160E00E7F0AF061EEF606B9000E7E0FF90004D35
:10161E00E0FBA3E475F00112065EA9F0FA1205AA2A
:10162E006F9000E7F0900051E004F0A3E0FF90000F
:10163E0051E0C39F4012E4F0EFFDE49DFDE4940001
:10164E0090004E8DF0120648E49000E8F09000E80D
:10165E00E0C3940850AC9000E7E030E007C3136499
:10166E008CF080079000E7E0C313F09000E8E004F0
:09167E00F080DA9000E7E0FF22A1
:0417C40041009C0044
:012066002257
:012067002256
:012068002255
:04205600E4FEFF2283
:012069002254
:0E1F92009000EAEFF09000A4E090009CF02296
:07000300E490004BF0A3F0B4
:01000A0022D3
:01206A002253
:0F1F74009000C0EBF0A3EAF0A3E9F0A3EDF02298
:01206B002252
:01206C002251
:101F4200121F0912200B1218B1121E5B121FBCD2F3
:021F5200AF22BC
:0217C800C10A54
:0D1FBC00C20A7F807E257D007C00021CA4EF
:03002300021D4873
:101D4800C0E0C0D075D000C000309817C29878A203
:101D5800E6062422F8A69978A2E6C3948040027683
:0F1D680000D20A309902C299D000D0D0D0E03218
:0817CA004100B3004100B4002E
:101E5B00121E985389F0438901538EF79000B37487
:101E6B00FAF0A374C4F0758CFAF58AD2A9D28C223D
:101E9800E49000AAF09000ACF09000B0F0A3F090AD
:0C1EA80000ABF09000ADF09000B2F02212
:03000B0002156675
:10156600C0E0C0F0C083C082C0D075D000C000C04B
:1015760001C002C003C004C005C006C0079000B386
:10158600E0F58CA3E0F58A1200039000AAE004F0CF
:10159600C3940A4005E4F0A304F09000ACE004F024
:1015A600C394644005E4F0A304F09000AEE004F0B8
:1015B600C394F4748094814005E4F0A304F0900091
:1015C600B0E475F001120648FEC3E5F094E8EE9427
:1015D60003400A9000B0E4F0A3F0A304F0D007D0D3
:1015E60006D005D004D003D002D001D000D0D0D090
:0815F60082D083D0F0D0E03276
:101E14000A6D679C46F6375D4521EFAC5A50010BBD
:101E2400DF020A6D679C46F6375D4521EFAC5A50D8
:041E3400E10BDF02DD
:0817D2004500BBCCCCCCCCCC13
:101F090053B3FE43B40153B3FD43B40253B1FE438B
:031F1900B20122F0
:01206D002250
:101E7B00E4FEC290EF30E704D2808002C280EF25EF
:0C1E8B00E0FFD290000EEEB408E8C29018
:011E97002228
:041F1C00E4FD7FFC65
:0F1F2000C29100121E7BAF05121E7B00D29122D0
:0A1BDF007B019000637405F07F3F66
:0B1BE900900060EBF0A3EAF0A3E9F02D
:101BF400C291E4FD121E7B900063E0FFEDC39F5091
:101C04001A900060E0FBA3E0FAA3E0F98D827583EB
:0D1C1400001205C3FF121E7B0D80DCD29173
:011C210022A0
:101E3800E4FEC290EF30E704D2808002C280EF2532
:101E4800E0FFD290000EEEB408E843B10153B2FEB1
:021E5800C29036
:011E5A002265
:101EB400E4FFFEC290EF25E0FFD29030800344019E
:081EC400FF0EEEB408EDC29020
:011ECC0022F3
:101F2F00C29100121E38121EB453B1FE43B201000B
:021F3F00D2913D
:011F4100227D
:0B1C650090004EEBF0A3EAF0A3E9F0C2
:101C7000C291121E38E4FD900051E0FFEDC39F5069
:101C80001A121EB490004EE0FBA3E0FAA3E0F98D17
:101C900082758300EF1205F00D80DC53B1FE43B274
:031CA00001D291DD
:011CA300221E
:0E1FA000121F1C7D8E7F20121F2000000022C9
:101DEE00E4FEFD7FFC121F207D8F7F20121F20E45A
:101DFE00FD7FFD121F20E4FEFF000FBF00010EBE8F
:051E0E0013F7BF88F48A
:011E130022AC
:0A1FF7007F07121F2FEF5470FF2226
:06204A007F09121F2F2286
:072043007D707F27021F20C2
:0C1FE100E4FD7FE1121F207FE2021F20C0
:0E1FAE00AC07121F1CAF04AD077F25021F20D9
:061C2200121FF7EF703CF9
:101C280090004DF0A3F0900063EDF07FA0121BE947
:101C3800E4FD7FFD121F20E490004DF0A3F000901A
:101C4800004EE004F0700690004DE004F090004D66
:0C1C5800E07004A3E064C870E5121F1CDB
:011C6400225D
:101D7700AC05121FF7EF30E61D121F1C900051EC47
:101D8700F07F61121C65121FE1122043E4FD7FFD05
:091D9700121F207F01227F0022AF
:100FFA00784D7C007D017BFF7A1E79147E007F0587
:10100A0012058478527C007D017BFF7A1E79197E55
:10101A00007F0312058478557C007D017BFF7A1ED0
:10102A00791C7E007F06120584785B7C007D017B3B
:10103A00FF7A1E79227E007F01120584785C7C008B
:10104A007D017BFF7A1E79237E007F0312058412BD
:10105A00206D7D5A7F53121F207DA57F53121F20BA
:10106A007D207F3D121F20121F1C7FE1121F207F4F
:10107A00E2121F207D707F27121F207D017F22121E
:10108A001F207D037F23121F207D4E7F25121F20E4
:10109A007D107F31121F207B017A0079BB9000639B
:1010AA007405F07F30121BE97B017A0079BB90004E
:1010BA00637405F07F2A121BE97A00794D121BDF4F
:1010CA007B017A0079559000637406F07F3A121B0F
:1010DA00E97B017A00795B9000637401F07F391231
:1010EA001BE97B017A0079529000637403F07F3E1A
:1010FA00121BE97B017A00795C9000637403F07F2C
:10110A003B121BE9E4FD7F3C121F207D3F7F261224
:0E111A001F20E4FD7F24121F207F21021F20D2
:05133400900077EFF0CE
:10133900E478787C007D017BFF7A1E7926FE7F05A3
:10134900120584787D7C007D017BFF7A1E792B7ED6
:10135900007F0312058478807C007D017BFF7A1E63
:10136900792E7E007F0612058478867C007D017BBC
:10137900FF7A1E79347E007F0112058478877C000C
:101389007D017BFF7A1E79357E007F031205847DFE
:101399005A7F53121F207DA57F53121F207D207F66
:1013A9003D121F20121F1CE4FF000000000FEFB4C4
:1013B900DCF7900077E0FD7F25121F207D3F7F2617
:1013C900121F207A007978121BDF7B017A0079805D
:1013D9009000637406F07F3A121BE97B017A007969
:1013E900869000637401F07F39121BE97B017A0052
:1013F900797D9000637403F07F3E121BE97B017ACB
:0E1409000079879000637403F07F3B021BE9BB
:1018B10053B1F743B20853B1EF43B21053B3FB43F3
:1018C100B40443DE01A2AF9209C2AF75C7AA75C7BE
:1018D1005543910143C60875C7AA75C7555391FE73
:1018E100A20992AF43DE2053DF3F43DF0353DFFB07
:1018F10075D10775D9D075D20175DAF475D5017531
:10190100DDD475C50175CDA4D2DED2DFE4FBFDFFC8
:03191100021F832F
:101ECD00E4EF75F00AA4ACF0FDECF5C5AF05EFF548
:031EDD00CDD2DE85
:011EE00022DF
:101EE100E4EF75F00AA4ACF0FDECF5D5AF05EFF524
:031EF100DDD2DE61
:011EF40022CB
:101EF500E4EF75F00AA4ACF0FDECF5D2AF05EFF513
:031F0500DAD2DE4F
:011F080022B6
:0F1F8300AE05121ECDAF06121EE1AF03021EF512
:09200B0053B3EF43B41002205D51
:03205A00D29422FB
:03205D00C2942208
:03206000B2942215
:06205000A294E433FF221C
:0A200100EF600302205A12205D2256
:0417DA004100B70013
:01206E00224F
:100E5900AB07AA06A9059000B8EFF0C39480500427
:100E6900E4F080069000B87480F09000B5E4F0A337
:100E79007480F09000B8E07C002400FEEC3AA3F006
:100E8900A3CEF09000B5E0FEA3E0FF7003EE64018D
:100E990060369000B9E0FCA3E0F5828C83E4938F7F
:100EA900828E83F09000B7E004F09000B6E004F081
:100EB90070069000B5E004F09000BAE004F070C349
:100EC9009000B9E004F080BBAF039000B8EFF0C325
:100ED9009480500FE02480FEE4339000B5F0A3CE57
:100EE900F0800D9000B8E0FF9000B5E4F0A3EFF0BA
:100EF9009000B5E0FCA3E0F5828C83E9F0AD038DA9
:100F0900A6EAFFF5A775AEFFA2AF9209C2AF75C7F2
:100F1900AA75C755439F01A20992AFA2AF9209C210
:100F2900AF75C7AA75C75543A501A20992AF75AF99
:100F390022A2AF9209C2AF75C7AA75C75543A401CA
:100F4900A20992AF9000B8EDF0C394805004E4F088
:100F590080069000B87480F09000B5E4F0A3748026
:100F6900F09000B8E0F5A68FA7A2AF9209C2AF75BD
:100F7900C7AA75C755439F01A20992AFA2AF9209AB
:100F8900C2AF75C7AA75C75543A501A20992AF7526
:100F9900AF219000B5E0FEA3E0FFF44E602C8F82F4
:100FA9008E83E0F5AEA2AF9209C2AF75C7AA75C725
:100FB9005543A401A20992AF05A69000B6E004F03A
:100FC90070D09000B5E004F080C8A2AF9209C2AF1A
:100FD90075C7AA75C75553A5FEA20992AFA2AF92CC
:100FE90009C2AF75C7AA75C755539FFEA20992AF2B
:010FF90022D5
:042014008F828E83A6
:03201800E493FF4F
:01201B0022A2
:101CA40053B1BF53B2BF53B17F53B27F7598504302
:101CB4008920438780438E1053C4DFAB07AA06A94B
:101CC40005A8047F407E427D0F7C001206B0EF041D
:0B1CD400F404F58DD28ED299D2AC2220
:1016FC009000C412076653B1BF53B2BF53B17F53AE
:10170C00B27F75985043878053C4F843C42090002F
:10171C00C4E0F8A3E0F9A3E0FAA3E0FB7F407E422B
:10172C007D0F7C001206B0C374FF9FFF74FF9EFEFA
:10173C00E49DFDE49CFC78081207538FC69000C40E
:10174C00E0F8A3E0F9A3E0FAA3E0FB7F407E427D42
:10175C000F7C001206B0C374FF9FFF8FC543C408F3
:03176C00D29922ED
:07201C003098FDAF99C29856
:01202300229A
:08202400C2998F993099FD2249
:1017DF009000C812076653B1FB53B2FB53B3BF530C
:1017EF00B4BF75F85075C40853C4DF9000C8E0F853
:1017FF00A3E0F9A3E0FAA3E0FB7F407E427D0F7CDC
:10180F00001206B0C374FF9FFF74FF9EFEE49DFDA0
:10181F00E49CFC78081207538FC69000C8E0F8A329
:10182F00E0F9A3E0FAA3E0FB7F407E427D0F7C004E
:0E183F001206B0C374FF9FFF8FC543C408227A
:07202C0030F8FDAF9AC2F885
:01203300228A
:08203400C2F98F9A30F9FD2278
:101A85009000CC120766538EF7438901D28CE4FF90
:101A9500FEFDFC9000CCE0F8A3E0F9A3E0FAA3E09A
:101AA500FBC3120742602F758A7E758CFF308DFD52
:101AB500C28D9000CCE0FCA3E0FDA3E0FEA3E024F2
:101AC500FFFFEE34FFFEED34FFFDEC34FFFC90002C
:091AD500CC12076680B8C28C2215
:101ADE009000D0120766538EF7438901D28CE4FF33
:101AEE00FEFDFC9000D0E0F8A3E0F9A3E0FAA3E03D
:101AFE00FBC3120742602F758ACA758CFA308DFDB2
:101B0E00C28D9000D0E0FCA3E0FDA3E0FEA3E02494
:101B1E00FFFFEE34FFFEED34FFFDEC34FFFC9000D2
:091B2E00D012076680B8C28C22B7
:101B37009000D4120766538EEF438910D28EE4FFCC
:101B4700FEFDFC9000D4E0F8A3E0F9A3E0FAA3E0DF
:101B5700FBC3120742602F758BEA758DCB308FFD63
:101B6700C28F9000D4E0FCA3E0FDA3E0FEA3E02435
:101B7700FFFFEE34FFFEED34FFFDEC34FFFC900079
:091B8700D412076680B8C28E2258
:101973009000D812076653C9BF53C9DF43C910D2B9
:10198300CAE4FFFEFDFC9000D8E0F8A3E0F9A3E071
:10199300FAA3E0FBC3120742602F75CC3075CDF874
:1019A30030CFFDC2CF9000D8E0FCA3E0FDA3E0FE62
:1019B300A3E024FFFFEE34FFFEED34FFFDEC34FF24
:0C19C300FC9000D812076680B8C2CA224F
:1019CF009000DC12076675C40743C408E4FFFEFDF0
:1019DF00FC9000DCE0F8A3E0F9A3E0FAA3E0FBC37E
:1019EF00120742603275C52C75C6CFE5C430E4FBD3
:1019FF0053C4EF9000DCE0FCA3E0FDA3E0FEA3E006
:101A0F0024FFFFEE34FFFEED34FFFDEC34FFFC90BE
:0B1A1F0000DC12076680B553C4F722FC
:101A2A009000E012076675C40743C408E4FFFEFD90
:101A3A00FC9000E0E0F8A3E0F9A3E0FAA3E0FBC31E
:101A4A00120742603275C5D875C6FFE5C430E4FB9B
:101A5A0053C4EF9000E0E0FCA3E0FDA3E0FEA3E0A6
:101A6A0024FFFFEE34FFFEED34FFFDEC34FFFC9063
:0B1A7A0000E012076680B553C4F7229D
:101128000A3D3D3D3D3D3D3D3D3D3D3D3D3D3D3D1A
:101138003D3D3D3D3D3D3D3D3D3D3D3D3D3D3D3DD7
:101148003D3D3D3D3D3D3D3D3D3D3D3D3D3D3D3DC7
:101158003D3D3D3D3D3D3D3D3D3D3D3D3D3D3D3DB7
:101168003D3D3D3D3D000A2A2020436F707972695C
:101178006768742863292032303135204E75766FC0
:10118800746F6E20546563686E6F6C6F6779204367
:101198006F72702E20416C6C2072696768747320BE
:1011A80072657365727665642E2020000A2A2020F5
:1011B800436F6E7461637420452D4D61696C3A20EC
:1011C8004D6963726F432D38626974406E75766F2E
:1011D800746F6E2E636F6D20202020202020202029
:1011E80020202020202020202020202020202020F7
:1011F80020000A2A202044656D6F205665727369A5
:101208006F6E20203A202532642E2532642E253236
:1012180064000A2A202046696E6973686564204460
:10122800617465203A202532642E2532642E2532D9
:02123800640050
:101914007BFF7A1179281208BC7BFF7A11796E1249
:1019240008BC7BFF7A1179B41208BC7BFF7A117969
:10193400FA900003E4F0A304F0E4A3F0A3F0A3F00E
:10194400A3F01208BC7BFF7A12791A900003740783
:10195400F0A374DFF0A3E4F0A37405F0A3E4F0A310
:0F196400741FF01208BC7BFF7A1179280208BCAF
:030000000214CC1B
:1014CC00787FE4F6D8FD9000007FFF7E03E4F0A364
:0A14DC00DFFCDEFA7581A302152182
:1014E600021CDFE493A3F8E493A34003F68001F221
:1014F60008DFF48029E493A3F85407240CC8C33307
:10150600C4540F4420C8834004F456800146F6DFD5
:10151600E4800B010204081020408090176FE47EDF
:10152600019360BCA3FF543F30E509541FFEE493CA
:10153600A360010ECF54C025E060A840B8E493A391
:10154600FAE493A3F8E493A3C8C582C8CAC583CABC
:10155600F0A3C8C582C8CAC583CADFE9DEE780BE74
:0117DE00000A
:1004B400E709F608DFFA8046E709F208DFFA803E2A
:1004C40088828C83E709F0A3DFFA8032E309F60817
:1004D400DFFA8078E309F208DFFA807088828C837F
:1004E400E309F0A3DFFA806489828A83E0A3F60833
:1004F400DFFA805889828A83E0A3F208DFFA804C0D
:1005040080D280FA80C680D4806980F280338010E3
:1005140080A680EA809A80A880DA80E280CA80334C
:1005240089828A83ECFAE493A3C8C582C8CCC583C4
:10053400CCF0A3C8C582C8CCC583CCDFE9DEE78094
:100544000D89828A83E493A3F608DFF9ECFAA9F013
:10055400EDFB2289828A83ECFAE0A3C8C582C8CC69
:10056400C583CCF0A3C8C582C8CCC583CCDFEADE82
:10057400E880DB89828A83E493A3F208DFF980CCE4
:1005840088F0EF60010E4E60C388F0ED2402B404DD
:100594000050B9F582EB2402B4040050AF23234584
:0605A400822390050473A0
:1005AA00BB010689828A83E0225002E722BBFE024F
:0905BA00E32289828A83E4932282
:1005C300BB010CE58229F582E5833AF583E02250ED
:1005D30006E92582F8E622BBFE06E92582F8E22237
:0D05E300E58229F582E5833AF583E4932251
:1005F000F8BB010DE58229F582E5833AF583E8F041
:10060000225006E92582C8F622BBFE05E92582C8EC
:02061000F222D4
:10061200C2D5EC30E709B2D5E4C39DFDE49CFCEE03
:1006220030E715B2D5E4C39FFFE49EFE1207B6C3BE
:10063200E49DFDE49CFC80031207B630D507C3E4B9
:060642009FFFE49EFE2272
:10064800C5F0F8A3E028F0C5F0F8E582158270023D
:060658001583E038F022DA
:10065E00A3F8E0C5F025F0F0E5821582700215834F
:06066E00E0C838F0E822AC
:1006740075F008758200EF2FFFEE33FECD33CDCC3D
:1006840033CCC58233C5829BED9AEC99E5829840C0
:100694000CF582EE9BFEED9AFDEC99FC0FD5F0D69D
:1006A400E4CEFBE4CDFAE4CCF9A88222B800C1B9C7
:1006B4000059BA002DEC8BF084CFCECDFCE5F0CB05
:1006C400F97818EF2FFFEE33FEED33FDEC33FCEB3E
:1006D40033FB10D703994004EB99FB0FD8E5E4F9F9
:1006E400FA227818EF2FFFEE33FEED33FDEC33FCE6
:1006F400C933C910D7059BE99A4007EC9BFCE99ADA
:10070400F90FD8E0E4C9FAE4CCFB2275F010EF2F1E
:10071400FFEE33FEED33FDCC33CCC833C810D7071E
:100724009BEC9AE899400AED9BFDEC9AFCE899F859
:0E0734000FD5F0DAE4CDFBE4CCFAE4C8F922EC
:10074200EB9FF5F0EA9E42F0E99D42F0E89C45F00D
:010752002284
:10075300E8600FECC313FCED13FDEE13FEEF13FF84
:03076300D8F122A8
:0C076600ECF0A3EDF0A3EEF0A3EFF02206
:060772008A838982E47312
:10085100E5082403F582E43400F583E005082290DD
:100861000000300703900003E475F00112080B0249
:1008710005AA2000E97F2ED2008018EF540F2490A2
:10088100D43440D4FF30040BEF24BFB41A0050031A
:100891002461FFE50960021509050CE50C700205EC
:1008A1000B30070E900000E475F00112080BEF0207
:1008B10007A4021DC77403D2078003E4C207F50829
:1008C100900000120822E4F509F50BF50CE509602A
:1008D100077F2012089480F5750AFFC201C200C289
:1008E10002C203C205C206C208120860FF700D30C1
:1008F10007057F001208A5AF0CAE0B22B4255FC21D
:10090100D5C204120860FF24D0B40A00501A75F051
:100911000A780930D50508B6FF0106C6A426F620D7
:10092100D5047002D20380D924CFB41A00EF500449
:10093100C2E5D204020AA6D20180C6D20080C0D28A
:100941000280BCD2D580BAD20580B47F201208942F
:100951002002077401B5090040F1120851FF120885
:10096100940208CED208D2068095120851FB1208D3
:1009710051FA120851F94A4B700679777A0B7BFFCD
:1009810020022EE509602A7E008E82758300120501
:10099100C360060EEE650A70F0C2D5EBC0E0EAC096
:1009A100E0E9C0E0EE120AEDD0E0F9D0E0FAD0E0E3
:1009B100FB1205AAFF60AAEBC0E0EAC0E0E9C0E0D3
:1009C100120894D0E02401F9D0E03400FAD0E0FB21
:1009D100E50A0460DCD50AD980877BFF7A0A79E9C8
:1009E100D202809C791080027908C206C208800870
:1009F100D2D5790A8004790AC2D5E50A047002F5D4
:100A01000AE4FAFDFEFF120851FC7B0820011312D3
:100A11000851FD7B1030000A120851FE120851FFE7
:100A21007B20EC3382D592D55013C3E43000069F6E
:100A3100FFE49EFEE42001039DFDE49CFCE4CBF871
:100A4100C201EC700CCFCECDCCE824F8F870F38065
:100A510017C3EF33FFEE33FEED33FDEC33FCEB3325
:100A6100FB994002FB0FD8E9EB300105F8D0E0C457
:100A710048B201C0E00AEC4D4E4F78207B0070C2B5
:100A8100EAB50A0040BCC0E0120AEFD0F0D0E02085
:100A91000104C4C0E0C4B201C0F012087DD0F0D599
:100AA100F0EB0208CE12082B096B5309E558093CFB
:100AB1004C09384209E94F09F14409F14909514307
:080AC10009F75509DB4609DBCA
:100AC9004509DB470B975009402D09442E09672B2F
:100AD9000948230965200B802A0900480000095F9D
:100AE9003F3F3F00790AA2D5200314300509B91008
:100AF900020404B9080104A2D52006025001042009
:100B090002689202B509005034C0E07F2030031911
:100B19007F30A20272067205500F120B46C202C242
:100B290006C205C2087F30800F300503E9C0E01214
:100B39000894300503D0E0F9D0E0B509CC300517A9
:100B49007F30B9100C1208947F583004077F7880E1
:100B590003B908031208943002057F2D0208947F17
:100B6900202008F87F2B2006F322920280CF286EDE
:100B7900756C6C2900D2011208513001F8C2017854
:100B89000930D50108F60209002D504349581208C9
:100B9900512403B405004001E4900B929312088597
:0D0BA900743A120885D2037509040209E5AB
:10077800EF4E6012EF60010EEDBB010B89828A8398
:10078800F0A3DFFCDEFA2289F05007F709DFFCA9A5
:0C079800F022BBFEFCF309DFFCA9F022FC
:1007A400BB010689828A83F0225002F722BBFE0134
:0207B400F3222E
:1007B600BC000BBE0029EF8DF084FFADF022E4CC27
:1007C600F875F008EF2FFFEE33FEEC33FCEE9DECF0
:1007D600984005FCEE9DFE0FD5F0E9E4CEFD22ED36
:1007E600F8F5F0EE8420D21CFEADF075F008EF2F80
:1007F600FFED33FD4007985006D5F0F222C398FD71
:050806000FD5F0EA220D
:10080B00F8E0FBA3A3E0F925F0F0E5821582700276
:07081B001583E0FA38F0221A
:09082200EBF0A3EAF0A3E9F022D7
:10082B00D083D082F8E4937012740193700DA3A35C
:10083B0093F8740193F5828883E473740293686070
:06084B00EFA3A3A380DF70
:101DC700EFB40A07740D121DD2740A309811A8993E
:101DD700B8130CC2983098FDA899C298B811F6307C
:071DE70099FDC299F5992254
:00000001FF
