:0D1ADE004920616D20616C6976650D0A007C
:04131E004100A800E2
:10184F001219BB1218A7121B46900077E06002E432
:10185F00F0900079E06005E4F01216D090007CE083
:0F186F0060E7E4F07BFF7A1A79DE1206D080DAA8
:071B46009000A97442F02297
:011B70002252
:011B71002251
:011B72002250
:0C1AEB00900070EBF0A3EAF0A3E9F022F9
:0C1AF700900073EBF0A3EAF0A3E9F022EA
:101AA100900070A3E0FAA3E0F94A6003120C4E2201
:101AB100900073A3E0FAA3E0F94A6003120C4E22EE
:10181D00EF4E602D900066EEF0A3EFF0AF05A3EC58
:10182D00F0A3EFF0AF03A3EAF0A3EFF0E4A3F0A36E
:10183D00F0A3F0A3F0900065F090006404F0121A8C
:02184D00A122D6
:101A0500E4900064F0121AB17B007A007900121A92
:041A1500EB021AF7CF
:100FE900900064E0700302109D900068E0FEA3E0A9
:100FF900FF4E700302109D900065E07035D3EF94A9
:1010090000EE9400500302109D90006CE475F0010D
:10101900120B3AFED3900067E095F0900066E09ECF
:101029005072121AB1E490006CF0A3F090006504BC
:10103900F022900065E06401705A90006C75F0012F
:10104900120B3AFED3900069E095F0900068E09E9B
:10105900504290006AE0FEA3E0FF9400EE94004045
:101069002590006EE475F001120B3AFCD3EF95F070
:10107900EE9C5005E4900064F0900064E0700790E5
:101089000068F0A3F022E490006CF0A3F0900065F2
:05109900F0121AA12273
:1011380072637620253032582025303258202530E9
:101148003258202530325820253032582025303268
:10115800580D0A00504F5745525F53484F52545F3D
:10116800434D440D0A00504F5745525F4C4F4E4770
:101178005F434D440D0A004143435F434D440D0A0C
:101188000055505F434D440D0A00444F574E5F438E
:101198004D440D0A00564F4C5F4144445F434D4453
:1011A8000D0A00564F4C5F4D494E55535F434D4411
:1011B8000D0A00504C41595F434D440D0A004D4FF4
:0911C80044455F434D440D0A004B
:1013220041003F00500040000000000000000000AB
:101332000000000000000050002F0000000000002C
:1013420000000000000000000000410050004100C9
:101352002E002020220000000000000000000000FB
:10136200000000000000000000000000000000007B
:05137200000000000076
:1018A700E490003FF0FE7F10FD7B017A0079401243
:1018B7000C547E007F107D007B017A00792F120C7B
:0718C70054120CC60218F5D3
:1012B200900084EBF0A3EAF0A3E9F0A3EDF0D3945D
:1012C200105058000000001219EE90003F7401F017
:1012D20000000000900084E0FBA3E0FAA3E0F974B0
:1012E2000190002F6B7008E965827003EA658360E4
:1012F2002A7E007F107D007B017A00792F120C5428
:10130200900087E0FF7E00782F7C007D01900084B2
:0C131200E0FBA3E0FAA3E0F9120A9A2223
:0B000E00900000EBF0A3EAF0A3E9F083
:10001900E4A3F0A3F0A3F090000974FFF0A3741116
:10002900F0A37438F0900000E0FBA3E0FAA3E0F934
:10003900120AC0FF90000CE4F0A3EFF09000011247
:100049000AD9FF90000EE4F0A3EFF0900002120A23
:10005900D9FF900010E4F0A3EFF0900003120AD941
:10006900FF900012E4F0A3EFF0900004120AD9FF08
:10007900900014E4F0A3EFF0900005120AD9FF9064
:100089000016E4F0A3EFF07B007A0079221206CA89
:100099007B007A0079221206D0900000E0FBA3E0F1
:1000A900FAA3E0F9120AC064F26003020664900040
:1000B90001120AD9D394104003020664E4900003A4
:1000C900F0900000E0FBA3E0FAA3E0F99000011230
:1000D9000AD92401FFE433FE900003E0FDC39FEE3B
:1000E9006480F8748098501DED2401FFE433FE8F7D
:1000F900828E83120AD9FF900005E02FF090000349
:10010900E004F080BC900000E0FBA3E0FAA3E0F972
:10011900900001120AD9F582758300A3A3120AD9A6
:10012900FF900005E06F60030206647E007F107D8A
:10013900007B017A00792F120C54E4900004F090AE
:100149000000E0FBA3E0FAA3E0F9900002120AD94B
:10015900244FB40A00400302064B90017175F00365
:10016900A4C58325F0C5837302018F02054B0203E1
:100179008502038E02039702027602047102055476
:1001890002064B0201987BFF7A11795C02064890BE
:100199000000E0FBA3E0FAA3E0F9900003120AD9FA
:1001A900FFB401028019EFB40207E490002EF08039
:1001B90014EFB4031090002EE06004E4F080069080
:1001C900002E7401F0900004E0FF04F0742F2FF565
:1001D90082E43400F58374F8F0900004E0FF04F041
:1001E900742F2FF582E43400F5837402F0F58275DB
:1001F9008300120AD9FF900004E0FE04F0742F2E48
:10020900F582E43400F583EFF090002EE0FF9000D2
:1002190004E0FE04F0742F2EF582E43400F583EF38
:10022900F0E4900003F0900030E02401FFE433FE95
:10023900900003E0FDC39FEE6480F8748098502419
:1002490074302DF582E43400F583E0FF900004E07A
:10025900242FF582E43400F583E02FF0900003E0C9
:1002690004F080C27BFF7A11796E02064890000083
:10027900E0FBA3E0FAA3E0F9900003120AD9B40164
:1002890005121B678030900000E0FBA3E0FAA3E0B1
:10029900F9900003120AD9B40205121B6A8017905B
:1002A9000000E0FBA3E0FAA3E0F9900003120AD9E9
:1002B900B40303121B6D900004E0FF04F0742F2FA8
:1002C900F582E43400F58374F8F0900004E0FF044B
:1002D900F0742F2FF582E43400F5837402F0900056
:1002E90000E0FBA3E0FAA3E0F9900002120AD9FFAB
:1002F900900004E0FE04F0742F2EF582E43400F53A
:1003090083EFF0121B61EF9000046013E0FF04F02B
:10031900742F2FF582E43400F5837401F08011E025
:10032900FF04F0742F2FF582E43400F5837402F092
:10033900E4900003F0900030E02401FFE433FE90E4
:100349000003E0FDC39FEE6480F874809850247424
:10035900302DF582E43400F583E0FF900004E024B9
:100369002FF582E43400F583E02FF0900003E004D8
:10037900F080C27BFF7A11797F0206487BFF7A11F0
:1003890079890206487BFF7A117992020648900022
:1003990000E0FBA3E0FAA3E0F9900003120AD9FFF9
:1003A900B40111900050E004F0E0D3941E401174A0
:1003B9001EF0800CEFB40208900050E0600214F0C7
:1003C900900004E0FF04F0742F2FF582E43400F567
:1003D9008374F8F0900004E0FF04F0742F2FF58285
:1003E900E43400F5837402F0F582758300120AD9AA
:1003F900FF900004E0FE04F0742F2EF582E434002F
:10040900F583EFF0900050E0FF900004E0FE04F067
:10041900742F2EF582E43400F583EFF0E4900003A5
:10042900F0900030E02401FFE433FE900003E0FD8A
:10043900C39FEE6480F8748098502474302DF5823F
:10044900E43400F583E0FF900004E0242FF582E412
:100459003400F583E02FF0900003E004F080C27BC4
:10046900FF7A11799D020648900000E0FBA3E0FAAB
:10047900A3E0F9900003120AD9FFB40111900050CA
:10048900E004F0E0D3941E4011741EF0800CEFB428
:100499000208900050E0600214F0900004E0FF04AC
:1004A900F0742F2FF582E43400F58374F8F090008E
:1004B90004E0FF04F0742F2FF582E43400F583740F
:1004C90002F0F582758300120AD9FF900004E0FE5C
:1004D90004F0742F2EF582E43400F583EFF09000D8
:1004E90050E0FF900004E0FE04F0742F2EF582E442
:1004F9003400F583EFF0E4900003F0900030E0243D
:1005090001FFE433FE900003E0FDC39FEE6480F831
:10051900748098502474302DF582E43400F583E01A
:10052900FF900004E0242FF582E43400F583E02FE6
:10053900F0900003E004F080C27BFF7A1179AB02EE
:1005490006487BFF7A1179BB020648900000E0FB60
:10055900A3E0FAA3E0F9900003120AD9B40132909A
:1005690000A9E024BF601C24FB601024F1601C2456
:1005790013701E9000A97446F080169000A974416A
:10058900F0800E9000A97455F080069000A974427D
:10059900F0900004E0FF04F0742F2FF582E434009A
:1005A900F58374F8F0900004E0FF04F0742F2FF540
:1005B90082E43400F5837402F0900000E0FBA3E0CC
:1005C900FAA3E0F9900002120AD9FF900004E0FEB4
:1005D90004F0742F2EF582E43400F583EFF09000D7
:1005E900A9E0FF900004E0FE04F0742F2EF582E4E8
:1005F9003400F583EFF0E4900003F0900030E0243C
:1006090001FFE433FE900003E0FDC39FEE6480F830
:10061900748098502474302DF582E43400F583E019
:10062900FF900004E0242FF582E43400F583E02FE5
:10063900F0900003E004F080C27BFF7A1179C612C2
:1006490006D0900004E0601304F0000000001219C5
:0B065900EE90003F7401F00000000074
:010664002273
:1016D00090003FE06031121B1AEF24F0601824D014
:1016E000601224207016121B03121B4DE490003F61
:1016F000F00218F58000121B03021B4D7B017A00DB
:10170000792F7D100217627B017A0079407D1012DB
:0F171000187EEF60097B017A00794012000E22EB
:1019BB00121A68121B541213F11219627F007EC2A5
:0A19CB007D017C001217E4D2AF2268
:0B1B0F007F807E257D007C00021244D8
:101A550030F80BE59A120B06C2F8D20A8002C20AC8
:021A6500A20AD3
:011A6700225C
:0813770041007D0041007E00F1
:1019620012199F5389F0438901538EF790007D74B9
:10197200FAF0A374C4F0758CFAF58AD2A9D28C223B
:10199F00E4900076F0900078F090007AF0A3F09049
:0C19AF000077F0900079F090007CF022AE
:03000B0002138855
:10138800C0E0C0F0C083C082C0D075D000C000C02B
:101398000690007DE0F58CA3E0F58A900076E004E5
:1013A800F0C3940A4005E4F0A304F0900078E00448
:1013B800F0C394644005E4F0A304F090007AE47567
:1013C800F001120B3AFEC3E5F094E8EE9403400AEC
:1013D80090007AE4F0A3F0A304F0D006D000D0D0B7
:0913E800D082D083D0F0D0E032B5
:10191B000A6D679C46F6375D4521EFAC5A50010BBB
:10192B00DF020A6D679C46F6375D4521EFAC5A50D6
:04193B00E10BDF02DB
:08137F0045007FCCCCCCCCCCA6
:101A680053B3FE43B40153B3FD43B40253B1FE4331
:031A7800B2012296
:011B7300224F
:10198200E4FEC290EF30E704D2808002C280EF25ED
:0C199200E0FFD290000EEEB408E8C29016
:01199E002226
:041A7B00E4FD7FFC0B
:0F1A7F00C29100121982AF0512198200D2912272
:0A171F007B019000167405F07F3F77
:0B172900900013EBF0A3EAF0A3E9F03E
:10173400C291E4FD121982900016E0FFEDC39F50A0
:101744001A900013E0FBA3E0FAA3E0F98D827583FD
:0D17540000120AD9FF1219820D80DCD2911B
:011761002265
:10193F00E4FEC290EF30E704D2808002C280EF2530
:10194F00E0FFD290000EEEB408E843B10153B2FEAF
:02195F00C29034
:011961002263
:1019D500E4FFFEC290EF25E0FFD290308003440182
:0819E500FF0EEEB408EDC29004
:0119ED0022D7
:101A8E00C2910012193F1219D553B1FE43B2010093
:021A9E00D291E3
:011AA0002223
:0B17A500900001EBF0A3EAF0A3E9F0D4
:1017B000C29112193FE4FD900004E0FFEDC39F5079
:1017C0001A1219D5900001E0FBA3E0FAA3E0F98D0D
:1017D00082758300EF120B180D80DC53B1FE43B20B
:0317E00001D291A2
:0117E30022E3
:1019EE00121A7B7D8E7F20121A7F000000000000ED
:0719FE0000000000000022C0
:1018F500E4FEFD7FFC121A7F7D8F7F20121A7FE4A4
:10190500FD7FFD121A7FE4FEFF000FBF00010EBE32
:0519150007F7BFD0F44C
:01191A0022AA
:0A1B1A007F07121A8EEF5470FF22AD
:061B5B007F09121A8E2220
:071B4D007D707F27021A7F63
:0C1B0300E4FD7FE1121A7F7FE2021A7FEE
:0E1AD000AC07121A7BAF04AD077F25021A7F08
:06176200121B1AEF703C9F
:10176800900000F0A3F0900016EDF07FA01217296A
:10177800E4FD7FFD121A7FE4900000F0A3F00090D2
:101788000001E004F07006900000E004F090000012
:0C179800E07004A3E064C870E5121A7B46
:0117A4002222
:10187E00AC05121B1AEF30E61D121A7B900004EC19
:10188E00F07F611217A5121B03121B4DE4FD7FFDA5
:09189E00121A7F7F01227F002253
:100CC60078007C007D017BFF7A19791B7E007F0509
:100CD600120A9A78057C007D017BFF7A1979207EBD
:100CE600007F03120A9A78087C007D017BFF7A193F
:100CF60079237E007F06120A9A780E7C007D017B9E
:100D0600FF7A1979297E007F01120A9A780F7C00F2
:100D16007D017BFF7A19792A7E007F03120A9A12D7
:100D26001B737D5A7F53121A7F7DA57F53121A7F3C
:100D36007D207F3D121A7F121A7B7FE1121A7F7F78
:100D4600E2121A7F7D707F27121A7F7D017F2212A1
:100D56001A7F7D037F23121A7F7D4E7F25121A7F0D
:100D66007D107F31121A7F7B017A00797F90001601
:100D76007405F07F301217297B017A00797F900085
:100D8600167405F07F2A1217297A00790012171FA8
:100D96007B017A0079089000167406F07F3A1217E4
:100DA600297B017A00790E9000167401F07F3912C2
:100DB60017297B017A0079059000167403F07F3EAF
:100DC6001217297B017A00790F9000167403F07FC1
:100DD6003B121729E4FD7F3C121A7F7D3F7F2612C6
:0E0DE6001A7FE4FD7F24121A7F7F21021A7FFC
:050F0600900051EFF026
:100F0B00E478527C007D017BFF7A19792DFE7F05F9
:100F1B00120A9A78577C007D017BFF7A1979327E11
:100F2B00007F03120A9A785A7C007D017BFF7A19A5
:100F3B0079357E007F06120A9A78607C007D017BF2
:100F4B00FF7A19793B7E007F01120A9A78617C0047
:100F5B007D017BFF7A19793C7E007F03120A9A7D13
:100F6B005A7F53121A7F7DA57F53121A7F7D207FE4
:100F7B003D121A7F121A7BE4FF000000000FEFB442
:100F8B00DCF7900051E0FD7F25121A7F7D3F7F2615
:100F9B00121A7F7A00795212171F7B017A00795A45
:100FAB009000167406F07F3A1217297B017A0079AC
:100FBB00609000167401F07F391217297B017A00BB
:100FCB0079579000167403F07F3E1217297B017A34
:0E0FDB000079619000167403F07F3B02172925
:1013F10053B1F743B20853B1EF43B21053B3FB43B8
:10140100B40443DE01A2AF9209C2AF75C7AA75C782
:101411005543910143C60875C7AA75C7555391FE37
:10142100A20992AF43DE2053DF3F43DF0353DFFBCB
:1014310075D10775D9D075D20175DAF475D50175F5
:10144100DDD475C50175CDA4D2DED2DFE4FBFDFF8D
:03145100021AC1BB
:101A1900E4EF75F00AA4ACF0FDECF5C5AF05EFF500
:031A2900CDD2DE3D
:011A2C002297
:101A2D00E4EF75F00AA4ACF0FDECF5D5AF05EFF5DC
:031A3D00DDD2DE19
:011A40002283
:101A4100E4EF75F00AA4ACF0FDECF5D2AF05EFF5CB
:031A5100DAD2DE08
:011A5400226F
:0F1AC100AE05121A19AF06121A2DAF03021A4101
:071B540053B3EF43B410226C
:031B6700D29422F3
:031B6A00C2942200
:031B6D00B294220D
:061B6100A294E433FF2210
:0A1B2400EF6003021B67121B6A2228
:1017E40053B1BF53B2BF53B17F53B27F75985043C7
:1017F4008920438780438E1053C4DFAB07AA06A910
:1018040005A8047F407E427D0F7C00120B8CEF0400
:09181400F404F58DD28ED2992264
:1011D100900088120C4253B1BF53B2BF53B17F5339
:1011E100B27F75985043878053C4F843C420900060
:1011F10088E0F8A3E0F9A3E0FAA3E0FB7F407E4298
:101201007D0F7C00120B8CC374FF9FFF74FF9EFE49
:10121100E49DFDE49CFC7808120C2F8FC690008899
:10122100E0F8A3E0F9A3E0FAA3E0FB7F407E427D72
:101231000F7C00120B8CC374FF9FFF8FC543C40842
:03124100D299221D
:070003003098FDAF99C2988F
:01000A0022D3
:081B2E00C2998F993099FD2244
:1012440090008C120C4253B1FB53B2FB53B3BF5307
:10125400B4BF75F85075C40853C4DF90008CE0F82F
:10126400A3E0F9A3E0FAA3E0FB7F407E427D0F7C7C
:1012740000120B8CC374FF9FFF74FF9EFEE49DFD60
:10128400E49CFC7808120C2F8FC690008CE0F8A325
:10129400E0F9A3E0FAA3E0FB7F407E427D0F7C00EF
:0E12A400120B8CC374FF9FFF8FC543C408223A
:071B360030F8FDAF9AC2F880
:011B3D002285
:081B3E00C2F98F9A30F9FD2273
:1015C500900090120C42538EF7438901D28CE4FFB0
:1015D500FEFDFC900090E0F8A3E0F9A3E0FAA3E09B
:1015E500FBC3120C1E602F758A7E758CFF308DFD36
:1015F500C28D900090E0FCA3E0FDA3E0FEA3E024F3
:10160500FFFFEE34FFFEED34FFFDEC34FFFC9000F0
:0916150090120C4280B8C28C2234
:10161E00900094120C42538EF7438901D28CE4FF52
:10162E00FEFDFC900094E0F8A3E0F9A3E0FAA3E03D
:10163E00FBC3120C1E602F758ACA758CFA308DFD95
:10164E00C28D900094E0FCA3E0FDA3E0FEA3E02495
:10165E00FFFFEE34FFFEED34FFFDEC34FFFC900097
:09166E0094120C4280B8C28C22D7
:10167700900098120C42538EEF438910D28EE4FFEC
:10168700FEFDFC900098E0F8A3E0F9A3E0FAA3E0E0
:10169700FBC3120C1E602F758BEA758DCB308FFD47
:1016A700C28F900098E0FCA3E0FDA3E0FEA3E02436
:1016B700FFFFEE34FFFEED34FFFDEC34FFFC90003E
:0916C70098120C4280B8C28E2278
:1014B30090009C120C4253C9BF53C9DF43C910D2D9
:1014C300CAE4FFFEFDFC90009CE0F8A3E0F9A3E072
:1014D300FAA3E0FBC3120C1E602F75CC3075CDF858
:1014E30030CFFDC2CF90009CE0FCA3E0FDA3E0FE63
:1014F300A3E024FFFFEE34FFFEED34FFFDEC34FFE9
:0C150300FC90009C120C4280B8C2CA226E
:10150F009000A0120C4275C40743C408E4FFFEFD0F
:10151F00FC9000A0E0F8A3E0F9A3E0FAA3E0FBC37E
:10152F00120C1E603275C52C75C6CFE5C430E4FBB6
:10153F0053C4EF9000A0E0FCA3E0FDA3E0FEA3E006
:10154F0024FFFFEE34FFFEED34FFFDEC34FFFC9083
:0B155F0000A0120C4280B553C4F7221C
:10156A009000A4120C4275C40743C408E4FFFEFDB0
:10157A00FC9000A4E0F8A3E0F9A3E0FAA3E0FBC31F
:10158A00120C1E603275C5D875C6FFE5C430E4FB7F
:10159A0053C4EF9000A4E0FCA3E0FDA3E0FEA3E0A7
:1015AA0024FFFFEE34FFFEED34FFFDEC34FFFC9028
:0B15BA0000A4120C4280B553C4F722BD
:100DF4000A3D3D3D3D3D3D3D3D3D3D3D3D3D3D3D52
:100E04003D3D3D3D3D3D3D3D3D3D3D3D3D3D3D3D0E
:100E14003D3D3D3D3D3D3D3D3D3D3D3D3D3D3D3DFE
:100E24003D3D3D3D3D3D3D3D3D3D3D3D3D3D3D3DEE
:100E34003D3D3D3D3D000A2A2020436F7079726993
:100E44006768742863292032303135204E75766FF7
:100E5400746F6E20546563686E6F6C6F677920439E
:100E64006F72702E20416C6C2072696768747320F5
:100E740072657365727665642E2020000A2A20202C
:100E8400436F6E7461637420452D4D61696C3A2023
:100E94004D6963726F432D38626974406E75766F65
:100EA400746F6E2E636F6D20202020202020202060
:100EB400202020202020202020202020202020202E
:100EC40020000A2A202044656D6F205665727369DC
:100ED4006F6E20203A202532642E2532642E25326E
:100EE40064000A2A202046696E6973686564204498
:100EF400617465203A202532642E2532642E253211
:020F0400640087
:101454007BFF7A0D79F41206D07BFF7A0E793A126B
:1014640006D07BFF7A0E79801206D07BFF7A0E7944
:10147400C6900009E4F0A304F0E4A3F0A3F0A3F001
:10148400A3F01206D07BFF7A0E79E6900009740768
:10149400F0A374DFF0A3E4F0A37405F0A3E4F0A3D5
:0F14A400741FF01206D07BFF7A0D79F40206D088
:0300000002109E4D
:10109E00787FE4F6D8FD9000007FFF7E03E4F0A396
:0A10AE00DFFCDEFA7581410210F349
:1010B80002184FE493A3F8E493A34003F68001F2E7
:1010C80008DFF48029E493A3F85407240CC8C33339
:1010D800C4540F4420C8834004F456800146F6DF08
:1010E800E4800B010204081020408090131EE47E67
:1010F800019360BCA3FF543F30E509541FFEE493FD
:10110800A360010ECF54C025E060A840B8E493A3C3
:10111800FAE493A3F8E493A3C8C582C8CAC583CAEE
:10112800F0A3C8C582C8CAC583CADFE9DEE780BEA6
:011387000065
:1009CA00E709F608DFFA8046E709F208DFFA803E0F
:1009DA0088828C83E709F0A3DFFA8032E309F608FC
:1009EA00DFFA8078E309F208DFFA807088828C8364
:1009FA00E309F0A3DFFA806489828A83E0A3F60818
:100A0A00DFFA805889828A83E0A3F208DFFA804CF1
:100A1A0080D280FA80C680D4806980F280338010C8
:100A2A0080A680EA809A80A880DA80E280CA803331
:100A3A0089828A83ECFAE493A3C8C582C8CCC583A9
:100A4A00CCF0A3C8C582C8CCC583CCDFE9DEE78079
:100A5A000D89828A83E493A3F608DFF9ECFAA9F0F8
:100A6A00EDFB2289828A83ECFAE0A3C8C582C8CC4E
:100A7A00C583CCF0A3C8C582C8CCC583CCDFEADE67
:100A8A00E880DB89828A83E493A3F208DFF980CCC9
:100A9A0088F0EF60010E4E60C388F0ED2402B404C2
:100AAA000050B9F582EB2402B4040050AF23234569
:060ABA008223900A1A736A
:100AC000BB010689828A83E0225002E722BBFE0234
:090AD000E32289828A83E4932267
:100AD900BB010CE58229F582E5833AF583E02250D2
:100AE90006E92582F8E622BBFE06E92582F8E2221C
:0D0AF900E58229F582E5833AF583E4932236
:100B0600BB010689828A83F0225002F722BBFE01CE
:020B1600F322C8
:100B1800F8BB010DE58229F582E5833AF583E8F013
:100B2800225006E92582C8F622BBFE05E92582C8BF
:020B3800F222A7
:100B3A00C5F0F8A3E028F0C5F0F8E5821582700246
:060B4A001583E038F022E3
:100B500075F008758200EF2FFFEE33FECD33CDCC5C
:100B600033CCC58233C5829BED9AEC99E5829840DF
:100B70000CF582EE9BFEED9AFDEC99FC0FD5F0D6BC
:100B8000E4CEFBE4CDFAE4CCF9A88222B800C1B9E6
:100B90000059BA002DEC8BF084CFCECDFCE5F0CB24
:100BA000F97818EF2FFFEE33FEED33FDEC33FCEB5D
:100BB00033FB10D703994004EB99FB0FD8E5E4F918
:100BC000FA227818EF2FFFEE33FEED33FDEC33FC05
:100BD000C933C910D7059BE99A4007EC9BFCE99AF9
:100BE000F90FD8E0E4C9FAE4CCFB2275F010EF2F3E
:100BF000FFEE33FEED33FDCC33CCC833C810D7073E
:100C00009BEC9AE899400AED9BFDEC9AFCE899F878
:0E0C10000FD5F0DAE4CDFBE4CCFAE4C8F9220B
:100C1E00EB9FF5F0EA9E42F0E99D42F0E89C45F02C
:010C2E0022A3
:100C2F00E8600FECC313FCED13FDEE13FEEF13FFA3
:030C3F00D8F122C7
:0C0C4200ECF0A3EDF0A3EEF0A3EFF02225
:060C4E008A838982E47331
:10066500E5082409F582E43400F583E005082290C5
:100675000006300703900009E475F001120C8002B2
:100685000AC02000E97F2ED2008018EF540F249075
:10069500D43440D4FF30040BEF24BFB41A00500308
:1006A5002461FFE50960021509050CE50C700205DA
:1006B5000B30070E900006E475F001120C80EF0276
:1006C5000B060218CE7403D2078003E4C207F508AF
:1006D500900006120C97E4F509F50BF50CE5096099
:1006E500077F201206A880F5750AFFC201C200C265
:1006F50002C203C205C206C208120674FF700D309D
:1007050007057F001206B9AF0CAE0B22B4255FC2F8
:10071500D5C204120674FF24D0B40A00501A75F02D
:100725000A780930D50508B6FF0106C6A426F620C5
:10073500D5047002D20380D924CFB41A00EF500437
:10074500C2E5D2040208BAD20180C6D20080C0D266
:100755000280BCD2D580BAD20580B47F201206A80B
:100765002002077401B5090040F1120665FF120663
:10077500A80206E2D208D2068095120665FB12068B
:1007850065FA120665F94A4B7006798B7A097BFF83
:1007950020022EE509602A7E008E82758300120AEA
:1007A500D960060EEE650A70F0C2D5EBC0E0EAC06E
:1007B500E0E9C0E0EE120901D0E0F9D0E0FAD0E0BE
:1007C500FB120AC0FF60AAEBC0E0EAC0E0E9C0E0A6
:1007D5001206A8D0E02401F9D0E03400FAD0E0FBFD
:1007E500E50A0460DCD50AD980877BFF7A0879FDA4
:1007F500D202809C791080027908C206C20880085E
:10080500D2D5790A8004790AC2D5E50A047002F5C1
:100815000AE4FAFDFEFF120665FC7B0820011312AF
:100825000665FD7B1030000A120665FE120665FF9F
:100835007B20EC3382D592D55013C3E43000069F5C
:10084500FFE49EFEE42001039DFDE49CFCE4CBF85F
:10085500C201EC700CCFCECDCCE824F8F870F38053
:1008650017C3EF33FFEE33FEED33FDEC33FCEB3313
:10087500FB994002FB0FD8E9EB300105F8D0E0C445
:1008850048B201C0E00AEC4D4E4F78207B0070C2A3
:10089500EAB50A0040BCC0E0120903D0F0D0E02060
:1008A5000104C4C0E0C4B201C0F0120691D0F0D575
:1008B500F0EB0206E2120CA0077F5307F958075028
:1008C5004C074C4207FD4F08054408054907654399
:0808D500080B5507EF4607EF81
:1008DD004507EF4709AB5007542D07582E077B2BC3
:1008ED00075C2307792009942A0714480000077331
:1008FD003F3F3F00790AA2D5200314300509B910F6
:10090D00020404B9080104A2D520060250010420F6
:10091D0002689202B509005034C0E07F20300319FF
:10092D007F30A20272067205500F12095AC202C21E
:10093D0006C205C2087F30800F300503E9C0E01202
:10094D0006A8300503D0E0F9D0E0B509CC30051785
:10095D007F30B9100C1206A87F583004077F7880BD
:10096D0003B908031206A83002057F2D0206A87FE1
:10097D00202008F87F2B2006F322920280CF286ECC
:10098D00756C6C2900D2011206653001F8C2017830
:10099D000930D50108F60207142D504349581206A7
:1009AD00652403B405004001E49009A6931206994D
:0D09BD00743A120699D2037509040207F975
:100C5400EF4E6012EF60010EEDBB010B89828A83B7
:100C6400F0A3DFFCDEFA2289F05007F709DFFCA9C4
:0C0C7400F022BBFEFCF309DFFCA9F0221B
:100C8000F8E0FBA3A3E0F925F0F0E58215827002FD
:070C90001583E0FA38F022A1
:090C9700EBF0A3EAF0A3E9F0225E
:100CA000D083D082F8E4937012740193700DA3A3E3
:100CB00093F8740193F5828883E4737402936860F7
:060CC000EFA3A3A380DFF7
:1018CE00EFB40A07740D1218D9740A309811A8993A
:1018DE00B8130CC2983098FDA899C298B811F6307A
:0718EE0099FDC299F5992252
:00000001FF
