:0416F70041010F009E
:101C6600121E5D121CBB121F21121EEB120C899054
:101C760000DDE06002E4F09000DFE06005E4F012D1
:0C1C86001AA29000E2E060E4E4F080E0CC
:071F210090010C7442F02254
:0100220022BB
:011F4B002273
:011F4C002272
:0C1EC7009000D6EBF0A3EAF0A3E9F022B3
:0C1ED3009000D9EBF0A3EAF0A3E9F022A4
:101E6F009000D6A3E0FAA3E0F94A600312084522D6
:101E7F009000D9A3E0FAA3E0F94A600312084522C3
:101C3400EF4E602D9000CCEEF0A3EFF0AF05A3ECD7
:101C4400F0A3EFF0AF03A3EAF0A3EFF0E4A3F0A353
:101C5400F0A3F0A3F09000CBF09000CA04F0121EA1
:021C64006F22ED
:10000E00E49000CAF0121E7F7B007A007900121E67
:04001E00C7021ED324
:101360009000CAE070030214149000CEE0FEA3E0E7
:10137000FF4E70030214149000CBE07035D3EF944D
:1013800000EE940050030214149000D2E475F001B2
:1013900012071BFED39000CDE095F09000CCE09EAC
:1013A0005072121E7FE49000D2F0A3F09000CB04A4
:1013B000F0229000CBE06401705A9000D275F001E9
:1013C00012071BFED39000CFE095F09000CEE09E78
:1013D00050429000D0E0FEA3E0FF9400EE94004065
:1013E000259000D4E475F00112071BFCD3EF95F0B3
:1013F000EE9C5005E49000CAF09000CAE07007909F
:1014000000CEF0A3F022E49000D2F0A3F09000CB45
:05141000F0121E6F2226
:1016FB0041007B0050007C00000000000000000057
:10170B000000000000000050006B00000000000013
:10171B000000000000000000000041008C004100B0
:02172B006A0052
:101CBB00E490007BF0FE7F10FD7B017A00797C12B3
:101CCB00084B7E007F107D007B017A00796B120838
:071CDB004B120F43021D092B
:0E153800900093EBF0A3EAF0A3E9F0A3EDF02E
:10154600E4FF000000000FEFB478F7121E9E900033
:101556007B7401F0E4FF000000000FEFB478F79011
:101566000093E0FBA3E0FAA3E0F9740190006B6B33
:101576007008E965827003EA6583602A7E007F1041
:101586007D007B017A00796B12084B900096E0FF94
:101596007E00786B7C007D01900093E0FBA3E0FA6F
:0615A600A3E0F912065754
:0115AC00221C
:0B00260090008DEBF0A3EAF0A3E9F0DE
:10003100E4A3F0A3F0A3F012067D64F260030205CD
:100041008690008DE0FBA3E0FAA3E0F99000011295
:100051000696D394104003020586E4900090F09038
:10006100008DE0FBA3E0FAA3E0F9900001120696EF
:100071002401FFE433FE900090E0FDC39FEE648015
:10008100F8748098501DED2401FFE433FE8F828EB9
:1000910083120696FF900092E02FF0900090E0040A
:1000A100F080BC90008DE0FBA3E0FAA3E0F99000A2
:1000B10001120696F582758300A3A3120696FF909E
:1000C1000092E06F60030205867E007F107D007B59
:1000D100017A00796B12084BE4900091F090008D49
:1000E100E0FBA3E0FAA3E0F9900002120696244E89
:1000F100700302030E24FD70030202EC147003026C
:1001010001E31470030202FB14700302048524FE50
:100111006003020573900003120696FFB40102808A
:1001210019EFB40207E490006AF08014EFB40310F1
:1001310090006AE06004E4F0800690006A7401F0C7
:10014100900091E0FF04F0746B2FF582E43400F528
:100151008374F8F0900091E0FF04F0746B2FF58246
:10016100E43400F5837402F0F5827583001206967B
:10017100FF900091E0FE04F0746B2EF582E43400F0
:10018100F583EFF090006AE0FF900091E0FE04F04B
:10019100746B2EF582E43400F583EFF0E490009067
:1001A100F090006CE02401FFE433FE900090E0FD4C
:1001B100C39FEE6480F87480984003020573746CE9
:1001C1002DF582E43400F583E0FF900091E0246B8B
:1001D100F582E43400F583E02FF0900090E004F024
:1001E10080BF90008DE0FBA3E0FAA3E0F99000034B
:1001F100120696B40105121F42803090008DE0FB7B
:10020100A3E0FAA3E0F9900003120696B4020512E6
:100211001F45801790008DE0FBA3E0FAA3E0F99061
:100221000003120696B40303121F48900091E0FFE9
:1002310004F0746B2FF582E43400F58374F8F090C8
:100241000091E0FF04F0746B2FF582E43400F58334
:100251007402F090008DE0FBA3E0FAA3E0F99000B6
:1002610002120696FF900091E0FE04F0746B2EF5E9
:1002710082E43400F583EFF0121F3CEF90009160AF
:1002810013E0FF04F0746B2FF582E43400F58374FE
:1002910001F08011E0FF04F0746B2FF582E434006B
:1002A100F5837402F0E4900090F090006CE024017A
:1002B100FFE433FE900090E0FDC39FEE6480F8748C
:1002C10080984003020573746C2DF582E43400F5C7
:1002D10083E0FF900091E0246BF582E43400F58324
:1002E100E02FF0900090E004F080BF7B007A00796D
:1002F10000E4900097F07F36800D7B007A00790052
:10030100E4900097F07F37121183020573900091FA
:10031100E0FF04F0746B2FF582E43400F58374F888
:10032100F0900091E0FF04F0746B2FF582E434004B
:10033100F5837403F090008DE0FBA3E0FAA3E0F9EC
:10034100900002120696FF900091E0FE04F0746B9B
:100351002EF582E43400F583EFF090010CE0FFFE0E
:10036100900091E0FD04F0746B2DF582E43400F50A
:1003710083EEF09000031206966403600302043FCB
:10038100EF24BF605B24FB603124F16077241360AC
:100391000302043F90010BE0FF30E20554FBF080C3
:1003A1000790010BE04404F090010AE0FEA3E0781D
:1003B10002CEC313CE13D8F9806E90010BE0FF304B
:1003C100E30554F7F0800790010BE04408F0900139
:1003D1000AE0FEA3E07803CEC313CE13D8F9804818
:1003E10090010BE030E40554EFF0800790010BE041
:1003F1004410F090010AE0C4F854F0C8A3E0C454DA
:100401000F48802490010BE0FF30E50554DFF080B8
:100411000790010BE04420F090010AE0FEA3E07890
:1004210005CEC313CE13D8F95401FF900091E0FE1D
:1004310004F0746B2EF582E43400F583EFF0E49060
:100441000090F090006CE02401FFE433FE900090F6
:10045100E0FDC39FEE6480F8748098400302057349
:10046100746C2DF582E43400F583E0FF900091E097
:10047100246BF582E43400F583E02FF0900090E0E6
:1004810004F080BF90008DE0FBA3E0FAA3E0F990B7
:100491000003120696B4013290010CE024BF601CE7
:1004A10024FB601024F1601C2413701E90010C7455
:1004B10046F0801690010C7441F0800E90010C748E
:1004C10055F0800690010C7442F0900091E0FF0419
:1004D100F0746B2FF582E43400F58374F8F090002A
:1004E10091E0FF04F0746B2FF582E43400F583741E
:1004F10002F090008DE0FBA3E0FAA3E0F990000286
:10050100120696FF900091E0FE04F0746B2EF582C6
:10051100E43400F583EFF090010CE0FF900091E0EE
:10052100FE04F0746B2EF582E43400F583EFF0E401
:10053100900090F090006CE02401FFE433FE900005
:1005410090E0FDC39FEE6480F87480985024746C31
:100551002DF582E43400F583E0FF900091E0246BF7
:10056100F582E43400F583E02FF0900090E004F090
:1005710080C2900091E0600D04F07B017A00796BFC
:05058100E0FD12153839
:010586002252
:101AA20090007BE06031121EF5EF24F0601824D024
:101AB200601224207016121EDF121F28E490007B91
:101AC200F0021D098000121EDF021F287B017A002E
:101AD200796B7D10021B777B017A00797C7D101275
:0F1AE2001C92EF60097B017A00797C12002622AA
:011F4D002271
:10172D004100A4004100A5004100A6005000A70003
:0F173D000000000000000000000000000000009D
:0A1EEB00E49000A4F0A3F0A3F0229D
:10118300900094EBF0A3EAF0A3E9F0E49000A4F05C
:10119300E0FE04F074A72EF582E43400F583745561
:1011A300F09000A4E0FE04F074A72EF582E434006E
:1011B300F58374AAF0900097E004FE9000A4E0FD8C
:1011C30004F074A72DF582E43400F583EEF090006B
:1011D300A4E0FE04F074A72EF582E43400F583EF57
:1011E300F0E49000A6F0900097E0FF9000A6E0FEE8
:1011F300C39F502F900094E0FBA3E0FAA3E0F98E85
:1012030082758300120696FE9000A4E0FD04F0743C
:10121300A72DF582E43400F583EEF09000A6E004F8
:10122300F080C37B017A0079A7EF2404FD12175FD6
:101233009000A4E0FE04F074A72EF582E43400F5D8
:1012430083EFF0E49000A6F0900097E02405FFE41C
:1012530033FE9000A6E0FDC39FEE6480F87480988F
:10126300501774A72DF582E43400F583E0FF121FB5
:0A127300099000A6E004F080CF22ED
:100C8900200A03020F42C20A900040E02440FFA359
:100C9900E0FEC3EF9E543FD394045003020F427405
:100CA900002EF582E43400F583E064556003020FF9
:100CB90035EEFB7A002401FFEA33FE7C007D401209
:100CC90006E574002DF58274003CF583E064AA60A2
:100CD90003020F35EB2402FFEA33FE7C007D40124C
:100CE90006E574002DF58274003CF583E09000A5BB
:100CF900F0900040E02440FFE433CFC39BCF9AFE3D
:100D09007C007D401206E59000A5E02404FFE43351
:100D1900FEC3ED9FEE6480F8EC6480985003020FE7
:100D29003B900041E0FF2400F9E43400FA7B019094
:100D390000A5E02403FD900091EFF0A37440F012A8
:100D490014AFAB079000A5E0FF900041E02FFFE44E
:100D590033CF2403CF3400FE7C007D401206E574B6
:100D6900002DF58274003CF583E06B6003020F35BA
:100D7900E49000A4F0FE7F10FD7B017A00796B12EC
:100D8900084B900041E0FB7A002403FFEA33FE7C24
:100D9900007D401206E574002DF58274003CF58350
:100DA900E024C97003020E66046003020F26900056
:100DB900A4E0FF04F0746B2FF582E43400F583742A
:100DC900F8F09000A4E0FF04F0746B2FF582E4348E
:100DD90000F5837402F09000A4E0FF04F0746B2F17
:100DE900F582E43400F58374B5F0EB2404FFE43AAA
:100DF900FE7C007D401206E574002DF58274003CEE
:100E0900F583E0FF9000A4E0FE04F0746B2EF582F8
:100E1900E43400F583EFF0E49000A6F090006CE074
:100E29002401FFE433FE9000A6E0FDC39FEE648039
:100E3900F87480985024746C2DF582E43400F5839D
:100E4900E0FF9000A4E0246BF582E43400F583E030
:100E59002FF09000A6E004F080C2020F159000A4C4
:100E6900E0FF04F0746B2FF582E43400F58374F825
:100E7900F09000A4E0FF04F0746B2FF582E43400D5
:100E8900F5837402F09000A4E0FF04F0746B2FF571
:100E990082E43400F58374B7F0900041E02404FF44
:100EA900E433FE7C007D401206E574002DF5827462
:100EB900003CF583E0FF9000A4E0FE04F0746B2E83
:100EC900F582E43400F583EFF0E49000A6F0900099
:100ED9006CE02401FFE433FE9000A6E0FDC39FEE21
:100EE9006480F87480985024746C2DF582E4340081
:100EF900F583E0FF9000A4E0246BF582E43400F56B
:100F090083E02FF09000A6E004F080C29000A4E0F6
:100F190004F07B017A00796BE0FD1215389000A589
:100F2900E02404FF900041E02FF08006900041E0AA
:0A0F390004F0900041E0543FF02264
:10175F00900098EBF0A3EAF0A3E9F0AE05E4900156
:10176F000DF0AF061EEF604690010DE0FF90009860
:10177F00E0FBA3E475F001120731A9F0FA12067D20
:10178F006F90010DF0E4A3F090010EE0C3940850A8
:10179F00D190010DE030E007C313648CF080079007
:1017AF00010DE0C313F090010EE004F080DA900118
:0417BF000DE0FF2218
:1014AF0090008DEBF0A3EAF0A3E9F0AE05E4900114
:1014BF000DF0AF061EEF606B90010DE0FF90008DF9
:1014CF00E0FBA3E475F001120731A9F0FA12067DD3
:1014DF006F90010DF0900091E004F0A3E0FF9000F9
:1014EF0091E0C39F4012E4F0EFFDE49DFDE4940012
:1014FF0090008E8DF012071BE490010EF090010EFC
:10150F00E0C3940850AC90010DE030E007C31364C2
:10151F008CF0800790010DE0C313F090010EE004F2
:09152F00F080DA90010DE0FF22CA
:101E5D00121E24121F2F1217C3121D76121EBAD274
:021E6D00AF22A2
:02174C00C10AD0
:0D1EBA00C20A7F807E257D007C00021BF99E
:03002300021AF1CD
:101AF100C0E0C083C082C0D075D000C00730982339
:101B0100C298900040E0FF04F074002FF582E434A5
:101B110000F583E599F0900040E0C394404002E471
:101B2100F0D20A309902C299D007D0D0D082D083A6
:031B3100D0E032CF
:08174E004100E3004100E4004A
:101D7600121DB35389F0438901538EF79000E37423
:101D8600FAF0A374C4F0758CFAF58AD2A9D28C2223
:101DB300E49000DCF09000DEF09000E0F0A3F090FF
:0C1DC30000DDF09000DFF09000E2F02264
:03000B0002168E4C
:10168E00C0E0C0F0C083C082C0D075D000C000C022
:10169E00069000E3E0F58CA3E0F58A9000DCE00410
:1016AE00F0C3940A4005E4F0A304F09000DEE004D9
:1016BE00F0C394644005E4F0A304F09000E0E475F8
:1016CE00F00112071BFEC3E5F094E8EE9403400A06
:1016DE009000E0E4F0A3F0A304F0D006D000D0D048
:0916EE00D082D083D0F0D0E032AC
:101D2F000A6D679C46F6375D4521EFAC5A50010BA3
:101D3F00DF020A6D679C46F6375D4521EFAC5A50BE
:041D4F00E10BDF02C3
:081756004500E5CCCCCCCCCC65
:101E240053B3FE43B40153B3FD43B40253B1FE4371
:031E3400B20122D6
:011F4E002270
:101D9600E4FEC290EF30E704D2808002C280EF25D5
:0C1DA600E0FFD290000EEEB408E8C290FE
:011DB200220E
:041E3700E4FD7FFC4B
:0F1E3B00C29100121D96AF05121D9600D2912282
:0A1B34007B019000A37405F07F3FD1
:0B1B3E009000A0EBF0A3EAF0A3E9F098
:101B4900C291E4FD121D969000A3E0FFEDC39F50E2
:101B59001A9000A0E0FBA3E0FAA3E0F98D82758357
:0D1B690000120696FF121D960D80DCD29131
:011B7600224C
:101D5300E4FEC290EF30E704D2808002C280EF2518
:101D6300E0FFD290000EEEB408E843B10153B2FE97
:021D7300C2901C
:011D7500224B
:101DCF00E4FFFEC290EF25E0FFD290308003440184
:081DDF00FF0EEEB408EDC29006
:011DE70022D9
:101E4A00C29100121D53121DCF53B1FE43B20100BD
:021E5A00D29123
:011E5C002263
:0B1BBA0090008EEBF0A3EAF0A3E9F02E
:101BC500C291121D53E4FD900091E0FFEDC39F50BB
:101BD5001A121DCF90008EE0FBA3E0FAA3E0F98D69
:101BE50082758300EF1206C30D80DC53B1FE43B24C
:031BF50001D29189
:011BF80022CA
:0E1E9E00121E377D8E7F20121E3B0000002298
:101D0900E4FEFD7FFC121E3B7D8F7F20121E3BE40B
:101D1900FD7FFD121E3BE4FEFF000FBF00010EBE5A
:051D290013F7BF88F470
:011D2E002292
:0A1EF5007F07121E4AEF5470FF220F
:061F36007F09121E4A2281
:071F28007D707F27021E3BC4
:0C1EDF00E4FD7FE1121E3B7FE2021E3B8F
:0E1EAC00AC07121E37AF04AD077F25021E3BA8
:061B7700121EF5EF703CA8
:101B7D0090008DF0A3F09000A3EDF07FA0121B3E1E
:101B8D00E4FD7FFD121E3BE490008DF0A3F000906C
:101B9D00008EE004F0700690008DE004F090008D52
:0C1BAD00E07004A3E064C870E5121E376D
:011BB9002209
:101C9200AC05121EF5EF30E61D121E37900091ECD6
:101CA200F07F61121BBA121EDF121F28E4FD7FFDB6
:091CB200121E3B7F01227F00227B
:100F4300788D7C007D017BFF7A1D792F7E007F05E4
:100F530012065778927C007D017BFF7A1D79347EDF
:100F6300007F0312065778957C007D017BFF7A1D75
:100F730079377E007F06120657789B7C007D017BC4
:100F8300FF7A1D793D7E007F01120657789C7C0015
:100F93007D017BFF7A1D793E7E007F031206571287
:100FA3001F4E7D5A7F53121E3B7DA57F53121E3B5E
:100FB3007D207F3D121E3B121E377FE1121E3B7FB9
:100FC300E2121E3B7D707F27121E3B7D017F2212A2
:100FD3001E3B7D037F23121E3B7D4E7F25121E3B4E
:100FE3007D107F31121E3B7B017A0079E59000A3CF
:100FF3007405F07F30121B3E7B017A0079E5900087
:10100300A37405F07F2A121B3E7A00798D121B34DC
:101013007B017A0079959000A37406F07F3A121B46
:101023003E7B017A00799B9000A37401F07F391213
:101033001B3E7B017A0079929000A37403F07F3EFC
:10104300121B3E7B017A00799C9000A37403F07F0E
:101053003B121B3EE4FD7F3C121E3B7D3F7F26126D
:0E1063001E3BE4FD7F24121E3B7F21021E3B3C
:05127D009000B7EFF046
:10128200E478B87C007D017BFF7A1D7941FE7F0501
:1012920012065778BD7C007D017BFF7A1D79467E60
:1012A200007F0312065778C07C007D017BFF7A1D08
:1012B20079497E007F0612065778C67C007D017B45
:1012C200FF7A1D794F7E007F0112065778C77C0096
:1012D2007D017BFF7A1D79507E007F031206577DC8
:1012E2005A7F53121E3B7DA57F53121E3B7D207FEA
:1012F2003D121E3B121E37E4FF000000000FEFB448
:10130200DCF79000B7E0FD7F25121E3B7D3F7F2674
:10131200121E3B7A0079B8121B347B017A0079C025
:101322009000A37406F07F3A121B3E7B017A00798B
:10133200C69000A37401F07F39121B3E7B017A0034
:1013420079BD9000A37403F07F3E121B3E7B017AAD
:0E1352000079C79000A37403F07F3B021B3E9E
:1017C30053B1F743B20853B1EF43B21053B3FB43E2
:1017D300B40443DE01A2AF9209C2AF75C7AA75C7AD
:1017E3005543910143C60875C7AA75C7555391FE62
:1017F300A20992AF43DE2053DF3F43DF0353DFFBF6
:1018030075D10775D9D075D20175DAF475D501751F
:10181300DDD475C50175CDA4D2DED2DFE4FBFDFFB7
:03182300021E8F13
:101DE800E4EF75F00AA4ACF0FDECF5C5AF05EFF52E
:031DF800CDD2DE6B
:011DFB0022C5
:101DFC00E4EF75F00AA4ACF0FDECF5D5AF05EFF50A
:031E0C00DDD2DE46
:011E0F0022B0
:101E1000E4EF75F00AA4ACF0FDECF5D2AF05EFF5F8
:031E2000DAD2DE35
:011E2300229C
:0F1E8F00AE05121DE8AF06121DFCAF03021E10B8
:071F2F0053B3EF43B410228D
:031F4200D2942214
:031F4500C2942221
:031F4800B294222E
:061F3C00A294E433FF2231
:0A1EFF00EF6003021F42121F45228C
:101BF90053B1BF53B2BF53B17F53B27F75985043AE
:101C09008920438780438E1053C4DFAB07AA06A9F6
:101C190005A8047F407E427D0F7C00120783EF04F4
:0B1C2900F404F58DD28ED299D2AC22CB
:1015AD009000EA12083953B1BF53B2BF53B17F5304
:1015BD00B27F75985043878053C4F843C420900080
:1015CD00EAE0F8A3E0F9A3E0FAA3E0FB7F407E4256
:1015DD007D0F7C00120783C374FF9FFF74FF9EFE77
:1015ED00E49DFDE49CFC78081208268FC69000EA65
:1015FD00E0F8A3E0F9A3E0FAA3E0FB7F407E427D93
:10160D000F7C00120783C374FF9FFF8FC543C4086F
:03161D00D299223D
:070003003098FDAF99C2988F
:01000A0022D3
:081F0900C2998F993099FD2265
:101620009000EE12083953B1FB53B2FB53B3BF53D2
:10163000B4BF75F85075C40853C4DF9000EEE0F8ED
:10164000A3E0F9A3E0FAA3E0FB7F407E427D0F7C9C
:1016500000120783C374FF9FFF74FF9EFEE49DFD8D
:10166000E49CFC78081208268FC69000EEE0F8A3F0
:10167000E0F9A3E0FAA3E0FB7F407E427D0F7C000F
:0E168000120783C374FF9FFF8FC543C4082267
:071F110030F8FDAF9AC2F8A1
:011F180022A6
:081F1900C2F98F9A30F9FD2294
:101997009000F2120839538EF7438901D28CE4FF85
:1019A700FEFDFC9000F2E0F8A3E0F9A3E0FAA3E063
:1019B700FBC3120815602F758A7E758CFF308DFD6D
:1019C700C28D9000F2E0FCA3E0FDA3E0FEA3E024BB
:1019D700FFFFEE34FFFEED34FFFDEC34FFFC90001B
:0919E700F212083980B8C28C220A
:1019F0009000F6120839538EF7438901D28CE4FF28
:101A0000FEFDFC9000F6E0F8A3E0F9A3E0FAA3E005
:101A1000FBC3120815602F758ACA758CFA308DFDCC
:101A2000C28D9000F6E0FCA3E0FDA3E0FEA3E0245D
:101A3000FFFFEE34FFFEED34FFFDEC34FFFC9000C1
:091A4000F612083980B8C28C22AC
:101A49009000FA120839538EEF438910D28EE4FFC1
:101A5900FEFDFC9000FAE0F8A3E0F9A3E0FAA3E0A8
:101A6900FBC3120815602F758BEA758DCB308FFD7E
:101A7900C28F9000FAE0FCA3E0FDA3E0FEA3E024FE
:101A8900FFFFEE34FFFEED34FFFDEC34FFFC900068
:091A9900FA12083980B8C28E224D
:101885009000FE12083953C9BF53C9DF43C910D2AE
:10189500CAE4FFFEFDFC9000FEE0F8A3E0F9A3E03A
:1018A500FAA3E0FBC3120815602F75CC3075CDF88F
:1018B50030CFFDC2CF9000FEE0FCA3E0FDA3E0FE2B
:1018C500A3E024FFFFEE34FFFEED34FFFDEC34FF13
:0C18D500FC9000FE12083980B8C2CA2244
:1018E10090010212083975C40743C408E4FFFEFDE4
:1018F100FC900102E0F8A3E0F9A3E0FAA3E0FBC346
:10190100120815603275C52C75C6CFE5C430E4FBED
:1019110053C4EF900102E0FCA3E0FDA3E0FEA3E0CD
:1019210024FFFFEE34FFFEED34FFFDEC34FFFC90AD
:0B193100010212083980B553C4F722F0
:10193C0090010612083975C40743C408E4FFFEFD84
:10194C00FC900106E0F8A3E0F9A3E0FAA3E0FBC3E6
:10195C00120815603275C5D875C6FFE5C430E4FBB6
:10196C0053C4EF900106E0FCA3E0FDA3E0FEA3E06E
:10197C0024FFFFEE34FFFEED34FFFDEC34FFFC9052
:0B198C00010612083980B553C4F72291
:101071000A3D3D3D3D3D3D3D3D3D3D3D3D3D3D3DD2
:101081003D3D3D3D3D3D3D3D3D3D3D3D3D3D3D3D8F
:101091003D3D3D3D3D3D3D3D3D3D3D3D3D3D3D3D7F
:1010A1003D3D3D3D3D3D3D3D3D3D3D3D3D3D3D3D6F
:1010B1003D3D3D3D3D000A2A2020436F7079726914
:1010C1006768742863292032303135204E75766F78
:1010D100746F6E20546563686E6F6C6F677920431F
:1010E1006F72702E20416C6C207269676874732076
:1010F10072657365727665642E2020000A2A2020AD
:10110100436F6E7461637420452D4D61696C3A20A3
:101111004D6963726F432D38626974406E75766FE5
:10112100746F6E2E636F6D202020202020202020E0
:1011310020202020202020202020202020202020AE
:1011410020000A2A202044656D6F2056657273695C
:101151006F6E20203A202532642E2532642E2532EE
:1011610064000A2A202046696E6973686564204418
:10117100617465203A202532642E2532642E253291
:02118100640008
:101826007BFF7A10797112098F7BFF7A1079B712D4
:10183600098F7BFF7A1079FD12098F7BFF7A117968
:1018460043900045E4F0A304F0E4A3F0A3F0A3F072
:10185600A3F012098F7BFF7A117963900045740714
:10186600F0A374DFF0A3E4F0A37405F0A3E4F0A3FF
:0F187600741FF012098F7BFF7A10797102098FAE
:03000000021415D2
:10141500787FE4F6D8FD9000007FFF7E03E4F0A31B
:0A142500DFFCDEFA75812102146A73
:10142F00021C66E493A3F8E493A34003F68001F251
:10143F0008DFF48029E493A3F85407240CC8C333BE
:10144F00C4540F4420C8834004F456800146F6DF8D
:10145F00E4800B01020408102040809016F7E47E10
:10146F00019360BCA3FF543F30E509541FFEE49382
:10147F00A360010ECF54C025E060A840B8E493A349
:10148F00FAE493A3F8E493A3C8C582C8CAC583CA74
:10149F00F0A3C8C582C8CAC583CADFE9DEE780BE2C
:01175E00008A
:10058700E709F608DFFA8046E709F208DFFA803E56
:1005970088828C83E709F0A3DFFA8032E309F60843
:1005A700DFFA8078E309F208DFFA807088828C83AB
:1005B700E309F0A3DFFA806489828A83E0A3F6085F
:1005C700DFFA805889828A83E0A3F208DFFA804C39
:1005D70080D280FA80C680D4806980F28033801010
:1005E70080A680EA809A80A880DA80E280CA803379
:1005F70089828A83ECFAE493A3C8C582C8CCC583F1
:10060700CCF0A3C8C582C8CCC583CCDFE9DEE780C0
:100617000D89828A83E493A3F608DFF9ECFAA9F03F
:10062700EDFB2289828A83ECFAE0A3C8C582C8CC95
:10063700C583CCF0A3C8C582C8CCC583CCDFEADEAE
:10064700E880DB89828A83E493A3F208DFF980CC10
:1006570088F0EF60010E4E60C388F0ED2402B40409
:100667000050B9F582EB2402B4040050AF232345B0
:0606770082239005D773F9
:10067D00BB010689828A83E0225002E722BBFE027B
:09068D00E32289828A83E49322AE
:10069600BB010CE58229F582E5833AF583E0225019
:1006A60006E92582F8E622BBFE06E92582F8E22263
:0D06B600E58229F582E5833AF583E493227D
:1006C300F8BB010DE58229F582E5833AF583E8F06D
:1006D300225006E92582C8F622BBFE05E92582C819
:0206E300F22201
:1006E500C2D5EC30E709B2D5E4C39DFDE49CFCEE30
:1006F50030E715B2D5E4C39FFFE49EFE120889C317
:10070500E49DFDE49CFC800312088930D507C3E411
:060715009FFFE49EFE229E
:10071B00C5F0F8A3E028F0C5F0F8E5821582700269
:06072B001583E038F02206
:10073100A3F8E0C5F025F0F0E5821582700215837B
:06074100E0C838F0E822D8
:1007470075F008758200EF2FFFEE33FECD33CDCC69
:1007570033CCC58233C5829BED9AEC99E5829840EC
:100767000CF582EE9BFEED9AFDEC99FC0FD5F0D6C9
:10077700E4CEFBE4CDFAE4CCF9A88222B800C1B9F3
:100787000059BA002DEC8BF084CFCECDFCE5F0CB31
:10079700F97818EF2FFFEE33FEED33FDEC33FCEB6A
:1007A70033FB10D703994004EB99FB0FD8E5E4F925
:1007B700FA227818EF2FFFEE33FEED33FDEC33FC12
:1007C700C933C910D7059BE99A4007EC9BFCE99A06
:1007D700F90FD8E0E4C9FAE4CCFB2275F010EF2F4B
:1007E700FFEE33FEED33FDCC33CCC833C810D7074B
:1007F7009BEC9AE899400AED9BFDEC9AFCE899F886
:0E0807000FD5F0DAE4CDFBE4CCFAE4C8F92218
:10081500EB9FF5F0EA9E42F0E99D42F0E89C45F039
:0108250022B0
:10082600E8600FECC313FCED13FDEE13FEEF13FFB0
:03083600D8F122D4
:0C083900ECF0A3EDF0A3EEF0A3EFF02232
:060845008A838982E4733E
:10092400E5082445F582E43400F583E005082290C7
:100934000042300703900045E475F0011208DE021E
:10094400067D2000E97F2ED2008018EF540F2490FA
:10095400D43440D4FF30040BEF24BFB41A00500346
:100964002461FFE50960021509050CE50C70020518
:100974000B30070E900042E475F0011208DEEF021E
:100984000877021CE27403D2078003E4C207F50867
:100994009000421208F5E4F509F50BF50CE5096041
:1009A400077F2012096780F5750AFFC201C200C2E1
:1009B40002C203C205C206C208120933FF700D3019
:1009C40007057F00120978AF0CAE0B22B4255FC275
:1009D400D5C204120933FF24D0B40A00501A75F0AA
:1009E4000A780930D50508B6FF0106C6A426F62004
:1009F400D5047002D20380D924CFB41A00EF500476
:100A0400C2E5D204020B79D20180C6D20080C0D2E2
:100A14000280BCD2D580BAD20580B47F2012096787
:100A24002002077401B5090040F1120924FF1209DC
:100A3400670209A1D208D2068095120924FB120983
:100A440024FA120924F94A4B7006794A7A0C7BFF7E
:100A540020022EE509602A7E008E8275830012062C
:100A64009660060EEE650A70F0C2D5EBC0E0EAC0EF
:100A7400E0E9C0E0EE120BC0D0E0F9D0E0FAD0E03B
:100A8400FB12067DFF60AAEBC0E0EAC0E0E9C0E02B
:100A9400120967D0E02401F9D0E03400FAD0E0FB79
:100AA400E50A0460DCD50AD980877BFF7A0B79BC20
:100AB400D202809C791080027908C206C20880089C
:100AC400D2D5790A8004790AC2D5E50A047002F500
:100AD4000AE4FAFDFEFF120924FC7B08200113122C
:100AE4000924FD7B1030000A120924FE120924FF98
:100AF4007B20EC3382D592D55013C3E43000069F9B
:100B0400FFE49EFEE42001039DFDE49CFCE4CBF89D
:100B1400C201EC700CCFCECDCCE824F8F870F38091
:100B240017C3EF33FFEE33FEED33FDEC33FCEB3351
:100B3400FB994002FB0FD8E9EB300105F8D0E0C483
:100B440048B201C0E00AEC4D4E4F78207B0070C2E1
:100B5400EAB50A0040BCC0E0120BC2D0F0D0E020DD
:100B64000104C4C0E0C4B201C0F0120950D0F0D5F1
:100B7400F0EB0209A11208FE0A3E530AB8580A0F04
:100B84004C0A0B420ABC4F0AC4440AC4490A24430F
:080B94000ACA550AAE460AAE7A
:100B9C00450AAE470C6A500A132D0A172E0A3A2B37
:100BAC000A1B230A38200C532A09D34800000A32A6
:100BBC003F3F3F00790AA2D5200314300509B91034
:100BCC00020404B9080104A2D52006025001042035
:100BDC0002689202B509005034C0E07F203003193E
:100BEC007F30A20272067205500F120C19C202C29B
:100BFC0006C205C2087F30800F300503E9C0E01241
:100C0C000967300503D0E0F9D0E0B509CC30051701
:100C1C007F30B9100C1209677F583004077F788039
:100C2C0003B908031209673002057F2D0209677F9B
:100C3C00202008F87F2B2006F322920280CF286E0A
:100C4C00756C6C2900D2011209243001F8C20178AC
:100C5C000930D50108F60209D32D50434958120921
:100C6C00242403B405004001E4900C659312095848
:0D0C7C00743A120958D203750904020AB82F
:10084B00EF4E6012EF60010EEDBB010B89828A83C4
:10085B00F0A3DFFCDEFA2289F05007F709DFFCA9D1
:0C086B00F022BBFEFCF309DFFCA9F02228
:10087700BB010689828A83F0225002F722BBFE0160
:02088700F3225A
:10088900BC000BBE0029EF8DF084FFADF022E4CC53
:10089900F875F008EF2FFFEE33FEEC33FCEE9DEC1C
:1008A900984005FCEE9DFE0FD5F0E9E4CEFD22ED62
:1008B900F8F5F0EE8420D21CFEADF075F008EF2FAC
:1008C900FFED33FD4007985006D5F0F222C398FD9D
:0508D9000FD5F0EA223A
:1008DE00F8E0FBA3A3E0F925F0F0E58215827002A3
:0708EE001583E0FA38F02247
:0908F500EBF0A3EAF0A3E9F02204
:1008FE00D083D082F8E4937012740193700DA3A389
:10090E0093F8740193F5828883E47374029368609C
:06091E00EFA3A3A380DF9C
:101CE200EFB40A07740D121CED740A309811A8990A
:101CF200B8130CC2983098FDA899C298B811F63062
:071D020099FDC299F5992239
:00000001FF
