:0413B6004100CD0025
:10191100121B08121966121BCC121B961209CB90CE
:10192100009BE06002E4F090009DE06005E4F012AD
:0C19310017619000A0E060E4E4F080E0AA
:071BCC009000CA7442F022F0
:0100220022BB
:011BF60022CC
:011BF70022CB
:0C1B7200900094EBF0A3EAF0A3E9F0224D
:0C1B7E00900097EBF0A3EAF0A3E9F0223E
:101B1A00900094A3E0FAA3E0F94A60031202E422D7
:101B2A00900097A3E0FAA3E0F94A60031202E422C4
:1018B000EF4E602D90008AEEF0A3EFF0AF05A3ECA1
:1018C000F0A3EFF0AF03A3EAF0A3EFF0E4A3F0A3DB
:1018D000F0A3F0A3F0900089F090008804F0121BB0
:0218E0001A22CA
:10000E00E4900088F0121B2A7B007A007900121B04
:04001E0072021B7ED1
:10101F00900088E070030210D390008CE0FEA3E0F4
:10102F00FF4E70030210D3900089E07035D3EF9418
:10103F0000EE940050030210D3900090E475F0017D
:10104F001201BAFED390008BE095F090008AE09EDB
:10105F005072121B2AE4900090F0A3F090008904C4
:10106F00F022900089E06401705A90009075F001B1
:10107F001201BAFED390008DE095F090008CE09EA7
:10108F00504290008EE0FEA3E0FF9400EE940040EB
:10109F0025900092E475F0011201BAFCD3EF95F0A0
:1010AF00EE9C5005E4900088F0900088E070079067
:1010BF00008CF0A3F022E4900090F0A3F090008950
:0510CF00F0121B1A22C3
:1013BA004100390050003A0000000000000000001F
:1013CA00000000000000005000290000000000009A
:1013DA000000000000000000000041004A00410037
:0213EA002800D9
:10196600E4900039F0FE7F10FD7B017A00793A128F
:1019760002EA7E007F107D007B017A00792912023F
:07198600EA120C020219B481
:0E11F700900052EBF0A3EAF0A3E9F0A3EDF0B4
:10120500E4FF000000000FEFB478F7121B499000CF
:10121500397401F0E4FF000000000FEFB478F79097
:101225000052E0FBA3E0FAA3E0F974019000296BFA
:101235007008E965827003EA6583602A7E007F1085
:101245007D007B017A0079291202EA900055E0FFC2
:101255007E0078297C007D01900052E0FBA3E0FA36
:06126500A3E0F91200F6FF
:01126B002260
:0B07280090004BEBF0A3EAF0A3E9F017
:10073300E4A3F0A3F0A3F0A3F012011C64F260039E
:100743000209CA90004BE0FBA3E0FAA3E0F9900092
:1007530001120135D3941040030209CAE490004FFB
:10076300F090004BE0FBA3E0FAA3E0F99000011244
:1007730001352401FFE433FE90004FE0FDC39FEEFB
:100783006480F8748098501DED2401FFE433FE8FDC
:10079300828E83120135FF900051E02FF090004FBD
:1007A300E004F080BC90004BE0FBA3E0FAA3E0F987
:1007B300900001120135F582758300A3A312013560
:1007C300FF900051E06F60030209CA7E007F107D35
:1007D300007B017A0079291202EAE4900050F0903C
:1007E300004BE0FBA3E0FAA3E0F99000021201350D
:1007F300244FB4090040030209B790080B75F003B6
:10080300A4C58325F0C5837302082602099802094B
:100813004602095502097A02083D0209890209A71D
:1008230002096490004E7403F07B017A00794E90C4
:1008330000567401F07F310209B490004BE0FBA332
:10084300E0FAA3E0F9900003120135B40105121B8D
:10085300ED803090004BE0FBA3E0FAA3E0F99000B9
:1008630003120135B40205121BF0801790004BE010
:10087300FBA3E0FAA3E0F9900003120135B40303EC
:10088300121BF3900050E0FF04F074292FF582E46B
:100893003400F58374F8F0900050E0FF04F07429FD
:1008A3002FF582E43400F5837402F090004BE0FBF3
:1008B300A3E0FAA3E0F9900002120135FF90005083
:1008C300E0FE04F074292EF582E43400F583EFF0A2
:1008D300121BE7EF9000506013E0FF04F074292F20
:1008E300F582E43400F5837401F08011E0FF04F035
:1008F30074292FF582E43400F5837402F0E4900048
:100903004FF090002AE02401FFE433FE90004FE013
:10091300FDC39FEE6480F874809840030209B774A6
:100923002A2DF582E43400F583E0FF900050E024A3
:1009330029F582E43400F583E02FF090004FE004C2
:10094300F080BF7B007A007900E4900056F07F349A
:10095300805F7B007A007900E4900056F07F358059
:100963005090004E7403F07B017A00794E9000564C
:100973007401F07F32803A7B007A007900E49000C2
:1009830056F07F36802B7B007A007900E490005686
:10099300F07F37801C7B007A007900E4900056F0EA
:1009A3007F38800D7B007A007900E4900056F07F59
:1009B30039120E42900050E0600D04F07B017A0082
:0709C3007929E0FD1211F794
:0109CA00220A
:10176100900039E06031121BA0EF24F0601824D002
:10177100601224207016121B8A121BD3E4900039C8
:10178100F00219B48000121B8A021BD37B017A007C
:1017910079297D100217F37B017A00793A7D1012C5
:0F17A100193DEF60097B017A00793A120728227F
:011BF80022CA
:1013EC004100620041006300410064005000650050
:0F13FC00000000000000000000000000000000E2
:0A1B9600E4900062F0A3F0A3F02237
:100E4200900053EBF0A3EAF0A3E9F0E4900062F023
:100E5200E0FE04F074652EF582E43400F5837455E7
:100E6200F0900062E0FE04F074652EF582E4340036
:100E7200F58374AAF0900056E004FE900062E0FD53
:100E820004F074652DF582E43400F583EEF09000F1
:100E920062E0FE04F074652EF582E43400F583EF1F
:100EA200F0E4900064F0900056E0FF900064E0FEF1
:100EB200C39F502F900053E0FBA3E0FAA3E0F98E0A
:100EC20082758300120135FE900062E0FD04F07429
:100ED200652DF582E43400F583EEF0900064E004C1
:100EE200F080C37B017A007965EF2404FD12141EA1
:100EF200900062E0FE04F074652EF582E43400F5A1
:100F020083EFF0E4900064F0900056E02405FFE4E3
:100F120033FE900064E0FDC39FEE6480F874809815
:100F2200501774652DF582E43400F583E0FF121B3F
:0A0F3200B4900064E004F080CF22C8
:1009CB00200A03020C01C20A7862E62440FF08E603
:1009DB00FEC3EF9E543FD394045003020C017422C8
:1009EB002EF8E664556003020BF8EE04543F242204
:1009FB00F8E664AA6003020BF87863E6FF2402545E
:100A0B003F2422F8E6900063F0FB7862E62440FD79
:100A1B00E433FCC3ED9FFFEC9400FE7C007D4012A1
:100A2B000184EB2404FFE433FEC3ED9FEE6480F8F6
:100A3B00EC6480985003020BFB7863E6FF2422F9E9
:100A4B00E4FAFBE02403FD90004FEFF0A37440F0B9
:100A5B0012116E900063E07863262403543F242226
:100A6B00F8E66F6003020BF8E4900062F0FE7F1073
:100A7B00FD7B017A0079291202EA7863E6FF2403F1
:100A8B00543F2422F8E624C97003020B3D04600393
:100A9B00020BEC900062E0FE04F074292EF582E468
:100AAB003400F58374F8F0900062E0FE04F07429D2
:100ABB002EF582E43400F5837402F0900062E0FEC0
:100ACB0004F074292EF582E43400F58374B5F0EF4D
:100ADB002404543F2422F8E6FF900062E0FE04F069
:100AEB0074292EF582E43400F583EFF0E490006472
:100AFB00F090002AE02401FFE433FE900064E0FD57
:100B0B00C39FEE6480F87480985024742A2DF5826C
:100B1B00E43400F583E0FF900062E02429F582E4E1
:100B2B003400F583E02FF0900064E004F080C20203
:100B3B000BDB900062E0FF04F074292FF582E434A4
:100B4B0000F58374F8F0900062E0FF04F074292F35
:100B5B00F582E43400F5837402F0900062E0FF0448
:100B6B00F074292FF582E43400F58374B7F07863C1
:100B7B00E62404543F2422F8E6FF900062E0FE04D2
:100B8B00F074292EF582E43400F583EFF0E4900045
:100B9B0064F090002AE02401FFE433FE900064E04F
:100BAB00FDC39FEE6480F87480985024742A2DF551
:100BBB0082E43400F583E0FF900062E02429F582A3
:100BCB00E43400F583E02FF0900064E004F080C281
:100BDB00900062E004F07B017A007929E0FD1211AC
:100BEB00F7900063E02404786326F68003786306AD
:070BFB007863E6543FF62287
:10141E00900057EBF0A3EAF0A3E9F0AE05E49000DC
:10142E00CBF0AF061EEF60469000CBE0FF9000576A
:10143E00E0FBA3E475F0011201D0A9F0FA12011C31
:10144E006F9000CBF0E4A3F09000CCE0C394085072
:10145E00D19000CBE030E007C313648CF08007908E
:10146E0000CBE0C313F09000CCE004F080DA9000E3
:04147E00CBE0FF229E
:10116E0090004BEBF0A3EAF0A3E9F0AE05E490009B
:10117E00CBF0AF061EEF606B9000CBE0FF90004B04
:10118E00E0FBA3E475F0011201D0A9F0FA12011CE4
:10119E006F9000CBF090004FE004F0A3E0FF9000C2
:1011AE004FE0C39F4012E4F0EFFDE49DFDE4940098
:1011BE0090004C8DF01201BAE49000CCF09000CC6F
:1011CE00E0C3940850AC9000CBE030E007C313644A
:1011DE008CF080079000CBE0C313F09000CCE004BD
:0911EE00F080DA9000CBE0FF2252
:101B0800121ACF121BDA121482121A21121B65D272
:021B1800AF22FA
:02140B00C10A14
:0D1B6500C20A7F807E257D007C000218757D
:030023000218E2DE
:1018E200C0E0C0D075D000C000309817C2987862AE
:1018F200E6062422F8A6997862E6C394404002766E
:0F19020000D20A309902C299D000D0D0D0E03282
:08140D004100A1004100A20012
:101A2100121A5E5389F0438901538EF79000A17415
:101A3100FAF0A374C4F0758CFAF58AD2A9D28C227B
:101A5E00E490009AF090009CF090009EF0A3F0901D
:0C1A6E00009BF090009DF09000A0F02282
:03000B0002134D90
:10134D00C0E0C0F0C083C082C0D075D000C000C066
:10135D00069000A1E0F58CA3E0F58A90009AE004D8
:10136D00F0C3940A4005E4F0A304F090009CE0045F
:10137D00F0C394644005E4F0A304F090009EE4757E
:10138D00F0011201BAFEC3E5F094E8EE9403400AB1
:10139D0090009EE4F0A3F0A304F0D006D000D0D0CE
:0913AD00D082D083D0F0D0E032F0
:1019DA000A6D679C46F6375D4521EFAC5A50010BFC
:1019EA00DF020A6D679C46F6375D4521EFAC5A5017
:0419FA00E10BDF021C
:081415004500A3CCCCCCCCCCEB
:101ACF0053B3FE43B40153B3FD43B40253B1FE43CA
:031ADF00B201222F
:011BF90022C9
:101A4100E4FEC290EF30E704D2808002C280EF252D
:0C1A5100E0FFD290000EEEB408E8C29056
:011A5D002266
:041AE200E4FD7FFCA4
:0F1AE600C29100121A41AF05121A4100D291228B
:0A17B0007B019000617405F07F3F9B
:0B17BA0090005EEBF0A3EAF0A3E9F062
:1017C500C291E4FD121A41900061E0FFEDC39F5004
:1017D5001A90005EE0FBA3E0FAA3E0F98D82758321
:0D17E50000120135FF121A410D80DCD29177
:0117F20022D4
:1019FE00E4FEC290EF30E704D2808002C280EF2571
:101A0E00E0FFD290000EEEB408E843B10153B2FEEF
:021A1E00C29074
:011A200022A3
:101A7A00E4FFFEC290EF25E0FFD2903080034401DC
:081A8A00FF0EEEB408EDC2905E
:011A92002231
:101AF500C291001219FE121A7A53B1FE43B20100C7
:021B0500D2917B
:011B070022BB
:0B18360090004CEBF0A3EAF0A3E9F0F7
:10184100C2911219FEE4FD90004FE0FFEDC39F50DD
:101851001A121A7A90004CE0FBA3E0FAA3E0F98D8A
:1018610082758300EF1201620D80DC53B1FE43B239
:0318710001D29110
:011874002251
:0E1B4900121AE27D8E7F20121AE600000022A2
:1019B400E4FEFD7FFC121AE67D8F7F20121AE6E416
:1019C400FD7FFD121AE6E4FEFF000FBF00010EBE0C
:0519D40013F7BF88F4C9
:0119D90022EB
:0A1BA0007F07121AF5EF5470FF22C0
:061BE1007F09121AF52233
:071BD3007D707F27021AE676
:0C1B8A00E4FD7FE1121AE67FE2021AE699
:0E1B5700AC07121AE2AF04AD077F25021AE6B2
:0617F300121BA0EF703C88
:1017F90090004BF0A3F0900061EDF07FA01217BAB2
:10180900E4FD7FFD121AE6E490004BF0A3F000908E
:10181900004CE004F0700690004BE004F090004B9F
:0C182900E07004A3E064C870E5121AE24D
:011835002290
:10193D00AC05121BA0EF30E61D121AE290004FEC21
:10194D00F07F61121836121B8A121BD3E4FD7FFD46
:09195D00121AE67F01227F00222C
:100C0200784B7C007D017BFF7A1979DA7E007F05C3
:100C12001200F678507C007D017BFF7A1979DF7E25
:100C2200007F031200F678537C007D017BFF7A1966
:100C320079E27E007F061200F678597C007D017B06
:100C4200FF7A1979E87E007F011200F6785A7C005B
:100C52007D017BFF7A1979E97E007F031200F6128B
:100C62001BF97D5A7F53121AE67DA57F53121AE6AD
:100C72007D207F3D121AE6121AE27FE1121AE67F08
:100C8200E2121AE67D707F27121AE67D017F221298
:100C92001AE67D037F23121AE67D4E7F25121AE69D
:100CA2007D107F31121AE67B017A0079A3900061F0
:100CB2007405F07F301217BA7B017A0079A3900095
:100CC200617405F07F2A1217BA7A00794B1217B0B5
:100CD2007B017A0079539000617406F07F3A121713
:100CE200BA7B017A0079599000617401F07F391260
:100CF20017BA7B017A0079509000617403F07F3E4D
:100D02001217BA7B017A00795A9000617403F07F5E
:100D12003B1217BAE4FD7F3C121AE67D3F7F261292
:0E0D22001AE6E4FD7F24121AE67F21021AE68B
:050F3C00900075EFF0CC
:100F4100E478767C007D017BFF7A1979ECFE7F05E0
:100F51001200F6787B7C007D017BFF7A1979F17EA6
:100F6100007F031200F6787E7C007D017BFF7A19F9
:100F710079F47E007F061200F678847C007D017B87
:100F8100FF7A1979FA7E007F011200F678857C00DC
:100F91007D017BFF7A1979FB7E007F031200F67DCC
:100FA1005A7F53121AE67DA57F53121AE67D207FE0
:100FB1003D121AE6121AE2E4FF000000000FEFB43E
:100FC100DCF7900075E0FD7F25121AE67D3F7F2654
:100FD100121AE67A0079761217B07B017A00797ECF
:100FE1009000617406F07F3A1217BA7B017A00799A
:100FF100849000617401F07F391217BA7B017A0085
:10100100797B9000617403F07F3E1217BA7B017AFD
:0E1011000079859000617403F07F3B0217BAEE
:1014820053B1F743B20853B1EF43B21053B3FB4326
:10149200B40443DE01A2AF9209C2AF75C7AA75C7F1
:1014A2005543910143C60875C7AA75C7555391FEA6
:1014B200A20992AF43DE2053DF3F43DF0353DFFB3A
:1014C20075D10775D9D075D20175DAF475D5017564
:1014D200DDD475C50175CDA4D2DED2DFE4FBFDFFFC
:0314E200021B3AB0
:101A9300E4EF75F00AA4ACF0FDECF5C5AF05EFF586
:031AA300CDD2DEC3
:011AA600221D
:101AA700E4EF75F00AA4ACF0FDECF5D5AF05EFF562
:031AB700DDD2DE9F
:011ABA002209
:101ABB00E4EF75F00AA4ACF0FDECF5D2AF05EFF551
:031ACB00DAD2DE8E
:011ACE0022F5
:0F1B3A00AE05121A93AF06121AA7AF03021ABB19
:071BDA0053B3EF43B41022E6
:031BED00D294226D
:031BF000C294227A
:031BF300B2942287
:061BE700A294E433FF228A
:0A1BAA00EF6003021BED121BF02296
:1018750053B1BF53B2BF53B17F53B27F7598504335
:101885008920438780438E1053C4DFAB07AA06A97E
:1018950005A8047F407E427D0F7C00120222EF04E2
:0B18A500F404F58DD28ED299D2AC2253
:10126C009000A81202D853B1BF53B2BF53B17F53F1
:10127C00B27F75985043878053C4F843C4209000C4
:10128C00A8E0F8A3E0F9A3E0FAA3E0FB7F407E42DC
:10129C007D0F7C00120222C374FF9FFF74FF9EFE21
:1012AC00E49DFDE49CFC78081202C58FC69000A852
:1012BC00E0F8A3E0F9A3E0FAA3E0FB7F407E427DD7
:1012CC000F7C00120222C374FF9FFF8FC543C4081A
:0312DC00D2992282
:070003003098FDAF99C2988F
:01000A0022D3
:081BB400C2998F993099FD22BE
:1012DF009000AC1202D853B1FB53B2FB53B3BF53C0
:1012EF00B4BF75F85075C40853C4DF9000ACE0F874
:1012FF00A3E0F9A3E0FAA3E0FB7F407E427D0F7CE1
:10130F0000120222C374FF9FFF74FF9EFEE49DFD37
:10131F00E49CFC78081202C58FC69000ACE0F8A3DD
:10132F00E0F9A3E0FAA3E0FB7F407E427D0F7C0053
:0E133F00120222C374FF9FFF8FC543C4082211
:071BBC0030F8FDAF9AC2F8FA
:011BC30022FF
:081BC400C2F98F9A30F9FD22ED
:101656009000B01202D8538EF7438901D28CE4FF72
:10166600FEFDFC9000B0E0F8A3E0F9A3E0FAA3E0E9
:10167600FBC31202B4602F758A7E758CFF308DFD18
:10168600C28D9000B0E0FCA3E0FDA3E0FEA3E02441
:10169600FFFFEE34FFFEED34FFFDEC34FFFC90005F
:0916A600B01202D880B8C28C22F7
:1016AF009000B41202D8538EF7438901D28CE4FF15
:1016BF00FEFDFC9000B4E0F8A3E0F9A3E0FAA3E08C
:1016CF00FBC31202B4602F758ACA758CFA308DFD78
:1016DF00C28D9000B4E0FCA3E0FDA3E0FEA3E024E4
:1016EF00FFFFEE34FFFEED34FFFDEC34FFFC900006
:0916FF00B41202D880B8C28C229A
:101708009000B81202D8538EEF438910D28EE4FFAE
:10171800FEFDFC9000B8E0F8A3E0F9A3E0FAA3E02E
:10172800FBC31202B4602F758BEA758DCB308FFD29
:10173800C28F9000B8E0FCA3E0FDA3E0FEA3E02484
:10174800FFFFEE34FFFEED34FFFDEC34FFFC9000AC
:09175800B81202D880B8C28E223A
:101544009000BC1202D853C9BF53C9DF43C910D29B
:10155400CAE4FFFEFDFC9000BCE0F8A3E0F9A3E0C0
:10156400FAA3E0FBC31202B4602F75CC3075CDF83A
:1015740030CFFDC2CF9000BCE0FCA3E0FDA3E0FEB1
:10158400A3E024FFFFEE34FFFEED34FFFDEC34FF57
:0C159400FC9000BC1202D880B8C2CA2231
:1015A0009000C01202D875C40743C408E4FFFEFDD2
:1015B000FC9000C0E0F8A3E0F9A3E0FAA3E0FBC3CD
:1015C0001202B4603275C52C75C6CFE5C430E4FB99
:1015D00053C4EF9000C0E0FCA3E0FDA3E0FEA3E055
:1015E00024FFFFEE34FFFEED34FFFDEC34FFFC90F2
:0B15F00000C01202D880B553C4F722DF
:1015FB009000C41202D875C40743C408E4FFFEFD73
:10160B00FC9000C4E0F8A3E0F9A3E0FAA3E0FBC36D
:10161B001202B4603275C5D875C6FFE5C430E4FB61
:10162B0053C4EF9000C4E0FCA3E0FDA3E0FEA3E0F5
:10163B0024FFFFEE34FFFEED34FFFDEC34FFFC9096
:0B164B0000C41202D880B553C4F7227F
:100D30000A3D3D3D3D3D3D3D3D3D3D3D3D3D3D3D16
:100D40003D3D3D3D3D3D3D3D3D3D3D3D3D3D3D3DD3
:100D50003D3D3D3D3D3D3D3D3D3D3D3D3D3D3D3DC3
:100D60003D3D3D3D3D3D3D3D3D3D3D3D3D3D3D3DB3
:100D70003D3D3D3D3D000A2A2020436F7079726958
:100D80006768742863292032303135204E75766FBC
:100D9000746F6E20546563686E6F6C6F6779204363
:100DA0006F72702E20416C6C2072696768747320BA
:100DB00072657365727665642E2020000A2A2020F1
:100DC000436F6E7461637420452D4D61696C3A20E8
:100DD0004D6963726F432D38626974406E75766F2A
:100DE000746F6E2E636F6D20202020202020202025
:100DF00020202020202020202020202020202020F3
:100E000020000A2A202044656D6F205665727369A0
:100E10006F6E20203A202532642E2532642E253232
:100E200064000A2A202046696E697368656420445C
:100E3000617465203A202532642E2532642E2532D5
:020E400064004C
:1014E5007BFF7A0D793012042E7BFF7A0D79761207
:1014F500042E7BFF7A0D79BC12042E7BFF7A0E79C0
:1015050002900003E4F0A304F0E4A3F0A3F0A3F039
:10151500A3F012042E7BFF7A0E7922900003740744
:10152500F0A374DFF0A3E4F0A37405F0A3E4F0A343
:0F153500741FF012042E7BFF7A0D793002042E02
:030000000210D417
:1010D400787FE4F6D8FD9000007FFF7E03E4F0A360
:0A10E400DFFCDEFA758163021129BA
:1010EE00021911E493A3F8E493A34003F68001F2EE
:1010FE0008DFF48029E493A3F85407240CC8C33303
:10110E00C4540F4420C8834004F456800146F6DFD1
:10111E00E4800B01020408102040809013B6E47E98
:10112E00019360BCA3FF543F30E509541FFEE493C6
:10113E00A360010ECF54C025E060A840B8E493A38D
:10114E00FAE493A3F8E493A3C8C582C8CAC583CAB8
:10115E00F0A3C8C582C8CAC583CADFE9DEE780BE70
:01141D0000CE
:10002600E709F608DFFA8046E709F208DFFA803EBC
:1000360088828C83E709F0A3DFFA8032E309F608A9
:10004600DFFA8078E309F208DFFA807088828C8311
:10005600E309F0A3DFFA806489828A83E0A3F608C5
:10006600DFFA805889828A83E0A3F208DFFA804C9F
:1000760080D280FA80C680D4806980F28033801076
:1000860080A680EA809A80A880DA80E280CA8033DF
:1000960089828A83ECFAE493A3C8C582C8CCC58357
:1000A600CCF0A3C8C582C8CCC583CCDFE9DEE78027
:1000B6000D89828A83E493A3F608DFF9ECFAA9F0A6
:1000C600EDFB2289828A83ECFAE0A3C8C582C8CCFC
:1000D600C583CCF0A3C8C582C8CCC583CCDFEADE15
:1000E600E880DB89828A83E493A3F208DFF980CC77
:1000F60088F0EF60010E4E60C388F0ED2402B40470
:100106000050B9F582EB2402B4040050AF23234516
:06011600822390007673C5
:10011C00BB010689828A83E0225002E722BBFE02E1
:09012C00E32289828A83E4932214
:10013500BB010CE58229F582E5833AF583E022507F
:1001450006E92582F8E622BBFE06E92582F8E222C9
:0D015500E58229F582E5833AF583E49322E3
:10016200F8BB010DE58229F582E5833AF583E8F0D3
:10017200225006E92582C8F622BBFE05E92582C87F
:02018200F22267
:10018400C2D5EC30E709B2D5E4C39DFDE49CFCEE96
:1001940030E715B2D5E4C39FFFE49EFE120328C3E3
:1001A400E49DFDE49CFC800312032830D507C3E4DE
:0601B4009FFFE49EFE2205
:1001BA00C5F0F8A3E028F0C5F0F8E58215827002D0
:0601CA001583E038F0226D
:1001D000A3F8E0C5F025F0F0E582158270021583E2
:0601E000E0C838F0E8223F
:1001E60075F008758200EF2FFFEE33FECD33CDCCD0
:1001F60033CCC58233C5829BED9AEC99E582984053
:100206000CF582EE9BFEED9AFDEC99FC0FD5F0D62F
:10021600E4CEFBE4CDFAE4CCF9A88222B800C1B959
:100226000059BA002DEC8BF084CFCECDFCE5F0CB97
:10023600F97818EF2FFFEE33FEED33FDEC33FCEBD0
:1002460033FB10D703994004EB99FB0FD8E5E4F98B
:10025600FA227818EF2FFFEE33FEED33FDEC33FC78
:10026600C933C910D7059BE99A4007EC9BFCE99A6C
:10027600F90FD8E0E4C9FAE4CCFB2275F010EF2FB1
:10028600FFEE33FEED33FDCC33CCC833C810D707B1
:100296009BEC9AE899400AED9BFDEC9AFCE899F8EC
:0E02A6000FD5F0DAE4CDFBE4CCFAE4C8F9227F
:1002B400EB9FF5F0EA9E42F0E99D42F0E89C45F0A0
:0102C4002217
:1002C500E8600FECC313FCED13FDEE13FEEF13FF17
:0302D500D8F1223B
:0C02D800ECF0A3EDF0A3EEF0A3EFF02299
:0602E4008A838982E473A5
:1003C300E5082403F582E43400F583E00508229070
:1003D3000000300703900003E475F00112037D026F
:1003E300011C2000E97F2ED2008018EF540F2490C7
:1003F300D43440D4FF30040BEF24BFB41A005003AD
:100403002461FFE50960021509050CE50C7002057E
:100413000B30070E900000E475F00112037DEF022C
:10042300031602198D7403D2078003E4C207F5088B
:10043300900000120394E4F509F50BF50CE509604F
:10044300077F2012040680F5750AFFC201C200C2AD
:1004530002C203C205C206C2081203D2FF700D30E6
:1004630007057F00120417AF0CAE0B22B4255FC241
:10047300D5C2041203D2FF24D0B40A00501A75F077
:100483000A780930D50508B6FF0106C6A426F6206A
:10049300D5047002D20380D924CFB41A00EF5004DC
:1004A300C2E5D204020618D20180C6D20080C0D2AF
:1004B3000280BCD2D580BAD20580B47F2012040654
:1004C3002002077401B5090040F11203C3FF1204AF
:1004D30006020440D208D20680951203C3FB12031E
:1004E300C3FA1203C3F94A4B700679E97A067BFF14
:1004F30020022EE509602A7E008E82758300120198
:100503003560060EEE650A70F0C2D5EBC0E0EAC0B6
:10051300E0E9C0E0EE12065FD0E0F9D0E0FAD0E007
:10052300FB12011CFF60AAEBC0E0EAC0E0E9C0E0F7
:10053300120406D0E02401F9D0E03400FAD0E0FB45
:10054300E50A0460DCD50AD980877BFF7A06795BEC
:10055300D202809C791080027908C206C208800802
:10056300D2D5790A8004790AC2D5E50A047002F566
:100573000AE4FAFDFEFF1203C3FC7B0820011312F9
:1005830003C3FD7B1030000A1203C3FE1203C3FF33
:100593007B20EC3382D592D55013C3E43000069F01
:1005A300FFE49EFEE42001039DFDE49CFCE4CBF804
:1005B300C201EC700CCFCECDCCE824F8F870F380F8
:1005C30017C3EF33FFEE33FEED33FDEC33FCEB33B8
:1005D300FB994002FB0FD8E9EB300105F8D0E0C4EA
:1005E30048B201C0E00AEC4D4E4F78207B0070C248
:1005F300EAB50A0040BCC0E0120661D0F0D0E020AA
:100603000104C4C0E0C4B201C0F01203EFD0F0D5BE
:10061300F0EB02044012039D04DD5305575804AE6A
:100623004C04AA42055B4F05634405634904C34375
:08063300056955054D46054D12
:10063B0045054D4707095004B22D04B62E04D92B9E
:10064B0004BA2304D72006F22A047248000004D10E
:10065B003F3F3F00790AA2D5200314300509B9109A
:10066B00020404B9080104A2D5200602500104209B
:10067B0002689202B509005034C0E07F20300319A4
:10068B007F30A20272067205500F1206B8C202C268
:10069B0006C205C2087F30800F300503E9C0E012A7
:1006AB000406300503D0E0F9D0E0B509CC300517CE
:1006BB007F30B9100C1204067F583004077F788006
:1006CB0003B908031204063002057F2D0204067FCE
:1006DB00202008F87F2B2006F322920280CF286E71
:1006EB00756C6C2900D2011203C33001F8C201787A
:1006FB000930D50108F60204722D504349581203F4
:10070B00C32403B405004001E4900704931203F7DC
:0D071B00743A1203F7D20375090402055762
:1002EA00EF4E6012EF60010EEDBB010B89828A832B
:1002FA00F0A3DFFCDEFA2289F05007F709DFFCA938
:0C030A00F022BBFEFCF309DFFCA9F0228E
:10031600BB010689828A83F0225002F722BBFE01C6
:02032600F322C0
:10032800BC000BBE0029EF8DF084FFADF022E4CCB9
:10033800F875F008EF2FFFEE33FEEC33FCEE9DEC82
:10034800984005FCEE9DFE0FD5F0E9E4CEFD22EDC8
:10035800F8F5F0EE8420D21CFEADF075F008EF2F12
:10036800FFED33FD4007985006D5F0F222C398FD03
:050378000FD5F0EA22A0
:10037D00F8E0FBA3A3E0F925F0F0E5821582700209
:07038D001583E0FA38F022AD
:09039400EBF0A3EAF0A3E9F0226A
:10039D00D083D082F8E4937012740193700DA3A3EF
:1003AD0093F8740193F5828883E473740293686003
:0603BD00EFA3A3A380DF03
:10198D00EFB40A07740D121998740A309811A899BA
:10199D00B8130CC2983098FDA899C298B811F630BA
:0719AD0099FDC299F5992292
:00000001FF
