:081040004100A9004100AA00D3
:03005B0002132A63
:03132A00C2EF32DD
:03003B0002132687
:0413260075EC003230
:100FD9001212BA12005A900072E06002E4F0900016
:0C0FE90074E06002E4F0900077E060EA41
:100FF500E4F09000AAE004F0E0D3940340DC740A26
:07100500F09000A9E004F0E7
:02100C0080D191
:1010480048003C0A1414191E1E322841003B00C1F6
:01105800098E
:10001E009000447401F0E4A3F0A3F0A3F0A3F0A3C6
:0C002E00F0A3F0A3F0A3F090003BF02240
:1010BA00900047E004F07006900046E004F0D390F8
:1010CA000047E09410900046E094274004E4F0A31F
:0410DA00F0D2092225
:0D000E0090003BE0C394FF5003E004F0229B
:0912F100300905C20912003A227D
:01003A0022A3
:0C12A200900059EBF0A3EAF0A3E9F02261
:0C12AE0090005CEBF0A3EAF0A3E9F02252
:10125800900059A3E0FAA3E0F94A600312062E228F
:1012680090005CA3E0FAA3E0F94A600312062E227C
:10100E00EF4E602D90004FEEF0A3EFF0AF05A3EC86
:10101E00F0A3EFF0AF03A3EAF0A3EFF0E4A3F0A385
:10102E00F0A3F0A3F090004EF090004D04F01212D9
:02103E00582236
:1011B300E490004DF01212687B007A00790012125D
:0411C300A20212AEC4
:1009AF0090004DE07003020A63900051E0FEA3E057
:1009BF00FF4E7003020A6390004EE07035D3EF9440
:1009CF0000EE94005003020A63900055E475F001A5
:1009DF0012051AFED3900050E095F090004FE09E64
:1009EF005072121268E4900055F0A3F090004E047C
:1009FF00F02290004EE06401705A90005575F0019E
:100A0F0012051AFED3900052E095F0900051E09E2F
:100A1F005042900053E0FEA3E0FF9400EE9400409C
:100A2F0025900057E475F00112051AFCD3EF95F0ED
:100A3F00EE9C5005E490004DF090004DE070079053
:100A4F000051F0A3F022E4900055F0A3F090004E77
:050A5F00F01212582204
:01005A002283
:011333002297
:0C12BA001211ED121102120DB9D2AF2278
:0B12D2007F807E257D007C00020B71F8
:1011C70030F80BE59A1204E6C2F8D20B8002C20B84
:0211D700A20B69
:0111D90022F3
:0810590041007800410079001C
:1011020012003E5389F75389FB5389FD43890190AD
:10111200007874FCF0A37466F0758CFCF58AD2A991
:03112200D28C224A
:10003E00E4900071F0900073F0900075F0A3F090D2
:0C004E000072F0900074F0900077F02237
:03000B00020BDF06
:100BDF00C0E0C0F0C083C082C0D075D000C000C0DC
:100BEF0006900078E0F58CA3E0F58A900071E004A0
:100BFF00F0C3940A4005E4F0A304F0900073E004FE
:100C0F00F0C394644005E4F0A304F0900075E4751C
:100C1F00F00112051AFEC3E5F094E8EE9403400AC2
:100C2F00900075E4F0A3F0A304F0D006D000D0D06C
:090C3F00D082D083D0F0D0E03265
:1011DA0053897F5389BF4389205389EF758DCE7513
:0311EA008BCE2287
:03001B0002133499
:011334003286
:1010DE000A6D679C46F6375D4521EFAC5A50010B01
:1010EE00DF020A6D679C46F6375D4521EFAC5A501C
:0410FE00E10BDF0221
:08106100450084CCCCCCCCCCC2
:1011ED0053B3FE43B40153B3FD43B40253B1FE43B5
:0311FD00B201221A
:011335002295
:10116800E4FEC290EF30E704D2808002C280EF250F
:0B117800E0FFD2900EEEB408E9C29038
:011183002249
:04123600E4FD7FFC58
:0D123A00C291121168AF05121168D2912205
:0A0F1E007B0190007E7405F07F3F18
:0B0F280090007BEBF0A3EAF0A3E9F0DF
:100F3300C291E4FD12116890007EE0FFEDC39F5063
:100F43001A90007BE0FBA3E0FAA3E0F98D8275839E
:0D0F5300001204B9FF1211680D80DCD2916C
:010F6000226E
:10112500E4FEC290EF30E704D2808002C280EF2552
:10113500E0FFD2900EEEB408E943B10153B2FEC20E
:011145009019
:011146002286
:10118400E4FFFEC290EF25E0FFD2903080034401DB
:08119400FF0EEEB408EDC2905D
:01119C002230
:10124700C29112112512118453B1FE43B201D291FA
:011257002274
:0B0F6100900080EBF0A3EAF0A3E9F0A1
:100F6C00C291121125E4FD900083E0FFEDC39F5068
:100F7C001A121184900080E0FBA3E0FAA3E0F98D33
:100F8C0082758300EF1204F80D80DC53B1FE43B27E
:030F9C0001D291EE
:010F9F00222F
:0D1295001212367D8E7F2012123A000022C8
:10119D001212367D8F7F2012123AE4FD7FFD12125E
:0611AD003A0000000022E0
:0A12DD007F07121247EF5470FF2242
:061320007F0912124722B2
:071312007D707F2702123AF3
:0C12C600E4FD7FE112123A7FE202123ACE
:0E128700AC07121236AF04AD077F2502123AF3
:101147001212DDEF701A90007EEDF07FA0120F28CB
:10115700E4FD7FFD12123A000000007FFC12123AF4
:011167002265
:10106A00AC051212DDEF30E61D121236900083EC49
:10107A00F07F61120F611212C6121312E4FD7FFD96
:09108A0012123A7F01227F0022BC
:10069300785F7C007D017BFF7A1079DE7E007F0529
:1006A30012049378647C007D017BFF7A1079E37EEA
:1006B300007F0312049378677C007D017BFF7A102F
:1006C30079E67E007F06120493786D7C007D017BC2
:1006D300FF7A1079EC7E007F01120493786E7C0020
:1006E3007D017BFF7A1079ED7E007F031204931264
:1006F30013357D5A7F5312123A7DA57F5312123A56
:100703007D207F3D12123A1212367FE112123A7F98
:10071300E212123A7D707F2712123A7D017F221274
:10072300123A7D037F2312123A7D4E7F2512123A2D
:100733007D087F3112123A7B017A00798490007E22
:100743007405F07F30120F287B017A0079849000C2
:100753007E7405F07F2A120F287A00795F120F1E2C
:100763007B017A00796790007E7406F07F3A120F5E
:10077300287B017A00796D90007E7401F07F391235
:100783000F287B017A00796490007E7403F07F3E2A
:10079300120F287B017A00796E90007E7403F07F3C
:1007A3003B120F28E4FD7F3C12123A7D3F7F261255
:0E07B300123AE4FD7F2412123A7F2102123A1C
:0508D300900028EFF089
:1008D80078297C007D017BFF7A1079F07E007F0506
:1008E800120493782E7C007D017BFF7A1079F57EC7
:1008F800007F0312049378317C007D017BFF7A101E
:1009080079F87E007F0612049378377C007D017B9E
:10091800FF7A1079FE7E007F0112049378387C00FC
:100928007D017BFF7A1079FF7E007F031204937D9F
:100938005A7F5312123A7DA57F5312123A7D207FB7
:100948003D12123A12123600000000900028E0FD15
:100958007F2512123A7D3F7F2612123A7A007929B2
:10096800120F1E7B017A00793190007E7406F07FA9
:100978003A120F287B017A00793790007E7401F0D3
:100988007F39120F287B017A00792E90007E74033C
:10099800F07F3E120F287B017A00793890007E7430
:0709A80003F07F3B020F2862
:100DB90053B1F743B20853B1EF43B21053B3FB43F6
:100DC900B40443DE01A2AF920AC2AF75C7AA75C7C0
:100DD9005543910143C60875C7AA75C7555391FE76
:100DE900A20A92AF43DE2053DF3F43DF0775D103E9
:100DF90075D9E875D20175DAF475D50175DDD47543
:0A0E0900C50175CDA4D2DED2DF22B0
:10120000E4EF75F00AA4ACF0FDECF5C5AF05EFF521
:01121000CD10
:0112110022BA
:10121200E4EF75F00AA4ACF0FDECF5D5AF05EFF5FF
:01122200DDEE
:0112230022A8
:10122400E4EF75F00AA4ACF0FDECF5D2AF05EFF5F0
:01123400DADF
:011235002296
:0F127800AE05121200AF06121212AF03021224BB
:0713190053B3EF43B41022AF
:03132D00D2842245
:03133000C2842252
:0A12E700EF600302132D12133022F2
:100FA00053B1BF53B2BF53B17F53B27F7598504313
:100FB0008920438780438E1053C4DFAB07AA06A95C
:100FC00005A8047F407E427D0F7C0012056CEF0473
:090FD000F404F58DD28ED29922B1
:100AFE0090008912062253B1BF53B2BF53B17F5338
:100B0E00B27F75985043878053C4F843C420900039
:100B1E0089E0F8A3E0F9A3E0FAA3E0FB7F407E4270
:100B2E007D0F7C0012056CC374FF9FFF74FF9EFE49
:100B3E00E49DFDE49CFC780812060F8FC690008998
:100B4E00E0F8A3E0F9A3E0FAA3E0FB7F407E427D4C
:100B5E000F7C0012056CC374FF9FFF8FC543C40842
:030B6E00D29922F7
:070003003098FDAF99C2988F
:01000A0022D3
:0812FA00C2998F993099FD2281
:100B710090008D12062253B1FB53B2FB53B3BF5306
:100B8100B4BF75F85075C40853C4DF90008DE0F808
:100B9100A3E0F9A3E0FAA3E0FB7F407E427D0F7C56
:100BA1000012056CC374FF9FFF74FF9EFEE49DFD60
:100BB100E49CFC780812060F8FC690008DE0F8A324
:100BC100E0F9A3E0FAA3E0FB7F407E427D0F7C00C9
:0E0BD10012056CC374FF9FFF8FC543C408223A
:0713020030F8FDAF9AC2F8BC
:0113090022C1
:08130A00C2F98F9A30F9FD22AF
:100E1300900091120622538EF7438901D28CE4FF8E
:100E2300FEFDFC900091E0F8A3E0F9A3E0FAA3E053
:100E3300FBC31205FE602F758A7E758CFF308DFD16
:100E4300C28D900091E0FCA3E0FDA3E0FEA3E024AB
:100E5300FFFFEE34FFFEED34FFFDEC34FFFC9000AA
:090E63009112062280B8C28C2213
:100E6C00900095120622538EF7438901D28CE4FF31
:100E7C00FEFDFC900095E0F8A3E0F9A3E0FAA3E0F6
:100E8C00FBC31205FE602F758ACA758CFA308DFD76
:100E9C00C28D900095E0FCA3E0FDA3E0FEA3E0244E
:100EAC00FFFFEE34FFFEED34FFFDEC34FFFC900051
:090EBC009512062280B8C28C22B6
:100EC500900099120622538EEF438910D28EE4FFCB
:100ED500FEFDFC900099E0F8A3E0F9A3E0FAA3E099
:100EE500FBC31205FE602F758BEA758DCB308FFD28
:100EF500C28F900099E0FCA3E0FDA3E0FEA3E024EF
:100F0500FFFFEE34FFFEED34FFFDEC34FFFC9000F7
:090F15009912062280B8C28E2256
:100CA70090009D12062253C9BF53C9DF43C910D212
:100CB700CAE4FFFEFDFC90009DE0F8A3E0F9A3E085
:100CC700FAA3E0FBC31205FE602F75CC3075CDF893
:100CD70030CFFDC2CF90009DE0FCA3E0FDA3E0FE76
:100CE700A3E024FFFFEE34FFFEED34FFFDEC34FFFD
:0C0CF700FC90009D12062280B8C2CA22A8
:100D03009000A112062275C40743C408E4FFFEFD48
:100D1300FC9000A1E0F8A3E0F9A3E0FAA3E0FBC391
:100D23001205FE603275C52C75C6CFE5C430E4FBF1
:100D330053C4EF9000A1E0FCA3E0FDA3E0FEA3E019
:100D430024FFFFEE34FFFEED34FFFDEC34FFFC9097
:0B0D530000A112062280B553C4F72255
:100D5E009000A512062275C40743C408E4FFFEFDE9
:100D6E00FC9000A5E0F8A3E0F9A3E0FAA3E0FBC332
:100D7E001205FE603275C5D875C6FFE5C430E4FBBA
:100D8E0053C4EF9000A5E0FCA3E0FDA3E0FEA3E0BA
:100D9E0024FFFFEE34FFFEED34FFFDEC34FFFC903C
:0B0DAE0000A512062280B553C4F722F6
:1007C1000A3D3D3D3D3D3D3D3D3D3D3D3D3D3D3D8B
:1007D1003D3D3D3D3D3D3D3D3D3D3D3D3D3D3D3D48
:1007E1003D3D3D3D3D3D3D3D3D3D3D3D3D3D3D3D38
:1007F1003D3D3D3D3D3D3D3D3D3D3D3D3D3D3D3D28
:100801003D3D3D3D3D000A2A2020436F70797269CC
:100811006768742863292032303135204E75766F30
:10082100746F6E20546563686E6F6C6F67792043D7
:100831006F72702E20416C6C20726967687473202E
:1008410072657365727665642E2020000A2A202065
:10085100436F6E7461637420452D4D61696C3A205C
:100861004D6963726F432D38626974406E75766F9E
:10087100746F6E2E636F6D20202020202020202099
:100881002020202020202020202020202020202067
:1008910020000A2A202044656D6F20566572736915
:1008A1006F6E20203A202532642E2532642E2532A7
:1008B10064000A2A202046696E69736865642044D1
:1008C100617465203A202532642E2532642E25324A
:0208D1006400C1
:100C48007BFF7A0779C11200C97BFF7A08790712FE
:100C580000C97BFF7A08794D1200C97BFF7A0879B1
:100C680093900003E4F0A304F0E4A3F0A3F0A3F04E
:100C7800A3F01200C97BFF7A0879B39000037407C8
:100C8800F0A374DFF0A3E4F0A37405F0A3E4F0A3E9
:0F0C9800741FF01200C97BFF7A0779C10200C9EF
:03000000020A648D
:100A6400787FE4F6D8FD9000007FFF7E03E4F0A3D6
:0A0A7400DFFCDEFA758121020AB9E9
:100A7E00020FD9E493A3F8E493A34003F68001F2A6
:100A8E0008DFF48029E493A3F85407240CC8C33379
:100A9E00C4540F4420C8834004F456800146F6DF48
:100AAE00E4800B0102040810204080901040E47E88
:100ABE00019360BCA3FF543F30E509541FFEE4933D
:100ACE00A360010ECF54C025E060A840B8E493A304
:100ADE00FAE493A3F8E493A3C8C582C8CAC583CA2F
:100AEE00F0A3C8C582C8CAC583CADFE9DEE780BEE7
:011069000086
:1003C300E709F608DFFA8046E709F208DFFA803E1C
:1003D30088828C83E709F0A3DFFA8032E309F60809
:1003E300DFFA8078E309F208DFFA807088828C8371
:1003F300E309F0A3DFFA806489828A83E0A3F60825
:10040300DFFA805889828A83E0A3F208DFFA804CFE
:1004130080D280FA80C680D4806980F280338010D5
:1004230080A680EA809A80A880DA80E280CA80333E
:1004330089828A83ECFAE493A3C8C582C8CCC583B6
:10044300CCF0A3C8C582C8CCC583CCDFE9DEE78086
:100453000D89828A83E493A3F608DFF9ECFAA9F005
:10046300EDFB2289828A83ECFAE0A3C8C582C8CC5B
:10047300C583CCF0A3C8C582C8CCC583CCDFEADE74
:10048300E880DB89828A83E493A3F208DFF980CCD6
:1004930088F0EF60010E4E60C388F0ED2402B404CF
:1004A3000050B9F582EB2402B4040050AF23234576
:0604B30082239004137384
:1004B900BB010CE58229F582E5833AF583E02250F8
:1004C90006E92582F8E622BBFE06E92582F8E22242
:0D04D900E58229F582E5833AF583E493225C
:1004E600BB010689828A83F0225002F722BBFE01F5
:0204F600F322EF
:1004F800F8BB010DE58229F582E5833AF583E8F03A
:10050800225006E92582C8F622BBFE05E92582C8E5
:02051800F222CD
:10051A00C5F0F8A3E028F0C5F0F8E582158270026C
:06052A001583E038F02209
:1005300075F008758200EF2FFFEE33FECD33CDCC82
:1005400033CCC58233C5829BED9AEC99E582984005
:100550000CF582EE9BFEED9AFDEC99FC0FD5F0D6E2
:10056000E4CEFBE4CDFAE4CCF9A88222B800C1B90C
:100570000059BA002DEC8BF084CFCECDFCE5F0CB4A
:10058000F97818EF2FFFEE33FEED33FDEC33FCEB83
:1005900033FB10D703994004EB99FB0FD8E5E4F93E
:1005A000FA227818EF2FFFEE33FEED33FDEC33FC2B
:1005B000C933C910D7059BE99A4007EC9BFCE99A1F
:1005C000F90FD8E0E4C9FAE4CCFB2275F010EF2F64
:1005D000FFEE33FEED33FDCC33CCC833C810D70764
:1005E0009BEC9AE899400AED9BFDEC9AFCE899F89F
:0E05F0000FD5F0DAE4CDFBE4CCFAE4C8F92232
:1005FE00EB9FF5F0EA9E42F0E99D42F0E89C45F053
:01060E0022C9
:10060F00E8600FECC313FCED13FDEE13FEEF13FFC9
:03061F00D8F122ED
:0C062200ECF0A3EDF0A3EEF0A3EFF0224B
:06062E008A838982E47357
:10005E00E5082403F582E43400F583E005082290D8
:10006E000000300703900003E475F00112064D0204
:10007E0006342000E97F2ED2008018EF540F249012
:10008E00D43440D4FF30040BEF24BFB41A00500315
:10009E002461FFE50960021509050CE50C700205E7
:1000AE000B30070E900000E475F00112064DEF02C2
:1000BE0004E60210937403D2078003E4C207F50826
:1000CE00900000120664E4F509F50BF50CE50960E5
:1000DE00077F201200A180F5750AFFC201C200C27F
:1000EE0002C203C205C206C20812006DFF700D30B7
:1000FE0007057F001200B2AF0CAE0B22B4255FC213
:10010E00D5C20412006DFF24D0B40A00501A75F047
:10011E000A780930D50508B6FF0106C6A426F620D2
:10012E00D5047002D20380D924CFB41A00EF500444
:10013E00C2E5D2040202B3D20180C6D20080C0D280
:10014E000280BCD2D580BAD20580B47F201200A125
:10015E002002077401B5090040F112005EFF120083
:10016E00A10200DBD208D206809512005EFB1200BF
:10017E005EFA12005EF94A4B700679847A037BFFB1
:10018E0020022EE509602A7E008E827583001204FD
:10019E00B960060EEE650A70F0C2D5EBC0E0EAC09B
:1001AE00E0E9C0E0EE1202FAD0E0F9D0E0FAD0E0D9
:1001BE00FB120634FF60AAEBC0E0EAC0E0E9C0E043
:1001CE001200A1D0E02401F9D0E03400FAD0E0FB17
:1001DE00E50A0460DCD50AD980877BFF7A0279F6BE
:1001EE00D202809C791080027908C206C20880086B
:1001FE00D2D5790A8004790AC2D5E50A047002F5CF
:10020E000AE4FAFDFEFF12005EFC7B0820011312C9
:10021E00005EFD7B1030000A12005EFE12005EFFD3
:10022E007B20EC3382D592D55013C3E43000069F69
:10023E00FFE49EFEE42001039DFDE49CFCE4CBF86C
:10024E00C201EC700CCFCECDCCE824F8F870F38060
:10025E0017C3EF33FFEE33FEED33FDEC33FCEB3320
:10026E00FB994002FB0FD8E9EB300105F8D0E0C452
:10027E0048B201C0E00AEC4D4E4F78207B0070C2B0
:10028E00EAB50A0040BCC0E01202FCD0F0D0E0207B
:10029E000104C4C0E0C4B201C0F012008AD0F0D58F
:1002AE00F0EB0200DB12066D01785301F2580149A2
:1002BE004C01454201F64F01FE4401FE49015E43E9
:0802CE0002045501E84601E8B5
:1002D6004501E84703A450014D2D01512E01742B11
:1002E600015523017220038D2A010D480000016C7F
:1002F6003F3F3F00790AA2D5200314300509B91003
:10030600020404B9080104A2D52006025001042003
:1003160002689202B509005034C0E07F203003190C
:100326007F30A20272067205500F120353C202C238
:1003360006C205C2087F30800F300503E9C0E0120F
:1003460000A1300503D0E0F9D0E0B509CC3005179F
:100356007F30B9100C1200A17F583004077F7880D7
:1003660003B908031200A13002057F2D0200A17F08
:10037600202008F87F2B2006F322920280CF286ED9
:10038600756C6C2900D20112005E3001F8C201784A
:100396000930D50108F602010D2D504349581200C7
:1003A6005E2403B405004001E490039F931200927B
:0D03B600743A120092D2037509040201F29C
:10063400BB010689828A83E0225002E722BBFE02C4
:09064400E32289828A83E49322F7
:10064D00F8E0FBA3A3E0F925F0F0E5821582700236
:07065D001583E0FA38F022DA
:09066400EBF0A3EAF0A3E9F02297
:10066D00D083D082F8E4937012740193700DA3A31C
:10067D0093F8740193F5828883E473740293686030
:06068D00EFA3A3A380DF30
:10109300EFB40A07740D12109E740A309811A899C0
:1010A300B8130CC2983098FDA899C298B811F630BD
:0710B30099FDC299F5992295
:00000001FF
